:100000000C9410050C9438050C9438050C943805A4
:100010000C947D3B0C9438050C9438050C943805F1
:100020000C9438050C94B93B0C94A1060C9438053B
:100030000C9438050C94503C0C94853C0C94380579
:100040000C94C5060C9438050C9438050C943805AE
:100050000C94380575165C165E16601667167316D6
:100060006D166F16EB23D323D523D723D923DB2398
:10007000DD23E123E323E623E823F923ED23EF2324
:10008000F123F523F723F323FB23432A6E2A492A7E
:100090004C2A502A562A592A5E2A622A662A682A37
:1000A000432A4C2A502A6A2A3E3441344A34533473
:1000B000553459345C340037043706370B370E3764
:1000C0001037153718371B371E3721372437273796
:1000D0002C37323737373E374137443749374C377B
:1000E00079377D378037853787378A378F3791372C
:1000F000953799379F37A337A537A937AF37B43727
:10010000B837BA37BE37C437C837A538A738A93883
:10011000AD38AD38AB38B138AF380000000080C61C
:100120004E5A000000007C6B083100000000000007
:100130000000000000000000000000000000C0AE51
:100140004E5AFC5350143FA0540B0000000000BB5B
:10015000C43680186009DC3770170000000000000A
:1001600000000000000044C4FA0E0000000000C4BB
:10017000FB0E0000000068C4FD0E00000000AAC5D0
:10018000160F0000000040C6190F0000000040C715
:100190002D0F000000000000000000000000000023
:1001A0000000FF0000000005040000040900FF013A
:1001B00001000105050001040A00FF02020002051A
:1001C000060002040B00FF030300030507000304FD
:1001D0000C00FF0000000405110204040D00FF01E3
:1001E00001000505110405040E0006051101FF02BA
:1001F0000200070511085C0DA60DAD0E4368656190
:100200006C692D43686172676572206D0076302ECF
:1002100033336D5F323031343130313200210200FE
:10022000006F7074696F6E730001000100010001BE
:100230000001000A00640001000300080009000A30
:10024000000B000C00010002000400060008000A78
:10025000000C006D5600206E6F0079657300496ECA
:1002600066006D696E2E00756E6C696D697400753F
:100270006E6C696D6974656400BA02B502B002AB58
:1002800002A602A1029C02970292028D024E695AB6
:100290006E004C343335004C343330004C69706F91
:1002A000004C696C6F004C6966650050622020004C
:1002B0004E694D48004E69436400556E6B6E0000F8
:1002C000980898086C0710275802019808F4016CE8
:1002D000070100E001029808F4016C070100E00149
:1002E000039808DC006C070600E0010498089808F1
:1002F0006C070300780005980898086C07030078DD
:100300000006980898086C0703007800079808987A
:10031000086C070300780008980898086C07030029
:10032000780009980898086C07030078000100011C
:10033000000100010000000100B0041C075203008E
:100340000008075203B0044006E80300000807E86D
:1003500003D0079209D606000000006C07E40C10D9
:100360000ED007E40C0000B80B100E0410C409A650
:100370000E0000AC0D740E6810B80B0A0F00008957
:100380000C740ECC10B80B0A0F0000890C740EFE12
:1003900010B80B0A0F0000890C40066C07140540CA
:1003A00006000078054E616D653A00456469742069
:1003B0006E616D653A0006040104FC03F703F20365
:1003C000EB03DF03D503CA03000052657365742095
:1003D0006E616D650045646974206E616D650043F2
:1003E0007265617465206E616D6500546C696D3A6B
:1003F000200049643A200049633A200043683A20CB
:1004000000563A2020004261743A20200043616C7B
:100410002E6572722E2020463A002500202D2D3A9E
:100420002D2D0020200020002000252000524556C0
:100430004552534520504F4C415249545900706C1D
:10044000656173652063616C2E004E2F4100646509
:100450006C746120543D20004E2F41005465787427
:100460003D0064656C746120563D20006D617856D6
:100470006F75743D006E6F2064542F740045727266
:100480006F723A0054696D653A200070726F67723E
:10049000616D20636F6D706C6574650054696E7476
:1004A0003D002D00546578743D005662616C2E3D10
:1004B00000566F7574203D00206C696D69743D00B5
:1004C00056696E7075743D00776972657320523D90
:1004D00000626174742E20523D00202000622000D2
:1004E00074696D653A2020202020004C696D697484
:1004F000733A20006D4168003C20006D4120006D82
:1005000041200020202D2D20200043684342426CD2
:100510004469464353745342436844694359637979
:10052000436844694650435045420064542F647404
:10053000002D64560056206C696D69740036242ABB
:10054000243A24CC24C724DD24382533257325D62A
:1005500025A425AA251226A6261E26B226AF26C326
:1005600026534D505320646F776E00534D505320E7
:10057000757000000B0C0D0E0F23060206F605D455
:1005800005C705000007080A0F23060206D405C7A1
:100590000500000001020304090F230614060C06DF
:1005A0000206F605D405C705000000010203040594
:1005B00006090F230614060C060206F605EE05DFF3
:1005C00005D405C705000065646974206261747410
:1005D00065727900443E4320666F726D61740073EA
:1005E000746F726167652B62616C616E6300737416
:1005F0006F7261676500666173742063686172671A
:1006000065006469736368617267650062616C614B
:100610006E6365006368617267652B62616C616E11
:10062000636500636861726765000106070F050076
:1006300002120607090A0D0E0F0405000212060732
:10064000090A0D0E0F04051303000607040F050029
:1006500002120607090A0D0E0F0405130300021209
:10066000110D0E0F040513030002120C10110D0ED4
:100670000F04051303004558542054206C696D691C
:10068000740054696D65206C696D69740043415054
:10069000206C696D697400494E50555420560048CD
:1006A00057204641494C555245004F5645524C4FF4
:1006B0004144206572720042414C20627265616B58
:1006C00000424154206469736300494E5420540031
:1006D00020436F6E6E656374204261747465727935
:1006E00000436F6E6E656374204261747465727945
:1006F000210000010207FA060000566D696E75734D
:100700003A0056706C75733A200017071007000006
:1007100076616C75653A0074656D703A20002D073E
:1007200024070000706F696E7420322E00706F69AC
:100730006E7420312E0044073C07000044415441B0
:100740003A20200076616C75653A20003200E8039B
:100750003200881367076007000073076C0700000A
:10076000313030306D410035306D41003530303042
:100770006D410035306D410006090A0B0C0D0E0667
:100780001F20212223241312CC07C607C007BA0753
:10079000B407AE07A807A2079C070000566F757440
:1007A0003A0056312D363A005662363A20005662EB
:1007B000353A20005662343A20005662333A20001F
:1007C0005662323A20005662313A200056696E3A3B
:1007D00020002A08210815080908FD07F107E2078B
:1007E00000006578706572742044414E474552217F
:1007F0000063616C69622D3E554152540074656D11
:100800007020696E7465726E0074656D7020657815
:100810007465726E0049206469736368617267650C
:1008200000492063686172676500766F6C74616768
:100830006500520848083A08000072657365742024
:1008400064656661756C740063616C696272617481
:10085000650073657474696E67730080250000001D
:100860004B00000096000000E1000000C2010046BD
:100870000088137017000070176400010005000F56
:100880000005001E0001000A007800581B0000014E
:10089000000100080000000000000000000000430C
:1008A0002F6D00CC08C508BF08B608AD0865787480
:1008B0002E20416463006578742E206465620064B4
:1008C00065627567006E6F726D616C00646973615B
:1008D000626C656400E009D509CA09BE09B309ACB8
:1008E00009A00996098C098009740968095B0951F6
:1008F0000946093D09310925091B0914090C090399
:1009000009000020202072657365740073706565AE
:10091000643A2000554152543A200062616C2E2006
:100920006572723A00666F7263652062616C3A208C
:10093000006469732061677265733A2000646973AB
:100940006368202B3A00696E707574206C6F773A7B
:100950000063617020434F66663A006D696E2E49F0
:100960002049203D20492F00626565703A202020F3
:1009700020202000776173746520542E3A202000D7
:10098000442F43206379636C65733A004E69436476
:10099000202D64563A004E694D48202D64563A0089
:1009A000656E6162202D64563A20200064542F64E5
:1009B000743A00657874726E2054434F3A0065783B
:1009C00074726E20543A202020006469736368209A
:1009D0006F66663A0066616E206F6E3A20202000D6
:1009E0006261636B6C696768743A00141719181AAE
:1009F0000705061F20212223247265736574696E22
:100A00006720656570726F6D3A00763A20382E3532
:100A1000312E35362000F405D810FE23B72ABC3D10
:100A200011241FBECFE5D8E0DEBFCDBF10E0A0E6A9
:100A3000B0E0E8EFFEE702C005900D92AE3EB107D0
:100A4000D9F714E0AEEEB0E001C01D92A63FB107A9
:100A5000E1F71AE0C0E2DAE004C02297FE010E944A
:100A6000013FC631D107C9F70E94D3100C947A3FD9
:100A70000C940000CF92DF92EF92FF92482F282F24
:100A800030E0A0E0BDE70E946D3E6B017C01A4E672
:100A9000B0E0A41BB10924E630E00E947C3E6C0D5E
:100AA0007D1D8E1D9F1D24E630E040E050E00E9439
:100AB000BE3EB9018DE0FF90EF90DF90CF900C9497
:100AC000263C882311F0909A08959098089580917B
:100AD000F500882331F08091EE008F5F8093EE0067
:100AE00002C01092EE008091F5008A3010F480E090
:100AF00001C084E09091F500943108F082E090917B
:100B0000F5009E3108F081E09091EE00982311F0FD
:100B1000979A0895979808952091A5033091A60378
:100B2000232B11F08093F5000895811102C0939A50
:100B3000089593980895811102C0969A0895969801
:100B40000895811102C0929A089592980895BC0167
:100B50008EE00C94263CBC018EE00C94263C80FF79
:100B600002C0C09A01C0C09881FF02C0C19A01C0F2
:100B7000C19882FF02C0C29A01C0C29883FF02C01E
:100B8000C39A01C0C39884FF02C0DE9A01C0DE98F8
:100B900085FF02C0DF9A0895DF9808958C9A8B9A9A
:100BA000889A8F9AB89AB99ABA9ABB9AD69AD79ACB
:100BB0008D9A8E9A8D9A8A9A80E00E94950580E09F
:100BC0000E94610580E00E948C0580E00E94AF05D4
:100BD00020E042E060E18FEE90E00E9461170E9409
:100BE0003C3C0C94F80508958FEE90E00C94B217FD
:100BF000D598D498DD98DC98BF9ABE9ABD9A80B7F4
:100C0000806680BF8FEA86B91092F7000C94AD3BE6
:100C100087FD21C04091660050E0682F772767FD6F
:100C2000709564177507B9F08093660098B3282F04
:100C3000217030E0220F331F220F331F82FB332736
:100C400030F9232B8270282B80E228029001112496
:100C50009F71922B98BB089584B145B12091F70004
:100C600030E0F901EE0FFF1FEE0FFF1FEC55FE4FB6
:100C70009491F901EE0FFF1FEE0FFF1F913171F0FC
:100C80002FB7F894E92FF0E0EE0FFF1FE253FE4F6D
:100C900090E0942B918380832FBF0895EB55FE4FF6
:100CA000E4918091F60047FD02C0E82B02C0E09578
:100CB000E823E093F60008951092F70008950E944B
:100CC00008279093ED018093EC010E94F9279093FF
:100CD000EF018093EE010C94320AE091F700EF5F90
:100CE000E53108F0E0E084E0E89FF0011124EE55E2
:100CF000FE4F84910C940806CF93C091F70081E0D9
:100D0000C11101C080E00E942C06E1E0EC0FE5314A
:100D100008F0E0E0E093F70084E0E89FF0011124A0
:100D2000ED55FE4FE491E062E7B98091F700811143
:100D300003C0CF910C945F06CF9108958091F60087
:100D400008951F920F920FB60F9211242F933F9385
:100D50004F935F936F937F938F939F93AF93BF93C3
:100D6000EF93FF930E946D06FF91EF91BF91AF91BA
:100D70009F918F917F916F915F914F913F912F91B3
:100D80000F900FBE0F901F9018951F920F920FB6E5
:100D90000F9211242F933F934F935F936F937F9301
:100DA0008F939F93AF93BF93EF93FF930E947C0623
:100DB000FF91EF91BF91AF919F918F917F916F9133
:100DC0005F914F913F912F910F900FBE0F901F9009
:100DD00018952FB7F8946091F8007091F900809100
:100DE000FA009091FB002FBF08950E94352F0E94BA
:100DF0005C3A0E946D280E94B5380C94BE0C80911C
:100E0000F8009091F900A091FA00B091FB000196D2
:100E1000A11DB11D8093F8009093F900A093FA00F2
:100E2000B093FB0080916700815019F080936700B8
:100E3000089581EE809367000E94190A0C941D2387
:100E40000E94E90696958795779567950895CF92C4
:100E5000DF92EF92FF92CF93DF93EC010E94200785
:100E60006B017C01CC0EDD1EE11CF11C0E942007F1
:100E70006C157D058E059F05C8F3DF91CF91FF901E
:100E8000EF90DF90CF900895CF92DF92EF92FF9294
:100E9000CF93DF93EC010E9420076B017C01CC0E05
:100EA000DD1EE11CF11C0E9420076C157D058E05DE
:100EB0009F0518F40E94F506F6CFDF91CF91FF90C1
:100EC000EF90DF90CF900895E82FF0E0EE0FFF1F36
:100ED000E455FE4F808191810895E82FF0E0EE0FF8
:100EE000FF1FEE59FE4F8081918108952FB7F8942E
:100EF000E82FF0E0EE0FFF1FE253FE4F808191815B
:100F00002FBF089580913602089580911601909127
:100F10001701089580910401909105010895809131
:100F20000601909107010895E82FF0E0EE0FFF1FF2
:100F3000E85EFE4F808191810895262F613110F483
:100F4000423040F021E030E0FC01338322833183E2
:100F50002083089550E0BA01620F711D620F711D68
:100F6000660F771F660F771F665F7F4F44E050E084
:100F70000C94353F282FCA01213188F4623078F46F
:100F800070E0620F711D620F711D660F771F660F93
:100F9000771F665F7F4F44E050E00C94533F089505
:100FA000FF920F931F93CF93DF9300D000D0CDB764
:100FB000DEB70AE111E0F12CF801459155916591F8
:100FC000749149835A836B837C83AE014F5F5F4F7B
:100FD00060E08F2D0E94BA07F80134964591559133
:100FE0006591749149835A836B837C83AE014F5F13
:100FF0005F4F61E08F2D0E94BA07F394085F1F4F87
:1010000081E1F812D9CF0F900F900F900F90DF91E0
:10101000CF911F910F91FF90089580918A01909137
:101020008B01089580919001909191010895809194
:10103000400190914101039750F0809146019091B9
:101040004701039720F083E090E00C94E00D80E0EE
:1010500008958FB7F894E0EFF1E011921192119298
:10106000119292E0E433F907C1F710923502109221
:1010700034028FBF0895CF93CFB7F8941092150123
:10108000109214011092100110921101109212018D
:101090001092130110920C0110920D0110920E018A
:1010A00010920F01109208011092090110920A018A
:1010B00010920B010E9420076093000170930101C0
:1010C0008093020190930301CFBFCF910895CF93F6
:1010D000DF930E9429080E943B08C0911601D0911D
:1010E00017018091160190911701C817D90729F4AB
:1010F0008AE090E00E944407F4CFDF91CF910895F9
:101100000E943B08109207011092060110920501FF
:10111000109204010895E8E1F1E01192119281E04A
:10112000E236F807D1F708950E9429080E943B088B
:101130000C948B088FB7F8941092FC001092FD006D
:101140001092FE001092FF008FBF109217011092B4
:1011500016010E945C060E9494080E948008E2E644
:10116000F1E01192119281E0EC3AF807D1F708957D
:101170008091360281110AC081E00E9495050E948B
:101180009A0881E0809336020C94670808951092C3
:10119000360280E00C949505CF93DF9381E00E94A6
:1011A0007607EC0180E00E9476078C179D0718F403
:1011B000C81BD90B02C0C0E0D0E081E0C93ED340DB
:1011C00008F480E0DF91CF9108958F929F92AF92C3
:1011D000BF92CF92DF92EF92FF92CF93DF93CDB782
:1011E000DEB728970FB6F894DEBF0FBECDBFF82E3E
:1011F0005B0161157105D1F140E0682FCE010596C4
:101200000E949D0741E06F2DCE0101960E949D072F
:101210002B813C8140E050E0CF80D884E12CF12C40
:101220002C193D094E095F09B50180E090E08D80E1
:101230009E80A12CB12C681979098A099B090E940A
:101240008E3E29813A8140E050E0281939094A0947
:101250005B090E94E03E2C0D3D1D4E1D5F1D57FF9A
:1012600003C020E030E0A901C90102C080E090E0A5
:1012700028960FB6F894DEBF0FBECDBFDF91CF9199
:10128000FF90EF90DF90CF90BF90AF909F908F90A6
:1012900008958F929F92AF92BF92CF92DF92EF927A
:1012A000FF92CF93DF93CDB7DEB728970FB6F894B0
:1012B000DEBF0FBECDBFF82E5B0161157105D1F108
:1012C00040E0682FCE0105960E949D0741E06F2DFA
:1012D000CE0101960E949D0729813A8140E050E0AD
:1012E000CD80DE80E12CF12C2C193D094E095F09DF
:1012F000B50180E090E08F809884A12CB12C681912
:1013000079098A099B090E948E3E2B813C8140E02D
:1013100050E0281939094A095B090E94E03E2C0D6A
:101320003D1D4E1D5F1D57FF03C020E030E0A901A9
:10133000C90102C080E090E028960FB6F894DEBFA5
:101340000FBECDBFDF91CF91FF90EF90DF90CF9098
:10135000BF90AF909F908F9008950C949A08825000
:10136000893130F4E82FF0E0E658FF4F808108958E
:1013700081E00895CF93DF93E82FF0E0EE0FFF1F99
:10138000EE59FE4FC081D1810E94AF09882319F028
:10139000813029F00AC081E0E39740F404C081E085
:1013A000C935D24018F480E001C081E0DF91CF91CF
:1013B0000895CF93C0E08FE18C0F0E94BA09882373
:1013C00029F0CF5FC630B9F786E001C08C2FCF91EE
:1013D00008951F93CF93DF931F92CDB7DEB7182FD9
:1013E00069830E94AF09E12FF0E0EE0FFF1FEE5975
:1013F000FE4F4981682F808191810F90DF91CF91BD
:101400001F910C944A162FB7F8946091FC007091CC
:10141000FD008091FE009091FF002FBF2DE730E08E
:1014200040E050E00E94BE3EBB27A52F942F832FA3
:10143000089520919001309191018091FC0090914C
:10144000FD00A091FE00B091FF00820F931FA11D2F
:10145000B11D8093FC009093FD00A093FE00B0931B
:10146000FF000895CF93DF9380913602882309F41B
:1014700074C0209134023091350224363105E0F4F5
:10148000EEECF1E0C0EFD1E041915191888199817A
:10149000AA81BB81840F951FA11DB11D89939993CA
:1014A000A993B99381E0E03FF80771F72F5F3F4FB1
:1014B00030933502209334022091CE013091CF0138
:1014C0008091100190911101A0911201B09113012E
:1014D000820F931FA11DB11D8093100190931101E4
:1014E000A0931201B09313012091D0013091D1014A
:1014F00080910C0190910D01A0910E01B0910F010E
:10150000820F931FA11DB11D80930C0190930D01BB
:10151000A0930E01B0930F012091DC013091DD0109
:101520008091080190910901A0910A01B0910B01ED
:10153000820F931FA11DB11D809308019093090193
:10154000A0930A01B0930B018091140190911501B1
:1015500001969093150180931401DF91CF91089526
:1015600090E0880F991FFC01EE59FE4F20813181D8
:101570006217730718F4261B370B04C0AB01421B1C
:10158000530B9A01FC01E85EFE4F2730310518F03D
:101590001182108206C0208131812F5F3F4F31833D
:1015A0002083FC01EE59FE4F718360830895AF9252
:1015B000BF92CF92DF92EF92FF920F931F93CF9340
:1015C000DF931F92CDB7DEB7A0906201B0906301A8
:1015D00080916401909165018A159B0518F4A81A01
:1015E000B90A02C0A12CB12CB50182E10E94B00A57
:1015F00004E711E09FE1F801619171918F01892F5A
:1016000099830E94B00A99819F5F9532A1F70E9449
:10161000D909F82E80E000E010E08F1569F0EFE1C5
:10162000E80FF0E0EE0FFF1FEE59FE4F20813181F1
:10163000020F131F8F5FF1CFB80183E10E94B00A40
:101640000115110581F00A151B0520F49501201BD9
:10165000310B03C098012A193B09293E334018F485
:10166000580113E102C012E1F12CB50184E10E949E
:10167000B00A6F2D70E086E10E94B00A612F70E021
:1016800085E10E94B00A0E94030A8C010E94EA27A9
:10169000882329F0E0906801F09069010BC00E9456
:1016A000F926882329F0E0906601F090670102C0D6
:1016B000E12CF12CB70187E10E94B00AB80189E161
:1016C0000E94B00A9701D5010E946D3E30E1C32E01
:1016D00037E2D32EE12CF12CA70196010E94BE3EE9
:1016E000B90188E10E94B00A9801D5010E946D3EBF
:1016F000A70196010E94BE3EB9018AE10F90DF91D9
:10170000CF911F910F91FF90EF90DF90CF90BF90FE
:10171000AF900C94B00ABF92CF92DF92EF92FF92FB
:101720000F931F93CF93DF932FB7F89480913402D8
:10173000909135022FBF84369105C1F58091160135
:10174000909117010196909317018093160100EF75
:1017500011E0CCEAD1E0B12C54E6C52ED12CE12C1D
:10176000F12CF80161917191819191918F01A70103
:1017700096010E94BE3E29933993B9018B2D0E9498
:10178000E508BC018B2D0E94B00AB394F1E1BF12B1
:10179000E8CF0E94D70ADF91CF911F910F91FF9060
:1017A000EF90DF90CF90BF900C942908DF91CF91FC
:1017B0001F910F91FF90EF90DF90CF90BF90089511
:1017C0004F925F926F927F928F929F92AF92BF9251
:1017D000CF92DF92EF92FF920F931F93CF93DF93FD
:1017E000CDB7DEB728970FB6F894DEBF0FBECDBFDA
:1017F0000E942007C0900001D0900101E0900201FA
:10180000F09003016C197D098E099F0961337547BA
:101810008105910508F49BC02FB7F894009114013D
:10182000109115014090100150901101609012012B
:101830007090130160910C0170910D0180910E0167
:1018400090910F018090080190900901A0900A01E9
:10185000B0900B012FBF6D837E838F8398870E948A
:101860003B0820910601309107012F5F3F4F3093D5
:101870000701209306016801E12CF12C6D817E8126
:101880008F819885A70196010E94BE3E29833A83E5
:101890004B835C83C301B201A70196010E94BE3E47
:1018A000B90180E00E94E5083C0169817A8181E00C
:1018B0000E94E5088615970518F4681A790A02C08F
:1018C000612C712C40909A0150909B016414750416
:1018D00020F0B3018CE10E94B00AB30164197509CC
:1018E0008BE10E94B00AC501B401A70196010E94D4
:1018F000BE3EB90187E00E94E508209104013091C5
:1019000005019093050180930401BC01621B730BD8
:10191000660F771F8DE10E94B00AB8018EE128960C
:101920000FB6F894DEBF0FBECDBFDF91CF911F91F0
:101930000F91FF90EF90DF90CF90BF90AF909F906E
:101940008F907F906F905F904F900C94B00A289684
:101950000FB6F894DEBF0FBECDBFDF91CF911F91C0
:101960000F91FF90EF90DF90CF90BF90AF909F903E
:101970008F907F906F905F904F9008950E948B0B97
:101980000C94E00B1092FC001092FD001092FE00EF
:101990001092FF000C94940880915D02089580914C
:1019A0005B02811113C00E948207882381F00E948C
:1019B00085072091370230913802821B930B9C01DE
:1019C00081E02530310518F080E0089581E0089528
:1019D000815E0C946D070F931F93CF93DF9310E0FC
:1019E000CFEFDFEF00E080915D02181760F4812FE8
:1019F0000E94E80C8C179D0710F0CE0101C0012F4A
:101A00001F5FEC01F0CF802FDF91CF911F910F91DD
:101A10000895CF93DF9390915B02911104C0DF9101
:101A2000CF910C94E80C90914102C82FD0E09923FB
:101A300091F00E94E80CCC0FDD1FFE01EE5BFD4F24
:101A4000C25BDD4F2081318148815981241B350BD8
:101A5000280F391F07C0FE01EE0FFF1FEE5BFD4F81
:101A600020813181C901DF91CF910895CF93C82F93
:101A700080915B02882341F0C11106C00E94850756
:101A80009093380280933702C0935B020E94200734
:101A90006093390270933A0280933B0290933C0228
:101AA0000E948B0880915A02811104C08C2FCF9123
:101AB0000C94AF05CF910895EF92FF920F931F936F
:101AC000CF93DF9381E00E94F30586E10E946D07CA
:101AD00080935D020EE412E032E4E32E32E0F32E56
:101AE000C0E0D0E080915D0290E0C817D9076CF4A7
:101AF0008C2F0E94E80CF801819391938F01F701DC
:101B0000819391937F012196EDCF10925B02109209
:101B10005A0280E00E94360D10923802109237026D
:101B20001092390210923A0210923B0210923C023B
:101B3000DF91CF911F910F91FF90EF90089580E07A
:101B40000E94360D81E080935A0208950E949F0DF5
:101B500080E00C94F305FF920F931F93CF93DF93D4
:101B600080915C020E94090DEC01F12C01E010E073
:101B700080915D02F816E8F48F2D0E94090DAC01EA
:101B800080915B02802321F0C417D50778F40DC043
:101B90002091B3033091B4032F5F3F4F36952795C3
:101BA0002C0F3D1F2417350708F4102B000FF3945A
:101BB000DFCF812FDF91CF911F910F91FF9008957B
:101BC0001F93CF93DF93EC0110E080915D02181713
:101BD00048F48FE1810F0E9494078C179D0720F035
:101BE0001F5FF3CF81E001C080E0DF91CF911F91B3
:101BF0000895BF92CF92DF92EF92FF920F931F93BF
:101C0000CF93DF938AE090E00E94E00D882309F4EF
:101C100060C00E94EB0C80935C020E94E80C8C0177
:101C200062E08DE692E00E94B2190817190748F1A8
:101C300072E4E72E72E0F72EEEE4CE2EE2E0DE2E26
:101C4000C0E0D0E0BB24B39480915D0290E0C8175F
:101C5000D907CCF48C2F0E94E80CF7018193919363
:101C60007F01F601819391936F01801B910B20916D
:101C7000B3033091B4032817390708F4B12C219627
:101C8000E3CFBB24B394109241020E9420076093DB
:101C90003D0270933E0280933F0290934002BB202E
:101CA00059F0DF91CF911F910F91FF90EF90DF904E
:101CB000CF90BF900C949F0D0E94AB0DDF91CF9100
:101CC0001F910F91FF90EF90DF90CF90BF900C94F9
:101CD000360DDF91CF911F910F91FF90EF90DF9024
:101CE000CF90BF900895CF9380914102811119C088
:101CF00081E08093410280915C020E94E80CC0E088
:101D000080915D02C81768F48C2F0E94E80CEC2FBC
:101D1000F0E0EE0FFF1FE25BFD4F91838083CF5F0A
:101D2000EFCFCF9108950F931F930E94200700914A
:101D30003D0210913E0220913F0230914002601B13
:101D4000710B820B930B28EE33E040E050E00E94D1
:101D5000BE3EC9011F910F91089583E090E00E945B
:101D6000E00D8823C9F080915B02811103C00E94BD
:101D7000F90D12C00E94730E0E94AB0D90E0809589
:101D8000909520915B0230E082239323892B81F48C
:101D90000E94930E4F9760F40E94CF0C882311F09D
:101DA00082E0089580915A028823D1F381E008955A
:101DB00080E00E94360DF0CF1F93CF93DF93EC01AC
:101DC00010E080915D02181780F4812F0E94E80CCA
:101DD0008C179D0710F081E009C0812F0E94090D2A
:101DE0008C179D07C0F71F5FECCF80E0DF91CF918C
:101DF0001F9108951F93CF93DF93EC0110E0809122
:101E00005D02181780F4812F0E94E80CC817D907CB
:101E100010F081E009C0812F0E94090DC817D90771
:101E2000C0F71F5FECCF80E0DF91CF911F91089545
:101E300060915D02662329F070E00E94AA3ECB010A
:101E4000089580E090E008950E9470120E94792029
:101E500085E00E94F0370E94122F88E00E94F03740
:101E600081E00C9495050E9470120E94872086E004
:101E70000E94F0370E94122F88E00C94F037E09116
:101E80005E02F0915F028591949110926002FC01D4
:101E90000994E0915E02F0915F02329685919491EF
:101EA000FC010994E0915E02F0915F023496859105
:101EB0009491FC010994CF93DF931F92CDB7DEB7C5
:101EC000811109C00E94891F0E94490F0E94C70802
:101ED0000E94330F0FC0813059F469830E94891F1B
:101EE0000E94490F6981611105C00E94240F02C040
:101EF00081E001C080E00F90DF91CF9108957F9243
:101F00008F929F92AF92BF92CF92DF92EF92FF9209
:101F10000F931F93CF93DF93EC01A62E0E943F0FE8
:101F20000E946B1F0E94672F0E947012D12C82E0CA
:101F3000B82EE12CF12CCC24C39492E0992E882465
:101F4000839423E0722E0E94CF37811106C0FE01D8
:101F5000ED0DF11D84910E94C4230E94FE11182FE3
:101F6000883051F40E94CF118111A8C08091600285
:101F7000823008F0A3C0A5C080916002813021F4B6
:101F8000111102C09092600280916002823008F4C8
:101F900061C0FE01ED0DF11DE491E23051F018F445
:101FA000E130E9F154C0E330A9F1E33109F445C06F
:101FB0004EC0829915C0123019F46FEF7FEF04C044
:101FC000143071F461E070E08DE692E00E94061B2F
:101FD000609172027091730281E090E00E94162578
:101FE00086994AC0123019F46FEF7FEF05C01430A4
:101FF00009F042C061E070E08DE692E00E94ED1AC7
:10200000609170027091710241E081E090E00E9465
:102010003F2532C0869B58C0829B56C02DC01230CF
:1020200019F46FEF7FEF04C0143031F561E070E018
:102030008DE692E00E942F1B1FC0123019F470929F
:1020400060021AC01430C1F41093600215C01092DF
:10205000600212C0143049F4ED2DF0E03196EC0F1F
:10206000FD1FE491E11148C007C0123029F4DD20C2
:1020700019F00E948421DA94CC2081F00E94842FF0
:10208000B82E6A2D0E945B0FC82E882339F00E945B
:102090008507E816F906A1F5C11003C0A1103BC0E1
:1020A000C12C113009F04FCF0E94CF11882309F4C1
:1020B0004ACF0E94891F0E94490F2DC010926002D2
:1020C00063CF8092600260CF123041F40AE020E0DA
:1020D00030E048EE5DEF6FEF7FEF09C0143061F63E
:1020E0000AE020E030E048EE5DEF61E070E087E874
:1020F00093E00E94A52EC0CF0E948421D394BCCF30
:102100000E9485077C010E94520FB82E6A2D0E9402
:102110005B0FC82EC1CF8B2DDF91CF911F910F91F7
:10212000FF90EF90DF90CF90BF90AF909F908F90F7
:102130007F90089560E081E692E00E94E01887FDBC
:102140000AC0811102C00C94EB34992787FD909549
:1021500001970C94792A089578940E94CE050E94E4
:10216000A13B0E94DF270E9466280E94AD090E94C1
:10217000F83D0E9443356DE072E08CEF91E00E94E3
:102180005C2088EE93E00E94270780E00E942B3BB2
:102190000E94D0158091B9039091BA03079710F46B
:1021A0000C94D52008950E94AC100E949A10FDCF87
:1021B0006DE172E081E692E00E94F21787E990E01B
:1021C0009093620280936102E5E6F2E08081805E96
:1021D00080830895FC0124812052621710F40C942E
:1021E000E517862F90E0821B91090E94791A6EE014
:1021F0000C94B313CF93DF93EC010E9468128B8190
:102200009C810E94B0130E946C126A81888199811E
:10221000DF91CF910C944813FC0187818F3118F422
:102220008F5F8783089586818F5F86830895FC0181
:102230008781882319F08150878308958681815092
:10224000868308950F931F93CF93DF93FC01C6817C
:10225000D0E06D2F80E00E94621210E11C0F01E0BF
:102260000C0F8C2F0E940114011711F0C02FF7CF13
:10227000DF5FD23011F0C12FECCFDF91CF911F91F2
:102280000F9108951F93CF93DF93EC018FEE90E0B1
:102290000E9425171FEF8E81181721F0CE010E9492
:1022A00022111E818F81682F70E094E075956795EB
:1022B0009A95E1F78F700E9462120E94FE1182309F
:1022C00049F0843019F0813049F413C0CE010E94E6
:1022D0000C11E1CFCE010E941711DDCF8830D9F665
:1022E0008D81E881F981E80FF11D8F819E81890F31
:1022F0008083DF91CF911F910895FC0171836083EA
:10230000428334832383158280E286831782089573
:10231000CF93DF93EC018FEE90E00E9425170E948F
:102320007012CE010E94FA1061E08D810E9462124B
:102330000E94FE118230B1F0843041F08130C1F44E
:102340008FEE90E00E941E1780E026C04D81242F62
:1023500030E08A8190E00197281739072CF74F5F0A
:102360004D83E2CF8D818823F9F281508D83DCCFBC
:102370008830D1F682E00E945112823048F083E02A
:102380000E94F0378FEE90E00E941E1781E004C09B
:10239000CE010E944211C3CFDF91CF910895809169
:1023A0006B0208950C949E06E0916B02F0E0EE0F34
:1023B000FF1FE75DFD4F859194910895CF93DF93C3
:1023C000D82F0E949E06C82F8D1741F082E390E01F
:1023D0000E9444070E949E06DC2FF5CF10926B02EC
:1023E00010926A0280936C02882319F080E00E94A8
:1023F000FD3780916C02DF91CF910895FF920F938A
:102400001F93CF93DF93C0E0D0E0F12C0AEF10E0F0
:1024100040916B02242F30E0F901EE0FFF1FEB5BC0
:10242000FD4F65917491C8010E94AA3E6F5F7F4F76
:10243000F901EE0FFF1FC617D707A8F40E949E06EA
:10244000F82E81E090E00E94440780916C02F8161B
:1024500041F08F2DDF91CF911F910F91FF900C9440
:10246000DE112196D5CFFF20A1F020916A022F5FC7
:1024700020936A02E95CFD4F8591949130E0281722
:10248000390738F0463018F44F5F40936B021092D2
:102490006A0280916C02DF91CF911F910F91FF90A2
:1024A0000895CF93DF93D82FC0916C020E94FE1144
:1024B00090916B029D1711F08C17C1F3892FDF915A
:1024C000CF910895462F682F8FEE90E00C94E91677
:1024D00060E080E00C94621261E080E00C94621293
:1024E0008FEE90E00C94E216CF93DF93FC01DB01BA
:1024F0008C91882389F0C081D1814883808191812A
:102500000196918380838C9181508C93882321F054
:102510000190F081E02D1082DF91CF910895BF925C
:10252000CF92DF92EF92FF920F931F93CF93DF939F
:10253000EC018B017A014115510501F1CA010E949C
:102540000E3FF8019081B82E981708F4B92ECB2CC5
:10255000D12CA601B701888199810E94173F28815B
:1025600039812C0D3D1D39832883F80180818B1919
:102570008083882319F0E881F9811082DF91CF915F
:102580001F910F91FF90EF90DF90CF90BF90089533
:10259000CF92DF92FF920F931F93CF93DF9300D0E0
:1025A000CDB7DEB76C018B01BA0180E090E04983C2
:1025B0005A830E94532EF82ED8018C9149815A815A
:1025C0008F1570F44FE3B801C6010F900F90DF91A3
:1025D000CF911F910F91FF90DF90CF900C947412C8
:1025E000F601208131812F0D311D31832083D801E7
:1025F0008C918F198C93882321F00190F081E02D2C
:102600001082F9012AE030E0FF2069F0CA01B90127
:102610000E94AA3E405DBAE06B9F4019112442938C
:10262000FA94AB01F1CF0F900F90DF91CF911F91F2
:102630000F91FF90DF90CF9008950F931F93CF934A
:10264000DF93CDB7DEB72B970FB6F894DEBF0FBE82
:10265000CDBF8E010F5F1F4F1A87098727E02B8799
:10266000AC01BE01655F7F4FCE0109960E94C81282
:10267000B8018FEE90E00E94D5172B960FB6F89414
:10268000DEBF0FBECDBFDF91CF911F910F91089597
:102690000F931F93CF93DF93CDB7DEB761970FB63C
:1026A000F894DEBF0FBECDBF0097D1F0613108F0C6
:1026B00060E1062F10E0A801BC01CE0101960E9446
:1026C000263FE1E0F0E0EC0FFD1FE00FF11F10826C
:1026D000BE016F5F7F4F8FEE90E00E94D51701C063
:1026E00080E061960FB6F894DEBF0FBECDBFDF91DC
:1026F000CF911F910F9108950F931F93CF93DF9365
:10270000CDB7DEB761970FB6F894DEBF0FBECDBF71
:102710000097D1F0613108F060E1062F10E0A801C8
:10272000BC01CE0101960E94173FE1E0F0E0EC0F02
:10273000FD1FE00FF11F1082BE016F5F7F4F8FEE14
:1027400090E00E94D51701C080E061960FB6F89422
:10275000DEBF0FBECDBFDF91CF911F910F910895C6
:1027600060E10C947C13CF92DF92EF92FF920F9373
:102770001F93CF93DF93CDB7DEB762970FB6F89470
:10278000DEBF0FBECDBF009719F1613108F060E1E7
:102790006C018E010F5F1F4F78018E2D801B8617F5
:1027A00068F4C6016A8B0E94453FF70181937F015F
:1027B000FFEFCF1ADF0A6A898111EFCFF801E60F28
:1027C000F11D1082B8018FEE90E00E94D51701C074
:1027D00080E062960FB6F894DEBF0FBECDBFDF91EA
:1027E000CF911F910F91FF90EF90DF90CF900895C0
:1027F000882319F08AE592E002C086E592E00C9405
:10280000B013682F8FEE90E00C94B417CF93DF9342
:10281000D82FC0E0CD1729F080E20E940114CF5FCD
:10282000F9CF8C2FDF91CF91089580E10C9406149D
:10283000CF93DF931F92CDB7DEB7682F64303CF0A3
:1028400080E269830E94011469816150F7CF8EE5AF
:1028500092E00F90DF91CF910C947C136AE00E947C
:102860009E3E80E3890F0C940114DF92EF92FF9259
:102870000F931F93CF93DF93EC01F62ED42E1616F1
:102880000CF089C068EE73E00E94AA3E8B0180E0E4
:1028900090E00E94532E24E0E22EE80EEF142CF478
:1028A00080E20E940114FA94F9CFFE14E4F0D110F2
:1028B0001AC0BE0180E090E00E94532E182FFA94B7
:1028C0001F1524F480E20E940114F9CFCE010E946A
:1028D0001D138DE6DF91CF911F910F91FF90EF9027
:1028E000DF900C9401142E2D332727FD30952450B2
:1028F00031094F2D552747FD50954217530754F482
:102900008F2DDF91CF911F910F91FF90EF90DF906E
:102910000C941814C8010E941D13CE0168EE73E0D8
:102920000E94AA3EEC011F2D1E1993E0F92EF10E14
:1029300084E0810F18161CF48EE20E94011402E05C
:10294000010F1F1444F4CE0164E670E00E94AA3E19
:10295000862F0E942E14CE0164E670E00E94AA3EEB
:10296000EC011F5F10163CF46AE070E00E94AA3E82
:10297000862F0E942E14111674F4CE016AE070E0C6
:102980000E94AA3EDF91CF911F910F91FF90EF908F
:10299000DF900C942E14DF91CF911F910F91FF9037
:1029A000EF90DF900895EF92FF920F931F93CF93D4
:1029B000DF93EC01F62E16160CF059C064E670E0B9
:1029C0000E94AA3E8B0180E090E00E94532E33E0EB
:1029D000E32EE80EEF142CF480E20E940114FA9426
:1029E000F9CF2E2D332727FD3095235031094F2D58
:1029F000552747FD5095421753074CF48F2DDF9113
:102A0000CF911F910F91FF90EF900C941814C80173
:102A10000E941D13CE0164E670E00E94AA3EEC0104
:102A20000F2D0E1912E0100F83E0800F18161CF402
:102A30008EE20E940114FF24F394F00E111644F468
:102A4000CE016AE070E00E94AA3E862F0E942E14FA
:102A50001F146CF4CE016AE070E00E94AA3EDF9180
:102A6000CF911F910F91FF90EF900C942E14DF9156
:102A7000CF911F910F91FF90EF900895BF92CF9249
:102A8000DF92EF92FF920F931F93CF93DF938C010E
:102A9000D62EB42EC22E1616ACF52111DA94B8013A
:102AA00080E090E00E94532EC82FD0E0ED2CFF2450
:102AB000E7FCF094CE15DF052CF48B2D0E94011459
:102AC000DA94F4CFCC2019F08DE20E940114EC16B8
:102AD000FD0664F48D2DDF91CF911F910F91FF9032
:102AE000EF90DF90CF90BF900C941814C801DF9145
:102AF000CF911F910F91FF90EF90DF90CF90BF90FB
:102B00000C941D13DF91CF911F910F91FF90EF90C7
:102B1000DF90CF90BF90089520E00C943E15CF93A6
:102B2000DF936CE370E00E94AA3E9B01EC0140E35E
:102B300063E0C9010E948C158AE30E94011440E3FE
:102B400062E0CE01DF91CF910C948C1540E20C94A1
:102B50008C15292F221F2227221F19F0919581956C
:102B6000910940E20C943E15161634F461500E940F
:102B7000D31483E40C9401140895161634F46150B0
:102B80000E94A61585E20C940114089563303CF070
:102B900062500E94A61583E592E00C94B01308954C
:102BA000FF920F931F93CF93DF93CDB7DEB7289794
:102BB0000FB6F894DEBF0FBECDBF4EE0F42EF98203
:102BC0001FE11A8301E10B830C830D830E830F83B6
:102BD0001887AE014F5F5F4F60E08FEE90E00E947C
:102BE0002D17F9821A830B830C831D831E831F8389
:102BF0001887AE014F5F5F4F61E08FEE90E00E945B
:102C00002D17F9821A831B831C831D831E831F8348
:102C10001887AE014F5F5F4F62E08FEE90E00E9439
:102C20002D1728960FB6F894DEBF0FBECDBFDF91EB
:102C3000CF911F910F91FF9008950F931F93CF9302
:102C4000DF93062F142F64E670E00E94AA3EEB018A
:102C500080E20E94011480E20E940114C436D10572
:102C600048F480E20E940114CA30D10518F480E2D1
:102C70000E940114CE010E941D13802F0E94011496
:102C8000812F0E94011480E2DF91CF911F910F915B
:102C90000C9401140F931F93CF93C62F1416BCF5F9
:102CA0006FEF640F0C2F10E00830110508F5F801E4
:102CB000E65DFF4F0C94FF3E16E51BC040E201C0ED
:102CC00048E667E5CF911F910F910C941D16642F74
:102CD000CF911F910F910C94B41514EF07C00E946F
:102CE000A91585E50FC06EEF640F11E440E002C046
:102CF00015E541E00E943514812F0E940114C53072
:102D000031F488E6CF911F910F910C940114CF916B
:102D10001F910F910895462F65E00C944A16462F97
:102D200060E00C944A16462F61E00C944A16462F38
:102D300066E00C944A16AC9881E090E00E94663EF2
:102D4000AC9A81E090E00E94663EAC9884E690E008
:102D50000C94663EA39AA29AA19AA09A60FF02C020
:102D6000AB9A01C0AB9861FF02C0AA9A01C0AA98B1
:102D700062FF02C0A99A01C0A99863FF02C0A89A85
:102D800001C0A8980C949B161F93CF93DF93EC017E
:102D9000162F442311F0AD9A01C0AD98612F70E059
:102DA00084E0759567958A95E1F7CE010E94AA1691
:102DB000612FCE01DF91CF911F910C94AA1640E0B4
:102DC0000C94C41661E00E94DF1680ED97E00C942D
:102DD000663ECF93DF93CDB7DEB728970FB6F89452
:102DE000DEBF0FBECDBF28E0E2E7F0E0DE011196C6
:102DF00001900D922A95E1F7FC012481421710F011
:102E00004FEF420FFE013196E40FF11DE40FF11D6B
:102E10002081260F2068622F28960FB6F894DEBF17
:102E20000FBECDBFDF91CF910C94DF16FC01618105
:102E3000262F246021836C600C94DF16FC016181D5
:102E40006E7F618368600C94DF16FC016181262F20
:102E50002160218369600C94DF16CF92DF92EF929C
:102E6000FF920F931F93CF93DF9300D0CDB7DEB7C0
:102E70007C01677088E0689FB00111246064C7011D
:102E800049835A830E94DF164981C42E5A81D52E68
:102E900000E010E0F60161916F0141E0C7010E947E
:102EA000C4160F5F1F4F08301105A1F70F900F9048
:102EB000DF91CF911F910F91FF90EF90DF90CF9016
:102EC0000895CF93DF93EC01423018F08881886039
:102ED00088834C831D82222329F0413019F4888194
:102EE0008460888380E593EC0E94663EAD98AC9840
:102EF00063E0CE010E94AA1684E991E10E94663E39
:102F000063E0CE010E94AA1684E991E10E94663E28
:102F100063E0CE010E94AA1686E990E00E94663E18
:102F200062E0CE010E94AA1668816062CE010E9412
:102F3000DF1684E08983CE010E941617CE010E941D
:102F4000E21682E08A8366E0CE01DF91CF910C9495
:102F5000DF16A59AA49AFC01108220E041E060E10E
:102F60000C9461170C94A91741E00E94C41681E0EB
:102F70000895EF92FF920F931F93CF93DF938C01ED
:102F8000F42EC62FD72FE42EE60EEC1631F0699101
:102F900041E0C8010E94C416F8CF8F2DDF91CF9178
:102FA0001F910F91FF90EF9008956115710559F0F1
:102FB000FB0101900020E9F7AF0141505109461B88
:102FC000570B0C94B91780E00895FC012781808588
:102FD000E22FF82FE60FF11DE60FF11D8591949178
:102FE0000C94B0130F931F93CF93DF93EC018B01DD
:102FF000CB010E94142E682FCE010E9455188DE936
:1030000090E09983888318870F83DF91CF911F9178
:103010000F910895DF92EF92FF920F931F93CF933A
:10302000DF93EC01F62E69871A8681E08D8382E0BA
:10303000D82EEE24E3948E01075F1F4F0E94FE11ED
:10304000482F823011F0843061F4E881F9810280E8
:10305000F381E02D6F2DCE010995F986DA86ED8298
:1030600004C0813089F0883079F0C8010E94262F91
:103070008111ED828D81882319F0CE010E94821882
:103080008A858F5F8A87DACF8FEF898781E08E8389
:103090008D83483009F080E0DF91CF911F910F912F
:1030A000FF90EF90DF9008950895FC0183EA90E08F
:1030B0009183808312821382648381E08583868377
:1030C0000895FC012281211103C081E082830895CB
:1030D000438130E0240F311D848190E0019728174F
:1030E000390714F44F5F43830895FC0182818823DC
:1030F00019F08150828308958381882311F08150D3
:10310000838308951F93CF93DF93EC0110E0612F29
:1031100080E00E94621280E20E940114E881F9813D
:103120006B81610F0190F081E02DCE0109950E9425
:1031300015141F5F123059F76A8180E00E946212F5
:103140008EE30E9401146A818FE00E9462128CE378
:103150000E9401141D82DF91CF911F9108950F935A
:103160001F93CF93DF93EC010E94FE11182F0E9452
:10317000CF37882321F081E08D838FE71CC00B813E
:103180008A81080F123031F0143039F4CE010E94D8
:10319000611803C0CE010E9475188B819A81890F36
:1031A000081711F081E08D838D81882319F0CE01FD
:1031B0000E948218812FDF91CF911F910F91089566
:1031C000EF92FF921F93CF93DF931F92CDB7DEB79D
:1031D0007C0181E0F701858311E0C70169830E94CA
:1031E000AF186981811102C0F7011682F70196813B
:1031F000911108C0883031F481E086838381928107
:10320000890F09C0662311F0F7011583813029F772
:103210009111E3CF8FEF0F90DF91CF911F91FF902E
:10322000EF9008950F931F93CF93DF93EC018B01E1
:1032300050E00E94C8124AE3B801CE01DF91CF915D
:103240001F910F910C947412EF92FF920F931F93A2
:10325000CF93DF9300D01F92CDB7DEB78C01462FFE
:103260000B969A8389838EE08B83D801EC91F0E0F2
:10327000EE0FFF1FE758FD4FE590F490BE016D5F24
:103280007F4FCE0101960E941219A701BE016D5F0A
:103290007F4FCE0101960E948F1240E2BE016D5F0A
:1032A0007F4FCE0101960E947412F8014181528134
:1032B000BE016D5F7F4FCE0101960E94C8124FE2A2
:1032C000BE016D5F7F4FCE0101960E947412D8013E
:1032D00017964D915C911897BE016D5F7F4FCE019F
:1032E00001960E94C8120F900F900F90DF91CF911E
:1032F0001F910F91FF90EF900895CF93DF9300D02F
:103300001F92CDB7DEB7462F2EE02B830B969A8304
:103310008983BE016D5F7F4FCE0101960E94121915
:103320000F900F900F90DF91CF91089529E1289F82
:10333000B001299F700D11246E567F4F49E150E076
:103340008DE692E00C94353F29E1289FB001299F3A
:10335000700D11246E567F4F49E150E08DE692E0EA
:103360000C94533FDC01EC91B6E0EB9FF00111248B
:10337000E60FF11DEE0FFF1FE35DFC4F8591949169
:103380000895DC01EC9146E0E49FF0011124E60F82
:10339000F11DEE0FFF1FE35DFC4F85919491179691
:1033A0002D913C911897AC01429FC001439F900D15
:1033B000529F900D11240895FC01A181B2812091AA
:1033C000A9033091AA030E946D3E24E630E040E05C
:1033D00050E00E94BE3E293EFDEF3F0741055105EA
:1033E00020F028EE3DEF40E050E0C9010895FC01D7
:1033F0002081213029F420919F033091A00309C03E
:10340000223029F420919D0330919E0302C020E0D8
:1034100030E0FC0187819085AC01249FC001259F8D
:10342000900D349F900D11240895809199039091EF
:103430009A030895FC016081FBE06F9FB0011124A5
:1034400061547D4F4BE050E00C94053FDC01EC9162
:10345000F0E0EE0FFF1FE758FD4F859194910C941B
:103460007C1360E170E00C94261ACF93DF93EC019B
:10347000888160E0811108C0CE010E94C11967E017
:103480000E94931687E011C0CE010E94C11965E029
:103490000E9493168FE20E9401148F8198850E94EA
:1034A0001D1383E40E94011488E0DF91CF910895F9
:1034B00066E0FC01838194810E948F1686E0089566
:1034C00066E0FC01858196810E948F1686E0089552
:1034D000FC0181819281883EFDEF9F0729F48FE6F0
:1034E00092E00E94B01303C067E00E948B1688E050
:1034F000089529E1AC01249FC001259F900D11245E
:1035000083569F4F08950F931F93CF93DF93CDB7AB
:10351000DEB7A6970FB6F894DEBF0FBECDBF8C0105
:10352000AB01BC01CE0101960E940A1CCE0101969E
:103530000E948F1C89E1FE013C96D80101900D92FA
:103540008A95E1F7A6960FB6F894DEBF0FBECDBF01
:10355000DF91CF911F910F910895FC012081260FDB
:103560002A3040F0161617061CF4FC01108203C026
:1035700029E0FC0120830C941A1A61E00E94C11911
:103580009C0140E050E068E877E987ED97E10E9410
:10359000BE3E26328EE438074105510520F025E273
:1035A0003EE440E050E0C901089561E00E94C11985
:1035B0009C0140E050E068E87DE682E692E00E94EF
:1035C000BE3E2E3883E138074105510520F02DE835
:1035D00033E140E050E0C90108950F931F93CF936A
:1035E000DF9300D0CDB7DEB78C0169837A830E9468
:1035F000BD1AAC0169817A81C80103960F900F90C2
:10360000DF91CF911F910F910C940A2F0F931F936D
:10361000CF93DF9300D0CDB7DEB78C0169837A8377
:103620000E94D51AAC0169817A81C80105960F9074
:103630000F90DF91CF911F910F910C940A2FDC0115
:10364000EC91BCE0EB9FF0011124E15DFC4F659132
:10365000749184EF95E60E94AA3ECB010895EF9203
:10366000FF920F93CF93DF9300D0CDB7DEB77C01ED
:1036700069837A830E941F1BF701208169817A8107
:10368000211103C022E330E002C020E030E001E07D
:10369000AC01C70107960E94A52E0F900F90DF91F5
:1036A000CF910F91FF90EF900895CF93DF93EC01AE
:1036B0000E941F1B2F8138858217930710F498876B
:1036C0008F83CE010E94BD1A2B813C818217930704
:1036D00010F49C838B83CE010E94D51A2D813E81EC
:1036E0008217930710F49E838D83DF91CF91089505
:1036F0000F93CF93DF93EC0104E620E030E048EE37
:103700005DEF01960E94A52E89819A819C838B830F
:103710002881233039F49C013695279536952795D5
:103720003C832B839E838D83CE01DF91CF910F91BC
:103730000C94551B0F931F93CF93DF934BE050E0F6
:1037400061E073E08DE692E00E94053F8DE692E035
:103750000E94551BC0E0D0E08E010F5F1F4FB801E3
:103760008DE692E00E947D19CE010E94A4190032DC
:10377000110511F0E801F0CFDF91CF911F910F916A
:103780000895FC01818592850895FC0181859285CB
:10379000883EF3E09F0719F487E692E004C00E9498
:1037A0001D1382E692E00E94B01386E008950F9305
:1037B00001E020E030E048EE53E009960E94A52E9B
:1037C0000F910895262F443019F06FEF7FEF02C05C
:1037D00061E070E0223091F028F4222349F021309A
:1037E00051F00895243081F060F0253081F0089583
:1037F0000B960C94AD1A0B960C942F1B0B960C94F5
:10380000781B0B960C94ED1A0B960C94061B0B96DA
:103810000C94D71BEF92FF920F931F93CF93DF93DC
:10382000EC018B017A0166EB73E00E94F2178FEFD7
:10383000898789EA90E09983888389E1F801DE012C
:103840001B9601900D928A95E1F7FDA2ECA2DF9103
:10385000CF911F910F91FF90EF9008950F931F93B9
:10386000CF93DF93CDB7DEB728970FB6F894DEBFBE
:103870000FBECDBF8C01BC016A5E7F4F2BEA33E0E7
:103880004EE050E0CE0101960E947D11CE010196DE
:103890000E94881181E0F801858328960FB6F8947C
:1038A000DEBF0FBECDBFDF91CF911F910F91089565
:1038B000CF93DF93EC010E9470120E94681285EA98
:1038C00093E00E94B0130E946C126EE0CE01469607
:1038D0000E9448130E94122F83E0DF91CF910C9435
:1038E000F037CF93DF93EC016CA17DA16F5F7F4F29
:1038F0000B960E942419CE01DF91CF910C94581C95
:10390000CF93DF93EC016CA17DA16F5F7F4F0B968E
:103910000E947D19CE01DF91CF910C94581CDF924B
:10392000EF92FF920F931F93CF93DF93CDB7DEB744
:1039300069970FB6F894DEBF0FBECDBF8C0189E149
:10394000D82EC8010B967C0160E0C8010E94E018E7
:1039500087FD30C0873041F0883051F0863061F407
:10396000C8010E94711CF0CFC8010E942E1CECCF30
:10397000C8010E94801CE8CFF701DE0111969D2D41
:1039800001900D929A95E1F7682FC8010E940A18DC
:10399000811109C0FE013196D7018D2D01900D9244
:1039A0008A95E1F7D1CF83E00E94F037C7010E94EA
:1039B000551BCACF69960FB6F894DEBF0FBECDBFB8
:1039C000DF91CF911F910F91FF90EF90DF900895BD
:1039D0001F93CF93DF93EC01162F0E94E517CE01C2
:1039E00009960E941B2F882311F0298501C02FEF13
:1039F000332727FD3095812F90E02817390749F1AB
:103A00001230C9F048F4112389F0113011F5CE01BC
:103A10000B960E94351A1DC01430B9F088F015308D
:103A2000C1F4CE010B960E94C51B13C0CE010B96AC
:103A30000E94311A0EC0CE010B960E94681A09C06E
:103A4000CE010B960E94581A04C0CE010B960E941C
:103A5000601A80E0DF91CF911F9108950F931F931B
:103A6000CF93DF9300D0CDB7DEB789839A830E94CE
:103A7000681289819A810E94B0130E946C12009191
:103A8000180310911903C8010E940E3F892B19F0E9
:103A9000C8010E94B0130F900F90DF91CF911F913A
:103AA0000F910C9415148091950390919603892B96
:103AB000A1F08DE10E946D0765E02AE0AC01249F32
:103AC000C001259F900D11240E94A9158DE60E942A
:103AD000011483E40E94011404C085E794E00E946D
:103AE000B0130C9415148BE10E946D0765E00E94E1
:103AF000A9158DE60E94011486E50E9401140C941C
:103B0000151490E0880F991F62E0865F9A4F0C941D
:103B10007C130F931F93CF93DF9361E08DE692E0C8
:103B20000E94C1198C0165E08DE692E00E94C119E6
:103B3000EC0184E10E946D0780179107B8F4C81763
:103B4000D907B0F49C012C1B3D0BC8018C1B9D0BAD
:103B500064E670E00E94AA3EC9010E94AA3E643653
:103B6000710510F063E670E0862F03C083E601C0A4
:103B700080E0DF91CF911F910F910895613011F492
:103B80000C94090D0C94112CCF93DF93D82FC62FD2
:103B90008FE18D0F0E94BA09882351F06C2F8D2F71
:103BA0000E94BE1D46E06C2FDF91CF910C944A1607
:103BB00083E095E0DF91CF910C94B013FF920F93C7
:103BC0001F93CF93DF93182F062F0E9468128091C6
:103BD000BE02882319F01092BE0203C081E08093D8
:103BE000BE029091BC028091BD02992311F08F5FBB
:103BF00001C081508093BD028091BD0286301CF0CF
:103C00001092BC0205C082301CF481E08093BC029B
:103C1000109287020E94CF0C811108C083E090E0CF
:103C20000E94E00D882341F0C0E209C0809141026A
:103C3000882321F0C2E403C0CDE601C0C2E6809132
:103C40005B02811103C08C2F0E94011480915B02E2
:103C5000882331F1D0E0C1E00E94CC0CD817D0F419
:103C600080915C02D81761F080915B028C2331F067
:103C70008091BE02882321F082E003C081E001C070
:103C800080E00E940114C03811F0CC0F01C0C0E0E8
:103C9000DF5FE2CF0E94CC0C98E0981B892F25C0F3
:103CA0008091BC02882319F04EE3F42E02C03CE35D
:103CB000F32ECD3611F0C032B9F4C1E0D0E020913E
:103CC000BD02332727FD30952C173D0711F48F2DAA
:103CD00001C080E20E9401142196C730D10579F716
:103CE00080E20E94011403C087E00E940614D1E024
:103CF000D10F8D2F0E942E148AE30E940114602F91
:103D0000812F0E94C41D0E9415140E946C12D6308F
:103D1000C8F4C2E0C10F8C2F0E942E148AE30E94C7
:103D20000114602F8D2F0E94C41DC63059F083E00E
:103D3000810F0E942E148AE30E940114602F8C2FA1
:103D40000E94C41DDF91CF911F910F91FF900C94A1
:103D5000151489E10E946D0768E00E948B1680E2CD
:103D60000C9401140E9468122091600280918703D4
:103D700090918803223031F466E00E94A61588EF06
:103D800094E005C065E00E94A61584EF94E00E94CF
:103D9000B01380E20E9401140E94FA2B67E00E9497
:103DA0008F160E9415140E946C128BEE94E00E94F4
:103DB000B01367E080917B0390917C030E9493167F
:103DC0000C9415140F931F936091C9027091CA024D
:103DD0008091CB029091CC0220918602222371F037
:103DE0000E9420070091C9021091CA022091CB02C3
:103DF0003091CC02601B710B820B930B28EE33E0E9
:103E000040E050E00E94BE3EC9011F910F9108950D
:103E1000CF930E94F926811110C00E94EA278823BF
:103E200031F00E94F92681110AC0C4E40BC00E943F
:103E3000CF0C811106C0CEE405C0C3E403C0C5E4C5
:103E400001C0C2E40E94E9268111C7E58C2F0E94BF
:103E5000011480E20E9401140E94E21E0E948F154C
:103E600080E2CF910C9401140E946812809160024C
:103E70008230F9F40E94F027882359F066E080919F
:103E80007202909173020E94A6158FEF94E00E9437
:103E9000B0130E94FF26882371F066E080917002C3
:103EA000909171020E94A6158BEF94E00E94B013CE
:103EB00002C00E94A91E67E087E10E94E9090E94F2
:103EC00015140E946C120E94081F67E084E10E9492
:103ED000E9090C9415140E9420076093C90270939D
:103EE000CA028093CB029093CC021092C50210922A
:103EF000C6021092C7021092C8021092C10210921C
:103F0000C2021092C3021092C40281E08093860222
:103F100008950F931F930E9420070091C9021091EA
:103F2000CA022091CB023091CC02601B710B820B34
:103F3000930B6093C9027093CA028093CB02909353
:103F4000CC02109286021F910F910895CF92DF92BA
:103F5000EF92FF920E94681280EE94E00E94B013EC
:103F60000E94E21E0E948F150E946C128DED94E05B
:103F70000E94B0136091C5027091C6028091C70281
:103F80009091C80258EEC52E53E0D52EE12CF12CAD
:103F9000A70196010E94BE3EC9010E948F158AEDBD
:103FA00094E00E94B0136091C1027091C2028091AE
:103FB000C3029091C402A70196010E94BE3EC901AE
:103FC000FF90EF90DF90CF900C948F150E946812B5
:103FD00081ED94E00E94B0130E941B2C68E00E94C7
:103FE00097160E9415140E946C1283E10E94BA0970
:103FF000882349F088EC94E00E94B0130E94212CA1
:1040000068E00E9497160C9415140E94681280ECC8
:1040100094E00E94B01367E086E00E94E9090E94E4
:1040200015140E946C1288EB94E00E94B01347E0D4
:1040300061E08091AB039091AC030E944A160C940E
:1040400015140E94681281EB94E00E94B01367E09F
:1040500082E10E94E9090E9415140E946C128AEA0A
:1040600094E00E94B01367E083E10E94E9090C9498
:1040700015140E94681284EA94E00E94B0138091A3
:10408000950390919603892B29F065E087E00E94C3
:10409000E90904C082EA94E00E94B0130E9415145A
:1040A0000E946C128CE994E00E94B01365E085E0F8
:1040B0000E94E9090C9415140F931F93CF93DF937B
:1040C00000D0CDB7DEB78B0189839A830E9470122E
:1040D0000E94681289819A810E94B0130E946C121A
:1040E000C8010F900F90DF91CF911F910F910C9409
:1040F000B0138BE894E00E942E1D0E946C1284E89D
:1041000094E00E94B0130E94E21E0C948F158DE77C
:1041100094E00C942E1D0E9468120E94A91E0E9419
:10412000531D0E946C120E94081F0C94731D0E9464
:1041300068128CE694E00E94B01367E08CE10E9464
:10414000E9090E9415140E946C1282E694E00E9414
:10415000B0130C94731D0E9468128CE594E00E94C9
:10416000B0138091950390919603892B31F00E94B2
:104170008A0769E00E94B41504C088E594E00E94B3
:10418000B0130E9415140E946C128EE494E00E94F9
:10419000B0130C94531D60E070E08AE494E00C943A
:1041A0005C200E94CB200C94122F60E070E08EE324
:1041B00094E00E945C2088E893E10C94270760E07B
:1041C00070E08DE294E00C945C206091C1027091EB
:1041D000C2028091C3029091C40220E63AEE40E010
:1041E00050E00E94BE3EC9010895CF93DF938091B5
:1041F000BB028F5F843018F48093BB0202C0109220
:10420000BB028091BB02833061F4C0916D00CF5F2F
:10421000C0936D000E9478298C1718F481E0809378
:104220006D0080916002833051F0843081F08230E3
:1042300019F180916D0081508093B2021DC0809170
:10424000B202811102C00E947829815010C0C09131
:10425000B202D0E00E94782990E00197C817D907F0
:104260001CF01092B20205C08091B2028F5F809361
:10427000B20282E0809360020E9468128091B202D2
:1042800090E061E001960E94A61580E00E94011472
:10429000E091B202F0E0EE0FFF1FE657FD4F808184
:1042A00091810E948F1581E00E94061482E00E9495
:1042B0000114E091B202F0E0EE0FFF1FEC56FD4F4B
:1042C000808191810E948F150E9415140E946C12AA
:1042D000E091B202F0E0EE0FFF1FE256FD4F68E002
:1042E000808191810E948B16E091B202F0E0EE0F86
:1042F000FF1FE855FD4F68E0808191810E948B1679
:10430000DF91CF910C941514CF93DF93C0E0DFE0E1
:1043100061E08D2F8C1B0E9462128FEF0E940114AE
:1043200060E08C2F0E9462128FEF0E9401148AE0DD
:1043300090E00E942707CF5FC03151F78AE090E0FC
:10434000DF91CF910C942707CF93C82F0E94701252
:104350000E9468128DE094E00E94B01362E08C2FFE
:1043600090E00E94A61580E49FE1CF910C9427076E
:104370001092B8021092B7021092B6021092B502D3
:104380008091B9028093BA021092B4021092B302E3
:104390000895CF93DF9328E630E084E992E0CAE8FD
:1043A000D2E0A8EAB2E06EE972E045E05DE2F90130
:1043B00051939F01FC0111921192CF011992199210
:1043C0001D921D92FB0111921192BF01415079F78C
:1043D000DF91CF910895CF930E94B8210E94C92107
:1043E0000E94681264E070E08DE692E00E94261A56
:1043F00080916002823011F48EE301C080E20E945D
:1044000001148DE692E00E94351A8091600282309C
:1044100011F48CE301C080E20E94011480911A0320
:104420000E94811D0E946C120E94891D8093B90216
:1044300062E090E00E94A6158AE294E00E94B01328
:104440008FEB92E00E941B2F882319F0C091BF02CE
:1044500001C0CFEFC0FF05C065E082E10E94E9091D
:1044600003C085E00E94061480E20E94011480913E
:104470006D0284508630A8F4C1FF05C065E083E179
:104480000E94E90903C085E00E940614C2FF05C02E
:104490000E94D909CF910C942E1480E2CF910C94F4
:1044A000011466E080916E0290916F020E948B165B
:1044B000CF910C9415140E94891D8093B90290919C
:1044C000BA02981728F58093BA020E94E21E209142
:1044D000B5023091B602821B930B9093B802809381
:1044E000B7020E94E21E9093B6028093B5028091BB
:1044F000B7029091B8022091B3023091B40228170C
:10450000390710F0232B21F49093B4028093B30267
:104510000895CF93DF930E945B220E94D9098111F5
:1045200028C083E10E946D07EC0182E10E946D07C3
:10453000C817D90728F49C012C1B3D0BE90102C0C8
:10454000C81BD90BC53FD140A0F024E630E08091D4
:10455000BA02281B31094091B3025091B402249F42
:10456000C001259F900D349F900D1124DF91CF91B4
:10457000089529E6EBCFFF920F931F93CF93DF931C
:104580000E947829FF24FA94F80E0E947B29833434
:1045900029F50F2D112707FD1095F801E859FF4F58
:1045A0008083000F111FE801CC56DD4F6091C102DE
:1045B0007091C2028091C3029091C40228EE33E050
:1045C00040E050E00E94BE3E3983288389E10E948A
:1045D0006D07F801E855FD4F918380830E947B2988
:1045E000843429F5CF2DDD27C7FDD095FE01E8598C
:1045F000FF4F8083CC0FDD1F8E0106571D4F60914A
:10460000C1027091C2028091C3029091C40228EE4F
:1046100033E040E050E00E94BE3EF8013183208349
:1046200089E10E946D07C256DD4F99838883DF912F
:10463000CF911F910F91FF9008950E94FF26811145
:104640002FC00E94F02781112BC00E94CF0C88231D
:10465000A1F08091C5029091C602A091C702B091CD
:10466000C80280599F4FAF4FBF4F8093C5029093B0
:10467000C602A093C702B093C8020E94BB220E9448
:10468000892290938902809388028091BB028F5F78
:10469000893218F48093BB0208951092BB020895EA
:1046A0008091C1029091C202A091C302B091C40254
:1046B00080599F4FAF4FBF4F8093C1029093C2026A
:1046C000A093C302B093C402C0CF81E09091BB021B
:1046D000953108F080E008950E945B220E946523D6
:1046E0008823B9F00E9468120E94A91E67E087E142
:1046F0000E94E9090E9415140E946C120E94081F72
:1047000088E294E00E94B0130E94F92681111CC037
:104710002FC00E94681268E088E10E94E90986E2E1
:1047200094E00E94B01367E087E10E94E9090E94CB
:1047300015140E946C1268E08AE10E94E90983E284
:1047400094E00E94B01314C08091B902833680F4C3
:104750008091B3029091B402459730F08091880225
:10476000909189020C948F158CE194E00C94B01315
:104770008091B90264E090E00E94A6158AE194E07D
:104780000E94B0130C9415149091C0029F5F9093F7
:10479000C00290E0FC013197E331F10570F5EE5C69
:1047A000FF4F0C94FF3E0C94341F0C94B21E0C94DB
:1047B000A61F0C94392061E007C061E083E00C94EF
:1047C000DE1D61E006C066E080E0F9CF66E0F6CF6E
:1047D00066E086E0F4CF0C94EB210C94E61F0C9479
:1047E00021200C9405200C946C230C9497200C949D
:1047F000AB200C948B200C94F52008958FEF8093C0
:10480000BF0208950F931F93CF93DF930E94B627A3
:10481000C0917002D091710261E08DE692E00E9439
:10482000C1198C01CE0165E070E00E94AA3E8FE0C4
:104830000E944909EC0140E0BC01C8010E94452CDE
:104840008FE00E94712CCE01DF91CF911F910F91CB
:104850000C94962781E00C94C8270E94170888239F
:1048600021F00E9408270C94182D08951092CD0273
:104870000C940224CF93DF930E942D240E940D08F4
:10488000EC018091CD02811111C062E08DE692E0D1
:104890000E94C1198C179D0748F481E08093CD02D6
:1048A00080917002909171020E94B0270E941708B7
:1048B000882381F064E08DE692E00E94C1198C1794
:1048C0009D0740F485E395E09093190380931803C6
:1048D00081E030C00E948F07029758F180919B03BE
:1048E00090919C03892B89F08BE10E946D07EC016C
:1048F0008DE692E00E94F719D195C195D1098C17E8
:104900009D071CF481E395E0DFCF809195039091A2
:104910009603892B71F08DE10E946D07EC018DE605
:1049200092E00E94151A8C179D071CF48BE295E00B
:10493000CBCF82E0DF91CF9108958130910521F0B6
:104940009093CF028093CE027093D1026093D002F5
:1049500008950F931F93CF93DF93C091CE02D09110
:10496000CF02CE010E94180F8C010E940D08C817BB
:10497000D90738F4C801DF91CF911F910F910C94A2
:10498000FA0E81E0DF91CF911F910F91089581E0A0
:104990000E9453280C94A60D0E9445280E945C0D8D
:1049A00021E08091AF039091B003892B09F420E0BE
:1049B0002093D20280E10C94712C0F931F93CF931C
:1049C000DF930E94A924182F0E94F927EC010E946E
:1049D0001708882311F001E001C0012F8091D20255
:1049E000882329F0BE01812F0E94C92C01C0812F8C
:1049F000882329F081E00E94532881E00CC0002325
:104A000049F0BE01812F0E94E52D8C179D0711F002
:104A10000E94322882E0DF91CF911F910F9108957B
:104A2000BC0180E10E9449090C94E42B0F931F9371
:104A3000CF93DF938C01EB010E949D24BE0180E1A6
:104A40000E94490940E0BC01C8010E94452CCE01EA
:104A50006AE070E00E94AA3ECB01DF91CF911F91E6
:104A60000F910C94102581E00E94C8270C94A60D8C
:104A70000E945C0D0E94B6278FE00C94712C0F935E
:104A80001F93CF93DF931F92CDB7DEB78C018FE0DA
:104A900049830E9449094981BC01C8010F90DF91F7
:104AA000CF911F910F910C94452C0F931F93CF938F
:104AB000DF93C0917B03D0917C03CE010E94180F3D
:104AC0008C010E940D088C179D0738F4C801DF91F6
:104AD000CF911F910F910C94DC0E81E0DF91CF916B
:104AE0001F910F9108951F93CF93DF930E94552537
:104AF000182F0E940827EC01BC01812F0E94C92CAD
:104B0000882329F081E00E94C82781E019C00E9413
:104B10001708811107C0111105C0CE010E94022C97
:104B2000882369F00E94CF0C811109C0BE01812F3A
:104B30000E94E52D8C179D0711F00E94962782E0B8
:104B4000DF91CF911F9108950E9433250E94C724C1
:104B50000C94A60DCF93DF931F92CDB7DEB7909143
:104B6000D402913039F018F0923039F00FC00E9421
:104B700073250CC00E94DD2409C00E94AD0E823056
:104B800089F089830E94A42589810CC0813051F469
:104B90009091D302992331F082E08093D4020E9455
:104BA0005C0D82E00F90DF91CF9108950E945C0D23
:104BB0008091D9029091DA020E94180F0E94FA0E99
:104BC0002091D9023091DA02882369F06091D702EE
:104BD0007091D80240E0C9010E943F250E9438250B
:104BE0001092D40208956091D5027091D602C90145
:104BF0000E9416250E94CC2481E08093D2028093EB
:104C0000D40208958093D30208959093DA0280939A
:104C1000D9027093D8026093D7025093D602409382
:104C2000D502089587E08093BF0282E08093C0029E
:104C30000E94E93783E08093DC0208950F931F936D
:104C4000CF93DF938091DB02882379F00E94D9090A
:104C50009091740201E0981301C000E011E081110D
:104C600010E0913021F4112311F010E000E083E115
:104C70000E94BA09882309F45CC083E10E946D0791
:104C8000EC0182E10E946D07C817D90728F49C0146
:104C90002C1B3D0BE90102C0C81BD90BC53FD140FD
:104CA00008F447C0C1E0011102C087E001C083E001
:104CB0008093BF02112329F08091BF02825080931C
:104CC000BF02CC2329F08091BF0281508093BF02A4
:104CD000011104C0111102C0CC2331F081E00E9407
:104CE000F037111107C004C088E00E94F03708C0F7
:104CF000002331F08091B1039091B203892B11F41C
:104D0000D0E001C0D1E00E94D211811102C0109206
:104D1000DC02D11106C0C11104C00E94D21188303A
:104D200051F08091DC02823011F481E00AC082E00F
:104D300008C0C0E0B8CF8091DC028F5F8093DC02B6
:104D4000F0CFDF91CF911F910F9108958FEF809356
:104D5000BF0288E00C94F0378093DB020895109234
:104D6000E30208950E94200728EE33E040E050E07F
:104D70000E94BE3E2093DF023093E0024093E102A6
:104D80005093E20208950E94200728EE33E040E0AD
:104D900050E00E94BE3E6091DD027091DE02809183
:104DA000DF029091E002A091E102B091E202860F51
:104DB000971FA11DB11D82179307A407B50728F0FF
:104DC00081E08093E30282E008951092E30281E0A3
:104DD00008958091E30208952CE3AC01249FC00163
:104DE000259F900D11249093DE028093DD020C9498
:104DF000B22681E09091EC02911180E0089581E06B
:104E00002091EA023091EB02232B09F480E008950F
:104E10008091EA029091EB020895EF92FF920F9336
:104E20001F93CF93DF93EC018B0180916F00823051
:104E300009F474C08FE00E94E5089093E902809322
:104E4000E80268EB7BE08FE00E9449099695879520
:104E50009093E5028093E402BE018FE00E94E50892
:104E60009093E7028093E6022091E8023091E902F4
:104E70002817390718F5821B930B893B9B40F0F0EC
:104E80000E9470120E94681260E070E08BE695E06C
:104E90000E945C207801CE15DF0570F0C7010E94EA
:104EA000A70584EF91E00E9427078091E40290918A
:104EB000E502E80EF91EEFCF0E9417082091E802E4
:104EC0003091E9028091E6029091E7028217930700
:104ED00028F5281B390B293B3B4000F10E9470123A
:104EE0000E94681260E070E081E695E00E945C201C
:104EF0007E010E151F0580F0C8018E199F090E94C2
:104F0000A70584EF91E00E9427078091E402909129
:104F1000E502E80EF91EEDCF0E941708CE01DF91E1
:104F2000CF911F910F91FF90EF90089520916F0006
:104F3000223041F02091BB033091BC032817390780
:104F400008F4C9016091EA027091EB020E940D27FA
:104F50009093EB028093EA020E94A7050C949408B8
:104F6000BC018FE00E9449090C9496278091EC02C5
:104F7000882369F01092EB021092EA0280E090E040
:104F80000E94962781E00E949B051092EC020895F2
:104F9000CF93C82F8091EC0281110FC0CC2369F010
:104FA00080E090E00E9496271092EB021092EA02B5
:104FB00080E00E949B05C093EC02CF91089510926F
:104FC000EB021092EA0280E090E00E94962781E0D6
:104FD0000C94C82781E09091F102911180E008952E
:104FE00081E02091EF023091F002232B09F480E060
:104FF00008958091EF029091F0020895CF93DF938E
:10500000EC014091930350919403BA01645F7140A5
:1050100082EF92E00E941F2E8091F202882311F00D
:10502000C0E0D0E0CE01DF91CF910895CF93C82F9B
:105030008091ED029091EE020E94FE272091EF02F6
:105040003091F0028217930711F4CC2349F090932A
:10505000F0028093EF020E94AB05CF910C9494086C
:10506000CF91089520916F00223041F02091BD032F
:105070003091BE032817390708F4C9019093EE0256
:105080008093ED0281E00C9416288091F102882330
:1050900049F080E090E00E94322881E00E94A10562
:1050A0001092F1020895CF93C82F8091F1028111DF
:1050B0000BC0CC2349F080E090E00E94322880E0D1
:1050C0000E94A105C093F102CF91089580E090E085
:1050D0000E94322881E00C9453288091F1028111C2
:1050E00002C00C941628089580916D02893051F009
:1050F0009CEF980F963048F08150823048F485E05C
:1051000093E008958CEF92E008958EE093E0089587
:1051100083EF92E0089585E595E090935F02809398
:105120005E0290916D02945081E0963008F080E02C
:105130000E94AC2661E08AE296E00E947F0F91E037
:10514000813009F090E0892F08950F931F93CF933A
:10515000DF930E9402260091720210917302C091A7
:105160007002D091710263E08DE692E00E94C11955
:10517000A801BE010E9405268FE495E090935F028E
:1051800080935E0260E080E396E0DF91CF911F9113
:105190000F910C947F0F1F93CF93DF93162FC09125
:1051A0007002D091710261E08DE692E00E94C11917
:1051B00040E0BE010E943F2589E495E090935F02A4
:1051C00080935E02612F80E596E0DF91CF911F9181
:1051D0000C947F0F1F93CF93DF93182FC091700211
:1051E000D091710261E08DE692E00E94C11941E028
:1051F000BE010E943F2529E435E030935F022093F1
:105200005E02612F80E596E0DF91CF911F910C94B3
:105210007F0F2DE335E030935F0220935E02682F0D
:1052200089E696E00C947F0FCF93C82F62E08DE65D
:1052300092E00E94C1196091720270917302A09174
:105240007402B0917502E091AD03F091AE03AE9F90
:105250009001AF9F300DBE9F300D1124820F931F20
:105260000E94162523E435E030935F0220935E020E
:105270006C2F8CE396E0CF910C947F0F1F93CF930C
:10528000DF93182FC0917202D091730262E08DE615
:1052900092E00E94C119BE010E94162523E435E068
:1052A00030935F0220935E02612F8EE596E0DF91DE
:1052B000CF911F910C947F0F86EF91E090935F0246
:1052C00080935E0260E08AE496E00C947F0F809108
:1052D000A3039091A4030E94EC268BE595E09093A4
:1052E0005F0280935E0261E08CE396E00C947F0F96
:1052F00080911703089580916E000895813019F40C
:1053000081E00C941429811103C081E00C943E29A2
:105310008230B1F380E008954091170350E020916E
:10532000A1033091A2034217530789F0813041F461
:105330002091B1033091B203232BD9F0862F10C0F6
:10534000811102C0862F10C08230C9F412C0813092
:1053500049F48091B1039091B203892B49F080E028
:105360000C94EA28811102C00C940929823039F486
:1053700060E08091A7039091A8030C94CB2880E073
:1053800008950F931F93CF93DF93C82F81E08093ED
:10539000170314E4D7E503E44091170350E020918C
:1053A000A1033091A20324173507E8F10E94C20C33
:1053B00010936E008C2F0E947E298130A9F5D09326
:1053C0006E000E946729813079F50E94B8210E9401
:1053D000C20C00936E004091170350E02091A1038E
:1053E0003091A2034217530711F061E001C060E061
:1053F0008C2F0E948C298130B9F4D0936E0040919B
:10540000170350E02091A1033091A20342175307E4
:1054100021F00E946729813039F4809117038F5F52
:1054200080931703B9CF81E0DF91CF911F910F9146
:105430000895CF93C82F80931A0323E735E0309364
:105440001903209318038F3030F4E82FF0E0E35570
:10545000FF4F808101C080E080936F000E94F2388E
:105460000E94B8080E948B288823F1F184E00E94F2
:10547000F0378C2F90E08F309105A0F5FC01EB5BAD
:10548000FF4F0C94FF3E60E08091A7039091A8032A
:105490000AC00E945C2928C080E00E94142924C010
:1054A00060E085E090E00E94CB281EC060E080E0D4
:1054B00002C060E081E00E94A52816C080E00E9442
:1054C000092912C080E00E943E290EC081E003C07D
:1054D00080E001C082E00E94C12906C080E00E94F5
:1054E000EA2802C00E94D1200E94C708CF910C94E4
:1054F00002390F931F93CF93DF93EC010E9496190B
:105500000E9474288C0160E0C8010E94E01887FDA9
:1055100029C090916D02E82FFF27E7FDF0959930A3
:1055200019F4ED56FA4F0FC08CEF890F863018F43E
:10553000E655FA4F08C09150923018F4EB57FA4FE5
:1055400002C0EC58FA4F84918F3049F4BE018DE6C9
:1055500092E00E94831ACE010E94A419D1CF0E942A
:10556000192AD1CFDF91CF911F910F91089563EB4D
:1055700075E08EE093E00E94F21769E875E085E03F
:1055800093E00E94F2176AE975E08CEF92E00E94C6
:10559000F21769E775E083EF92E00C94F217FC01D3
:1055A000428153814115510591F0A081B181B7FF2E
:1055B00003C0B195A195B10928EE33E00E947C3E6D
:1055C0009A0140E050E00E94BE3EC901089580E08B
:1055D00090E008950F931F93CF93DF9300D000D0F6
:1055E000CDB7DEB78C01862FF801628173810E94EE
:1055F000E5089C838B83F801808191819A8389835C
:10560000CE0101960E94CF2A0F900F900F900F901D
:10561000DF91CF911F910F9108950F93FC01CB0162
:10562000002341F04617570708F4CA0164177507AD
:1056300048F407C06417750708F4CA0146175707EE
:1056400008F4BA0197838683918380831382128240
:105650001582148233872287681B790B71876087D4
:105660000F910895FC019B0140E050E086819781F5
:10567000281B390B41095109A285B3850E94833E3D
:1056800020853185442737FD4095542F0E94E03E08
:105690002115310581E04807510524F457FD05C067
:1056A000C90108958FEF9FEF089580E090E008957D
:1056B000DF92EF92FF920F931F93CF93DF93EC0152
:1056C0002A813B812417350720F4FA01E21BF30BF2
:1056D00003C0F901E41BF50B8C819D81969587959C
:1056E0008E179F0770F5888199818617970720F498
:1056F000FB01E81BF90B03C0FC01E61BF70BEF2BCA
:1057000001F12417350738F48A01021B130B7B01C2
:10571000E81AF90A06C07C01E61AF70A8901041B97
:10572000150BC7010E944D2ED82E888599850E94A1
:105730004D2ED81206C01D830C83F986E8861B8780
:105740000A87DF91CF911F910F91FF90EF90DF902B
:1057500008950F931F93CF93DF93EC018B019A0170
:10576000A885B9850E947C3E2A853B8540E050E0B3
:105770000E94E03EC801A0E0B0E082179307A407B2
:10578000B5071CF41F821E8204C0021B130B1F836B
:105790000E83DF91CF911F910F910895EF92FF92A9
:1057A0000F931F93CF93DF93EC018B017A010E943B
:1057B000582BA701B801CE01DF91CF911F910F9116
:1057C000FF90EF900C94A92B8233910510F482E3A3
:1057D00090E09093820380938103089580911D034C
:1057E000813029F48091810390918203089580E0B3
:1057F00090E0089560917D0370917E0380911F0376
:105800000C94E50820912203213041F041E02091E1
:105810008103309182038217930708F040E0842FC0
:1058200008952CE0829FC001112460911F03855DC3
:105830009C4F0C94EA2A60911F0383E793E00C9439
:10584000EA2ACF93DF9300D000D0CDB7DEB782E154
:105850000E946D079A83898383E10E946D072981E5
:105860003A81281B390B3A83298387E10E946D070F
:105870009C838B83CE0101960E94CF2A0F900F90BC
:105880000F900F90DF91CF9108959B01813091058A
:1058900031F090937C0380937B0340931E033093FD
:1058A0007E0320937D036091A7037091A803C90133
:1058B0000E94AA3E709382036093810322333105D4
:1058C00030F482E390E090937E0380937D03623313
:1058D000710530F482E390E090938203809381031A
:1058E0000895EF92FF920F931F93CF93DF9391E070
:1058F00090931D03FF24F3948F3009F0F12C8093D3
:105900001F0360EA70E00E9449099093800380932E
:105910007F030E940D082091810330918203409102
:105920007B0350917C030F2DBC018BE693E00E941A
:105930000D2B0E94CC0C8093200380917B039091CF
:105940007C030E94180FEC0110E08CE0E82E80919F
:105950002003181798F4812F0E94090DBC01209193
:10596000810330918203E19EC00111240F2DAE010D
:105970008D5D9C4F0E940D2B1F5FE9CF109222037B
:1059800010922103DF91CF911F910F91FF90EF9023
:1059900008950F931F93CF93DF93082FEB0180910E
:1059A0001E038823C9F040917F035091800320910A
:1059B0008103309182032417350708F49A012C17CC
:1059C0003D0710F410925A0280912203813021F099
:1059D0000E94AD0E80931D0380911D03813011F54F
:1059E00080912203823041F411E0209181033091B3
:1059F0008203C217D30708F010E00E94EE2B8C1729
:105A00009D0770F0111102C0002351F09091210305
:105A100081E0890F8093210381E09A3020F402C055
:105A20001092210380E0DF91CF911F910F91089593
:105A30000F931F93CF93DF93EC010E940D08AE01EB
:105A4000BC018BE693E00E94CE2B10E00CE080912D
:105A50002003181770F4812F0E94090DBC01019FCB
:105A6000C0011124AE018D5D9C4F0E94CE2B1F5FA3
:105A7000EECFDF91CF911F910F910895CF92DF92DA
:105A8000EF92FF920F931F93CF93DF9360917B036D
:105A900070917C038BE693E00E94322B8C01809105
:105AA0007B0390917C030E94180F7C01D12C9CE019
:105AB000C92E80912003D81698F4CD9CE0011124C2
:105AC000CD5DDC4FB701CE010E94322B08171907BC
:105AD00028F0B701CE010E94322B8C01D394E9CF7C
