:100000000C9424050C944C050C944C050C944C0554
:100010000C94113B0C944C050C944C050C944C0521
:100020000C944C050C944D3B0C94C4060C944C055C
:100030000C944C050C94E43B0C94193C0C944C052A
:100040000C94E8060C944C050C944C050C944C054F
:100050000C944C0598167F16811683168A169616F0
:10006000901692160E24F623F823FA23FC23FE237F
:1000700000240424062409240B241C241024122404
:10008000142418241A2416241E24D729022ADD2910
:10009000E029E429EA29ED29F229F629FA29FC299F
:1000A000D729E029E429FE29D233D533DE33E733DB
:1000B000E933ED33F033943698369A369F36A236CC
:1000C000A436A936AC36AF36B236B536B836BB36FE
:1000D000C036C636CB36D236D536D836DD36E036E3
:1000E0000D371137143719371B371E37233725378C
:1000F00029372D373337373739373D374337483787
:100100004C374E37523758375C3739383B383D38E3
:10011000413841383F38453843380000000080C638
:100120004E5A000000007C6B0831000133000028AB
:10013000D007800133004023E80300000000C0AE78
:100140004E5AFC5350143FA0540B0000000000BB5B
:10015000C43680186009DC3770170000000000000A
:1001600000000000000044C4FA0E0000000000C4BB
:10017000FB0E0000000068C4FD0E00000000AAC5D0
:10018000160F0000000040C6190F0000000040C715
:100190002D0F0000000040C6190F0000000040C7EE
:1001A0002D0FB00032006001E8034F0132009E02C3
:1001B0002C01FF0000000005040000040900FF01FD
:1001C00001000105050001040A00FF02020002050A
:1001D000060002040B00FF030300030507000304ED
:1001E0000C00FF0000000405130204040D00FF01D1
:1001F00001000505130405040E00FF0202000605B8
:10020000130106040F00FF0303000705130807048A
:1002100010007F0DC90DD00E436865616C692D43D8
:10022000686172676572206D0076302E33336D5FC2
:100230003230313431303132003D0200006F7074A1
:10024000696F6E7300010001000100010001000AE6
:1002500000640001000300080009000A000B000C04
:1002600000010002000400060008000A000C006DF6
:100270005600206E6F0079657300496E66006D69E7
:100280006E2E00756E6C696D697400756E6C696DAB
:100290006974656400D602D102CC02C702C202BDF5
:1002A00002B802B302AE02A9024E695A6E004C3483
:1002B0003335004C343330004C69706F004C696C3E
:1002C0006F004C6966650050622020004E694D4801
:1002D000004E69436400556E6B6E000098089808E4
:1002E0006C0710275802019808F4016C070100E020
:1002F00001029808F4016C070100E001039808DC92
:10030000006C070600E00104980898086C070300D9
:10031000780005980898086C07030078000698088C
:1003200098086C070300780007980898086C070382
:1003300000780008980898086C070300780009986E
:100340000898086C07030078000100010001000113
:100350000000000100B0041C07520300000807520F
:1003600003B0044006E80300000807E803D0079242
:1003700009D606000000006C07E40C100ED007E45C
:100380000C0000B80B100E0410C409A60E0000AC3F
:100390000D740E6810B80B0A0F0000890C740ECC97
:1003A00010B80B0A0F0000890C740EFE10B80B0A6F
:1003B0000F0000890C40066C071405400600007809
:1003C000054E616D653A0045646974206E616D6526
:1003D0003A0022041D04180413040E040704FB034E
:1003E000F103E60300005265736574206E616D656C
:1003F0000045646974206E616D65004372656174C7
:1004000065206E616D6500546C696D3A2000496429
:100410003A200049633A200043683A2000563A20C7
:1004200020004261743A20200043616C2E65727294
:100430002E2020463A002500202D2D3A2D2D00207B
:1004400020002000200025200052455645525345EB
:1004500020504F4C415249545900706C656173658E
:100460002063616C2E004E2F410064656C74612026
:10047000543D20004E2F4100546578743D00646562
:100480006C746120563D20006D6178566F75743D27
:10049000006E6F2064542F74004572726F723A00C0
:1004A00054696D653A200070726F6772616D2063E8
:1004B0006F6D706C6574650054696E743D002D003D
:1004C000546578743D005662616C2E3D00566F7520
:1004D00074203D00206C696D69743D0056696E7032
:1004E00075743D00776972657320523D00626174D6
:1004F000742E20523D0020200062200074696D653A
:100500003A2020202020004C696D6974733A200045
:100510006D4168003C20006D4120006D41200020AD
:10052000202D2D20200043684342426C44694643FD
:100530005374534243684469435963794368446937
:100540004650435045420064542F6474002D645655
:100550000056206C696D69740059244D245D24EFA8
:1005600024EA2400255B2556259625F925C725CDA7
:10057000253526C9264126D526D226E626000B0C8F
:100580000D0E0F2D060C060006DE05D10500000736
:10059000080A0F2D060C06DE05D105000000010239
:1005A0000304090F2D061E0616060C060006DE05BE
:1005B000D105000000010203040506090F2D061EE7
:1005C0000616060C060006F805E905DE05D105004D
:1005D0000065646974206261747465727900443ED8
:1005E0004320666F726D61740073746F726167652A
:1005F0002B62616C616E630073746F72616765007A
:10060000666173742063686172676500646973630F
:1006100068617267650062616C616E636500636842
:10062000617267652B62616C616E6365006368610E
:1006300072676500010607080F0500021206070829
:10064000090A0B0D0E0F0405000212060708090A1D
:100650000B0D0E0F0405130300060708040F050019
:100660000212060708090A0B0D0E0F0405130300FA
:100670000212110D0E0F040513030002120C1011CB
:100680000D0E0F04051303004558542054206C69C7
:100690006D69740054696D65206C696D69740043FF
:1006A0004150206C696D697400494E505554205674
:1006B000004857204641494C555245004F56455237
:1006C0004C4F4144206572720042414C2062726579
:1006D000616B00424154206469736300494E5420A9
:1006E000540020436F6E6E656374204261747465BC
:1006F000727900436F6E6E65637420426174746535
:1007000072792100000114070C070000566D696E14
:1007100075733A0056706C75733A200029072207EA
:10072000000076616C75653A0074656D703A200062
:100730003F0736070000706F696E7420322E00701C
:100740006F696E7420312E0056074E070000444139
:1007500054413A20200076616C75653A20003200E1
:100760002C013200E80378077207000084077D0738
:1007700000003330306D410035306D410031303094
:10078000306D410035306D410006090A0B0C0D0E2D
:100790000F100621222324252627281514F107EB04
:1007A00007E507DF07D907D307CD07C707C107BB91
:1007B00007B5070000566F75743A0056312D383A68
:1007C000005662383A20005662373A2000566236A8
:1007D0003A20005662353A20005662343A200056DC
:1007E00062333A20005662323A20005662313A2093
:1007F0000056696E3A20004F0846083A082E082233
:100800000816080708000065787065727420444176
:100810004E474552210063616C69622D3E5541523D
:10082000540074656D7020696E7465726E00746535
:100830006D702065787465726E0049206469736319
:100840006861726765004920636861726765007658
:100850006F6C746167650077086D085F080000724F
:10086000657365742064656661756C740063616CA2
:100870006962726174650073657474696E67730090
:1008800080250000004B00000096000000E1000001
:1008900000C2010046008813701700007017640042
:1008A000010005000F0005001E0001000A0078008D
:1008B000581B0000010001000800000000000000BB
:1008C00000000000432F6D00F108EA08E408DB088F
:1008D000D2086578742E20416463006578742E20F8
:1008E000646562006465627567006E6F726D616C4D
:1008F0000064697361626C656400050AFA09EF09B6
:10090000E309D809D109C509BB09B109A5099909A4
:100910008D09800976096B09620956094A0940095F
:100920003909310928090000202020726573657497
:100930000073706565643A2000554152543A2000B6
:1009400062616C2E206572723A00666F7263652078
:1009500062616C3A20006469732061677265733A62
:1009600020006469736368202B3A00696E707574A7
:10097000206C6F773A0063617020434F66663A00DF
:100980006D696E2E492049203D20492F0062656522
:10099000703A202020202020007761737465205455
:1009A0002E3A202000442F43206379636C65733A0C
:1009B000004E694364202D64563A004E694D48202C
:1009C0002D64563A00656E6162202D64563A2020EF
:1009D0000064542F64743A00657874726E20544336
:1009E0004F3A00657874726E20543A2020200064DB
:1009F00069736368206F66663A0066616E206F6E89
:100A00003A202020006261636B6C696768743A0069
:100A100016191B1A1C070506212223242526272820
:100A20007265736574696E6720656570726F6D3A83
:100A300000763A20382E35312E3536200000170644
:100A4000FB1021244B2A503D11241FBECFE5D8E0D6
:100A5000DEBFCDBF10E0A0E6B0E0E0E2FEE702C0FE
:100A600005900D92A03FB107D9F715E0A0EFB0E0D7
:100A700001C01D92A233B107E1F71AE0C8E4DAE041
:100A800004C02297FE010E94953ECE33D107C9F7DC
:100A90000E94F6100C940E3F0C940000CF92DF924F
:100AA000EF92FF92482F282F30E0A0E0BDE70E9490
:100AB000013E6B017C01A4E6B0E0A41BB10924E671
:100AC00030E00E94103E6C0D7D1D8E1D9F1D24E6A2
:100AD00030E040E050E00E94523EB9018DE0FF90CE
:100AE000EF90DF90CF900C94BA3B882311F0909A4E
:100AF0000895909808958091F700882331F08091AF
:100B0000F0008F5F8093F00002C01092F00080919F
:100B1000F7008A3010F480E001C084E09091F70083
:100B2000943108F082E09091F7009E3108F081E066
:100B30009091F000982311F0979A0895979808954E
:100B40002091E1033091E203232B11F08093F70011
:100B50000895811103C0939AC49808959398C49AF4
:100B60000895811102C0969A08959698089581116A
:100B700002C0929A089592980895BC018EE00C9458
:100B8000BA3BBC018EE00C94BA3B80FF02C0C09A15
:100B900001C0C09881FF02C0C19A01C0C19882FF04
:100BA00002C0C29A01C0C29883FF02C0C39A01C0AA
:100BB000C39884FF02C0DE9A01C0DE9885FF02C0A0
:100BC000DF9A01C0DF9886FF02C0AE9A01C0AE98DE
:100BD00087FF02C0AF9A0895AF9808958C9A8B9AB8
:100BE000889A8F9AB89AB99ABA9ABB9AD69AD79A8B
:100BF000A69AA79ABC9A8D9A8E9A8D9A8A9A80E024
:100C00000E94A90580E00E94750580E00E94A00571
:100C100080E00E94C50520E042E060E181EF90E0C5
:100C20000E9484170E94D03B0C941B06089581EF0C
:100C300090E00C94D517D598D498DD98DC98BF9A9D
:100C4000BE9ABD9A80B7806680BF8FEA86B910923F
:100C5000F9000C94413B87FD21C04091660050E0B3
:100C6000682F772767FD709564177507B9F0809333
:100C7000660098B3282F217030E0220F331F220F17
:100C8000331F82FB332730F9232B8270282B80E21D
:100C90002802900111249F71922B98BB089584B172
:100CA00045B12091F90030E0F901EE0FFF1FEE0F82
:100CB000FF1FEC54FE4F9491F901EE0FFF1FEE0F52
:100CC000FF1F933171F02FB7F894E92FF0E0EE0F8A
:100CD000FF1FEC51FE4F90E0942B918380832FBF38
:100CE0000895EB54FE4FE4918091F80047FD02C057
:100CF000E82B02C0E095E823E093F80008951092F5
:100D0000F90008950E942B27909307028093060212
:100D10000E948D2790930902809308020C94550A33
:100D2000E091F900EF5FE83108F0E0E084E0E89F4F
:100D3000F0011124EE54FE4F84910C942B06CF93B6
:100D4000C091F90081E0C11101C080E00E944F060E
:100D5000E1E0EC0FE83108F0E0E0E093F90084E036
:100D6000E89FF0011124ED54FE4FE491E062E7B9F1
:100D70008091F900811103C0CF910C948206CF912C
:100D800008958091F80008951F920F920FB60F9268
:100D900011242F933F934F935F936F937F938F9380
:100DA0009F93AF93BF93EF93FF930E949006FF91A1
:100DB000EF91BF91AF919F918F917F916F915F91D3
:100DC0004F913F912F910F900FBE0F901F9018954C
:100DD0001F920F920FB60F9211242F933F934F93B0
:100DE0005F936F937F938F939F93AF93BF93EF9393
:100DF000FF930E949F06FF91EF91BF91AF919F914A
:100E00008F917F916F915F914F913F912F910F90B3
:100E10000FBE0F901F9018952FB7F8946091FA00AD
:100E20007091FB008091FC009091FD002FBF089510
:100E30000E94C92E0E94F0390E9401280E94493860
:100E40000C94E10C8091FA009091FB00A091FC00C1
:100E5000B091FD000196A11DB11D8093FA00909301
:100E6000FB00A093FC00B093FD00809167008150CF
:100E700019F080936700089581EE809367000E94C7
:100E80003C0A0C9440230E940C0796958795779511
:100E900067950895CF92DF92EF92FF92CF93DF9301
:100EA000EC010E9443076B017C01CC0EDD1EE11CAE
:100EB000F11C0E9443076C157D058E059F05C8F344
:100EC000DF91CF91FF90EF90DF90CF900895CF9278
:100ED000DF92EF92FF92CF93DF93EC010E944307E2
:100EE0006B017C01CC0EDD1EE11CF11C0E9443074E
:100EF0006C157D058E059F0518F40E941807F6CF26
:100F0000DF91CF91FF90EF90DF90CF900895E82F81
:100F1000F0E0EE0FFF1FE254FE4F808191810895B3
:100F2000E82FF0E0EE0FFF1FE459FE4F8081918122
:100F300008952FB7F894E82FF0E0EE0FFF1FEC5163
:100F4000FE4F808191812FBF0895809158020895AE
:100F50008091180190911901089580910601909156
:100F60000701089580910801909109010895E82FE3
:100F7000F0E0EE0FFF1FE65EFE4F80819181089545
:100F8000262F633110F4423040F021E030E0FC01C4
:100F90003383228331832083089550E0BA01620FA6
:100FA000711D620F711D660F771F660F771F665FD9
:100FB0007F4F44E050E00C94C93E282FCA012331F2
:100FC00088F4623078F470E0620F711D620F711D59
:100FD000660F771F660F771F665F7F4F44E050E014
:100FE0000C94E73E0895FF920F931F93CF93DF93E6
:100FF00000D000D0CDB7DEB70AE111E0F12CF80146
:10100000459155916591749149835A836B837C8393
:10101000AE014F5F5F4F60E08F2D0E94DD07F8014A
:101020003496459155916591749149835A836B83A8
:101030007C83AE014F5F5F4F61E08F2D0E94DD0723
:10104000F394085F1F4F83E1F812D9CF0F900F90F0
:101050000F900F90DF91CF911F910F91FF90089506
:101060008091980190919901089580919E019091AD
:101070009F0108958091460190914701039750F098
:1010800080914C0190914D01039720F083E090E016
:101090000C94030E80E008958FB7F894EAE0F2E034
:1010A000119211921192119292E0E635F907C1F76F
:1010B00010925702109256028FBF0895CF93CFB768
:1010C000F8941092170110921601109212011092CA
:1010D0001301109214011092150110920E0110923A
:1010E0000F01109210011092110110920A0110923A
:1010F0000B0110920C0110920D010E9443076093A6
:101100000201709303018093040190930501CFBF06
:10111000CF910895CF93DF930E944C080E945E0800
:10112000C0911801D0911901809118019091190175
:10113000C817D90729F48AE090E00E946707F4CF26
:10114000DF91CF9108950E945E08109209011092DC
:10115000080110920701109206010895EAE1F1E0FA
:101160001192119281E0EC36F807D1F708950E94B0
:101170004C080E945E080C94AE088FB7F894109249
:10118000FE001092FF0010920001109201018FBF2B
:1011900010921901109218010E947F060E94B70850
:1011A0000E94A308ECE6F1E01192119281E0EE3B7F
:1011B000F807D1F708958091580281110AC081E0A3
:1011C0000E94A9050E94BD0881E0809358020C94FA
:1011D0008A0808951092580280E00C94A905CF93D4
:1011E000DF9381E00E949907EC0180E00E9499075B
:1011F0008C179D0718F4C81BD90B02C0C0E0D0E0C3
:1012000081E0C93ED34008F480E0DF91CF9108959A
:101210008F929F92AF92BF92CF92DF92EF92FF9206
:10122000CF93DF93CDB7DEB728970FB6F894DEBF24
:101230000FBECDBFF82E5B0161157105D1F140E005
:10124000682FCE0105960E94C00741E06F2DCE01A8
:1012500001960E94C0072B813C8140E050E0CF8086
:10126000D884E12CF12C2C193D094E095F09B501F8
:1012700080E090E08D809E80A12CB12C68197909C6
:101280008A099B090E94223E29813A8140E050E070
:10129000281939094A095B090E94743E2C0D3D1D2D
:1012A0004E1D5F1D57FF03C020E030E0A901C901BA
:1012B00002C080E090E028960FB6F894DEBF0FBE23
:1012C000CDBFDF91CF91FF90EF90DF90CF90BF9097
:1012D000AF909F908F9008958F929F92AF92BF9200
:1012E000CF92DF92EF92FF92CF93DF93CDB7DEB72D
:1012F00028970FB6F894DEBF0FBECDBFF82E5B0166
:1013000061157105D1F140E0682FCE0105960E946C
:10131000C00741E06F2DCE0101960E94C0072981D0
:101320003A8140E050E0CD80DE80E12CF12C2C1998
:101330003D094E095F09B50180E090E08F809884F7
:10134000A12CB12C681979098A099B090E94223EB7
:101350002B813C8140E050E0281939094A095B099A
:101360000E94743E2C0D3D1D4E1D5F1D57FF03C096
:1013700020E030E0A901C90102C080E090E0289699
:101380000FB6F894DEBF0FBECDBFDF91CF91FF90B7
:10139000EF90DF90CF90BF90AF909F908F90089587
:1013A0000C94BD0882508B3130F4E82FF0E0E65801
:1013B000FF4F8081089581E00895CF93DF93E82F58
:1013C000F0E0EE0FFF1FE459FE4FC081D1810E9473
:1013D000D209882319F0813029F00AC081E0E3970F
:1013E00040F404C081E0C935D24018F480E001C067
:1013F00081E0DF91CF910895CF93C0E081E28C0F1F
:101400000E94DD09882329F0CF5FC830B9F788E052
:1014100001C08C2FCF9108951F93CF93DF931F921C
:10142000CDB7DEB7182F69830E94D209E12FF0E013
:10143000EE0FFF1FE459FE4F4981682F8081918193
:101440000F90DF91CF911F910C946D162FB7F894E8
:101450006091FE007091FF00809100019091010168
:101460002FBF2DE730E040E050E00E94523EBB2706
:10147000A52F942F832F089520919E0130919F01D5
:101480008091FE009091FF00A0910001B0910101B8
:10149000820F931FA11DB11D8093FE009093FF004A
:1014A000A0930001B09301010895CF93DF93809141
:1014B0005802882309F474C02091560230915702D3
:1014C00024363105E0F4E4EEF1E0CAE0D2E04191E7
:1014D000519188819981AA81BB81840F951FA11D9B
:1014E000B11D89939993A993B99382E0EA30F807E3
:1014F00071F72F5F3F4F3093570220935602209190
:10150000E4013091E5018091120190911301A091C5
:101510001401B0911501820F931FA11DB11D80937D
:10152000120190931301A0931401B093150120911F
:10153000E6013091E70180910E0190910F01A09199
:101540001001B0911101820F931FA11DB11D809355
:101550000E0190930F01A0931001B09311012091FF
:10156000F2013091F30180910A0190910B01A09159
:101570000C01B0910D01820F931FA11DB11D80932D
:101580000A0190930B01A0930C01B0930D0180917F
:1015900016019091170101969093170180931601FF
:1015A000DF91CF91089590E0880F991FFC01E459D5
:1015B000FE4F208131816217730718F4261B370B09
:1015C00004C0AB01421B530B9A01FC01E65EFE4FC7
:1015D0002730310518F01182108206C02081318138
:1015E0002F5F3F4F31832083FC01E459FE4F71830D
:1015F00060830895AF92BF92CF92DF92EF92FF92F5
:101600000F931F93CF93DF931F92CDB7DEB7A090B8
:101610006C01B0906D0180916E0190916F018A15FF
:101620009B0518F4A81AB90A02C0A12CB12CB50167
:1016300084E10E94D30A0EE711E091E2F801619182
:1016400071918F01892F99830E94D30A99819F5F9D
:101650009932A1F70E94FC09F82E80E000E010E02A
:101660008F1569F0E1E2E80FF0E0EE0FFF1FE4599B
:10167000FE4F20813181020F131F8F5FF1CFB80120
:1016800085E10E94D30A0115110581F00A151B0599
:1016900020F49501201B310B03C098012A193B0946
:1016A000293E334018F4580115E102C014E1F12C31
:1016B000B50186E10E94D30A6F2D70E088E10E9497
:1016C000D30A612F70E087E10E94D30A0E94260AA4
:1016D0008C010E947E27882329F0E0907201F0900F
:1016E00073010BC00E941C27882329F0E090700131
:1016F000F090710102C0E12CF12CB70189E10E9448
:10170000D30AB8018BE10E94D30A9701D5010E9448
:10171000013E30E1C32E37E2D32EE12CF12CA7019C
:1017200096010E94523EB9018AE10E94D30A9801B3
:10173000D5010E94013EA70196010E94523EB901C7
:101740008CE10F90DF91CF911F910F91FF90EF905F
:10175000DF90CF90BF90AF900C94D30ABF92CF92FE
:10176000DF92EF92FF920F931F93CF93DF932FB7E8
:10177000F89480915602909157022FBF84369105BC
:10178000C1F580911801909119010196909319016A
:10179000809318010AE012E0CEEBD1E0B12C54E6C0
:1017A000C52ED12CE12CF12CF80161917191819120
:1017B00091918F01A70196010E94523E299339937E
:1017C000B9018B2D0E940809BC018B2D0E94D30A00
:1017D000B394F3E1BF12E8CF0E94FA0ADF91CF91F0
:1017E0001F910F91FF90EF90DF90CF90BF900C94DE
:1017F0004C08DF91CF911F910F91FF90EF90DF90F8
:10180000CF90BF9008954F925F926F927F928F9288
:101810009F92AF92BF92CF92DF92EF92FF920F937F
:101820001F93CF93DF93CDB7DEB728970FB6F89409
:10183000DEBF0FBECDBF0E944307C0900201D09013
:101840000301E0900401F09005016C197D098E09F7
:101850009F09613375478105910508F49BC02FB737
:10186000F8940091160110911701409012015090C8
:101870001301609014017090150160910E01709138
:101880000F01809110019091110180900A019090B8
:101890000B01A0900C01B0900D012FBF6D837E83D2
:1018A0008F8398870E945E0820910801309109017A
:1018B0002F5F3F4F30930901209308016801E12C0D
:1018C000F12C6D817E818F819885A70196010E9400
:1018D000523E29833A834B835C83C301B201A70143
:1018E00096010E94523EB90180E00E9408093C0125
:1018F00069817A8181E00E9408098615970518F4AC
:10190000681A790A02C0612C712C4090A80150908D
:10191000A9016414750420F0B3018EE10E94D30A7A
:10192000B301641975098DE10E94D30AC501B401A0
:10193000A70196010E94523EB90187E00E94080962
:1019400020910601309107019093070180930601D1
:10195000BC01621B730B660F771F8FE10E94D30AD5
:10196000B80180E228960FB6F894DEBF0FBECDBF57
:10197000DF91CF911F910F91FF90EF90DF90CF906B
:10198000BF90AF909F908F907F906F905F904F909F
:101990000C94D30A28960FB6F894DEBF0FBECDBFC5
:1019A000DF91CF911F910F91FF90EF90DF90CF903B
:1019B000BF90AF909F908F907F906F905F904F906F
:1019C00008950E94AE0B0C94030C1092FE0010922E
:1019D000FF0010920001109201010C94B708809151
:1019E0008702089580918502811113C00E94A50786
:1019F000882381F00E94A8072091590230915A0251
:101A0000821B930B9C0181E02530310518F080E0AA
:101A1000089581E008958F5D0C9490070F931F93B4
:101A2000CF93DF9310E0CFEFDFEF00E080918702EC
:101A3000181760F4812F0E940B0D8C179D0710F072
:101A4000CE0101C0012F1F5FEC01F0CF802FDF918D
:101A5000CF911F910F910895CF93DF9390918502BD
:101A6000911104C0DF91CF910C940B0D9091630202
:101A7000C82FD0E0992391F00E940B0DCC0FDD1FF1
:101A8000FE01EC59FD4FCC58DD4F2081318148815A
:101A90005981241B350B280F391F07C0FE01EE0F9B
:101AA000FF1FEC59FD4F20813181C901DF91CF919A
:101AB0000895CF93C82F80918502882341F0C111EA
:101AC00006C00E94A80790935A0280935902C093BF
:101AD00085020E94430760935B0270935C028093CF
:101AE0005D0290935E020E94AE0880918402811193
:101AF00004C08C2FCF910C94C505CF910895EF921F
:101B0000FF920F931F93CF93DF9381E00E941606FD
:101B100088E10E9490078093870204E712E034E690
:101B2000E32E32E0F32EC0E0D0E08091870290E017
:101B3000C817D9076CF48C2F0E940B0DF801819304
:101B400091938F01F701819391937F012196EDCFBE
:101B5000109285021092840280E00E94590D10922A
:101B60005A021092590210925B0210925C0210927B
:101B70005D0210925E02DF91CF911F910F91FF9055
:101B8000EF90089580E00E94590D81E080938402D7
:101B900008950E94C20D80E00C941606FF920F93E8
:101BA0001F93CF93DF93809186020E942C0DEC014E
:101BB000F12C01E010E080918702F816E8F48F2DF7
:101BC0000E942C0DAC0180918502802321F0C41766
:101BD000D50778F40DC02091EF033091F0032F5F0B
:101BE0003F4F369527952C0F3D1F2417350708F4D6
:101BF000102B000FF394DFCF812FDF91CF911F9136
:101C00000F91FF9008951F93CF93DF93EC0110E0A5
:101C100080918702181748F481E2810F0E94B7076C
:101C20008C179D0720F01F5FF3CF81E001C080E09B
:101C3000DF91CF911F910895BF92CF92DF92EF92E3
:101C4000FF920F931F93CF93DF938AE090E00E945F
:101C5000030E882309F460C00E940E0D8093860253
:101C60000E940B0D8C0162E087E992E00E94D51979
:101C70000817190748F174E6E72E72E0F72EE4E73B
:101C8000CE2EE2E0DE2EC0E0D0E0BB24B394809103
:101C9000870290E0C817D907CCF48C2F0E940B0D57
:101CA000F701819391937F01F601819391936F01E5
:101CB000801B910B2091EF033091F0032817390717
:101CC00008F4B12C2196E3CFBB24B39410926302A5
:101CD0000E94430760935F027093600280936102E9
:101CE00090936202BB2059F0DF91CF911F910F9129
:101CF000FF90EF90DF90CF90BF900C94C20D0E94A8
:101D0000CE0DDF91CF911F910F91FF90EF90DF905B
:101D1000CF90BF900C94590DDF91CF911F910F91EF
:101D2000FF90EF90DF90CF90BF900895CF93809178
:101D30006302811119C081E0809363028091860261
:101D40000E940B0DC0E080918702C81768F48C2FA9
:101D50000E940B0DEC2FF0E0EE0FFF1FEC58FD4F33
:101D600091838083CF5FEFCFCF9108950F931F931F
:101D70000E94430700915F0210916002209161026E
:101D800030916202601B710B820B930B28EE33E0E3
:101D900040E050E00E94523EC9011F910F9108950A
:101DA00083E090E00E94030E8823C9F080918502B1
:101DB000811103C00E941C0E12C00E94960E0E9448
:101DC000CE0D90E0809590952091850230E08223A1
:101DD0009323892B81F40E94B60E4F9760F40E94E2
:101DE000F20C882311F082E0089580918402882308
:101DF000D1F381E0089580E00E94590DF0CF1F9348
:101E0000CF93DF93EC0110E080918702181780F4E4
:101E1000812F0E940B0D8C179D0710F081E009C0E7
:101E2000812F0E942C0D8C179D07C0F71F5FECCFF0
:101E300080E0DF91CF911F9108951F93CF93DF939F
:101E4000EC0110E080918702181780F4812F0E9426
:101E50000B0DC817D90710F081E009C0812F0E942F
:101E60002C0DC817D907C0F71F5FECCF80E0DF91BA
:101E7000CF911F91089560918702662329F070E049
:101E80000E943E3ECB01089580E090E008950E94BC
:101E900093120E949C2085E00E9484370E94A62E07
:101EA00088E00E94843781E00C94A9050E94931277
:101EB0000E94AA2086E00E9484370E94A62E88E015
:101EC0000C948437E0918802F09189028591949175
:101ED00010928A02FC010994E0918802F091890233
:101EE000329685919491FC010994E0918802F091D9
:101EF0008902349685919491FC010994CF93DF93E4
:101F00001F92CDB7DEB7811109C00E94AC1F0E949D
:101F10006C0F0E94EA080E94560F0FC0813059F4DE
:101F200069830E94AC1F0E946C0F6981611105C01A
:101F30000E94470F02C081E001C080E00F90DF9156
:101F4000CF9108957F928F929F92AF92BF92CF923E
:101F5000DF92EF92FF920F931F93CF93DF93EC01E9
:101F6000A62E0E94620F0E948E1F0E94FB2E0E94CE
:101F70009312D12C82E0B82EE12CF12CCC24C39406
:101F800092E0992E8824839423E0722E0E94633776
:101F9000811106C0FE01ED0DF11D84910E94E72321
:101FA0000E942112182F883051F40E94F2118111E1
:101FB000A8C080918A02823008F0A3C0A5C0809199
:101FC0008A02813021F4111102C090928A0280911C
:101FD0008A02823008F461C0FE01ED0DF11DE4912A
:101FE000E23051F018F4E130E9F154C0E330A9F1E6
:101FF000E33109F445C04EC0829915C0123019F47E
:102000006FEF7FEF04C0143071F461E070E087E996
:1020100092E00E94291B60919C0270919D0281E0D8
:1020200090E00E94392586994AC0123019F46FEF6A
:102030007FEF05C0143009F042C061E070E087E92D
:1020400092E00E94101B60919A0270919B0241E005
:1020500081E090E00E94622532C0869B58C0829B3E
:1020600056C02DC0123019F46FEF7FEF04C014304A
:1020700031F561E070E087E992E00E94521B1FC0D9
:10208000123019F470928A021AC01430C1F41093FD
:102090008A0215C010928A0212C0143049F4ED2D44
:1020A000F0E03196EC0FFD1FE491E11148C007C04C
:1020B000123029F4DD2019F00E94A721DA94CC20F7
:1020C00081F00E94182FB82E6A2D0E947E0FC82E14
:1020D000882339F00E94A807E816F906A1F5C11077
:1020E00003C0A1103BC0C12C113009F04FCF0E949A
:1020F000F211882309F44ACF0E94AC1F0E946C0F92
:102100002DC010928A0263CF80928A0260CF123073
:1021100041F40AE020E030E048EE5DEF6FEF7FEF42
:1021200009C0143061F60AE020E030E048EE5DEFCF
:1021300061E070E083EC93E00E94392EC0CF0E94F2
:10214000A721D394BCCF0E94A8077C010E94750FE1
:10215000B82E6A2D0E947E0FC82EC1CF8B2DDF9125
:10216000CF911F910F91FF90EF90DF90CF90BF9094
:10217000AF909F908F907F90089560E08BE892E001
:102180000E94031987FD0AC0811102C00C947F349C
:10219000992787FD909501970C940D2A08957894BE
:1021A0000E94EE050E94353B0E9473270E94FA2789
:1021B0000E94D0090E948C3D0E94D73469E272E0EF
:1021C00088E192E00E947F2088EE93E00E944A0717
:1021D00080E00E94BF3A0E94F3158091F503909130
:1021E000F603079710F40C94F82008950E94CF107E
:1021F0000E94BD10FDCF69E372E08BE892E00E947F
:10220000151889E990E090938C0280938B02EFE897
:10221000F2E08081805E80830895FC012481205259
:10222000621710F40C940818862F90E0821B910915
:102230000E949C1A6EE00C94D613CF93DF93EC01AE
:102240000E948B128B819C810E94D3130E948F125B
:102250006A8188819981DF91CF910C946B13FC0185
:1022600087818F3118F48F5F8783089586818F5F10
:1022700086830895FC018781882319F08150878324
:10228000089586818150868308950F931F93CF937D
:10229000DF93FC01C681D0E06D2F80E00E948512A3
:1022A00010E11C0F01E00C0F8C2F0E942414011769
:1022B00011F0C02FF7CFDF5FD23011F0C12FECCF7C
:1022C000DF91CF911F910F9108951F93CF93DF93CB
:1022D000EC0181EF90E00E9448171FEF8E811817E4
:1022E00021F0CE010E9445111E818F81682F70E080
:1022F00094E0759567959A95E1F78F700E94851225
:102300000E942112823049F0843019F0813049F462
:1023100013C0CE010E942F11E1CFCE010E943A11CD
:10232000DDCF8830D9F68D81E881F981E80FF11D84
:102330008F819E81890F8083DF91CF911F910895B6
:10234000FC0171836083428334832383158280E29E
:10235000868317820895CF93DF93EC0181EF90E09D
:102360000E9448170E949312CE010E941D1161E045
:102370008D810E9485120E9421128230B1F084303A
:1023800041F08130C1F481EF90E00E94411780E07C
:1023900026C04D81242F30E08A8190E001972817D4
:1023A00039072CF74F5F4D83E2CF8D818823F9F2F7
:1023B00081508D83DCCF8830D1F682E00E94741288
:1023C000823048F083E00E94843781EF90E00E94E1
:1023D000411781E004C0CE010E946511C3CFDF9197
:1023E000CF9108958091950208950C94C106E091D3
:1023F0009502F0E0EE0FFF1FEB5BFD4F859194918E
:102400000895CF93DF93D82F0E94C106C82F8D1750
:1024100041F082E390E00E9467070E94C106DC2F32
:10242000F5CF109295021092940280939602882321
:1024300019F080E00E94913780919602DF91CF9150
:102440000895FF920F931F93CF93DF93C0E0D0E0E6
:10245000F12C0AEF10E040919502242F30E0F901B1
:10246000EE0FFF1FEF59FD4F65917491C8010E9457
:102470003E3E6F5F7F4FF901EE0FFF1FC617D70774
:10248000A8F40E94C106F82E81E090E00E94670740
:1024900080919602F81641F08F2DDF91CF911F9118
:1024A0000F91FF900C9401122196D5CFFF20A1F03F
:1024B000209194022F5F20939402ED5AFD4F859155
:1024C000949130E02817390738F0463018F44F5F00
:1024D000409395021092940280919602DF91CF91E1
:1024E0001F910F91FF900895CF93DF93D82FC09144
:1024F00096020E942112909195029D1711F08C175F
:10250000C1F3892FDF91CF910895462F682F81EF76
:1025100090E00C940C1760E080E00C94851261E070
:1025200080E00C94851281EF90E00C940517CF9316
:10253000DF93FC01DB018C91882389F0C081D1817C
:102540004883808191810196918380838C91815011
:102550008C93882321F00190F081E02D1082DF918F
:10256000CF910895BF92CF92DF92EF92FF920F9397
:102570001F93CF93DF93EC018B017A014115510535
:1025800001F1CA010E94A23EF8019081B82E98176D
:1025900008F4B92ECB2CD12CA601B70188819981E2
:1025A0000E94AB3E288139812C0D3D1D3983288343
:1025B000F80180818B198083882319F0E881F981E3
:1025C0001082DF91CF911F910F91FF90EF90DF90DC
:1025D000CF90BF900895CF92DF92FF920F931F93F9
:1025E000CF93DF9300D0CDB7DEB76C018B01BA017A
:1025F00080E090E049835A830E94E72DF82ED801AD
:102600008C9149815A818F1570F44FE3B801C6014E
:102610000F900F90DF91CF911F910F91FF90DF905E
:10262000CF900C949712F601208131812F0D311D2E
:1026300031832083D8018C918F198C93882321F0CA
:102640000190F081E02D1082F9012AE030E0FF20B6
:1026500069F0CA01B9010E943E3E405DBAE06B9F3D
:10266000401911244293FA94AB01F1CF0F900F90CF
:10267000DF91CF911F910F91FF90DF90CF90089540
:102680000F931F93CF93DF93CDB7DEB72B970FB682
:10269000F894DEBF0FBECDBF8E010F5F1F4F1A87AC
:1026A000098727E02B87AC01BE01655F7F4FCE0114
:1026B00009960E94EB12B80181EF90E00E94F81792
:1026C0002B960FB6F894DEBF0FBECDBFDF91CF9132
:1026D0001F910F9108950F931F93CF93DF93CDB761
:1026E000DEB761970FB6F894DEBF0FBECDBF00977F
:1026F000D1F0613108F060E1062F10E0A801BC01C3
:10270000CE0101960E94BA3EE1E0F0E0EC0FFD1F21
:10271000E00FF11F1082BE016F5F7F4F81EF90E0ED
:102720000E94F81701C080E061960FB6F894DEBFF2
:102730000FBECDBFDF91CF911F910F9108950F93E1
:102740001F93CF93DF93CDB7DEB761970FB6F894A1
:10275000DEBF0FBECDBF0097D1F0613108F060E160
:10276000062F10E0A801BC01CE0101960E94AB3EED
:10277000E1E0F0E0EC0FFD1FE00FF11F1082BE0161
:102780006F5F7F4F81EF90E00E94F81701C080E0FB
:1027900061960FB6F894DEBF0FBECDBFDF91CF912B
:1027A0001F910F91089560E10C949F13CF92DF92D7
:1027B000EF92FF920F931F93CF93DF93CDB7DEB7C6
:1027C00062970FB6F894DEBF0FBECDBF009719F128
:1027D000613108F060E16C018E010F5F1F4F7801DD
:1027E0008E2D801B861768F4C6016A8B0E94D93E25
:1027F000F70181937F01FFEFCF1ADF0A6A89811108
:10280000EFCFF801E60FF11D1082B80181EF90E0E3
:102810000E94F81701C080E062960FB6F894DEBF00
:102820000FBECDBFDF91CF911F910F91FF90EF9021
:10283000DF90CF900895882319F086E792E002C0D8
:1028400082E792E00C94D313682F81EF90E00C9410
:10285000D717CF93DF93D82FC0E0CD1729F080E2B0
:102860000E942414CF5FF9CF8C2FDF91CF91089570
:1028700080E10C942914CF93DF931F92CDB7DEB77C
:10288000682F64303CF080E269830E9424146981DF
:102890006150F7CF8AE792E00F90DF91CF910C94CF
:1028A0009F136AE00E94323E80E3890F0C94241447
:1028B000DF92EF92FF920F931F93CF93DF93EC0180
:1028C000F62ED42E16160CF089C068EE73E00E9426
:1028D0003E3E8B0180E090E00E94E72D24E0E22E56
:1028E000E80EEF142CF480E20E942414FA94F9CF3D
:1028F000FE14E4F0D1101AC0BE0180E090E00E9406
:10290000E72D182FFA941F1524F480E20E94241456
:10291000F9CFCE010E9440138DE6DF91CF911F9138
:102920000F91FF90EF90DF900C9424142E2D3327FD
:1029300027FD3095245031094F2D552747FD5095DF
:102940004217530754F48F2DDF91CF911F910F91B0
:10295000FF90EF90DF900C943B14C8010E9440134D
:10296000CE0168EE73E00E943E3EEC011F2D1E1961
:1029700093E0F92EF10E84E0810F18161CF48EE21C
:102980000E94241402E0010F1F1444F4CE0164E6F7
:1029900070E00E943E3E862F0E945114CE0164E6F4
:1029A00070E00E943E3EEC011F5F10163CF46AE0AE
:1029B00070E00E943E3E862F0E945114111674F45E
:1029C000CE016AE070E00E943E3EDF91CF911F9100
:1029D0000F91FF90EF90DF900C945114DF91CF9105
:1029E0001F910F91FF90EF90DF900895EF92FF926B
:1029F0000F931F93CF93DF93EC01F62E16160CF076
:102A000059C064E670E00E943E3E8B0180E090E099
:102A10000E94E72D33E0E32EE80EEF142CF480E261
:102A20000E942414FA94F9CF2E2D332727FD3095D8
:102A3000235031094F2D552747FD50954217530715
:102A40004CF48F2DDF91CF911F910F91FF90EF905C
:102A50000C943B14C8010E944013CE0164E670E060
:102A60000E943E3EEC010F2D0E1912E0100F83E084
:102A7000800F18161CF48EE20E942414FF24F39495
:102A8000F00E111644F4CE016AE070E00E943E3E62
:102A9000862F0E9451141F146CF4CE016AE070E07E
:102AA0000E943E3EDF91CF911F910F91FF90EF90DA
:102AB0000C945114DF91CF911F910F91FF90EF90E3
:102AC0000895BF92CF92DF92EF92FF920F931F93E0
:102AD000CF93DF938C01D62EB42EC22E1616ACF5F2
:102AE0002111DA94B80180E090E00E94E72DC82F10
:102AF000D0E0ED2CFF24E7FCF094CE15DF052CF49C
:102B00008B2D0E942414DA94F4CFCC2019F08DE29E
:102B10000E942414EC16FD0664F48D2DDF91CF91F4
:102B20001F910F91FF90EF90DF90CF90BF900C948A
:102B30003B14C801DF91CF911F910F91FF90EF904F
:102B4000DF90CF90BF900C944013DF91CF911F91F5
:102B50000F91FF90EF90DF90CF90BF90089520E00D
:102B60000C946115CF93DF936CE370E00E943E3EBE
:102B70009B01EC0140E363E0C9010E94AF158AE3C9
:102B80000E94241440E362E0CE01DF91CF910C94C7
:102B9000AF1540E20C94AF15292F221F2227221FC8
:102BA00019F091958195910940E20C9461151616E2
:102BB00034F461500E94F61483E40C9424140895B4
:102BC000161634F461500E94C91585E20C94241441
:102BD000089563303CF062500E94C9158FE692E080
:102BE0000C94D3130895FF920F931F93CF93DF9309
:102BF000CDB7DEB728970FB6F894DEBF0FBECDBFB6
:102C00004EE0F42EF9821FE11A8301E10B830C835D
:102C10000D830E830F831887AE014F5F5F4F60E017
:102C200081EF90E00E945017F9821A830B830C8386
:102C30001D831E831F831887AE014F5F5F4F61E0C6
:102C400081EF90E00E945017F9821A831B831C8346
:102C50001D831E831F831887AE014F5F5F4F62E0A5
:102C600081EF90E00E94501728960FB6F894DEBFCF
:102C70000FBECDBFDF91CF911F910F91FF900895AF
:102C80000F931F93CF93DF93062F142F64E670E00A
:102C90000E943E3EEB0180E20E94241480E20E94EA
:102CA0002414C436D10548F480E20E942414CA30AA
:102CB000D10518F480E20E942414CE010E94401332
:102CC000802F0E942414812F0E94241480E2DF911F
:102CD000CF911F910F910C9424140F931F93CF93B6
:102CE000C62F1416BCF56FEF640F0C2F10E00830E0
:102CF000110508F5F801E65DFF4F0C94933E16E5CB
:102D00001BC040E201C048E667E5CF911F910F91DB
:102D10000C944016642FCF911F910F910C94D715EE
:102D200014EF07C00E94CC1585E50FC06EEF640F4D
:102D300011E440E002C015E541E00E945814812FE3
:102D40000E942414C53031F488E6CF911F910F9171
:102D50000C942414CF911F910F910895462F65E094
:102D60000C946D16462F60E00C946D16462F61E0B2
:102D70000C946D16462F66E00C946D16AC9881E0AD
:102D800090E00E94FA3DAC9A81E090E00E94FA3D0A
:102D9000AC9884E690E00C94FA3DA09AA19AA29A8D
:102DA000A39A60FF02C0A89A01C0A89861FF02C060
:102DB000A99A01C0A99862FF02C0AA9A01C0AA9864
:102DC00063FF02C0AB9A01C0AB980C94BE161F9370
:102DD000CF93DF93EC01162F442311F0AD9A01C07D
:102DE000AD98612F70E084E0759567958A95E1F75D
:102DF000CE010E94CD16612FCE01DF91CF911F91A0
:102E00000C94CD1640E00C94E71661E00E94021786
:102E100080ED97E00C94FA3DCF93DF93CDB7DEB70A
:102E200028970FB6F894DEBF0FBECDBF28E0E2E7CB
:102E3000F0E0DE01119601900D922A95E1F7FC0178
:102E40002481421710F04FEF420FFE013196E40F3C
:102E5000F11DE40FF11D2081260F2068622F2896B6
:102E60000FB6F894DEBF0FBECDBFDF91CF910C94AB
:102E70000217FC016181262F246021836C600C9471
:102E80000217FC0161816E7F618368600C940217F8
:102E9000FC016181262F2160218369600C94021757
:102EA000CF92DF92EF92FF920F931F93CF93DF9316
:102EB00000D0CDB7DEB77C01677088E0689FB001B5
:102EC00011246064C70149835A830E940217498113
:102ED000C42E5A81D52E00E010E0F60161916F01F9
:102EE00041E0C7010E94E7160F5F1F4F0830110530
:102EF000A1F70F900F90DF91CF911F910F91FF904D
:102F0000EF90DF90CF900895CF93DF93EC014230A4
:102F100018F08881886088834C831D82222329F0E1
:102F2000413019F488818460888380E593EC0E94A5
:102F3000FA3DAD98AC9863E0CE010E94CD1684E9CD
:102F400091E10E94FA3D63E0CE010E94CD1684E932
:102F500091E10E94FA3D63E0CE010E94CD1686E920
:102F600090E00E94FA3D62E0CE010E94CD16688199
:102F70006062CE010E94021784E08983CE010E9424
:102F80003917CE010E94051782E08A8366E0CE01E0
:102F9000DF91CF910C940217A59AA49AFC0110829C
:102FA00020E041E060E10C9484170C94CC1741E0E0
:102FB0000E94E71681E00895EF92FF920F931F930E
:102FC000CF93DF938C01F42EC62FD72FE42EE60E7D
:102FD000EC1631F0699141E0C8010E94E716F8CF84
:102FE0008F2DDF91CF911F910F91FF90EF9008955A
:102FF0006115710559F0FB0101900020E9F7AF015F
:1030000041505109461B570B0C94DC1780E0089582
:10301000FC0127818085E22FF82FE60FF11DE60FD6
:10302000F11D859194910C94D3130F931F93CF931B
:10303000DF93EC018B01CB010E94A82D682FCE01FC
:103040000E9478188FE990E09983888318870F830E
:10305000DF91CF911F910F910895DF92EF92FF9230
:103060000F931F93CF93DF93EC01F62E69871A8697
:1030700081E08D8382E0D82EEE24E3948E01075FF9
:103080001F4F0E942112482F823011F0843061F4CA
:10309000E881F9810280F381E02D6F2DCE01099541
:1030A000F986DA86ED8204C0813089F0883079F0C3
:1030B000C8010E94BA2E8111ED828D81882319F0FA
:1030C000CE010E94A5188A858F5F8A87DACF8FEF9D
:1030D000898781E08E838D83483009F080E0DF911D
:1030E000CF911F910F91FF90EF90DF900895089579
:1030F000FC0185EA90E091838083128213826483CD
:1031000081E0858386830895FC012281211103C01B
:1031100081E082830895438130E0240F311D848152
:1031200090E001972817390714F44F5F43830895FF
:10313000FC018281882319F0815082830895838164
:10314000882311F08150838308951F93CF93DF93D9
:10315000EC0110E0612F80E00E94851280E20E9465
:103160002414E881F9816B81610F0190F081E02DD9
:10317000CE0109950E9438141F5F123059F76A81F9
:1031800080E00E9485128EE30E9424146A818FE001
:103190000E9485128CE30E9424141D82DF91CF913E
:1031A0001F9108950F931F93CF93DF93EC010E941B
:1031B0002112182F0E946337882321F081E08D832C
:1031C0008FE71CC00B818A81080F123031F0143058
:1031D00039F4CE010E94841803C0CE010E949818D1
:1031E0008B819A81890F081711F081E08D838D8181
:1031F000882319F0CE010E94A518812FDF91CF916D
:103200001F910F910895EF92FF921F93CF93DF9339
:103210001F92CDB7DEB77C0181E0F701858311E015
:10322000C70169830E94D2186981811102C0F70128
:103230001682F7019681911108C0883031F481E03F
:10324000868383819281890F09C0662311F0F7017B
:103250001583813029F79111E3CF8FEF0F90DF9124
:10326000CF911F91FF90EF9008950F931F93CF93ED
:10327000DF93EC018B0150E00E94EB124AE3B801AE
:10328000CE01DF91CF911F910F910C949712EF9285
:10329000FF920F931F93CF93DF9300D01F92CDB770
:1032A000DEB78C01462F0B969A8389838EE08B8341
:1032B000D801EC91F0E0EE0FFF1FEB56FD4FE590CB
:1032C000F490BE016D5F7F4FCE0101960E943519CB
:1032D000A701BE016D5F7F4FCE0101960E94B21221
:1032E00040E2BE016D5F7F4FCE0101960E949712B2
:1032F000F80141815281BE016D5F7F4FCE01019681
:103300000E94EB124FE2BE016D5F7F4FCE0101962E
:103310000E949712D80117964D915C911897BE01A3
:103320006D5F7F4FCE0101960E94EB120F900F90C0
:103330000F90DF91CF911F910F91FF90EF90089523
:10334000CF93DF9300D01F92CDB7DEB7462F2EE08C
:103350002B830B969A838983BE016D5F7F4FCE01CD
:1033600001960E9435190F900F900F90DF91CF9129
:10337000089529E1289FB001299F700D11246E55F1
:103380007F4F49E150E087E992E00C94C93E29E182
:10339000289FB001299F700D11246E557F4F49E180
:1033A00050E087E992E00C94E73EDC01EC91B6E056
:1033B000EB9FF0011124E60FF11DEE0FFF1FE75BFD
:1033C000FC4F859194910895DC01EC9146E0E49FD7
:1033D000F0011124E60FF11DEE0FFF1FE75BFC4F1C
:1033E0008591949117962D913C911897AC01429F2D
:1033F000C001439F900D529F900D11240895FC0130
:10340000A181B2812091E5033091E6030E94013E43
:1034100024E630E040E050E00E94523E293EFDEFBD
:103420003F074105510520F028EE3DEF40E050E018
:10343000C9010895FC012081213029F42091DB038A
:103440003091DC0309C0223029F42091D903309156
:10345000DA0302C020E030E0FC0187819085AC01F6
:10346000249FC001259F900D349F900D1124089535
:103470008091D5039091D6030895FC016081FBE013
:103480006F9FB001112465527D4F4BE050E00C94CA
:10349000993EDC01EC91F0E0EE0FFF1FEB56FD4F83
:1034A000859194910C949F1360E170E00C94491AFB
:1034B000CF93DF93EC01888160E0811108C0CE01D9
:1034C0000E94E41967E00E94B61687E011C0CE01A1
:1034D0000E94E41965E00E94B6168FE20E9424144F
:1034E0008F8198850E94401383E40E94241488E011
:1034F000DF91CF91089566E0FC01838194810E9461
:10350000B21686E0089566E0FC01858196810E94EE
:10351000B21686E00895FC0181819281883EFDEF1C
:103520009F0729F48BE892E00E94D31303C067E061
:103530000E94AE1688E0089529E1AC01249FC001E5
:10354000259F900D112483559F4F08950F931F932E
:10355000CF93DF93CDB7DEB7A6970FB6F894DEBF53
:103560000FBECDBF8C01AB01BC01CE0101960E9404
:103570002D1CCE0101960E94B21C89E1FE013C96F1
:10358000D80101900D928A95E1F7A6960FB6F894AE
:10359000DEBF0FBECDBFDF91CF911F910F91089578
:1035A000FC012081260F2A3040F0161617061CF465
:1035B000FC01108203C029E0FC0120830C943D1A19
:1035C00061E00E94E4199C0140E050E060E871ED88
:1035D00080EF98E00E94523E29358BE13807410583
:1035E000510520F028E53BE140E050E0C901089595
:1035F00061E00E94E4199C0140E050E060E478E75B
:103600008DE791E00E94523E293883E13807410559
:10361000510520F028E833E140E050E0C901089569
:103620000F931F93CF93DF9300D0CDB7DEB78C01FC
:1036300069837A830E94E01AAC0169817A81C801AA
:1036400003960F900F90DF91CF911F910F910C94E3
:103650009E2E0F931F93CF93DF9300D0CDB7DEB78D
:103660008C0169837A830E94F81AAC0169817A819E
:10367000C80105960F900F90DF91CF911F910F9188
:103680000C949E2EDC01EC91BCE0EB9FF001112428
:10369000E55BFC4F659174918CEC9DE80E943E3E89
:1036A000CB010895EF92FF920F93CF93DF9300D059
:1036B000CDB7DEB77C0169837A830E94421BF70194
:1036C000208169817A81211103C022E330E002C0A8
:1036D00020E030E001E0AC01C70107960E94392EDE
:1036E0000F900F90DF91CF910F91FF90EF90089581
:1036F000CF93DF93EC010E94421B2F813885821704
:10370000930710F498878F83CE010E94E01A2B81D3
:103710003C818217930710F49C838B83CE010E9417
:10372000F81A2D813E818217930710F49E838D83B2
:10373000DF91CF9108950F93CF93DF93EC0104E6CF
:1037400020E030E048EE5DEF01960E94392E89813D
:103750009A819C838B832881233039F49C01369590
:103760002795369527953C832B839E838D83CE01A9
:10377000DF91CF910F910C94781B0F931F93CF93F0
:10378000DF934BE050E06DE173E087E992E00E9447
:10379000993E87E992E00E94781BC0E0D0E08E015C
:1037A0000F5F1F4FB80187E992E00E94A019CE0178
:1037B0000E94C7190032110511F0E801F0CFDF9126
:1037C000CF911F910F910895FC01818592850895F5
:1037D000FC0181859285883EF3E09F0719F483E818
:1037E00092E004C00E9440138EE792E00E94D3133F
:1037F00086E008950F9301E020E030E048EE53E0CA
:1038000009960E94392E0F910895262F443019F001
:103810006FEF7FEF02C061E070E0223091F028F49A
:10382000222349F0213051F00895243081F060F0D6
:10383000253081F008950B960C94D01A0B960C94B9
:10384000521B0B960C949B1B0B960C94101B0B9607
:103850000C94291B0B960C94FA1BEF92FF920F937A
:103860001F93CF93DF93EC018B017A0162ED73E03C
:103870000E9415188FEF89878BEA90E099838883DF
:1038800089E1F801DE011B9601900D928A95E1F71E
:10389000FDA2ECA2DF91CF911F910F91FF90EF90CD
:1038A00008950F931F93CF93DF93CDB7DEB728977B
:1038B0000FB6F894DEBF0FBECDBF8C01BC016A5EAF
:1038C0007F4F27EC33E04EE050E0CE0101960E949E
:1038D000A011CE0101960E94AB1181E0F801858311
:1038E00028960FB6F894DEBF0FBECDBFDF91CF9103
:1038F0001F910F910895CF93DF93EC010E949312D3
:103900000E948B1281EC93E00E94D3130E948F12CD
:103910006EE0CE0146960E946B130E94A62E83E0B5
:10392000DF91CF910C948437CF93DF93EC016CA19E
:103930007DA16F5F7F4F0B960E944719CE01DF91EB
:10394000CF910C947B1CCF93DF93EC016CA17DA1F4
:103950006F5F7F4F0B960E94A019CE01DF91CF9130
:103960000C947B1CDF92EF92FF920F931F93CF93E7
:10397000DF93CDB7DEB769970FB6F894DEBF0FBE01
:10398000CDBF8C0189E1D82EC8010B967C0160E087
:10399000C8010E94031987FD30C0873041F088308C
:1039A00051F0863061F4C8010E94941CF0CFC80128
:1039B0000E94511CECCFC8010E94A31CE8CFF70164
:1039C000DE0111969D2D01900D929A95E1F7682FD9
:1039D000C8010E942D18811109C0FE013196D7013E
:1039E0008D2D01900D928A95E1F7D1CF83E00E9451
:1039F0008437C7010E94781BCACF69960FB6F89426
:103A0000DEBF0FBECDBFDF91CF911F910F91FF9011
:103A1000EF90DF9008951F93CF93DF93EC01162F63
:103A20000E940818CE0109960E94AF2E882311F03B
:103A3000298501C02FEF332727FD3095812F90E096
:103A40002817390749F11230C9F048F4112389F0D9
:103A5000113011F5CE010B960E94581A1DC014307A
:103A6000B9F088F01530C1F4CE010B960E94E81B26
:103A700013C0CE010B960E94541A0EC0CE010B96B5
:103A80000E948B1A09C0CE010B960E947B1A04C0BB
:103A9000CE010B960E94831A80E0DF91CF911F9197
:103AA00008950F931F93CF93DF9300D0CDB7DEB768
:103AB00089839A830E948B1289819A810E94D313F1
:103AC0000E948F1200913C0310913D03C8010E9497
:103AD000A23E892B19F0C8010E94D3130F900F90BA
:103AE000DF91CF911F910F910C9438148091D103E5
:103AF0009091D203892BA1F08FE10E94900765E09D
:103B00002AE0AC01249FC001259F900D11240E9442
:103B1000CC158DE60E94241483E40E94241404C072
:103B200081E994E00E94D3130C9438148DE10E9433
:103B3000900765E00E94CC158DE60E94241486E56E
:103B40000E9424140C94381490E0880F991F62E0AE
:103B50008A5D9A4F0C949F130F931F93CF93DF931B
:103B600061E087E992E00E94E4198C0165E087E951
:103B700092E00E94E419EC0186E10E949007801710
:103B80009107B8F4C817D907B0F49C012C1B3D0B62
:103B9000C8018C1B9D0B64E670E00E943E3EC9018B
:103BA0000E943E3E6436710510F063E670E0862F99
:103BB00003C083E601C080E0DF91CF911F910F9198
:103BC0000895613011F40C942C0D0C94A52BCF9317
:103BD000DF93D82FC62F81E28D0F0E94DD09882345
:103BE00051F06C2F8D2F0E94E11D46E06C2FDF916C
:103BF000CF910C946D168FE195E0DF91CF910C94ED
:103C0000D313FF920F931F93CF93DF93182F062F99
:103C10000E948B128091E802882319F01092E8022A
:103C200003C081E08093E8029091E6028091E70270
:103C3000992311F08F5F01C081508093E70280913A
:103C4000E70286301CF01092E60205C082301CF4B8
:103C500081E08093E6021092B1020E94F20C811181
:103C600008C083E090E00E94030E882341F0C0E288
:103C700009C080916302882321F0C2E403C0CDE62D
:103C800001C0C2E680918502811103C08C2F0E9481
:103C9000241480918502882331F1D0E0C1E00E9494
:103CA000EF0CD817D0F480918602D81761F080917C
:103CB00085028C2331F08091E802882321F082E094
:103CC00003C081E001C080E00E942414C03811F0DC
:103CD000CC0F01C0C0E0DF5FE2CF0E94EF0C98E0A4
:103CE000981B892F25C08091E602882319F04EE3A6
:103CF000F42E02C03CE3F32ECD3611F0C032B9F4FD
:103D0000C1E0D0E02091E702332727FD30952C1742
:103D10003D0711F48F2D01C080E20E9424142196EA
:103D2000C730D10579F780E20E94241403C087E0F0
:103D30000E942914D1E0D10F8D2F0E9451148AE3E3
:103D40000E942414602F812F0E94E71D0E943814C6
:103D50000E948F12D830C8F4C2E0C10F8C2F0E948D
:103D600051148AE30E942414602F8D2F0E94E71DB6
:103D7000C83059F083E0810F0E9451148AE30E94F9
:103D80002414602F8C2F0E94E71DDF91CF911F918B
:103D90000F91FF900C9438148BE10E94900768E01B
:103DA0000E94AE1680E20C9424140E948B12209183
:103DB0008A028091C3039091C403223031F466E0FB
:103DC0000E94C91584E195E005C065E00E94C9150F
:103DD00080E195E00E94D31380E20E9424140E94A7
:103DE0008E2B67E00E94B2160E9438140E948F1238
:103DF00087E095E00E94D31367E08091B70390912C
:103E0000B8030E94B6160C9438140F931F93609158
:103E1000F3027091F4028091F5029091F6022091E4
:103E2000B002222371F00E9443070091F302109127
:103E3000F4022091F5023091F602601B710B820BA7
:103E4000930B28EE33E040E050E00E94523EC9015F
:103E50001F910F910895CF930E941C27811110C0CC
:103E60000E947E27882331F00E941C2781110AC0FE
:103E7000C4E40BC00E94F20C811106C0CEE405C060
:103E8000C3E403C0C5E401C0C2E40E940C27811151
:103E9000C7E58C2F0E94241480E20E9424140E9403
:103EA000051F0E94B21580E2CF910C9424140E9449
:103EB0008B1280918A028230F9F40E948427882331
:103EC00059F066E080919C0290919D020E94C91574
:103ED0008BE195E00E94D3130E942227882371F082
:103EE00066E080919A0290919B020E94C91587E139
:103EF00095E00E94D31302C00E94CC1E67E089E1C6
:103F00000E940C0A0E9438140E948F120E942B1FDC
:103F100067E086E10E940C0A0C9438140E94430763
:103F20006093F3027093F4028093F5029093F6028B
:103F30001092EF021092F0021092F1021092F2022F
:103F40001092EB021092EC021092ED021092EE022F
:103F500081E08093B00208950F931F930E9443075E
:103F60000091F3021091F4022091F5023091F602D3
:103F7000601B710B820B930B6093F3027093F4023E
:103F80008093F5029093F6021092B0021F910F9168
:103F90000895CF92DF92EF92FF920E948B128CEFE6
:103FA00094E00E94D3130E94051F0E94B2150E9444
:103FB0008F1289EF94E00E94D3136091EF02709109
:103FC000F0028091F1029091F20258EEC52E53E07A
:103FD000D52EE12CF12CA70196010E94523EC90179
:103FE0000E94B21586EF94E00E94D3136091EB0219
:103FF0007091EC028091ED029091EE02A701960182
:104000000E94523EC901FF90EF90DF90CF900C9438
:10401000B2150E948B128DEE94E00E94D3130E9481
:10402000AF2B68E00E94BA160E9438140E948F12CB
:1040300085E10E94DD09882349F084EE94E00E9426
:10404000D3130E94B52B68E00E94BA160C94381462
:104050000E948B128CED94E00E94D31367E086E0FF
:104060000E940C0A0E9438140E948F1284ED94E082
:104070000E94D31347E061E08091E7039091E80349
:104080000E946D160C9438140E948B128DEC94E0F3
:104090000E94D31367E084E10E940C0A0E94381446
:1040A0000E948F1286EC94E00E94D31367E085E1B2
:1040B0000E940C0A0C9438140E948B1280EC94E03D
:1040C0000E94D3138091D1039091D203892B29F0C0
:1040D00065E087E00E940C0A04C08EEB94E00E9429
:1040E000D3130E9438140E948F1288EB94E00E9430
:1040F000D31365E085E00E940C0A0C9438140F93EA
:104100001F93CF93DF9300D0CDB7DEB78B018983A8
:104110009A830E9493120E948B1289819A810E9435
:10412000D3130E948F12C8010F900F90DF91CF918F
:104130001F910F910C94D31387EA94E00E94511DB4
:104140000E948F1280EA94E00E94D3130E94051F00
:104150000C94B21589E994E00C94511D0E948B12C5
:104160000E94CC1E0E94761D0E948F120E942B1F5F
:104170000C94961D0E948B1288E894E00E94D31341
:1041800067E08EE10E940C0A0E9438140E948F1290
:104190008EE794E00E94D3130C94961D0E948B121C
:1041A00088E794E00E94D3138091D1039091D203C9
:1041B000892B31F00E94AD0769E00E94D71504C039
:1041C00084E794E00E94D3130E9438140E948F1257
:1041D0008AE694E00E94D3130C94761D60E070E0B0
:1041E00086E694E00C947F200E94EE200C94A62E8C
:1041F00060E070E08AE594E00E947F2088E893E127
:104200000C944A0760E070E089E494E00C947F200D
:104210006091EB027091EC028091ED029091EE02C0
:1042200020E63AEE40E050E00E94523EC901089577
:10423000CF93DF938091E5028F5F843018F48093F1
:10424000E50202C01092E5028091E502833061F43C
:10425000C0916D00CF5FC0936D000E940C298C1738
:1042600018F481E080936D0080918A02833051F0D0
:10427000843081F0823019F180916D0081508093FB
:10428000DC021DC08091DC02811102C00E940C2959
:10429000815010C0C091DC02D0E00E940C2990E057
:1042A0000197C817D9071CF01092DC0205C0809155
:1042B000DC028F5F8093DC0282E080938A020E949E
:1042C0008B128091DC0290E061E001960E94C9159A
:1042D00080E00E942414E091DC02F0E0EE0FFF1F6A
:1042E000EC54FD4F808191810E94B21581E00E94C3
:1042F000291482E00E942414E091DC02F0E0EE0F29
:10430000FF1FE254FD4F808191810E94B2150E94EF
:1043100038140E948F12E091DC02F0E0EE0FFF1FD4
:10432000E853FD4F68E0808191810E94AE16E091D4
:10433000DC02F0E0EE0FFF1FEE52FD4F68E08081DF
:1043400091810E94AE16DF91CF910C943814CF93D7
:10435000DF93C0E0DFE061E08D2F8C1B0E948512AF
:104360008FEF0E94241460E08C2F0E9485128FEF43
:104370000E9424148AE090E00E944A07CF5FC03177
:1043800051F78AE090E0DF91CF910C944A07CF93E8
:10439000C82F0E9493120E948B1289E294E00E941F
:1043A000D31362E08C2F90E00E94C91580E49FE156
:1043B000CF910C944A071092E2021092E1021092FF
:1043C000E0021092DF028091E3028093E4021092F7
:1043D000DE021092DD020895CF93DF9328E630E0ED
:1043E0008EEB92E0C4EBD2E0A2EDB2E068EC72E0BA
:1043F00045E05DE2F90151939F01FC011192119298
:10440000CF01199219921D921D92FB0111921192E6
:10441000BF01415079F7DF91CF910895CF930E946A
:10442000DB210E94EC210E948B1264E070E087E99E
:1044300092E00E94491A80918A02823011F48EE340
:1044400001C080E20E94241487E992E00E94581A79
:1044500080918A02823011F48CE301C080E20E94D4
:10446000241480913E030E94A41D0E948F120E947A
:10447000AC1D8093E30262E090E00E94C91586E4DF
:1044800094E00E94D31389EE92E00E94AF2E88231D
:1044900019F0C091E90201C0CFEFC0FF05C065E08F
:1044A00084E10E940C0A03C085E00E94291480E286
:1044B0000E9424148091970284508630A8F4C1FF92
:1044C00005C065E085E10E940C0A03C085E00E94FA
:1044D0002914C2FF05C00E94FC09CF910C9451140D
:1044E00080E2CF910C94241466E080919802909120
:1044F00099020E94AE16CF910C9438140E94AC1D04
:104500008093E3029091E402981728F58093E402E7
:104510000E94051F2091DF023091E002821B930B65
:104520009093E2028093E1020E94051F9093E002C3
:104530008093DF028091E1029091E2022091DD02FE
:104540003091DE022817390710F0232B21F49093C5
:10455000DE028093DD020895CF93DF930E947E22D6
:104560000E94FC09811128C085E10E949007EC019E
:1045700084E10E949007C817D90728F49C012C1BDE
:104580003D0BE90102C0C81BD90BC53FD140A0F0CB
:1045900024E630E08091E402281B31094091DD02DD
:1045A0005091DE02249FC001259F900D349F900DF5
:1045B0001124DF91CF91089529E6EBCFFF920F935D
:1045C0001F93CF93DF930E940C29FF24FA94F80ED7
:1045D0000E940F29833429F50F2D112707FD10950F
:1045E000F801E859FF4F8083000F111FE801C25402
:1045F000DD4F6091EB027091EC028091ED029091A1
:10460000EE0228EE33E040E050E00E94523E398353
:1046100028838BE10E949007F801EE52FD4F9183B1
:1046200080830E940F29843429F5CF2DDD27C7FD13
:10463000D095FE01E859FF4F8083CC0FDD1F8E011E
:104640000C541D4F6091EB027091EC028091ED02D1
:104650009091EE0228EE33E040E050E00E94523E9E
:10466000F801318320838BE10E949007C853DD4F0E
:1046700099838883DF91CF911F910F91FF900895C7
:104680000E94222781112FC00E94842781112BC0F4
:104690000E94F20C8823A1F08091EF029091F00229
:1046A000A091F102B091F20280599F4FAF4FBF4FDE
:1046B0008093EF029093F002A093F102B093F20284
:1046C0000E94DE220E94AC229093B3028093B20239
:1046D0008091E5028F5F893218F48093E502089596
:1046E0001092E50208958091EB029091EC02A09166
:1046F000ED02B091EE0280599F4FAF4FBF4F8093B4
:10470000EB029093EC02A093ED02B093EE02C0CFC7
:1047100081E09091E502953108F080E008950E94D3
:104720007E220E9488238823B9F00E948B120E9467
:10473000CC1E67E089E10E940C0A0E9438140E9496
:104740008F120E942B1F84E494E00E94D3130E94D6
:104750001C2781111CC02FC00E948B1268E08AE1C7
:104760000E940C0A82E494E00E94D31367E089E17E
:104770000E940C0A0E9438140E948F1268E08CE19B
:104780000E940C0A8FE394E00E94D31314C080911E
:10479000E302833680F48091DD029091DE0245973A
:1047A00030F08091B2029091B3020C94B21588E37C
:1047B00094E00C94D3138091E30264E090E00E94B3
:1047C000C91586E394E00E94D3130C943814909199
:1047D000EA029F5F9093EA0290E0FC013197E33197
:1047E000F10570F5EE5CFF4F0C94933E0C94571F4F
:1047F0000C94D51E0C94C91F0C945C2061E007C07A
:1048000061E083E00C94011E61E006C066E080E098
:10481000F9CF66E0F6CF66E086E0F4CF0C940E2286
:104820000C9409200C9444200C9428200C948F2381
:104830000C94BA200C94CE200C94AE200C94182129
:1048400008958FEF8093E90208950F931F93CF93FC
:10485000DF930E944A27C0919A02D0919B0261E0A7
:1048600087E992E00E94E4198C01CE0165E070E0D6
:104870000E943E3E81E10E946C09EC0140E0BC01D7
:10488000C8010E94D92B81E10E94052CCE01DF9145
:10489000CF911F910F910C94302781E00C945C27ED
:1048A0000E943A08882321F00E942B270C94AC2CFC
:1048B00008951092F7020C942524CF93DF930E9461
:1048C00050240E943008EC018091F702811111C040
:1048D00062E087E992E00E94E4198C179D0748F492
:1048E00081E08093F70280919A0290919B020E944E
:1048F00044270E943A08882381F064E087E992E027
:104900000E94E4198C179D0740F481E595E090938F
:104910003D0380933C0381E030C00E94B2070297C0
:1049200058F18091D7039091D803892B89F08DE1BC
:104930000E949007EC0187E992E00E941A1AD19533
:10494000C195D1098C179D071CF48DE495E0DFCF4C
:104950008091D1039091D203892B71F08FE10E9455
:104960009007EC0187E992E00E94381A8C179D07A6
:104970001CF487E495E0CBCF82E0DF91CF910895DE
:104980008130910521F09093F9028093F8027093A1
:10499000FB026093FA0208950F931F93CF93DF9366
:1049A000C091F802D091F902CE010E943B0F8C0118
:1049B0000E943008C817D90738F4C801DF91CF9199
:1049C0001F910F910C941D0F81E0DF91CF911F91EA
:1049D0000F91089581E00E94E7270C94C90D0E9471
:1049E000D9270E947F0D21E08091EB039091EC0389
:1049F000892B09F420E02093FC0282E10C94052C21
:104A00000F931F93CF93DF930E94CC24182F0E9403
:104A10008D27EC010E943A08882311F001E001C0C3
:104A2000012F8091FC02882329F0BE01812F0E9472
:104A30005D2C01C0812F882329F081E00E94E727A7
:104A400081E00CC0002349F0BE01812F0E94792D26
:104A50008C179D0711F00E94C62782E0DF91CF914D
:104A60001F910F910895BC0182E10E946C090C9482
:104A7000782B0F931F93CF93DF938C01EB010E9450
:104A8000C024BE0182E10E946C0940E0BC01C80163
:104A90000E94D92BCE016AE070E00E943E3ECB011D
:104AA000DF91CF911F910F910C94332581E00E94EB
:104AB0005C270C94C90D0E947F0D0E944A2781E15A
:104AC0000C94052C0F931F93CF93DF931F92CDB7B8
:104AD000DEB78C0181E149830E946C094981BC01E8
:104AE000C8010F90DF91CF911F910F910C94D92B9A
:104AF0000F931F93CF93DF93C091B703D091B80367
:104B0000CE010E943B0F8C010E9430088C179D073C
:104B100038F4C801DF91CF911F910F910C94FF0ED3
:104B200081E0DF91CF911F910F9108951F93CF9353
:104B3000DF930E947825182F0E942B27EC01BC01DF
:104B4000812F0E945D2C882329F081E00E945C2740
:104B500081E019C00E943A08811107C0111105C0F7
:104B6000CE010E94962B882369F00E94F20C8111DD
:104B700009C0BE01812F0E94792D8C179D0711F06D
:104B80000E94302782E0DF91CF911F9108950E940B
:104B900056250E94EA240C94C90DCF93DF931F92EF
:104BA000CDB7DEB79091FE02913039F018F0923017
:104BB00039F00FC00E9496250CC00E94002509C044
:104BC0000E94D00E823089F089830E94C725898196
:104BD0000CC0813051F49091FD02992331F082E0B4
:104BE0008093FE020E947F0D82E00F90DF91CF91B3
:104BF00008950E947F0D80910303909104030E9409
:104C00003B0F0E941D0F2091030330910403882362
:104C100069F0609101037091020340E0C9010E94B4
:104C200062250E945B251092FE0208956091FF02AA
:104C300070910003C9010E9439250E94EF2481E090
:104C40008093FC028093FE0208958093FD020895F4
:104C50009093040380930303709302036093010312
:104C6000509300034093FF02089587E08093E90288
:104C700082E08093EA020E947D3783E080930603FE
:104C800008950F931F93CF93DF938091050388239B
:104C900079F00E94FC0990919E0201E0981301C0F6
:104CA00000E011E0811110E0913021F4112311F0A6
:104CB00010E000E085E10E94DD09882309F45CC072
:104CC00085E10E949007EC0184E10E949007C817DB
:104CD000D90728F49C012C1B3D0BE90102C0C81B1D
:104CE000D90BC53FD14008F447C0C1E0011102C053
:104CF00087E001C083E08093E902112329F08091CD
:104D0000E90282508093E902CC2329F08091E902E4
:104D100081508093E902011104C0111102C0CC231B
:104D200031F081E00E948437111107C004C088E08F
:104D30000E94843708C0002331F08091ED039091E8
:104D4000EE03892B11F4D0E001C0D1E00E94F511EF
:104D5000811102C010920603D11106C0C11104C016
:104D60000E94F511883051F080910603823011F4D1
:104D700081E00AC082E008C0C0E0B8CF809106039D
:104D80008F5F80930603F0CFDF91CF911F910F913A
:104D900008958FEF8093E90288E00C948437809324
:104DA0000503089510920D0308950E94430728EE0D
:104DB00033E040E050E00E94523E209309033093DC
:104DC0000A0340930B0350930C0308950E9443077A
:104DD00028EE33E040E050E00E94523E609107032D
:104DE000709108038091090390910A03A0910B032D
:104DF000B0910C03860F971FA11DB11D8217930759
:104E0000A407B50728F081E080930D0382E00895A0
:104E100010920D0381E0089580910D0308952CE315
:104E2000AC01249FC001259F900D1124909308038D
:104E3000809307030C94D52681E090911003911183
:104E400080E0089581E020910E0330910F03232B21
:104E500009F480E0089580910E0390910F03089566
:104E600020916F00223041F02091F7033091F80338
:104E70002817390708F4C90190930F0380930E0394
:104E80000E94BD050C94B708BC0181E10E946C0929
:104E90000C94302780911003882369F010920F033F
:104EA00010920E0380E090E00E94302781E00E9483
:104EB000B105109210030895CF93C82F809110036D
:104EC00081110FC0CC2369F080E090E00E94302770
:104ED00010920F0310920E0380E00E94B105C09360
:104EE0001003CF91089510920F0310920E0380E0EB
:104EF00090E00E94302781E00C945C2781E0909143
:104F00001503911180E0089581E020911303309101
:104F10001403232B09F480E00895809113039091EA
:104F200014030895CF93DF93EC014091CF03509188
:104F3000D003BA01645F714086E193E00E94B32D13
:104F400080911603882311F0C0E0D0E0CE01DF91FC
:104F5000CF910895CF93C82F8091110390911203A0
:104F60000E94922720911303309114038217930714
:104F700011F4CC2349F090931403809313030E94FF
:104F8000C105CF910C94B708CF91089520916F007F
:104F9000223041F02091F9033091FA0328173907A4
:104FA00008F4C901909312038093110381E00C94DB
:104FB000AA2780911503882349F080E090E00E94A1
:104FC000C62781E00E94B705109215030895CF937C
:104FD000C82F8091150381110BC0CC2349F080E0CC
:104FE00090E00E94C62780E00E94B705C093150399
:104FF000CF91089580E090E00E94C62781E00C9454
:10500000E72780911503811102C00C94AA27089507
:1050100080919702893051F09CEF980F963048F0BC
:105020008150823048F489E293E0089580E293E071
:10503000089582E393E0089587E193E0089581E77E
:1050400095E0909389028093880290919702945002
:1050500081E0963008F080E00E94CF2661E084E392
:1050600096E00E94A20F91E0813009F090E0892F34
:1050700008950F931F93CF93DF930E9425260091ED
:105080009C0210919D02C0919A02D0919B0263E014
:1050900087E992E00E94E419A801BE010E94282637
:1050A0008BE695E0909389028093880260E08BE321
:1050B00096E0DF91CF911F910F910C94A20F1F9357
:1050C000CF93DF93162FC0919A02D0919B0261E09B
:1050D00087E992E00E94E41940E0BE010E94622547
:1050E00085E695E09093890280938802612F80E69F
:1050F00096E0DF91CF911F910C94A20F1F93CF9355
:10510000DF93182FC0919A02D0919B0261E087E94A
:1051100092E00E94E41941E0BE010E94622525E66A
:1051200035E03093890220938802612F80E696E073
:10513000DF91CF911F910C94A20F29E535E03093B8
:10514000890220938802682F8BE796E00C94A20FC7
:10515000CF93C82F62E087E992E00E94E419609142
:105160009C0270919D02A0919E02B0919F02E091DD
:10517000E903F091EA03AE9F9001AF9F300DBE9F0F
:10518000300D1124820F931F0E9439252FE535E041
:1051900030938902209388026C2F89E496E0CF91A6
:1051A0000C94A20F1F93CF93DF93182FC0919C02F2
:1051B000D0919D0262E087E992E00E94E419BE016D
:1051C0000E9439252FE535E030938902209388022B
:1051D000612F80E796E0DF91CF911F910C94A20F91
:1051E00082E192E0909389028093880260E089E5F1
:1051F00096E00C94A20F8091DF039091E0030E944F
:105200000F2787E795E0909389028093880261E0F9
:1052100089E496E00C94A20F80913B03089580915D
:105220006E000895813019F481E00C94A828811152
:1052300003C081E00C94D2288230B1F380E008955D
:1052400040913B0350E02091DD033091DE03421793
:10525000530789F0813041F42091ED033091EE0342
:10526000232BD9F0862F10C0811102C0862F10C0C9
:105270008230C9F412C0813049F48091ED039091DD
:10528000EE03892B49F080E00C947E28811102C046
:105290000C949D28823039F460E08091E303909172
:1052A000E4030C945F2880E008950F931F93CF933D
:1052B000DF93C82F81E080933B0314E4D7E503E438
:1052C00040913B0350E02091DD033091DE03241731
:1052D0003507E8F10E94E50C10936E008C2F0E94B8
:1052E00012298130A9F5D0936E000E94FB288130ED
:1052F00079F50E94DB210E94E50C00936E0040913D
:105300003B0350E02091DD033091DE034217530749
:1053100011F061E001C060E08C2F0E9420298130F3
:10532000B9F4D0936E0040913B0350E02091DD032F
:105330003091DE034217530721F00E94FB28813091
:1053400039F480913B038F5F80933B03B9CF81E0B9
:10535000DF91CF911F910F910895CF93C82F809324
:105360003E032DE735E030933D0320933C038F301F
:1053700030F4E82FF0E0E155FF4F808101C080E07C
:1053800080936F000E9486380E94DB080E941F28CD
:105390008823F1F184E00E9484378C2F90E08F30D5
:1053A0009105A0F5FC01EB5BFF4F0C94933E60E090
:1053B0008091E3039091E4030AC00E94F02828C082
:1053C00080E00E94A82824C060E085E090E00E9470
:1053D0005F281EC060E080E002C060E081E00E94C3
:1053E000392816C080E00E949D2812C080E00E94EB
:1053F000D2280EC081E003C080E001C082E00E949C
:10540000552906C080E00E947E2802C00E94F42038
:105410000E94EA08CF910C9496380F931F93CF9374
:10542000DF93EC010E94B9190E9408288C0160E00A
:10543000C8010E94031987FD29C090919702E82FA7
:10544000FF27E7FDF095993019F4E356FA4F0FC0A6
:105450008CEF890F863018F4EC54FA4F08C0915045
:10546000923018F4E157FA4F02C0E258FA4F849193
:105470008F3049F4BE0187E992E00E94A61ACE015E
:105480000E94C719D1CF0E94AD29D1CFDF91CF9112
:105490001F910F9108956DEB75E082E393E00E94F8
:1054A000151863E975E089E293E00E94151864EA33
:1054B00075E080E293E00E94151863E875E087E1EB
:1054C00093E00C941518FC0142815381411551055C
:1054D00091F0A081B181B7FF03C0B195A195B10949
:1054E00028EE33E00E94103E9A0140E050E00E9416
:1054F000523EC901089580E090E008950F931F93F4
:10550000CF93DF9300D000D0CDB7DEB78C01862FCC
:10551000F801628173810E9408099C838B83F801E2
:10552000808191819A838983CE0101960E94632AAA
:105530000F900F900F900F90DF91CF911F910F91CF
:1055400008950F93FC01CB01002341F04617570744
:1055500008F4CA016417750748F407C06417750793
:1055600008F4CA014617570708F4BA0197838683DF
:10557000918380831382128215821482338722875B
:10558000681B790B718760870F910895FC019B015F
:1055900040E050E086819781281B390B4109510971
:1055A000A285B3850E94173E20853185442737FDAB
:1055B0004095542F0E94743E2115310581E0480723
:1055C000510524F457FD05C0C90108958FEF9FEFE1
:1055D000089580E090E00895DF92EF92FF920F939C
:1055E0001F93CF93DF93EC012A813B81241735076A
:1055F00020F4FA01E21BF30B03C0F901E41BF50BE5
:105600008C819D81969587958E179F0770F588816F
:1056100099818617970720F4FB01E81BF90B03C05B
:10562000FC01E61BF70BEF2B01F12417350738F4CB
:105630008A01021B130B7B01E81AF90A06C07C01E0
:10564000E61AF70A8901041B150BC7010E94E12D18
:10565000D82E888599850E94E12DD81206C01D8319
:105660000C83F986E8861B870A87DF91CF911F910B
:105670000F91FF90EF90DF9008950F931F93CF93BA
:10568000DF93EC018B019A01A885B9850E94103E39
:105690002A853B8540E050E00E94743EC801A0E0AE
:1056A000B0E082179307A407B5071CF41F821E827F
:1056B00004C0021B130B1F830E83DF91CF911F9138
:1056C0000F910895EF92FF920F931F93CF93DF9363
:1056D000EC018B017A010E94EC2AA701B801CE01EE
:1056E000DF91CF911F910F91FF90EF900C943D2B84
:1056F0008233910510F482E390E09093BE0380938F
:10570000BD03089580914103813029F48091BD0348
:105710009091BE03089580E090E008956091B903F0
:105720007091BA03809143030C94080920914603B9
:10573000213041F041E02091BD033091BE0382173A
:10574000930708F040E0842F08952CE0829FC00169
:10575000112460914303815B9C4F0C947E2A6091DD
:1057600043038FEA93E00C947E2ACF93DF9300D01B
:1057700000D0CDB7DEB784E10E9490079A83898379
:1057800085E10E94900729813A81281B390B3A83D1
:10579000298389E10E9490079C838B83CE01019627
:1057A0000E94632A0F900F900F900F90DF91CF917E
:1057B00008959B018130910531F09093B803809357
:1057C000B703409342033093BA032093B903609127
:1057D000E3037091E403C9010E943E3E7093BE034F
:1057E0006093BD032233310530F482E390E090935F
:1057F000BA038093B9036233710530F482E390E019
:105800009093BE038093BD030895EF92FF920F9390
:105810001F93CF93DF9391E090934103FF24F39480
:10582000813109F0F12C8093430360EA70E00E941B
:105830006C099093BC038093BB030E9430082091B5
:10584000BD033091BE034091B7035091B8030F2DB3
:10585000BC0187EA93E00E94A12A0E94EF0C80938A
:1058600044038091B7039091B8030E943B0FEC0171
:1058700010E08CE0E82E80914403181798F4812FF3
:105880000E942C0DBC012091BD033091BE03E19E0E
:10589000C00111240F2DAE01895B9C4F0E94A12AEB
:1058A0001F5FE9CF1092460310924503DF91CF911D
:1058B0001F910F91FF90EF9008950F931F93CF9337
:1058C000DF93082FEB01809142038823C9F04091B8
:1058D000BB035091BC032091BD033091BE0324173C
:1058E000350708F49A012C173D0710F41092840232
:1058F00080914603813021F00E94D00E80934103B5
:1059000080914103813011F580914603823041F44A
:1059100011E02091BD033091BE03C217D30708F0F8
:1059200010E00E94822B8C179D0770F0111102C0AD
:10593000002351F09091450381E0890F8093450346
:1059400081E09A3020F402C01092450380E0DF919C
:10595000CF911F910F9108950F931F93CF93DF93D2
:10596000EC010E943008AE01BC0187EA93E00E947E
:10597000622B10E00CE080914403181770F4812F23
:105980000E942C0DBC01019FC0011124AE01895B56
:105990009C4F0E94622B1F5FEECFDF91CF911F9132
:1059A0000F910895CF92DF92EF92FF920F931F9382
:1059B000CF93DF936091B7037091B80387EA93E0C8
:1059C0000E94C62A8C018091B7039091B8030E946F
:1059D0003B0F7C01D12C9CE0C92E80914403D8164A
:1059E00098F4CD9CE0011124C95BDC4FB701CE01D6
:1059F0000E94C62A0817190728F0B701CE010E9495
:105A0000C62A8C01D394E9CFC801DF91CF911F91B1
:105A10000F91FF90EF90DF90CF9008950F931F9319
:105A2000CF93DF93EB018093B5039093B60320915E
:105A3000B9033091BA038C012817390708F489019A
:105A40000E94822B8017910708F4C801C817D90754
:105A500011F1209146032230A9F48C179D0790F094
:105A60002091BD033091BE032C173D07A0F040915B
:105A7000B3035091B4032091590230915A02421756
:105A8000530749F02091590230915A023093B403E0
:105A90002093B30301C0CE01DF91CF911F910F91ED
:105AA00008950F931F93CF93DF93EC010E9430086A
:105AB0009093A8038093A703D093AA03C093A9034C
:105AC00010E00CE080914403181770F4812F0E94BD
:105AD0002C0D019FF0011124E95BFC4F9183808321
