:100000000C947F060C94A7060C94A7060C94A706E4
:100010000C94EC080C94A7060C94A7060C94A70665
:100020000C94A7060C941C090C94A7060C94A70624
:100030000C94A7060C94AB090C94E0090C94A70649
:100040000C94C8080C94A7060C94A7060C94A70659
:100050000C94A7063F134B134F1352135413591309
:10006000561352133F13CD34CF34D134D534D53455
:10007000D334D934D7340000000080C64E5A000073
:1000800000007C6B0831000133000028D00780019C
:1000900033004023E80300000000C0AE4E5AFC537A
:1000A00050143FA0540B0000000000BBC436801861
:1000B0006009DC377017000000000000000000003D
:1000C000000044C4FA0E0000000000C4FB0E000053
:1000D000000068C4FD0E00000000AAC5160F000055
:1000E000000040C6190F0000000040C72D0FB000EF
:1000F00032006E0BE8034F01320066072C01FF004F
:1001000000000A00050400000004090000FF0101CE
:10011000000A040505000004040A0000FF020200B2
:1001200000020506000002040B0000FF03030000AC
:10013000060507000006040C0000FF0000000A018D
:100140000511020001040D0000FF0101000A050570
:1001500011040005040E00000305110100FF020256
:10016000000007051108006B0100006F7074696FD3
:100170006E730046000300881370170100320032CE
:100180000010270000000003000000000080250090
:1001900000004B00000096000000E1000000C201DA
:1001A0000001000100010001000100B00408075235
:1001B0000300005203B0040807E8030000E803D07E
:1001C000079209D60600006C07E40C100ED007E475
:1001D0000CB80B100E0410C409A60EAC0D740E68FA
:1001E00010B80B0A0F890C740ECC10B80B0A0F89CB
:1001F0000C740EFE10B80B0A0F890C40066C071425
:1002000005400678050100A00FD00701000100019C
:1002100000A00F0100010001000400000102020221
:100220000202030405BD0BB30BAE0BA90BA40B9F7D
:100230000B9A0B950B900B8B0BB80B870BE7182CBD
:1002400019161A6E1A791A841A951B911BC51B7EF2
:100250001C101D8A1C191D161D201D471D4E1D71C9
:100260001D0920D91FDF1F4C22791A4E2205072BAA
:1002700009020044005E020100000010272609FF69
:100280007F4900A8020000000000005B090400494B
:10029000002A04010000000100000000000000002E
:1002A000000000000000002B09020044006202016F
:1002B00000000010272609FF7F4900AC0200000063
:1002C0000000005B09040049002A0401000000014D
:1002D000000000000000000000000000000000001E
:1002E000011F090200410054020100000078691753
:1002F000090200410056020100000078695B090410
:100300000049002A04010000000100000000000074
:100310000000000000000000009009820041006021
:10032000020100000030758B098200410092020139
:100330000000008813860982004100940201000039
:1003400000881381098200410096020100000088A4
:10035000137C098200410098020100000088137795
:1003600009820041009A020100000088137209828C
:100370000041009C020100000088136C09FF7F41CE
:10038000007A020000000000006609FF7F4100784B
:10039000020000000000005B09040049002A04017B
:1003A000000000010000000000000000000000004C
:1003B00000000006090A0B0C0D0E061F2021222347
:1003C000243909310900006400E8036400E80348A7
:1003D000094109000055094E090000D109C809BCAE
:1003E00009B009A40995090000DA0BD00BC20B0073
:1003F00000B60AFF7F02006B05010000000B00B38E
:100400000A0F000300C031FE7F942A00009D0A1FDE
:100410000045005303FF7F6400F47E990A3F0040CB
:10042000005703FF7F010010278E0A1F004000596C
:1004300003FF7F01008813400A3F004C006303FF65
:100440007F0000E803AF0A0E8041005B030100005B
:10045000008813AF0A100041005B033200000078EF
:1004600069A20A018041005B030100B004D007A229
:100470000A200041005B03FF7F01007869AB0A049A
:100480008041006F03010000008813A70A0F80411C
:10049000005D03010000008813A70A100041005D01
:1004A00003320000007869920A1E8040005F03FF5B
:1004B0007F01001027870A1F8040006103FF7F0132
:1004C0000088137D0A0C804800710301000300C8F6
:1004D00000740A01004D006F030100000001006F6D
:1004E0000A0002480071030100ECFF0000630A00EB
:1004F000024B007303010001000A005A0A1F004D5D
:10050000006503010000000100520A00044A06755C
:10051000030A000A008403460A00014403670364D7
:10052000005802AC26360A1F0047006D0301000187
:1005300000FA002A0A0300490077030100000005C1
:1005400000200A1F804B006B0301000100630015AF
:100550000A1F804D00690301000000010000000037
:100560000000000000000000000000250251034EC2
:100570000C3F0C370C2D0C210C190C0A0CFF0BF046
:100580000BE30B000900030407080900030708092F
:10059000000102030407080900010203040506071D
:1005A0000809097C0BFF7F49003703010000006444
:1005B00000740BFF7F020081060100000004006947
:1005C0000B010044003B0364005802AC265E0BFFA5
:1005D0007F44033D0364005802AC26580BFF7F4D57
:1005E000003F03010000000100500BFF7F4000416D
:1005F0000301000100F401480BFF7F4000430301A9
:10060000000100F4013C0BFF7F41034503E8035860
:100610001B3075310BFF7F4D0047030100000001C7
:10062000002B0BFF7F020073060100000004002373
:100630000B020001006F060100000004001C0BFF0C
:100640007F02006706010000000100160BFF7F001B
:10065000000000000000000000000000000000009A
:10066000000000000000006B064F03C80ABF0A8D9F
:10067000014B03770649030D0B060B000BF70AEE3F
:100680000A850639030D0BE70ADF0AD70ACF0A20CD
:10069000202D2D202000636865616C692D636861E1
:1006A000726765720A76312E39395F3230313530F2
:1006B0003831350063616C69626174696F6E206501
:1006C00072726F7200706C656173652063616C6932
:1006D000627261746500656570726F6D207265731A
:1006E00065740A6572726F723A2000726573657480
:1006F00074696E6720656570726F6D002020202020
:1007000020202020202020207965730065657072EC
:100710006F6D2072657365743A00524556455253A9
:100720004520504F4C4152495459006572726F72C6
:100730003A2020202000636F6D706C6574653A204C
:1007400000043200000040000000003B3300400085
:100750000000000040BB2FFFFFFF7F04000040119E
:1007600031FFFFFF7F04000040FF2FFFFFFF7F04EA
:10077000000000CB300002000008000040D930002B
:1007800002000008000040EF3000020000000000FE
:10079000404E2D0000006000000000522D000000BF
:1007A0006000000000562D00000020040000405AA8
:1007B0002D00000020040000408630FFFFFF7F0472
:1007C0000000404630FFFFFF7F00000040A630FFE2
:1007D000FFFF7F0000000082328001000000000067
:1007E000406831FFFFFF7F000000000000FFFFFFB7
:1007F0007F00000000250064656C746120543D207A
:10080000004E2F4100546578743D0064656C74613E
:1008100020563D20006D6178566F75743D00546917
:100820006E743D002D00546578743D00206C696D38
:1008300069743D0056696E7075743D007769726524
:100840007320523D00626174742E20523D0062207C
:10085000004C696D6974733A20006E6F2064542FE8
:100860007400150A0F004D0069030100000001002B
:10087000AF0A0E0041005B030A0000008813A70ABC
:100880000F0041005D030A00000088130000000013
:100890000000000000000000000025200043684325
:1008A00042426C44694643537453424359434300A4
:1008B00001010308141E0101FA7D3C1E0A01E80330
:1008C00001F00CE80300EE0C640000EC0C64000086
:1008D000E90C640000E70CE80301E40CE80301E222
:1008E0000C010000E00CE80301EE0C010000D90C43
:1008F000640000DC0C010000DA0C010000DA0C01DD
:1009000000000000010000D70C141719181A070581
:10091000061F2021222324566D696E75733A0056F6
:10092000706C75733A006164633A0074656D703A77
:1009300000496F75743A20200076616C75653A2025
:1009400000313030306D41003130306D4100313098
:1009500030306D41003130306D410063616C69624F
:100960002E20702E3A00566F75743A0056312D368F
:100970003A005662363A005662353A005662343AC8
:10098000005662333A005662323A005662313A00FB
:1009900056696E3A006578706572742044414E471E
:1009A0004552210074656D7020696E7465726E0029
:1009B00074656D702065787465726E004920646995
:1009C0007363686172676500492063686172676577
:1009D00000766F6C746167650062616C616E63655F
:1009E00020706F72742100626174746572792100E5
:1009F000646973636F6E6E65637400636F6E6E65BA
:100A000063740064542F6474002D64560056206C87
:100A1000696D6974006164617074206469733A007F
:100A2000442F4320726573743A00442F4320637946
:100A3000636C65733A0063617020434F66663A00E9
:100A400074696D653A007C657874726E2054434F0A
:100A50003A007C64542F64743A00657874726E2096
:100A6000543A007C69676E7220667273743A007C37
:100A700064563A00656E61622064563A0062616CA9
:100A80002E206572723A006D696E49643A004964BD
:100A90003A006D696E49633A0049633A00436170F8
:100AA0003A0056636F3A0056643A0056733A00565D
:100AB000633A00563A00626174746572793A006173
:100AC0006476616E6365640073696D706C65005473
:100AD0002D70726F67720054656D70657261007081
:100AE000726F6772616D00616C7761797300657810
:100AF000742E20416463006578742E206465620062
:100B00006465627567006E6F726D616C0064697315
:100B100061626C6564007265736574006D656E7505
:100B2000733A007C73706565643A00554152543ADB
:100B300000616463206E6F6973653A00696E707559
:100B400074206C6F773A20006D696E2049643A001A
:100B50006D696E2049633A00626565703A006469A8
:100B6000736368206F66663A007C66616E2054206D
:100B70006F6E3A0066616E206F6E3A006261636B61
:100B80006C696768743A004C4544004E695A6E00BF
:100B90004C343335004C343330004C69706F004CAA
:100BA000696C6F004C6966650050622020004E69D8
:100BB0004D48004E69436400556E6B6E004E6F6E7B
:100BC000650072657365742064656661756C740098
:100BD00063616C6962726174650073657474696ED7
:100BE000677300656469742062617474657279006A
:100BF000636170616369747920636865636B004445
:100C00003E4320666F726D61740073746F7261672A
:100C1000652B62616C616E630073746F72616765EE
:100C2000006661737420636861726765006469734C
:100C30006368617267650062616C616E6365006321
:100C400068617267652B62616C616E6365006368E1
:100C500061726765006578742E74656D702E6375BA
:100C6000746F66660074696D65206C696D697400E7
:100C70006361706163697479206375746F6666007F
:100C8000696E707574205620746F206C6F77004801
:100C900057206661696C7572650062616C616E6394
:100CA000657220646973632E00696E742E74656DBD
:100CB000702E6375746F6666006261747465727914
:100CC00020646973632E006E6F6C696D6974002017
:100CD0006E6F00796573005500006D00432F6D0045
:100CE0002500F40041680043005768005700560093
:100CF00041006107170BC711DC2B352F8A311124F6
:100D00001FBECFE5D8E0DEBFCDBF10E0A0E6B0E06B
:100D1000E6E6F9E702C005900D92A23BB107D9F7CC
:100D200014E0A2EBB0E001C01D92A33CB107E1F7D3
:100D30001CE0CEEFDCE004C02297FE010E94563C8E
:100D4000C23FD107C9F70E94C0110C94B13C0C946A
:100D5000000020E042E060E183EB90E00E948239F5
:100D60000E949F090C946507CF92DF92EF92FF9249
:100D7000482F282F30E0A0E0BDE70E94C23B6B0166
:100D80007C01A4E6B0E0A41BB10924E630E00E9497
:100D9000D13B6C0D7D1D8E1D9F1D24E630E040E093
:100DA00050E00E94133CB9018DE0FF90EF90DF907E
:100DB000CF900C948909882311F0909A0895909807
:100DC00008958091B900882331F08091B2008F5F3F
:100DD0008093B20002C01092B2008091B9008A30B4
:100DE00010F480E001C084E09091B900943108F0E3
:100DF00082E09091B9009E3108F081E09091B200BC
:100E0000982311F0979A0895979808958093B900C0
:100E10000895811102C0969A0895969808958111B7
:100E200002C0929A089592980895811106C0939AEB
:100E30000E94090780E00C940F0793980895BC0165
:100E40008EE00C948909BC018EE00C94890980FF26
:100E500002C0C09A01C0C09881FF02C0C19A01C0FF
:100E6000C19882FF02C0C29A01C0C29883FF02C02B
:100E7000C39A01C0C39884FF02C0DE9A01C0DE9805
:100E800085FF02C0DF9A0895DF98089580E00E94F0
:100E9000150780E00E94DB061092B90080E00E94F6
:100EA00027078C9A8B9A889A8F9AB89AB99ABA9A85
:100EB000BB9AD69AD79A8D9A8E9A8D9A8A9A0895C5
:100EC000089583EB90E00C94D739D598D498DD98A9
:100ED000DC98BF9ABE9ABD9A8EEA86B9369A089572
:100EE00034B145B1E091C500E13131F12FB7F8944B
:100EF000832F90E0942BF0E0DF01AA0FBB1FA054DA
:100F0000BD4F11969C938E933091BD00332391F089
:100F1000EE0FFF1FEE0FFF1FEE51FD4F408151817D
:100F200062817381480F591F611D711D4083518378
:100F3000628373832FBF08952091C6003091BA0059
:100F400047FD02C0232B02C0209523232093BA0023
:100F500008950E94BB229093DF028093DE020E94DC
:100F6000F31B9093E1028093E0028091BD008823FF
:100F700009F481C00E94BB2240911E0350911F03BF
:100F80006091200370912103480F591F611D711D4D
:100F900040931E0350931F0360932003709321031B
:100FA0000E94F31B4091220350912303609124037C
:100FB00070912503480F591F611D711D4093220335
:100FC0005093230360932403709325038091260399
:100FD00090912703019709F04CC08091EA0290910B
:100FE000EB02A091EC02B091ED02B695A795979512
:100FF00087958093EA029093EB02A093EC02B09362
:10100000ED028091E2029091E302A091E402B0919E
:10101000E502B695A795979587958093E202909300
:10102000E302A093E402B093E5028091E60290917E
:10103000E702A091E802B091E902B695A7959795CD
:1010400087958093E6029093E702A093E802B0931D
:10105000E9028091EE029091EF02A091F002B0912E
:10106000F1028093EE029093EF02A093F002B0930E
:10107000F1020C947E0E08958091470390914803ED
:10108000892BE9F04091C2004423C9F081E090E04F
:101090000090BF0002C0880F991F0A94E2F72091C8
:1010A0002603309127032F703FB7F8945BB39BB3AF
:1010B000982B9BBB240F2A95F1F75BBB3FBF08958C
:1010C0008091BC008F5F853108F080E08093BC0088
:1010D00085E0EEEBF0E0A3ECB0E001900D928A9594
:1010E000E1F76091BC006F5F653108F060E085E07A
:1010F000689FB001112462507F4F45E050E08EEBB5
:1011000090E00E945A3C8091BC0081110CC00E946A
:10111000A907809126039091270321E0892B09F4E8
:1011200020E02093BD0008950E9470078091BB00CD
:1011300091E0980F9093BB008730D9F018F4882382
:1011400031F008958830B9F08930D1F00895809158
:10115000BE0087FD19C03FB7F89428B38091BE0048
:1011600040E2849FC00111242F71282B28BB3FBF70
:1011700008950C943C088091BF00806287B908955F
:101180001092BB000C94600808958091BA000895F5
:101190001F920F920FB60F9211242F933F934F93EC
:1011A0005F936F937F938F939F93AF93BF93EF93CF
:1011B000FF930E949408FF91EF91BF91AF919F918F
:1011C0008F917F916F915F914F913F912F910F90F0
:1011D0000FBE0F901F9018951F920F920FB60F928F
:1011E00011242F933F934F935F936F937F938F932C
:1011F0009F93AF93BF93EF93FF930E940B35FF91A3
:10120000EF91BF91AF919F918F917F916F915F917E
:101210004F913F912F910F900FBE0F901F901895F7
:1012200088E085BD85B5846085BD14BC8CE783BD31
:1012300089B7806889BF08951F920F920FB60F92E9
:1012400011242F933F934F935F936F937F938F93CB
:101250009F93AF93BF93EF93FF932091CE00309174
:10126000CF008091CA009091CB00820F931F909382
:10127000CB008093CA002091CC003091CD008091AA
:10128000C8009091C900820F931F9093C90080936A
:10129000C8002FB7F8948091CA009091CB0035E038
:1012A000969587953A95E1F79BBD8ABD8091C800D8
:1012B0009091C90045E0969587954A95E1F799BDCB
:1012C00088BD2FBF8091CA009091CB008F71992764
:1012D0009093CB008093CA008091C8009091C90080
:1012E0008F7199279093C9008093C8000E94E106EE
:1012F000FF91EF91BF91AF919F918F917F916F91EE
:101300005F914F913F912F910F900FBE0F901F90C3
:1013100018959FB7F8948E3039F47093CF0060938E
:10132000CE008FB5806808C08D3039F47093CD0041
:101330006093CC008FB580628FBD9FBF089580E021
:1013400094E097BD86BD82E08FBD89E18EBD89B7EF
:10135000846089BF08951F920F920FB60F921124D7
:101360002F933F934F938F939F93EF93FF935A99AC
:101370001AC04CB18091E6019091E701019699273E
:101380002091E8013091E9018217930769F0E0911B
:10139000E601F091E701EA51FF4F40839093E701A6
:1013A0008093E60101C08CB1FF91EF919F918F91E5
:1013B0004F913F912F910F900FBE0F901F90189556
:1013C0001F920F920FB60F9211242F933F938F937A
:1013D0009F93EF93FF932091E6013091E701809175
:1013E000E8019091E9012817390711F4559812C0C6
:1013F000E091E801F091E901EA51FF4F20818091ED
:10140000E8019091E901019699279093E901809371
:10141000E8012CB9FF91EF919F918F913F912F910E
:101420000F900FBE0F901F901895CF92DF92EF9202
:10143000FF92CF93DF93EC016A017B01411581EEAE
:10144000580761057105F9F0E885F98581E090E0BC
:101450000C8802C0880F991F0A94E2F7808360E02D
:1014600079E08DE390E0A70196010E94133C2150A2
:101470003109410951095695479537952795211509
:1014800080E1380798F0E885F985108260E874E813
:101490008EE190E0A70196010E94133C2150310992
:1014A000410951095695479537952795EC81FD815E
:1014B0003083EE81FF8120831D8AEA85FB85408190
:1014C00081E090E09C01098802C0220F331F0A943A
:1014D000E2F7422B4083EA85FB8540819C010A8824
:1014E00002C0220F331F0A94E2F7422B4083EA85A1
:1014F000FB8520810B8802C0880F991F0A94E2F7B0
:10150000809582238083DF91CF91FF90EF90DF90D1
:10151000CF900895CF93DF93FC0182819381DC010A
:10152000B395EC01CE5FDE4F4D915C911197288110
:10153000398142175307C1F7A285B3854C9181E0E9
:1015400090E09C01018802C0220F331F0A94E2F749
:10155000209524232C93A285B3854C919C0102886D
:1015600002C0220F331F0A94E2F7209524232C9304
:10157000A285B3852C91038802C0880F991F0A9415
:10158000E2F7809582238C9380819181FC01EE5F4C
:10159000FE4F20813181FC01F39531832083DF915F
:1015A000CF910895FC018589882329F0A085B18514
:1015B0008C9186FFFBCF158A0895CF93DF93FC01B2
:1015C00022813381D901B3958D919C911197019618
:1015D0009927E901CE5FDE4F48815981841795072D
:1015E000D9F30D90BC91A02DA20FB31F6C93A281D3
:1015F000B381B39511969C938E93A285B3852C915C
:1016000081E090E0038802C0880F991F0A94E2F7F6
:10161000282B2C9381E0858B0084F185E02D80813F
:101620008064808381E090E0DF91CF91089586EE21
:1016300090E09093D1008093D0009093D30080935A
:10164000D20080E490E09093D5008093D40029E20A
:1016500030E03093D7002093D6002BE230E0309377
:10166000D9002093D8002AE230E03093DB002093A9
:10167000DA009093DD008093DC008CE290E09093A0
:10168000DF008093DE0084E08093E00083E08093BD
:10169000E10087E08093E20085E08093E30081E051
:1016A0008093E4000895CF93DF931F92CDB7DEB708
:1016B000E091BF04F091C004309711F4E3ECF4E042
:1016C000CE0101962EEB8E179F0710F02193FBCFD2
:1016D0000F90DF91CF910895CF93DF9300D0CDB7D6
:1016E000DEB72091BF043091C0042115310511F4FB
:1016F00023EC34E0CE010196821B930B0F900F90E8
:10170000DF91CF910895CF93DF931F92CDB7DEB7CE
:101710002091BF043091C0042115310511F423EC50
:1017200034E0F901AE014F5F5F4FCF01821B930B95
:101730004E175F0728F060816E3B11F43196F5CFAC
:101740000F90DF91CF910895009741F0EFE9FFE00E
:101750003197F1F700C000000197F6CF0895843665
:10176000910538F064E670E00E94FF3BCB010C94D9
:10177000A40B019728F025E32A95F1F70000F9CF93
:1017800008956AE070E00E94FF3BCB010C94AF0B20
:10179000E82FF0E0EE0FFF1FE256FD4F80819181B0
:1017A0000895E82FF0E0EE0FFF1FEC5AFD4F808107
:1017B000918108952FB7F894E82FF0E0EE0FFF1F06
:1017C000E054FD4F808191812FBF089580912903BE
:1017D0000895809108029091090208958091F60180
:1017E0009091F70108958091F8019091F901089581
:1017F0008093F3010895E82FF0E0EE0FFF1FE65FFE
:10180000FD4F808191810895262F613110F442307F
:1018100040F021E030E0FC013383228331832083D8
:10182000089550E0BA01620F711D620F711D660FBD
:10183000771F660F771F645F7F4F44E050E00C9482
:101840006C3C282FCA01213188F4623078F470E0B2
:10185000620F711D620F711D660F771F660F771F74
:10186000645F7F4F44E050E00C948A3C0895FF92FF
:101870000F931F93CF93DF9300D000D0CDB7DEB787
:1018800006E710E0F12CF8014591559165917491AE
:1018900049835A836B837C83AE014F5F5F4F60E067
:1018A0008F2D0E94210CF801349645915591659138
:1018B000749149835A836B837C83AE014F5F5F4F82
:1018C00061E08F2D0E94210CF394085F1F4F81E18E
:1018D000F812D9CF81E00E944E120F900F900F9016
:1018E0000F90DF91CF911F910F91FF90089581E0AC
:1018F00020917E0230917F022331310509F080E092
:10190000089580917C0290917D02089580917802E3
:1019100090917902089580918202909183020895B6
:101920008091320290913302039750F080913802F7
:1019300090913902039720F083E090E00C945819BD
:1019400080E008952FB7F89480E090E0FC01EE0F5E
:10195000FF1FEE0FFF1FEE51FD4F1082118212820A
:10196000138201968131910589F784E690E0909386
:10197000270380932603109228032FBF0895CF9347
:10198000CFB7F8941092070210920602109202024A
:101990001092030210920402109205021092FE01AE
:1019A0001092FF0110920002109201021092FA01AF
:1019B0001092FB011092FC011092FD010E94333540
:1019C0009093F5018093F401CFBFCF9108950E94C9
:1019D000BF0C1092F9011092F8011092F7011092C9
:1019E000F6010895EAE0F2E01192119282E0E43506
:1019F000F807D1F70895CF93CFB7F89481E090E03E
:101A0000909327038093260381E0809328030E940C
:101A1000F20CCFBFCF910895CF93DF930E94FB0CC0
:101A2000C0910802D09109028091080290910902A8
:101A3000C817D90729F48AE090E00E945935F4CFFD
:101A4000DF91CF9108951092290380E00C9415073F
:101A5000CF93DF9381E00E94DA0BEC0180E00E94DB
:101A6000DA0B8C179D0718F4C81BD90B02C0C0E015
:101A7000D0E081E0C93ED34008F480E0DF91CF910F
:101A800008958F929F92AF92BF92CF92DF92EF9282
:101A9000FF92CF93DF93CDB7DEB728970FB6F894B8
:101AA000DEBF0FBECDBFF82E5B0161157105D1F110
:101AB00040E0682FCE0105960E94040C41E06F2D96
:101AC000CE0101960E94040C2B813C8140E050E045
:101AD000CF80D884E12CF12C2C193D094E095F09E7
:101AE000B50180E090E08D809E80A12CB12C68191A
:101AF00079098A099B090E94E33B29813A8140E0E8
:101B000050E0281939094A095B090E94353C2C0D1F
:101B10003D1D4E1D5F1D57FF03C020E030E0A901B1
:101B2000C90102C080E090E028960FB6F894DEBFAD
:101B30000FBECDBFDF91CF91FF90EF90DF90CF90A0
:101B4000BF90AF909F908F9008958F929F92AF9289
:101B5000BF92CF92DF92EF92FF92CF93DF93CDB7F8
:101B6000DEB728970FB6F894DEBF0FBECDBFF82EB4
:101B70005B0161157105D1F140E0682FCE0105963A
:101B80000E94040C41E06F2DCE0101960E94040CCE
:101B900029813A8140E050E0CD80DE80E12CF12CBB
:101BA0002C193D094E095F09B50180E090E08F8056
:101BB0009884A12CB12C681979098A099B090E9483
:101BC000E33B2B813C8140E050E0281939094A0968
:101BD0005B090E94353C2C0D3D1D4E1D5F1D57FFBE
:101BE00003C020E030E0A901C90102C080E090E01C
:101BF00028960FB6F894DEBF0FBECDBFDF91CF9110
:101C0000FF90EF90DF90CF90BF90AF909F908F901C
:101C100008958250893130F4E82FF0E0EF58FF4FFB
:101C20008081089581E00895CF93DF93833149F453
:101C300081E020917E0230917F0223313105C1F491
:101C40001AC0E82FF0E0EE0FFF1FEC5AFD4FC081E5
:101C5000D1810E94090E882319F0813029F00AC031
:101C600081E0E39740F404C081E0C935D24018F424
:101C700080E001C081E0DF91CF910895CF93C0E073
:101C80008FE18C0F0E94140E882329F0CF5FC6309D
:101C9000B9F786E001C08C2FCF9108951F93CF93A1
:101CA000DF931F92CDB7DEB7182F69830E94090E0C
:101CB000E12FF0E0EE0FFF1FEC5AFD4F482F698136
:101CC000808191810F90DF91CF911F910C94F0371B
:101CD0002FB7F8946091EF017091F0018091F101BC
:101CE0009091F2012FBF2DE730E040E050E00E94DC
:101CF000133CBB27A52F942F832F08958091260393
:101D000090912703892B49F0809126039091270316
:101D100001979093270380932603089590E0880FFE
:101D2000991FFC01EC5AFD4F208131816217730726
:101D300018F4261B370B04C0AB01421B530B9A014E
:101D4000FC01E65FFD4F2730310518F0118210824B
:101D500006C0208131812F5F3F4F31832083FC01FA
:101D6000EC5AFD4F7183608308958FB7F8941092F9
:101D7000EF011092F0011092F1011092F201109215
:101D8000EB011092EC011092ED011092EE018FBF69
:101D90000E94FB0C0E94E70C60E070E089E10E9469
:101DA0008E0E60E070E08BE10E948E0E60E070E0CD
:101DB0008CE10E948E0E60E070E08DE10C948E0E3E
:101DC00010920902109208020C94B50ECF93DF9383
:101DD0001F92CDB7DEB79091290391110FC069838F
:101DE0000E941507698161110E94E00E81E08093D5
:101DF00029030F90DF91CF910C940C0D0F90DF9180
:101E0000CF9108950C94E00E80912903882309F462
:101E10004FC040918202509183028091EF019091D6
:101E2000F001A091F101B091F201840F951FA11D65
:101E3000B11D8093EF019093F001A093F101B09355
:101E4000F2018091EA0191E0980F9093EA018835C0
:101E500078F12091780230917902DA010E94C23B38
:101E600024E630E040E050E00E94133C8091EB011A
:101E70009091EC01A091ED01B091EE01280F391F76
:101E80004A1F5B1F2093EB013093EC014093ED015F
:101E90005093EE01CA01B90120EA3CE840E050E06D
:101EA0000E94133CB9018AE10E948E0E1092EA0151
:101EB0000895CF92DF92EF92FF920F931F93CF93EB
:101EC000DF931F92CDB7DEB7C0905402D090550279
:101ED00080915602909157028C159D0518F4C81AEE
:101EE000D90A02C0C12CD12CB60182E10E948E0E0B
:101EF00006E612E09FE1F801619171918F01892F4F
:101F000099830E948E0E99819F5F9532A1F70E945E
:101F10003E0EF82E80E000E010E08F1569F0EFE152
:101F2000E80FF0E0EE0FFF1FEC5AFD4F20813181EA
:101F3000020F131F8F5FF1CFB80183E10E948E0E55
:101F40000115110581F00C151D0520F49601201BCB
:101F5000310B03C098012C193D09293B3B4018F473
:101F6000680113E102C012E1F12CB60184E10E9484
:101F70008E0E6F2D70E086E10E948E0E612F70E054
:101F800085E10E948E0E0E94680E7C010E94E71B74
:101F9000882329F000915A0210915B020BC00E9425
:101FA000AF22882329F0009158021091590202C0F3
:101FB00000E010E0B80187E10E948E0EB70189E1D0
:101FC0000E948E0E9801D6010E94C23B20E137E2AA
:101FD00040E050E00E94133CB90188E10F90DF918E
:101FE000CF911F910F91FF90EF90DF90CF900C94C5
:101FF0008E0E1F93CF93DF93182FC82FD0E0FE01D2
:10200000EE0FFF1FEE0FFF1FEE51FD4F608171813C
:102010008281938128EE33E040E050E00E94133C3F
:10202000FE01EE0FFF1FE256FD4F31832083B90101
:10203000812F0E94410DBC01812FDF91CF911F9113
:102040000C948E0E4F925F926F927F928F929F921E
:10205000AF92BF92CF92DF92EF92FF92CF93DF9336
:10206000CDB7DEB728970FB6F894DEBF0FBECDBF51
:102070000E9433352091F4013091F501821B930BBE
:102080008133954708F4A4C04FB7F8942091060215
:1020900030910702A8EEB3E00E94C23B6B017C01C5
:1020A000F694E794D794C7944090020250900302AC
:1020B00060900402709005026091FE017091FF0132
:1020C00080910002909101028090FA019090FB01B2
:1020D000A090FC01B090FD014FBF6D837E838F8384
:1020E00098870E94BF0C2091F8013091F9012F5F71
:1020F0003F4F3093F9012093F8016D817E818F81EC
:102100009885A70196010E94133C29833A834B834B
:102110005C83C301B201A70196010E94133CB9017F
:1021200080E00E94410D3C0169817A8181E00E943A
:10213000410D8615970518F4681A790A02C0612CBA
:10214000712C40908C0250908D026414750420F420
:102150008091F301811104C0B3018CE10E948E0EC5
:10216000B301641975098BE10E948E0EC501B4019B
:10217000A70196010E94133CB90187E00E94410D1E
:102180002091F6013091F7019093F7018093F601C9
:10219000BC01621B730B660F771F8DE10E948E0ED0
:1021A000B6018EE128960FB6F894DEBF0FBECDBF04
:1021B000DF91CF91FF90EF90DF90CF90BF90AF90E5
:1021C0009F908F907F906F905F904F900C948E0EA9
:1021D00028960FB6F894DEBF0FBECDBFDF91CF912A
:1021E000FF90EF90DF90CF90BF90AF909F908F9037
:1021F0007F906F905F904F900895CF932FB7F89492
:1022000080912603909127032FBF892B09F08DC061
:1022100080912803811186C080912903882309F4C5
:102220007EC0809108029091090201969093090264
:10223000809308024091E2025091E3026091E4022F
:102240007091E502769567955795479580910202C2
:1022500090910302A0910402B0910502840F951F92
:10226000A61FB71F8093020290930302A09304025B
:10227000B09305024091E6025091E7026091E802B6
:102280007091E90276956795579547958091FE0183
:102290009091FF01A0910002B0910102840F951F5F
:1022A000A61FB71F8093FE019093FF01A093000229
:1022B000B09301024091FE025091FF026091000331
:1022C0007091010376956795579547958091FA012E
:1022D0009091FB01A091FC01B091FD01840F951F2D
:1022E000A61FB71F8093FA019093FB01A093FC01F6
:1022F000B093FD01809106029091070201969093A0
:102300000702809306020E942210C0E08C2F0E94D8
:10231000F90FCF5FC131D1F70E94590F03C085E09B
:102320000E94F90FCF910C94A20CCF9108950C94B8
:10233000FD1060E08AE293E00E94332A87FD0AC024
:10234000811102C00C94652A992787FD9095019709
:102350000C94B42B08950E94460778940E94A90615
:102360000E9410090E9447230E94791C0E94020FBC
:102370000E94530B0E94DC130E94142E0C942D2FEC
:102380000E94AB110E94DA120E949911FDCF67E6FC
:1023900071E08AE293E00E94922C8EE890E09093A4
:1023A0002B0380932A03EEE2F3E080818C5E80832E
:1023B0000895FC0124812451621710F40C948D2C93
:1023C000862F821B0C948117FF920F931F93CF933C
:1023D000DF93EC018B0141110E94AB3C85E0F82EAC
:1023E000FA9459F0CE010E94843C8017910739F08D
:1023F00084E690E00E944535F3CF81E001C080E0A3
:10240000DF91CF911F910F91FF900895EF92FF926E
:102410000F931F93CF93DF937B018C01E80EF91E7E
:10242000CFEFDFEF0E151F05A9F0C8010E947C3C1D
:10243000C82728E0CE01969587953C2FEC0130FF08
:1024400004C031E0C32730EAD327215099F70F5F4A
:102450001F4FE8CFCE01DF91CF911F910F91FF90D9
:10246000EF900895EF92FF920F931F93CF93DF9316
:102470001F92CDB7DEB78C017B0149830E94061203
:102480004981BC01C8018E0D9F1D0F90DF91CF9136
:102490001F910F91FF90EF900C94E411482F68E882
:1024A00070E08CE090E00C943212482F60E273E010
:1024B00086E990E00C943212482F6AE170E088EBD4
:1024C00093E00C9432120F931F93CF93DF93D82F86
:1024D000182F1170412F63E678E680E090E00E94AB
:1024E000E411C82F412F6CE679E682E090E00E946B
:1024F000E4118111C1E0412F62E070E184E090E0DD
:102500000E94E4118111C1E0D1FB002700F9402FA6
:1025100069E070E086E090E00E94E4118111C26001
:10252000D2FB112710F9412F63E070E088E090E0C2
:102530000E94E4118111C460D3FBDD27D0F94D2F37
:102540006AE070E08AE090E00E94E4118111C860C6
:1025500001110E94370C80E00E944E128111C2606E
:1025600011110E946F1780E00E9455128111C46002
:10257000D1110E94F71380E00E945C128111C860A3
:102580008C2FDF91CF911F910F910895CF93C82F7A
:102590000E94EB2EC0FDC260C1FDC460C2FDC860D8
:1025A0000E94052F8C2F0E946312682F8C2FCF91D1
:1025B0000C94092F80E00E946312882321F00E946E
:1025C000C61280E0089581E0089580E00E946312C1
:1025D00081600C94C612CF930E940A2E8FE492E081
:1025E0009093A5038093A403C1E0C093A30310922A
:1025F0009C030E946C15823011F4C0939C030E94CE
:102600004C1B91E0813009F090E0892FCF91089523
:1026100061E081E00E949F1A8BE592E09093A50310
:102620008093A403089561E081E00E949F1A87E6E9
:1026300092E09093A5038093A403089560E082E064
:102640000E949F1A89E492E09093A5038093A403CB
:10265000089561E081E00E949F1A83E492E09093E4
:10266000A5038093A403089510929C0390E0893001
:10267000910528F5FC01E65DFF4F0C94543C0E9447
:102680006C15811102C00C9413130E946C158530D7
:1026900059F40C94291381E080939C0305C08DE3C9
:1026A00092E009C00C941E130C94081381E08093EF
:1026B0009C0381E692E09093A5038093A403089580
:1026C0000E94621E0C94B50ECF93C82F0E94601317
:1026D0008C2F0E943413C73029F0C83059F463E0BE
:1026E00081E005C060917703660F615080E0CF9173
:1026F0000C94EB17CF910C944C1B0E94541C88E84F
:1027000093E10E94351C84E690E00E9459350C94B8
:10271000671CCF93C82F0E949C27882389F10E94B1
:102720007D13C09336038C2F0E9434131092340310
:102730001092330383E0809335030E94193A61E0DD
:1027400081E00E94E60E0E94EB12882391F081E066
:10275000809335030E947F1E0E940A2E1092A303CD
:1027600084E00E941134809136030E9464130E9419
:10277000B71E0E94230D0E94293ACF910C94132E6C
:10278000CF910895DC015496ED91FC915597EE0F91
:10279000FF1FEE0FFF1FE357FE4F65917591859167
:1027A000949108954AE150E063E771E00C945A3C3B
:1027B000FC0180810C94B4064AE150E068EB73E0C0
:1027C00087E393E00E946C3C87E393E00C94D8137A
:1027D0004AE150E068EB73E087E393E00E948A3CB3
:1027E00081E00E945C1287E393E00C94D81387E3A6
:1027F00093E00E94D2130C94E813FC010994FC01AD
:10280000859194910C94FD13009761F09C0180E0F8
:10281000F901459154912E5F3F4F452B11F08F5F89
:10282000F7CF089580E00895EF92FF920F931F93E2
:10283000CF93DF93EC017B018A0185E00E94D10BED
:102840008E159F0518F4188281E007C00817190734
:1028500018F481E0888301C080E0DF91CF911F915F
:102860000F91FF90EF900895282F81E090E03AE0DB
:10287000215038F0AC01349FC001359F900D1124D8
:10288000F7CF089597FD02C081E008958FEF089576
:10289000CF92DF92EF92FF92CF9397FF08C090956F
:1028A0008095709561957F4F8F4F9F4F07C0611541
:1028B00071058105910511F0C0E001C0C1E02AE079
:1028C000C22ED12CE12CF12C6115710581059105E9
:1028D00041F0CF5FA70196010E94353CCA01B901C2
:1028E000F3CF8C2FCF91FF90EF90DF90CF90089592
:1028F000BC0180E090E00C944814CF92DF92EF92FC
:10290000FF920F931F93CF93DF93EC017B016A013A
:10291000E881F981CF01B8010E94FF3B009731F0B7
:102920001E141F049CF4081B190B03C01E141F0463
:1029300074F4C901801B910BE817F90718F40E0F06
:102940001F1F01C08901198308830DC08C01C801B4
:102950008C0D9D1D8E179F0718F4E01BF10B01C015
:10296000F601F983E883DF91CF911F910F91FF90DA
:10297000EF90DF90CF900895AF92BF92CF92DF9209
:10298000EF92FF920F931F93CF93DF93EC017B01A4
:102990006A0159016881798180E090E00E944814C1
:1029A000823020F082500E94341402C081E090E016
:1029B0008C019501A601B701CE010E947D14DF9123
:1029C000CF911F910F91FF90EF90DF90CF90BF902C
:1029D000AF9008952FEF3FEF40E050E00C94BC140F
:1029E0000E9475358111FCCF0E9475358823E1F373
:1029F0000895CF93C6E00E947535811104C0C1507F
:102A0000D1F780E001C081E0CF910895209151037A
:102A10003091520395E0929FF001939FF00D1124A5
:102A2000E80FF11DEE0FFF1FEF55FE4F85919491BA
:102A300008951F93CF93DF93182FC0915503D09122
:102A400056030E9406159C01123061F480915103D7
:102A500090915203029731F4C730D10518F02197B5
:102A600020EB34E02C9FC0012D9F900D3C9F900DDA
:102A70001124DF91CF911F9108951F93CF93DF937E
:102A8000182FC0915503D09156030E94061523E0DC
:102A900020937903113029F480915B0390915C03BA
:102AA00006C0123039F480915D0390915E0310935B
:102AB000790306C0133021F480916F039091700365
:102AC0009C012C9FC0012D9F900D3C9F900D1124C7
:102AD000DF91CF911F910895E0915103F09152033E
:102AE000E75EFD4F84910895CF93DF9300D000D02F
:102AF000CDB7DEB7A0915303B091540320916D037D
:102B000030916E030E94C23B24E630E040E050E08A
:102B10000E94133C293E8DEF38074105510550F4C2
:102B200029833A834B835C830E946C1529813A8107
:102B3000853021F428EE3DEF40E050E0C9010F90D0
:102B40000F900F900F90DF91CF9108952091710316
:102B5000309172038091550390915603AC01249FEC
:102B6000C001259F900D349F900D1124089582E09F
:102B70000E941915BC0180E29EE40E941218813166
:102B800027E2920710F080E197E2089582E00E9428
:102B90001915BC0184EC99E00E941218893823E1D0
:102BA000920710F088E893E1089580915103909185
:102BB00052030A97029750F081E00E940615BC016B
:102BC00088E799E60E94FF3BCB01089581E090E001
:102BD000089580915303909154038436910530F405
:102BE00084E690E0909354038093530380915303C1
:102BF00090915403893E9D4F30F088EE9DEF909365
:102C00005403809353038091630390916403893E3E
:102C1000934030F088EE93E09093640380936303D5
:102C20000E94D515209155033091560382179307C2
:102C300020F490935603809355038091550390910F
:102C40005603892B31F481E090E0909356038093F2
:102C500055030E94B71520915703309158038217EE
:102C6000930720F490935803809357038091570360
:102C70009091580320915F0330916003821793076E
:102C800020F49093600380935F030E94C615209107
:102C9000590330915A038217930720F490935A03F3
:102CA000809359032091590330915A038091610315
:102CB000909162032817390720F430936203209320
:102CC00061038091410390914203409157035091D9
:102CD00058034817590720F49093580380935703DB
:102CE00040915F03509160034817590720F4909377
:102CF000600380935F0380914303909144032817FE
:102D0000390720F490935A0380935903209161036B
:102D1000309162032817390720F49093620380935F
:102D20006103089598E2899FB00111246A567F4F8C
:102D300048E250E081E593E00E946C3C0C94E91578
:102D400098E2899FB00111246A567F4F48E250E013
:102D500081E593E00E948A3C81E00C9455120E9428
:102D6000E915809157039091580324E09695879533
:102D70002A95E1F79093600380935F0308950E9482
:102D8000E9158091590390915A0334E096958795FF
:102D90003A95E1F7909362038093610308950E944E
:102DA000E9158091530390915403969587959093DC
:102DB00058038093570320915103309152032330DD
:102DC000310531F496958795909358038093570376
:102DD000809157039091580390935A03809359031D
:102DE0000E94AF160C94BF1681E00E9406159093C6
:102DF0005C0380935B0382E00E94061590935E0360
:102E000080935D038091510390915203892B61F56A
:102E100080ED97E0909354038093530383E090E018
:102E2000909356038093550388EE93E09093640348
:102E300080936303109266031092650380E797E125
:102E4000909368038093670310926A03109269035A
:102E50008EE190E090936C0380936B0388E790E0A1
:102E600090936E0380936D030E946C15811128C0AE
:102E700081E090E09093700380936F038091510301
:102E800090915203029719F48BEF9FEF02C081EFEC
:102E90009FEF909372038093710383E090E090938F
:102EA00074038093730384E690E090937603809399
:102EB000750382E090E090937803809377030DC0D0
:102EC00088E090E0909372038093710383E00E9406
:102ED00006159093700380936F030C94CF16CF93D5
:102EE00010925203109251030E94F416C0E08C2FEE
:102EF0000E94A016CF5FC431D1F781E0CF910C942E
:102F00005512CF93C82F0E949216209151033091F1
:102F10005203232B21F00E94FE310E94AA362091F9
:102F20005103309152032A30310571F02B303105B5
:102F300069F0232BC1F48C2F90E001960E944A3651
:102F40008AE3CF910C94213689E00AC065E0809134
:102F50005703909158030E9479380E94AA3684E062
:102F6000CF910C94C03167E080915303909154034A
:102F70000E9476388FE20E9421368091550390910D
:102F80005603CF910C944A36BC0187E593E00E942A
:102F9000EA140C94E915BC0189E593E00E94EA1457
:102FA0000C94E9152FEF3FEF41E050E0BC0183E6C0
:102FB00093E00E94BC140C94E91580916B039091EE
:102FC0006C030E943B1D85E592E09093A5038093DE
:102FD000A4030C944C1BCF93C62F91E09093A303B2
:102FE00080937A0380917A038C1302C01092A3031A
:102FF00080FF02C080E001C083E00E946413813042
:1030000079F49091A303992359F080917A038F5F0B
:1030100080937A030E9460130E94DD17813011F3C0
:10302000CF910895AB019C01A8EEB3E00E94C23B92
:103030009A0140E050E00E94133CA8EEB3E00E94E9
:10304000D83B24E630E040E050E00E94133C2115DC
:10305000310581E04807510520F02FEF3FEF40E0B8
:1030600050E0C901089580919903811113C00E9415
:10307000E60B882381F00E94E90B20917B033091BD
:103080007C03821B930B9C0181E02330310518F0F7
:1030900080E0089581E00895815E0C94D10B0F9338
:1030A0001F93CF93DF9310E0CFEFDFEF00E080912D
:1030B0009B03181760F4812F0E944C188C179D07F2
:1030C00010F0CE0101C0012F1F5FEC01F0CF802F67
:1030D000DF91CF911F910F910895CF93DF9390913E
:1030E0009903911104C0DF91CF910C944C189091E9
:1030F0007F03C82FD0E0992391F00E944C18CC0F89
:10310000DD1FFE01E058FC4FC457DC4F20813181A8
:1031100048815981241B350B280F391F07C0FE0138
:10312000EE0FFF1FE058FC4F20813181C901DF9174
:10313000CF910895EF92FF920F931F93CF93DF9358
:10314000C0E0D0E0E12CF12C0FEF1FEF80919B034A
:1031500090E0C817D9076CF48C2F0E946D18E81600
:10316000F90608F47C018017910708F48C01219678
:10317000EDCFE01AF10A81E02091710330917203E2
:103180002E153F0508F080E0DF91CF911F910F9140
:10319000FF90EF900895CF93C82F809199038823D3
:1031A00041F0C11106C00E94E90B90937C0380930B
:1031B0007B03C09399030E94F20C809198038111C4
:1031C00004C08C2FCF910C942707CF910895EF92D4
:1031D000FF920F931F93CF93DF9381E00E946007CC
:1031E00086E10E94D10B80939B030CE813E030E84A
:1031F000E32E33E0F32EC0E0D0E080919B0390E01B
:10320000C817D9076CF48C2F0E944C18F8018193D1
:1032100091938F01F701819391937F012196EDCFD7
:10322000109299031092980380E00E94CB1810929C
:103230007C0310927B038FEF80939A03DF91CF91F1
:103240001F910F91FF90EF90089580E00E94CB189E
:1032500081E08093980308950E94251980E00C94E2
:103260006007FF920F931F93CF93DF9380919A0390
:1032700087FD17C00E946D18EC0110E0FF24F39445
:1032800000E080919B03181750F4812F0E946D1865
:10329000C817D90708F40F29FF0C1F5FF2CF802F42
:1032A00001C080E0DF91CF911F910F91FF900895B1
:1032B0001F93CF93DF93EC0110E080919B031817CD
:1032C00048F48FE1810F0E94FB0B8C179D0720F0C3
:1032D0001F5FF3CF81E001C080E0DF91CF911F91AC
:1032E00008959F92AF92BF92CF92DF92EF92FF929A
:1032F0000F931F93CF93DF9386E090E00E945819BD
:10330000882309F462C00E94900C882309F45DC0F0
:1033100080919A0387FF04C00E944F1880939A03FC
:1033200080919A030E944C186C01A0905D03B090AC
:103330005E0340E8E42E43E0F42E0CE813E0C0E026
:10334000D0E09924939480919B0390E0C817D9070B
:10335000B4F48C2F0E944C188A159B0570F0C81687
:10336000D90608F4912CF701819391937F01F8011C
:10337000819391938F012196E6CF99249394109293
:103380007F030E943B3590937E0380937D039920B9
:1033900069F0DF91CF911F910F91FF90EF90DF9037
:1033A000CF90BF90AF909F900C9425190E94311937
:1033B000DF91CF911F910F91FF90EF90DF90CF9011
:1033C000BF90AF909F900C94CB18DF91CF911F913D
:1033D0000F91FF90EF90DF90CF90BF90AF909F90B4
:1033E0000895CF9380917F03811115C081E0809370
:1033F0007F03C0E080919B03C81768F48C2F0E9464
:103400004C18EC2FF0E0EE0FFF1FE457FC4F9183B8
:103410008083CF5FEFCFCF9108950E943B352091FD
:103420007D0330917E03821B930B08958091990355
:10343000811103C00E94711909C00E94F1190E94F4
:103440000D1A409718F080E00E94CB180E943318A4
:10345000882311F082E00895809198038823D1F3A6
:1034600081E008951F93CF93DF93EC0110E08091EA
:103470009B03181740F4812F0E946D188C179D072D
:1034800020F41F5FF4CF80E001C081E0DF91CF9195
:103490001F9108951F93CF93DF93EC0110E080916B
:1034A0009B03181740F4812F0E946D18C817D90785
:1034B00020F41F5FF4CF80E001C081E0DF91CF9165
:1034C0001F91089560919B03662329F070E00E948C
:1034D000FF3BCB01089580E090E008950E941A23FD
:1034E00081E00E94752080919D0390919E030C9431
:1034F000E5220C9431230E94900C882321F00E9435
:10350000C0220C94102108950E947B1A0E94810C05
:103510002091A1033091A2032817390740F48DE0D0
:103520009AE0909334038093330380E00895809170
:103530009F039091A0030E94E52282E00895CF931B
:10354000DF931F92CDB7DEB7882341F069830E94D5
:103550003D159093A2038093A1036981662369F0CE
:1035600080915703909158039093A00380939F03F9
:1035700080915F03909160030CC0809159039091FA
:103580005A039093A00380939F03809161039091CD
:10359000620390939E0380939D030F90DF91CF91E0
:1035A00008958091A4039091A5030C94FF1380913A
:1035B000A4039091A50302960C94FF130E94D71ABE
:1035C0000E94B71E0C941D36CF93DF930E943B35AB
:1035D000EC010E943B358C1B9D0B853B910510F047
:1035E0000E94230D0E947535882399F388E0DF91AE
:1035F000CF910C941134CF93DF930E94DE1A0E9476
:103600003B35EC0185E00E9411340E94230D939814
:103610000E94542E0E94F91481110FC00E94BB2FEA
:103620000E94F914811109C00E943B358C1B9D0B2F
:10363000853B910568F3939AEBCF88E00E941134A3
:1036400060E081E0DF91CF910C94E60E0E94DE1ADB
:103650000E94230D0E94582E86E00E9411340C9483
:10366000E41AE091A403F091A50334968591949116
:10367000FC010994811103C00E94261B0BC08130FC
:1036800039F48091A303811105C00E94FB1A02C086
:1036900081E0089580E008950F931F93CF93DF9307
:1036A000109262040E94D11A02E0C0E0D0E011E062
:1036B0000E947535809362040E947D2E112379F05B
:1036C0000E94F71E082F0E943A1B182F882339F0FA
:1036D0000E94E90BC817D90791F4111107C0809116
:1036E000A303882311F0011114C010E0809162043B
:1036F0008130F1F60E946F358230D0F20AC00E940C
:10370000E90BEC010E94311B082F0E943A1B182F75
:10371000E4CF0E94D71A802FDF91CF911F910F9194
:1037200008950E94671C0C942C190E94541C0E943E
:10373000E71821E08091690390916A03892B09F4CD
:1037400020E02093A60380E00C9475201F93CF9374
:10375000DF93C091A103D091A203CE010E94621A0F
:103760000E944A1A182F0E943318811109C01111A2
:1037700007C00E94810C11E0C817D90708F410E0B7
:10378000812FDF91CF911F9108951F93CF93DF93E6
:103790000E94A61B182F0E94F81BEC018091A60323
:1037A000882329F0BE01812F0E94BF2001C0812FF4
:1037B000811108C0BE01812F0E94DE210E94351CAC
:1037C00082E001C081E0DF91CF911F910895809147
:1037D000AB03089581E02091A9033091AA03232B24
:1037E00009F480E008958091A9039091AA030895B7
:1037F0008091A7039091A8030895CF93DF931F9220
:10380000CDB7DEB740913D0350913E03BA017250EF
:10381000CE0101960E9414148981811112C00E9468
:10382000860C009711F481E090E0BC0184EC99E0F3
:103830000E941218893823E1920728F088E893E162
:1038400002C080E090E00F90DF91CF910895813029
:1038500020E8920710F080E090E89093AA0380930C
:10386000A9030E9423070C94FB0CCF93DF93EC0178
:103870000E94FD1BBC01C817D90708F4BE01809146
:10388000A7039091A8038617970759F07093A80390
:103890006093A70380E10E94A50DDF91CF910C9466
:1038A000271CDF91CF9108958091AB0381110EC049
:1038B00080E090E00E94271C1092A8031092A703BA
:1038C00081E00E940F0781E08093AB03089580910F
:1038D000AB03882369F080E090E00E94271C1092DF
:1038E000A8031092A70380E00E940F071092AB0379
:1038F000089581E08093AB030C94671C87E080936C
:10390000680482E0809369040E940A3483E0809313
:10391000AC030895FF920F931F93CF93DF930E9400
:103920003E0EF82E80919C03882369F08091550308
:1039300001E08F1101C000E011E0F11010E08130D2
:1039400021F4112311F010E000E00E94770C88238D
:1039500009F458C083E10E94D10BEC0182E10E947E
:10396000D10BC817D90728F49C012C1B3D0BE9018A
:1039700002C0C81BD90BC53FD14008F443C0C1E009
:10398000011102C087E001C083E080936804112325
:1039900029F080916804825080936804CC2329F038
:1039A00080916804815080936804011104C0111152
:1039B00002C0CC2331F081E00E941134111107C004
:1039C00004C088E00E94113404C0002311F0F110FB
:1039D00002C0D0E001C0D1E00E947235811102C066
:1039E0001092AC03D11106C0C11104C00E947235FF
:1039F000883051F08091AC03823011F481E00AC02C
:103A000082E008C0C0E0BCCF8091AC038F5F8093A0
:103A1000AC03F0CFDF91CF911F910F91FF900895EC
:103A20008FEF8093680488E00C9411341092B103F6
:103A300008950E943B359093B0038093AF0308959F
:103A40000E943B352091AF033091B003821B930B52
:103A50002091AD033091AE032817390728F081E09B
:103A60008093B10382E008951092B10381E008953C
:103A70008091B10308952CE3AC01249FC001259FE0
:103A8000900D11249093AE038093AD0308950E948E
:103A9000E7180E941A2381E00C9475200E943123BC
:103AA0000C942C191F93CF93DF93C091A103D09155
:103AB000A203CE010E94621A0E94321A182F0E949D
:103AC0003318811109C0111107C00E94810C11E047
:103AD0008C179D0708F410E0812FDF91CF911F9183
:103AE00008951F93CF93DF930E94521D182F0E94B9
:103AF000C022EC01BC01812F0E94BF20811108C0AF
:103B0000BE01812F0E94DE210E94E52282E001C0D9
:103B100081E0DF91CF911F9108958091C003909132
:103B2000C1032091C303222341F00E943B35209121
:103B3000C0033091C103821B930B08956091BC03B5
:103B40007091BD038091BE039091BF0328EE33E0D6
:103B500040E050E00E94133CC90108956091B80311
:103B60007091B9038091BA039091BB0328EE33E0C2
:103B700040E050E00E94133CC90108950F931F9349
:103B8000CF93DF9381E00E943D158C0184E00E9479
:103B90003D15EC0184E10E94D10B80179107B8F428
:103BA000C817D907B0F49C012C1B3D0BC8018C1B16
:103BB0009D0B64E670E00E94FF3BC9010E94FF3B41
:103BC0006436710510F063E670E0862F03C083E66B
:103BD00001C080E0DF91CF911F910F910895CF93A5
:103BE000DF930E94BE1D9091C2039817E0F480936A
:103BF000C2030E948D1D2091C5033091C603EC01C4
:103C0000C21BD30B0E948D1D9093C6038093C503E6
:103C10008091C7039091C8038C179D0720F4D0931F
:103C2000C803C093C703DF91CF9108950E94EF1D91
:103C30008091C403882311F089E601C084E690E0F6
:103C40002091C203821B91092091C7033091C803C0
:103C5000AC01429FC001439F900D529F900D1124D3
:103C600008952091390330913A032130310511F440
:103C700081E026C02115310511F480E021C02430F7
:103C8000310529F48091C30381110AC0F6CF223097
:103C9000310519F48091C30313C02330310581F439
:103CA00085E00E94D10B20913B0330913C03A90198
:103CB00052508417950708F328173907C8F208955A
:103CC0000C94DB060E94BE1D8093C2031092C603B3
:103CD0001092C5031092C8031092C7031092BC0340
:103CE0001092BD031092BE031092BF031092B8034E
:103CF0001092B9031092BA031092BB03089568E5BD
:103D000072E080E00E94A50D9093B7038093B60304
:103D100081E00E943D15BC016854744F693729E663
:103D2000720710F068E779E680E00E94A50D813CFB
:103D30002FEF920710F080EC9FEF9093B5038093E4
:103D4000B4030E94770C8093C4030E94741590936F
:103D5000B3038093B2030E943B359093C1038093D9
:103D6000C0030E94621E81E08093C30308950E94F5
:103D70008D1D9093C1038093C0031092C3030895D7
:103D80000E94B22281111DC00E94EA1B811119C03C
:103D90000E943318882351F18091BC039091BD0398
:103DA000A091BE03B091BF0380599F4FAF4FBF4F4B
:103DB0008093BC039093BD03A093BE03B093BF0355
:103DC00008958091B8039091B903A091BA03B0917E
:103DD000BB0380599F4FAF4FBF4F8093B803909361
:103DE000B903A093BA03B093BB03D2CF0895CF9386
:103DF000DF938091C303811102C082E0D7C085E0C8
:103E00000E94D10B20913D0330913E033E5F281765
:103E1000390718F489EA9CE0C4C080E00E94DA0BFC
:103E20002091B4033091B5038217930758F4209181
:103E3000B6033091B70382179307B8F40E94E71BCB
:103E4000882399F00E946C15823009F08FC0809110
:103E5000550390915603029709F088C00E94770C91
:103E6000811184C089EB9CE07BC0C091C4030E9497
:103E7000770CC81719F08AE99CE093C0C0919F03A2
:103E8000D091A003C851DC4F0E948B0CC817D907F2
:103E900018F48FE89CE085C086E00E94D10B209149
:103EA0004503309146038217930718F480E89CE09D
:103EB00078C089E10E94D10BC091B203D091B303C5
:103EC000C83E2DEFD207D9F08C179D07C0F00E9495
:103ED0007415C817D90709F04CC00E946C158111E0
:103EE0005EC0809153039091540360915703709189
:103EF00058030E94FF3B6A307105D8F550C0C0914D
:103F00006303D0916403C83E83E0D807A0F46091B6
:103F1000B8037091B9038091BA039091BB0320E676
:103F20003AEE40E050E00E94133C2C173D0718F099
:103F300085E69CE015C08091650390916603892B0E
:103F400009F45BCF87E00E94D10B20916703309189
:103F500068032817390708F050CF85E59CE021C099
:103F6000909334038093330381E020C089EB9CE07D
:103F700018C0C091B203D091B3030E9474158C177E
:103F80009D0730F480E79CE09093340380933303E3
:103F90000E9474159093B3038093B203E5CF80E73A
:103FA0009CE0909334038093330380E0DF91CF91C2
:103FB00008950E944E1D0E94911B0C942C19CF93C2
:103FC000DF931F92CDB7DEB78091C903882329F014
:103FD000813031F40E94C51B0CC00E94711D09C0C4
:103FE0000E94161A823089F089830E94D91F898124
:103FF0000CC0813051F490919C03992331F082E000
:104000008093C9030E94E71882E00F90DF91CF915F
:104010000895CF93DF930E94E71861E083E00E9448
:104020009F1AC091A103D091A20380919B0381119B
:1040300006C00E94810CC817D90740F40CC0CE01FD
:104040000E94621A0E944A1A882329F00E94471D82
:104050001092C9030BC060E083E00E949F1A0E9487
:10406000951B81E08093A6038093C903DF91CF91D4
:1040700008958091CA03813029F480919D03909125
:104080009E03089580E090E008952CE0829FC00197
:1040900011248A529C4F0C9458238EE194E00C9486
:1040A0005823CF93DF9300D000D0CDB7DEB782E1A5
:1040B0000E94D10B9A83898384E10E94D10B2981CC
:1040C0003A81281B390B3A83298387E10E94D10B5F
:1040D0009C838B83CE0101960E9458230F900F90F2
:1040E0000F900F90DF91CF910895EF92FF920F9371
:1040F0001F93CF93DF93F82E81E08093CA030E9431
:10410000810CBC0120919D0330919E034091A1033D
:104110005091A2030F2D86E194E00E9473238091B9
:10412000A1039091A2030E94621AEC0110E08CE0BE
:10413000E82E80919B03181798F4812F0E946D1828
:10414000BC0120919D0330919E03E19EC00111248A
:104150000F2DAE0182539C4F0E9473231F5FE9CF46
:10416000109224041092CD03109223041092220482
:10417000DF91CF911F910F91FF90EF9008951F93C2
:10418000CF93DF93182FEB0180919C03882361F17B
:10419000112349F080912404811105C00E94251942
:1041A00081E08093240480912404882311F08530D9
:1041B000D9F420919D0330919E03203A310510F4EB
:1041C00020EA30E02C173D0710F4109298030E946B
:1041D000161A8093CA038130F1F40E949A1888233A
:1041E00019F08FEF80939A030E9439208C179D0756
:1041F00080F0112371F080912404853051F4909166
:10420000CD0381E0890F8093CD0381E09A3020F4C3
:1042100002C01092CD0380E0DF91CF911F910895ED
:104220000F931F93CF93DF93EC010E94810CAE019B
:10423000BC0186E194E00E94352410E00CE08091FE
:104240009B03181770F4812F0E946D18BC01019F09
:10425000C0011124AE0182539C4F0E9435241F5F80
:10426000EECFDF91CF911F910F910895CF92DF9202
:10427000EF92FF920F931F93CF93DF936091A1036F
:104280007091A20386E194E00E9498238C018091B2
:10429000A1039091A2030E94621A7C01D12C9CE0A0
:1042A000C92E80919B03D81698F4CD9CE00111246F
:1042B000C253DC4FB701CE010E949823081719079B
:1042C00028F0B701CE010E9498238C01D394E9CF46
:1042D000C801DF91CF911F910F91FF90EF90DF9078
:1042E000CF9008950F931F93CF93DF93EB0120910D
:1042F0009F033091A0038C012817390708F4890126
:104300000E9439209C018017910708F49801C21778
:10431000D307E1F0409124044530D1F42C173D0738
:10432000B8F082179307A0F480919D0390919E03AB
:104330008C179D0758F04091CB035091CC0380918E
:104340007B0390917C034817590711F4CE0109C0F3
:1043500080917B0390917C039093CC038093CB035B
:10436000C901DF91CF911F910F9108950F931F9372
:10437000CF93DF93EC010E94810C909317048093FC
:104380001604D0931904C093180410E00CE0809137
:104390009B03181770F4812F0E946D18019FF00184
:1043A0001124E253FC4F91838083D383C2831F5F28
:1043B000EECFDF91CF911F910F9108951F93CF936F
:1043C000DF93182FEB010E94900C811108C011237C
:1043D000E1F12091220430912304232BB1F10E94BA
:1043E0003318811132C0CE010E941021CE010E94EB
:1043F000B6210E9436218C179D0708F048C09C0109
:104400002C0F3D1F369527953093230420932204CB
:10441000BE0180912204909123040E947221909306
:1044200023048093220490912404923009F1A8F48B
:104430009923C1F0913039F5112339F083E080934D
:10444000240410922304109222048091220490915B
:104450002304DF91CF911F910895933061F0943040
:1044600081F011C0112389F30E94251981E00CC04D
:1044700010922404EACF109223041092220484E0C4
:1044800003C0112311F385E080932404DECF9093C1
:10449000230480932204BCCF0C946E1ACF93DF9335
:1044A0000E947B1A0E94810CEC0182E00E943D1563
:1044B0008C179D0730F480919F039091A0030E9478
:1044C000E5228091A1039091A2038C179D0718F417
:1044D0008DE09AE03AC00E94F30B0297E0F18091E0
:1044E000650390916603892B69F08DE10E94D10BE1
:1044F0002091750330917603281739071CF483E067
:104500009AE023C00E94F30B20917303309174034F
:10451000220F331FC1E08217930708F4C0E08C2FED
:104520000E94F80BCC23B9F080916F039091700337
:10453000892B89F08BE10E94D10BEC010E94A6151A
:10454000C817D90744F489E09AE090933403809324
:10455000330381E001C082E0DF91CF910895809123
:104560002904089581E02091270430912804232B09
:1045700009F480E00895809127049091280408951B
:10458000809125049091260408950E94860C00973E
:1045900011F481E090E0BC0180E29EE40E941218D8
:1045A000813127E2920710F080E197E2089581308F
:1045B00020E8920710F080E090E890932804809320
:1045C00027040E941F070C94FB0CCF93DF93EC0190
:1045D0000E94C522BC01C817D90708F4BE0180910A
:1045E0002504909126046817790750F49C01261B36
:1045F000370B2D38310568F0BC016C58710909C0C2
:104600009B01281B390B2D38310518F0BC0164576C
:104610007F4F8617970759F07093260460932504FF
:104620008FE00E94A50DDF91CF910C94D722DF91EE
:10463000CF91089580912904811112C0109228040D
:1046400010922704109226041092250480E090E036
:104650000E94D72281E00E94090781E0809329040B
:10466000089580912904882389F080E090E00E94D9
:10467000D722109228041092270410922604109238
:10468000250480E00E9409071092290408951092E1
:10469000280410922704109226041092250480E02A
:1046A00090E00E94D72281E0809329040C9431236A
:1046B000FC01428153814115510591F0A081B181E6
:1046C000B7FF03C0B195A195B10928EE33E00E9470
:1046D000D13B9A0140E050E00E94133CC90108958B
:1046E00080E090E008950F93FC01CB01002341F09E
:1046F0004617570708F4CA016417750748F407C03E
:104700006417750708F4CA014617570708F4BA0179
:104710009783868391838083138212821582148209
:1047200033872287681B790B718760870F91089503
:10473000CF93DF93EC0188819981AA85BB85E885B9
:10474000F985309701F19B0140E050E0281B390BBF
:10475000410951090E94D83B9F01442737FD4095EC
:10476000542F0E94353C8A819B81280F391F411D9F
:10477000511D2115310581E04807510524F457FDED
:1047800005C0C90105C08FEF9FEF02C080E090E037
:10479000DF91CF910895DF92EF92FF920F931F93D5
:1047A000CF93DF93EC012A813B812417350720F456
:1047B000FA01E21BF30B03C0F901E41BF50B8C813A
:1047C0009D81969587958E179F0710F5E880F98053
:1047D0002417350740F48A01021B130BCB018E19F5
:1047E0009F097C0105C0E61AF70A8901041B150B15
:1047F000C7010E944214D82E888599850E944214D0
:10480000D81206C01D830C83F986E8861B870A87A9
:10481000DF91CF911F910F91FF90EF90DF9008955E
:104820000F931F93CF93DF93EC018B019A01A8851F
:10483000B9850E94D13B2A853B8540E050E00E942B
:10484000353CC801A0E0B0E082179307A407B50784
:104850001CF41F821E8204C0021B130B1F830E83D5
:10486000DF91CF911F910F910895EF92FF920F93D7
:104870001F93CF93DF93EC018B017A010E94CB232E
:10488000A701B801CE01DF91CF911F910F91FF9049
:10489000EF900C9410240F931F93CF93DF9300D0CD
:1048A00000D0CDB7DEB780E00E94C80B9A83898321
:1048B00081E00E94C80B29813A81281B390B3A8379
:1048C000298383E10E94D10B9C838B830AE214E04D
:1048D000AE014F5F5F4FF801608180E00E94210CC4
:1048E000AE014F5F5F4FF801608181E00E94210CB3
:1048F0000F900F900F900F90DF91CF911F910F911C
:104900000895CF93DF93D82F67EE79E08BEF99E08E
:104910000E94292EC0E082E10E94140E882399F0A3
:104920008FE10E94140E8D17A1F0C1110CC069ED2A
:1049300079E0DD2319F08BEF99E002C080EF99E078
:104940000E94292EC1E00E947535813021F780E058
:1049500001C081E0DF91CF910895CF93DF9300D024
:1049600000D0CDB7DEB7862F5A8349833C832B8393
:10497000AE014F5F5F4F60912A040E94210C0F909F
:104980000F900F900F90DF91CF910895FF920F93AA
:104990001F93CF93DF93F82E162F042F83E00E94EE
:1049A0001134812F0E94D10BEC010E94333A802FE9
:1049B0000E94C80BAC019E01602F812F0E94AD2484
:1049C000FF2049F081E0809329030E940C0D0E9492
:1049D000333A0E944B2481E0DF91CF911F910F91D8
:1049E000FF900C944E12AF92BF92CF92DF92EF9253
:1049F000FF920F931F93CF93DF93CDB7DEB76197ED
:104A00000FB6F894DEBF0FBECDBF8C017B016A01EB
:104A100060E070E0CE0101960E94922C8FEF8A87B1
:104A20008CE990E09A8389831D870C878FEF9FE73D
:104A30009F878E87198A188A6FEF7FE7CE010196CC
:104A40000E948A2861E0CE0101960E94332A082F35
:104A500087FD34C0682FCE0101960E947828B82EB9
:104A600080FDF0CF81FF25C0112707FD1095F701CC
:104A7000E00FF11FA4908A2D0E94140E882311F3D9
:104A80000E940C0D10922903CE0101960E94472925
:104A9000882359F0F601E00FF11F44916A2D8B2D08
:104AA000881F8827881F0E94C62481E080932903DD
:104AB000C9CFCE0101960E944729C4CF61960FB697
:104AC000F894DEBF0FBECDBFDF91CF911F910F9144
:104AD000FF90EF90DF90CF90BF90AF90089581E06E
:104AE00090E090932B0480932A0461E081E00E947F
:104AF000E60E81E00E948124882341F043EB53E0DD
:104B00006AEB73E089E193E00E94F3240C94230D97
:104B100081E090E090932B0480932A0461E080E090
:104B20000E94E60E109267004FED52E0BA0181EE4E
:104B300092E00E94F32481E0809367000C94230D9F
:104B40008F3019F4CB010C94D722CB010C94271C85
:104B50000F931F93CF93DF93EC01443019F06FEF65
:104B60007FEF02C061E070E02F85388901E010E03E
:104B700041E050E0CE010D960E947D146D857E854A
:104B80008B85DF91CF911F910F910C94A025CF922F
:104B9000DF92EF92FF920F931F93CF93DF93CDB7E6
:104BA000DEB769970FB6F894DEBF0FBECDBFC82E33
:104BB000E62E8A0161E081E00E94E60E80E00E941C
:104BC0008124882309F472C0CC2039F00E941A2372
:104BD00022E0D22E3FE0F32E06C00E94541C83E058
:104BE000D82E90E1F92E4E2D6F2DCE0146960E94C3
:104BF000040C4E2D6D2DCE0142960E94040C61ECEA
:104C000073E0CE0101960E94922C8FEF8A8724E9EF
:104C100030E03A832983FC86ED8620E030E8398B4A
:104C2000288B2E893F893F872E8761E0CE01019630
:104C30000E94332A87FD22C08111F3CF6E857F85C4
:104C40008F2D0E94A025CE0101960E94472988231E
:104C500079F00E940C0D198F088F2E853F853F8BB0
:104C60002E8B1D8B0C8B8D2D0E94C80B9B8B8A8BE2
:104C700060E070E08F2D0E94A025D3CFCC2019F0EA
:104C80000E94312302C00E94671CAE014A5E5F4F42
:104C90006E2D8F2D0E94210CAE014E5E5F4F6E2D4A
:104CA0008D2D0E94210C81E00E944E120E94230D46
:104CB00069960FB6F894DEBF0FBECDBFDF91CF91DE
:104CC0001F910F91FF90EF90DF90CF900895EF929A
:104CD000FF920F931F93CF93DF93CDB7DEB7299742
:104CE0000FB6F894DEBF0FBECDBF8C017B01BC01B7
:104CF000CE0101960E94922C60E0CE0101960E94A6
:104D0000332A682F87FD10C0E82FEE0FFF0BEE0D42
:104D1000FF1D4591549181E093E0053D190709F08D
:104D200080E00E94C725E8CF29960FB6F894DEBF31
:104D30000FBECDBFDF91CF911F910F91FF90EF90EC
:104D4000089510922B0410922A0461E080E00E94E2
:104D5000E60E4EE652E0BA0187EA92E00E94F324A2
:104D60000C94230D10922B0410922A0461E080E031
:104D70000E94E60E4DE652E0BA018FE692E00E94F4
:104D8000F3240C94230DCF93DF93CDB7DEB72A978E
:104D90000FB6F894DEBF0FBECDBF6BED73E0CE0152
:104DA00001960E94922C60E0CE0101960E94332A67
:104DB00087FD2AC08A870E94193A8A858230A9F025
:104DC0004CF4882379F08130E1F46BEC73E085EDED
:104DD00093E00FC0843099F07CF0853091F40E940C
:104DE00088250FC00E946F250CC067EC73E08FEC24
:104DF00093E00E94672605C00E94A12602C00E947F
:104E0000B2260E94293ACFCF109235032A960FB6C8
:104E1000F894DEBF0FBECDBFDF91CF910895CF9341
:104E2000DF93EC01842F0E94410D9E01369527955A
:104E3000A9014C0F5D1F8417950730F4C21BD30BDB
:104E400021E0C817D90708F020E0822FDF91CF9129
:104E5000089568EE73E080E00E94A50D2BE1289F85
:104E6000B001299F700D112440E088E799E60C9469
:104E70000F27CF93DF931F92CDB7DEB7482F68EE91
:104E800073E049830E94A50D2AE0289FB001299F65
:104E9000700D1124498180E197E20F90DF91CF914D
:104EA0000C940F27CF93DF931F92CDB7DEB7482F17
:104EB00064E670E049830E94A50D2AE0289FB001B6
:104EC000299F700D1124498188EE93E00F90DF91A6
:104ED000CF910C940F27CF930E94DA12C82F88230A
:104EE00041F10E942927C82F811105C081ED99E069
:104EF0000E94262F1EC08FE00E943927882329F0A8
:104F000082E00E943927811106C088EC99E00E9456
:104F1000262FC0E00EC080E10E945227882331F086
:104F200083E00E945227C82F811103C08CEB99E0C7
:104F3000EECF8C2FCF9108950C946B271F93CF93B6
:104F4000DF93EC01162F82E10E94140E81110EC036
:104F500067EE79E08BEF99E00E94292E8B858031F6
:104F600061F5DF91CF911F910C94671C612FCE01E9
:104F70000E948D2CCE0109960E94F033882311F0F7
:104F8000298501C02FEF332727FD3095812F90E031
:104F90002817390791F0111108C065E08D859E85AD
:104FA000DF91CF911F910C94E2370E948B0C67E048
:104FB000DF91CF911F910C947938DF91CF911F91A0
:104FC0000895CF93DF93DC011B96CD91DC911C9764
:104FD00090E080E0FE012EE0829FE00DF11D1124A3
:104FE0003296259134912115310599F01D964D91F8
:104FF0005C911E9737FF03C057FF09C03058242328
:105000003523232B21F0662329F061509F5F8F5FAA
:10501000E1CF892FDF91CF910895EF92FF920F9307
:105020001F93CF93DF93EC01F62E0E94E1279EE0C1
:10503000899F80011124EB85FC85E00FF11F85918C
:1050400094910E946A36E82ECE0109960E94F033B0
:10505000882311F0298501C02FEF332727FD3095D4
:105060006F2D70E026173707E1F06FE06E19EB85C2
:10507000FC85E00FF11F3596F490FF2029F0862F74
:105080008F190E94A6366F2D8B859C85800F911FEE
:105090000496DF91CF911F910F91FF90EF900C94A8
:1050A0007233DF91CF911F910F91FF90EF90089590
:1050B000CF93DF93EC010E94E1272B853C859EE096
:1050C000899F200D311D1124F90136964591549187
:1050D000CA01F901349624912150223030F4FA01AA
:1050E0004591559165917491CB01DF91CF910895D0
:1050F000CF93DF93EC010E94E127EB85FC859EE0D6
:10510000899FE00DF11D1124329685919491DF91D4
:10511000CF910895FF920F931F93CF93DF93EC01EC
:105120008B016A818B81680FCE010E94E127F82EE6
:105130001E870D876FEFCE010E94E1278C8310E060
:105140008C81181760F4612FCE010E94E1278F1126
:1051500004C08A81181B1B8302C01F5FF1CFDF913F
:10516000CF911F910F91FF9008959F92AF92BF92A0
:10517000CF92DF92EF92FF920F931F93CF93DF9323
:10518000CDB7DEB72C970FB6F894DEBF0FBECDBFFC
:105190007C01D62E942E0E9458288C016D2DC701BB
:1051A0000E94E127D7011B966D917C911C97BEE070
:1051B0008B9F600D711D1124685F7F4F46E050E0AA
:1051C000CE0107960E945A3C86E0FE013796DE012A
:1051D000119601900D928A95E1F729813A81CB8051
:1051E000DC80AD80BE80E2E09E1619F081E090E0A8
:1051F00002C08FEF9FEF2F3FFFE73F0729F4BC016D
:10520000C8010E94EA1416C02E3F4FE7340719F474
:10521000F601099520C0829FA001839F500D929FA7
:10522000500D1124D8018D919C911197840F951FD9
:105230008D939C93F801808191818C159D0514F4C8
:10524000D182C082D8018D919C911197A816B90680
:1052500014F4AD92BC92D7011F96ED91FC9150973A
:10526000309719F0B801C70109952C960FB6F8943C
:10527000DEBF0FBECDBFDF91CF911F910F91FF9089
:10528000EF90DF90CF90BF90AF909F900895EF92F6
:10529000FF920F931F93CF93DF93EC018B819A8141
:1052A000890F89871A8681E08D8382E0E82EFF24AA
:1052B000F3948E01075F1F4F0E947535482F82308F
:1052C00011F0843089F4E881F9816B818A81680F5B
:1052D0000280F381E02DCE0109958B819A81890F9F
:1052E0008987EA86FD8204C0813089F0883079F0B0
:1052F000C8010E94FB338111FD828D81882319F042
:10530000CE010E94CE298A858F5F8A87D5CF8FEF05
:10531000898781E08E838D83483009F080E0DF91BA
:10532000CF911F910F91FF90EF9008950895FC0188
:1053300084EA90E09183808312821382648381E007
:10534000858386830895FC018481823010F022E0F9
:1053500001C0282F9281492F50E030E021503109BF
:10536000421753071CF49F5F928308952381420FD5
:10537000511D90E001974817590714F42F5F2383BC
:105380000895FC018281882319F081508283089559
:105390008381882311F0815083830895FF920F93B6
:1053A0001F93CF93DF93EC0100E010E0F02E602F0D
:1053B00080E00E940F368A81081302C08EE301C08C
:1053C00080E20E9421366B819801260F311D8C816D
:1053D00090E02817390744F4E881F9816F0D0190B6
:1053E000F081E02DCE0109950E94AD360F5F1F4F71
:1053F00002301105D9F61D82DF91CF911F910F91D7
:10540000FF9008950F931F93CF93DF93EC010E94B9
:105410007535182F0E94DE39882321F081E08D83B5
:105420008FE71CC00B818A81080F123031F01430D5
:1054300039F4CE010E94A32903C0CE010E94C129E4
:105440008B819A81890F081711F081E08D838D81FE
:10545000882319F0CE010E94CE29812FDF91CF91B0
:105460001F910F910895EF92FF921F93CF93DF93B7
:105470001F92CDB7DEB77C0181E0F701858311E093
:10548000C70169830E94022A6981811102C0F70164
:105490001682F7019681911108C0883031F481E0BD
:1054A000868383819281890F09C0662311F0F701F9
:1054B0001583813029F79111E3CF8FEF0F90DF91A2
:1054C000CF911F91FF90EF900895CF93DF93CDB7C9
:1054D000DEB729970FB6F894DEBF0FBECDBF69EED9
:1054E00073E0CE0101960E94922C60E0CE010196FD
:1054F0000E94332A813039F0823041F0811109C095
:105500000E941F2CF2CF0E94C326EFCF0E94E5120B
:10551000ECCF87FFEACF29960FB6F894DEBF0FBE17
:10552000CDBFDF91CF9108950F931F93CF93DF935A
:10553000EC010E94D51501E010E09C0141E050E033
:10554000BE0185E593E00E947D14DF91CF911F910C
:105550000F910895CF93DF9380915103909152035F
:10556000892B51F10E946C15C1E0D0E002C0CC0F34
:10557000DD1F8A95E2F78091650390916603892B80
:1055800011F4D05C07C00E946C15882311F0DF5B1A
:1055900001C0DB5B0E946C15811106C080916F0316
:1055A00090917003892B59F480914F03909150038F
:1055B000892B39F0D05805C0C0E0D0E402C0DE5FCE
:1055C000F3CFCE01DF91CF910895CF93DF93EC011C
:1055D00083E06135780719F40E94F41613C083E064
:1055E0006335780719F40E94CF160CC083E0673545
:1055F000780719F40E94AF1605C06955734011F47D
:105600000E94BF160E94E9150E94AA2ABC01CE0181
:10561000DF91CF910C948A281F93CF93DF93CDB75E
:10562000DEB7E9970FB6F894DEBF0FBECDBF60E0DE
:1056300070E0CE0189960E94922C8FEF8AAB8CE9A4
:1056400090E09AA789A781EF93E09DAB8CAB8FEF99
:105650009FE79FAB8EAB85EE9AE299AF88AF18E2D9
:105660000E94AA2ABC01CE0189960E948A2860E085
:10567000CE0189960E94332A87FD1FC0E1E5F3E041
:10568000DE011196812F01900D928A95E1F7CE01EE
:1056900089960E94472981110AC0FE013196A1E531
:1056A000B3E0812F01900D928A95E1F7D9CF83E085
:1056B0000E9411340E94E915D3CFE9960FB6F894F1
:1056C000DEBF0FBECDBFDF91CF911F910895DC01EA
:1056D0001796ED91FC911897E60FF11D64918FE6F6
:1056E00095E00C9482360F931F93CF93DF93EC01D8
:1056F0008B0180E061E0680FF801E80FF11DE49193
:10570000E93011F0862FF6CFCE010E9497298AEA60
:1057100090E09983888318870F83DF91CF911F9141
:105720000F9108950E946C152091510330915203FE
:10573000232B59F0833061F0823069F0882371F0B7
:10574000853079F48CE294E0089589E594E0089539
:105750008EE394E0089580E594E0089587E494E072
:10576000089585E394E008951F93CF93DF93182F56
:105770000E9492160E94922BEC0160E0CE010E94E2
:10578000332A87FD15C0EF81F885E80FF11D87FDED
:10579000FA958491893049F4812F0E9492160E94D3
:1057A0000C2B812F0E94A016E5CF0E948913E5CF14
:1057B000DF91CF911F91089562EA75E089E594E049
:1057C0000E94732B68E975E080E594E00E94732BDA
:1057D0006BE875E087E494E00E94732B60E975E064
:1057E0008EE394E00E94732B65E875E085E394E016
:1057F0000E94732B63E875E08CE294E00C94732BA9
:105800008091390390913A030397029718F48FEF30
:105810009FE702C08EEF9FE72091490330914A0332
:10582000232B09F402970895CF93DF93EC010E9494
:10583000002CBC01CE01DF91CF910C948A281F93DC
:10584000CF93DF93CDB7DEB7AB970FB6F894DEBF3B
:105850000FBECDBF60E070E0CE014B960E94922C4F
:105860008FEF8CA38CE990E09C8F8B8F83EA95E07F
:105870009FA38EA38FEF9FE799A788A784E19CE25F
:105880009BA78AA71AE10E94002CBC01CE014B966F
:105890000E948A2860E0CE014B960E94332A87FD41
:1058A00030C0682FCE014B960E945828892B41F4B6
:1058B00087E393E00E94D21383E00E941134E3CF88
:1058C000E7E3F3E0DE011196812F01900D928A95B6
:1058D000E1F7CE014B960E94472981110AC0FE01D3
:1058E0003196A7E3B3E0812F01900D928A95E1F7FD
:1058F00003C083E00E94113487E393E00E94D81331
:10590000C2CF0E94E813AB960FB6F894DEBF0FBE6D
:10591000CDBFDF91CF911F910895FC0187819085C4
:105920000C9482360F931F93CF93DF93EC018B017E
:10593000CB010E940414682FCE010E94972980EBAE
:1059400090E09983888318870F83DF91CF911F910F
:105950000F910895613011F40C946D180C9445204A
:10596000CF93DF93D82FC62F8FE18D0F0E94140E97
:10597000882351F06C2F8D2F0E94AA2C4C2F66E0AB
:10598000DF91CF910C94F0378FE896E0DF91CF91C3
:105990000C946A360F931F93CF93DF93D82F062F63
:1059A0000E9415360E943318811108C083E090E0F0
:1059B0000E945819882341F080E209C080917F033A
:1059C000882321F082E403C08DE601C082E6909135
:1059D0009903911102C00E94213680919903882376
:1059E00049F110E0C1E090919B03191700F5412F98
:1059F00050E020919A03332727FD30954217530733
:105A000061F0809199038C2331F08091690480FFCB
:105A100004C082E003C081E001C080E00E94213622
:105A2000C03811F0CC0F01C0C0E01F5FDCCF88E0B0
:105A3000891B01C087E00E94A63611E01D0F812F4F
:105A40000E94AD378AE30E942136602F8D2F0E947D
:105A5000B02C0E94AD360E9419361630C8F4C2E050
:105A6000CD0F8C2F0E94AD378AE30E942136602F24
:105A7000812F0E94B02CC63059F083E08D0F0E9418
:105A8000AD378AE30E942136602F8C2F0E94B02C04
:105A9000DF91CF911F910F910C94AD3661E080E0C2
:105AA0000C94CA2C61E083E00C94CA2C66E080E080
:105AB0000C94CA2C66E083E00C94CA2CCF92DF923F
:105AC000EF92FF9280913503833021F0C12CD12CCD
:105AD000760105C0C12CD12CE12C80E4F82E8091F8
