:100000000C94F5050C941D060C941D060C941D060D
:100010000C9471090C941D060C941D060C941D067D
:100020000C941D060C94A1090C941D060C941D063D
:100030000C941D060C943B0A0C94700A0C941D063B
:100040000C944D090C941D060C941D060C941D0671
:100050000C941D06CF13DB13DF13E213E413E91333
:10006000E613E213CF13CE34D034D234D634D634A0
:10007000D434DA34D834000000003A65C52E0000CC
:1000800000003A65C52EF80132007C2BE80380049D
:100090003200001F2C0100000000000000000000E2
:1000A0000000000000000000000080A6CA30C24C22
:1000B0002A010C4958020000000043BFA80E0000AE
:1000C000000071D8681000000000AFD9681000006F
:1000D00000004067D007000000000FD66810000045
:1000E0000000C8D86810000000008AD86810F80125
:1000F00032007B2BE8039A0132007A0B2C010006B8
:100100000800FF01010A01060900FF0302000206C0
:100110000A00FF00000A06060E00FF0302000506A3
:100120000D00FF02030004060C00FF03020003069B
:100130000B00FF04060007060700FF030200420150
:1001400000006F7074696F6E7300460003008813BF
:100150007017010032003200102700000000030079
:100160000000000080250000004B00000096000009
:1001700000E1000000C201000100010001000100D7
:100180000100B0040807520300005203B00408073E
:10019000E8030000E803D0079209D60600006C07C8
:1001A000E40C100ED007E40CB80B100E0410C409B8
:1001B000A60EAC0D740E6810B80B0A0F890C740EE5
:1001C000CC10B80B0A0F890C740EFE10B80B0A0F76
:1001D000890C40066C071405400678050100A00F45
:1001E000D007010001000100A00F01000100010083
:1001F000040000010202020202030405B80AAE0A6A
:10020000A90AA40A9F0A9A0A950A900A8B0A860AE2
:10021000B30A820A4F1994197E1AD61AE11AEC1AF7
:10022000FD1BF91B2D1CCE1C601DDA1C691D661DF3
:10023000701D971D9E1DC11D2320F31FF91F6622EF
:10024000E11A6822077B08020044006802010000EE
:100250000010277608FF7F4900B20200000000006E
:1002600000AA080400490030040100000001000059
:100270000000000000000000000000000000016F0E
:1002800008020041005A0201000000786967080274
:100290000041005C02010000007869AA08040049DE
:1002A0000030040100000001000000000000000018
:1002B00000000000000000DF08820041006602012B
:1002C0000000003075DA0882004100980201000049
:1002D000008813D508820041009A020100000088BE
:1002E00013D008820041009C02010000008813CB5B
:1002F00008820041009E02010000008813C60882A7
:10030000004100A002010000008813C108820041E2
:1003100000A202010000008813BB08FF7F4100809B
:1003200002000000000000B508FF7F41007E0200CF
:100330000000000000AA0804004900300401000089
:1003400000010000000000000000000000000000AC
:100350000006090A0B0C0D0E061F202122232489FA
:10036000088108000064002C016400E803970891EC
:10037000080000A4089D08000014090B09FF08F3F9
:1003800008E4080000D50ACB0ABD0A0000F909FFFD
:100390007F02000705010000000B00F6090F0003B3
:1003A00000C131FE7FA52A0000E0091F0045005969
:1003B00003FF7F6400F47EDC093F0040005D03FF23
:1003C0007F01000C17D1091F0040005F03FF7F0170
:1003D00000D00783093F004C006903FF7F0000E85D
:1003E00003F2090E8041006103010000008813F24E
:1003F00009100041006103320000007869E509013D
:1004000080410061030100B004D007E509200041EC
:10041000006103FF7F01007869EE090480410075E7
:1004200003010000008813EA090F80410063030103
:100430000000008813EA0910004100630332000045
:10044000007869D5091E8040006503FF7F01000C1C
:1004500017CA091F8040006703FF7F0100D007C053
:10046000090C804800770301000300C800B70901A8
:10047000004D007503010000000100B209000248B0
:100480000077030100ECFF0000A60900024B007991
:1004900003010001000A009D091F004D006B0301CC
:1004A0000000000100950900044A067B030A000AC7
:1004B0000084038909000144036D0364005802AC01
:1004C0002679091F004700730301000100FA006D3F
:1004D000090F0049007D0301000000050063091FAA
:1004E000804B00710301000100630058091F804D1B
:1004F000006F030100000001000000000000000088
:1005000000000000000000FC015703490B3A0B32C9
:100510000B280B1C0B140B050BFA0AEB0ADE0A0066
:100520000900030407080900030708090001020382
:100530000407080900010203040506070809097CED
:100540000AFF7F4D004503010000000100740AFF0F
:100550007F4000470301000100F4016C0AFF7F4067
:1005600000490301000100F401600AFF7F41034BD1
:1005700003E803581B3075550AFF7F4D004D0301FA
:1005800000000001004F0AFF7F0200D705010000B4
:10059000000400470A02000100D305010000000426
:1005A00000400AFF7F0200CB050100000001003A75
:1005B0000AFF7F00000000000000000000000000B3
:1005C0000000000000000000000000CF0555030BF4
:1005D0000A020A64015103DB054F03310A2A0A2487
:1005E0000A1B0A120A20202D2D2020006368656155
:1005F0006C692D636861726765720A76312E3939CC
:100600005F32303135303932300063616C6962619C
:1006100074696F6E206572726F7200706C656173C1
:10062000652063616C6962726174650065657072F2
:100630006F6D2072657365740A6572726F723A200D
:1006400000726573657474696E6720656570726F9A
:100650006D002020202020202020202020207965CF
:100660007300656570726F6D2072657365743A0012
:100670005245564552534520504F4C4152495459CA
:10068000006572726F723A2020202000636F6D70D7
:100690006C6574653A2000053200000040000000DF
:1006A000003C330040000000000040C42FFFFFFF6B
:1006B0007F040000401231FFFFFF7F04000040086C
:1006C00030FFFFFF7F04000000CC30000200000874
:1006D000000040DA300002000008000040F0300066
:1006E00002000000000040572D00000060000000E4
:1006F000005B2D00000060000000005F2D00000086
:100700002004000040632D00000020040000408F02
:1007100030FFFFFF7F040000404F30FFFFFF7F00EE
:10072000000040AF30FFFFFF7F00000000833280F9
:10073000010000000000406931FFFFFF7F00000062
:10074000000000FFFFFF7F00000000250064656CD3
:10075000746120543D20004E2F4100546578743D53
:100760000064656C746120563D20006D6178566FA1
:1007700075743D002D00546578743D00206C696DE2
:1007800069743D0056696E7075743D0077697265D5
:100790007320523D00626174742E20523D0062202D
:1007A000004C696D6974733A20006E6F2064542F99
:1007B000740058090F004D006F0301000000010094
:1007C000F2090E00410061030A0000008813EA09E3
:1007D0000F00410063030A000000881300000000BE
:1007E00000000000000000000000252000436843D6
:1007F00042426C4469464353745342435943430055
:1008000001010308141E0101FA7D3C1E0A01E803E0
:1008100001DB0BE80300D90B640000D70B64000078
:10082000D40B640000D20BE80301CF0BE80301CD29
:100830000B010000CB0BE80301D90B010000C40B36
:10084000640000C70B010000C50B010000C50B01CF
:1008500000000000010000C20B141719181A070548
:10086000061F2021222324566D696E75733A0056A7
:10087000706C75733A006164633A0074656D703A28
:1008800000496F75743A20200076616C75653A20D6
:10089000003330306D41003130306D410031303047
:1008A000306D41003130306D410063616C69622E02
:1008B00020702E3A00566F75743A0056312D363A34
:1008C000005662363A005662353A005662343A00B3
:1008D0005662333A005662323A005662313A005656
:1008E000696E3A006578706572742044414E4745E0
:1008F00052210074656D702065787465726E0049D0
:100900002064697363686172676500492063686188
:1009100072676500766F6C746167650062616C6117
:100920006E636520706F7274210062617474657209
:10093000792100646973636F6E6E65637400636F21
:100940006E6E6563740064542F6474002D645600E9
:1009500056206C696D69740061646170742064690B
:10096000733A00442F4320726573743A00442F4356
:10097000206379636C65733A0063617020434F664E
:10098000663A0074696D653A007C657874726E2011
:1009900054434F3A007C64542F64743A0065787471
:1009A000726E20543A007C69676E722066727374AE
:1009B0003A007C64563A00656E61622064563A00E3
:1009C00062616C2E206572723A006D696E49643AFC
:1009D0000049643A006D696E49633A0049633A0020
:1009E0004361703A0056636F3A0056643A0056739A
:1009F0003A0056633A00563A00626174746572793F
:100A00003A00616476616E6365640073696D706C51
:100A100065006578742E20416463006578742E202B
:100A2000646562006465627567006E6F726D616C0B
:100A30000064697361626C6564007265736574005B
:100A40006D656E75733A007C73706565643A005528
:100A50004152543A00616463206E6F6973653A00D5
:100A6000696E707574206C6F773A20006D696E2026
:100A700049643A006D696E2049633A0062656570A9
:100A80003A004C4544004E695A6E004C34333500F0
:100A90004C343330004C69706F004C696C6F004C03
:100AA0006966650050622020004E694D48004E691D
:100AB000436400556E6B6E004E6F6E650072657319
:100AC00065742064656661756C740063616C69624D
:100AD000726174650073657474696E677300656430
:100AE0006974206261747465727900636170616316
:100AF00069747920636865636B00443E4320666FC8
:100B0000726D61740073746F726167652B62616CE2
:100B1000616E630073746F72616765006661737400
:100B200020636861726765006469736368617267F6
:100B3000650062616C616E63650063686172676520
:100B40002B62616C616E636500636861726765004A
:100B50006578742E74656D702E6375746F666600AB
:100B600074696D65206C696D69740063617061639F
:100B7000697479206375746F666600696E70757448
:100B8000205620746F206C6F77004857206661698B
:100B90006C7572650062616C616E63657220646978
:100BA00073632E0062617474657279206469736383
:100BB0002E006E6F6C696D697400206E6F00796530
:100BC00073005500006D00432F6D002500F40041B7
:100BD0006800430057680057005600410000B806FF
:100BE000A70B5712ED2B3E2F8B3111241FBECFE5E3
:100BF000D8E0DEBFCDBF10E0A0E6B0E0ECE6F9E75C
:100C000002C005900D92A23BB107D9F714E0A2EB08
:100C1000B0E001C01D92A93CB107E1F71BE0CAEEAC
:100C2000DBE004C02297FE010E94593CCE3DD10773
:100C3000C9F70E9450120C94B43C0C94000086B387
:100C400080958170B19B02C090E001C092E0892B39
:100C5000B29B02C090E001C094E0892BB39B02C01C
:100C600090E001C098E0892B0895882339F0A69A76
:100C7000A79AD59A889A8A9A8F9A0895A698A7983B
:100C8000D59888988A988F98089520E042E060E18E
:100C900083EB90E00E9483390E94240A0E94F707A8
:100CA00088E799E60C9424078091B900882331F0F5
:100CB0008091B2008F5F8093B20002C01092B200A8
:100CC0008091B9008A3010F480E001C088E09091F2
:100CD000B900943108F084E09091B9009E3108F099
:100CE00082E09091B200982311F0C49A0895C498BC
:100CF00008958093B9000895811106C0939A0E94C7
:100D00004D0780E00C9444079398089580FF02C03B
:100D1000AE9A01C0AE9881FF02C0AF9A01C0AF98F1
:100D200082FF02C0DD9A01C0DD9883FF02C0909A65
:100D300001C0909884FF02C0929A01C0929885FFEA
:100D400002C0979A08959798089580E00E948606B9
:100D500080E00E947C061092B90087B18F7387B93A
:100D60008B9A8D9AD79ABC9A8C9A8D9A8E9A08955E
:100D700083EB90E00C94D8392FB7F8948091BB00A6
:100D80009091BC00A091BD00B091BE002FBF892FF3
:100D90009A2FAB2FBB27A7FDBA9508952FB7F894CC
:100DA0001092C2001092C1008617970768F480E085
:100DB00090E4A0E0B0E08093BB009093BC00A093CF
:100DC000BD00B093BE0008C01092BB001092BC00E2
:100DD0001092BD001092BE008091BB009091BC00AB
:100DE000A091BD00B091BE00BA2FA92F982F8827DF
:100DF0008093BB009093BC00A093BD00B093BE0055
:100E000081E08093BA002FBF0895CF93DF93EC0168
:100E1000C13080E6D80758F4C13080E4D80748F4E0
:100E20008EE00E94300A9598BE018DE009C0C0E0B6
:100E3000D0E68DE00E94300A949ABE0170548EE094
:100E4000DF91CF910C940E0A893729E6920710F0B2
:100E500088E799E6BC0180E00E94350E813C2FEFC7
:100E6000920710F080EC9FEF2FB7F8949093C0009A
:100E70008093BF002FBF08952FB7F8949093C200BE
:100E80008093C1002FBF0895882329F080E00E943D
:100E90004D07DF980895DF9A0895CF93DF93C82F09
:100EA000882319F080E00E944407DFB7F8948DE0B2
:100EB0000E94300A94988EE00E94300A9598109211
:100EC000BA00DFBFC11104C0969ADF91CF91089597
:100ED000969880E00E94610CEC0186E00E94610C13
:100EE000BE01DF91CF910C94CE060F931F9380919A
:100EF000BA00882309F474C080E00E946A0C209133
:100F0000BF003091C0008217930730F080E00E944C
:100F10004D071092BA0064C082E00E946A0C4091B2
:100F2000C1005091C20060E070E00091BB001091E0
:100F3000BC002091BD003091BE00481B590B6109D7
:100F40007109E2E0440F551F661F771FEA95D1F73C
:100F5000040F151F261F371F0093BB001093BC0002
:100F60002093BD003093BE008091BB009091BC00E7
:100F7000A091BD00B091BE00B7FF08C01092BB00A9
:100F80001092BC001092BD001092BE008091BB0078
:100F90009091BC00A091BD00B091BE000197A04609
:100FA000B10560F080E090E0A0E6B0E08093BB0087
:100FB0009093BC00A093BD00B093BE008091BB0095
:100FC0009091BC00A091BD00B091BE00892F9A2FD6
:100FD000AB2FBB27A7FDBA951F910F910C94050766
:100FE0001F910F910895BC018EE00C940E0ADE98BB
:100FF000D698BD9ABE9ABF9A8EEA86B9369A089557
:1010000084B135B1E091CC002FB7F89490E0932BE8
:10101000F0E0DF01AA0FBB1FAA53BD4F11969C93AE
:101020008E933091C500332391F0EE0FFF1FEE0F2A
:10103000FF1FE851FD4F4081518162817381480F4C
:10104000591F611D711D40835183628373832FBFBC
:101050000895CF930E94D5229093E5028093E402F5
:101060000E945B1C9093E7028093E6028091C5008A
:10107000882309F459C00E94D5224091240350913D
:1010800025036091260370912703CAE09C01C29F4B
:10109000C001C39F900D1124480F591F611D711D80
:1010A00040932403509325036093260370932703F2
:1010B0000E945B1C409128035091290360912A03F0
:1010C00070912B039C01C29FC001C39F900D1124FE
:1010D000480F591F611D711D409328035093290328
:1010E00060932A0370932B0380912C0390912D031E
:1010F0000197B9F48091F0029091F102A091F2026F
:10110000B091F30252E0B695A795979587955A95B9
:10111000D1F78093F0029093F102A093F202B09382
:10112000F302CF910C940E0FCF91089580914D034F
:1011300090914E03892BE9F04091C9004423C9F0F6
:1011400081E090E00090C70002C0880F991F0A94C8
:10115000E2F720912C0330912D032F703FB7F894C4
:101160005BB39BB3982B9BBB240F2A95F1F75BBB1A
:101170003FBF08958091C4008F5F803108F080E008
:101180008093C4008091C6009091C700A091C800D0
:10119000B091C9008093CA009093CB00A093CC007B
:1011A000B093CD00E091C400EF5FE03108F0E0E0E3
:1011B00084E0E89FF0011124E250FF4F8591959162
:1011C000A591B4918093C6009093C700A093C800E6
:1011D000B093C90080914F0390915003892B39F04F
:1011E0008091C600873019F486E08093C600809114
:1011F000C40081110CC00E94290880912C03909199
:101200002D0321E0892B09F420E02093C5000895E7
:101210000E9400088091C30091E0980F9093C30052
:10122000873079F128F4882341F08130A9F00895BE
:10123000883049F1893061F108958091C60087FDB9
:1012400005C088B38F71806C88BBD69A8091CC0022
:10125000823011F50C9475078091C60087FD1CC083
:101260004FB7F8943AB33F7B28B38091C60050E261
:101270008502C00111242F71282B28BB3ABB4FBF18
:1012800008950C9496088091C700806287B90895EC
:101290001092C3000C94BA0808951F920F920FB6D3
:1012A0000F9211242F933F934F935F936F937F93EC
:1012B0008F939F93AF93BF93EF93FF930E9408097F
:1012C000FF91EF91BF91AF919F918F917F916F911E
:1012D0005F914F913F912F910F900FBE0F901F90F4
:1012E00018951F920F920FB60F9211242F933F93D0
:1012F0004F935F936F937F938F939F93AF93BF931E
:10130000EF93FF930E940C35FF91EF91BF91AF9146
:101310009F918F917F916F915F914F913F912F910D
:101320000F900FBE0F901F90189588E085BD85B572
:10133000846085BD14BC8CE783BD89B7806889BF94
:1013400008951F920F920FB60F9211242F933F937F
:101350004F935F936F937F938F939F93AF93BF93BD
:10136000EF93FF932091D4003091D5008091D0006D
:101370009091D100820F931F9093D1008093D00061
:101380002091D2003091D3008091CE009091CF0077
:10139000820F931F9093CF008093CE002FB7F894C5
:1013A0008091D0009091D10035E0969587953A953F
:1013B000E1F79BBD8ABD8091CE009091CF0045E0C2
:1013C000969587954A95E1F799BD88BD2FBF809185
:1013D000D0009091D1008F7199279093D100809384
:1013E000D0008091CE009091CF008F71992790937B
:1013F000CF008093CE000E945406FF91EF91BF91E1
:10140000AF919F918F917F916F915F914F913F919C
:101410002F910F900FBE0F901F9018959FB7F894C3
:101420008E3039F47093D5006093D4008FB5806806
:1014300008C08D3039F47093D3006093D2008FB51B
:1014400080628FBD9FBF089580E092E097BD86BD0A
:1014500082E08FBD89E18EBD89B7846089BF089520
:101460008E3019F48FB58F7704C08D3019F48FB595
:101470008F7D8FBD08951F920F920FB60F9211248A
:101480002F933F934F938F939F93EF93FF935A998B
:101490001AC04CB18091EC019091ED010196992711
:1014A0002091EE013091EF018217930769F0E091EE
:1014B000EC01F091ED01E451FF4F40839093ED0179
:1014C0008093EC0101C08CB1FF91EF919F918F91BE
:1014D0004F913F912F910F900FBE0F901F90189535
:1014E0001F920F920FB60F9211242F933F938F9359
:1014F0009F93EF93FF932091EC013091ED01809148
:10150000EE019091EF012817390711F4559812C098
:10151000E091EE01F091EF01E451FF4F20818091C5
:10152000EE019091EF01019699279093EF0180933E
:10153000EE012CB9FF91EF919F918F913F912F91E7
:101540000F900FBE0F901F901895CF92DF92EF92E1
:10155000FF92CF93DF93EC016A017B01411581EE8D
:10156000580761057105F9F0E885F98581E090E09B
:101570000C8802C0880F991F0A94E2F7808360E00C
:1015800079E08DE390E0A70196010E94163C21507E
:1015900031094109510956954795379527952115E8
:1015A00080E1380798F0E885F985108260E874E8F2
:1015B0008EE190E0A70196010E94163C215031096E
:1015C000410951095695479537952795EC81FD813D
:1015D0003083EE81FF8120831D8AEA85FB8540816F
:1015E00081E090E09C01098802C0220F331F0A9419
:1015F000E2F7422B4083EA85FB8540819C010A8803
:1016000002C0220F331F0A94E2F7422B4083EA857F
:10161000FB8520810B8802C0880F991F0A94E2F78E
:10162000809582238083DF91CF91FF90EF90DF90B0
:10163000CF900895CF93DF93FC0182819381DC01E9
:10164000B395EC01CE5FDE4F4D915C9111972881EF
:10165000398142175307C1F7A285B3854C9181E0C8
:1016600090E09C01018802C0220F331F0A94E2F728
:10167000209524232C93A285B3854C919C0102884C
:1016800002C0220F331F0A94E2F7209524232C93E3
:10169000A285B3852C91038802C0880F991F0A94F4
:1016A000E2F7809582238C9380819181FC01EE5F2B
:1016B000FE4F20813181FC01F39531832083DF913E
:1016C000CF910895FC018589882329F0A085B185F3
:1016D0008C9186FFFBCF158A0895CF93DF93FC0191
:1016E00022813381D901B3958D919C9111970196F7
:1016F0009927E901CE5FDE4F48815981841795070C
:10170000D9F30D90BC91A02DA20FB31F6C93A281B1
:10171000B381B39511969C938E93A285B3852C913A
:1017200081E090E0038802C0880F991F0A94E2F7D5
:10173000282B2C9381E0858B0084F185E02D80811E
:101740008064808381E090E0DF91CF9108958CEEFA
:1017500090E09093D7008093D6009093D900809327
:10176000D80080E490E09093DB008093DA0029E2D7
:1017700030E03093DD002093DC002BE230E030934A
:10178000DF002093DE002AE230E03093E100209376
:10179000E0009093E3008093E2008CE290E090936D
:1017A000E5008093E40084E08093E60083E080938A
:1017B000E70087E08093E80085E08093E90081E01E
:1017C0008093EA000895CF93DF931F92CDB7DEB7E1
:1017D000E091C504F091C604309711F4E9ECF4E00F
:1017E000CE0101962EEB8E179F0710F02193FBCFB1
:1017F0000F90DF91CF910895CF93DF9300D0CDB7B5
:10180000DEB72091C5043091C6042115310511F4CD
:1018100029EC34E0CE010196821B930B0F900F90C0
:10182000DF91CF910895CF93DF931F92CDB7DEB7AD
:101830002091C5043091C6042115310511F429EC1D
:1018400034E0F901AE014F5F5F4FCF01821B930B74
:101850004E175F0728F060816E3B11F43196F5CF8B
:101860000F90DF91CF910895009741F0EFE9FFE0ED
:101870003197F1F700C000000197F6CF0895843644
:10188000910538F064E670E00E94023CCB010C94B4
:10189000340C019728F025E32A95F1F70000F9CFE1
:1018A00008956AE070E00E94023CCB010C943F0C6A
:1018B000E82FF0E0EE0FFF1FEC55FD4F8081918186
:1018C0000895E82FF0E0EE0FFF1FE65AFD4F8081EC
:1018D000918108952FB7F894E82FF0E0EE0FFF1FE5
:1018E000EA53FD4F808191812FBF089580912F038E
:1018F000089580910E0290910F0208958091FC014D
:101900009091FD0108958091FE019091FF0108954D
:101910008093F9010895E82FF0E0EE0FFF1FE05FDC
:10192000FD4F808191810895262F613110F442305E
:1019300040F021E030E0FC013383228331832083B7
:10194000089550E0BA01620F711D620F711D660F9C
:10195000771F660F771F645F7F4F44E050E00C9461
:101960006F3C282FCA01213188F4623078F470E08E
:10197000620F711D620F711D660F771F660F771F53
:10198000645F7F4F44E050E00C948D3C0895FF92DB
:101990000F931F93CF93DF9300D000D0CDB7DEB766
:1019A00006E710E0F12CF80145915591659174918D
:1019B00049835A836B837C83AE014F5F5F4F60E046
:1019C0008F2D0E94B10CF801349645915591659187
:1019D000749149835A836B837C83AE014F5F5F4F61
:1019E00061E08F2D0E94B10CF394085F1F4F81E1DD
:1019F000F812D9CF81E00E94DE120F900F900F9065
:101A00000F90DF91CF911F910F91FF90089581E08A
:101A100020918402309185022331310509F080E064
:101A200008958091820290918302089580917E02B0
:101A300090917F0208958091880290918902089583
:101A40008091380290913902039750F080913E02C4
:101A500090913F02039720F083E090E00C94C0192E
:101A600080E008952FB7F89480E090E0FC01EE0F3D
:101A7000FF1FEE0FFF1FE851FD4F108211821282EF
:101A8000138201968131910589F784E690E0909365
:101A90002D0380932C0310922E032FBF0895CF9314
:101AA000CFB7F89410920D0210920C021092080217
:101AB0001092090210920A0210920B021092040274
:101AC0001092050210920602109207021092000274
:101AD0001092010210920202109203020E94343509
:101AE0009093FB018093FA01CFBFCF9108950E949C
:101AF0004F0D1092FF011092FE011092FD01109205
:101B0000FC010895E0E1F2E01192119282E0EA35E1
:101B1000F807D1F70895CF93CFB7F89481E090E01C
:101B200090932D0380932C0381E080932E030E94D9
:101B3000820DCFBFCF910895CF93DF930E948B0D7D
:101B4000C0910E02D0910F0280910E0290910F026F
:101B5000C817D90729F48AE090E00E945A35F4CFDB
:101B6000DF91CF91089510922F0380E00C947C06B2
:101B7000CF93DF9381E00E946A0CEC0180E00E9429
:101B80006A0C8C179D0718F4C81BD90B02C0C0E063
:101B9000D0E081E0C93ED34008F480E0DF91CF91EE
:101BA00008958F929F92AF92BF92CF92DF92EF9261
:101BB000FF92CF93DF93CDB7DEB728970FB6F89497
:101BC000DEBF0FBECDBFF82E5B0161157105D1F1EF
:101BD00040E0682FCE0105960E94940C41E06F2DE5
:101BE000CE0101960E94940C2B813C8140E050E094
:101BF000CF80D884E12CF12C2C193D094E095F09C6
:101C0000B50180E090E08D809E80A12CB12C6819F8
:101C100079098A099B090E94E63B29813A8140E0C3
:101C200050E0281939094A095B090E94383C2C0DFB
:101C30003D1D4E1D5F1D57FF03C020E030E0A90190
:101C4000C90102C080E090E028960FB6F894DEBF8C
:101C50000FBECDBFDF91CF91FF90EF90DF90CF907F
:101C6000BF90AF909F908F9008958F929F92AF9268
:101C7000BF92CF92DF92EF92FF92CF93DF93CDB7D7
:101C8000DEB728970FB6F894DEBF0FBECDBFF82E93
:101C90005B0161157105D1F140E0682FCE01059619
:101CA0000E94940C41E06F2DCE0101960E94940C8D
:101CB00029813A8140E050E0CD80DE80E12CF12C9A
:101CC0002C193D094E095F09B50180E090E08F8035
:101CD0009884A12CB12C681979098A099B090E9462
:101CE000E63B2B813C8140E050E0281939094A0944
:101CF0005B090E94383C2C0D3D1D4E1D5F1D57FF9A
:101D000003C020E030E0A901C90102C080E090E0FA
:101D100028960FB6F894DEBF0FBECDBFDF91CF91EE
:101D2000FF90EF90DF90CF90BF90AF909F908F90FB
:101D300008958250893130F4E82FF0E0EF58FF4FDA
:101D40008081089581E00895CF93DF93833149F432
:101D500081E0209184023091850223313105C1F464
:101D60001AC0E82FF0E0EE0FFF1FE65AFD4FC081CA
:101D7000D1810E94990E882319F0813029F00AC080
:101D800081E0E39740F404C081E0C935D24018F403
:101D900080E001C081E0DF91CF910895CF93C0E052
:101DA0008FE18C0F0E94A40E882329F0CF5FC630EC
:101DB000B9F786E001C08C2FCF9108951F93CF9380
:101DC000DF931F92CDB7DEB7182F69830E94990E5B
:101DD000E12FF0E0EE0FFF1FE65AFD4F482F69811B
:101DE000808191810F90DF91CF911F910C94F137F9
:101DF0002FB7F8946091F5017091F6018091F70189
:101E00009091F8012FBF2DE730E040E050E00E94B4
:101E1000163CBB27A52F942F832F089580912C0368
:101E200090912D03892B49F080912C0390912D03E3
:101E3000019790932D0380932C03089590E0880FD1
:101E4000991FFC01E65AFD4F20813181621773070B
:101E500018F4261B370B04C0AB01421B530B9A012D
:101E6000FC01E05FFD4F2730310518F01182108230
:101E700006C0208131812F5F3F4F31832083FC01D9
:101E8000E65AFD4F7183608308958FB7F8941092DE
:101E9000F5011092F6011092F7011092F8011092DC
:101EA000F1011092F2011092F3011092F4018FBF30
:101EB0000E948B0D0E94770D60E070E089E10E9426
:101EC0001E0F60E070E08BE10E941E0F60E070E08A
:101ED0008CE10E941E0F60E070E08DE10C941E0FFB
:101EE00010920F0210920E020C94450FCF93DF93C5
:101EF0001F92CDB7DEB790912F0391110FC0698368
:101F00000E947C06698161110E94700F81E08093BC
:101F10002F030F90DF91CF910C949C0D0F90DF91C8
:101F2000CF9108950C94700F80912F03882309F4AA
:101F30004FC040918802509189028091F5019091A3
:101F4000F601A091F701B091F801840F951FA11D32
:101F5000B11D8093F5019093F601A093F701B09322
:101F6000F8018091F00191E0980F9093F00188358D
:101F700078F120917E0230917F02DA010E94C53B08
:101F800024E630E040E050E00E94163C8091F101F0
:101F90009091F201A091F301B091F401280F391F43
:101FA0004A1F5B1F2093F1013093F2014093F3012C
:101FB0005093F401CA01B90120EA3CE840E050E046
:101FC0000E94163CB9018AE10E941E0F1092F00196
:101FD0000895CF92DF92EF92FF920F931F93CF93CA
:101FE000DF931F92CDB7DEB7C0905A02D0905B024C
:101FF00080915C0290915D028C159D0518F4C81AC1
:10200000D90A02C0C12CD12CB60182E10E941E0F58
:102010000CE612E09FE1F801619171918F01892F27
:1020200099830E941E0F99819F5F9532A1F70E94AC
:10203000CE0EF82E80E000E010E08F1569F0EFE1A1
:10204000E80FF0E0EE0FFF1FE65AFD4F20813181CF
:10205000020F131F8F5FF1CFB80183E10E941E0FA3
:102060000115110581F00C151D0520F49601201BAA
:10207000310B03C098012C193D09293B3B4018F452
:10208000680113E102C012E1F12CB60184E10E9463
:102090001E0F6F2D70E086E10E941E0F612F70E011
:1020A00085E10E941E0F0E94F80E7C010E944F1CC9
:1020B000882329F000916002109161020BC00E94F8
:1020C000C922882329F000915E0210915F0202C0AC
:1020D00000E010E0B80187E10E941E0FB70189E11E
:1020E0000E941E0F9801D6010E94C53B20E137E2F5
:1020F00040E050E00E94163CB90188E10F90DF916A
:10210000CF911F910F91FF90EF90DF90CF900C94A3
:102110001E0F1F93CF93DF93182FC82FD0E0FE011F
:10212000EE0FFF1FEE0FFF1FE851FD4F6081718121
:102130008281938128EE33E040E050E00E94163C1B
:10214000FE01EE0FFF1FEC55FD4F31832083B901D7
:10215000812F0E94D10DBC01812FDF91CF911F9162
:102160000C941E0F4F925F926F927F928F929F926C
:10217000AF92BF92CF92DF92EF92FF92CF93DF9315
:10218000CDB7DEB728970FB6F894DEBF0FBECDBF30
:102190000E9434352091FA013091FB01821B930B90
:1021A0008133954708F4A4C04FB7F89420910C02EE
:1021B00030910D02A8EEB3E00E94C53B6B017C019B
:1021C000F694E794D794C79440900802509009027F
:1021D00060900A0270900B026091040270910502F7
:1021E0008091060290910702809000029090010277
:1021F000A0900202B09003024FBF6D837E838F8355
:1022000098870E944F0D2091FE013091FF012F5FB2
:102210003F4F3093FF012093FE016D817E818F81BE
:102220009885A70196010E94163C29833A834B8327
:102230005C83C301B201A70196010E94163CB9015B
:1022400080E00E94D10D3C0169817A8181E00E9489
:10225000D10D8615970518F4681A790A02C0612C09
:10226000712C40909202509093026414750420F4F3
:102270008091F901811104C0B3018CE10E941E0F0D
:10228000B301641975098BE10E941E0FC501B401E9
:10229000A70196010E94163CB90187E00E94D10D6A
:1022A0002091FC013091FD019093FD018093FC0190
:1022B000BC01621B730B660F771F8DE10E941E0F1E
:1022C000B6018EE128960FB6F894DEBF0FBECDBFE3
:1022D000DF91CF91FF90EF90DF90CF90BF90AF90C4
:1022E0009F908F907F906F905F904F900C941E0FF7
:1022F00028960FB6F894DEBF0FBECDBFDF91CF9109
:10230000FF90EF90DF90CF90BF90AF909F908F9015
:102310007F906F905F904F900895CF932FB7F89470
:1023200080912C0390912D032FBF892B09F08DC034
:1023300080912E03811186C080912F03882309F498
:102340007EC080910E0290910F02019690930F0231
:1023500080930E024091E8025091E9026091EA02F6
:102360007091EB0276956795579547958091080295
:1023700090910902A0910A02B0910B02840F951F5F
:10238000A61FB71F8093080290930902A0930A0228
:10239000B0930B024091EC025091ED026091EE027D
:1023A0007091EF0276956795579547958091040255
:1023B00090910502A0910602B0910702840F951F2B
:1023C000A61FB71F8093040290930502A0930602F4
:1023D000B0930702409104035091050360910603F6
:1023E0007091070376956795579547958091000200
:1023F00090910102A0910202B0910302840F951FF7
:10240000A61FB71F8093000290930102A0930202BF
:10241000B093030280910C0290910D02019690936B
:102420000D0280930C020E94B210C0E08C2F0E941B
:102430008910CF5FC131D1F70E94E90F03C085E059
:102440000E948910CF910C94320DCF9108950C9475
:102450008D1160E080E393E00E94442A87FD0AC06A
:10246000811102C00C94762A992787FD90950197D7
:102470000C94C52B08950E94A50678940E944506E9
:102480000E9495090E9461230E94C91C0E94920F1C
:102490000E94E30B0E9462140E941D2E0C94362FA2
:1024A0000E943B120E946A130E942912FDCF6EE324
:1024B00071E080E393E00E949B2C8EE890E0909383
:1024C000310380933003E4E3F3E080818C5E80830A
:1024D0000895FC0124812451621710F40C94962C69
:1024E000862F821B0C94E917FF920F931F93CF93B3
:1024F000DF93EC018B0141110E94AE3C85E0F82E88
:10250000FA9459F0CE010E94873C8017910739F068
:1025100084E690E00E944635F3CF81E001C080E080
:10252000DF91CF911F910F91FF900895EF92FF924D
:102530000F931F93CF93DF937B018C01E80EF91E5D
:10254000CFEFDFEF0E151F05A9F0C8010E947F3CF9
:10255000C82728E0CE01969587953C2FEC0130FFE7
:1025600004C031E0C32730EAD327215099F70F5F29
:102570001F4FE8CFCE01DF91CF911F910F91FF90B8
:10258000EF900895EF92FF920F931F93CF93DF93F5
:102590001F92CDB7DEB78C017B0149830E94961252
:1025A0004981BC01C8018E0D9F1D0F90DF91CF9115
:1025B0001F910F91FF90EF900C947412482F68E8D0
:1025C00070E08CE090E00C94C212482F60E273E05F
:1025D00086E990E00C94C212482F6AE170E088EB23
:1025E00093E00C94C2120F931F93CF93DF93D82FD5
:1025F000182F1170412F63E678E680E090E00E948A
:102600007412C82F412F6CE679E682E090E00E94B8
:1026100074128111C1E0412F61E070E184E090E02B
:102620000E9474128111C1E0D1FB002700F9402FF4
:1026300069E070E086E090E00E9474128111C2604F
:10264000D2FB112710F9412F63E070E088E090E0A1
:102650000E9474128111C460D3FBDD27D0F94D2F85
:102660006AE070E08AE090E00E9474128111C86014
:1026700001110E94C70C80E00E94DE128111C2602D
:1026800011110E94D71780E00E94E5128111C460E9
:10269000D1110E947B1480E00E94EC128111C8606D
:1026A0008C2FDF91CF911F910F910895CF93C82F59
:1026B0000E94F42EC0FDC260C1FDC460C2FDC860AE
:1026C0000E940E2F8C2F0E94F312682F8C2FCF9117
:1026D0000C94122F80E00E94F312882321F00E94B4
:1026E000561380E0089581E0089580E00E94F3127F
:1026F00081600C945613CF930E94132E86E292E0D1
:102700009093AB038093AA03C1E0C093A9031092F6
:10271000A2030E94D415823011F4C093A2030E9438
:10272000B41B91E0813009F090E0892FCF9108959A
:1027300061E081E00E94071B82E392E09093AB038B
:102740008093AA03089561E081E00E94071B8EE355
:1027500092E09093AB038093AA03089560E082E037
:102760000E94071B80E292E09093AB038093AA0340
:10277000089561E081E00E94071B8AE192E0909356
:10278000AB038093AA0308951092A20390E08930CE
:10279000910528F5FC01E65DFF4F0C94573C0E9423
:1027A000D415811102C00C94A3130E94D415853056
:1027B00059F40C94B91381E08093A20305C084E11D
:1027C00092E009C00C94AE130C94981381E08093AE
:1027D000A20388E392E09093AB038093AA03089549
:1027E0000E94821E0C94450FCF93C82F0E94F013B5
:1027F0008C2F0E94C413C73029F0C83059F463E00D
:1028000081E005C060917D03660F615080E0CF914B
:102810000C945318CF910C94B41B0E94A41C80ED0F
:1028200097E00E94851C84E690E00E945A350C9443
:10283000B71CCF93C82F0E94AD27882389F10E942F
:102840000D14C0933C038C2F0E94C41310923A03C2
:102850001092390383E080933B030E941A3A61E0AF
:1028600081E00E94760F0E947B13882391F081E023
:1028700080933B030E949F1E0E94132E1092A90377
:1028800084E00E94123480913C030E94F4130E9461
:10289000DF1E0E94B30D0E942A3ACF910C941C2E89
:1028A000CF910895DC015496ED91FC915597EE0F70
:1028B000FF1FEE0FFF1FEC59FE4F6591759185913B
:1028C000949108954AE150E068EB73E08DE393E062
:1028D0000C946F3C4AE150E068EB73E08DE393E0C9
:1028E0000E948D3C81E00C94EC124AE150E06AE4D5
:1028F00071E00C945D3C8DE393E00E9475140C94A0
:102900006A140895FC010994FC01859194910C943A
:102910008214009761F09C0180E0F9014591549187
:102920002E5F3F4F452B11F08F5FF7CF089580E06A
:102930000895282F81E090E03AE0215038F0AC0172
:10294000349FC001359F900D1124F7CF0895009753
:1029500019F024F081E0089580E008958FEF089544
:10296000CF92DF92EF92FF92CF9397FF08C090959E
:102970008095709561957F4F8F4F9F4F07C0611570
:1029800071058105910511F0C0E001C0C1E02AE0A8
:10299000C22ED12CE12CF12C611571058105910518
:1029A00041F0CF5FA70196010E94383CCA01B901EE
:1029B000F3CF8C2FCF91FF90EF90DF90CF900895C1
:1029C000BC0180E090E00C94B014CF92DF92EF92C3
:1029D000FF920F931F93CF93DF93EC017B016A016A
:1029E000E881F981CF01B8010E94023C009731F0E3
:1029F0001E141F049CF4081B190B03C01E141F0493
:102A000074F4C901801B910BE817F90718F40E0F35
:102A10001F1F01C08901198308830DC08C01C801E3
:102A20008C0D9D1D8E179F0718F4E01BF10B01C044
:102A3000F601F983E883DF91CF911F910F91FF9009
:102A4000EF90DF90CF900895AF92BF92CF92DF9238
:102A5000EF92FF920F931F93CF93DF93EC017B01D3
:102A60006A0159016881798180E090E00E94B01488
:102A7000823020F082500E94991402C081E090E0E0
:102A80008C019501A601B701CE010E94E514DF91EA
:102A9000CF911F910F91FF90EF90DF90CF90BF905B
:102AA000AF9008952FEF3FEF40E050E00C942415D5
:102AB0000E9476358111FCCF0E9476358823E1F3A0
:102AC0000895CF93C6E00E947635811104C0C150AD
:102AD000D1F780E001C081E0CF91089520915703A4
:102AE0003091580395E0929FF001939FF00D1124CF
:102AF000E80FF11DEE0FFF1FE858FE4F85919491EE
:102B000008951F93CF93DF93182FC0915B03D0914B
:102B10005C030E946E159C01123061F48091570392
:102B200090915803029731F4C730D10518F02197DE
:102B300020EB34E02C9FC0012D9F900D3C9F900D09
:102B40001124DF91CF911F9108951F93CF93DF93AD
:102B5000182FC0915B03D0915C030E946E1523E097
:102B600020937F03113029F48091610390916203D7
:102B700006C0123039F4809163039091640310937E
:102B80007F0306C0133021F4809175039091760382
:102B90009C012C9FC0012D9F900D3C9F900D1124F6
:102BA000DF91CF911F910895E0915703F091580361
:102BB000E051FE4F84910895CF93DF9300D000D071
:102BC000CDB7DEB7A0915903B0915A03209173039A
:102BD000309174030E94C53B24E630E040E050E0B1
:102BE0000E94163C293E8DEF38074105510550F4EF
:102BF00029833A834B835C830E94D41529813A81CF
:102C0000853021F428EE3DEF40E050E0C9010F90FF
:102C10000F900F900F90DF91CF910895209177033F
:102C20003091780380915B0390915C03AC01249F09
:102C3000C001259F900D349F900D1124089582E0CE
:102C40000E948115BC0180E49FE10E947A188D30BA
:102C500027E1920710F08CE097E1089582E00E944E
:102C60008115BC0188EE93E00E947A18813D27E02F
:102C7000920710F080ED97E00895809157039091AE
:102C800058030A97029750F081E00E946E15BC012C
:102C900088E799E60E94023CCB01089581E090E02C
:102CA00008958091590390915A038436910530F428
:102CB00084E690E090935A038093590380915903DE
:102CC00090915A03893E9D4F30F088EE9DEF90938E
:102CD0005A03809359038091690390916A03893E56
:102CE000934030F088EE93E090936A0380936903F9
:102CF0000E943D1620915B0330915C03821793077D
:102D000020F490935C0380935B0380915B0390912C
:102D10005C03892B31F481E090E090935C03809315
:102D20005B030E941F1620915D0330915E038217A2
:102D3000930720F490935E0380935D0380915D037D
:102D400090915E032091650330916603821793078B
:102D500020F490936603809365030E942E162091C1
:102D60005F03309160038217930720F49093600310
:102D700080935F0320915F0330916003809167032C
:102D8000909168032817390720F430936803209343
:102D90006703809147039091480340915D035091F0
:102DA0005E034817590720F490935E0380935D03F8
:102DB00040916503509166034817590720F490939A
:102DC0006603809365038091490390914A03281715
:102DD000390720F49093600380935F032091670389
:102DE000309168032817390720F490936803809383
:102DF0006703089598E2899FB00111246A567F4FB6
:102E000048E250E087E593E00E946F3C0C94511635
:102E100098E2899FB00111246A567F4F48E250E042
:102E200087E593E00E948D3C81E00C94E5120E94BE
:102E3000511680915D0390915E0324E096958795ED
:102E40002A95E1F7909366038093650308950E94A5
:102E5000511680915F039091600334E096958795B9
:102E60003A95E1F7909368038093670308950E9471
:102E700051168091590390915A0396958795909396
:102E80005E0380935D0320915703309158032330F4
:102E9000310531F49695879590935E0380935D0399
:102EA00080915D0390915E039093600380935F0334
:102EB0000E9417170C94271781E00E946E159093BB
:102EC00062038093610382E00E946E159093640315
:102ED000809363038091570390915803892B61F588
:102EE00080ED97E090935A038093590383E090E03C
:102EF00090935C0380935B0388EE93E090936A0366
:102F00008093690310926C0310926B0380E797E142
:102F100090936E0380936D031092700310926F0371
:102F20008EE190E0909372038093710388E790E0C4
:102F300090937403809373030E94D415811128C069
:102F400081E090E09093760380937503809157031E
:102F500090915803029719F48BEF9FEF02C081EF15
:102F60009FEF909378038093770383E090E09093B2
:102F70007A038093790384E690E090937C038093B6
:102F80007B0382E090E090937E0380937D030DC0ED
:102F900088E090E0909378038093770383E00E9429
:102FA0006E1590937603809375030C943717CF9327
:102FB00010925803109257030E945C17C0E08C2FA8
:102FC0000E940817CF5FC431D1F781E0CF910C94F4
:102FD000E512CF93C82F0E94FA1620915703309123
:102FE0005803232B21F00E94FF310E94AB36209121
:102FF0005703309158032A30310571F02B303105D9
:1030000069F0232BC1F48C2F90E001960E944B367F
:103010008AE3CF910C94223689E00AC065E0809162
:103020005D0390915E030E947A380E94AB3684E083
:10303000CF910C94C13167E08091590390915A036C
:103040000E9477388FE20E94223680915B03909134
:103050005C03CF910C944B36BC018DE593E00E944C
:1030600052150C945116BC018FE593E00E94521545
:103070000C9451162FEF3FEF41E050E0BC0189E680
:1030800093E00E9424150C94511680917103909145
:1030900072030E948B1D8CE292E09093AB038093AD
:1030A000AA030C94B41BCF93C62F91E09093A9036D
:1030B00080938003809180038C1302C01092A90337
:1030C00080FF02C080E001C083E00E94F4138130E1
:1030D00079F49091A903992359F0809180038F5F2F
:1030E000809380030E94F0130E944518813011F3F1
:1030F000CF910895AB019C01A8EEB3E00E94C53BBF
:103100009A0140E050E00E94163CA8EEB3E00E9415
:10311000DB3B24E630E040E050E00E94163C211505
:10312000310581E04807510520F02FEF3FEF40E0E7
:1031300050E0C901089580919F03811113C00E943E
:10314000760C882381F00E94790C209181033091C4
:103150008203821B930B9C0181E02330310518F020
:1031600080E0089581E00895815E0C94610C0F93D6
:103170001F93CF93DF9310E0CFEFDFEF00E080915C
:10318000A103181760F4812F0E94B4188C179D07B3
:1031900010F0CE0101C0012F1F5FEC01F0CF802F96
:1031A000DF91CF911F910F910895CF93DF9390916D
:1031B0009F03911104C0DF91CF910C94B4189091AA
:1031C0008503C82FD0E0992391F00E94B418CC0F4A
:1031D000DD1FFE01EA57FC4FCE56DC4F20813181C6
:1031E00048815981241B350B280F391F07C0FE0168
:1031F000EE0FFF1FEA57FC4F20813181C901DF919B
:10320000CF910895EF92FF920F931F93CF93DF9387
:10321000C0E0D0E0E12CF12C0FEF1FEF8091A10373
:1032200090E0C817D9076CF48C2F0E94D518E816C7
:10323000F90608F47C018017910708F48C012196A7
:10324000EDCFE01AF10A81E0209177033091780305
:103250002E153F0508F080E0DF91CF911F910F916F
:10326000FF90EF900895CF93C82F80919F038823FC
:1032700041F0C11106C00E94790C909382038093A3
:103280008103C0939F030E94820D80919E03811150
:1032900004C08C2FCF910C948606CF910895EF92A5
:1032A000FF920F931F93CF93DF9381E00E94350627
:1032B00086E10E94610C8093A10302E913E036E8E5
:1032C000E32E33E0F32EC0E0D0E08091A10390E044
:1032D000C817D9076CF48C2F0E94B418F801819399
:1032E00091938F01F701819391937F012196EDCF07
:1032F00010929F0310929E0380E00E943319109257
:103300008203109281038FEF8093A003DF91CF910E
:103310001F910F91FF90EF90089580E00E94331964
:1033200081E080939E0308950E948D1980E00C94A3
:103330003506FF920F931F93CF93DF938091A003E5
:1033400087FD17C00E94D518EC0110E0FF24F3940C
:1033500000E08091A103181750F4812F0E94D51826
:10336000C817D90708F40F29FF0C1F5FF2CF802F71
:1033700001C080E0DF91CF911F910F91FF900895E0
:103380001F93CF93DF93EC0110E08091A1031817F6
:1033900048F48FE1810F0E948B0C8C179D0720F061
:1033A0001F5FF3CF81E001C080E0DF91CF911F91DB
:1033B00008959F92AF92BF92CF92DF92EF92FF92C9
:1033C0000F931F93CF93DF9386E090E00E94C01984
:1033D000882309F462C00E94200D882309F45DC08F
:1033E0008091A00387FF04C00E94B7188093A003B8
:1033F0008091A0030E94B4186C01A0906303B09068
:10340000640346E8E42E43E0F42E02E913E0C0E052
:10341000D0E0992493948091A10390E0C817D90734
:10342000B4F48C2F0E94B4188A159B0570F0C8164E
:10343000D90608F4912CF701819391937F01F8014B
:10344000819391938F012196E6CF992493941092C2
:1034500085030E943C3590938403809383039920D5
:1034600069F0DF91CF911F910F91FF90EF90DF9066
:10347000CF90BF90AF909F900C948D190E94991996
:10348000DF91CF911F910F91FF90EF90DF90CF9040
:10349000BF90AF909F900C943319DF91CF911F9103
:1034A0000F91FF90EF90DF90CF90BF90AF909F90E3
:1034B0000895CF9380918503811115C081E0809399
:1034C0008503C0E08091A103C81768F48C2F0E9487
:1034D000B418EC2FF0E0EE0FFF1FEE56FC4F918377
:1034E0008083CF5FEFCFCF9108950E943C3520912C
:1034F000830330918403821B930B089580919F0373
:10350000811103C00E94D91909C00E94591A0E9452
:10351000751A409718F080E00E9433190E949B189A
:10352000882311F082E0089580919E038823D1F3CF
:1035300081E008951F93CF93DF93EC0110E0809119
:10354000A103181740F4812F0E94D5188C179D07EE
:1035500020F41F5FF4CF80E001C081E0DF91CF91C4
:103560001F9108951F93CF93DF93EC0110E080919A
:10357000A103181740F4812F0E94D518C817D90746
:1035800020F41F5FF4CF80E001C081E0DF91CF9194
:103590001F9108956091A103662329F070E00E94B5
:1035A000023CCB01089580E090E008950E9434230E
:1035B00081E00E948F208091A3039091A4030C943A
:1035C000FF220C944B230E94200D882321F00E949F
:1035D000DA220C942A2108950E94E31A0E94110D08
:1035E0002091A7033091A8032817390740F480E5FC
:1035F00099E090933A038093390380E00895809195
:10360000A5039091A6030E94FF2282E00895CF9324
:10361000DF931F92CDB7DEB7882341F069830E9404
:10362000A5159093A8038093A7036981662369F089
:1036300080915D0390915E039093A6038093A50310
:1036400080916503909166030CC080915F03909117
:1036500060039093A6038093A503809167039091E4
:1036600068039093A4038093A3030F90DF91CF91FD
:1036700008958091AA039091AB030C9484148091D7
:10368000AA039091AB0302960C9484140E943F1BF2
:103690000E94DF1E0C941E36CF93DF930E943C35B0
:1036A000EC010E943C358C1B9D0B853B910510F075
:1036B0000E94B30D0E947635882399F388E0DF914C
:1036C000CF910C941234CF93DF930E94461B0E943B
:1036D0003C35EC0185E00E9412340E94B30D9398B2
:1036E0000E945D2E0E94611581110FC00E94C42F9F
:1036F0000E946115811109C00E943C358C1B9D0BF5
:10370000853B910568F3939AEBCF88E00E941234D1
:1037100060E081E0DF91CF910C94760F0E94461B10
:103720000E94B30D0E94612E86E00E9412340C9418
:103730004C1BE091AA03F091AB03349685919491D0
:10374000FC010994811103C00E948E1B0BC08130C3
:1037500039F48091A903811105C00E94631B02C046
:1037600081E0089580E008950F931F93CF93DF9336
:10377000109268040E94391B02E0C0E0D0E011E022
:103780000E947635809368040E94862E112379F07A
:103790000E941F1F082F0E94A21B182F882339F098
:1037A0000E94790CC817D90791F4111107C08091B4
:1037B000A903882311F0011114C010E0809168045E
:1037C0008130F1F60E9470358230D0F20AC00E943A
:1037D000790CEC010E94991B082F0E94A21B182F44
:1037E000E4CF0E943F1B802FDF91CF911F910F915B
:1037F00008950E94B71C0C9494190E94A41C0E9466
:103800004F1921E080916F0390917003892B09F487
:1038100020E02093AC0380E00C948F201F93CF9383
:10382000DF93C091A703D091A803CE010E94CA1ACA
:103830000E94B21A182F0E949B18811109C0111101
:1038400007C00E94110D11E0C817D90708F410E055
:10385000812FDF91CF911F9108951F93CF93DF9315
:103860000E940E1C182F0E94601CEC018091AC037A
:10387000882329F0BE01812F0E94D92001C0812F09
:10388000811108C0BE01812F0E94F8210E94851C71
:1038900082E001C081E0DF91CF911F910895809176
:1038A000B103089581E02091AF033091B003232B41
:1038B00009F480E008958091AF039091B0030895DA
:1038C0008091AD039091AE0308950E94160D00976C
:1038D00011F481E090E0BC0188EE93E00E947A1838
:1038E000813D27E0920710F080ED97E00895813048
:1038F00020E4920710F080E090E49093B00380936E
:10390000AF030E94F3070C948B0DCF93DF93EC0170
:103910000E94651CBC01C817D90708F4BE0180913C
:10392000AD039091AE038617970759F07093AE03DD
:103930006093AD0380E10E94350EDF91CF910C942E
:10394000771CDF91CF9108958091B10381110EC052
:1039500080E090E00E94771C1092AE031092AD03BD
:1039600081E00E94440781E08093B1030895809133
:10397000B103882369F080E090E00E94771C1092E8
:10398000AE031092AD0380E00E9444071092B10391
:10399000089581E08093B1030C94B71C87E0809375
:1039A0006E0482E080936F040E940B3483E0809366
:1039B000B2030895FF920F931F93CF93DF930E945A
:1039C000CE0EF82E8091A203882369F080915B03CC
:1039D00001E08F1101C000E011E0F11010E0813032
:1039E00021F4112311F010E000E00E94070D88235C
:1039F00009F458C083E10E94610CEC0182E10E944D
:103A0000610CC817D90728F49C012C1B3D0BE90158
:103A100002C0C81BD90BC53FD14008F443C0C1E068
:103A2000011102C087E001C083E080936E0411237E
:103A300029F080916E04825080936E04CC2329F08B
:103A400080916E04815080936E04011104C01111A5
:103A500002C0CC2331F081E00E941234111107C062
:103A600004C088E00E94123404C0002311F0F11059
:103A700002C0D0E001C0D1E00E947335811102C0C4
:103A80001092B203D11106C0C11104C00E94733557
:103A9000883051F08091B203823011F481E00AC085
:103AA00082E008C0C0E0BCCF8091B2038F5F8093FA
:103AB000B203F0CFDF91CF911F910F91FF90089546
:103AC0008FEF80936E0488E00C9412341092B70349
:103AD00008950E943C359093B6038093B5030895F2
:103AE0000E943C352091B5033091B603821B930BA5
:103AF0002091B3033091B4032817390728F081E0EF
:103B00008093B70382E008951092B70381E008958F
:103B10008091B70308952CE3AC01249FC001259F39
:103B2000900D11249093B4038093B30308950E94E1
:103B30004F190E94342381E00C948F200E944B2364
:103B40000C9494191F93CF93DF93C091A703D09146
:103B5000A803CE010E94CA1A0E949A1A182F0E9426
:103B60009B18811109C0111107C00E94110D11E0AD
:103B70008C179D0708F410E0812FDF91CF911F91E2
:103B800008951F93CF93DF930E94A21D182F0E94C8
:103B9000DA22EC01BC01812F0E94D920811108C0DA
:103BA000BE01812F0E94F8210E94FF2282E001C005
:103BB00081E0DF91CF911F9108958091C60390918C
:103BC000C7032091C903222341F00E943C35209174
:103BD000C6033091C703821B930B08956091C20303
:103BE0007091C3038091C4039091C50328EE33E024
:103BF00040E050E00E94163CC90108956091BE0368
:103C00007091BF038091C0039091C10328EE33E00F
:103C100040E050E00E94163CC90108950F931F93A5
:103C2000CF93DF9381E00E94A5158C0184E00E9470
:103C3000A515EC0184E10E94610C80179107B8F48E
:103C4000C817D907B0F49C012C1B3D0BC8018C1B75
:103C50009D0B64E670E00E94023CC9010E94023C98
:103C60006436710510F063E670E0862F03C083E6CA
:103C700001C080E0DF91CF911F910F910895CF9304
:103C8000DF930E940E1E9091C8039817E0F4809372
:103C9000C8030E94DD1D2091CB033091CC03EC01C1
:103CA000C21BD30B0E94DD1D9093CC038093CB03EA
:103CB0008091CD039091CE038C179D0720F4D09373
:103CC000CE03C093CD03DF91CF9108950E943F1E94
:103CD0008091CA03882311F089E601C084E690E050
:103CE0002091C803821B91092091CD033091CE030E
:103CF000AC01429FC001439F900D529F900D112433
:103D0000089508950E940E1E8093C8031092CC035C
:103D10001092CB031092CE031092CD031092C203E7
:103D20001092C3031092C4031092C5031092BE03F5
:103D30001092BF031092C0031092C1030895CF9355
:103D4000DF9368E572E080E00E94350E9093BD033A
:103D50008093BC0381E00E94A515EC01C854D44FA8
:103D6000C93729E6D20710F0C8E7D9E6CE010E948C
:103D70002407BE0180E00E94350E813C2FEF9207A0
:103D800010F080EC9FEF9093BB038093BA030E94E6
:103D9000070D8093CA030E94DC159093B9038093AA
:103DA000B8030E943C359093C7038093C6030E94DA
:103DB000821E81E08093C903DF91CF9108950E9414
:103DC000DD1D9093C7038093C6031092C903089525
:103DD0000E94CC2281111DC00E94521C811119C069
:103DE0000E949B18882351F18091C2039091C303D4
:103DF000A091C403B091C50380599F4FAF4FBF4FEF
:103E00008093C2039093C303A093C403B093C503EC
:103E100008958091BE039091BF03A091C003B0911B
:103E2000C10380599F4FAF4FBF4F8093BE03909304
:103E3000BF03A093C003B093C103D2CF0895CF9323
:103E4000DF938091C903811102C082E0C9C080E084
:103E50000E946A0C2091BA033091BB03821793072A
:103E600058F42091BC033091BD0382179307A8F446
:103E70000E944F1C882389F00E94D415823009F0DB
:103E800087C080915B0390915C03029709F080C02A
:103E90000E94070D81117CC07EC0C091CA030E94A0
:103EA000070DC81719F085E99BE095C0C091A503DF
:103EB000D091A603C851DC4F0E941B0DC817D9072B
:103EC00018F48AE89BE087C086E00E94610C20918C
:103ED0004B0330914C038217930718F48BE79BE058
:103EE0007AC089E10E94610CC091B803D091B903F6
:103EF000C83E2DEFD207D9F08C179D07C0F00E9465
:103F0000DC15C817D90709F04EC00E94D4158111DD
:103F100060C08091590390915A0360915D03709144
:103F20005E030E94023C6A307105E8F552C0C09100
:103F30006903D0916A03C83E83E0D807A0F460917A
:103F4000BE037091BF038091C0039091C10320E62E
:103F50003AEE40E050E00E94163C2C173D0718F066
:103F600080E69BE01AC080916B0390916C03892BD3
:103F700009F46BCF87E00E94610C20916D033091B2
:103F80006E032817390708F060CF80E59BE023C057
:103F900084EA9BE020C084EA9BE090933A038093FC
:103FA000390381E01DC0C091B803D091B9030E94CC
:103FB000DC158C179D0730F48BE69BE090933A0359
:103FC000809339030E94DC159093B9038093B80362
:103FD000E8CF8BE69BE090933A038093390380E02F
:103FE000DF91CF9108950E949E1D0E94F91B0C94B1
:103FF0009419CF93DF931F92CDB7DEB78091CF0393
:10400000882329F0813031F40E942D1C0CC00E94BD
:10401000C11D09C00E947E1A823089F089830E94E6
:10402000F31F89810CC0813051F49091A203992330
:1040300031F082E08093CF030E944F1982E00F900D
:10404000DF91CF910895CF93DF930E944F1961E0E4
:1040500083E00E94071BC091A703D091A803809121
:10406000A103811106C00E94110DC817D90740F4A1
:104070000CC0CE010E94CA1A0E94B21A882329F0ED
:104080000E94971D1092CF030BC060E083E00E9456
:10409000071B0E94FD1B81E08093AC038093CF033C
:1040A000DF91CF9108958091D003813029F48091E0
:1040B000A3039091A403089580E090E008952CE07C
:1040C000829FC001112484529C4F0C94722384E27D
:1040D00094E00C947223CF93DF9300D000D0CDB73F
:1040E000DEB782E10E94610C9A83898384E10E9499
:1040F000610C29813A81281B390B3A83298387E196
:104100000E94610C9C838B83CE0101960E947223D6
:104110000F900F900F900F90DF91CF910895EF9235
:10412000FF920F931F93CF93DF93F82E81E080933C
:10413000D0030E94110DBC012091A3033091A40370
:104140004091A7035091A8030F2D8CE194E00E94A9
:104150008D238091A7039091A8030E94CA1AEC01B5
:1041600010E08CE0E82E8091A103181798F4812FBD
:104170000E94D518BC012091A3033091A403E19EB5
:10418000C00111240F2DAE018C529C4F0E948D2333
:104190001F5FE9CF10922A041092D30310922904D2
:1041A00010922804DF91CF911F910F91FF90EF9013
:1041B00008951F93CF93DF93182FEB018091A203F3
:1041C000882361F1112349F080912A04811105C0EF
:1041D0000E948D1981E080932A0480912A0488230B
:1041E00011F08530D9F42091A3033091A403203A33
:1041F000310510F420EA30E02C173D0710F410923E
:104200009E030E947E1A8093D0038130F1F40E94B5
:104210000219882319F08FEF8093A0030E94532086
:104220008C179D0780F0112371F080912A0485304E
:1042300051F49091D30381E0890F8093D30381E0FF
:104240009A3020F402C01092D30380E0DF91CF9126
:104250001F9108950F931F93CF93DF93EC010E945A
:10426000110DAE01BC018CE194E00E944F2410E0DE
:104270000CE08091A103181770F4812F0E94D518CB
:10428000BC01019FC0011124AE018C529C4F0E94C1
:104290004F241F5FEECFDF91CF911F910F910895B3
:1042A000CF92DF92EF92FF920F931F93CF93DF9302
:1042B0006091A7037091A8038CE194E00E94B2235F
:1042C0008C018091A7039091A8030E94CA1A7C01D7
:1042D000D12C9CE0C92E8091A103D81698F4CD9CD6
:1042E000E0011124CC52DC4FB701CE010E94B22371
:1042F0000817190728F0B701CE010E94B2238C01DC
:10430000D394E9CFC801DF91CF911F910F91FF9016
:10431000EF90DF90CF9008950F931F93CF93DF938B
:10432000EB012091A5033091A6038C0128173907D2
:1043300008F489010E9453209C018017910708F41A
:104340009801C217D307E1F040912A044530D1F417
:104350002C173D07B8F082179307A0F48091A303B0
:104360009091A4038C179D0758F04091D103509170
:10437000D20380918103909182034817590711F469
:10438000CE0109C080918103909182039093D20362
:104390008093D103C901DF91CF911F910F910895AF
:1043A0000F931F93CF93DF93EC010E94110D909315
:1043B0001D0480931C04D0931F04C0931E0410E0BE
:1043C0000CE08091A103181770F4812F0E94D5187A
:1043D000019FF0011124EC52FC4F91838083D38321
:1043E000C2831F5FEECFDF91CF911F910F91089590
:1043F0001F93CF93DF93182FEB010E94200D8111A3
:1044000008C01123E1F12091280430912904232BC5
:10441000B1F10E949B18811132C0CE010E942A2165
:10442000CE010E94D0210E9450218C179D0708F0D8
:1044300048C09C012C0F3D1F3695279530932904C9
:1044400020932804BE0180912804909129040E94A1
:104450008C21909329048093280490912A0492300F
:1044600009F1A8F49923C1F0913039F5112339F0FD
:1044700083E080932A0410922904109228048091EA
:10448000280490912904DF91CF911F9108959330D2
:1044900061F0943081F011C0112389F30E948D19CD
:1044A00081E00CC010922A04EACF109229041092E5
:1044B000280484E003C0112311F385E080932A04CB
:1044C000DECF9093290480932804BCCF0C94D61A95
:1044D000CF93DF930E94E31A0E94110DEC0182E05A
:1044E0000E94A5158C179D0730F48091A50390912B
:1044F000A6030E94FF228091A7039091A8038C1726
:104500009D0718F480E599E03AC00E94830C029759
:10451000E0F180916B0390916C03892B69F08DE140
:104520000E94610C20917B0330917C03281739078E
:104530001CF486E499E023C00E94830C2091790347
:1045400030917A03220F331FC1E08217930708F4DA
:10455000C0E08C2F0E94880CCC23B9F080917503A9
:1045600090917603892B89F08BE10E94610CEC011C
:104570000E940E16C817D90744F48CE499E0909372
:104580003A038093390381E001C082E0DF91CF914B
:10459000089580912F04089581E020912D04309199
:1045A0002E04232B09F480E0089580912D0490912E
:1045B0002E04089580912B0490912C0408950E945C
:1045C000160D009711F481E090E0BC0180E49FE1BA
:1045D0000E947A188D3027E1920710F08CE097E165
:1045E0000895893E2DEF920710F088EE9DEF90938D
:1045F0002E0480932D040E943C070C948B0DCF93C6
:10460000DF93EC010E94DF22BC01C817D90708F430
:10461000BE0180912B0490912C046817790750F407
:104620009C01261B370B2D38310568F0BC016C58F6
:10463000710909C09B01281B390B2D38310518F071
:10464000BC0164577F4F8617970759F070932C046D
:1046500060932B048FE00E94350EDF91CF910C9474
:10466000F122DF91CF91089580912F04811112C022
:1046700010922E0410922D0410922C0410922B04F0
:1046800080E090E00E94F12281E00E944D0781E0ED
:1046900080932F04089580912F04882389F080E06F
:1046A00090E00E94F12210922E0410922D0410929C
:1046B0002C0410922B0480E00E944D0710922F04CE
:1046C000089510922E0410922D0410922C04109232
:1046D0002B0480E090E00E94F12281E080932F047F
:1046E0000C944B23FC01428153814115510591F0FB
:1046F000A081B181B7FF03C0B195A195B10928EEA2
:1047000033E00E94D43B9A0140E050E00E94163C06
:10471000C901089580E090E008950F93FC01CB015A
:10472000002341F04617570708F4CA0164177507BC
:1047300048F407C06417750708F4CA0146175707FD
:1047400008F4BA019783868391838083138212824F
:104750001582148233872287681B790B71876087E3
:104760000F910895CF93DF93EC0188819981AA85F9
:10477000BB85E885F985309701F19B0140E050E069
:10478000281B390B410951090E94DB3B9F0144273B
:1047900037FD4095542F0E94383C8A819B81280F19
:1047A000391F411D511D2115310581E04807510573
:1047B00024F457FD05C0C90105C08FEF9FEF02C06B
:1047C00080E090E0DF91CF910895DF92EF92FF9229
:1047D0000F931F93CF93DF93EC012A813B81241722
:1047E000350720F4FA01E21BF30B03C0F901E41BC7
:1047F000F50B8C819D81969587958E179F0710F5F7
:10480000E880F9802417350740F48A01021B130B56
:10481000CB018E199F097C0105C0E61AF70A8901B0
:10482000041B150BC7010E94A714D82E88859985F3
:104830000E94A714D81206C01D830C83F986E8864F
:104840001B870A87DF91CF911F910F91FF90EF9007
:10485000DF9008950F931F93CF93DF93EC018B01AB
:104860009A01A885B9850E94D43B2A853B8540E002
:1048700050E00E94383CC801A0E0B0E082179307E6
:10488000A407B5071CF41F821E8204C0021B130B71
:104890001F830E83DF91CF911F910F910895EF92A7
:1048A000FF920F931F93CF93DF93EC018B017A015B
:1048B0000E94E523A701B801CE01DF91CF911F919E
:1048C0000F91FF90EF900C942A240F931F93CF9396
:1048D000DF9300D000D0CDB7DEB780E00E94580C47
:1048E0009A83898381E00E94580C29813A81281B90
:1048F000390B3A83298383E10E94610C9C838B836B
:1049000000E314E0AE014F5F5F4FF801608180E08B
:104910000E94B10CAE014F5F5F4FF801608181E0F2
:104920000E94B10C0F900F900F900F90DF91CF91DC
:104930001F910F910895CF93DF93D82F6AE279E00A
:104940008EE399E00E94322EC0E082E10E94A40E24
:10495000882399F08FE10E94A40E8D17A1F0C11158
:104960000CC06CE179E0DD2319F08EE399E002C020
:1049700083E399E00E94322EC1E00E9476358130B7
:1049800021F780E001C081E0DF91CF910895CF93BE
:10499000DF9300D000D0CDB7DEB7862F5A8349838E
:1049A0003C832B83AE014F5F5F4F609130040E94C8
:1049B000B10C0F900F900F900F90DF91CF91089551
:1049C000FF920F931F93CF93DF93F82E162F042F90
:1049D00083E00E941234812F0E94610CEC010E943E
:1049E000343A802F0E94580CAC019E01602F812F19
:1049F0000E94C724FF2049F081E080932F030E948A
:104A00009C0D0E94343A0E94652481E0DF91CF9191
:104A10001F910F91FF900C94DE12AF92BF92CF9234
:104A2000DF92EF92FF920F931F93CF93DF93CDB757
:104A3000DEB761970FB6F894DEBF0FBECDBF8C0115
:104A40007B016A0160E070E0CE0101960E949B2C20
:104A50008FEF8A878CE990E09A8389831D870C8782
:104A60008FEF9FE79F878E87198A188A6FEF7FE7FE
:104A7000CE0101960E949B2861E0CE0101960E9422
:104A8000442A082F87FD34C0682FCE0101960E946A
:104A90008928B82E80FDF0CF81FF25C0112707FDA2
:104AA0001095F701E00FF11FA4908A2D0E94A40E2B
:104AB000882311F30E949C0D10922F03CE010196C2
:104AC0000E945829882359F0F601E00FF11F449104
:104AD0006A2D8B2D881F8827881F0E94E02481E083
:104AE00080932F03C9CFCE0101960E945829C4CFCD
:104AF00061960FB6F894DEBF0FBECDBFDF91CF91A8
:104B00001F910F91FF90EF90DF90CF90BF90AF90EB
:104B1000089581E090E0909331048093300461E047
:104B200081E00E94760F81E00E949B24882341F05F
:104B300041E553E068E573E087EB92E00E940D25C4
:104B40000C94B30D81E090E0909331048093300495
:104B500061E080E00E94760F109267004DE752E01E
:104B6000BA018FE792E00E940D2581E080936700F3
:104B70000C94B30D8F3019F4CB010C94F122CB01BE
:104B80000C94771C0F931F93CF93DF93EC01443069
:104B900019F06FEF7FEF02C061E070E02F85388978
:104BA00001E010E041E050E0CE010D960E94E514D6
:104BB0006D857E858B85DF91CF911F910F910C9430
:104BC000BA25AF92BF92CF92DF92EF92FF920F93EE
:104BD0001F93CF93DF93CDB7DEB769970FB6F894E5
:104BE000DEBF0FBECDBFA82EC62E8A0161E081E0D8
:104BF0000E94760F80E00E949B24882309F47BC0EA
:104C0000AA2079F00E94342388E799E60E942407BD
:104C100032E0B32E4FE0D42E58EEE52E5DEFF52EA8
:104C200009C00E94A41C83E0B82E90E1D92EE12C8B
:104C300020E4F22E4C2D6D2DCE0146960E94940C50
:104C40004C2D6B2DCE0142960E94940C6FE573E0C3
:104C5000CE0101960E949B2C8FEF8A8724E930E0D9
:104C60003A832983DC86CD86F98AE88A2E893F89B2
:104C70003F872E8761E0CE0101960E94442A87FD7E
:104C800022C08111F3CF6E857F858D2D0E94BA25BC
:104C9000CE0101960E945829882379F00E949C0D2C
:104CA000198F088F2E853F853F8B2E8B1D8B0C8B8C
:104CB0008B2D0E94580C9B8B8A8B60E070E08D2DB1
:104CC0000E94BA25D3CFAA2019F00E944B2302C01C
:104CD0000E94B71CAE014A5E5F4F6C2D8D2D0E9465
:104CE000B10CAE014E5E5F4F6C2D8B2D0E94B10C4E
:104CF00081E00E94DE120E94B30D69960FB6F8940F
:104D0000DEBF0FBECDBFDF91CF911F910F91FF90FE
:104D1000EF90DF90CF90BF90AF900895EF92FF9209
:104D20000F931F93CF93DF93CDB7DEB729970FB6BD
:104D3000F894DEBF0FBECDBF8C017B01BC01CE015C
:104D400001960E949B2C60E0CE0101960E94442AAD
:104D5000682F87FD10C0E82FEE0FFF0BEE0DFF1D33
:104D60004591549181E093E00337190709F080E001
:104D70000E94E125E8CF29960FB6F894DEBF0FBE5A
:104D8000CDBFDF91CF911F910F91FF90EF900895CC
:104D9000109231041092300461E080E00E94760F9E
:104DA00044E452E0BA0185E492E00E940D250C949F
:104DB000B30DCF93DF93CDB7DEB72A970FB6F89434
:104DC000DEBF0FBECDBF69E773E0CE0101960E9442
:104DD0009B2C60E0CE0101960E94442A87FD26C0EC
:104DE0008A870E941A3A8A858230A1F04CF488237F
:104DF00071F08130C1F469E673E083E793E00EC09F
:104E0000833079F0843079F40E94A2250CC00E948E
:104E1000892509C065E673E08DE693E00E948E2641
:104E200002C00E94C8260E942A3AD3CF10923B03A8
:104E30002A960FB6F894DEBF0FBECDBFDF91CF919B
:104E40000895CF93DF93EC01842F0E94D10D9E0132
:104E500036952795A9014C0F5D1F8417950730F4EF
:104E6000C21BD30B21E0C817D90708F020E0822F1E
:104E7000DF91CF91089568EE73E080E00E94350ED7
:104E80002BE1289FB001299F700D112440E088E795
:104E900099E60C942127CF93DF931F92CDB7DEB70D
:104EA000482F68EE73E049830E94350E25E0289F65
:104EB000B001299F700D112449818CE097E10F907A
:104EC000DF91CF910C942127CF93DF931F92CDB721
:104ED000DEB7482F64E670E049830E94350EBC01BE
:104EE000660F771F680F791F49818CE291E00F9060
:104EF000DF91CF910C942127CF930E946A13C82F82
:104F0000882341F10E943B27C82F811105C084E10D
:104F100099E00E942F2F1EC08FE00E944B2788230C
:104F200029F082E00E944B27811106C08BE099E0B6
:104F30000E942F2FC0E00EC080E10E9464278823CA
:104F400031F083E00E946427C82F811103C08FEFE6
:104F500098E0EECF8C2FCF9108950C947C271F936F
:104F6000CF93DF93EC01162F82E10E94A40E8111F2
:104F70000EC06AE279E08EE399E00E94322E8B85C2
:104F8000803161F5DF91CF911F910C94B71C612F97
:104F9000CE010E94962CCE0109960E94F1338823FF
:104FA00011F0298501C02FEF332727FD3095812F80
:104FB00090E02817390791F0111108C065E08D8540
:104FC0009E85DF91CF911F910C94E3370E941B0DBA
:104FD00067E0DF91CF911F910C947A38DF91CF91E8
:104FE0001F910895CF93DF93DC011B96CD91DC9147
:104FF0001C9790E080E0FE012EE0829FE00DF11D05
:1050000011243296259134912115310599F01D9680
:105010004D915C911E9737FF03C057FF09C0305870
:1050200024233523232B21F0662329F061509F5F31
:105030008F5FE1CF892FDF91CF910895EF92FF929B
:105040000F931F93CF93DF93EC01F62E0E94F2276C
:105050009EE0899F80011124EB85FC85E00FF11F04
:10506000859194910E946B36E82ECE0109960E949C
:10507000F133882311F0298501C02FEF332727FD55
:1050800030956F2D70E026173707E1F06FE06E194D
:10509000EB85FC85E00FF11F3596F490FF2029F099
:1050A000862F8F190E94A7366F2D8B859C85800FC8
:1050B000911F0496DF91CF911F910F91FF90EF9078
:1050C0000C947333DF91CF911F910F91FF90EF906C
:1050D0000895CF93DF93EC010E94F2272B853C8546
:1050E0009EE0899F200D311D1124F90136964591CE
:1050F0005491CA01F901349624912150223030F4A0
:10510000FA014591559165917491CB01DF91CF9151
:105110000895CF93DF93EC010E94F227EB85FC8585
:105120009EE0899FE00DF11D1124329685919491A6
:10513000DF91CF910895FF920F931F93CF93DF9349
:10514000EC018B016A818B81680FCE010E94F227EE
:10515000F82E1E870D876FEFCE010E94F2278C83F9
:1051600010E08C81181760F4612FCE010E94F227A5
:105170008F1104C08A81181B1B8302C01F5FF1CFEF
:10518000DF91CF911F910F91FF9008959F92AF9261
:10519000BF92CF92DF92EF92FF920F931F93CF9324
:1051A000DF93CDB7DEB72C970FB6F894DEBF0FBEF6
:1051B000CDBF7C01D62E942E0E9469288C016D2DC6
:1051C000C7010E94F227D7011B966D917C911C9715
:1051D000BEE08B9F600D711D1124685F7F4F46E01C
:1051E00050E0CE0107960E945D3C86E0FE013796B6
:1051F000DE01119601900D928A95E1F729813A819D
:10520000CB80DC80AD80BE80E2E09E1619F081E0AC
:1052100090E002C08FEF9FEF2F3FFFE73F0729F499
:10522000BC01C8010E94521516C02E3F4FE734073B
:1052300019F4F601099520C0829FA001839F500DAB
:10524000929F500D1124D8018D919C911197840F3C
:10525000951F8D939C93F801808191818C159D05FC
:1052600014F4D182C082D8018D919C911197A81617
:10527000B90614F4AD92BC92D7011F96ED91FC9142
:105280005097309719F0B801C70109952C960FB6C1
:10529000F894DEBF0FBECDBFDF91CF911F910F916C
:1052A000FF90EF90DF90CF90BF90AF909F900895C8
:1052B000EF92FF920F931F93CF93DF93EC018B81BB
:1052C0009A81890F89871A8681E08D8382E0E82E92
:1052D000FF24F3948E01075F1F4F0E947635482FFD
:1052E000823011F0843089F4E881F9816B818A8100
:1052F000680F0280F381E02DCE0109958B819A81A0
:10530000890F8987EA86FD8204C0813089F0883060
:1053100079F0C8010E94FC338111FD828D818823C0
:1053200019F0CE010E94DF298A858F5F8A87D5CF49
:105330008FEF898781E08E838D83483009F080E08C
:10534000DF91CF911F910F91FF90EF9008950895F5
:10535000FC0184EA90E0918380831282138264834B
:1053600081E0858386830895FC018481823010F07A
:1053700022E001C0282F9281492F50E030E02150D7
:105380003109421753071CF49F5F928308952381CC
:10539000420F511D90E001974817590714F42F5FF1
:1053A00023830895FC018281882319F08150828330
:1053B00008958381882311F0815083830895FF929B
:1053C0000F931F93CF93DF93EC0100E010E0F02EDA
:1053D000602F80E00E9410368A81081302C08EE39D
:1053E00001C080E20E9422366B819801260F311D98
:1053F0008C8190E02817390744F4E881F9816F0D1A
:105400000190F081E02DCE0109950E94AE360F5F2C
:105410001F4F02301105D9F61D82DF91CF911F91E8
:105420000F91FF9008950F931F93CF93DF93EC019B
:105430000E947635182F0E94DF39882321F081E001
:105440008D838FE71CC00B818A81080F123031F0E9
:10545000143039F4CE010E94B42903C0CE010E9459
:10546000D2298B819A81890F081711F081E08D83F1
:105470008D81882319F0CE010E94DF29812FDF91D1
:10548000CF911F910F910895EF92FF921F93CF93A9
:10549000DF931F92CDB7DEB77C0181E0F7018583F2
:1054A00011E0C70169830E94132A6981811102C03A
:1054B000F7011682F7019681911108C0883031F406
:1054C00081E0868383819281890F09C0662311F070
:1054D000F7011583813029F79111E3CF8FEF0F90FA
:1054E000DF91CF911F91FF90EF900895CF93DF93BD
:1054F000CDB7DEB729970FB6F894DEBF0FBECDBF8C
:1055000065E873E0CE0101960E949B2C60E0CE011D
:1055100001960E94442A813039F0823041F0811195
:1055200009C00E94282CF2CF0E94D926EFCF0E94FA
:105530007513ECCF87FFEACF29960FB6F894DEBF3C
:105540000FBECDBFDF91CF9108950F931F93CF93DF
:10555000DF93EC010E943D1601E010E09C0141E068
:1055600050E0BE018BE593E00E94E514DF91CF91FE
:105570001F910F910895CF93DF93809157039091DE
:105580005803892B51F10E94D415C1E0D0E002C02C
:10559000CC0FDD1F8A95E2F780916B0390916C032D
:1055A000892B11F4D05C07C00E94D415882311F018
:1055B000DF5B01C0DB5B0E94D415811106C08091C6
:1055C000750390917603892B59F48091550390913E
:1055D0005603892B39F0D05805C0C0E0D0E402C092
:1055E000DE5FF3CFCE01DF91CF910895CF93DF93AC
:1055F000EC0183E06735780719F40E945C1713C04B
:1056000083E06935780719F40E9437170CC083E0EE
:105610006D35780719F40E94171705C06F55734050
:1056200011F40E9427170E9451160E94BB2ABC0148
:10563000CE01DF91CF910C949B281F93CF93DF93E2
:10564000CDB7DEB7E9970FB6F894DEBF0FBECDBF7A
:1056500060E070E0CE0189960E949B2C8FEF8AABB0
:105660008CE990E09AA789A78DE893E09DAB8CAB7D
:105670008FEF9FE79FAB8EAB86EF9AE299AF88AF33
:1056800018E20E94BB2ABC01CE0189960E949B2889
:1056900060E0CE0189960E94442A87FD1FC0E7E59D
:1056A000F3E0DE011196812F01900D928A95E1F7CA
:1056B000CE0189960E94582981110AC0FE013196B7
:1056C000A7E5B3E0812F01900D928A95E1F7D9CF3C
:1056D00083E00E9412340E945116D3CFE9960FB690
:1056E000F894DEBF0FBECDBFDF91CF911F9108951B
:1056F000DC011796ED91FC911897E60FF11D64916E
:105700008BE095E00C9483360F931F93CF93DF9338
:10571000EC018B0180E061E0680FF801E80FF11DFA
:10572000E491E93011F0862FF6CFCE010E94A8292E
:105730008AEA90E09983888318870F83DF91CF915D
:105740001F910F9108950E94D41520915703309115
:105750005803232B59F0833061F0823069F088239D
:1057600071F0853079F482E394E008958FE594E058
:10577000089584E494E0089586E594E008958DE426
:1057800094E008958BE394E008951F93CF93DF9303
:10579000182F0E94FA160E94A32BEC0160E0CE01A4
:1057A0000E94442A87FD15C0EF81F885E80FF11D9E
:1057B00087FDFA958491893049F4812F0E94FA1669
:1057C0000E941D2B812F0E940817E5CF0E941914FB
:1057D000E5CFDF91CF911F9108956EE375E08FE5DE
:1057E00094E00E94842B64E375E086E594E00E94D7
:1057F000842B67E275E08DE494E00E94842B6CE2D8
:1058000075E084E494E00E94842B61E275E08BE310
:1058100094E00E94842B6FE175E082E394E00C94A5
:10582000842B80914F0390915003892B19F08FEFB7
:105830009FE708958DEF9FE70895CF93DF93EC01E5
:105840000E94112CBC01CE01DF91CF910C949B28BA
:105850001F93CF93DF93CDB7DEB7AB970FB6F89416
:10586000DEBF0FBECDBF60E070E0CE014B960E9460
:105870009B2C8FEF8CA38CE990E09C8F8B8F8FE318
:1058800095E09FA38EA38FEF9FE799A788A78DE14F
:105890009CE29BA78AA71AE10E94112CBC01CE01B1
:1058A0004B960E949B2860E0CE014B960E94442AB2
:1058B00087FD30C0682FCE014B960E946928892B46
:1058C00041F48DE393E00E94751483E00E9412344A
:1058D000E3CFEDE3F3E0DE011196812F01900D920D
:1058E0008A95E1F7CE014B960E94582981110AC092
:1058F000FE013196ADE3B3E0812F01900D928A95C0
:10590000E1F703C083E00E9412348DE393E00E942C
:105910008114C2CF0E946A14AB960FB6F894DEBF12
:105920000FBECDBFDF91CF911F910895FC018781FC
:1059300090850C9483360F931F93CF93DF93EC01E4
:105940008B01CB010E948914682FCE010E94A829E7
:1059500080EB90E09983888318870F83DF91CF9144
:105960001F910F910895613011F40C94D5180C9487
:105970005F20CF93DF93D82FC62F8FE18D0F0E942A
:10598000A40E882351F06C2F8D2F0E94B32C4C2F26
:1059900066E0DF91CF910C94F13785EE95E0DF91D1
:1059A000CF910C946B360F931F93CF93DF93D82F27
:1059B000062F0E9416360E949B18811108C083E0B2
:1059C00090E00E94C019882341F080E209C08091D4
:1059D0008503882321F082E403C08DE601C082E6BE
:1059E00090919F03911102C00E94223680919F03E3
:1059F000882349F110E0C1E09091A103191700F547
:105A0000412F50E02091A003332727FD3095421706
:105A1000530761F080919F038C2331F080916F04D4
:105A200080FF04C082E003C081E001C080E00E94EA
:105A30002236C03811F0CC0F01C0C0E01F5FDCCFB0
:105A400088E0891B01C087E00E94A73611E01D0F86
:105A5000812F0E94AE378AE30E942236602F8D2F5D
:105A60000E94B92C0E94AE360E941A361630C8F435
:105A7000C2E0CD0F8C2F0E94AE378AE30E942236FF
:105A8000602F812F0E94B92CC63059F083E08D0F12
:105A90000E94AE378AE30E942236602F8C2F0E942C
:105AA000B92CDF91CF911F910F910C94AE3661E02C
:105AB00080E00C94D32C61E083E00C94D32C66E05E
:105AC00080E00C94D32C66E083E00C94D32CCF922E
:105AD000DF92EF92FF9280913B03833021F0C12C43
