:100000000C94AC010C94D4010C94D4010C94D40144
:100010000C940B040C94D4010C94D4010C94D401D2
:100020000C94D4010C943B040C94D4010C94D40192
:100030000C94D4010C94CA040C94FF040C94D401C5
:100040000C94E7030C94D4010C94D4010C94D401C7
:100050000C94D401EA13EC13EE13F213F213F01321
:10006000F613F413FF00000000000504000004056F
:10007000090000FF01010000010505000005050A57
:100080000000FF02020000020506000006050B004A
:1000900000FF03030000030507000007050C000034
:1000A000FF00000000040511020004040D0000FF21
:1000B00001010000050511040005040E00000605FD
:1000C000110100FF020200000705110800D1000025
:1000D000006F7074696F6E730080250000004B0024
:1000E000000096000000E1000000C20100010001D4
:1000F00000010001000100B0040807520300005293
:1001000003B0040807E8030000E803D0079209D60B
:100110000600006C07E40C100ED007E40CB80B10BE
:100120000E0410C409A60EAC0D740E6810B80B0AAC
:100130000F890C740ECC10B80B0A0F890C740EFECC
:1001400010B80B0A0F890C40066C0714054006789E
:10015000050100A00FD007010001000100A00F0160
:100160000001000100A9029F029A02950290028BF1
:1001700002860281027C027702A402730219030A3A
:10018000030203F802EC02E402D502CA02BB02AE8B
:100190000200090003040708090003070809000119
:1001A0000203040708090001020304050607080901
:1001B00009636865616C692D636861726765720ABD
:1001C00076312E39395F3230313530393230006096
:1001D000020F004D005C030100000001006F020EE1
:1001E0000041004E030A00000088136B020F00411B
:1001F0000050030A00000088130000000000000007
:1002000000000000000000E803014903E803004784
:1002100003640000450364000042036400004003DF
:10022000E803013D03E803013B030100003903E853
:10023000030147030100003203640000350301009D
:10024000003303010000330301000000000100003F
:100250003003141719181A0705061F20212223241A
:100260006164617074206469733A0056643A0056A0
:10027000633A004C4544004E695A6E004C343335A5
:10028000004C343330004C69706F004C696C6F0067
:100290004C6966650050622020004E694D48004E52
:1002A00069436400556E6B6E004E6F6E6500656449
:1002B000697420626174746572790063617061634E
:1002C00069747920636865636B00443E4320666F00
:1002D000726D61740073746F726167652B62616C1B
:1002E000616E630073746F72616765006661737439
:1002F000206368617267650064697363686172672F
:10030000650062616C616E63650063686172676558
:100310002B62616C616E6365006368617267650082
:100320006E6F6C696D697400206E6F007965730083
:100330005500006D00432F6D002500F4004168005A
:100340004300576800570056004100006E02E30565
:100350004E0BBB1119123F1211241FBECFE5D8E07E
:10036000DEBFCDBF10E0A0E6B0E0EAECF5E302C0EE
:1003700005900D92AA3AB107D9F714E0AAEAB0E0C5
:1003800001C01D92A236B107E1F713E0C8E5D3E042
:1003900004C02297FE010E94BD1ACC34D107C9F7D0
:1003A0000E94470B0C94E31A0C94000020E042E0FA
:1003B00060E18AEA90E00E9401180E94BE040C9459
:1003C0007202CF92DF92EF92FF92482F282F30E0F7
:1003D000A0E0BDE70E94351A6B017C01A4E6B0E005
:1003E000A41BB10924E630E00E94441A6C0D7D1D67
:1003F0008E1D9F1D24E630E040E050E00E947A1AF6
:10040000B9018DE0FF90EF90DF90CF900C94A8049D
:10041000882311F0909A089590980895089580FF88
:1004200002C0979A089597980895811102C0969AEC
:10043000089596980895811102C0929A089592980D
:100440000895811106C0939A0E94150280E00C94D1
:100450001B0293980895BC018EE00C94A804BC0183
:100460008EE00C94A80480FF02C0C09A01C0C0981E
:1004700081FF02C0C19A01C0C19882FF02C0C29A26
:1004800001C0C29883FF02C0C39A01C0C39884FF11
:1004900002C0DE9A01C0DE9885FF02C0DF9A08958F
:1004A000DF98089580E00E94210280E00E94080207
:1004B00080E00E940F0280E00E9433028C9A8B9AA7
:1004C000889A8F9AB89AB99ABA9ABB9AD69AD79AB2
:1004D0008D9A8E9A8D9A8A9A089508958AEA90E064
:1004E0000C945618D598D498DD98DC98BF9ABE9A8B
:1004F000BD9A8EEA86B9369A089534B145B1E09135
:10050000BB00E13131F12FB7F894832F90E0942BA9
:10051000F0E0DF01AA0FBB1FAA54BD4F11969C93B8
:100520008E933091B300332391F0EE0FFF1FEE0F47
:10053000FF1FE852FD4F4081518162817381480F56
:10054000591F611D711D40835183628373832FBFC7
:1005500008952091BC003091B00047FD02C0232BCC
:1005600002C0209523232093B00008950E94051017
:100570009093D5028093D4020E94B30E9093D70239
:100580008093D6028091B300882309F481C00E9431
:10059000051040911403509115036091160370915A
:1005A0001703480F591F611D711D40931403509389
:1005B000150360931603709317030E94B30E4091C6
:1005C00018035091190360911A0370911B03480F8F
:1005D000591F611D711D40931803509319036093B7
:1005E0001A0370931B0380911C0390911D030197C4
:1005F00009F04CC08091E0029091E102A091E202EA
:10060000B091E302B695A795979587958093E00200
:100610009093E102A093E202B093E3028091D802AA
:100620009091D902A091DA02B091DB02B695A7951C
:10063000979587958093D8029093D902A093DA0278
:10064000B093DB028091DC029091DD02A091DE028A
:10065000B091DF02B695A795979587958093DC02B8
:100660009093DD02A093DE02B093DF028091E4025A
:100670009091E502A091E602B091E7028093E40236
:100680009093E502A093E602B093E7020C9417085A
:10069000089580913A0390913B03892BE9F04091B2
:1006A000B8004423C9F081E090E00090B50002C09A
:1006B000880F991F0A94E2F720911C0330911D03C3
:1006C0002F703FB7F8945BB39BB3982B9BBB240F61
:1006D0002A95F1F75BBB3FBF08958091B2008F5F11
:1006E000853108F080E08093B20085E0E4EBF0E033
:1006F000A9EBB0E001900D928A95E1F76091B2000C
:100700006F5F653108F060E085E0689FB0011124FB
:100710006C597F4F45E050E084EB90E00E94C11A95
:100720008091B20081110CC00E94B60280911C031E
:1007300090911D0321E0892B09F420E02093B30060
:100740000895CF93DF930E947D028091B10091E0E4
:10075000980F9093B100873079F118F4882359F0FD
:1007600033C0883069F1893079F51092B100DF919A
:10077000CF910C946D038091B40087FD25C02FB7F5
:10078000F8949091B40088B3392F3170C32F30E0C2
:10079000D32FCC0FDD1FCC0FDD1F92FB332730F999
:1007A000C32B9270C92B90E2C902E00111248F7112
:1007B0008C2B88BB2FBF08C0DF91CF910C944903CD
:1007C0008091B500806287B9DF91CF9108951F9223
:1007D0000F920FB60F9211242F933F934F935F9375
:1007E0006F937F938F939F93AF93BF93EF93FF93F9
:1007F0000E94A103FF91EF91BF91AF919F918F91C3
:100800007F916F915F914F913F912F910F900FBE0C
:100810000F901F9018951F920F920FB60F921124F0
:100820002F933F934F935F936F937F938F939F93F8
:10083000AF93BF93EF93FF930E942814FF91EF9122
:10084000BF91AF919F918F917F916F915F914F91E8
:100850003F912F910F900FBE0F901F90189588E039
:1008600085BD85B5846085BD14BC8CE783BD89B723
:10087000806889BF08951F920F920FB60F921124BE
:100880002F933F934F935F936F937F938F939F9398
:10089000AF93BF93EF93FF932091C4003091C500B5
:1008A0008091C0009091C100820F931F9093C1006E
:1008B0008093C0002091C2003091C3008091BE009F
:1008C0009091BF00820F931F9093BF008093BE0052
:1008D0002FB7F8948091C0009091C10035E09695B3
:1008E00087953A95E1F79BBD8ABD8091BE009091B6
:1008F000BF0045E0969587954A95E1F799BD88BD7B
:100900002FBF8091C0009091C1008F719927909363
:10091000C1008093C0008091BE009091BF008F7194
:1009200099279093BF008093BE000E940E02FF9112
:10093000EF91BF91AF919F918F917F916F915F9157
:100940004F913F912F910F900FBE0F901F901895D0
:100950009FB7F8948E3039F47093C5006093C4004B
:100960008FB5806808C08D3039F47093C3006093F0
:10097000C2008FB580628FBD9FBF089580E094E074
:1009800097BD86BD82E08FBD89E18EBD89B7846049
:1009900089BF08951F920F920FB60F9211242F93C3
:1009A0003F934F938F939F93EF93FF935A991AC05E
:1009B0004CB18091DC019091DD0101969927209145
:1009C000DE013091DF018217930769F0E091DC01CD
:1009D000F091DD01E452FF4F40839093DD0180935D
:1009E000DC0101C08CB1FF91EF919F918F914F91EC
:1009F0003F912F910F900FBE0F901F9018951F924F
:100A00000F920FB60F9211242F933F938F939F93C2
:100A1000EF93FF932091DC013091DD018091DE01A5
:100A20009091DF012817390711F4559812C0E09111
:100A3000DE01F091DF01E452FF4F20818091DE0161
:100A40009091DF01019699279093DF018093DE0159
:100A50002CB9FF91EF919F918F913F912F910F9022
:100A60000FBE0F901F901895CF92DF92EF92FF92DA
:100A7000CF93DF93EC016A017B01411581EE5807AA
:100A800061057105F9F0E885F98581E090E00C8851
:100A900002C0880F991F0A94E2F7808360E079E032
:100AA0008DE390E0A70196010E947A1A2150310946
:100AB000410951095695479537952795211580E1AC
:100AC000380798F0E885F985108260E874E88EE1CF
:100AD00090E0A70196010E947A1A2150310941093C
:100AE00051095695479537952795EC81FD813083BF
:100AF000EE81FF8120831D8AEA85FB85408181E0AC
:100B000090E09C01098802C0220F331F0A94E2F78B
:100B1000422B4083EA85FB8540819C010A8802C004
:100B2000220F331F0A94E2F7422B4083EA85FB85AC
:100B300020810B8802C0880F991F0A94E2F78095E4
:100B400082238083DF91CF91FF90EF90DF90CF9051
:100B50000895CF93DF93FC0122813381D901B395AE
:100B60008D919C91119701969927E901CE5FDE4FF7
:100B70004881598184179507D9F30D90BC91A02D18
:100B8000A20FB31F6C93A281B381B39511969C936E
:100B90008E93A285B3852C9181E090E0038802C0FA
:100BA000880F991F0A94E2F7282B2C9381E0858BFC
:100BB0000084F185E02D80818064808381E090E075
:100BC000DF91CF9108958CED90E09093C7008093D2
:100BD000C6009093C9008093C80080E490E0909391
:100BE000CB008093CA0029E230E03093CD002093FF
:100BF000CC002BE230E03093CF002093CE002AE2ED
:100C000030E03093D1002093D0009093D3008093B4
:100C1000D2008CE290E09093D5008093D40084E0E1
:100C20008093D60083E08093D70087E08093D8003C
:100C300085E08093D90081E08093DA000895CF9316
:100C4000DF931F92CDB7DEB7E0915E04F0915F04B1
:100C5000309711F4E2E6F4E0CE0101962EEB8E1708
:100C60009F0710F02193FBCF0F90DF91CF91089554
:100C7000CF93DF9300D0CDB7DEB720915E043091E3
:100C80005F042115310511F422E634E0CE0101960E
:100C9000821B930B0F900F90DF91CF910895CF930C
:100CA000DF931F92CDB7DEB720915E0430915F04D1
:100CB0002115310511F422E634E0F901AE014F5F50
:100CC0005F4FCF01821B930B4E175F0728F06081A7
:100CD0006E3B11F43196F5CF0F90DF91CF910895CF
:100CE000009741F0EFE9FFE03197F1F700C0000015
:100CF0000197F6CF08958436910538F064E670E0E8
:100D00000E94661ACB010C947006019728F025E327
:100D10002A95F1F70000F9CF08956AE070E00E948B
:100D2000661ACB010C947B06E82FF0E0EE0FFF1F54
:100D3000EC56FD4F808191810895E82FF0E0EE0F91
:100D4000FF1FE65BFD4F8081918108952FB7F894D6
:100D5000E82FF0E0EE0FFF1FEA54FD4F80819181F4
:100D60002FBF089580911F0308958091FE019091F7
:100D7000FF010895262F613110F4423040F021E048
:100D800030E0FC013383228331832083089550E0D7
:100D9000BA01620F711D620F711D660F771F660F1A
:100DA000771F645F7F4F44E050E00C94D31A2FB755
:100DB000F89480E090E0FC01EE0FFF1FEE0FFF1FA4
:100DC000E852FD4F10821182128213820196813106
:100DD000910589F784E690E090931D0380931C03AE
:100DE00010921E032FBF0895CF93CFB7F89410929F
:100DF000FD011092FC011092F8011092F90110927D
:100E0000FA011092FB011092F4011092F501109278
:100E1000F6011092F7011092F0011092F101109278
:100E2000F2011092F3010E9450149093EB01809311
:100E3000EA01CFBFCF9108950E94F4061092EF010E
:100E40001092EE011092ED011092EC010895E0E095
:100E5000F2E01192119282E0EA34F807D1F7089596
:100E6000CF93CFB7F89481E090E090931D038093E7
:100E70001C0381E080931E030E942707CFBFCF9100
:100E80000895CF93DF930E943007C091FE01D09167
:100E9000FF018091FE019091FF01C817D90729F445
:100EA0008AE090E00E947614F4CFDF91CF9108950C
:100EB0008F929F92AF92BF92CF92DF92EF92FF926A
:100EC000CF93DF93CDB7DEB728970FB6F894DEBF88
:100ED0000FBECDBFF82E5B0161157105D1F140E069
:100EE000682FCE0105960E94BA0641E06F2DCE0113
:100EF00001960E94BA062B813C8140E050E0CF80F1
:100F0000D884E12CF12C2C193D094E095F09B5015B
:100F100080E090E08D809E80A12CB12C6819790929
:100F20008A099B090E94561A29813A8140E050E0C3
:100F3000281939094A095B090E949C1A2C0D3D1D8C
:100F40004E1D5F1D57FF03C020E030E0A901C9011D
:100F500002C080E090E028960FB6F894DEBF0FBE86
:100F6000CDBFDF91CF91FF90EF90DF90CF90BF90FA
:100F7000AF909F908F9008958250893130F4E82F80
:100F8000F0E0E059FF4F8081089581E00895CF930C
:100F9000DF93833149F481E020917402309175022E
:100FA00023313105C1F41AC0E82FF0E0EE0FFF1F26
:100FB000E65BFD4FC081D1810E94BC07882319F0F8
:100FC000813029F00AC081E0E39740F404C081E059
:100FD000C935D24018F480E001C081E0DF91CF91A3
:100FE0000895CF93C0E08FE18C0F0E94C70788233C
:100FF00029F0CF5FC630B9F786E001C08C2FCF91C2
:1010000008952FB7F8946091E5017091E601809101
:10101000E7019091E8012FBF2DE730E040E050E07C
:101020000E947A1ABB27A52F942F832F08958091B1
:101030001C0390911D03892B49F080911C03909112
:101040001D03019790931D0380931C03089590E066
:10105000880F991FFC01E65BFD4F208131816217EB
:10106000730718F4261B370B04C0AB01421B530B4C
:101070009A01FC01E050FE4F2730310518F0118233
:10108000108206C0208131812F5F3F4F3183208342
:10109000FC01E65BFD4F7183608308958FB7F89480
:1010A0001092E5011092E6011092E7011092E8011A
:1010B0001092E1011092E2011092E3011092E4011A
:1010C0008FBF0E9430070E941C0760E070E089E13A
:1010D0000E94270860E070E08BE10E94270860E032
:1010E00070E08CE10E94270860E070E08DE10C94D4
:1010F00027081092FF011092FE010C944E08CF9326
:10110000DF931F92CDB7DEB790911F0391110FC0EF
:1011100069830E942102698161110E94790881E03E
:1011200080931F030F90DF91CF910C9441070F9094
:10113000DF91CF9108950C94790880911F03882343
:1011400009F44FC040917802509179028091E501F5
:101150009091E601A091E701B091E801840F951FFD
:10116000A11DB11D8093E5019093E601A093E701D5
:10117000B093E8018091E00191E0980F9093E00135
:10118000883578F120916E0230916F02DA010E9469
:10119000351A24E630E040E050E00E947A1A80914F
:1011A000E1019091E201A091E301B091E401280FE7
:1011B000391F4A1F5B1F2093E1013093E2014093E6
:1011C000E3015093E401CA01B90120EA3CE840E0A0
:1011D00050E00E947A1AB9018AE10E942708109211
:1011E000E0010895CF92DF92EF92FF920F931F9349
:1011F000CF93DF931F92CDB7DEB7C0904A02D09055
:101200004B0280914C0290914D028C159D0518F473
:10121000C81AD90A02C0C12CD12CB60182E10E94A1
:1012200027080CE512E09FE1F801619171918F01AF
:10123000892F99830E94270899819F5F9532A1F792
:101240000E94F107F82E80E000E010E08F1569F0B1
:10125000EFE1E80FF0E0EE0FFF1FE65BFD4F2081AE
:101260003181020F131F8F5FF1CFB80183E10E941C
:1012700027080115110581F00C151D0520F49601B4
:10128000201B310B03C098012C193D09293B3B4021
:1012900018F4680113E102C012E1F12CB60184E1F7
:1012A0000E9427086F2D70E086E10E942708612FB9
:1012B00070E085E10E9427080E9401087C010E94DD
:1012C000A70E882329F000915002109151020BC003
:1012D0000E94F90F882329F000914E0210914F02CD
:1012E00002C000E010E0B80187E10E942708B701C2
:1012F00089E10E9427089801D6010E94351A20E151
:1013000037E240E050E00E947A1AB90188E10F907C
:10131000DF91CF911F910F91FF90EF90DF90CF90D1
:101320000C9427081F93CF93DF93182FC82FD0E07A
:10133000FE01EE0FFF1FEE0FFF1FE852FD4F608111
:1013400071818281938128EE33E040E050E00E9479
:101350007A1AFE01EE0FFF1FEC56FD4F31832083FA
:10136000B901812F0E945807BC01812FDF91CF91D5
:101370001F910C9427084F925F926F927F928F92E9
:101380009F92AF92BF92CF92DF92EF92FF92CF9354
:10139000DF93CDB7DEB728970FB6F894DEBF0FBE48
:1013A000CDBF0E9450142091EA013091EB01821BC5
:1013B000930B8133954708F4A4C04FB7F89420915C
:1013C000FC013091FD01A8EEB3E00E94351A6B01DB
:1013D0007C01F694E794D794C7944090F80150901C
:1013E000F9016090FA017090FB016091F401709135
:1013F000F5018091F6019091F7018090F0019090B5
:10140000F101A090F201B090F3014FBF6D837E8394
:101410008F8398870E94F4062091EE013091EF01AE
:101420002F5F3F4F3093EF012093EE016D817E815E
:101430008F819885A70196010E947A1A29833A83A1
:101440004B835C83C301B201A70196010E947A1A03
:10145000B90180E00E9458073C0169817A8181E0EE
:101460000E9458078615970518F4681A790A02C071
:10147000612C712C40908202509083026414750498
:1014800020F48091E901811104C0B3018CE10E9434
:101490002708B301641975098BE10E942708C5016B
:1014A000B401A70196010E947A1AB90187E00E944F
:1014B00058072091EC013091ED019093ED0180935C
:1014C000EC01BC01621B730B660F771F8DE10E945C
:1014D0002708B6018EE128960FB6F894DEBF0FBE3E
:1014E000CDBFDF91CF91FF90EF90DF90CF90BF9075
:1014F000AF909F908F907F906F905F904F900C94E3
:10150000270828960FB6F894DEBF0FBECDBFDF9137
:10151000CF91FF90EF90DF90CF90BF90AF909F90D2
:101520008F907F906F905F904F900895CF932FB7DB
:10153000F89480911C0390911D032FBF892B09F013
:101540008DC080911E03811186C080911F03882366
:1015500009F47EC08091FE019091FF010196909365
:10156000FF018093FE014091D8025091D902609111
:10157000DA027091DB0276956795579547958091D1
:10158000F8019091F901A091FA01B091FB01840F4B
:10159000951FA61FB71F8093F8019093F901A093A0
:1015A000FA01B093FB014091DC025091DD026091A1
:1015B000DE027091DF027695679557954795809189
:1015C000F4019091F501A091F601B091F701840F1B
:1015D000951FA61FB71F8093F4019093F501A09368
:1015E000F601B093F7014091F4025091F502609139
:1015F000F6027091F7027695679557954795809119
:10160000F0019091F101A091F201B091F301840FEA
:10161000951FA61FB71F8093F0019093F101A0932F
:10162000F201B093F3018091FC019091FD010196CC
:101630009093FD018093FC010E94BB09C0E08C2FB8
:101640000E949209CF5FC131D1F70E94F20803C016
:1016500085E00E949209CF910C94D706CF9108950E
:101660000C94960A0E94520278940E94D6010E941D
:101670002F040E942E100E94D80E0E949B080E94E8
:101680001F060E947F0B0E94FC110C9411120E94F5
:10169000320B0E940C1A80E090E008956DEC70E02F
:1016A00080E293E00E94E4118DE890E090932103A2
:1016B00080932003E4E2F3E080818C5E80830895D0
:1016C000FC0124812451621710F40C94DF11862F41
:1016D000821B0C949B0DDC015496ED91FC91559767
:1016E000EE0FFF1FEE0FFF1FE752FF4F6591759141
:1016F000859194910895FC0180810C94E1014AE167
:1017000050E068EB73E08AE293E00E94D31A8AE229
:1017100093E00C947B0B009761F09C0180E0F90151
:10172000459154912E5F3F4F452B11F08F5FF7CFBE
:10173000089580E00895282F81E090E03AE021505C
:1017400038F0AC01349FC001359F900D1124F7CFC4
:101750000895CF92DF92EF92FF92CF9397FF08C048
:1017600090958095709561957F4F8F4F9F4F07C0E3
:10177000611571058105910511F0C0E001C0C1E05E
:101780002AE0C22ED12CE12CF12C611571058105C6
:10179000910541F0CF5FA70196010E949C1ACA01F2
:1017A000B901F3CF8C2FCF91FF90EF90DF90CF90C6
:1017B0000895CF92DF92EF92FF920F931F93CF93F2
:1017C000DF93EC017B016A01E881F981CF01B80167
:1017D0000E94661A009731F01E141F049CF4081B27
:1017E000190B03C01E141F0474F4C901801B910B54
:1017F000E817F90718F40E0F1F1F01C0890119839C
:1018000008830DC08C01C8018C0D9D1D8E179F078C
:1018100018F4E01BF10B01C0F601F983E883DF91B6
:10182000CF911F910F91FF90EF90DF90CF9008958F
:10183000AF92BF92CF92DF92EF92FF920F931F93DE
:10184000CF93DF93EC017B016A01590168817981B3
:1018500080E090E00E94A90B823020F082500E942C
:101860009B0B02C081E090E08C019501A601B701BD
:10187000CE010E94D90BDF91CF911F910F91FF9064
:10188000EF90DF90CF90BF90AF9008952FEF3FEF94
:1018900040E050E00C94180C209144033091450333
:1018A00095E0929FF001939FF00D1124E80FF11D38
:1018B000EE0FFF1FE351FF4F8591949108951F9301
:1018C000CF93DF93182FC0914803D09149030E9412
:1018D0004C0C9C01123061F48091440390914503BB
:1018E000029731F4C730D10518F0219720EB34E08E
:1018F0002C9FC0012D9F900D3C9F900D1124DF91D6
:10190000CF911F9108951F93CF93DF93182FC0910C
:101910004803D09149030E944C0C23E020936C03B0
:10192000113029F480914E0390914F0306C012307C
:1019300039F4809150039091510310936C0306C0C9
:10194000133021F480916203909163039C012C9FDA
:10195000C0012D9F900D3C9F900D1124DF91CF91E0
:101960001F91089582E00E945F0CBC0180E29EE41A
:101970000E94DE0D813127E2920710F080E197E2AC
:10198000089582E00E945F0CBC0184EC99E00E9403
:10199000DE0D893823E1920710F088E893E108957D
:1019A00080914403909145030A97029750F081E09B
:1019B0000E944C0CBC0188E799E60E94661ACB0194
:1019C000089581E090E00895809146039091470347
:1019D0008436910530F484E690E090934703809339
:1019E00046038091460390914703893E9D4F30F016
:1019F00088EE9DEF909347038093460380915603B2
:101A000090915703893E934030F088EE93E0909395
:101A10005703809356030E94D00C209148033091C5
:101A200049038217930720F4909349038093480356
:101A30008091480390914903892B31F481E090E033
:101A400090934903809348030E94B20C20914A036B
:101A500030914B038217930720F490934B038093AC
:101A60004A0380914A0390914B0320915203309195
:101A700053038217930720F49093530380935203E8
:101A80000E94C10C20914C0330914D0382179307A3
:101A900020F490934D0380934C0320914C0330919C
:101AA0004D0380915403909155032817390720F472
:101AB0003093550320935403809134039091350360
:101AC00040914A0350914B034817590720F49093D3
:101AD0004B0380934A03409152035091530348179C
:101AE000590720F490935303809352038091360357
:101AF000909137032817390720F490934D03809372
:101B00004C0320915403309155032817390720F4D2
:101B10009093550380935403089598E2899FB001F0
:101B200011246A567F4F48E250E084E493E00E941B
:101B3000D31A0C94E40CCF93C82F0E948D0D2091E2
:101B4000440330914503232B21F00E949F120E94F1
:101B50006F1520914403309145032A30310571F00F
:101B60002B30310569F0232BC1F48C2F90E00196C6
:101B70000E940F158AE3CF910C94E61489E00AC005
:101B800065E080914A0390914B030E94FB160E94EE
:101B90006F1584E0CF910C94611267E08091460349
:101BA000909147030E94F8168FE20E94E6148091FC
:101BB000480390914903CF910C940F15AB019C0100
:101BC000A8EEB3E00E94351A9A0140E050E00E946E
:101BD0007A1AA8EEB3E00E944B1A24E630E040E007
:101BE00050E00E947A1A2115310581E0480751051D
:101BF00020F02FEF3FEF40E050E0C90108958091C1
:101C00008803811113C00E94B206882381F00E94CC
:101C1000B50620916D0330916E03821B930B9C01DE
:101C200081E02330310518F080E0089581E00895C7
:101C3000815E0C949D06CF93C82F809188038823E2
:101C400041F0C11106C00E94B50690936E038093C7
:101C50006D03C09388030E94270780918703811139
:101C600004C08C2FCF910C943302CF910895EF9242
:101C7000FF920F931F93CF93DF9381E00E946D0239
:101C800086E10E949D0680938A030BE713E03FE6FE
:101C9000E32E33E0F32EC0E0D0E080918A0390E0A1
:101CA000C817D9076CF48C2F0E94180EF801819385
:101CB00091938F01F701819391937F012196EDCF4D
:101CC000109288031092870380E00E941B0E1092EE
:101CD0006E0310926D038FEF80938903DF91CF9194
:101CE0001F910F91FF90EF900895CF93DF931F9274
:101CF000CDB7DEB7882341F069830E94830C9093AF
:101D0000900380938F036981662369F080914A0371
:101D100090914B0390938E0380938D038091520397
:101D2000909153030CC080914C0390914D0390937C
:101D30008E0380938D03809154039091550390936B
:101D40008C0380938B030F90DF91CF910895809146
:101D50009603089581E02091940330919503232BFD
:101D600009F480E00895809194039091950308957B
:101D7000813020E8920710F080E090E8909395037E
:101D8000809394030E942F020C9430078091960355
:101D9000882369F080E090E00E94B80E10929303CF
:101DA0001092920380E00E941B0210929603089505
:101DB00081E0809396030C94C60E80919F039091CE
:101DC000A0032091A203222341F00E9458142091E5
:101DD0009F033091A003821B930B08950F931F93D1
:101DE000CF93DF9381E00E94830C8C0184E00E94FA
:101DF000830CEC0184E10E949D0680179107B8F4E2
:101E0000C817D907B0F49C012C1B3D0BC8018C1BD3
:101E10009D0B64E670E00E94661AC9010E94661A72
:101E20006436710510F063E670E0862F03C083E628
:101E300001C080E0DF91CF911F910F910895CF9362
:101E4000DF930E94EE0E9091A1039817E0F4809327
:101E5000A1030E94DD0E2091A4033091A503EC01A3
:101E6000C21BD30B0E94DD0E9093A5038093A403A5
:101E70008091A6039091A7038C179D0720F4D0931F
:101E8000A703C093A603DF91CF9108950E941F0F6F
:101E90008091A303882311F089E601C084E690E0D5
:101EA0002091A103821B91092091A6033091A703E1
:101EB000AC01429FC001439F900D529F900D112491
:101EC000089520912C0330912D032130310511F418
:101ED00081E026C02115310511F480E021C02430B5
:101EE000310529F48091A20381110AC0F6CF223076
:101EF000310519F48091A20313C02330310581F418
:101F000085E00E949D0620912E0330912F03A901A8
:101F100052508417950708F328173907C8F2089517
:101F20000C9408020E94FC0F81111DC00E94AA0E91
:101F3000811119C00E94FF0D882351F180919B03EC
:101F400090919C03A0919D03B0919E0380599F4F57
:101F5000AF4FBF4F80939B0390939C03A0939D032F
:101F6000B0939E0308958091970390919803A09158
:101F70009903B0919A0380599F4FAF4FBF4F809301
:101F8000970390939803A0939903B0939A03D2CFA9
:101F900008952CE0829FC001112480559C4F0C9421
:101FA0003F1088EF93E00C943F10CF93DF9300D065
:101FB00000D0CDB7DEB782E10E949D069A83898367
:101FC00084E10E949D0629813A81281B390B3A83BE
:101FD000298387E10E949D069C838B83CE01019615
:101FE0000E943F100F900F900F900F90DF91CF91B4
:101FF000089580910004089581E02091FE033091BE
:10200000FF03232B09F480E008958091FE03909153
:10201000FF030895813020E8920710F080E090E8F7
:102020009093FF038093FE030E942B020C943007D1
:1020300080910004882389F080E090E00E940A10DB
:102040001092FF031092FE031092FD031092FC0306
:1020500080E00E9415021092000408951092FF0380
:102060001092FE031092FD031092FC0380E090E0BA
:102070000E940A1081E0809300040C941810FC0167
:10208000428153814115510591F0A081B181B7FF83
:1020900003C0B195A195B10928EE33E00E94441A1E
:1020A0009A0140E050E00E947A1AC901089580E048
:1020B00090E00895CF93DF93DC011B96CD91DC91E6
:1020C0001C9790E080E0FE012EE0829FE00DF11D64
:1020D00011243296259134912115310599F01D96E0
:1020E0004D915C911E9737FF03C057FF09C03058D0
:1020F00024233523232B21F0662329F061509F5F91
:102100008F5FE1CF892FDF91CF910895EF92FF92FA
:102110000F931F93CF93DF93EC01F62E0E945A107A
:102120009EE0899F80011124EB85FC85E00FF11F63
:10213000859194910E942F15E82ECE0109960E9458
:102140002313882311F0298501C02FEF332727FDA2
:1021500030956F2D70E026173707E1F06FE06E19AC
:10216000EB85FC85E00FF11F3596F490FF2029F0F8
:10217000862F8F190E946B156F2D8B859C85800F84
:10218000911F0496DF91CF911F910F91FF90EF90D7
:102190000C94A512DF91CF911F910F91FF90EF90BA
:1021A0000895CF93DF93EC010E945A102B853C8554
:1021B0009EE0899F200D311D1124F901369645912D
:1021C0005491CA01F901349624912150223030F4FF
:1021D000FA014591559165917491CB01DF91CF91B1
:1021E00008959F92AF92BF92CF92DF92EF92FF92AB
:1021F0000F931F93CF93DF93CDB7DEB72C970FB616
:10220000F894DEBF0FBECDBF7C01D62E942E0E9467
:10221000D1108C016D2DC7010E945A10D7011B9659
:102220006D917C911C97BEE08B9F600D711D1124F8
:10223000685F7F4F46E050E0CE0107960E94C11ACA
:1022400086E0FE013796DE01119601900D928A9587
:10225000E1F729813A81CB80DC80AD80BE80E2E06D
:102260009E1619F081E090E002C08FEF9FEF2F3FA4
:10227000FFE73F0729F4BC01C8010E94460C16C0C5
:102280002E3F4FE7340719F4F601099520C0829FCD
:10229000A001839F500D929F500D1124D8018D9164
:1022A0009C911197840F951F8D939C93F8018081C9
:1022B00091818C159D0514F4D182C082D8018D9135
:1022C0009C911197A816B90614F4AD92BC92D7014F
:1022D0001F96ED91FC915097309719F0B801C70106
:1022E00009952C960FB6F894DEBF0FBECDBFDF91D7
:1022F000CF911F910F91FF90EF90DF90CF90BF9003
:10230000AF909F9008950895FC018BE990E0918330
:10231000808312821382648381E08583868308959B
:10232000DC011796ED91FC911897E60FF11D649171
:102330008DE791E00C9447150F931F93CF93DF9394
:10234000EC018B0180E061E0680FF801E80FF11DFE
:10235000E491E93011F0862FF6CFCE010E9484116E
:1023600081EA90E09983888318870F83DF91CF916A
:102370001F910F91089560EB71E08EE294E00E944E
:102380009C1166EA71E085E294E00E949C1169E983
:1023900071E08CE194E00E949C116EE971E083E1B0
:1023A00094E00E949C1163E971E08AE094E00E944D
:1023B0009C1161E971E081E094E00C949C11FC01B6
:1023C000878190850C9447150F931F93CF93DF93CC
:1023D000EC018B01CB010E948B0B682FCE010E9478
:1023E000841187EA90E09983888318870F83DF91AF
:1023F000CF911F910F9108950C940117CF93DF9304
:1024000000D0CDB7DEB789839A830E94E2140E9480
:10241000DA1489819A810F900F90DF91CF910C94FB
:102420002F1581EB91E00E94FE1188EE93E00C9451
:1024300062148FEF80933704089583E06C3578073A
:1024400059F421E080915C0390915D03892B09F49C
:1024500020E020939103089583E06E34780729F4F7
:1024600086990CC061E081E007C06055734031F48B
:10247000829904C060E082E00C94750E089560E0DB
:1024800070E089E394E00E94E4118FEF80934204AE
:1024900083E990E090933A04809339048FEC91E0C3
:1024A00090934504809344048FEF9FE790934704F3
:1024B000809346048DE192E190934904809348040F
:1024C0000895FF920F931F93CF93DF93F82E80E030
:1024D0000E945F0C8C0120914403309145032A50E7
:1024E00031092230310558F481E00E94830C6F2DB0
:1024F000DF91CF911F910F91FF900C94FE16C09128
:102500004803D0914903CA3010F488E001C089E043
:10251000F81A8F2D0E946B1565E0C8010E94FE1607
:102520008FE20E94E614CE0199270E940F1583E4E2
:10253000DF91CF911F910F91FF900C94E614609161
:10254000440385E691E00C944715CF92DF92EF9219
:10255000FF920F931F93CF93C62FFC014591559186
:1025600065917491FB01433049F48C2FCF911F91F9
:102570000F91FF90EF90DF90CF90099446FF0DC030
:102580004F736C2F80819181CF911F910F91FF909C
:10259000EF90DF90CF900C947516413011F14230DE
:1025A00009F049C0C590D590E590F490D701ED9120
:1025B000FC91EE0FFF1FEC0DFD1D859194910E9483
:1025C000CA1AC81B8C2F0E946B15F7016081C601C7
:1025D000CF911F910F91FF90EF90DF90CF900C94CF
:1025E00047154591559165917491FB010190F081DA
:1025F000E02DEE0FFF1FEE0FFF1FE40FF51F65919B
:10260000759185919491C25024E630E040E050E00D
:102610000E947A1A6C2FC9010E946F1680E30E94F3
:10262000E61480E3CF911F910F91FF90EF90DF9020
:10263000CF900C94E614CF911F910F91FF90EF90E3
:10264000DF90CF900895FC01208127FD05C0818196
:1026500086958F5F8170089580E008950E945414DC
:1026600090934E0480934D0408952091320330914D
:102670003303232B09F488E090914A04981741F022
:1026800080934A040E942E1382E390E00C94761407
:10269000089588E00C9435139C01462F50E0FA0110
:1026A000EE0FFF1FE217F30764F04217530724F4FD
:1026B000862F880F821B08951216130614F4822F9A
:1026C000089580E00895969587958531910518F4D1
:1026D0006AE00C944C130E94491380E008951F9304
:1026E000CF93DF93EC01D695C795D695C795C93C96
:1026F000D10524F00E94491380E00BC06AE0CE01AE
:102700000E944C13182F6AE0CE0188970E944C1348
:10271000810FDF91CF911F91089560ED77E00E94C6
:10272000661A6AE00C944C136AE070E00E94661A24
:10273000CB016D38710518F464E10C944C130E94C0
:10274000491380E008956AE070E00E94661A9B01D8
:10275000CB0168E270E00E94661A283B314018F411
:1027600064E10C944C130E94491380E008956AE0E0
:1027700070E00E94661A9B01CB0168E270E00E9443
:10278000661A2135310518F464E10C944C130E944B
:10279000491380E008956AE070E00E94661A9B0188
:1027A000CB0168E270E00E94661A283B314018F4C1
:1027B00064E10C944C130E94491380E00895409109
:1027C0004A0450E04830510598F4FA01E65DFF4FA5
:1027D0000C94BB1A0C9463130C948D130C949413E7
:1027E0000C94A3130C946F130C94B7130C94CB1389
:1027F00080E008950E94541420914D0430914E04BD
:10280000821B930B0E94DF13282F30E040914B0472
:1028100050914C042417350731F030934C04209329
:102820004B040C940F0208952FB7F89460914F0455
:102830007091500480915104909152042FBF0895DB
:102840000E94610F0E94F2190E94FA130C94300B3F
:1028500080914F0490915004A0915104B091520482
:102860000196A11DB11D80934F0490935004A09335
:102870005104B093520480916600815019F0809306
:102880006600089581EE809366000E949D080C9476
:10289000920F0E94141496958795779567950895E1
:1028A0000E944914CB0108950E941414CB0108958D
:1028B0000E94491428EE33E040E050E00E947A1A6A
:1028C000C90108950F931F93CF93DF93EC010E94EA
:1028D00049148B010E944914601B710B6C177D0712
:1028E000C8F3DF91CF911F910F9108950F931F931C
:1028F000CF93DF93EC010E9449148B010E942014B6
:102900000E944914601B710B6C177D07B8F3DF91AF
:10291000CF911F910F9108958F929F92AF92BF9286
:10292000CF92DF92EF92FF920F931F93CF93DF939B
:102930006B017C01EA0197FF0BC08DE28883F09464
:10294000E094D094C094C11CD11CE11CF11C2196D0
:10295000C701B6010E94A90BC80FD11D18828E01B4
:102960008AE0882E912CA12CB12CC701B601A501BB
:1029700094010E949C1A605DF80162938F016901C5
:102980007A01C114D104E104F10479F7CE01DF9199
:10299000CF911F910F91FF90EF90DF90CF90BF905C
:1029A000AF909F908F900895462F682F8AEA90E00D
:1029B0000C94981760E080E00C94D41461E080E0FF
:1029C0000C94D4148AEA90E00C9491178A3011F494
:1029D0000C94DE14682F8AEA90E00C945818FF9249
:1029E0000F931F93CF93DF93EC01F12C009781F0AD
:1029F000062F112707FD10952F2D30E020173107E6
:102A00003CF4F3948991882319F00E94E614F4CFE2
:102A10008F2DDF91CF911F910F91FF900895CF934C
:102A2000DF93CDB7DEB72B970FB6F894DEBF0FBE9E
:102A3000CDBFBC0180E090E0AE014F5F5F4F0E94D0
:102A40008C146BE0CE0101960E94EF142B960FB60A
:102A5000F894DEBF0FBECDBFDF91CF9108951F93D5
:102A6000CF93DF93009771F0182FFC018E2F811BFD
:102A70009491EF012196992331F0892F0E94E61459
:102A8000FE01F4CF80E0DF91CF911F910895860F72
:102A9000911D860F911DFC01859194910C942F1529
:102AA0000F931F93CF93DF931F92CDB7DEB7082FFD
:102AB00010E016173CF4802F69830E94E6141F5F14
:102AC0006981F7CF862F67FD80E00F90DF91CF916E
:102AD0001F910F910895682F80E20C94501581E0AA
:102AE0000C946B150F931F93CF93DF931F92CDB769
:102AF000DEB78C01FC0101900020E9F73197E81B5B
:102B0000F90B862F8E1B69830E946B156981C801A2
:102B10000F90DF91CF911F910F910C94EF141F93A1
:102B2000CF93DF93CDB7DEB72B970FB6F894DEBF08
:102B30000FBECDBF142FAE014F5F5F4F0E948C14AC
:102B4000612FCE0101960E9472152B960FB6F89454
:102B5000DEBF0FBECDBFDF91CF911F9108954F9281
:102B60005F926F927F928F929F92AF92BF92CF921D
:102B7000DF92EF92FF920F931F93CF93DF93CDB726
:102B8000DEB72C970FB6F894DEBF0FBECDBF4C0159
:102B9000162F5A01222379F19C01A8EEB3E00E947E
:102BA000351A6A01E12CF12CA70196010E949C1AAA
:102BB00069017A01002341F0F094E094D094C0942C
:102BC000C11CD11CE11CF11CC701B6010E94A90B5C
:102BD0008F5F90E0212F332727FD30952817390785
:102BE00054F04FEF410FC701B6010E948F158DE6DB
:102BF0000E94E6144DC0C401B5010E94661A80E02F
:102C000090E09E012F5F3F4F7901002331F02DE2CC
:102C10002983AE014E5F5F4F01C0A9010E948C1451
:102C20006C0132E0A316B10478F1812F992787FD5A
:102C30009095019796012E193F092817390724F519
:102C4000C401B5010E94661A2501612C712CA301F3
:102C50009201280F391F411D511D85E6A816B104A8
:102C600018F4A4E6B0E002C0A8EEB3E00E944B1A4C
:102C7000A30192010E949C1ACA01B901A6010E94F7
:102C80008C148EE2F6018083612FC7010E947215B9
:102C90002C960FB6F894DEBF0FBECDBFDF91CF915B
:102CA0001F910F91FF90EF90DF90CF90BF90AF906A
:102CB0009F908F907F906F905F904F900895CF93EB
:102CC000C82F8DEF860F0E946B15C11103C088E2DB
:102CD00093E002C08CE293E0CF910C942F15462F25
:102CE000BC0180E090E00C948F15AF92BF92CF9220
:102CF000DF92EF92FF920F93CF93DF9300D0CDB787
:102D0000DEB75C014D3069F40F900F90DF91CF91E9
:102D10000F91FF90EF90DF90CF90BF90AF900C9409
:102D20005F164C3031F488EEA81683E0B80670F0D8
:102D300006C0453059F4883EEDEF9E0738F089EF24
:102D4000860F0E946B1580E293E039C0C42ED12C0F
:102D500085E0489FF0011124E65FFD4FE590F49077
:102D6000C7014A8369830E94CA1A6981681B4A8124
:102D7000161694F5483039F4B7FE05C0B194A19405
:102D8000B10801E001C000E085E08C9DF0018D9D5F
:102D9000F00D1124E75FFD4F849195E09C9DF001BB
:102DA0009D9DF00D1124E95FFD4F4591549121E067
:102DB000811101C020E0C5010E94AF15C7010F902D
:102DC0000F90DF91CF910F91FF90EF90DF90CF9018
:102DD000BF90AF900C942F150F900F90DF91CF9173
:102DE0000F91FF90EF90DF90CF90BF90AF9008953C
:102DF00045E00C94751640E00C94751641E00C9477
:102E00007516FF920F931F93CF93DF93CDB7DEB765
:102E100028970FB6F894DEBF0FBECDBF9EE0F92E07
:102E2000F9821FE11A8301E10B830C830D830E836A
:102E30000F831887AE014F5F5F4F60E08AEA90E032
:102E40000E94CD17F9821A830B830C831D831E8386
:102E50001F831887AE014F5F5F4F61E08AEA90E001
:102E60000E94CD17F9821A831B831C831D831E8346
:102E70001F831887AE014F5F5F4F62E08AEA90E0E0
:102E80000E94CD1728960FB6F894DEBF0FBECDBFB7
:102E9000DF91CF911F910F91FF900895AC9881E041
:102EA00090E00E948D06AC9A81E090E00E948D0631
:102EB000AC9884E690E00C948D0660FF02C0A89A5E
:102EC00001C0A89861FF02C0A99A01C0A99862FF39
:102ED00002C0AA9A01C0AA9863FF02C0AB9A01C0BF
:102EE000AB980C944E171F93CF93DF93EC01162FE2
:102EF000442311F0AD9A01C0AD98612F70E084E0D9
:102F0000759567958A95E1F7CE010E945D17612F4F
:102F1000CE01DF91CF911F910C945D1740E00C948E
:102F2000731761E00E948E1780ED97E00C948D0678
:102F3000CF93DF93CDB7DEB728970FB6F894DEBFF7
:102F40000FBECDBF28E0E8E6F0E0DE01119601906B
:102F50000D922A95E1F7FC012481421710F04FEF02
:102F6000420FFE013196E40FF11DE40FF11D2081A7
:102F7000260F2068622F28960FB6F894DEBF0FBE8A
:102F8000CDBFDF91CF910C948E17FC016181262F6C
:102F9000246021836C600C948E17CF92DF92EF92A5
:102FA000FF920F931F93CF93DF9300D0CDB7DEB77F
:102FB0007C01677088E0689FB00111246064C701DC
:102FC00049835A830E948E174981C42E5A81D52E77
:102FD00000E010E0F60161916F0141E0C7010E943D
:102FE00073170F5F1F4F08301105A1F70F900F9057
:102FF000DF91CF911F910F91FF90EF90DF90CF90D5
:103000000895CF93DF93EC01423018F088818860F7
:1030100088834C831D82222329F0413019F4888152
:1030200084608883A09AA19AA29AA39A80E593ECDF
:103030000E948D06AD98AC9863E0CE010E945D17AA
:1030400084E991E10E948D0663E0CE010E945D1744
:1030500084E991E10E948D0663E0CE010E945D1734
:1030600086E990E00E948D0662E0CE010E945D1725
:1030700068816062CE010E948E1784E08983CE0150
:103080000E94C517CE010E94911782E08A8366E0F4
:10309000CE01DF91CF910C948E17A59AA49AFC01D2
:1030A000108220E041E060E10C9401180C944D186E
:1030B00041E00E94731781E0089508958AE293E049
:1030C0000E946B0BAB01BC0186EC90E00C943405C4
:1030D000CF93C82F682F86EC90E00E94A9059091AD
:1030E00055049C2790935504CF91089580916700D3
:1030F000813059F480913C0390913D03892B29F054
:103100000E945E1882E08093670008958BE30C9420
:103110006818CF93DF93EC018991882319F00E94FE
:103120006818FACFDF91CF910895CF93DF93CDB791
:10313000DEB72F970FB6F894DEBF0FBECDBFAE013E
:103140004F5F5F4F0E948C14CE0101960E94891838
:103150002F960FB6F894DEBF0FBECDBFDF91CF9193
:103160000895CF93DF93EC011092550484E20E94FE
:103170006818BE0180E090E00E9495180E948618B1
:103180006091290370E06F5F7F4F882777FD8095FE
:10319000982F0E9495180E9486186091560470918D
:1031A0005704809158049091590428EE33E040E090
:1031B00050E00E947A1A44275527CA01B9010E949B
:1031C00095188EE20E946818609156047091570419
:1031D000809158049091590424E630E040E050E09A
:1031E0000E947A1ACA01B9012AE030E040E050E0BA
:1031F0000E947A1A0E949518DF91CF910C9486183C
:103200008DE00E9468188AE00C946818609155045B
:1032100070E080E090E00E9495180C940019CF9324
:10322000DF9381E090E00E94B118C2E5D2E0FE0198
:1032300084910E949D06BC0180E090E00E94951858
:103240000E9486182196F2E0C036DF0781F7C0E0C1
:103250008C2F0E94C90FBC0180E090E00E9495185D
:103260000E948618CF5FC63099F70E94D10FBC012B
:1032700080E090E00E9495180E9486180E94D50F69
:10328000BC0180E090E00E9495180E9486180E9480
:10329000EE0E682F70E080E090E00E9495180E948A
:1032A00086180E94460FBC0180E090E00E949518AD
:1032B0000E948618DF91CF910C940619CF93DF936B
:1032C000D82F82E090E00E94B118C0E08C2FDD235F
:1032D00019F00E94940602C00E949D06BC0180E085
:1032E00090E00E9495180E948618CF5FC53271F752
:1032F0006091880370E080E090E00E9495180E9441
:10330000861860E070E0CB010E9495180E94861834
:10331000DF91CF910C94061983E090E00E94B118E0
:103320000E944F06BC0180E090E00E9495180E9428
:1033300086180E943806BC0180E090E00E94951833
:103340000E9486180C940619CF93DF93C0913C031A
:10335000D0913D030E940F19C230D1056CF081E07D
:10336000C430D1050CF480E00E945E19229721F050
:10337000DF91CF910C948C19DF91CF9108950F9329
:103380001F9380916700813051F10E944914209170
:103390006700223051F460935A0470935B04809369
:1033A0005C0490935D041092670000915A041091A0
:1033B0005B0420915C0430915D04DC01CB01801B37
:1033C000910BA20BB30B8093560490935704A093D8
:1033D0005804B09359041F910F910C94A4191F9194
:1033E0000F9108950E94B206811105C010925404F5
:1033F000109253040FC00E94B506209153043091DF
:1034000054042817390731F09093540480935304DF
:103410000E94BF190C945D180C940E1A0E94761825
:1034200061E081E00E947F080E94370E60E080E04A
:103430000E94D414C0E0D0E08C2F875F0E94A606C3
:1034400067E00E946F160E946F15C130D10521F40C
:1034500061E080E00E94D4142196C430D10561F768
:1034600084E690E00E947614E1CFA29FB001B39F62
:10347000C001A39F700D811D1124911DB29F700D7D
:10348000811D1124911D08950E94351AB7FF0895DA
:10349000821B930B08950E94351AA59F900DB49F2F
:1034A000900DA49F800D911D11240895DB018F9331
:1034B0009F930E944B1ABF91AF91A29F800D911DC7
:1034C000A39F900DB29F900D11240895AA1BBB1BC2
:1034D00051E107C0AA1FBB1FA617B70710F0A61B14
:1034E000B70B881F991F5A95A9F780959095BC0135
:1034F000CD010895A1E21A2EAA1BBB1BFD010DC030
:10350000AA1FBB1FEE1FFF1FA217B307E407F50793
:1035100020F0A21BB30BE40BF50B661F771F881F6F
:10352000991F1A9469F760957095809590959B0105
:10353000AC01BD01CF010895052E97FB1EF4009448
:103540000E94B31A57FD07D00E947A1A07FC03D0D5
:103550004EF40C94B31A50954095309521953F4FF9
:103560004F4F5F4F089590958095709561957F4F6F
:103570008F4F9F4F0895EE0FFF1F0590F491E02DA0
:103580000994FB01DC0102C005900D9241505040AE
:10359000D8F70895FC0105900020E9F780959095F3
:1035A0008E0F9F1F0895DC01CB01FC01E199FECF36
:1035B00006C0FFBBEEBBE09A31960DB20D924150B2
:0A35C0005040B8F70895F894FFCFCB
:1035CA00000062042000E1010000400014005400E1
:1035DA0000000104010401010101010101000001CF
:1035EA0001010101010002010300000000600B005B
:1035FA000000008610F11000000000831100000096
:0A360A0000901100000000DF110025
:00000001FF
