:100000000C9417060C943F060C943F060C943F0684
:100010000C9496090C943F060C943F060C943F06F2
:100020000C943F060C94C6090C943F060C943F06B2
:100030000C943F060C94600A0C94950A0C943F06AD
:100040000C9472090C943F060C943F060C943F06E6
:100050000C943F061814241428142B142D14321455
:100060002F142B141814963598359A359E359E35D5
:100070009C35A235A035000000003ED73562000057
:100080000000F567E63007033200482BE803E1077C
:100090003200C32E2C010000000000000000000010
:1000A00000000000000000000000BDBBDF36C24CB5
:1000B000A40B0C4970170000000043BFA80E0000FD
:1000C000000008D75B1000000000B8DBBA20000079
:1000D000000003DB5F100000000000D6611000008C
:1000E00000001ED764100000000000DA61100C034D
:1000F0003200482BE803DA0232003A112C010006E4
:100100000800FF01010A01060900FF0302000206C0
:100110000A00FF00000A06060E00FF0302000506A3
:100120000D00FF02030004060C00FF03020003069B
:100130000B00FF04060007060700FF030200420150
:1001400000006F7074696F6E7300460003008813BF
:100150007017010032003200102700000000030079
:100160000000000080250000004B00000096000009
:1001700000E1000000C201000100010001000100D7
:100180000100B0040807520300005203B00408073E
:10019000E8030000E803D0079209D60600006C07C8
:1001A000E40C100ED007E40CB80B100E0410C409B8
:1001B000A60EAC0D740E6810B80B0A0F890C740EE5
:1001C000CC10B80B0A0F890C740EFE10B80B0A0F76
:1001D000890C40066C071405400678050100A00F45
:1001E000D007010001000100A00F01000100010083
:1001F000040000010202020202030405FD0AF30AE0
:10020000EE0AE90AE40ADF0ADA0AD50AD00ACB0ABA
:10021000F80AC70A9519DA19C41A1C1B271B321BC6
:10022000431C3F1C731C141DA61D201DAF1DAC1DBF
:10023000B61DDD1DE41D071E692039203F20AC22BC
:10024000271BAE2207C0080200440068020100001C
:10025000001027BB08FF7F4900B202000000000029
:1002600000EF080400490030040100000001000014
:100270000000000000000000000000000008090A63
:100280000001B308020041006A02010000001027CB
:10029000AB08020041006C02010000001027A30817
:1002A000020041006E020100000010279C080200BD
:1002B00041005A02010000007869940802004100E0
:1002C0005C02010000007869EF0804004900300476
:1002D000010000000100000000000000000000001C
:1002E00000000000240982004100660201000000B5
:1002F00030751F0982004100980201000000881338
:100300001A09820041009A020100000088131509B1
:10031000820041009C020100000088131009820045
:1003200041009E020100000088130B098200410079
:10033000A002010000008813060982004100A20209
:100340000100000088130009FF7F410080020000C7
:1003500000000000FA08FF7F41007E02000000005C
:100360000000EF0804004900300401000000010013
:10037000000000000000000000000000000006096E
:100380000A0B0C0D0E061F2021222324CE08C608BE
:10039000000064002C016400E803DC08D6080000BB
:1003A000E908E208000059095009440938092909F7
:1003B00000001A0B100B020B00003E0AFF7F020028
:1003C0003405010000000B003B0A0F0003008932D6
:1003D000FE7F6D2B0000250A1F0045005903FF7F9B
:1003E0006400F47E210A3F0040005D03FF7F0100AE
:1003F000581B160A1F0040005F03FF7F0100E8033F
:10040000C8093F004C006903FF7F0000E803370A7A
:100410000E8041006103010000008813370A1000BC
:10042000410061033200000078692A0A018041001E
:1004300061030100B004D0072A0A200041006103D3
:10044000FF7F01007869330A0480410075030100D1
:10045000000088132F0A0F80410063030100000091
:1004600088132F0A100041006303320000007869EE
:100470001A0A1E8040006503FF7F0100581B0F0A07
:100480001F8040006703FF7F0100E803050A0C801E
:100490004800770301000300C800FC0901004D007B
:1004A0007503010000000100F7090002480077030E
:1004B0000100ECFF0000EB0900024B007903010092
:1004C00001000A00E2091F004D006B03010000005B
:1004D0000100DA0900044A067B030A000A008403CB
:1004E000CE09000144036D0364005802AC26BE0926
:1004F0001F004700730301000100FA00B209030066
:1005000049007D03010000000500A8091F804B0081
:1005100071030100010063009D091F804D006F03FE
:1005200001000000010000000000000000000000C9
:1005300000000000FC0157038E0B7F0B770B6D0B47
:10054000610B590B4A0B3F0B300B230B00090003C7
:10055000040708090003070809000102030407084B
:10056000090001020304050607080909C10AFF7F03
:100570004D004503010000000100B90AFF7F400063
:10058000470301000100F401B10AFF7F4000490365
:1005900001000100F401A50AFF7F41034B03E803BA
:1005A000581B30759A0AFF7F4D004D030100000073
:1005B0000100940AFF7F020004060100000004000D
:1005C0008C0A020001000006010000000400850AF8
:1005D000FF7F0200F8050100000001007F0AFF7F95
:1005E000000000000000000000000000000000000B
:1005F0000000000000000000FC055503500A470AF7
:100600006401510308064F03760A6F0A690A600AFB
:10061000570A20202D2D202000636865616C692D0C
:10062000636861726765720A76312E39395F3230DC
:100630003135303831350063616C69626174696FDE
:100640006E206572726F7200706C656173652063F5
:10065000616C69627261746500656570726F6D20AE
:1006600072657365740A6572726F723A2000726502
:1006700073657474696E6720656570726F6D0020B4
:100680002020202020202020202020796573006554
:100690006570726F6D2072657365743A00524556CD
:1006A0004552534520504F4C4152495459006572B0
:1006B000726F723A2020202000636F6D706C657439
:1006C000653A2000CD3200000040000000000434F4
:1006D00000400000000000408C30FFFFFF7F04005E
:1006E0000040DA31FFFFFF7F04000040D030FFFF01
:1006F000FF7F040000009431000200000800004069
:10070000A2310002000008000040B83100020000E1
:10071000000000401F2E0000006000000000232E9B
:100720000000006000000000272E000000200400F0
:1007300000402B2E00000020040000405731FFFF36
:10074000FF7F040000401731FFFFFF7F00000040E3
:100750007731FFFFFF7F000000004B338001000076
:10076000000000403132FFFFFF7F0000000000006A
:10077000FFFFFF7F00000000250064656C746120AE
:10078000543D20004E2F4100546578743D0064654F
:100790006C746120563D20006D6178566F75743D14
:1007A000002D00546578743D00206C696D69743DBE
:1007B0000056696E7075743D0077697265732052DA
:1007C0003D00626174742E20523D006220004C692D
:1007D0006D6974733A20006E6F2064542F74009D0D
:1007E000090F004D006F03010000000100370A0EE1
:1007F00000410061030A00000088132F0A0F004126
:100800000063030A000000881300000000000000DD
:100810000000000000000025200043684342426CB5
:10082000446946435374534243594343000101030F
:1008300008141E0101FA7D3C1E0A01E80301200C88
:10084000E803001E0C6400001C0C640000190C641A
:100850000000170CE80301140CE80301120C01005E
:1008600000100CE803011E0C010000090C640000DC
:100870000C0C0100000A0C0100000A0C0100000031
:1008800000010000070C141719181A0705061F208D
:1008900021222324566D696E75733A0056706C756B
:1008A000733A0056623270696E3A0056623170696E
:1008B0006E3A0056623070696E3A006164633A00C5
:1008C00074656D703A00496F75743A202000766146
:1008D0006C75653A20003330306D41003130306D39
:1008E0004100313030306D41003130306D410063B6
:1008F000616C69622E20702E3A00566F75743A0052
:1009000056312D363A005662363A005662353A0074
:100910005662343A005662333A005662323A005612
:1009200062313A0056696E3A0065787065727420DB
:1009300044414E474552210074656D7020657874BE
:1009400065726E004920646973636861726765004F
:10095000492063686172676500766F6C74616765D2
:100960000062616C616E636520706F727421006259
:100970006174746572792100646973636F6E6E656A
:10098000637400636F6E6E6563740064542F6474E7
:10099000002D64560056206C696D697400616461B5
:1009A0007074206469733A00442F43207265737435
:1009B0003A00442F43206379636C65733A006361A6
:1009C0007020434F66663A0074696D653A007C6535
:1009D0007874726E2054434F3A007C64542F6474D0
:1009E0003A00657874726E20543A007C69676E72C2
:1009F00020667273743A007C64563A00656E6162D8
:100A00002064563A0062616C2E206572723A006D65
:100A1000696E49643A0049643A006D696E49633A07
:100A20000049633A004361703A0056636F3A0056DA
:100A3000643A0056733A0056633A00563A006261CF
:100A400074746572793A00616476616E63656400FE
:100A500073696D706C65006578742E204164630065
:100A60006578742E20646562006465627567006E47
:100A70006F726D616C0064697361626C65640072B1
:100A800065736574006D656E75733A007C7370658F
:100A900065643A00554152543A00616463206E6FB8
:100AA0006973653A00696E707574206C6F773A20CF
:100AB000006D696E2049643A006D696E2049633AA1
:100AC00000626565703A004C4544004E695A6E00FC
:100AD0004C343335004C343330004C69706F004C6B
:100AE000696C6F004C6966650050622020004E6999
:100AF0004D48004E69436400556E6B6E004E6F6E3C
:100B0000650072657365742064656661756C740058
:100B100063616C6962726174650073657474696E97
:100B2000677300656469742062617474657279002A
:100B3000636170616369747920636865636B004405
:100B40003E4320666F726D61740073746F726167EB
:100B5000652B62616C616E630073746F72616765AF
:100B6000006661737420636861726765006469730D
:100B70006368617267650062616C616E63650063E2
:100B800068617267652B62616C616E6365006368A2
:100B900061726765006578742E74656D702E63757B
:100BA000746F66660074696D65206C696D697400A8
:100BB0006361706163697479206375746F66660040
:100BC000696E707574205620746F206C6F770048C2
:100BD00057206661696C7572650062616C616E6355
:100BE000657220646973632E006261747465727942
:100BF00020646973632E006E6F6C696D69740020E8
:100C00006E6F00796573005500006D00432F6D0015
:100C10002500F40041680043005768005700560063
:100C20004100DD06CC0BA012B52C06305332112446
:100C30001FBECFE5D8E0DEBFCDBF10E0A0E6B0E03C
:100C4000ECEFFAE702C005900D92A23BB107D9F78D
:100C500014E0A2EBB0E001C01D92A93CB107E1F79E
:100C60001CE0CEE2DCE004C02297FE010E94213DA0
:100C7000C232D107C9F70E9499120C947C3D0C94A2
:100C8000000086B383FB882780F991E08927B29B17
:100C900002C090E001C092E0892BB19B02C090E0BD
:100CA00001C094E0892BB09B02C090E001C098E0A5
:100CB000892B0895882339F0A69AA79AD59A889AFD
:100CC0008A9A8F9A0895A698A798D59888988A980E
:100CD0008F98089520E042E060E183EB90E00E946D
:100CE0004B3A0E94490A0E941C0888E799E60C9436
:100CF00049078091B900882331F08091B2008F5F5D
:100D00008093B20002C01092B2008091B9008A3084
:100D100010F480E001C088E09091B900943108F0AF
:100D200084E09091B9009E3108F082E09091B20089
:100D3000982311F0C49A0895C49808958093B90037
:100D40000895811106C0939A0E94720780E00C9466
:100D500069079398089580FF02C0AE9A01C0AE98CB
:100D600081FF02C0AF9A01C0AF9882FF02C0DD9A36
:100D700001C0DD9883FF02C0909A01C0909884FF63
:100D800002C0929A01C0929885FF02C0979A089576
:100D90009798089580E00E94AB0680E00E94A1062B
:100DA0001092B90087B18F7387B98B9A8D9AD79AB1
:100DB000BC9A8C9A8D9A8E9A089583EB90E00C944D
:100DC000A03A2FB7F8948091BB009091BC00A091FD
:100DD000BD00B091BE002FBF892F9A2FAB2FBB272C
:100DE000A7FDBA9508952FB7F8941092C2001092FB
:100DF000C1008617970768F480E090E4A0E0B0E0B7
:100E00008093BB009093BC00A093BD00B093BE0044
:100E100008C01092BB001092BC001092BD0010924E
:100E2000BE008091BB009091BC00A091BD00B0912C
:100E3000BE00BA2FA92F982F88278093BB009093CC
:100E4000BC00A093BD00B093BE0081E08093BA00C7
:100E50002FBF0895CF93DF93EC01C13080E6D80710
:100E600058F4C13080E4D80748F48EE00E94550A57
:100E70009598BE018DE009C0C0E0D0E68DE00E94EB
:100E8000550A949ABE0170548EE0DF91CF910C9474
:100E9000330A893729E6920710F088E799E6BC0102
:100EA00080E00E945A0E813C2FEF920710F080ECF8
:100EB0009FEF2FB7F8949093C0008093BF002FBF8F
:100EC00008952FB7F8949093C2008093C1002FBF6C
:100ED0000895882329F080E00E947207DF98089522
:100EE000DF9A0895CF93DF93C82F882319F080E00D
:100EF0000E946907DFB7F8948DE00E94550A949824
:100F00008EE00E94550A95981092BA00DFBFC11179
:100F100004C0969ADF91CF910895969880E00E9440
:100F2000860CEC0186E00E94860CBE01DF91CF9119
:100F30000C94F3060F931F938091BA00882309F451
:100F400074C080E00E948F0C2091BF003091C000DF
:100F50008217930730F080E00E9472071092BA0067
:100F600064C082E00E948F0C4091C1005091C20089
:100F700060E070E00091BB001091BC002091BD00CA
:100F80003091BE00481B590B61097109E2E0440F22
:100F9000551F661F771FEA95D1F7040F151F261FEF
:100FA000371F0093BB001093BC002093BD0030930B
:100FB000BE008091BB009091BC00A091BD00B0919B
:100FC000BE00B7FF08C01092BB001092BC00109288
:100FD000BD001092BE008091BB009091BC00A0911A
:100FE000BD00B091BE000197A046B10560F080E061
:100FF00090E0A0E6B0E08093BB009093BC00A0938B
:10100000BD00B093BE008091BB009091BC00A09148
:10101000BD00B091BE00892F9A2FAB2FBB27A7FD33
:10102000BA951F910F910C942A071F910F91089563
:10103000BC018EE00C94330ADE98D698BD9ABE9A15
:10104000BF9A8EEA86B9369A089584B135B1E09197
:10105000CC002FB7F89490E0932BF0E0DF01AA0FBB
:10106000BB1FAA53BD4F11969C938E933091C50020
:10107000332391F0EE0FFF1FEE0FFF1FE851FD4FDE
:101080004081518162817381480F591F611D711D1B
:1010900040835183628373832FBF0895CF930E944F
:1010A0001B239093E5028093E4020E94A11C90937D
:1010B000E7028093E6028091C500882309F459C0B5
:1010C0000E941B2340912403509125036091260325
:1010D00070912703CAE09C01C29FC001C39F900D7D
:1010E0001124480F591F611D711D40932403509313
:1010F000250360932603709327030E94A11C40914F
:1011000028035091290360912A0370912B039C01BD
:10111000C29FC001C39F900D1124480F591F611D2C
:10112000711D409328035093290360932A03709301
:101130002B0380912C0390912D030197B9F480919A
:10114000F0029091F102A091F202B091F30252E00C
:10115000B695A795979587955A95D1F78093F00204
:101160009093F102A093F202B093F302CF910C940A
:10117000330FCF91089580914D0390914E03892BA9
:10118000E9F04091C9004423C9F081E090E000906B
:10119000C70002C0880F991F0A94E2F720912C0320
:1011A00030912D032F703FB7F8945BB39BB3982B0E
:1011B0009BBB240F2A95F1F75BBB3FBF089580913D
:1011C000C4008F5F803108F080E08093C40080917C
:1011D000C6009091C700A091C800B091C90080934B
:1011E000CA009093CB00A093CC00B093CD00E091C7
:1011F000C400EF5FE03108F0E0E084E0E89FF00138
:101200001124E250FF4F85919591A591B49180935F
:10121000C6009093C700A093C800B093C900809106
:101220004F0390915003892B39F08091C60087308D
:1012300019F486E08093C6008091C40081110CC02F
:101240000E944E0880912C0390912D0321E0892B60
:1012500009F420E02093C50008950E94250880919C
:10126000C30091E0980F9093C300873079F128F480
:10127000882341F08130A9F00895883049F1893000
:1012800061F108958091C60087FD05C088B38F7114
:10129000806C88BBD69A8091CC00823011F50C947A
:1012A0009A078091C60087FD1CC04FB7F8943AB3E7
:1012B0003F7B28B38091C60050E28502C001112413
:1012C0002F71282B28BB3ABB4FBF08950C94BB0845
:1012D0008091C700806287B908951092C3000C9472
:1012E000DF0808951F920F920FB60F9211242F93CB
:1012F0003F934F935F936F937F938F939F93AF939E
:10130000BF93EF93FF930E942D09FF91EF91BF913F
:10131000AF919F918F917F916F915F914F913F918D
:101320002F910F900FBE0F901F9018951F920F9244
:101330000FB60F9211242F933F934F935F936F93A8
:101340007F938F939F93AF93BF93EF93FF930E94ED
:10135000D435FF91EF91BF91AF919F918F917F9184
:101360006F915F914F913F912F910F900FBE0F9012
:101370001F90189588E085BD85B5846085BD14BC37
:101380008CE783BD89B7806889BF08951F920F924B
:101390000FB60F9211242F933F934F935F936F9348
:1013A0007F938F939F93AF93BF93EF93FF9320917E
:1013B000D4003091D5008091D0009091D100820F5F
:1013C000931F9093D1008093D0002091D200309150
:1013D000D3008091CE009091CF00820F931F909305
:1013E000CF008093CE002FB7F8948091D0009091D9
:1013F000D10035E0969587953A95E1F79BBD8ABD7A
:101400008091CE009091CF0045E0969587954A95C2
:10141000E1F799BD88BD2FBF8091D0009091D10098
:101420008F7199279093D1008093D0008091CE0046
:101430009091CF008F7199279093CF008093CE0029
:101440000E947906FF91EF91BF91AF919F918F918B
:101450007F916F915F914F913F912F910F900FBEB0
:101460000F901F9018959FB7F8948E3039F47093B1
:10147000D5006093D4008FB5806808C08D3039F4F2
:101480007093D3006093D2008FB580628FBD9FBFF1
:10149000089580E092E097BD86BD82E08FBD89E12E
:1014A0008EBD89B7846089BF08958E3019F48FB5D9
:1014B0008F7704C08D3019F48FB58F7D8FBD08955F
:1014C0001F920F920FB60F9211242F933F934F93B9
:1014D0008F939F93EF93FF935A991AC04CB18091C9
:1014E000EC019091ED01019699272091EE01309148
:1014F000EF018217930769F0E091EC01F091ED01A3
:10150000E451FF4F40839093ED018093EC0101C0C3
:101510008CB1FF91EF919F918F914F913F912F91BE
:101520000F900FBE0F901F9018951F920F920FB63D
:101530000F9211242F933F938F939F93EF93FF93D9
:101540002091EC013091ED018091EE019091EF013D
:101550002817390711F4559812C0E091EE01F09167
:10156000EF01E451FF4F20818091EE019091EF0156
:10157000019699279093EF018093EE012CB9FF918A
:10158000EF919F918F913F912F910F900FBE0F90F0
:101590001F901895CF92DF92EF92FF92CF93DF9337
:1015A000EC016A017B01411581EE58076105710567
:1015B000F9F0E885F98581E090E00C8802C0880F99
:1015C000991F0A94E2F7808360E079E08DE390E070
:1015D000A70196010E94DE3C2150310941095109C1
:1015E0005695479537952795211580E1380798F04E
:1015F000E885F985108260E874E88EE190E0A70143
:1016000096010E94DE3C215031094109510956954D
:10161000479537952795EC81FD813083EE81FF81D9
:1016200020831D8AEA85FB85408181E090E09C0152
:10163000098802C0220F331F0A94E2F7422B40832D
:10164000EA85FB8540819C010A8802C0220F331F76
:101650000A94E2F7422B4083EA85FB8520810B88C0
:1016600002C0880F991F0A94E2F780958223808335
:10167000DF91CF91FF90EF90DF90CF900895CF93BF
:10168000DF93FC0182819381DC01B395EC01CE5F95
:10169000DE4F4D915C911197288139814217530794
:1016A000C1F7A285B3854C9181E090E09C0101884F
:1016B00002C0220F331F0A94E2F7209524232C93B3
:1016C000A285B3854C919C01028802C0220F331F72
:1016D0000A94E2F7209524232C93A285B3852C91BC
:1016E000038802C0880F991F0A94E2F7809582232D
:1016F0008C9380819181FC01EE5FFE4F20813181CE
:10170000FC01F39531832083DF91CF910895FC0193
:101710008589882329F0A085B1858C9186FFFBCF30
:10172000158A0895CF93DF93FC0122813381D9017B
:10173000B3958D919C91119701969927E901CE5F00
:10174000DE4F4881598184179507D9F30D90BC91DC
:10175000A02DA20FB31F6C93A281B381B3951196F4
:101760009C938E93A285B3852C9181E090E00388B1
:1017700002C0880F991F0A94E2F7282B2C9381E06E
:10178000858B0084F185E02D80818064808381E0F9
:1017900090E0DF91CF9108958CEE90E09093D70088
:1017A0008093D6009093D9008093D80080E490E095
:1017B0009093DB008093DA0029E230E03093DD0083
:1017C0002093DC002BE230E03093DF002093DE003A
:1017D0002AE230E03093E1002093E0009093E300B0
:1017E0008093E2008CE290E09093E5008093E40027
:1017F00084E08093E60083E08093E70087E08093B5
:10180000E80085E08093E90081E08093EA00089594
:10181000CF93DF931F92CDB7DEB7E091C504F0916F
:10182000C604309711F4E9ECF4E0CE0101962EEBFA
:101830008E179F0710F02193FBCF0F90DF91CF9170
:101840000895CF93DF9300D0CDB7DEB72091C504C4
:101850003091C6042115310511F429EC34E0CE0194
:101860000196821B930B0F900F90DF91CF910895FB
:10187000CF93DF931F92CDB7DEB72091C50430918F
:10188000C6042115310511F429EC34E0F901AE014B
:101890004F5F5F4FCF01821B930B4E175F0728F0FE
:1018A00060816E3B11F43196F5CF0F90DF91CF91AF
:1018B0000895009741F0EFE9FFE03197F1F700C09C
:1018C00000000197F6CF08958436910538F064E65C
:1018D00070E00E94CA3CCB010C94590C019728F08F
:1018E00025E32A95F1F70000F9CF08956AE070E04A
:1018F0000E94CA3CCB010C94640CE82FF0E0EE0F80
:10190000FF1FEC55FD4F808191810895E82FF0E095
:10191000EE0FFF1FE65AFD4F8081918108952FB78A
:10192000F894E82FF0E0EE0FFF1FEA53FD4F80819F
:1019300091812FBF089580912F03089580910E0209
:1019400090910F0208958091FC019091FD010895FE
:101950008091FE019091FF0108958093F90108950F
:10196000E82FF0E0EE0FFF1FE05FFD4F80819181D7
:101970000895262F613110F4423040F021E030E02C
:10198000FC013383228331832083089550E0BA0120
:10199000620F711D620F711D660F771F660F771F33
:1019A000645F7F4F44E050E00C94373D282FCA011C
:1019B000213188F4623078F470E0620F711D620F9B
:1019C000711D660F771F660F771F645F7F4F44E0BE
:1019D00050E00C94553D0895FF920F931F93CF93C1
:1019E000DF9300D000D0CDB7DEB706E710E0F12CD2
:1019F000F801459155916591749149835A836B83A0
:101A00007C83AE014F5F5F4F60E08F2D0E94D60C4C
:101A1000F8013496459155916591749149835A83A3
:101A20006B837C83AE014F5F5F4F61E08F2D0E941F
:101A3000D60CF394085F1F4F81E1F812D9CF81E0F3
:101A40000E9427130F900F900F900F90DF91CF916E
:101A50001F910F91FF90089581E0209184023091B1
:101A600085022331310509F080E0089580918202DA
:101A700090918302089580917E0290917F02089553
:101A80008091880290918902089580913802909106
:101A90003902039750F080913E0290913F020397E4
:101AA00020F083E090E00C94061A80E008952FB7B0
:101AB000F89480E090E0FC01EE0FFF1FEE0FFF1F97
:101AC000E851FD4F108211821282138201968131FA
:101AD000910589F784E690E090932D0380932C0381
:101AE00010922E032FBF0895CF93CFB7F894109282
:101AF0000D0210920C02109208021092090210922C
:101B00000A0210920B021092040210920502109227
:101B10000602109207021092000210920102109227
:101B20000202109203020E94FC359093FB01809305
:101B3000FA01CFBFCF9108950E94740D1092FF015A
:101B40001092FE011092FD011092FC010895E0E157
:101B5000F2E01192119282E0EA35F807D1F7089588
:101B6000CF93CFB7F89481E090E090932D038093CA
:101B70002C0381E080932E030E94A70DCFBFCF914D
:101B80000895CF93DF930E94B00DC0910E02D091C3
:101B90000F0280910E0290910F02C817D90729F405
:101BA0008AE090E00E942236F4CFDF91CF91089531
:101BB00010922F0380E00C94A106CF93DF9381E075
:101BC0000E948F0CEC0180E00E948F0C8C179D0707
:101BD00018F4C81BD90B02C0C0E0D0E081E0C93EB8
:101BE000D34008F480E0DF91CF9108958F929F92C7
:101BF000AF92BF92CF92DF92EF92FF92CF93DF939B
:101C0000CDB7DEB728970FB6F894DEBF0FBECDBFB5
:101C1000F82E5B0161157105D1F140E0682FCE010E
:101C200005960E94B90C41E06F2DCE0101960E94ED
:101C3000B90C2B813C8140E050E0CF80D884E12C6E
:101C4000F12C2C193D094E095F09B50180E090E0A7
:101C50008D809E80A12CB12C681979098A099B0975
:101C60000E94AE3C29813A8140E050E028193909B0
:101C70004A095B090E94003D2C0D3D1D4E1D5F1D54
:101C800057FF03C020E030E0A901C90102C080E095
:101C900090E028960FB6F894DEBF0FBECDBFDF915F
:101CA000CF91FF90EF90DF90CF90BF90AF909F903B
:101CB0008F9008958F929F92AF92BF92CF92DF92B2
:101CC000EF92FF92CF93DF93CDB7DEB728970FB691
:101CD000F894DEBF0FBECDBFF82E5B016115710514
:101CE000D1F140E0682FCE0105960E94B90C41E089
:101CF0006F2DCE0101960E94B90C29813A8140E0F6
:101D000050E0CD80DE80E12CF12C2C193D094E09EC
:101D10005F09B50180E090E08F809884A12CB12C00
:101D2000681979098A099B090E94AE3C2B813C8184
:101D300040E050E0281939094A095B090E94003D3A
:101D40002C0D3D1D4E1D5F1D57FF03C020E030E0F0
:101D5000A901C90102C080E090E028960FB6F8946E
:101D6000DEBF0FBECDBFDF91CF91FF90EF90DF9030
:101D7000CF90BF90AF909F908F90089582508931FF
:101D800030F4E82FF0E0EF58FF4F8081089581E0B4
:101D90000895CF93DF93833149F481E02091840249
:101DA0003091850223313105C1F41AC0E82FF0E0EB
:101DB000EE0FFF1FE65AFD4FC081D1810E94BE0E7B
:101DC000882319F0813029F00AC081E0E39740F4BC
:101DD00004C081E0C935D24018F480E001C081E040
:101DE000DF91CF910895CF93C0E08FE18C0F0E94D7
:101DF000C90E882329F0CF5FC630B9F786E001C04D
:101E00008C2FCF9108951F93CF93DF931F92CDB75F
:101E1000DEB7182F69830E94BE0EE12FF0E0EE0FAF
:101E2000FF1FE65AFD4F482F6981808191810F90F5
:101E3000DF91CF911F910C94B9382FB7F89460912E
:101E4000F5017091F6018091F7019091F8012FBF93
:101E50002DE730E040E050E00E94DE3CBB27A52F9C
:101E6000942F832F089580912C0390912D03892B1B
:101E700049F080912C0390912D03019790932D03AD
:101E800080932C03089590E0880F991FFC01E65A77
:101E9000FD4F208131816217730718F4261B370B21
:101EA00004C0AB01421B530B9A01FC01E05FFD4FE4
:101EB0002730310518F01182108206C0208131814F
:101EC0002F5F3F4F31832083FC01E65AFD4F718322
:101ED000608308958FB7F8941092F5011092F6017F
:101EE0001092F7011092F8011092F1011092F20194
:101EF0001092F3011092F4018FBF0E94B00D0E9466
:101F00009C0D60E070E089E10E94430F60E070E0AA
:101F10008BE10E94430F60E070E08CE10E94430F70
:101F200060E070E08DE10C94430F10920F0210926C
:101F30000E020C946A0FCF93DF931F92CDB7DEB7DA
:101F400090912F0391110FC069830E94A1066981AE
:101F500061110E94950F81E080932F030F90DF9114
:101F6000CF910C94C10D0F90DF91CF9108950C94F7
:101F7000950F80912F03882309F44FC04091880268
:101F8000509189028091F5019091F601A091F7019D
:101F9000B091F801840F951FA11DB11D8093F5012B
:101FA0009093F601A093F701B093F8018091F001AE
:101FB00091E0980F9093F001883578F120917E029E
:101FC00030917F02DA010E948D3C24E630E040E04F
:101FD00050E00E94DE3C8091F1019091F201A091CD
:101FE000F301B091F401280F391F4A1F5B1F2093A2
:101FF000F1013093F2014093F3015093F401CA01CF
:10200000B90120EA3CE840E050E00E94DE3CB90122
:102010008AE10E94430F1092F0010895CF92DF925F
:10202000EF92FF920F931F93CF93DF931F92CDB741
:10203000DEB7C0905A02D0905B0280915C02909112
:102040005D028C159D0518F4C81AD90A02C0C12C6E
:10205000D12CB60182E10E94430F20916A02309197
:102060006B0280916C0290916D0200916E02109152
:102070006F022817390720F4BC01621B730B02C0E2
:1020800060E070E08017910718F4081B190B02C07C
:1020900000E010E08FE10E94430FB80180E20E944F
:1020A000430F00E712E091E2F801619171918F0115
:1020B000892F99830E94430F99819F5F9532A1F7E1
:1020C0000E94F30EF82E80E000E010E08F1569F01A
:1020D000EFE1E80FF0E0EE0FFF1FE65AFD4F208121
:1020E0003181020F131F8F5FF1CFB80183E10E948E
:1020F000430F0115110581F00C151D0520F4960103
:10210000201B310B03C098012C193D09293B3B4092
:1021100018F4680113E102C012E1F12CB60184E168
:102120000E94430F6F2D70E086E10E94430F612FE4
:1021300070E085E10E94430F0E941D0F7C010E9408
:10214000951C882329F000916002109161020BC058
:102150000E940F23882329F000915E0210915F02F4
:1021600002C000E010E0B80187E10E94430FB70110
:1021700089E10E94430F9801D6010E948D3C20E125
:1021800037E240E050E00E94DE3CB90188E10F9068
:10219000DF91CF911F910F91FF90EF90DF90CF9043
:1021A0000C94430F1F93CF93DF93182FC82FD0E0C9
:1021B000FE01EE0FFF1FEE0FFF1FE851FD4F608184
:1021C00071818281938128EE33E040E050E00E94EB
:1021D000DE3CFE01EE0FFF1FEC55FD4F31832083E7
:1021E000B901812F0E94F60DBC01812FDF91CF91A3
:1021F0001F910C94430F4F925F926F927F928F9238
:102200009F92AF92BF92CF92DF92EF92FF92CF93C5
:10221000DF93CDB7DEB728970FB6F894DEBF0FBEB9
:10222000CDBF0E94FC352091FA013091FB01821B49
:10223000930B8133954708F4A4C04FB7F8942091CD
:102240000C0230910D02A8EEB3E00E948D3C6B01B0
:102250007C01F694E794D794C7944090080250907C
:10226000090260900A0270900B0260910402709162
:1022700005028091060290910702809000029090E2
:102280000102A0900202B09003024FBF6D837E83D3
:102290008F8398870E94740D2091FE013091FF0179
:1022A0002F5F3F4F3093FF012093FE016D817E81B0
:1022B0008F819885A70196010E94DE3C29833A838D
:1022C0004B835C83C301B201A70196010E94DE3CEF
:1022D000B90180E00E94F60D3C0169817A8181E0BC
:1022E0000E94F60D8615970518F4681A790A02C03F
:1022F000612C712C409092025090930264147504EA
:1023000020F48091F901811104C0B3018CE10E9495
:10231000430FB301641975098BE10E94430FC50196
:10232000B401A70196010E94DE3CB90187E00E943A
:10233000F60D2091FC013091FD019093FD018093F9
:10234000FC01BC01621B730B660F771F8DE10E94BD
:10235000430FB6018EE128960FB6F894DEBF0FBE8C
:10236000CDBFDF91CF91FF90EF90DF90CF90BF90E6
:10237000AF909F908F907F906F905F904F900C9454
:10238000430F28960FB6F894DEBF0FBECDBFDF9186
:10239000CF91FF90EF90DF90CF90BF90AF909F9044
:1023A0008F907F906F905F904F900895CF932FB74D
:1023B000F89480912C0390912D032FBF892B09F065
:1023C0008DC080912E03811186C080912F038823B8
:1023D00009F47EC080910E0290910F0201969093B5
:1023E0000F0280930E024091E8025091E902609141
:1023F000EA027091EB027695679557954795809123
:10240000080290910902A0910A02B0910B02840F78
:10241000951FA61FB71F8093080290930902A093EF
:102420000A02B0930B024091EC025091ED026091D0
:10243000EE027091EF0276956795579547958091DA
:10244000040290910502A0910602B0910702840F48
:10245000951FA61FB71F8093040290930502A093B7
:102460000602B09307024091040350910503609166
:102470000603709107037695679557954795809168
:10248000000290910102A0910202B0910302840F18
:10249000951FA61FB71F8093000290930102A0937F
:1024A0000202B093030280910C0290910D020196FA
:1024B00090930D0280930C020E94FB10C0E08C2FC1
:1024C0000E94D210CF5FC131D1F70E940E1003C01D
:1024D00085E00E94D210CF910C94570DCF910895B2
:1024E0000C94D61160E080E393E00E940C2B87FDF2
:1024F0000AC0811102C00C943E2B992787FD90954C
:1025000001970C948D2C08950E94CA0678940E941D
:102510006A060E94BA090E94A7230E940F1D0E940A
:10252000B70F0E94080C0E94AB140E94E52E0C9479
:10253000FE2F0E9484120E94B3130E947212FDCFDC
:102540006EE371E080E393E00E94632D8EE890E0FB
:102550009093310380933003E4E3F3E080818C5E59
:1025600080830895FC0124812451621710F40C9497
:102570005E2D862F821B0C942F18FF920F931F93B2
:10258000CF93DF93EC018B0141110E94763D85E0F2
:10259000F82EFA9459F0CE010E944F3D8017910712
:1025A00039F084E690E00E940E36F3CF81E001C05E
:1025B00080E0DF91CF911F910F91FF900895EF92EE
:1025C000FF920F931F93CF93DF937B018C01E80E53
:1025D000F91ECFEFDFEF0E151F05A9F0C8010E940D
:1025E000473DC82728E0CE01969587953C2FEC0102
:1025F00030FF04C031E0C32730EAD327215099F7D8
:102600000F5F1F4FE8CFCE01DF91CF911F910F9148
:10261000FF90EF900895EF92FF920F931F93CF9347
:10262000DF931F92CDB7DEB78C017B0149830E94F7
:10263000DF124981BC01C8018E0D9F1D0F90DF91F3
:10264000CF911F910F91FF90EF900C94BD12482FE6
:1026500068E870E08CE090E00C940B13482F60E287
:1026600073E086E990E00C940B13482F6AE170E068
:1026700088EB93E00C940B130F931F93CF93DF938E
:10268000D82F182F1170412F63E678E680E090E094
:102690000E94BD12C82F412F6CE679E682E090E0DF
:1026A0000E94BD128111C1E0412F61E070E184E020
:1026B00090E00E94BD128111C1E0D1FB002700F91A
:1026C000402F69E070E086E090E00E94BD12811129
:1026D000C260D2FB112710F9412F63E070E088E05F
:1026E00090E00E94BD128111C460D3FBDD27D0F9B8
:1026F0004D2F6AE070E08AE090E00E94BD128111E7
:10270000C86001110E94EC0C80E00E942713811127
:10271000C26011110E941D1880E00E942E138111C9
:10272000C460D1110E94C41480E00E94351381114D
:10273000C8608C2FDF91CF911F910F910895CF9397
:10274000C82F0E94BC2FC0FDC260C1FDC460C2FD85
:10275000C8600E94D62F8C2F0E943C13682F8C2FAC
:10276000CF910C94DA2F80E00E943C13882321F053
:102770000E949F1380E0089581E0089580E00E9408
:102780003C1381600C949F13CF930E94DB2E86E252
:1027900092E09093AB038093AA03C1E0C093A90396
:1027A0001092A2030E941A16823011F4C093A20361
:1027B0000E94FA1B91E0813009F090E0892FCF91BF
:1027C000089561E081E00E944D1B82E392E09093C6
:1027D000AB038093AA03089561E081E00E944D1B42
:1027E0008EE392E09093AB038093AA03089560E098
:1027F00082E00E944D1B80E292E09093AB038093B5
:10280000AA03089561E081E00E944D1B8AE192E0F5
:102810009093AB038093AA0308951092A20390E0D3
:102820008930910528F5FC01E65DFF4F0C941F3DB2
:102830000E941A16811102C00C94EC130E941A1601
:10284000853059F40C94021481E08093A20305C0F2
:1028500084E192E009C00C94F7130C94E11381E039
:102860008093A20388E392E09093AB038093AA0342
:1028700008950E94C81E0C946A0FCF93C82F0E941F
:1028800039148C2F0E940D14C73029F0C83059F428
:1028900063E081E005C060917D03660F615080E0D8
:1028A000CF910C949918CF910C94FA1B0E94EA1CBA
:1028B00088EE93E00E94CB1C84E690E00E942236D2
:1028C0000C94FD1CCF93C82F0E947528882389F192
:1028D0000E945614C0933C038C2F0E940D1410923A
:1028E0003A031092390383E080933B030E94E23A5B
:1028F00061E081E00E949B0F0E94C413882391F045
:1029000081E080933B030E94E51E0E94DB2E109223
:10291000A90384E00E94DA3480913C030E943D14B4
:102920000E94251F0E94D80D0E94F23ACF910C946C
:10293000E42ECF910895DC015496ED91FC915597CA
:10294000EE0FFF1FEE0FFF1FEC59FE4F65917591C3
:102950008591949108954AE150E068EB73E08DE32E
:1029600093E00C94373D4AE150E068EB73E08DE36F
:1029700093E00E94553D81E00C9435134AE150E00C
:102980006AE471E00C94253D8DE393E00E94BE144F
:102990000C94B3140895FC010994FC018591949161
:1029A0000C94CB14009761F09C0180E0F9014591F3
:1029B00054912E5F3F4F452B11F08F5FF7CF089555
:1029C00080E00895282F81E090E03AE0215038F02F
:1029D000AC01349FC001359F900D1124F7CF0895AD
:1029E00097FD02C081E008958FEF0895CF92DF92A6
:1029F000EF92FF92CF9397FF08C0909580957095C6
:102A000061957F4F8F4F9F4F07C0611571058105FD
:102A1000910511F0C0E001C0C1E02AE0C22ED12C26
:102A2000E12CF12C611571058105910541F0CF5F15
:102A3000A70196010E94003DCA01B901F3CF8C2F76
:102A4000CF91FF90EF90DF90CF900895BC0180E090
:102A500090E00C94F614CF92DF92EF92FF920F93D6
:102A60001F93CF93DF93EC017B016A01E881F98129
:102A7000CF01B8010E94CA3C009731F01E141F0418
:102A80009CF4081B190B03C01E141F0474F4C90125
:102A9000801B910BE817F90718F40E0F1F1F01C0D8
:102AA0008901198308830DC08C01C8018C0D9D1DFF
:102AB0008E179F0718F4E01BF10B01C0F601F98394
:102AC000E883DF91CF911F910F91FF90EF90DF90FE
:102AD000CF900895AF92BF92CF92DF92EF92FF9284
:102AE0000F931F93CF93DF93EC017B016A01590190
:102AF0006881798180E090E00E94F614823020F0B5
:102B000082500E94E21402C081E090E08C019501A5
:102B1000A601B701CE010E942B15DF91CF911F9125
:102B20000F91FF90EF90DF90CF90BF90AF900895FE
:102B30002FEF3FEF40E050E00C946A150E943E36C4
:102B40008111FCCF0E943E368823E1F30895CF9394
:102B5000C6E00E943E36811104C0C150D1F780E02A
:102B600001C081E0CF91089520915703309158031F
:102B700095E0929FF001939FF00D1124E80FF11D55
:102B8000EE0FFF1FE858FE4F8591949108951F9313
:102B9000CF93DF93182FC0915B03D0915C030E9409
:102BA000B4159C01123061F4809157039091580341
:102BB000029731F4C730D10518F0219720EB34E0AB
:102BC0002C9FC0012D9F900D3C9F900D1124DF91F3
:102BD000CF911F9108951F93CF93DF93182FC0912A
:102BE0005B03D0915C030E94B41523E020937F0324
:102BF000113029F4809161039091620306C0123074
:102C000039F4809163039091640310937F0306C0AD
:102C1000133021F480917503909176039C012C9FD1
:102C2000C0012D9F900D3C9F900D1124DF91CF91FD
:102C30001F910895E0915703F0915803E051FE4F22
:102C400084910895CF93DF9300D000D0CDB7DEB745
:102C5000A0915903B0915A032091730330917403EA
:102C60000E948D3C24E630E040E050E00E94DE3CD3
:102C7000293E8DEF38074105510550F429833A83E9
:102C80004B835C830E941A1629813A81853021F496
:102C900028EE3DEF40E050E0C9010F900F900F90FB
:102CA0000F90DF91CF9108952091770330917803B1
:102CB00080915B0390915C03AC01249FC001259F30
:102CC000900D349F900D1124089582E00E94C71545
:102CD000BC0180E49FE10E94C01889352BE1920776
:102CE00010F088E59BE1089582E00E94C715BC01C1
:102CF00084EF91E00E94C018893E23E0920710F013
:102D000088EE93E0089580915703909158030A97B5
:102D1000029750F081E00E94B415BC0188E799E663
:102D20000E94CA3CCB01089581E090E00895809113
:102D3000590390915A038436910530F484E690E06B
:102D400090935A03809359038091590390915A03A9
:102D5000893E9D4F30F088EE9DEF90935A0380930B
:102D600059038091690390916A03893E934030F042
:102D700088EE93E090936A03809369030E94831620
:102D800020915B0330915C038217930720F49093AA
:102D90005C0380935B0380915B0390915C03892BC0
:102DA00031F481E090E090935C0380935B030E9498
:102DB000651620915D0330915E038217930720F41E
:102DC00090935E0380935D0380915D0390915E0319
:102DD00020916503309166038217930720F4909346
:102DE0006603809365030E94741620915F033091FF
:102DF00060038217930720F49093600380935F032E
:102E000020915F0330916003809167039091680384
:102E10002817390720F430936803209367038091C3
:102E200047039091480340915D0350915E0348171A
:102E3000590720F490935E0380935D0340916503EE
:102E4000509166034817590720F4909366038093C6
:102E500065038091490390914A032817390720F4AC
:102E60009093600380935F03209167033091680320
:102E70002817390720F49093680380936703089517
:102E800098E2899FB00111246A567F4F48E250E0D2
:102E900087E593E00E94373D0C94971698E2899F4E
:102EA000B00111246A567F4F48E250E087E593E075
:102EB0000E94553D81E00C942E130E94971680913C
:102EC0005D0390915E0324E0969587952A95E1F73E
:102ED000909366038093650308950E9497168091EE
:102EE0005F039091600334E0969587953A95E1F7FA
:102EF000909368038093670308950E9497168091CA
:102F0000590390915A039695879590935E03809309
:102F10005D0320915703309158032330310531F47C
:102F20009695879590935E0380935D0380915D03F2
:102F300090915E039093600380935F030E945D17FE
:102F40000C946D1781E00E94B415909362038093F6
:102F5000610382E00E94B41590936403809363033D
:102F60008091570390915803892B61F580ED97E08C
:102F700090935A038093590383E090E090935C030D
:102F800080935B0388EE93E090936A0380936903D8
:102F900010926C0310926B0380E797E190936E039D
:102FA00080936D031092700310926F038EE190E096
:102FB000909372038093710388E790E09093740379
:102FC000809373030E941A16811128C081E090E05B
:102FD00090937603809375038091570390915803E3
:102FE000029719F48BEF9FEF02C081EF9FEF909350
:102FF00078038093770383E090E090937A03809343
:10300000790384E690E090937C0380937B0382E0D5
:1030100090E090937E0380937D030DC088E090E064
:10302000909378038093770383E00E94B415909384
:103030007603809375030C947D17CF9310925803F9
:10304000109257030E94A217C0E08C2F0E944E17C7
:10305000CF5FC431D1F781E0CF910C942E13CF9381
:10306000C82F0E9440172091570330915803232BFB
:1030700021F00E94C7320E9473372091570330918C
:1030800058032A30310571F02B30310569F0232BBC
:10309000C1F48C2F90E001960E9413378AE3CF9100
:1030A0000C94EA3689E00AC065E080915D03909156
:1030B0005E030E9442390E94733784E0CF910C94E2
:1030C000893267E08091590390915A030E943F39F9
:1030D0008FE20E94EA3680915B0390915C03CF916E
:1030E0000C941337BC018DE593E00E9498150C9465
:1030F0009716BC018FE593E00E9498150C949716E3
:103100002FEF3FEF41E050E0BC0189E693E00E94E1
:103110006A150C94971680917103909172030E9426
:10312000D11D8CE292E09093AB038093AA030C94A0
:10313000FA1BCF93C62F91E09093A903809380034D
:10314000809180038C1302C01092A90380FF02C0FB
:1031500080E001C083E00E943D14813079F49091B9
:10316000A903992359F0809180038F5F8093800396
:103170000E9439140E948B18813011F3CF91089569
:10318000AB019C01A8EEB3E00E948D3C9A0140E0A7
:1031900050E00E94DE3CA8EEB3E00E94A33C24E68F
:1031A00030E040E050E00E94DE3C2115310581E036
:1031B0004807510520F02FEF3FEF40E050E0C901F4
:1031C000089580919F03811113C00E949B0C882356
:1031D00081F00E949E0C2091810330918203821B1A
:1031E000930B9C0181E02330310518F080E00895B5
:1031F00081E00895815E0C94860C0F931F93CF930A
:10320000DF9310E0CFEFDFEF00E08091A10318170C
:1032100060F4812F0E94FA188C179D0710F0CE01E0
:1032200001C0012F1F5FEC01F0CF802FDF91CF9104
:103230001F910F910895CF93DF9390919F03911168
:1032400004C0DF91CF910C94FA1890918503C82F98
:10325000D0E0992391F00E94FA18CC0FDD1FFE01F7
:10326000EA57FC4FCE56DC4F20813181488159818D
:10327000241B350B280F391F07C0FE01EE0FFF1F5F
:10328000EA57FC4F20813181C901DF91CF91089528
:10329000EF92FF920F931F93CF93DF93C0E0D0E0A4
:1032A000E12CF12C0FEF1FEF8091A10390E0C817E4
:1032B000D9076CF48C2F0E941B19E816F90608F444
:1032C0007C018017910708F48C012196EDCFE01A5C
:1032D000F10A81E020917703309178032E153F05A4
:1032E00008F080E0DF91CF911F910F91FF90EF9058
:1032F0000895CF93C82F80919F03882341F0C11177
:1033000006C00E949E0C9093820380938103C09319
:103310009F030E94A70D80919E03811104C08C2FF2
:10332000CF910C94AB06CF910895EF92FF920F933B
:103330001F93CF93DF9381E00E945A0686E10E949B
:10334000860C8093A10302E913E036E8E32E33E014
:10335000F32EC0E0D0E08091A10390E0C817D90718
:103360006CF48C2F0E94FA18F801819391938F01CD
:10337000F701819391937F012196EDCF10929F03E6
:1033800010929E0380E00E9479191092820310929D
:1033900081038FEF8093A003DF91CF911F910F9155
:1033A000FF90EF90089580E00E94791981E080936A
:1033B0009E0308950E94D31980E00C945A06FF9250
:1033C0000F931F93CF93DF938091A00387FD17C0C6
:1033D0000E941B19EC0110E0FF24F39400E080919F
:1033E000A103181750F4812F0E941B19C817D90781
:1033F00008F40F29FF0C1F5FF2CF802F01C080E07F
:10340000DF91CF911F910F91FF9008951F93CF935C
:10341000DF93EC0110E08091A103181748F48FE1CD
:10342000810F0E94B00C8C179D0720F01F5FF3CF17
:1034300081E001C080E0DF91CF911F9108959F92BC
:10344000AF92BF92CF92DF92EF92FF920F931F93B2
:10345000CF93DF9386E090E00E94061A882309F458
:1034600062C00E94450D882309F45DC08091A003CD
:1034700087FF04C00E94FD188093A0038091A003E1
:103480000E94FA186C01A0906303B090640346E8B0
:10349000E42E43E0F42E02E913E0C0E0D0E09924EA
:1034A00093948091A10390E0C817D907B4F48C2FAE
:1034B0000E94FA188A159B0570F0C816D90608F400
:1034C000912CF701819391937F01F801819391935E
:1034D0008F012196E6CF99249394109285030E9440
:1034E00004369093840380938303992069F0DF91DD
:1034F000CF911F910F91FF90EF90DF90CF90BF90F1
:10350000AF909F900C94D3190E94DF19DF91CF9157
:103510001F910F91FF90EF90DF90CF90BF90AF90F1
:103520009F900C947919DF91CF911F910F91FF908B
:10353000EF90DF90CF90BF90AF909F900895CF9382
:1035400080918503811115C081E080938503C0E0DF
:103550008091A103C81768F48C2F0E94FA18EC2FF1
:10356000F0E0EE0FFF1FEE56FC4F91838083CF5F9C
:10357000EFCFCF9108950E940436209183033091BC
:103580008403821B930B089580919F03811103C0D4
:103590000E941F1A09C00E949F1A0E94BB1A4097DE
:1035A00018F080E00E9479190E94E118882311F038
:1035B00082E0089580919E038823D1F381E00895ED
:1035C0001F93CF93DF93EC0110E08091A1031817B4
:1035D00040F4812F0E941B198C179D0720F41F5F58
:1035E000F4CF80E001C081E0DF91CF911F91089579
:1035F0001F93CF93DF93EC0110E08091A103181784
:1036000040F4812F0E941B19C817D90720F41F5FAF
:10361000F4CF80E001C081E0DF91CF911F91089548
:103620006091A103662329F070E00E94CA3CCB019F
:10363000089580E090E008950E947A2381E00E943E
:10364000D5208091A3039091A4030C9445230C945E
:1036500091230E94450D882321F00E9420230C9481
:10366000702108950E94291B0E94360D2091A70306
:103670003091A8032817390740F485E999E0909321
:103680003A038093390380E008958091A5039091D7
:10369000A6030E94452382E00895CF93DF931F92F3
:1036A000CDB7DEB7882341F069830E94EB15909374
:1036B000A8038093A7036981662369F080915D0365
:1036C00090915E039093A6038093A5038091650378
:1036D000909166030CC080915F039091600390937A
:1036E000A6038093A503809167039091680390934C
:1036F000A4038093A3030F90DF91CF91089580914D
:10370000AA039091AB030C94CD148091AA039091DD
:10371000AB0302960C94CD140E94851B0E94251FBA
:103720000C94E636CF93DF930E940436EC010E949E
:1037300004368C1B9D0B853B910510F00E94D80D23
:103740000E943E36882399F388E0DF91CF910C9454
:10375000DA34CF93DF930E948C1B0E940436EC0175
:1037600085E00E94DA340E94D80D93980E94252F9C
:103770000E94A71581110FC00E948C300E94A715CE
:10378000811109C00E9404368C1B9D0B853B91055D
:1037900068F3939AEBCF88E00E94DA3460E081E02E
:1037A000DF91CF910C949B0F0E948C1B0E94D80D2F
:1037B0000E94292F86E00E94DA340C94921BE0913B
:1037C000AA03F091AB03349685919491FC0109947E
:1037D000811103C00E94D41B0BC0813039F4809149
:1037E000A903811105C00E94A91B02C081E00895B0
:1037F00080E008950F931F93CF93DF931092680496
:103800000E947F1B02E0C0E0D0E011E00E943E3643
:10381000809368040E944E2F112379F00E94651F47
:10382000082F0E94E81B182F882339F00E949E0C55
:10383000C817D90791F4111107C08091A9038823F3
:1038400011F0011114C010E0809168048130F1F68C
:103850000E9438368230D0F20AC00E949E0CEC01E1
:103860000E94DF1B082F0E94E81B182FE4CF0E9444
:10387000851B802FDF91CF911F910F9108950E949A
:10388000FD1C0C94DA190E94EA1C0E94951921E093
:1038900080916F0390917003892B09F420E02093AD
:1038A000AC0380E00C94D5201F93CF93DF93C0919D
:1038B000A703D091A803CE010E94101B0E94F81A02
:1038C000182F0E94E118811109C0111107C00E9430
:1038D000360D11E0C817D90708F410E0812FDF91E9
:1038E000CF911F9108951F93CF93DF930E94541C93
:1038F000182F0E94A61CEC018091AC03882329F0AC
:10390000BE01812F0E941F2101C0812F811108C09B
:10391000BE01812F0E943E220E94CB1C82E001C08A
:1039200081E0DF91CF911F9108958091B1030895B7
:1039300081E02091AF033091B003232B09F480E0A4
:1039400008958091AF039091B00308958091AD03E5
:103950009091AE0308950E943B0D009711F481E011
:1039600090E0BC0184EF91E00E94C018893E23E002
:10397000920710F088EE93E00895813020E49207DA
:1039800010F080E090E49093B0038093AF030E9426
:1039900018080C94B00DCF93DF93EC010E94AB1C80
:1039A000BC01C817D90708F4BE018091AD039091FE
:1039B000AE038617970759F07093AE036093AD037B
:1039C00080E10E945A0EDF91CF910C94BD1CDF91D3
:1039D000CF9108958091B10381110EC080E090E0F5
:1039E0000E94BD1C1092AE031092AD0381E00E94B4
:1039F000690781E08093B10308958091B103882322
:103A000069F080E090E00E94BD1C1092AE0310921D
:103A1000AD0380E00E9469071092B103089581E030
:103A20008093B1030C94FD1C87E080936E0482E0C8
:103A300080936F040E94D33483E08093B20308958F
:103A4000FF920F931F93CF93DF930E94F30EF82EF4
:103A50008091A203882369F080915B0301E08F11BC
:103A600001C000E011E0F11010E0813021F41123D9
:103A700011F010E000E00E942C0D882309F458C0DA
:103A800083E10E94860CEC0182E10E94860CC8173B
:103A9000D90728F49C012C1B3D0BE90102C0C81B6F
:103AA000D90BC53FD14008F443C0C1E0011102C0A9
:103AB00087E001C083E080936E04112329F0809198
:103AC0006E04825080936E04CC2329F080916E04A2
:103AD000815080936E04011104C0111102C0CC23E7
:103AE00031F081E00E94DA34111107C004C088E08F
:103AF0000E94DA3404C0002311F0F11002C0D0E0BB
:103B000001C0D1E00E943B36811102C01092B20385
:103B1000D11106C0C11104C00E943B36883051F05B
:103B20008091B203823011F481E00AC082E008C0C3
:103B3000C0E0BCCF8091B2038F5F8093B203F0CF1F
:103B4000DF91CF911F910F91FF9008958FEF809398
:103B50006E0488E00C94DA341092B70308950E9442
:103B600004369093B6038093B50308950E940436FB
:103B70002091B5033091B603821B930B2091B303C0
:103B80003091B4032817390728F081E08093B703F8
:103B900082E008951092B70381E008958091B70301
:103BA00008952CE3AC01249FC001259F900D1124A2
:103BB0009093B4038093B30308950E9495190E94D3
:103BC0007A2381E00C94D5200E9491230C94DA1979
:103BD0001F93CF93DF93C091A703D091A803CE0189
:103BE0000E94101B0E94E01A182F0E94E1188111F8
:103BF00009C0111107C00E94360D11E08C179D07F6
:103C000008F410E0812FDF91CF911F9108951F9349
:103C1000CF93DF930E94E81D182F0E942023EC0110
:103C2000BC01812F0E941F21811108C0BE01812F7C
:103C30000E943E220E94452382E001C081E0DF9184
:103C4000CF911F9108958091C6039091C703209151
:103C5000C903222341F00E9404362091C60330910B
:103C6000C703821B930B08956091C2037091C30335
:103C70008091C4039091C50328EE33E040E050E00A
:103C80000E94DE3CC90108956091BE037091BF039C
:103C90008091C0039091C10328EE33E040E050E0F2
:103CA0000E94DE3CC90108950F931F93CF93DF93C9
:103CB00081E00E94EB158C0184E00E94EB15EC0181
:103CC00084E10E94860C80179107B8F4C817D907C1
:103CD000B0F49C012C1B3D0BC8018C1B9D0B64E6B2
:103CE00070E00E94CA3CC9010E94CA3C643671055A
:103CF00010F063E670E0862F03C083E601C080E029
:103D0000DF91CF911F910F910895CF93DF930E9480
:103D1000541E9091C8039817E0F48093C8030E9442
:103D2000231E2091CB033091CC03EC01C21BD30B9B
:103D30000E94231E9093CC038093CB038091CD03EC
:103D40009091CE038C179D0720F4D093CE03C0939F
:103D5000CD03DF91CF9108950E94851E8091CA0303
:103D6000882311F089E601C084E690E02091C80321
:103D7000821B91092091CD033091CE03AC01429F6B
:103D8000C001439F900D529F900D112408950895F6
:103D90000E94541E8093C8031092CC031092CB0350
:103DA0001092CE031092CD031092C2031092C3035F
:103DB0001092C4031092C5031092BE031092BF0369
:103DC0001092C0031092C1030895CF93DF9368E56A
:103DD00072E080E00E945A0E9093BD038093BC0372
:103DE00081E00E94EB15EC01C854D44FC93729E695
:103DF000D20710F0C8E7D9E6CE010E944907BE01FC
:103E000080E00E945A0E813C2FEF920710F080EC68
:103E10009FEF9093BB038093BA030E942C0D809375
:103E2000CA030E9422169093B9038093B8030E949C
:103E300004369093C7038093C6030E94C81E81E096
:103E40008093C903DF91CF9108950E94231E909320
:103E5000C7038093C6031092C90308950E941223DA
:103E600081111DC00E94981C811119C00E94E11887
:103E7000882351F18091C2039091C303A091C403A0
:103E8000B091C50380599F4FAF4FBF4F8093C2037E
:103E90009093C303A093C403B093C5030895809186
:103EA000BE039091BF03A091C003B091C10380599C
:103EB0009F4FAF4FBF4F8093BE039093BF03A0931C
:103EC000C003B093C103D2CF0895CF93DF93809105
:103ED000C903811102C082E0C9C080E00E948F0C3A
:103EE0002091BA033091BB038217930758F42091B5
:103EF000BC033091BD0382179307A8F40E94951C60
:103F0000882389F00E941A16823009F087C08091B8
:103F10005B0390915C03029709F080C00E942C0D16
:103F200081117CC07EC0C091CA030E942C0DC817AD
:103F300019F08AED9BE095C0C091A503D091A6032E
:103F4000C851DC4F0E94400DC817D90718F48FECF8
:103F50009BE087C086E00E94860C20914B03309145
:103F60004C038217930718F480EC9BE07AC089E138
:103F70000E94860CC091B803D091B903C83E2DEFC2
:103F8000D207D9F08C179D07C0F00E942216C817DF
:103F9000D90709F04EC00E941A16811160C08091A5
:103FA000590390915A0360915D0370915E030E94E2
:103FB000CA3C6A307105E8F552C0C0916903D091DE
:103FC0006A03C83E83E0D807A0F46091BE037091F5
:103FD000BF038091C0039091C10320E63AEE40E018
:103FE00050E00E94DE3C2C173D0718F085EA9BE06C
:103FF0001AC080916B0390916C03892B09F46BCFED
:1040000087E00E94860C20916D0330916E03281783
:10401000390708F060CF85E99BE023C089EE9BE07B
:1040200020C089EE9BE090933A038093390381E0AE
:104030001DC0C091B803D091B9030E9422168C17FD
:104040009D0730F480EB9BE090933A038093390313
:104050000E9422169093B9038093B803E8CF80EBB7
:104060009BE090933A038093390380E0DF91CF91F6
:1040700008950E94E41D0E943F1C0C94DA19CF930E
:10408000DF931F92CDB7DEB78091CF03882329F04D
:10409000813031F40E94731C0CC00E94071E09C0BD
:1040A0000E94C41A823089F089830E943920898154
:1040B0000CC0813051F49091A203992331F082E039
:1040C0008093CF030E94951982E00F90DF91CF91EA
:1040D0000895CF93DF930E94951961E083E00E94D9
:1040E0004D1BC091A703D091A8038091A10381111A
:1040F00006C00E94360DC817D90740F40CC0CE0187
:104100000E94101B0E94F81A882329F00E94DD1DCE
:104110001092CF030BC060E083E00E944D1B0E9411
:10412000431C81E08093AC038093CF03DF91CF9158
:1041300008958091D003813029F48091A303909158
:10414000A403089580E090E008952CE0829FC001D0
:10415000112484529C4F0C94B82384E294E00C9474
:10416000B823CF93DF9300D000D0CDB7DEB782E184
:104170000E94860C9A83898384E10E94860C29819F
:104180003A81281B390B3A83298387E10E94860CE8
:104190009C838B83CE0101960E94B8230F900F90D1
:1041A0000F900F90DF91CF910895EF92FF920F93B0
:1041B0001F93CF93DF93F82E81E08093D0030E946A
:1041C000360DBC012091A3033091A4034091A703B5
:1041D0005091A8030F2D8CE194E00E94D32380918D
:1041E000A7039091A8030E94101BEC0110E08CE043
:1041F000E82E8091A103181798F4812F0E941B19B3
:10420000BC012091A3033091A403E19EC0011124BD
:104210000F2DAE018C529C4F0E94D3231F5FE9CF1C
:1042200010922A041092D3031092290410922804A9
:10423000DF91CF911F910F91FF90EF9008951F9301
:10424000CF93DF93182FEB018091A203882361F1B4
:10425000112349F080912A04811105C00E94D319CD
:1042600081E080932A0480912A04882311F085300C
:10427000D9F42091A3033091A403203A310510F41E
:1042800020EA30E02C173D0710F410929E030E94A4
:10429000C41A8093D0038130F1F40E944819882316
:1042A00019F08FEF8093A0030E9499208C179D072F
:1042B00080F0112371F080912A04853051F490919F
:1042C000D30381E0890F8093D30381E09A3020F4F7
:1042D00002C01092D30380E0DF91CF911F91089527
:1042E0000F931F93CF93DF93EC010E94360DAE0125
:1042F000BC018CE194E00E94952410E00CE08091D8
:10430000A103181770F4812F0E941B19BC01019F93
:10431000C0011124AE018C529C4F0E9495241F5F56
:10432000EECFDF91CF911F910F910895CF92DF9241
:10433000EF92FF920F931F93CF93DF936091A703A8
:104340007091A8038CE194E00E94F8238C01809185
:10435000A7039091A8030E94101B7C01D12C9CE024
:10436000C92E8091A103D81698F4CD9CE0011124A8
:10437000CC52DC4FB701CE010E94F8230817190771
:1043800028F0B701CE010E94F8238C01D394E9CF25
:10439000C801DF91CF911F910F91FF90EF90DF90B7
:1043A000CF9008950F931F93CF93DF93EB0120914C
:1043B000A5033091A6038C012817390708F4890159
:1043C0000E9499209C018017910708F49801C21758
:1043D000D307E1F040912A044530D1F42C173D0772
:1043E000B8F082179307A0F48091A3039091A403DF
:1043F0008C179D0758F04091D1035091D2038091C2
:104400008103909182034817590711F4CE0109C026
:1044100080918103909182039093D2038093D10382
:10442000C901DF91CF911F910F9108950F931F93B1
:10443000CF93DF93EC010E94360D90931D0480937F
:104440001C04D0931F04C0931E0410E00CE0809164
:10445000A103181770F4812F0E941B19019FF0010E
:104460001124EC52FC4F91838083D383C2831F5F5E
:10447000EECFDF91CF911F910F9108951F93CF93AE
:10448000DF93182FEB010E94450D811108C0112305
:10449000E1F12091280430912904232BB1F10E94ED
:1044A000E118811132C0CE010E947021CE010E941C
:1044B00016220E9496218C179D0708F048C09C0187
:1044C0002C0F3D1F369527953093290420932804FF
:1044D000BE0180912804909129040E94D2219093DA
:1044E00029048093280490912A04923009F1A8F4B9
:1044F0009923C1F0913039F5112339F083E080938D
:104500002A04109229041092280480912804909182
:104510002904DF91CF911F910895933061F0943079
:1045200081F011C0112389F30E94D31981E00CC0DE
:1045300010922A04EACF109229041092280484E0F1
:1045400003C0112311F385E080932A04DECF9093FA
:10455000290480932804BCCF0C941C1BCF93DF93B9
:104560000E94291B0E94360DEC0182E00E94EB158F
:104570008C179D0730F48091A5039091A6030E94AB
:1045800045238091A7039091A8038C179D0718F4E9
:1045900085E999E03AC00E94A80C0297E0F1809169
:1045A0006B0390916C03892B69F08DE10E94860C5E
:1045B00020917B0330917C03281739071CF48BE88A
:1045C00099E023C00E94A80C2091790330917A03CE
:1045D000220F331FC1E08217930708F4C0E08C2F2D
:1045E0000E94AD0CCC23B9F08091750390917603B5
:1045F000892B89F08BE10E94860CEC010E945416F5
:10460000C817D90744F481E999E090933A0380935D
:10461000390381E001C082E0DF91CF91089580915C
:104620002F04089581E020912D0430912E04232B36
:1046300009F480E0089580912D0490912E0408954E
:1046400080912B0490912C0408950E943B0D0097BB
:1046500011F481E090E0BC0180E49FE10E94C01869
:1046600089352BE1920710F088E59BE108958937A1
:1046700023E6920710F088E793E690932E04809348
:104680002D040E9461070C94B00DCF93DF93EC01D1
:104690000E942523BC01C817D90708F4BE018091E8
:1046A0002B0490912C046817790750F49C01261B69
:1046B000370B2D38310568F0BC016C58710909C001
:1046C0009B01281B390B2D38310518F0BC016457AC
:1046D0007F4F8617970759F070932C0460932B0433
:1046E0008FE00E945A0EDF91CF910C943723DF9117
:1046F000CF91089580912F04811112C010922E0441
:1047000010922D0410922C0410922B0480E090E063
:104710000E94372381E00E94720781E080932F047A
:10472000089580912F04882389F080E090E00E9412
:10473000372310922E0410922D0410922C04109204
:104740002B0480E00E94720710922F0408951092AB
:104750002E0410922D0410922C0410922B0480E051
:1047600090E00E94372381E080932F040C949123E2
:10477000FC01428153814115510591F0A081B18125
:10478000B7FF03C0B195A195B10928EE33E00E94AF
:104790009C3C9A0140E050E00E94DE3CC901089533
:1047A00080E090E008950F93FC01CB01002341F0DD
:1047B0004617570708F4CA016417750748F407C07D
:1047C0006417750708F4CA014617570708F4BA01B9
:1047D0009783868391838083138212821582148249
:1047E00033872287681B790B718760870F91089543
:1047F000CF93DF93EC0188819981AA85BB85E885F9
:10480000F985309701F19B0140E050E0281B390BFE
:10481000410951090E94A33C9F01442737FD40955F
:10482000542F0E94003D8A819B81280F391F411D12
:10483000511D2115310581E04807510524F457FD2C
:1048400005C0C90105C08FEF9FEF02C080E090E076
:10485000DF91CF910895DF92EF92FF920F931F9314
:10486000CF93DF93EC012A813B812417350720F495
:10487000FA01E21BF30B03C0F901E41BF50B8C8179
:104880009D81969587958E179F0710F5E880F98092
:104890002417350740F48A01021B130BCB018E1934
:1048A0009F097C0105C0E61AF70A8901041B150B54
:1048B000C7010E94F014D82E888599850E94F014B3
:1048C000D81206C01D830C83F986E8861B870A87E9
:1048D000DF91CF911F910F91FF90EF90DF9008959E
:1048E0000F931F93CF93DF93EC018B019A01A8855F
:1048F000B9850E949C3C2A853B8540E050E00E949F
:10490000003DC801A0E0B0E082179307A407B507F7
:104910001CF41F821E8204C0021B130B1F830E8314
:10492000DF91CF911F910F910895EF92FF920F9316
:104930001F93CF93DF93EC018B017A010E942B240C
:10494000A701B801CE01DF91CF911F910F91FF9088
:10495000EF900C9470240F931F93CF93DF9300D0AC
:1049600000D0CDB7DEB780E00E947D0C9A838983AA
:1049700081E00E947D0C29813A81281B390B3A8302
:10498000298383E10E94860C9C838B8300E314E0DF
:10499000AE014F5F5F4FF801608180E00E94D60C4E
:1049A000AE014F5F5F4FF801608181E00E94D60C3D
:1049B0000F900F900F900F90DF91CF911F910F915B
:1049C00008950F931F93CF93DF93CDB7DEB728974A
:1049D0000FB6F894DEBF0FBECDBF8C0189E00E94F8
:1049E0007D0C9E838D8388E00E94860C800F911F32
:1049F00098878F838AE00E947D0C9A8389830F8138
:104A0000188580E20E94860C800F911F9C838B8307
:104A1000AE014B5F5F4F6091300488E00E94D60C7E
:104A2000AE014B5F5F4F6091300489E00E94D60C6D
:104A300080E20E94C90E882341F0AE014F5F5F4FB4
:104A4000609130048AE00E94D60C28960FB6F89444
:104A5000DEBF0FBECDBFDF91CF911F910F910895A3
:104A60000F931F93CF93DF9300D000D0CDB7DEB765
:104A70008C018AE00E947D0C9A83898389E00E94E0
:104A8000860C800F911F9C838B83AE014F5F5F4F1D
:104A9000609130048AE00E94D60C0F900F900F9026
:104AA0000F90DF91CF911F910F910895CF93DF93D6
:104AB000D82F6FE679E083E899E00E94FA2EC0E0F3
:104AC00082E10E94C90E882399F08FE10E94C90EED
:104AD0008D17A1F0C1110CC061E679E0DD2319F05A
:104AE00083E899E002C088E799E00E94FA2EC1E0CD
:104AF0000E943E36813021F780E001C081E0DF91E5
:104B0000CF910895CF93DF9300D000D0CDB7DEB71B
:104B1000962F5A8349833C832B838F3121F4C9011B
:104B20000E94E1240EC0803221F4C9010E94302588
:104B300008C0AE014F5F5F4F60913004892F0E9423
:104B4000D60C0F900F900F900F90DF91CF9108959A
:104B5000FF920F931F93CF93DF93F82E162F042FFE
:104B600083E00E94DA34812F0E94860CEC010E94BF
:104B7000FC3A802F0E947D0CAC019E01602F812F9A
:104B80000E948225FF2049F081E080932F030E943C
:104B9000C10D0E94FC3A0E94AB2481E0DF91CF91CD
:104BA0001F910F91FF900C942713AF92BF92CF9259
:104BB000DF92EF92FF920F931F93CF93DF93CDB7C6
:104BC000DEB761970FB6F894DEBF0FBECDBF8C0184
:104BD0007B016A0160E070E0CE0101960E94632DC6
:104BE0008FEF8A878CE990E09A8389831D870C87F1
:104BF0008FEF9FE79F878E87198A188A6FEF7FE76D
:104C0000CE0101960E94632961E0CE0101960E94C7
:104C10000C2B082F87FD34C0682FCE0101960E940F
:104C20005129B82E80FDF0CF81FF25C0112707FD47
:104C30001095F701E00FF11FA4908A2D0E94C90E74
:104C4000882311F30E94C10D10922F03CE0101960B
:104C50000E94202A882359F0F601E00FF11F4491A9
:104C60006A2D8B2D881F8827881F0E94A82581E028
:104C700080932F03C9CFCE0101960E94202AC4CF72
:104C800061960FB6F894DEBF0FBECDBFDF91CF9116
:104C90001F910F91FF90EF90DF90CF90BF90AF905A
:104CA000089581E090E0909331048093300461E0B6
:104CB00081E00E949B0F81E00E945625882341F0ED
:104CC0004EE753E065E873E084EE92E00E94D5255C
:104CD0000C94D80D81E090E09093310480933004DF
:104CE00061E080E00E949B0F109267004DE752E068
:104CF000BA0182E892E00E94D52581E080936700A6
:104D00000C94D80D8F3019F4CB010C943723CB01C0
:104D10000C94BD1C0F931F93CF93DF93EC01443091
:104D200019F06FEF7FEF02C061E070E02F853889E6
:104D300001E010E041E050E0CE010D960E942B15FD
:104D40006D857E858B85DF91CF911F910F910C949E
:104D50008226AF92BF92CF92DF92EF92FF920F9393
:104D60001F93CF93DF93CDB7DEB769970FB6F89453
:104D7000DEBF0FBECDBFA82EC62E8A0161E081E046
:104D80000E949B0F80E00E945625882309F47BC077
:104D9000AA2079F00E947A2388E799E60E944907C1
:104DA00032E0B32E4FE0D42E58E7E52E53E6F52E31
:104DB00009C00E94EA1C83E0B82E90E1D92EE12CB4
:104DC00020E4F22E4C2D6D2DCE0146960E94B90C9A
:104DD0004C2D6B2DCE0142960E94B90C6CE873E00D
:104DE000CE0101960E94632D8FEF8A8724E930E07F
:104DF0003A832983DC86CD86F98AE88A2E893F8921
:104E00003F872E8761E0CE0101960E940C2B87FD23
:104E100022C08111F3CF6E857F858D2D0E94822661
:104E2000CE0101960E94202A882379F00E94C10DAC
:104E3000198F088F2E853F853F8B2E8B1D8B0C8BFA
:104E40008B2D0E947D0C9B8B8A8B60E070E08D2DFA
:104E50000E948226D3CFAA2019F00E94912302C07B
:104E60000E94FD1CAE014A5E5F4F6C2D8D2D0E948D
:104E7000D60CAE014E5E5F4F6C2D8B2D0E94D60C72
:104E800081E00E9427130E94D80D69960FB6F8940E
:104E9000DEBF0FBECDBFDF91CF911F910F91FF906D
:104EA000EF90DF90CF90BF90AF900895EF92FF9278
:104EB0000F931F93CF93DF93CDB7DEB729970FB62C
:104EC000F894DEBF0FBECDBF8C017B01BC01CE01CB
:104ED00001960E94632D60E0CE0101960E940C2B8A
:104EE000682F87FD10C0E82FEE0FFF0BEE0DFF1DA2
:104EF0004591549181E093E0003A190709F080E070
:104F00000E94A926E8CF29960FB6F894DEBF0FBEFF
:104F1000CDBFDF91CF911F910F91FF90EF9008953A
:104F2000109231041092300461E080E00E949B0FE7
:104F300044E452E0BA0185E492E00E94D5250C9445
:104F4000D80DCF93DF93CDB7DEB72A970FB6F8947D
:104F5000DEBF0FBECDBF66EA73E0CE0101960E94B0
:104F6000632D60E0CE0101960E940C2B87FD26C0C8
:104F70008A870E94E23A8A858230A1F04CF4882325
:104F800071F08130C1F466E973E080EA93E00EC00D
:104F9000833079F0843079F40E946A260CC00E9434
:104FA000512609C062E973E08AE993E00E9456271E
:104FB00002C00E9490270E94F23AD3CF10923B0386
:104FC0002A960FB6F894DEBF0FBECDBFDF91CF910A
:104FD0000895CF93DF93EC01842F0E94F60D9E017C
:104FE00036952795A9014C0F5D1F8417950730F45E
:104FF000C21BD30B21E0C817D90708F020E0822F8D
:10500000DF91CF91089568EE73E080E00E945A0E20
:105010002BE1289FB001299F700D112440E088E703
:1050200099E60C94E927CF93DF931F92CDB7DEB7B3
:10503000482F68EE73E049830E945A0E27E0289FAC
:10504000B001299F700D1124498188E59BE10F90E3
:10505000DF91CF910C94E927CF93DF931F92CDB7C7
:10506000DEB7482F64E670E049830E945A0EBC0107
:10507000660F771F680F791F49818CE291E00F90CE
:10508000DF91CF910C94E927CF930E94B313C82FDF
:10509000882341F10E940328C82F811105C089E5AA
:1050A00099E00E94F72F1EC08FE00E9413288823EA
:1050B00029F082E00E941328811106C080E599E062
:1050C0000E94F72FC0E00EC080E10E942C288823A8
:1050D00031F083E00E942C28C82F811103C084E4A2
:1050E00099E0EECF8C2FCF9108950C9444281F9314
:1050F000CF93DF93EC01162F82E10E94C90E81113C
:105100000EC06FE679E083E899E00E94FA2E8B8565
:10511000803161F5DF91CF911F910C94FD1C612FBF
:10512000CE010E945E2DCE0109960E94B9348823DB
:1051300011F0298501C02FEF332727FD3095812FEE
:1051400090E02817390791F0111108C065E08D85AE
:105150009E85DF91CF911F910C94AB380E94400D3A
:1051600067E0DF91CF911F910C944239DF91CF918D
:105170001F910895CF93DF93DC011B96CD91DC91B5
:105180001C9790E080E0FE012EE0829FE00DF11D73
:1051900011243296259134912115310599F01D96EF
:1051A0004D915C911E9737FF03C057FF09C03058DF
:1051B00024233523232B21F0662329F061509F5FA0
:1051C0008F5FE1CF892FDF91CF910895EF92FF920A
:1051D0000F931F93CF93DF93EC01F62E0E94BA2812
:1051E0009EE0899F80011124EB85FC85E00FF11F73
:1051F000859194910E943337E82ECE0109960E9442
:10520000B934882311F0298501C02FEF332727FDFA
:1052100030956F2D70E026173707E1F06FE06E19BB
:10522000EB85FC85E00FF11F3596F490FF2029F007
:10523000862F8F190E946F376F2D8B859C85800F6D
:10524000911F0496DF91CF911F910F91FF90EF90E6
:105250000C943B34DF91CF911F910F91FF90EF9011
:105260000895CF93DF93EC010E94BA282B853C85EB
:105270009EE0899F200D311D1124F901369645913C
:105280005491CA01F901349624912150223030F40E
:10529000FA014591559165917491CB01DF91CF91C0
:1052A0000895CF93DF93EC010E94BA28EB85FC852B
:1052B0009EE0899FE00DF11D112432968591949115
:1052C000DF91CF910895FF920F931F93CF93DF93B8
:1052D000EC018B016A818B81680FCE010E94BA2894
:1052E000F82E1E870D876FEFCE010E94BA288C839F
:1052F00010E08C81181760F4612FCE010E94BA284B
:105300008F1104C08A81181B1B8302C01F5FF1CF5D
:10531000DF91CF911F910F91FF9008959F92AF92CF
:10532000BF92CF92DF92EF92FF920F931F93CF9392
:10533000DF93CDB7DEB72C970FB6F894DEBF0FBE64
:10534000CDBF7C01D62E942E0E9431298C016D2D6B
:10535000C7010E94BA28D7011B966D917C911C97BA
:10536000BEE08B9F600D711D1124685F7F4F46E08A
:1053700050E0CE0107960E94253D86E0FE0137965B
:10538000DE01119601900D928A95E1F729813A810B
:10539000CB80DC80AD80BE80E2E09E1619F081E01B
:1053A00090E002C08FEF9FEF2F3FFFE73F0729F408
:1053B000BC01C8010E94981516C02E3F4FE7340764
:1053C00019F4F601099520C0829FA001839F500D1A
:1053D000929F500D1124D8018D919C911197840FAB
:1053E000951F8D939C93F801808191818C159D056B
:1053F00014F4D182C082D8018D919C911197A81686
:10540000B90614F4AD92BC92D7011F96ED91FC91B0
:105410005097309719F0B801C70109952C960FB62F
:10542000F894DEBF0FBECDBFDF91CF911F910F91DA
:10543000FF90EF90DF90CF90BF90AF909F90089536
:10544000EF92FF920F931F93CF93DF93EC018B8129
:105450009A81890F89871A8681E08D8382E0E82E00
:10546000FF24F3948E01075F1F4F0E943E36482FA2
:10547000823011F0843089F4E881F9816B818A816E
:10548000680F0280F381E02DCE0109958B819A810E
:10549000890F8987EA86FD8204C0813089F08830CF
:1054A00079F0C8010E94C4348111FD828D81882366
:1054B00019F0CE010E94A72A8A858F5F8A87D5CFEF
:1054C0008FEF898781E08E838D83483009F080E0FB
:1054D000DF91CF911F910F91FF90EF900895089564
:1054E000FC0184EA90E091838083128213826483BA
:1054F00081E0858386830895FC018481823010F0E9
:1055000022E001C0282F9281492F50E030E0215045
:105510003109421753071CF49F5F9283089523813A
:10552000420F511D90E001974817590714F42F5F5F
:1055300023830895FC018281882319F0815082839E
:1055400008958381882311F0815083830895FF9209
:105550000F931F93CF93DF93EC0100E010E0F02E48
:10556000602F80E00E94D8368A81081302C08EE343
:1055700001C080E20E94EA366B819801260F311D3E
:105580008C8190E02817390744F4E881F9816F0D88
:105590000190F081E02DCE0109950E9476370F5FD2
:1055A0001F4F02301105D9F61D82DF91CF911F9157
:1055B0000F91FF9008950F931F93CF93DF93EC010A
:1055C0000E943E36182F0E94A73A882321F081E0DE
:1055D0008D838FE71CC00B818A81080F123031F058
:1055E000143039F4CE010E947C2A03C0CE010E94FF
:1055F0009A2A8B819A81890F081711F081E08D8397
:105600008D81882319F0CE010E94A72A812FDF9176
:10561000CF911F910F910895EF92FF921F93CF9317
:10562000DF931F92CDB7DEB77C0181E0F701858360
:1056300011E0C70169830E94DB2A6981811102C0E0
:10564000F7011682F7019681911108C0883031F474
:1056500081E0868383819281890F09C0662311F0DE
:10566000F7011583813029F79111E3CF8FEF0F9068
:10567000DF91CF911F91FF90EF900895CF93DF932B
:10568000CDB7DEB729970FB6F894DEBF0FBECDBFFA
:1056900062EB73E0CE0101960E94632D60E0CE01C3
:1056A00001960E940C2B813039F0823041F081113B
:1056B00009C00E94F02CF2CF0E94A127EFCF0E94D8
:1056C000BE13ECCF87FFEACF29960FB6F894DEBF62
:1056D0000FBECDBFDF91CF9108950F931F93CF934E
:1056E000DF93EC010E94831601E010E09C0141E091
:1056F00050E0BE018BE593E00E942B15DF91CF9126
:105700001F910F910895CF93DF938091570390914C
:105710005803892B51F10E941A16C1E0D0E002C053
:10572000CC0FDD1F8A95E2F780916B0390916C039B
:10573000892B11F4D05C07C00E941A16882311F03F
:10574000DF5B01C0DB5B0E941A16811106C08091ED
:10575000750390917603892B59F4809155039091AC
:105760005603892B39F0D05805C0C0E0D0E402C000
:10577000DE5FF3CFCE01DF91CF910895CF93DF931A
:10578000EC0183E06735780719F40E94A21713C073
:1057900083E06935780719F40E947D170CC083E017
:1057A0006D35780719F40E945D1705C06F55734079
:1057B00011F40E946D170E9497160E94832BBC0162
:1057C000CE01DF91CF910C9463291F93CF93DF9388
:1057D000CDB7DEB7E9970FB6F894DEBF0FBECDBFE9
:1057E00060E070E0CE0189960E94632D8FEF8AAB56
:1057F0008CE990E09AA789A78AEB93E09DAB8CABEC
:105800008FEF9FE79FAB8EAB8EEB9BE299AF88AF9C
:1058100018E20E94832BBC01CE0189960E94632965
:1058200060E0CE0189960E940C2B87FD1FC0E7E542
:10583000F3E0DE011196812F01900D928A95E1F738
:10584000CE0189960E94202A81110AC0FE0131965C
:10585000A7E5B3E0812F01900D928A95E1F7D9CFAA
:1058600083E00E94DA340E949716D3CFE9960FB6F0
:10587000F894DEBF0FBECDBFDF91CF911F91089589
:10588000DC011796ED91FC911897E60FF11D6491DC
:1058900088E395E00C944B370F931F93CF93DF93DE
:1058A000EC018B0180E061E0680FF801E80FF11D69
:1058B000E491E93011F0862FF6CFCE010E94702AD4
:1058C0008AEA90E09983888318870F83DF91CF91CC
:1058D0001F910F9108950E941A162091570330913D
:1058E0005803232B59F0833061F0823069F088230C
:1058F00071F0853079F482E394E008958FE594E0C7
:10590000089584E494E0089586E594E008958DE494
:1059100094E008958BE394E008951F93CF93DF9371
:10592000182F0E9440170E946B2CEC0160E0CE0102
:105930000E940C2B87FD15C0EF81F885E80FF11D43
:1059400087FDFA958491893049F4812F0E94401790
:105950000E94E52B812F0E944E17E5CF0E94621412
:10596000E5CFDF91CF911F9108956BE675E08FE54C
:1059700094E00E944C2C61E675E086E594E00E947C
:105980004C2C64E575E08DE494E00E944C2C69E5B4
:1059900075E084E494E00E944C2C6EE475E08BE3A7
:1059A00094E00E944C2C6CE475E082E394E00C944B
:1059B0004C2C80914F0390915003892B19F08FEF5D
:1059C0009FE708958DEF9FE70895CF93DF93EC0154
:1059D0000E94D92CBC01CE01DF91CF910C94632998
:1059E0001F93CF93DF93CDB7DEB7AB970FB6F89485
:1059F000DEBF0FBECDBF60E070E0CE014B960E94CF
:105A0000632D8FEF8CA38CE990E09C8F8B8F8CE6BD
:105A100095E09FA38EA38FEF9FE799A788A785EEB8
:105A20009CE29BA78AA71AE10E94D92CBC01CE0157
:105A30004B960E94632960E0CE014B960E940C2B8E
:105A400087FD30C0682FCE014B960E943129892BEB
:105A500041F48DE393E00E94BE1483E00E94DA34A7
:105A6000E3CFEDE3F3E0DE011196812F01900D927B
:105A70008A95E1F7CE014B960E94202A81110AC037
:105A8000FE013196ADE3B3E0812F01900D928A952E
:105A9000E1F703C083E00E94DA348DE393E00E94D3
:105AA000CA14C2CF0E94B314AB960FB6F894DEBFEF
:105AB0000FBECDBFDF91CF911F910895FC0187816B
:105AC00090850C944B370F931F93CF93DF93EC018A
:105AD0008B01CB010E94D214682FCE010E94702A44
