:100000000C9410050C9438050C9438050C943805A4
:100010000C94E63A0C9438050C9438050C94380589
:100020000C9438050C94223B0C94A1060C943805D2
:100030000C9438050C94B93B0C94EE3B0C943805A9
:100040000C94C5060C9438050C9438050C943805AE
:100050000C943805411628162A162C1633163F160E
:1000600039163B1645232D232F23312333233523E4
:1000700037233B233D234023422353234723492354
:100080004B234F2351234D2355238629B1298C29F6
:100090008F29932999299C29A129A529A929AB2927
:1000A00086298F299329AD29A833AB33B433BD33C7
:1000B000BF33C333C6336B366F3671367636793617
:1000C0007B3680368336863689368C368F36923646
:1000D00097369D36A236A936AC36AF36B436B7362B
:1000E000E436E836EB36F036F236F536FA36FC36DC
:1000F000003704370A370E37103714371A371F37CF
:100100002337253729372F3733371038123814382B
:100110001838183816381C381A380000000080C605
:100120004E5A000000007C6B083100000000000007
:100130000000000000000000000000000000C0AE51
:100140004E5AFC5350143FA0540B0000000000BB5B
:10015000C43680186009DC3770170000000000000A
:1001600000000000000044C4FA0E0000000000C4BB
:10017000FB0E0000000068C4FD0E00000000AAC5D0
:10018000160F0000000040C6190F0000000040C715
:100190002D0F000000000000000000000000000023
:1001A0000000FF0000000005040000040900FF013A
:1001B00001000105050001040A00FF02020002051A
:1001C000060002040B00FF030300030507000304FD
:1001D0000C00FF0000000405110204040D00FF01E3
:1001E00001000505110405040E0006051101FF02BA
:1001F000020007051108650DAF0DB60E4368656175
:100200006C692D43686172676572206D0076302ECF
:1002100033336D5F323031343130333000210200FE
:10022000006F7074696F6E730001000100010001BE
:100230000001000A00640001000300080009000A30
:10024000000B000C00010002000400060008000A78
:10025000000C006D5600206E6F0079657300496ECA
:1002600066006D696E2E00756E6C696D697400753F
:100270006E6C696D6974656400BA02B502B002AB58
:1002800002A602A1029C02970292028D024E695AB6
:100290006E004C343335004C343330004C69706F91
:1002A000004C696C6F004C6966650050622020004C
:1002B0004E694D48004E69436400556E6B6E0000F8
:1002C000980898086C0710275802019808F4016CE8
:1002D000070100E001029808F4016C070100E00149
:1002E000039808DC006C070600E0010498089808F1
:1002F0006C070300780005980898086C07030078DD
:100300000006980898086C0703007800079808987A
:10031000086C070300780008980898086C07030029
:10032000780009980898086C07030078000100011C
:10033000000100010000000100B0041C075203008E
:100340000008075203B0044006E80300000807E86D
:1003500003D0079209D606000000006C07E40C10D9
:100360000ED007E40C0000B80B100E0410C409A650
:100370000E0000AC0D740E6810B80B0A0F00008957
:100380000C740ECC10B80B0A0F0000890C740EFE12
:1003900010B80B0A0F0000890C40066C07140540CA
:1003A00006000078054E616D653A00456469742069
:1003B0006E616D653A0006040104FC03F703F20365
:1003C000EB03DF03D503CA03000052657365742095
:1003D0006E616D650045646974206E616D650043F2
:1003E0007265617465206E616D6500546C696D3A6B
:1003F000200049643A200049633A200043683A20CB
:1004000000563A2020004261743A20200043616C7B
:100410002E6572722E2020463A002500202D2D3A9E
:100420002D2D0020200020002000252000524556C0
:100430004552534520504F4C415249545900706C1D
:10044000656173652063616C2E004E2F4100646509
:100450006C746120543D20004E2F41005465787427
:100460003D0064656C746120563D20006D617856D6
:100470006F75743D006E6F2064542F740045727266
:100480006F723A0054696D653A200070726F67723E
:10049000616D20636F6D706C6574650054696E7476
:1004A0003D002D00546578743D005662616C2E3D10
:1004B00000566F7574203D00206C696D69743D00B5
:1004C00056696E7075743D00776972657320523D90
:1004D00000626174742E20523D00202000622000D2
:1004E00074696D653A2020202020004C696D697484
:1004F000733A20006D4168003C20006D4120006D82
:1005000041200020202D2D20200043684342426CD2
:100510004469464353745342436844694359637979
:10052000436844694650435045420064542F647404
:10053000002D64560056206C696D69740088237C18
:10054000238C231E2419242F2480247B24A7240AEF
:1005500025D824DE244625DA255225E625E325F78D
:1005600025534D505320646F776E00534D505320E8
:10057000757000000B0C0D0E0F23060206F605D455
:1005800005C705000007080A0F23060206D405C7A1
:100590000500000001020304090F230614060C06DF
:1005A0000206F605D405C705000000010203040594
:1005B00006090F230614060C060206F605EE05DFF3
:1005C00005D405C705000065646974206261747410
:1005D00065727900443E4320666F726D61740073EA
:1005E000746F726167652B62616C616E6300737416
:1005F0006F7261676500666173742063686172671A
:1006000065006469736368617267650062616C614B
:100610006E6365006368617267652B62616C616E11
:10062000636500636861726765000106070F050076
:1006300002120607090A0D0E0F0405000212060732
:10064000090A0D0E0F04051303000607040F050029
:1006500002120607090A0D0E0F0405130300021209
:10066000110D0E0F040513030002120C10110D0ED4
:100670000F04051303004558542054206C696D691C
:10068000740054696D65206C696D69740043415054
:10069000206C696D697400494E50555420560048CD
:1006A00057204641494C555245004F5645524C4FF4
:1006B0004144206572720042414C20627265616B58
:1006C00000424154206469736300494E5420540031
:1006D00020436F6E6E656374204261747465727935
:1006E00000436F6E6E656374204261747465727945
:1006F000210000010207FA060000566D696E75734D
:100700003A0056706C75733A200017071007000006
:1007100076616C75653A0074656D703A20002D073E
:1007200024070000706F696E7420322E00706F69AC
:100730006E7420312E0044073C07000044415441B0
:100740003A20200076616C75653A200032002C0159
:100750003200E80366076007000072076B070000BD
:100760003330306D410035306D4100313030306D07
:10077000410035306D410006090A0B0C0D0E061FB5
:1007800020212223241312CB07C507BF07B907B3C3
:1007900007AD07A707A1079B070000566F75743ABE
:1007A0000056312D363A005662363A2000566235F0
:1007B0003A20005662343A20005662333A200056FE
:1007C00062323A20005662313A200056696E3A2071
:1007D000002908200814080808FC07F007E10700B2
:1007E000006578706572742044414E47455221007F
:1007F00063616C69622D3E554152540074656D70A1
:1008000020696E7465726E0074656D702065787411
:1008100065726E0049206469736368617267650080
:10082000492063686172676500766F6C7461676503
:100830000051084708390800007265736574206428
:10084000656661756C740063616C69627261746580
:100850000073657474696E67730080250000004B37
:1008600000000096000000E1000000C20100460008
:1008700088137017000070176400010005000F0056
:1008800005001E0001000A007800581B000001004E
:100890000100080000000000000000000000432FDD
:1008A0006D00CB08C408BE08B508AC086578742E86
:1008B00020416463006578742E206465620064657D
:1008C000627567006E6F726D616C0064697361625E
:1008D0006C656400DF09D409C909BD09B209AB0917
:1008E0009F0995098B097F09730967095A095009FE
:1008F00045093C09300924091A0913090B090209A1
:100900000000202020726573657400737065656453
:100910003A2000554152543A200062616C2E206505
:1009200072723A00666F7263652062616C3A2000F1
:100930006469732061677265733A20006469736348
:1009400068202B3A00696E707574206C6F773A00DE
:1009500063617020434F66663A006D696E2E4920D0
:1009600049203D20492F00626565703A20202020F3
:10097000202000776173746520542E3A20200044B3
:100980002F43206379636C65733A004E694364209A
:100990002D64563A004E694D48202D64563A006544
:1009A0006E6162202D64563A20200064542F6474D6
:1009B0003A00657874726E2054434F3A006578743B
:1009C000726E20543A202020006469736368206F9F
:1009D00066663A0066616E206F6E3A2020200062E3
:1009E00061636B6C696768743A00141719181A0709
:1009F00005061F20212223247265736574696E67C2
:100A000020656570726F6D3A00763A20382E353168
:100A10002E3536200000F405F1105823FA29253D23
:100A200011241FBECFE5D8E0DEBFCDBF10E0A0E6A9
:100A3000B0E0EAECFDE702C005900D92AE3EB107D2
:100A4000D9F714E0AEEEB0E001C01D92A23FB107AD
:100A5000E1F71AE0C0E2DAE004C02297FE010E944A
:100A60006A3EC631D107C9F70E94EC100C94E33EF0
:100A70000C940000CF92DF92EF92FF92482F282F24
:100A800030E0A0E0BDE70E94D63D6B017C01A4E60A
:100A9000B0E0A41BB10924E630E00E94E53D6C0DF6
:100AA0007D1D8E1D9F1D24E630E040E050E00E9439
:100AB000273EB9018DE0FF90EF90DF90CF900C942E
:100AC0008F3B882311F0909A089590980895809113
:100AD000F500882331F08091EE008F5F8093EE0067
:100AE00002C01092EE008091F5008A3010F480E090
:100AF00001C084E09091F500943108F082E090917B
:100B0000F5009E3108F081E09091EE00982311F0FD
:100B1000979A0895979808952091A1033091A20380
:100B2000232B11F08093F5000895811102C0939A50
:100B3000089593980895811102C0969A0895969801
:100B40000895811102C0929A089592980895BC0167
:100B50008EE00C948F3BBC018EE00C948F3B80FFA9
:100B600002C0C09A01C0C09881FF02C0C19A01C0F2
:100B7000C19882FF02C0C29A01C0C29883FF02C01E
:100B8000C39A01C0C39884FF02C0DE9A01C0DE98F8
:100B900085FF02C0DF9A0895DF9808958C9A8B9A9A
:100BA000889A8F9AB89AB99ABA9ABB9AD69AD79ACB
:100BB0008D9A8E9A8D9A8A9A80E00E94950580E09F
:100BC0000E94610580E00E948C0580E00E94AF05D4
:100BD00020E042E060E18FEE90E00E94F9160E9472
:100BE000A53B0C94F80508958FEE90E00C944A17FD
:100BF000D598D498DD98DC98BF9ABE9ABD9A80B7F4
:100C0000806680BF8FEA86B91092F7000C94163B7D
:100C100087FD21C04091660050E0682F772767FD6F
:100C2000709564177507B9F08093660098B3282F04
:100C3000217030E0220F331F220F331F82FB332736
:100C400030F9232B8270282B80E228029001112496
:100C50009F71922B98BB089584B145B12091F70004
:100C600030E0F901EE0FFF1FEE0FFF1FEC55FE4FB6
:100C70009491F901EE0FFF1FEE0FFF1F913171F0FC
:100C80002FB7F894E92FF0E0EE0FFF1FE253FE4F6D
:100C900090E0942B918380832FBF0895EB55FE4FF6
:100CA000E4918091F60047FD02C0E82B02C0E09578
:100CB000E823E093F60008951092F70008950E944B
:100CC0003C269093ED018093EC010E943127909394
:100CD000EF018093EE010C943B0AE091F700EF5F87
:100CE000E53108F0E0E084E0E89FF0011124EE55E2
:100CF000FE4F84910C940806CF93C091F70081E0D9
:100D0000C11101C080E00E942C06E1E0EC0FE5314A
:100D100008F0E0E0E093F70084E0E89FF0011124A0
:100D2000ED55FE4FE491E062E7B98091F700811143
:100D300003C0CF910C945F06CF9108958091F60087
:100D400008951F920F920FB60F9211242F933F9385
:100D50004F935F936F937F938F939F93AF93BF93C3
:100D6000EF93FF930E946D06FF91EF91BF91AF91BA
:100D70009F918F917F916F915F914F913F912F91B3
:100D80000F900FBE0F901F9018951F920F920FB6E5
:100D90000F9211242F933F934F935F936F937F9301
:100DA0008F939F93AF93BF93EF93FF930E947C0623
:100DB000FF91EF91BF91AF919F918F917F916F9133
:100DC0005F914F913F912F910F900FBE0F901F9009
:100DD00018952FB7F8946091F8007091F900809100
:100DE000FA009091FB002FBF08950E949D2E0E9453
:100DF000C7390E94AF270E9420380C94C70C8091FD
:100E0000F8009091F900A091FA00B091FB000196D2
:100E1000A11DB11D8093F8009093F900A093FA00F2
:100E2000B093FB0080916700815019F080936700B8
:100E3000089581EE809367000E941E0A0C94772229
:100E40000E94E90696958795779567950895CF92C4
:100E5000DF92EF92FF92CF93DF93EC010E94200785
:100E60006B017C01CC0EDD1EE11CF11C0E942007F1
:100E70006C157D058E059F05C8F3DF91CF91FF901E
:100E8000EF90DF90CF900895CF92DF92EF92FF9294
:100E9000CF93DF93EC010E9420076B017C01CC0E05
:100EA000DD1EE11CF11C0E9420076C157D058E05DE
:100EB0009F0518F40E94F506F6CFDF91CF91FF90C1
:100EC000EF90DF90CF900895E82FF0E0EE0FFF1F36
:100ED000E455FE4F808191810895E82FF0E0EE0FF8
:100EE000FF1FEE59FE4F8081918108952FB7F8942E
:100EF000E82FF0E0EE0FFF1FE253FE4F808191815B
:100F00002FBF089580913602089580911601909127
:100F10001701089580910401909105010895809131
:100F20000601909107010895E82FF0E0EE0FFF1FF2
:100F3000E85EFE4F808191810895262F613110F483
:100F4000423040F021E030E0FC01338322833183E2
:100F50002083089550E0BA01620F711D620F711D68
:100F6000660F771F660F771F665F7F4F44E050E084
:100F70000C949E3E282FCA01213188F4623078F407
:100F800070E0620F711D620F711D660F771F660F93
:100F9000771F665F7F4F44E050E00C94BC3E08959D
:100FA000FF920F931F93CF93DF9300D000D0CDB764
:100FB000DEB70AE111E0F12CF801459155916591F8
:100FC000749149835A836B837C83AE014F5F5F4F7B
:100FD00060E08F2D0E94BA07F80134964591559133
:100FE0006591749149835A836B837C83AE014F5F13
:100FF0005F4F61E08F2D0E94BA07F394085F1F4F87
:1010000081E1F812D9CF0F900F900F900F90DF91E0
:10101000CF911F910F91FF90089580918A01909137
:101020008B01089580919001909191010895809194
:10103000400190914101039750F0809146019091B9
:101040004701039720F083E090E00C94E90D80E0E5
:1010500008958FB7F894E0EFF1E011921192119298
:10106000119292E0E433F907C1F710923502109221
:1010700034028FBF0895CF93CFB7F8941092150123
:10108000109214011092100110921101109212018D
:101090001092130110920C0110920D0110920E018A
:1010A00010920F01109208011092090110920A018A
:1010B00010920B010E9420076093000170930101C0
:1010C0008093020190930301CFBFCF910895CF93F6
:1010D000DF930E9429080E943B08C0911601D0911D
:1010E00017018091160190911701C817D90729F4AB
:1010F0008AE090E00E944407F4CFDF91CF910895F9
:101100000E943B08109207011092060110920501FF
:10111000109204010895E8E1F1E01192119281E04A
:10112000E236F807D1F708950E9429080E943B088B
:101130000C948B088FB7F8941092FC001092FD006D
:101140001092FE001092FF008FBF109217011092B4
:1011500016010E945C060E9494080E948008E2E644
:10116000F1E01192119281E0EC3AF807D1F708957D
:10117000CF93C82F8091360281110CC081E00E946C
:101180009505C1110E949A0881E080933602CF91A3
:101190000C946708CF9108951092360280E00C9469
:1011A0009505CF93DF9381E00E947607EC0180E004
:1011B0000E9476078C179D0718F4C81BD90B02C034
:1011C000C0E0D0E081E0C93ED34008F480E0DF9188
:1011D000CF9108958F929F92AF92BF92CF92DF925C
:1011E000EF92FF92CF93DF93CDB7DEB728970FB67C
:1011F000F894DEBF0FBECDBFF82E5B0161157105FF
:10120000D1F140E0682FCE0105960E949D0741E094
:101210006F2DCE0101960E949D072B813C8140E0FD
:1012200050E0CF80D884E12CF12C2C193D094E09D7
:101230005F09B50180E090E08D809E80A12CB12CEB
:10124000681979098A099B090E94F73D29813A8129
:1012500040E050E0281939094A095B090E94493EDB
:101260002C0D3D1D4E1D5F1D57FF03C020E030E0DB
:10127000A901C90102C080E090E028960FB6F89459
:10128000DEBF0FBECDBFDF91CF91FF90EF90DF901B
:10129000CF90BF90AF909F908F9008958F929F9224
:1012A000AF92BF92CF92DF92EF92FF92CF93DF93F4
:1012B000CDB7DEB728970FB6F894DEBF0FBECDBF0F
:1012C000F82E5B0161157105D1F140E0682FCE0168
:1012D00005960E949D0741E06F2DCE0101960E9468
:1012E0009D0729813A8140E050E0CD80DE80E12CED
:1012F000F12C2C193D094E095F09B50180E090E001
:101300008F809884A12CB12C681979098A099B09CE
:101310000E94F73D2B813C8140E050E028193909BB
:101320004A095B090E94493E2C0D3D1D4E1D5F1D63
:1013300057FF03C020E030E0A901C90102C080E0EE
:1013400090E028960FB6F894DEBF0FBECDBFDF91B8
:10135000CF91FF90EF90DF90CF90BF90AF909F9094
:101360008F9008950C949A088250893130F4E82FB8
:10137000F0E0E658FF4F8081089581E00895CF9313
:10138000DF93E82FF0E0EE0FFF1FEE59FE4FC08114
:10139000D1810E94B409882319F0813029F00AC054
:1013A00081E0E39740F404C081E0C935D24018F4ED
:1013B00080E001C081E0DF91CF910895CF93C0E03C
:1013C0008FE18C0F0E94BF09882329F0CF5FC630C0
:1013D000B9F786E001C08C2FCF9108951F93CF936A
:1013E000DF931F92CDB7DEB7182F69830E94B4092F
:1013F000E12FF0E0EE0FFF1FEE59FE4F4981682FFD
:10140000808191810F90DF91CF911F910C941616DE
:101410002FB7F8946091FC007091FD008091FE0060
:101420009091FF002FBF2DE730E040E050E00E9498
:10143000273EBB27A52F942F832F08958091360236
:101440008823C1F020919001309191018091FC009E
:101450009091FD00A091FE00B091FF00820F931FBC
:10146000A11DB11D8093FC009093FD00A093FE0090
:10147000B093FF000895CF93DF93809136028823C5
:1014800009F474C0209134023091350224363105BC
:10149000E0F4EEECF1E0C0EFD1E0419151918881B0
:1014A0009981AA81BB81840F951FA11DB11D8993CC
:1014B0009993A993B99381E0E03FF80771F72F5F03
:1014C0003F4F30933502209334022091CE0130916A
:1014D000CF018091100190911101A0911201B09162
:1014E0001301820F931FA11DB11D809310019093D2
:1014F0001101A0931201B09313012091D0013091FA
:10150000D10180910C0190910D01A0910E01B0913B
:101510000F01820F931FA11DB11D80930C019093A9
:101520000D01A0930E01B0930F012091DC013091C9
:10153000DD018091080190910901A0910A01B0910B
:101540000B01820F931FA11DB11D80930801909381
:101550000901A0930A01B0930B01809114019091AD
:10156000150101969093150180931401DF91CF919D
:10157000089590E0880F991FFC01EE59FE4F2081DD
:1015800031816217730718F4261B370B04C0AB01B7
:10159000421B530B9A01FC01E85EFE4F27303105D8
:1015A00018F01182108206C0208131812F5F3F4FD9
:1015B00031832083FC01EE59FE4F718360830895CF
:1015C000AF92BF92CF92DF92EF92FF920F931F9351
:1015D000CF93DF931F92CDB7DEB7A0906201B0909A
:1015E000630180916401909165018A159B0518F44F
:1015F000A81AB90A02C0A12CB12CB50182E10E943F
:10160000B90A04E711E09FE1F801619171918F013E
:10161000892F99830E94B90A99819F5F9532A1F71A
:101620000E94DE09F82E80E000E010E08F1569F0DE
:10163000EFE1E80FF0E0EE0FFF1FEE59FE4F2081C3
:101640003181020F131F8F5FF1CFB80183E10E9438
:10165000B90A0115110581F00A151B0520F4950141
:10166000201B310B03C098012A193B09293E334046
:1016700018F4580113E102C012E1F12CB50184E124
:101680000E94B90A6F2D70E086E10E94B90A612FAD
:1016900070E085E10E94B90A0E94080A8C010E944C
:1016A0002227882329F0E0906801F09069010BC09F
:1016B0000E942D26882329F0E0906601F0906701B2
:1016C00002C0E12CF12CB70187E10E94B90AB801F0
:1016D00089E10E94B90A9701D5010E94D63D30E107
:1016E000C32E37E2D32EE12CF12CA70196010E94E4
:1016F000273EB90188E10E94B90A9801D5010E94EC
:10170000D63DA70196010E94273EB9018AE10F90BC
:10171000DF91CF911F910F91FF90EF90DF90CF90CD
:10172000BF90AF900C94B90ABF92CF92DF92EF9224
:10173000FF920F931F93CF93DF932FB7F89480916D
:101740003402909135022FBF84369105C1F5809106
:10175000160190911701019690931701809316013D
:1017600000EF11E0CCEAD1E0B12C54E6C52ED12C2B
:10177000E12CF12CF80161917191819191918F018E
:10178000A70196010E94273E29933993B9018B2D19
:101790000E94EA08BC018B2D0E94B90AB394F1E1C2
:1017A000BF12E8CF0E94E00ADF91CF911F910F9105
:1017B000FF90EF90DF90CF90BF900C942908DF91BD
:1017C000CF911F910F91FF90EF90DF90CF90BF903E
:1017D00008954F925F926F927F928F929F92AF92F5
:1017E000BF92CF92DF92EF92FF920F931F93CF930E
:1017F000DF93CDB7DEB728970FB6F894DEBF0FBEE4
:10180000CDBF0E942007C0900001D0900101E09060
:101810000201F09003016C197D098E099F09613363
:1018200075478105910508F49BC02FB7F894009186
:101830001401109115014090100150901101609019
:1018400012017090130160910C0170910D01809153
:101850000E0190910F018090080190900901A090D5
:101860000A01B0900B012FBF6D837E838F83988711
:101870000E943B0820910601309107012F5F3F4FE6
:1018800030930701209306016801E12CF12C6D8152
:101890007E818F819885A70196010E94273E29832A
:1018A0003A834B835C83C301B201A70196010E9476
:1018B000273EB90180E00E94EA083C0169817A81F3
:1018C00081E00E94EA088615970518F4681A790ADB
:1018D00002C0612C712C40909A0150909B016414BD
:1018E000750420F0B3018CE10E94B90AB3016419B8
:1018F00075098BE10E94B90AC501B401A7019601DF
:101900000E94273EB90187E00E94EA082091040165
:10191000309105019093050180930401BC01621B85
:10192000730B660F771F8DE10E94B90AB8018EE133
:1019300028960FB6F894DEBF0FBECDBFDF91CF91D2
:101940001F910F91FF90EF90DF90CF90BF90AF90DD
:101950009F908F907F906F905F904F900C94B90AFA
:1019600028960FB6F894DEBF0FBECDBFDF91CF91A2
:101970001F910F91FF90EF90DF90CF90BF90AF90AD
:101980009F908F907F906F905F904F9008950E94EE
:10199000940B0C94E90B1092FC001092FD00109235
:1019A000FE001092FF000C94940880915D0208954F
:1019B00080915B02811113C00E948207882381F00D
:1019C0000E9485072091370230913802821B930BC9
:1019D0009C0181E02530310518F080E0089581E018
:1019E0000895815E0C946D070F931F93CF93DF933F
:1019F00010E0CFEFDFEF00E080915D02181760F498
:101A0000812F0E94F10C8C179D0710F0CE0101C0B0
:101A1000012F1F5FEC01F0CF802FDF91CF911F913D
:101A20000F910895CF93DF9390915B02911104C0C1
:101A3000DF91CF910C94F10C90914102C82FD0E02E
:101A4000992391F00E94F10CCC0FDD1FFE01EE5B9B
:101A5000FD4FC25BDD4F2081318148815981241BBC
:101A6000350B280F391F07C0FE01EE0FFF1FEE5B7D
:101A7000FD4F20813181C901DF91CF910895CF932E
:101A8000C82F80915B02882341F0C11106C00E94DB
:101A900085079093380280933702C0935B020E94BF
:101AA00020076093390270933A0280933B0290932F
:101AB0003C020E948B0880915A02811104C08C2F35
:101AC000CF910C94AF05CF910895EF92FF920F93B1
:101AD0001F93CF93DF9381E00E94F30586E10E947C
:101AE0006D0780935D020EE412E032E4E32E32E0F3
:101AF000F32EC0E0D0E080915D0290E0C817D907D6
:101B00006CF48C2F0E94F10CF801819391938F015A
:101B1000F701819391937F012196EDCF10925B02A3
:101B200010925A0280E00E943F0D109238021092EB
:101B300037021092390210923A0210923B02109230
:101B40003C02DF91CF911F910F91FF90EF9008958C
:101B500080E00E943F0D81E080935A0208950E9428
:101B6000A80D80E00C94F305FF920F931F93CF9381
:101B7000DF9380915C020E94120DEC01F12C01E0D8
:101B800010E080915D02F816E8F48F2D0E94120D8E
:101B9000AC0180915B02802321F0C417D50778F453
:101BA0000DC02091AF033091B0032F5F3F4F3695AA
:101BB00027952C0F3D1F2417350708F4102B000F15
:101BC000F394DFCF812FDF91CF911F910F91FF9081
:101BD00008951F93CF93DF93EC0110E080915D0295
:101BE000181748F48FE1810F0E9494078C179D0706
:101BF00020F01F5FF3CF81E001C080E0DF91CF9143
:101C00001F910895BF92CF92DF92EF92FF920F93B0
:101C10001F93CF93DF938AE090E00E94E90D882321
:101C200009F460C00E94F40C80935C020E94F10CE5
:101C30008C0162E08DE692E00E944A1908171907AC
:101C400048F172E4E72E72E0F72EEEE4CE2EE2E0E9
:101C5000DE2EC0E0D0E0BB24B39480915D0290E022
:101C6000C817D907CCF48C2F0E94F10CF70181938F
:101C700091937F01F601819391936F01801B910BEA
:101C80002091AF033091B0032817390708F4B12C25
:101C90002196E3CFBB24B394109241020E94200707
:101CA00060933D0270933E0280933F029093400206
:101CB000BB2059F0DF91CF911F910F91FF90EF90D2
:101CC000DF90CF90BF900C94A80D0E94B40DDF91CF
:101CD000CF911F910F91FF90EF90DF90CF90BF9029
:101CE0000C943F0DDF91CF911F910F91FF90EF90DA
:101CF000DF90CF90BF900895CF93809141028111E2
:101D000019C081E08093410280915C020E94F10C35
:101D1000C0E080915D02C81768F48C2F0E94F10C1E
:101D2000EC2FF0E0EE0FFF1FE25BFD4F918380830D
:101D3000CF5FEFCFCF9108950F931F930E9420079D
:101D400000913D0210913E0220913F0230914002ED
:101D5000601B710B820B930B28EE33E040E050E0E8
:101D60000E94273EC9011F910F91089583E090E0E2
:101D70000E94E90D8823C9F080915B02811103C0A4
:101D80000E94020E12C00E947C0E0E94B40D90E0D0
:101D90008095909520915B0230E082239323892BDC
:101DA00081F40E949C0E4F9760F40E94D80C882307
:101DB00011F082E0089580915A028823D1F381E0E6
:101DC000089580E00E943F0DF0CF1F93CF93DF93E3
:101DD000EC0110E080915D02181780F4812F0E94C1
:101DE000F10C8C179D0710F081E009C0812F0E9433
:101DF000120D8C179D07C0F71F5FECCF80E0DF91BD
:101E0000CF911F9108951F93CF93DF93EC0110E0C2
:101E100080915D02181780F4812F0E94F10CC81781
:101E2000D90710F081E009C0812F0E94120DC81758
:101E3000D907C0F71F5FECCF80E0DF91CF911F91F2
:101E4000089560915D02662329F070E00E94133EC0
:101E5000CB01089580E090E008950E94891285E00A
:101E60000E945B370E94CC080E94D31F0E94722EF2
:101E7000882349F080E00E94B80888E00E945B3720
:101E800081E00C9495050E948E1E0E94722E88237C
:101E900059F3F0CF0E9489120E94E11F86E00E9450
:101EA0005B370E94692E88E00C945B37E0915E02FC
:101EB000F0915F028591949110926002FC01099467
:101EC000E0915E02F0915F02329685919491FC015F
:101ED0000994E0915E02F0915F02349685919491AD
:101EE000FC010994CF93DF931F92CDB7DEB7811128
:101EF00009C00E94E31E0E94600F0E94CC080E944D
:101F00004A0F0FC0813059F469830E94E31E0E947A
:101F1000600F6981611105C00E942D0F02C081E030
:101F200001C080E00F90DF91CF9108957F928F9252
:101F30009F92AF92BF92CF92DF92EF92FF920F9358
:101F40001F93CF93DF93EC01A62E0E94560F0E94A1
:101F5000C51E0E94CF2E0E948912D12C82E0B82E7D
:101F6000E12CF12CCC24C39492E0992E8824839404
:101F700023E0722E0E943A37811106C0FE01ED0D5A
:101F8000F11D84910E941E230E941712182F883081
:101F900051F40E94E8118111A8C080916002823042
:101FA00008F0A3C0A5C080916002813021F4111116
:101FB00002C09092600280916002823008F461C099
:101FC000FE01ED0DF11DE491E23051F018F4E13025
:101FD000E9F154C0E330A9F1E33109F445C04EC042
:101FE000829915C0123019F46FEF7FEF04C01430DE
:101FF00071F461E070E08DE692E00E949E1A6091BB
:1020000072027091730281E090E00E9462248699CE
:102010004AC0123019F46FEF7FEF05C0143009F099
:1020200042C061E070E08DE692E00E94851A609106
:1020300070027091710241E081E090E00E9487247B
:1020400032C0869B58C0829B56C02DC0123019F4F6
:102050006FEF7FEF04C0143031F561E070E08DE682
:1020600092E00E94C71A1FC0123019F470926002E9
:102070001AC01430C1F41093600215C010926002AF
:1020800012C0143049F4ED2DF0E03196EC0FFD1F35
:10209000E491E11148C007C0123029F4DD2019F0A5
:1020A0000E94DE20DA94CC2081F00E94EC2EB82E23
:1020B0006A2D0E94720FC82E882339F00E9485076E
:1020C000E816F906A1F5C11003C0A1103BC0C12C50
:1020D000113009F04FCF0E94E811882309F44ACF4C
:1020E0000E94E31E0E94600F2DC01092600263CF19
:1020F0008092600260CF123041F40AE020E030E0CC
:1021000048EE5DEF6FEF7FEF09C0143061F60AE033
:1021100020E030E048EE5DEF61E070E083E893E0BE
:102120000E94FC2DC0CF0E94DE20D394BCCF0E9421
:1021300085077C010E94690FB82E6A2D0E94720FDC
:10214000C82EC1CF8B2DDF91CF911F910F91FF90A2
:10215000EF90DF90CF90BF90AF909F908F907F9047
:10216000089560E081E692E00E94781887FD0AC039
:10217000811102C00C945634992787FD90950197E0
:102180000C94BC29089578940E94CE050E940A3BC5
:102190000E9417270E94A8270E94B2090E94613D51
:1021A0000E94AE3488E893E10E9427076DE072E058
:1021B0008CEF91E00E94B61F88EE93E00E94270703
:1021C00080E00E94943A8091B5039091B6030797FE
:1021D00010F40C942F2008950E94C3100E94B11097
:1021E000FDCF6DE172E081E692E00E948A1787E9F7
:1021F00090E09093620280936102E5E6F2E08081D4
:10220000805E80830895FC0124812052621710F4BF
:102210000C947D17862F90E0821B91090E94111A61
:102220006EE00C94CC13CF93DF93EC010E948112EB
:102230008B819C810E94C9130E9485126A818881CA
:102240009981DF91CF910C946113FC0187818F31CB
:1022500018F48F5F8783089586818F5F8683089542
:10226000FC018781882319F0815087830895868136
:102270008150868308950F931F93CF93DF93FC01C2
:10228000C681D0E06D2F80E00E947B1210E11C0F10
:1022900001E00C0F8C2F0E941A14011711F0C02FAF
:1022A000F7CFDF5FD23011F0C12FECCFDF91CF91AC
:1022B0001F910F9108951F93CF93DF93EC018FEE41
:1022C00090E00E94F1161FEF8E81181721F0CE01C9
:1022D0000E943B111E818F81682F70E094E07595FC
:1022E00067959A95E1F78F700E947B120E941712F2
:1022F000823049F0843019F0813049F413C0CE01A6
:102300000E942511E1CFCE010E943011DDCF88302F
:10231000D9F68D81E881F981E80FF11D8F819E81C9
:10232000890F8083DF91CF911F910895FC01718304
:102330006083428334832383158280E286831782FD
:102340000895CF93DF93EC018FEE90E00E94F11699
:102350000E948912CE010E94131161E08D810E94BA
:102360007B120E9417128230B1F0843041F081302C
:10237000C1F48FEE90E00E94EA1680E026C04D8105
:10238000242F30E08A8190E00197281739072CF735
:102390004F5F4D83E2CF8D818823F9F281508D8389
:1023A000DCCF8830D1F682E00E946A12823048F099
:1023B00083E00E945B378FEE90E00E94EA1681E096
:1023C00004C0CE010E945B11C3CFDF91CF9108956D
:1023D00080916B0208950C949E06E0916B02F0E0F0
:1023E000EE0FFF1FE75DFD4F859194910895CF9308
:1023F000DF93D82F0E949E06C82F8D1741F082E3ED
:1024000090E00E9444070E949E06DC2FF5CF1092B8
:102410006B0210926A0280936C02882319F080E0AC
:102420000E94683780916C02DF91CF910895FF92EE
:102430000F931F93CF93DF93C0E0D0E0F12C0AEF0E
:1024400010E040916B02242F30E0F901EE0FFF1FE6
:10245000EB5BFD4F65917491C8010E94133E6F5F65
:102460007F4FF901EE0FFF1FC617D707A8F40E9490
:102470009E06F82E81E090E00E94440780916C0255
:10248000F81641F08F2DDF91CF911F910F91FF90A2
:102490000C94F7112196D5CFFF20A1F020916A026C
:1024A0002F5F20936A02E95CFD4F8591949130E0A3
:1024B0002817390738F0463018F44F5F40936B0205
:1024C00010926A0280916C02DF91CF911F910F915F
:1024D000FF900895CF93DF93D82FC0916C020E9494
:1024E000171290916B029D1711F08C17C1F3892F71
:1024F000DF91CF910895462F682F8FEE90E00C94D6
:10250000B51660E080E00C947B1261E080E00C94F2
:102510007B128FEE90E00C94AE16CF93DF93FC010C
:10252000DB018C91882389F0C081D181488380812F
:1025300091810196918380838C9181508C93882323
:1025400021F00190F081E02D1082DF91CF9108956C
:10255000BF92CF92DF92EF92FF920F931F93CF9390
:10256000DF93EC018B017A014115510501F1CA019C
:102570000E94773EF8019081B82E981708F4B92E82
:10258000CB2CD12CA601B701888199810E94803E75
:10259000288139812C0D3D1D39832883F8018081E4
:1025A0008B198083882319F0E881F9811082DF91EB
:1025B000CF911F910F91FF90EF90DF90CF90BF9040
:1025C0000895CF92DF92FF920F931F93CF93DF93E3
:1025D00000D0CDB7DEB76C018B01BA0180E090E08E
:1025E00049835A830E94AA2DF82ED8018C914981E3
:1025F0005A818F1570F44FE3B801C6010F900F9008
:10260000DF91CF911F910F91FF90DF90CF900C94AD
:102610008D12F601208131812F0D311D31832083F0
:10262000D8018C918F198C93882321F00190F0812F
:10263000E02D1082F9012AE030E0FF2069F0CA01A4
:10264000B9010E94133E405DBAE06B9F401911240E
:102650004293FA94AB01F1CF0F900F90DF91CF919D
:102660001F910F91FF90DF90CF9008950F931F93CC
:10267000CF93DF93CDB7DEB72B970FB6F894DEBFBD
:102680000FBECDBF8E010F5F1F4F1A87098727E04E
:102690002B87AC01BE01655F7F4FCE0109960E947A
:1026A000E112B8018FEE90E00E946D172B960FB6E5
:1026B000F894DEBF0FBECDBFDF91CF911F910F9178
:1026C00008950F931F93CF93DF93CDB7DEB7619734
:1026D0000FB6F894DEBF0FBECDBF0097D1F06131C9
:1026E00008F060E1062F10E0A801BC01CE010196C0
:1026F0000E948F3EE1E0F0E0EC0FFD1FE00FF11FC4
:102700001082BE016F5F7F4F8FEE90E00E946D17C9
:1027100001C080E061960FB6F894DEBF0FBECDBF5A
:10272000DF91CF911F910F9108950F931F93CF9336
:10273000DF93CDB7DEB761970FB6F894DEBF0FBE5B
:10274000CDBF0097D1F0613108F060E1062F10E0B5
:10275000A801BC01CE0101960E94803EE1E0F0E0BC
:10276000EC0FFD1FE00FF11F1082BE016F5F7F4F66
:102770008FEE90E00E946D1701C080E061960FB669
:10278000F894DEBF0FBECDBFDF91CF911F910F91A7
:10279000089560E10C949513CF92DF92EF92FF922F
:1027A0000F931F93CF93DF93CDB7DEB762970FB62A
:1027B000F894DEBF0FBECDBF009719F1613108F06C
:1027C00060E16C018E010F5F1F4F78018E2D801B21
:1027D000861768F4C6016A8B0E94AE3EF7018193AA
:1027E0007F01FFEFCF1ADF0A6A898111EFCFF8016D
:1027F000E60FF11D1082B8018FEE90E00E946D1778
:1028000001C080E062960FB6F894DEBF0FBECDBF68
:10281000DF91CF911F910F91FF90EF90DF90CF90BC
:102820000895882319F08AE592E002C086E592E0D7
:102830000C94C913682F8FEE90E00C944C17CF9333
:10284000DF93D82FC0E0CD1729F080E20E941A1440
:10285000CF5FF9CF8C2FDF91CF91089580E10C9459
:102860001F14CF93DF931F92CDB7DEB7682F64306C
:102870003CF080E269830E941A1469816150F7CFAD
:102880008EE592E00F90DF91CF910C9495136AE062
:102890000E94073E80E3890F0C941A14DF92EF9296
:1028A000FF920F931F93CF93DF93EC01F62ED42E5C
:1028B00016160CF089C068EE73E00E94133E8B017F
:1028C00080E090E00E94AA2D24E0E22EE80EEF14B2
:1028D0002CF480E20E941A14FA94F9CFFE14E4F06A
:1028E000D1101AC0BE0180E090E00E94AA2D182FDE
:1028F000FA941F1524F480E20E941A14F9CFCE0135
:102900000E9436138DE6DF91CF911F910F91FF90BA
:10291000EF90DF900C941A142E2D332727FD30955D
:10292000245031094F2D552747FD50954217530725
:1029300054F48F2DDF91CF911F910F91FF90EF9065
:10294000DF900C943114C8010E943613CE0168EE5A
:1029500073E00E94133EEC011F2D1E1993E0F92E27
:10296000F10E84E0810F18161CF48EE20E941A14F6
:1029700002E0010F1F1444F4CE0164E670E00E94EF
:10298000133E862F0E944714CE0164E670E00E9439
:10299000133EEC011F5F10163CF46AE070E00E94E9
:1029A000133E862F0E944714111674F4CE016AE07C
:1029B00070E00E94133EDF91CF911F910F91FF9025
:1029C000EF90DF900C944714DF91CF911F910F91FE
:1029D000FF90EF90DF900895EF92FF920F931F9377
:1029E000CF93DF93EC01F62E16160CF059C064E677
:1029F00070E00E94133E8B0180E090E00E94AA2DBF
:102A000033E0E32EE80EEF142CF480E20E941A1457
:102A1000FA94F9CF2E2D332727FD30952350310915
:102A20004F2D552747FD5095421753074CF48F2DD6
:102A3000DF91CF911F910F91FF90EF900C94311483
:102A4000C8010E943613CE0164E670E00E94133E76
:102A5000EC010F2D0E1912E0100F83E0800F1816F5
:102A60001CF48EE20E941A14FF24F394F00E111647
:102A700044F4CE016AE070E00E94133E862F0E946B
:102A800047141F146CF4CE016AE070E00E94133EFC
:102A9000DF91CF911F910F91FF90EF900C9447140D
:102AA000DF91CF911F910F91FF90EF900895BF920A
:102AB000CF92DF92EF92FF920F931F93CF93DF930A
:102AC0008C01D62EB42EC22E1616ACF52111DA9436
:102AD000B80180E090E00E94AA2DC82FD0E0ED2C34
:102AE000FF24E7FCF094CE15DF052CF48B2D0E941B
:102AF0001A14DA94F4CFCC2019F08DE20E941A1443
:102B0000EC16FD0664F48D2DDF91CF911F910F918E
:102B1000FF90EF90DF90CF90BF900C943114C801DC
:102B2000DF91CF911F910F91FF90EF90DF90CF90A9
:102B3000BF900C943613DF91CF911F910F91FF90AE
:102B4000EF90DF90CF90BF90089520E00C94571540
:102B5000CF93DF936CE370E00E94133E9B01EC0186
:102B600040E363E0C9010E94A5158AE30E941A149C
:102B700040E362E0CE01DF91CF910C94A51540E2D5
:102B80000C94A515292F221F2227221F19F0919599
:102B90008195910940E20C945715161634F4615052
:102BA0000E94EC1483E40C941A140895161634F45D
:102BB00061500E94BF1585E20C941A140895633089
:102BC0003CF062500E94BF1583E592E00C94C9135B
:102BD00008950F931F93CF93DF93062F142F64E66E
:102BE00070E00E94133EEB0180E20E941A1480E222
:102BF0000E941A14C436D10548F480E20E941A14C7
:102C0000CA30D10518F480E20E941A14CE010E9445
:102C10003613802F0E941A14812F0E941A1480E20A
:102C2000DF91CF911F910F910C941A140F931F9362
:102C3000CF93C62F1416BCF56FEF640F0C2F10E066
:102C40000830110508F5F801E65DFF4F0C94683E69
:102C500016E51BC040E201C048E667E5CF911F9131
:102C60000F910C94E915642FCF911F910F910C9443
:102C7000CD1514EF07C00E94C21585E50FC06EEF99
:102C8000640F11E440E002C015E541E00E944E14DB
:102C9000812F0E941A14C53031F488E6CF911F911C
:102CA0000F910C941A14CF911F910F910895462FF4
:102CB00065E00C941616462F60E00C941616462F0D
:102CC00061E00C941616462F66E00C941616AC982C
:102CD00081E090E00E94CF3DAC9A81E090E00E94BC
:102CE000CF3DAC9884E690E00C94CF3DA39AA29A95
:102CF000A19AA09A60FF02C0AB9A01C0AB9861FF95
:102D000002C0AA9A01C0AA9862FF02C0A99A01C093
:102D1000A99863FF02C0A89A01C0A8980C946716EE
:102D20001F93CF93DF93EC01162F442311F0AD9A3C
:102D300001C0AD98612F70E084E0759567958A9524
:102D4000E1F7CE010E947616612FCE01DF91CF917F
:102D50001F910C94761640E00C94901661E00E944E
:102D6000AB1680ED97E00C94CF3DCF93DF93CDB7BA
:102D7000DEB728970FB6F894DEBF0FBECDBF28E0B0
:102D8000E2E7F0E0DE01119601900D922A95E1F75D
:102D9000FC012481421710F04FEF420FFE013196E3
:102DA000E40FF11DE40FF11D2081260F2068622F32
:102DB00028960FB6F894DEBF0FBECDBFDF91CF913E
:102DC0000C94AB16FC016181262F246021836C607A
:102DD0000C94AB16FC0161816E7F618368600C947A
:102DE000AB16FC016181262F2160218369600C9460
:102DF000AB16CF93DF93EC01423018F088818860E6
:102E000088834C831D82222329F0413019F4888164
:102E10008460888380E593EC0E94CF3DAD98AC98A8
:102E200063E0CE010E94761684E991E10E94CF3DD5
:102E300063E0CE010E94761684E991E10E94CF3DC5
:102E400063E0CE010E94761686E990E00E94CF3DB5
:102E500062E0CE010E94761668816062CE010E9417
:102E6000AB1684E08983CE010E94E216CE010E9457
:102E7000AE1682E08A8366E0CE01DF91CF910C949A
:102E8000AB16A59AA49AFC01108220E041E060E113
:102E90000C94F9160C94411741E00E94901681E0C1
:102EA0000895EF92FF920F931F93CF93DF938C01BE
:102EB000F42EC62FD72FE42EE60EEC1631F06991D2
:102EC00041E0C8010E949016F8CF8F2DDF91CF917D
:102ED0001F910F91FF90EF9008956115710559F0C2
:102EE000FB0101900020E9F7AF0141505109461B59
:102EF000570B0C94511780E00895FC0127818085C1
:102F0000E22FF82FE60FF11DE60FF11D8591949148
:102F10000C94C9130F931F93CF93DF93EC018B0194
:102F2000CB010E946B2D682FCE010E94ED178DE919
:102F300090E09983888318870F83DF91CF911F9149
:102F40000F910895DF92EF92FF920F931F93CF930B
:102F5000DF93EC01F62E69871A8681E08D8382E08B
:102F6000D82EEE24E3948E01075F1F4F0E941712A4
:102F7000482F823011F0843061F4E881F9810280B9
:102F8000F381E02D6F2DCE010995F986DA86ED8269
:102F900004C0813089F0883079F0C8010E948E2EFB
:102FA0008111ED828D81882319F0CE010E941A18BB
:102FB0008A858F5F8A87DACF8FEF898781E08E835A
:102FC0008D83483009F080E0DF91CF911F910F9100
:102FD000FF90EF90DF9008950895FC0183EA90E060
:102FE0009183808312821382648381E08583868348
:102FF0000895FC012281211103C081E0828308959C
:10300000438130E0240F311D848190E0019728171F
:10301000390714F44F5F43830895FC0182818823AC
:1030200019F08150828308958381882311F08150A3
:10303000838308951F93CF93DF93EC0110E0612FFA
:1030400080E00E947B1280E20E941A14E881F981DC
:103050006B81610F0190F081E02DCE0109950E94F6
:103060002E141F5F123059F76A8180E00E947B1294
:103070008EE30E941A146A818FE00E947B128CE317
:103080000E941A141D82DF91CF911F9108950F9312
:103090001F93CF93DF93EC010E941712182F0E9409
:1030A0003A37882321F081E08D838FE71CC00B81A4
:1030B0008A81080F123031F0143039F4CE010E94A9
:1030C000F91703C0CE010E940D188B819A81890FD8
:1030D000081711F081E08D838D81882319F0CE01CE
:1030E0000E941A18812FDF91CF911F910F9108959F
:1030F000EF92FF921F93CF93DF931F92CDB7DEB76E
:103100007C0181E0F701858311E0C70169830E949A
:1031100047186981811102C0F7011682F701968173
:10312000911108C0883031F481E0868383819281D7
:10313000890F09C0662311F0F7011583813029F743
:103140009111E3CF8FEF0F90DF91CF911F91FF90FF
:10315000EF9008950F931F93CF93DF93EC018B01B2
:1031600050E00E94E1124AE3B801CE01DF91CF9115
:103170001F910F910C948D12EF92FF920F931F935A
:10318000CF93DF9300D01F92CDB7DEB78C01462FCF
:103190000B969A8389838EE08B83D801EC91F0E0C3
:1031A000EE0FFF1FE758FD4FE590F490BE016D5FF5
:1031B0007F4FCE0101960E94AA18A701BE016D5F44
:1031C0007F4FCE0101960E94A81240E2BE016D5FC2
:1031D0007F4FCE0101960E948D12F80141815281EC
:1031E000BE016D5F7F4FCE0101960E94E1124FE25A
:1031F000BE016D5F7F4FCE0101960E948D12D801F6
:1032000017964D915C911897BE016D5F7F4FCE016F
:1032100001960E94E1120F900F900F90DF91CF91D5
:103220001F910F91FF90EF900895CF93DF9300D0FF
:103230001F92CDB7DEB7462F2EE02B830B969A83D5
:103240008983BE016D5F7F4FCE0101960E94AA184F
:103250000F900F900F90DF91CF91089529E1289F53
:10326000B001299F700D11246E567F4F49E150E047
:103270008DE692E00C949E3E29E1289FB001299FA3
:10328000700D11246E567F4F49E150E08DE692E0BB
:103290000C94BC3EDC01EC91B6E0EB9FF0011124F4
:1032A000E60FF11DEE0FFF1FE35DFC4F859194913A
:1032B0000895DC01EC9146E0E49FF0011124E60F53
:1032C000F11DEE0FFF1FE35DFC4F85919491179662
:1032D0002D913C911897AC01429FC001439F900DE6
:1032E000529F900D11240895FC01A181B28120917B
:1032F000A5033091A6030E94D63D24E630E040E0CD
:1033000050E00E94273E293EFDEF3F074105510551
:1033100020F028EE3DEF40E050E0C9010895FC01A7
:103320002081213029F420919B0330919C0309C016
:10333000223029F42091990330919A0302C020E0B1
:1033400030E0FC0187819085AC01249FC001259F5E
:10335000900D349F900D11240895809195039091C4
:1033600096030895FC016081FBE06F9FB00111247A
:1033700061547D4F4BE050E00C946E3EDC01EC91CB
:10338000F0E0EE0FFF1FE758FD4F859194910C94EC
:10339000951360E170E00C94BE19CF93DF93EC01BC
:1033A000888160E0811108C0CE010E94591967E050
:1033B0000E945F1687E011C0CE010E94591965E096
:1033C0000E945F168FE20E941A148F8198850E94D6
:1033D000361383E40E941A1488E0DF91CF91089598
:1033E00066E0FC01838194810E945B1686E008956B
:1033F00066E0FC01858196810E945B1686E0089557
:10340000FC0181819281883EFDEF9F0729F48FE6C0
:1034100092E00E94C91303C067E00E94571688E03B
:10342000089529E1AC01249FC001259F900D11242E
:1034300083569F4F08950F931F93CF93DF93CDB77C
:10344000DEB7A6970FB6F894DEBF0FBECDBF8C01D6
:10345000AB01BC01CE0101960E94A21BCE010196D8
:103460000E94271C89E1FE013C96D80101900D9233
:103470008A95E1F7A6960FB6F894DEBF0FBECDBFD2
:10348000DF91CF911F910F910895FC012081260FAC
:103490002A3040F0161617061CF4FC01108203C0F7
:1034A00029E0FC0120830C94B21962E00E945919B2
:1034B0009C0140E050E060E072EC8BEE9BE00E94EB
:1034C000273E213187E238074105510520F020E1F0
:1034D00037E240E050E0C901089562E00E945919C6
:1034E0009C0140E050E060E478E78DE791E00E94C5
:1034F000273E293883E138074105510520F028E8A7
:1035000033E140E050E0C90108950F931F93CF933A
:10351000DF9300D0CDB7DEB78C0169837A830E9438
:10352000551AAC0169817A81C80103960F900F90FA
:10353000DF91CF911F910F910C94612E0F931F93E8
:10354000CF93DF9300D0CDB7DEB78C0169837A8348
:103550000E946D1AAC0169817A81C80105960F90AD
:103560000F90DF91CF911F910F910C94612EDC0190
:10357000EC91BCE0EB9FF0011124E15DFC4F659103
:10358000749184EF95E60E94133ECB010895EF926B
:10359000FF920F93CF93DF9300D0CDB7DEB77C01BE
:1035A00069837A830E94B71AF701208169817A8141
:1035B000211103C022E330E002C020E030E001E04E
:1035C000AC01C70107960E94FC2D0F900F90DF9170
:1035D000CF910F91FF90EF900895CF93DF93EC017F
:1035E0000E94B71A2F8138858217930710F49887A5
:1035F0008F83CE010E94551A2B813C81821793073D
:1036000010F49C838B83CE010E946D1A2D813E8124
:103610008217930710F49E838D83DF91CF910895D5
:103620000F93CF93DF93EC0104E620E030E048EE07
:103630005DEF01960E94FC2D89819A819C838B838A
:103640002881233039F49C013695279536952795A6
:103650003C832B839E838D83CE01DF91CF910F918D
:103660000C94ED1A0F931F93CF93DF934BE050E030
:1036700061E073E08DE692E00E946E3E8DE692E09E
:103680000E94ED1AC0E0D0E08E010F5F1F4FB8011D
:103690008DE692E00E941519CE010E943C1900327D
:1036A000110511F0E801F0CFDF91CF911F910F913B
:1036B0000895FC01818592850895FC01818592859C
:1036C000883EF3E09F0719F487E692E004C00E9469
:1036D000361382E692E00E94C91386E008950F93A4
:1036E00001E020E030E048EE53E009960E94FC2D16
:1036F0000F910895262F443019F06FEF7FEF02C02D
:1037000061E070E0223091F028F4222349F021306A
:1037100051F00895243081F060F0253081F0089553
:103720000B960C94451A0B960C94C71A0B960C9496
:10373000101B0B960C94851A0B960C949E1A0B96E4
:103740000C946F1BEF92FF920F931F93CF93DF9315
:10375000EC018B017A0166EB73E00E948A178FEF10
:10376000898789EA90E09983888389E1F801DE01FD
:103770001B9601900D928A95E1F7FDA2ECA2DF91D4
:10378000CF911F910F91FF90EF9008950F931F938A
:10379000CF93DF93CDB7DEB728970FB6F894DEBF8F
:1037A0000FBECDBF8C01BC016A5E7F4F2BEA33E0B8
:1037B0004EE050E0CE0101960E949611CE01019696
:1037C0000E94A11181E0F801858328960FB6F89434
:1037D000DEBF0FBECDBFDF91CF911F910F91089536
:1037E000CF93DF93EC010E9489120E94811285EA37
:1037F00093E00E94C9130E9485126EE0CE014696A6
:103800000E9461130E94692E83E0DF91CF910C9496
:103810005B37CF93DF93EC016CA17DA16F5F7F4F8E
:103820000B960E94BC18CE01DF91CF910C94F01B37
:10383000CF93DF93EC016CA17DA16F5F7F4F0B965F
:103840000E941519CE01DF91CF910C94F01BDF92ED
:10385000EF92FF920F931F93CF93DF93CDB7DEB715
:1038600069970FB6F894DEBF0FBECDBF8C0189E11A
:10387000D82EC8010B967C0160E0C8010E94781820
:1038800087FD30C0873041F0883051F0863061F4D8
:10389000C8010E94091CF0CFC8010E94C61BECCFD2
:1038A000C8010E94181CE8CFF701DE0111969D2D7A
:1038B00001900D929A95E1F7682FC8010E94A21716
:1038C000811109C0FE013196D7018D2D01900D9215
:1038D0008A95E1F7D1CF83E00E945B37C7010E9450
:1038E000ED1ACACF69960FB6F894DEBF0FBECDBFF2
:1038F000DF91CF911F910F91FF90EF90DF9008958E
:103900001F93CF93DF93EC01162F0E947D17CE01FA
:1039100009960E94832E882311F0298501C02FEF7C
:10392000332727FD3095812F90E02817390749F17B
:103930001230C9F048F4112389F0113011F5CE018D
:103940000B960E94CD191DC01430B9F088F01530C7
:10395000C1F4CE010B960E945D1B13C0CE010B96E5
:103960000E94C9190EC0CE010B960E94001A09C010
:10397000CE010B960E94F01904C0CE010B960E9456
:10398000F81980E0DF91CF911F9108950F931F9355
:10399000CF93DF9300D0CDB7DEB789839A830E949F
:1039A000811289819A810E94C9130E948512009117
:1039B000160310911703C8010E94773E892B19F056
:1039C000C8010E94C9130F900F90DF91CF911F91F2
:1039D0000F910C942E148091910390919203892B56
:1039E000A1F08DE10E946D0765E02AE0AC01249F03
:1039F000C001259F900D11240E94C2158DE60E94E2
:103A00001A1483E40E941A1404C085E794E00E940B
:103A1000C9130C942E148BE10E946D0765E00E947F
:103A2000C2158DE60E941A1486E50E941A140C94A1
:103A30002E1490E0880F991F62E0865F9A4F0C94D5
:103A400095130F931F93CF93DF9361E08DE692E080
:103A50000E9459198C0165E08DE692E00E94591987
:103A6000EC0184E10E946D0780179107B8F4C81734
:103A7000D907B0F49C012C1B3D0BC8018C1B9D0B7E
:103A800064E670E00E94133EC9010E94133E643652
:103A9000710510F063E670E0862F03C083E601C075
:103AA00080E0DF91CF911F910F910895613011F463
:103AB0000C94120D0C94482BCF93DF93D82FC62F64
:103AC0008FE18D0F0E94BF09882351F06C2F8D2F3D
:103AD0000E94561D46E06C2FDF91CF910C94161674
:103AE00083E095E0DF91CF910C94C9130F931F935E
:103AF000CF93DF93D82F062F0E9481128091BC02B2
:103B0000882319F01092BC0203C081E08093BC02AC
:103B1000109287020E94D80C811108C083E090E0C7
:103B20000E94E90D882341F080E209C080914102A2
:103B3000882321F082E403C08DE601C082E69091E3
:103B40005B02911102C00E941A1480915B028823CB
:103B500031F110E0C1E00E94D50C1817D0F480912B
:103B60005C02181761F080915B028C2331F0809128
:103B7000BC02882321F08FEF03C08DE201C08FE5E6
:103B80000E941A14C03811F0CC0F01C0C0E01F5FB2
:103B9000E2CF0E94D50C98E0981B892F01C087E0E6
:103BA0000E941F1411E01D0F812F0E9447148AE309
:103BB0000E941A14602F8D2F0E945C1D0E942E14EB
:103BC0000E9485121630C8F4C2E0CD0F8C2F0E94DF
:103BD00047148AE30E941A14602F812F0E945C1DF3
:103BE000C63059F083E08D0F0E9447148AE30E948B
:103BF0001A14602F8C2F0E945C1DDF91CF911F91B2
:103C00000F910C942E1489E10E946D0768E00E94C8
:103C1000571680E20C941A140E94811220916002BF
:103C20008091830390918403223031F466E00E94F6
:103C3000BF1588EF94E005C065E00E94BF1584EFD2
:103C400094E00E94C91380E20E941A140E94342B4F
:103C500067E00E945B160E942E140E9485128BEE74
:103C600094E00E94C91367E08091790390917A03F0
:103C70000E945F160C942E140F931F936091C7023D
:103C80007091C8028091C9029091CA022091860267
:103C9000222371F00E9420070091C7021091C802F0
:103CA0002091C9023091CA02601B710B820B930BE9
:103CB00028EE33E040E050E00E94273EC9011F910A
:103CC0000F910895CF930E942D26811110C00E945C
:103CD0002227882331F00E942D2681110AC0C4E4D6
:103CE0000BC00E94D80C811106C0CEE405C0C3E40D
:103CF00003C0C5E401C0C2E40E941D268111C7E5CE
:103D00008C2F0E941A1480E20E941A140E943C1EFA
:103D10000E94A81580E2CF910C941A140E9481127F
:103D2000809160028230F9F40E942827882359F09C
:103D300066E080917202909173020E94BF158FEF2E
:103D400094E00E94C9130E943326882371F066E034
:103D500080917002909171020E94BF158BEF94E0E8
:103D60000E94C91302C00E94031E67E087E10E94FF
:103D7000EE090E942E140E9485120E94621E67E0C6
:103D800084E10E94EE090C942E140E942007609397
:103D9000C7027093C8028093C9029093CA0210921E
:103DA000C3021092C4021092C5021092C602109271
:103DB000BF021092C0021092C1021092C20281E0B2
:103DC0008093860208950F931F930E94200700910D
:103DD000C7021091C8022091C9023091CA02601B2B
:103DE000710B820B930B6093C7027093C802809390
:103DF000C9029093CA02109286021F910F910895F2
:103E0000CF92DF92EF92FF920E94811280EE94E0B7
:103E10000E94C9130E943C1E0E94A8150E94851290
:103E20008DED94E00E94C9136091C3027091C402A9
:103E30008091C5029091C60238EEC32E33E0D32E96
:103E4000E12CF12CA70196010E94273EC9010E9496
:103E5000A8158AED94E00E94C9136091BF02709189
:103E6000C0028091C1029091C202A70196010E94F6
:103E7000273EC901FF90EF90DF90CF900C94A815DA
:103E80000E94811281ED94E00E94C9130E94522B7E
:103E900068E00E9463160E942E140E94851283E13E
:103EA0000E94BF09882349F088EC94E00E94C9135E
:103EB0000E94582B68E00E9463160C942E140E94F6
:103EC000811280EC94E00E94C91367E086E00E94B2
:103ED000EE090E942E140E94851288EB94E00E9445
:103EE000C91347E061E08091A7039091A8030E9465
:103EF00016160C942E140E94811281EB94E00E94FD
:103F0000C91367E082E10E94EE090E942E140E940C
:103F100085128AEA94E00E94C91367E083E10E9457
:103F2000EE090C942E140E94811284EA94E00E94FF
:103F3000C9138091910390919203892B29F065E038
:103F400087E00E94EE0904C082EA94E00E94C9134F
:103F50000E942E140E9485128CE994E00E94C913DD
:103F600065E085E00E94EE090C942E140F931F93D8
:103F7000CF93DF9300D0CDB7DEB78B0189839A83CF
:103F80000E9489120E94811289819A810E94C9131C
:103F90000E948512C8010F900F90DF91CF911F9161
:103FA0000F910C94C9138BE894E00E94C61C0E94E8
:103FB000851284E894E00E94C9130E943C1E0C9470
:103FC000A8158DE794E00C94C61C0E9481120E94F3
:103FD000031E0E94EB1C0E9485120E94621E0C941C
:103FE0000B1D0E9481128CE694E00E94C91367E0C9
:103FF0008CE10E94EE090E942E140E94851282E636
:1040000094E00E94C9130C940B1D0E9481128CE550
:1040100094E00E94C9138091910390919203892B9F
:1040200031F00E948A0769E00E94CD1504C088E53E
:1040300094E00E94C9130E942E140E9485128EE4FF
:1040400094E00E94C9130C94EB1C60E070E08AE4D9
:1040500094E00C94B61F0E9425200C94692E60E019
:1040600070E08EE394E00E94B61F88E893E10C9420
:10407000270760E070E08DE294E00C94B61F609139
:10408000BF027091C0028091C1029091C20220E6ED
:104090003AEE40E050E00E94273EC9010895CF93D8
:1040A000DF938091BB028F5F843018F48093BB0252
:1040B00002C01092BB028091BB02833061F4C091B8
:1040C0006D00CF5FC0936D000E94BA288C1718F462
:1040D00081E080936D0080916002833051F08430E4
:1040E00081F0823019F180916D0081508093B2028D
:1040F0001DC08091B202811102C00E94BA28815075
:1041000010C0C091B202D0E00E94BA2890E001979E
:10411000C817D9071CF01092B20205C08091B202F4
:104120008F5F8093B20282E0809360020E948112CE
:104130008091B20290E061E001960E94BF158FE588
:104140000E941A14E091B202F0E0EE0FFF1FE65752
:10415000FD4F808191810E94A81581E00E941F146B
:104160008FEF0E941A14E091B202F0E0EE0FFF1FF1
:10417000EC56FD4F808191810E94A8150E942E145B
:104180000E948512E091B202F0E0EE0FFF1FE256AE
:10419000FD4F68E0808191810E945716E091B20244
:1041A000F0E0EE0FFF1FE855FD4F68E08081918140
:1041B0000E945716DF91CF910C942E14CF93DF936A
:1041C000C0E0DFE061E08D2F8C1B0E947B128FEF3F
:1041D0000E941A1460E08C2F0E947B128FEF0E94C5
:1041E0001A148AE090E00E942707CF5FC03151F790
:1041F0008AE090E0DF91CF910C942707CF93C82FEE
:104200000E9489120E9481128DE094E00E94C913DD
:1042100062E08C2F90E00E94BF1580E49FE1CF9177
:104220000C9427071092B8021092B7021092B602AF
:104230001092B5028091B9028093BA021092B40232
:104240001092B3020895CF93DF9328E630E084E91B
:1042500092E0CAE8D2E0A8EAB2E06EE972E045E096
:104260005DE2F90151939F01FC0111921192CF017E
:10427000199219921D921D92FB0111921192BF0188
:10428000415079F7DF91CF910895CF930E94122189
:104290000E9423210E94811264E070E08DE692E08A
:1042A0000E94BE1980916002823011F48EE301C039
:1042B00080E20E941A148DE692E00E94CD1980914E
:1042C0006002823011F48CE301C080E20E941A1473
:1042D000809118030E94191D0E9485120E94211DC1
:1042E0008093B90262E090E00E94BF158AE294E0F8
:1042F0000E94C9138DEB92E00E94832E882319F04F
:10430000C091BD0201C0CFEFC0FF05C065E082E1F2
:104310000E94EE0903C085E00E941F1480E20E9403
:104320001A1480916D0284508630A8F4C1FF05C034
:1043300065E083E10E94EE0903C085E00E941F143E
:10434000C2FF05C00E94DE09CF910C94471480E2A1
:10435000CF910C941A1466E080916E0290916F02D6
:104360000E945716CF910C942E140E94211D809309
:10437000B9029091BA02981728F58093BA020E9468
:104380003C1E2091B5023091B602821B930B909394
:10439000B8028093B7020E943C1E9093B6028093AD
:1043A000B5028091B7029091B8022091B30230918A
:1043B000B4022817390710F0232B21F49093B4028C
:1043C0008093B3020895CF93DF930E94B5210E949A
:1043D000DE09811128C083E10E946D07EC0182E1B2
:1043E0000E946D07C817D90728F49C012C1B3D0BB0
:1043F000E90102C0C81BD90BC53FD140A0F024E69B
:1044000030E08091BA02281B31094091B3025091EB
:10441000B402249FC001259F900D349F900D11245C
:10442000DF91CF91089529E6EBCFFF920F931F9371
:10443000CF93DF930E94BA28FF24FA94F80E0E94CB
:10444000BD28833429F50F2D112707FD1095F8019C
:10445000E859FF4F8083000F111FE801CC56DD4F54
:104460006091BF027091C0028091C1029091C2021E
:1044700028EE33E040E050E00E94273E3983288355
:1044800089E10E946D07F801E855FD4F9183808313
:104490000E94BD28843429F5CF2DDD27C7FDD09596
:1044A000FE01E859FF4F8083CC0FDD1F8E010657B8
:1044B0001D4F6091BF027091C0028091C102909126
:1044C000C20228EE33E040E050E00E94273EF801AF
:1044D0003183208389E10E946D07C256DD4F9983A5
:1044E0008883DF91CF911F910F91FF9008950E94D3
:1044F000332681112FC00E94282781112BC00E94D2
:10450000D80C8823A1F08091C3029091C402A0919D
:10451000C502B091C60280599F4FAF4FBF4F8093E5
:10452000C3029093C402A093C502B093C6020E9436
:1045300015220E94E3219093890280938802809142
:10454000BB028F5F893218F48093BB0208951092EA
:10455000BB0208958091BF029091C002A091C10258
:10456000B091C20280599F4FAF4FBF4F8093BF029F
:104570009093C002A093C102B093C202C0CF81E069
:104580009091BB02953108F080E008950E94B5211A
:104590000E94BF228823B9F00E9481120E94031E4C
:1045A00067E087E10E94EE090E942E140E948512A6
:1045B0000E94621E88E294E00E94C9130E942D2688
:1045C00081111CC02FC00E94811268E088E10E9406
:1045D000EE0986E294E00E94C91367E087E10E9439
:1045E000EE090E942E140E94851268E08AE10E9462
:1045F000EE0983E294E00E94C91314C08091B902CD
:10460000833680F48091B3029091B402459730F0E4
:1046100080918802909189020C94A8158CE194E015
:104620000C94C9138091B90264E090E00E94BF1518
:104630008AE194E00E94C9130C942E149091BE025A
:104640009F5F9093BE0290E0FC013197E331F1054A
:1046500070F5EE5CFF4F0C94683E0C948E1E0C942B
:104660000C1E0C94001F0C94931F61E007C061E0C6
:1046700083E00C94761D61E006C066E080E0F9CF2F
:1046800066E0F6CF66E086E0F4CF0C9445210C940A
:10469000401F0C947B1F0C945F1F0C94C6220C943B
:1046A000F11F0C9405200C94E51F0C944F200895E5
:1046B0008FEF8093BD020895CF93DF930E94EE2683
:1046C000C0917002D091710261E08DE692E00E948B
:1046D00059199C01CE0165E070E00E94133EEB0188
:1046E00040E0C9010E947C2B8FE00E94A82BCE01E4
:1046F000DF91CF910C94EC2681E00C9400270E946E
:104700001708882321F00E943C260C94442C08951D
:104710001092CB020C945C23CF93DF930E947F23F3
:104720000E940D08EC018091CB02811111C062E062
:104730008DE692E00E9459198C179D0748F481E09C
:104740008093CB0280917002909171020E94EC26BE
:104750000E941708882381F064E08DE692E00E94B1
:1047600059198C179D0740F485E395E09093170342
:104770008093160381E030C00E948F07029758F1A2
:104780008091970390919803892B89F08BE10E9487
:104790006D07EC018DE692E00E948F19D195C195CD
:1047A000D1098C179D071CF481E395E0DFCF809140
:1047B000910390919203892B71F08DE10E946D0716
:1047C000EC018DE692E00E94AD198C179D071CF458
:1047D0008BE295E0CBCF82E0DF91CF9108958130DD
:1047E000910521F09093CD028093CC027093CF027B
:1047F0006093CE0208950F931F93CF93DF93C091E0
:10480000CC02D091CD02CE010E94210F8C010E94DA
:104810000D08C817D90738F4C801DF91CF911F914F
:104820000F910C94030F81E0DF91CF911F910F91B5
:10483000089581E00E9495270C94AF0D0E94872770
:104840000E94650D21E08091AB039091AC03892B10
:1048500009F420E02093D00280E10C94A82B0F9360
:104860001F93CF93DF930E94FB23182F0E943127C1
:10487000EC010E941708882311F001E001C0012F0C
:104880008091D002882329F0BE01812F0E94F82B4D
:1048900001C0812F882329F081E00E94952781E0C3
:1048A0000CC0002349F0BE01812F0E943C2D8C17C3
:1048B0009D0711F00E94852782E0DF91CF911F9123
:1048C0000F9108950F931F93CF93DF938C01EB010A
:1048D0000E94EF2340E0BE01C8010E947C2BCE0164
:1048E0006AE070E00E94133ECB01DF91CF911F91EF
:1048F0000F910C941E2B81E00E9400270C94AF0DA9
:104900000E94650D0E94EE268FE00C94A82B0C945B
:104910007C2B0F931F93CF93DF93C0917903D0919A
:104920007A03CE010E94210F8C010E940D088C1782
:104930009D0738F4C801DF91CF911F910F910C941E
:10494000E50E81E0DF91CF911F910F9108951F93A4
:10495000CF93DF930E948924182F0E943C26EC01FC
:10496000BC01812F0E94F82B882329F081E00E944E
:10497000002781E019C00E941708811107C011119A
:1049800005C0CE010E94392B882369F00E94D80C03
:10499000811109C0BE01812F0E943C2D8C179D07FB
:1049A00011F00E94EC2682E0DF91CF911F910895D3
:1049B0000E947B240E9419240C94AF0DCF93DF93A7
:1049C0001F92CDB7DEB79091D202913039F018F036
:1049D000923039F00FC00E94A7240CC00E942F24EF
:1049E00009C00E94B60E823089F089830E94D824C3
:1049F00089810CC0813051F49091D102992331F01A
:104A000082E08093D2020E94650D82E00F90DF91D8
:104A1000CF9108950E94650D8091D7029091D802A0
:104A20000E94210F0E94030F2091D7023091D802DB
:104A3000882369F06091D5027091D60240E0C901E7
:104A40000E9487240E9480241092D20208956091CF
:104A5000D3027091D402C9010E9462240E941E24D4
:104A600081E08093D0028093D20208958093D10296
:104A700008959093D8028093D7027093D6026093E2
:104A8000D5025093D4024093D302089587E08093D7
:104A9000BD0282E08093BE020E94543783E080937F
:104AA000DA0208950F931F93CF93DF938091D90279
:104AB000882379F00E94DE099091740201E0981336
:104AC00001C000E011E0811110E0913021F41123C8
:104AD00011F010E000E083E10E94BF09882309F48F
:104AE0005CC083E10E946D07EC0182E10E946D07CA
:104AF000C817D90728F49C012C1B3D0BE90102C003
:104B0000C81BD90BC53FD14008F447C0C1E0011113
:104B100002C087E001C083E08093BD02112329F029
:104B20008091BD0282508093BD02CC2329F08091F8
:104B3000BD0281508093BD02011104C0111102C059
:104B4000CC2331F081E00E945B37111107C004C013
:104B500088E00E945B3708C0002331F08091AD03EC
:104B60009091AE03892B11F4D0E001C0D1E00E94F6
:104B7000EB11811102C01092DA02D11106C0C111ED
:104B800004C00E94EB11883051F08091DA0282302B
:104B900011F481E00AC082E008C0C0E0B8CF809183
:104BA000DA028F5F8093DA02F0CFDF91CF911F910D
:104BB0000F9108958FEF8093BD0288E00C945B37CE
:104BC0008093D90208951092E10208950E9420076F
:104BD00028EE33E040E050E00E94273E2093DD02C3
:104BE0003093DE024093DF025093E00208950E946A
:104BF000200728EE33E040E050E00E94273E60911D
:104C0000DB027091DC028091DD029091DE02A091C6
:104C1000DF02B091E002860F971FA11DB11D821720
:104C20009307A407B50728F081E08093E10282E0B2
:104C300008951092E10281E008958091E1020895C3
:104C40002CE3AC01249FC001259F900D112490936B
:104C5000DC028093DB020C94E62581E09091EA026D
:104C6000911180E0089581E02091E8023091E902FD
:104C7000232B09F480E008958091E8029091E902E5
:104C80000895EF92FF920F931F93CF93DF93EC0160
:104C90008B0180916F00823009F474C08FE00E9414
:104CA000EA089093E7028093E60268EB7BE08FE0EE
:104CB0000E944E09969587959093E3028093E202B5
:104CC000BE018FE00E94EA089093E5028093E4021F
:104CD0002091E6023091E7022817390718F5821B68
:104CE000930B893B9B40F0F00E9489120E94811235
:104CF00060E070E08BE695E00E94B61F7801CE156B
:104D0000DF0570F0C7010E94A70584EF91E00E94C3
:104D100027078091E2029091E302E80EF91EEFCF9F
:104D20000E9417082091E6023091E7028091E40288
:104D30009091E5028217930728F5281B390B293B30
:104D40003B4000F10E9489120E94811260E070E0F5
:104D500081E695E00E94B61F7E010E151F0580F0CA
:104D6000C8018E199F090E94A70584EF91E00E9457
:104D700027078091E2029091E302E80EF91EEDCF41
:104D80000E941708CE01DF91CF911F910F91FF90E4
:104D9000EF9008956091E8027091E9020E94412627
:104DA0009093E9028093E80220916F00223081F015
:104DB0008131974230F080E197E29093E90280934D
:104DC000E8026091E8027091E9028FE00E944E09CA
:104DD0000E94A7050C9494080C94CA268091EA02BC
:104DE000882369F01092E9021092E80280E090E0D6
:104DF0000E94CA2681E00E949B051092EA02089553
:104E0000CF93C82F8091EA0281110FC0CC2369F0A3
:104E100080E090E00E94CA261092E9021092E80217
:104E200080E00E949B05C093EA02CF910895109202
:104E3000E9021092E80280E090E00E94CA2681E038
:104E40000C94002781E09091EF02911180E0089589
:104E500081E02091ED023091EE02232B09F480E0F5
:104E600008958091ED029091EE020895CF93DF9323
:104E7000EC0140918F0350919003BA01645F71403F
:104E800080EF92E00E94762D8091F002882311F04D
:104E9000C0E0D0E0CE01DF91CF910895CF93C82F2D
:104EA0008091EB029091EC020E9436272091ED0256
:104EB0003091EE028217930711F4CC23E9F090931E
:104EC000EE028093ED0220916F00223081F089384C
:104ED000934130F088E893E19093EE028093ED02E5
:104EE0006091ED027091EE0280E10E944E090E94F5
:104EF000AB05CF910C949408CF9108959093EC0258
:104F00008093EB0281E00C944E270C947E278091D5
:104F1000EF02882349F080E090E00E947E2781E044
:104F20000E94A1051092EF020895CF93C82F80919F
:104F3000EF0281110BC0CC2349F080E090E00E9489
:104F40007E2780E00E94A105C093EF02CF910895D3
:104F500080E090E00E947E2781E00C94952780916C
:104F6000EF02811102C00C944E27089580916D02CA
:104F7000893051F09CEF980F963048F08150823084
:104F800048F483E093E008958AEF92E008958CE07E
:104F900093E0089581EF92E0089585E595E0909380
:104FA0005F0280935E0290916D02945081E0963092
:104FB00008F080E00E94E02561E08AE296E00E942D
:104FC000960F91E0813009F090E0892F08950F93BA
:104FD0001F93CF93DF930E943625009172021091A8
:104FE0007302C0917002D091710263E08DE692E08D
:104FF0000E945919A801BE010E9439258FE495E04D
:1050000090935F0280935E0260E080E396E0DF9120
:10501000CF911F910F910C94960F1F93CF93DF9315
:10502000162FC0917002D091710261E08DE692E07E
:105030000E94591940E0BE010E94872489E495E04E
:1050400090935F0280935E02612F80E596E0DF918E
:10505000CF911F910C94960F1F93CF93DF93182F2E
:10506000C0917002D091710261E08DE692E00E94E1
:10507000591941E0BE010E94872429E435E03093AC
:105080005F0220935E02612F80E596E0DF91CF9171
:105090001F910C94960F2DE335E030935F0220931F
:1050A0005E02682F89E696E00C94960FCF93C82F86
:1050B00062E08DE692E00E9459196091720270914F
:1050C0007302A0917402B0917502E091A903F0916E
:1050D000AA03AE9F9001AF9F300DBE9F300D1124EB
:1050E000820F931F0E94622423E435E030935F0215
:1050F00020935E026C2F8CE396E0CF910C94960F78
:105100001F93CF93DF93182FC0917202D091730237
:1051100062E08DE692E00E945919BE010E9462246D
:1051200023E435E030935F0220935E02612F8EE529
:1051300096E0DF91CF911F910C94960F86EF91E04E
:1051400090935F0280935E0260E08AE496E00C94A4
:10515000960F80919F039091A0030E9420268BE5DB
:1051600095E090935F0280935E0261E08CE396E0AD
:105170000C94960F80911503089580916E00089508
:10518000813019F481E00C945628811103C081E02C
:105190000C9480288230B1F380E00895409115038B
:1051A00050E020919D0330919E034217530789F0F0
:1051B000813041F42091AD033091AE03232BD9F01F
:1051C000862F10C0811102C0862F10C08230C9F412
:1051D00012C0813049F48091AD039091AE03892BC8
:1051E00049F080E00C942C28811102C00C944B28CB
:1051F000823039F460E08091A3039091A4030C9471
:105200000D2880E008950F931F93CF93DF93C82F4D
:1052100081E08093150314E4D7E503E4409115037E
:1052200050E020919D0330919E0324173507E8F14B
:105230000E94CB0C10936E008C2F0E94C0288130EE
:10524000A9F5D0936E000E94A928813079F50E94BB
:1052500012210E94CB0C00936E004091150350E088
:1052600020919D0330919E034217530711F061E096
:1052700001C060E08C2F0E94CE288130B9F4D09319
:105280006E004091150350E020919D0330919E03E4
:105290004217530721F00E94A928813039F48091E8
:1052A00015038F5F80931503B9CF81E0DF91CF9114
:1052B0001F910F910895CF93C82F8093180323E770
:1052C00035E030931703209316038F3030F4E82F26
:1052D000F0E0E355FF4F808101C080E080936F00D4
:1052E0000E945D3881E00E94B8080E94CD27882383
:1052F000F1F184E00E945B378C2F90E08F309105B4
:10530000A0F5FC01EB5BFF4F0C94683E60E08091E0
:10531000A3039091A4030AC00E949E2828C080E0A5
:105320000E94562824C060E085E090E00E940D288D
:105330001EC060E080E002C060E081E00E94E727DC
:1053400016C080E00E944B2812C080E00E94802896
:105350000EC081E003C080E001C082E00E9403290A
:1053600006C080E00E942C2802C00E942B200E94D0
:10537000CC08CF910C946D380F931F93CF93DF938C
:10538000EC010E942E190E94B6278C0160E0C80132
:105390000E94781887FD29C090916D02E82FFF27A1
:1053A000E7FDF095993019F4ED56FA4F0FC08CEFE8
:1053B000890F863018F4E655FA4F08C091509230A4
:1053C00018F4EB57FA4F02C0EC58FA4F84918F3023
:1053D00049F4BE018DE692E00E941B1ACE010E94A4
:1053E0003C19D1CF0E945B29D1CFDF91CF911F9182
:1053F0000F91089563EB75E08CE093E00E948A17AB
:1054000069E875E083E093E00E948A176AE975E035
:105410008AEF92E00E948A1769E775E081EF92E0D7
:105420000C948A17FC01428153814115510591F07A
:10543000A081B181B7FF03C0B195A195B10928EE54
:1054400033E00E94E53D9A0140E050E00E94273E93
:10545000C901089580E090E00895CF93DF9300D0D4
:1054600000D0CDB7DEB7FC01228133813C832B8392
:10547000808191819A838983CE0101960E94122AAC
:105480000F900F900F900F90DF91CF9108950F9391
:10549000FC01CB01002341F04617570708F4CA016D
:1054A0006417750748F407C06417750708F4CA0144
:1054B0004617570708F4BA01978386839183808340
:1054C000138212821582148233872287681B790B1C
:1054D000718760870F910895FC019B0140E050E0C7
:1054E00086819781281B390B41095109A285B38513
:1054F0000E94EC3D20853185442737FD4095542F8F
:105500000E94493E2115310581E04807510524F4E8
:1055100057FD05C0C90108958FEF9FEF089580E002
:1055200090E00895DF92EF92FF920F931F93CF9335
:10553000DF93EC012A813B812417350720F4FA011F
:10554000E21BF30B03C0F901E41BF50B8C819D8179
:10555000969587958E179F0770F588819981861794
:10556000970720F4FB01E81BF90B03C0FC01E61BC5
:10557000F70BEF2B01F12417350738F48A01021BD2
:10558000130B7B01E81AF90A06C07C01E61AF70A38
:105590008901041B150BC7010E94A42DD82E8885F4
:1055A00099850E94A42DD81206C01D830C83F9860C
:1055B000E8861B870A87DF91CF911F910F91FF909B
:1055C000EF90DF9008950F931F93CF93DF93EC013B
:1055D0008B019A01A885B9850E94E53D2A853B8506
:1055E00040E050E00E94493EC801A0E0B0E08217D0
:1055F0009307A407B5071CF41F821E8204C0021B78
:10560000130B1F830E83DF91CF911F910F9108958C
:10561000EF92FF920F931F93CF93DF93EC018B01D7
:105620007A010E94922AA701B801CE01DF91CF91A1
:105630001F910F91FF90EF900C94E32A8233910514
:1056400010F482E390E090937E0380937D030895AD
:1056500080911B03813029F480917D0390917E031A
:10566000089580E090E0089580917B0390917C0301
:10567000089520912003213041F041E020917D03E5
:1056800030917E038217930708F040E0842F08953D
:105690002CE0829FC001112460911D03875D9C4F07
:1056A0000C942D2A60911D0381E793E00C942D2A20
:1056B000CF93DF9300D000D0CDB7DEB782E10E9458
:1056C0006D079A83898383E10E946D0729813A815E
:1056D000281B390B3A83298387E10E946D079C833D
:1056E0008B83CE0101960E94122A0F900F900F908B
:1056F0000F90DF91CF9108959B018130910531F09A
:1057000090937A038093790340931C0330937C0336
:1057100020937B036091A3037091A403C9010E94AD
:10572000133E70937E0360937D032233310530F482
:1057300082E390E090937C0380937B036233710556
:1057400030F482E390E090937E0380937D0308958C
:10575000EF92FF920F931F93CF93DF9391E090937B
:105760001B03FF24F3948F3009F0F12C80931D0369
:105770000E940D0820917D0330917E0340917903B2
:1057800050917A030F2DBC0189E693E00E94472ACD
:105790000E94D50C80931E038091790390917A0327
:1057A0000E94210FEC0110E08CE0E82E80911E0396
:1057B000181798F4812F0E94120DBC0120917D03CF
:1057C00030917E03E19EC00111240F2DAE018F5D4B
:1057D0009C4F0E94472A1F5FE9CF1092200310922E
:1057E0001F03DF91CF911F910F91FF90EF900895CC
:1057F0000F931F93CF93DF93082FEB0180911C032E
:105800008823B1F020917D0330917E03203A310549
:1058100010F420EA30E02C173D0710F410925A02E1
:1058200080912003813021F00E94B60E80931B03EB
:1058300080911B03813011F580912003823041F467
:1058400011E020917D0330917E03C217D30708F049
:1058500010E00E94282B8C179D0770F0111102C0D8
:10586000002351F090911F0381E0890F80931F0363
:1058700081E09A3020F402C010921F0380E0DF9193
:10588000CF911F910F9108950F931F93CF93DF93A3
:10589000EC010E940D08AE01BC0189E693E00E9474
:1058A000082B10E00CE080911E03181770F4812F74
:1058B0000E94120DBC01019FC0011124AE018F5D39
:1058C0009C4F0E94082B1F5FEECFDF91CF911F915D
:1058D0000F910895CF92DF92EF92FF920F931F9353
:1058E000CF93DF936091790370917A0389E693E017
:1058F0000E946C2A8C018091790390917A030E9416
:10590000210F7C01D12C9CE0C92E80911E03D8165A
:1059100098F4CD9CE0011124CF5DDC4FB701CE019E
:105920000E946C2A0817190728F0B701CE010E94BF
:105930006C2A8C01D394E9CFC801DF91CF911F91DC
:105940000F91FF90EF90DF90CF900895CF92DF926C
:10595000EF92FF920F931F93CF93DF93EB0180930E
:1059600077039093780320917B0330917C038C0123
:105970002817390708F48901869905C020E43DE01D
:1059800043E050E004C028EA31E640E050E0A8EEF1
:10599000B3E00E94EC3D6B017C010E940D089C016C
:1059A00040E050E0C701B6010E94273EC801A0E0D8
:1059B000B0E0281739074A075B0708F489010E94FD
:1059C000282B8017910708F4C801C817D90711F1CF
:1059D000209120032230A9F48C179D0790F020918C
:1059E0007D0330917E032C173D07A0F04091750395
:1059F00050917603209137023091380242175307B5
:105A000049F0209137023091380230937603209389
:105A1000750301C0CE01DF91CF911F910F91FF90CF
:105A2000EF90DF90CF9008950F931F93CF93DF9364
:105A3000EC010E940D0890936A0380936903D09350
:105A40006C03C0936B0310E00CE080911E031817E9
:105A500070F4812F0E94120D019FF0011124EF5D5F
:105A6000FC4F91838083D383C2831F5FEECFDF918E
:105A7000CF911F910F9108951F93CF93DF93182F0C
:105A8000EB01CB010E94442CCE010E94142D0E94F8
:105A90006A2C90931A0380931903BE010E94A62CCE
:105AA00020912003211110C0112389F080911C0343
:105AB000882321F00E94A80D10925A0281E0809361
:105AC000200380E090E003C022E020932003DF91D8
:105AD000CF911F91089540E0FC01259134910296E9
