:100000000C94E8040C9410050C9410050C94100545
:100010000C94983B0C9410050C9410050C9410054E
:100020000C9410050C94D43B0C946E070C941005A2
:100030000C9410050C94763C0C94AB3C0C9410057D
:100040000C9492070C9410050C9410050C94100558
:100050000C94100586176D176F1771177817841792
:100060007E178017C224AA24AC24AE24B024B22464
:10007000B424B824BA24BD24BF24D024C424C62464
:10008000C824CC24CE24CA24D224512A7C2A572A1C
:100090005A2A5E2A642A672A6C2A702A742A762AC7
:1000A000512A5A2A5E2A782A2D37303735373A377F
:1000B0003D374037433746374C374F37543757373C
:1000C0005C376337663769376E3771379E37A037CD
:1000D000A537AA37AE37B237B637BA37C037C237C7
:1000E000C637CC37D137D537D737D937DF37E337AE
:1000F000C038C238C438C838C838C638CC38CA380E
:10010000000000000067582F00000000F567E6308F
:10011000010032000200E8030100320002002C015D
:1001200000000000000000000000000000000000CF
:10013000000000002ECA7E3BC24CA40B0C49701775
:100140000000000043BFA80E0000000080D566102C
:100150000000000080D0841F0000000031D5611035
:1001600000000000C0D665100000000080D46510BB
:100170000000000080D46510010032000200E80396
:100180000100320002002C010006080001FF0101FD
:1001900000000106090001FF0302010002060A0037
:1001A00001FF0000000006060E0000FF0302010030
:1001B00005060D0000FF0203000004060C0000FF0E
:1001C0000302010003060B0000FF040600000706FF
:1001D000070000FF03020100560EA00EA70F4368A0
:1001E00065616C692D43686172676572206D007688
:1001F000302E33336D5F32303134313033300003E1
:100200000200006F7074696F6E73000100010001DD
:1002100000010001000A0064000100030008000959
:10022000000A000B000C0001000200040006000898
:10023000000A000C006D5600206E6F007965730097
:10024000496E66006D696E2E00756E6C696D69741D
:1002500000756E6C696D69746564009C029702920A
:10026000028D02880283027E02790274026F024EBE
:10027000695A6E004C343335004C343330004C69CD
:10028000706F004C696C6F004C69666500506220AD
:1002900020004E694D48004E69436400556E6B6EF8
:1002A0000000980898086C0710275802019808F475
:1002B000016C070100E001029808F4016C070100DD
:1002C000E001039808DC006C070600E001049808D0
:1002D00098086C070300780005980898086C0703D5
:1002E00000780006980898086C07030078000798C3
:1002F0000898086C070300780008980898086C07AD
:100300000300780009980898086C0703007800013A
:100310000001000100010000000100B0041C0752B0
:1003200003000008075203B0044006E80300000879
:1003300007E803D0079209D606000000006C07E426
:100340000C100ED007E40C0000B80B100E0410C403
:1003500009A60E0000AC0D740E6810B80B0A0F0051
:1003600000890C740ECC10B80B0A0F0000890C74B5
:100370000EFE10B80B0A0F0000890C40066C071423
:10038000054006000078054E616D653A00456469D8
:1003900074206E616D653A00E803E303DE03D90360
:1003A000D403CD03C103B703AC03000052657365EA
:1003B00074206E616D650045646974206E616D65C1
:1003C00000437265617465206E616D6500546C69EF
:1003D0006D3A200049643A200049633A200043689E
:1003E0003A2000563A2020004261743A202000430F
:1003F000616C2E6572722E2020463A002500202D59
:100400002D3A2D2D00202000200020002520005214
:1004100045564552534520504F4C4152495459007E
:10042000706C656173652063616C2E004E2F410016
:1004300064656C746120543D20004E2F410054656A
:1004400078743D0064656C746120563D20006D61D8
:1004500078566F75743D006E6F2064542F7400459C
:1004600072726F723A0054696D653A200070726F53
:100470006772616D20636F6D706C657465002D002F
:10048000546578743D005662616C2E3D00566F7560
:1004900074203D00206C696D69743D0056696E7072
:1004A00075743D00776972657320523D0062617416
:1004B000742E20523D0020200062200074696D657A
:1004C0003A2020202020004C696D6974733A200086
:1004D0006D4168003C20006D4120006D41200020EE
:1004E000202D2D20200043684342426C446946433E
:1004F0005374534243684469435963794368446978
:100500004650435045420064542F6474002D645695
:100510000056206C696D6974000525F92409259B36
:10052000259625AC25FD25F8252426872655265B0E
:1005300026C3265727CF26632760277427000B0C76
:100540000D0E0FED05CC05C0059E059105000007B9
:10055000080A0FED05CC059E05910500000001027B
:100560000304090FED05DE05D605CC05C0059E0583
:100570009105000000010203040506090FED05DEE8
:1005800005D605CC05C005B805A9059E0591050051
:100590000065646974206261747465727900443E18
:1005A0004320666F726D61740073746F726167656A
:1005B0002B62616C616E630073746F7261676500BA
:1005C0006661737420636861726765006469736350
:1005D00068617267650062616C616E636500636883
:1005E000617267652B62616C616E6365006368614F
:1005F000726765000106070F050002120607090A67
:100600000D0E0F04050002120607090A0D0E0F0455
:10061000051303000607040F050002120607090A66
:100620000D0E0F04051303000212110D0E0F040529
:1006300013030002120C10110D0E0F04051303001A
:100640004558542054206C696D69740054696D6577
:10065000206C696D697400434150206C696D697448
:1006600000494E5055542056004857204641494CA9
:10067000555245004F5645524C4F414420657272C9
:100680000042414C20627265616B0042415420641B
:100690006973630020436F6E6E65637420426174FA
:1006A0007465727900436F6E6E6563742042617485
:1006B00074657279210008090A0001E706DF06D790
:1006C00006CF06C7060000566D696E75733A005670
:1006D000706C75733A200056623270696E3A00563B
:1006E000623170696E3A0056623070696E3A00FC91
:1006F00006F506000076616C75653A0074656D70EC
:100700003A2000120709070000706F696E742032EA
:100710002E00706F696E7420312E002907210700AA
:1007200000444154413A20200076616C75653A20BE
:100730000032002C013200E8034B07450700005748
:1007400007500700003330306D410035306D4100F7
:10075000313030306D410035306D410006090A0BF3
:100760000C0D0E061F20212223241312B007AA0706
:10077000A4079E07980792078C078607800700004A
:10078000566F75743A0056312D363A005662363A35
:1007900020005662353A20005662343A20005662F4
:1007A000333A20005662323A20005662313A200035
:1007B00056696E3A20000008F707EB07DF07D307FA
:1007C000C40700006578706572742044414E474547
:1007D00052210063616C69622D3E55415254007490
:1007E000656D702065787465726E00492064697368
:1007F00063686172676500492063686172676500BC
:10080000766F6C746167650028081E081008000088
:1008100072657365742064656661756C74006361EC
:100820006C6962726174650073657474696E677374
:100830000080250000004B00000096000000E10051
:100840000000C20100460088137017000070176492
:1008500000010005000F0005001E0001000A0078DD
:1008600000581B000001000100080000000000000B
:100870000000000000432F6D00A2089B0895088C23
:100880000883086578742E20416463006578742EAF
:1008900020646562006465627567006E6F726D61E9
:1008A0006C0064697361626C6564008E0983097C05
:1008B00009700966095C095009440938092B0921A6
:1008C0000916090D090109F508EB08E408DC08D34D
:1008D00008000020202072657365740073706565E0
:1008E000643A2000554152543A200062616C2E2037
:1008F0006572723A00666F7263652062616C3A20BD
:10090000006469732061677265733A2000646973DB
:100910006368202B3A00696E707574206C6F773AAB
:100920000063617020434F66663A006D696E2E4920
:100930002049203D20492F00626565703A20202023
:1009400020202000776173746520542E3A20200007
:10095000442F43206379636C65733A004E694364A6
:10096000202D64563A004E694D48202D64563A00B9
:10097000656E6162202D64563A20200064542F6415
:10098000743A00657874726E2054434F3A0065786B
:1009900074726E20543A20202000141719181A0778
:1009A00005061F20212223247265736574696E6712
:1009B00020656570726F6D3A00763A20382E3531B9
:1009C0002E3536200000A605E911D524C52AE23DC2
:1009D00011241FBECFE5D8E0DEBFCDBF10E0A0E6FA
:1009E000B0E0E4E4FFE702C005900D92AC3EB10731
:1009F000D9F714E0ACEEB0E001C01D92AD3EB107F6
:100A0000E1F719E0C0EDD9E004C02297FE010E9491
:100A1000273FC63CD107C9F70E94E4110C94A03FC0
:100A20000C94000086B380958170B19B02C090E069
:100A300001C092E0892BB29B02C090E001C094E01B
:100A4000892BB39B02C090E001C098E0892B0895E8
:100A5000882339F0A69AA79AD59A889A8A9A8F9A63
:100A60000895A698A798D59888988A988F980895F9
:100A70008091F300882331F08091EC008F5F8093A8
:100A8000EC0002C01092EC008091F3008A3010F468
:100A900080E001C088E09091F300943108F084E098
:100AA0009091F3009E3108F082E09091EC00982341
:100AB00011F0C49A0895C498089520919C03309130
:100AC0009D03232B11F08093F3000895811102C040
:100AD000939A08959398089587B18F7387B98B9AE5
:100AE0008D9AD79ABC9A8C9A8D9A8E9A80E00E94A1
:100AF000660580E00E945D0520E042E060E18DEE49
:100B000090E00E9472180E94573C0C94DB0680FF14
:100B100002C0AE9A01C0AE9881FF02C0AF9A01C078
:100B2000AF9882FF02C0DD9A01C0DD9883FF02C04A
:100B3000909A01C0909884FF02C0929A01C0929846
:100B400085FF02C0979A0895979808958DEE90E0DA
:100B50000C94C3182FB7F8948091F5009091F6008B
:100B6000A091F700B091F8002FBF892F9A2FAB2FDB
:100B7000BB27A7FDBA9508952FB7F8941092FC00F3
:100B80001092FB008617970768F480E090E4A0E0DD
:100B9000B0E08093F5009093F600A093F700B09337
:100BA000F80008C01092F5001092F6001092F700BD
:100BB0001092F8008091F5009091F600A091F70056
:100BC000B091F800BA2FA92F982F88278093F500AD
:100BD0009093F600A093F700B093F80081E0809323
:100BE000F4002FBF0895CF93DF93EC01C13080E66E
:100BF000D80758F4C13080E4D80748F48EE00E944A
:100C00006B3C9598BE018DE009C0C0E0D0E68DE058
:100C10000E946B3C949ABE0170548EE0DF91CF919C
:100C20000C94413CCF93DF93EC016CED79E680E0CE
:100C30000E941B0A2FB7F894D093FC00C093FB00CE
:100C40009093FA008093F9002FBFDF91CF91089520
:100C5000882329F080E00E943106DF980895DF9A0A
:100C60000895CF93DF93C82F882319F080E00E9466
:100C70002806DFB7F8948DE00E946B3C94988EE0D4
:100C80000E946B3C95981092F400DFBFC11104C024
:100C9000969ADF91CF910895969880E00E943A0845
:100CA000EC0186E00E943A08BE01DF91CF910C94DE
:100CB000BC050F931F938091F400882309F474C03E
:100CC00080E00E9443082091F9003091FA00281733
:100CD000390730F480E00E9431061092F40064C0BD
:100CE00082E00E9443084091FB005091FC0060E0CC
:100CF00070E00091F5001091F6002091F70030911E
:100D0000F800481B590B61097109E2E0440F551FB7
:100D1000661F771FEA95D1F7040F151F261F371F8F
:100D20000093F5001093F6002093F7003093F8003D
:100D30008091F5009091F600A091F700B091F80035
:100D4000B7FF08C01092F5001092F6001092F7005D
:100D50001092F8008091F5009091F600A091F700B4
:100D6000B091F8000197A046B10560F080E090E0F6
:100D7000A0E6B0E08093F5009093F600A093F70012
:100D8000B093F8008091F5009091F600A091F700E3
:100D9000B091F800892F9A2FAB2FBB27A7FDBA95EA
:100DA0001F910F910C94F3051F910F910895BC01B1
:100DB0008EE00C94413CDE98D698BD9ABE9ABF9ABC
:100DC00080B7806680BF8FEA86B91092FD000C94D0
:100DD000C83BCF9387FD15C0C8B320E28202C00193
:100DE0001124CF71C82B88B38F71806C88BBD69AC1
:100DF0008AE090E00E948C3E8FB7F894C8BBD698EA
:100E00008FBFCF91089594B135B12FB7F89445E0D5
:100E1000849FF0011124E657FE4FE491F0E0EE0FBD
:100E2000FF1FEC52FE4F892F90E0932B918380831C
:100E30002FBF08951092FD0008950E94B927909346
:100E4000F3018093F2010E941F289093F501809393
:100E5000F4010C94080BE091FD00EF5FE03108F025
:100E6000E0E085E0E89FF0011124E857FE4F84910F
:100E70002091AC033091AD03232B19F0873009F496
:100E800086E00C94E906CF93C091FD008C2F0E9460
:100E90000307E1E0EC0FE03108F0E0E0E093FD0053
:100EA00085E0E89FF0011124E757FE4FE491E062EE
:100EB000E7B9E091FD0085E0E89FF0011124E557D6
:100EC000FE4FE491E1110E9459068091FD008111CD
:100ED00003C0CF910C941D07CF9108951F920F92DC
:100EE0000FB60F9211242F933F934F935F936F93FD
:100EF0007F938F939F93AF93BF93EF93FF930E9442
:100F00002B07FF91EF91BF91AF919F918F917F91AF
:100F10006F915F914F913F912F910F900FBE0F9066
:100F20001F9018951F920F920FB60F9211242F93B6
:100F30003F934F935F936F937F938F939F93AF9361
:100F4000BF93EF93FF930E944307FF91EF91BF91EF
:100F5000AF919F918F917F916F915F914F913F9151
:100F60002F910F900FBE0F901F9018952FB7F894E8
:100F70006091FE007091FF0080910001909101014D
:100F80002FBF08950E94482F0E94773A0E94802820
:100F90000E94D0380C94B80D8091FE009091FF0013
:100FA000A0910001B09101010196A11DB11D809396
:100FB000FE009093FF00A0930001B0930101809187
:100FC0006600815019F080936600089581EE809349
:100FD00066000E94EB0A0C94F4230E94B6079695D3
:100FE0008795779567950895CF92DF92EF92FF925C
:100FF000CF93DF93EC010E94ED076B017C01CC0ED7
:10100000DD1EE11CF11C0E94ED076C157D058E05AF
:101010009F05C8F3DF91CF91FF90EF90DF90CF90C5
:101020000895CF92DF92EF92FF92CF93DF93EC017E
:101030000E94ED076B017C01CC0EDD1EE11CF11C52
:101040000E94ED076C157D058E059F0518F40E9422
:10105000C207F6CFDF91CF91FF90EF90DF90CF9056
:101060000895E82FF0E0EE0FFF1FEE54FE4F808151
:1010700091810895E82FF0E0EE0FFF1FE859FE4F31
:101080008081918108952FB7F894E82FF0E0EE0F5A
:10109000FF1FEC52FE4F808191812FBF08958091F8
:1010A0003C02089580911C0190911D01089580914A
:1010B0000A0190910B01089580910C0190910D010E
:1010C0000895E82FF0E0EE0FFF1FE25EFE4F8081F3
:1010D00091810895262F613110F4423040F021E0D3
:1010E00030E0FC013383228331832083089550E074
:1010F000BA01620F711D620F711D660F771F660FB7
:10110000771F665F7F4F44E050E00C945B3F282FD1
:10111000CA01213188F4623078F470E0620F711DE9
:10112000620F711D660F771F660F771F665F7F4F17
:1011300044E050E00C94793F0895FF920F931F9381
:10114000CF93DF9300D000D0CDB7DEB700E011E041
:10115000F12CF801459155916591749149835A8319
:101160006B837C83AE014F5F5F4F60E08F2D0E94E9
:101170008708F8013496459155916591749149839A
:101180005A836B837C83AE014F5F5F4F61E08F2D8D
:101190000E948708F394085F1F4F81E1F812D9CFAE
:1011A0000F900F900F900F90DF91CF911F910F91A3
:1011B000FF90089580919001909191010895809100
:1011C0009601909197010895809146019091470171
:1011D000039750F080914C0190914D01039720F0BE
:1011E00083E090E00C94DA0E80E008958FB7F894D5
:1011F000E6EFF1E0119211921192119292E0EA332E
:10120000F907C1F710923B0210923A028FBF08957E
:10121000CF93CFB7F89410921B0110921A0110923D
:1012200016011092170110921801109219011092D4
:1012300012011092130110921401109215011092D4
:101240000E0110920F0110921001109211010E94D4
:10125000ED07609306017093070180930801909356
:101260000901CFBFCF910895CF93DF930E94F60875
:101270000E940809C0911C01D0911D0180911C01A0
:1012800090911D01C817D90729F48AE090E00E94C7
:101290001108F4CFDF91CF9108950E9408091092B0
:1012A0000D0110920C0110920B0110920A01089589
:1012B000EEE1F1E01192119281E0E836F807D1F702
:1012C00008950E94F6080E9408090C9458098FB7E7
:1012D000F8941092020110920301109204011092EE
:1012E00005018FBF10921D0110921C010E941A0768
:1012F0000E9461090E944D09E8E6F1E01192119205
:1013000081E0E23BF807D1F70895CF93C82F809191
:101310003C0281110CC081E00E946605C1110E944F
:10132000670981E080933C02CF910C943409CF91FE
:10133000089510923C0280E00C946605CF93DF93F1
:1013400081E00E944308EC0180E00E9443088C1772
:101350009D0718F4C81BD90B02C0C0E0D0E081E0A3
:10136000C93ED34008F480E0DF91CF9108958F9279
:101370009F92AF92BF92CF92DF92EF92FF92CF9364
:10138000DF93CDB7DEB728970FB6F894DEBF0FBE58
:10139000CDBFF82E5B0161157105D1F140E0682FDA
:1013A000CE0105960E946A0841E06F2DCE0101969C
:1013B0000E946A082B813C8140E050E0CF80D884B5
:1013C000E12CF12C2C193D094E095F09B50180E093
:1013D00090E08D809E80A12CB12C681979098A0932
:1013E0009B090E94B43E29813A8140E050E02819CF
:1013F00039094A095B090E94063F2C0D3D1D4E1D0F
:101400005F1D57FF03C020E030E0A901C90102C001
:1014100080E090E028960FB6F894DEBF0FBECDBFF7
:10142000DF91CF91FF90EF90DF90CF90BF90AF9082
:101430009F908F9008958F929F92AF92BF92CF927C
:10144000DF92EF92FF92CF93DF93CDB7DEB728976D
:101450000FB6F894DEBF0FBECDBFF82E5B0161154D
:101460007105D1F140E0682FCE0105960E946A080F
:1014700041E06F2DCE0101960E946A0829813A81D0
:1014800040E050E0CD80DE80E12CF12C2C193D09AC
:101490004E095F09B50180E090E08F809884A12C0F
:1014A000B12C681979098A099B090E94B43E2B81E5
:1014B0003C8140E050E0281939094A095B090E9443
:1014C000063F2C0D3D1D4E1D5F1D57FF03C020E044
:1014D00030E0A901C90102C080E090E028960FB673
:1014E000F894DEBF0FBECDBFDF91CF91FF90EF909C
:1014F000DF90CF90BF90AF909F908F9008950C9405
:1015000067098250893130F4E82FF0E0E758FF4F47
:101510008081089581E00895CF93DF93E82FF0E074
:10152000EE0FFF1FE859FE4FC081D1810E94810A52
:10153000882319F0813029F00AC081E0E39740F454
:1015400004C081E0C935D24018F480E001C081E0D8
:10155000DF91CF910895CF93C0E08FE18C0F0E946F
:101560008C0A882329F0CF5FC630B9F786E001C026
:101570008C2FCF9108951F93CF93DF931F92CDB7F8
:10158000DEB7182F69830E94810AE12FF0E0EE0F89
:10159000FF1FE859FE4F4981682F808191810F908C
:1015A000DF91CF911F910C945B172FB7F894609146
:1015B00002017091030180910401909105012FBFF8
:1015C0002DE730E040E050E00E94E43EBB27A52F2D
:1015D000942F832F089580913C028823C1F020919D
:1015E0009601309197018091020190910301A091A1
:1015F0000401B0910501820F931FA11DB11D8093BD
:10160000020190930301A0930401B0930501089592
:10161000CF93DF9380913C02882309F474C020911A
:101620003A0230913B0224363105E0F4E4EDF1E07A
:10163000C6EFD1E04191519188819981AA81BB8106
:10164000840F951FA11DB11D89939993A993B993F7
:1016500081E0E63FF80771F72F5F3F4F30933B0281
:1016600020933A022091D4013091D5018091160146
:1016700090911701A0911801B0911901820F931F49
:10168000A11DB11D8093160190931701A09318011D
:10169000B09319012091D6013091D70180911201A8
:1016A00090911301A0911401B0911501820F931F25
:1016B000A11DB11D8093120190931301A0931401F9
:1016C000B09315012091E2013091E30180910E0168
:1016D00090910F01A0911001B0911101820F931F01
:1016E000A11DB11D80930E0190930F01A0931001D5
:1016F000B093110180911A0190911B010196909372
:101700001B0180931A01DF91CF91089590E0880F1B
:10171000991FFC01E859FE4F208131816217730740
:1017200018F4261B370B04C0AB01421B530B9A0164
:10173000FC01E25EFE4F2730310518F01182108265
:1017400006C0208131812F5F3F4F31832083FC0110
:10175000E859FE4F718360830895AF92BF92CF9294
:10176000DF92EF92FF920F931F93CF93DF931F921D
:10177000CDB7DEB7A0906801B090690180916A0191
:1017800090916B018A159B0518F4A81AB90A02C03A
:10179000A12CB12CB50182E10E94860B2091780129
:1017A0003091790180917A0190917B0100917C01C7
:1017B00010917D012817390720F4BC01621B730BBF
:1017C00002C060E070E08017910718F4081B190B45
:1017D00002C000E010E08FE10E94860BB80180E2B9
:1017E0000E94860B0EE711E091E2F8016191719180
:1017F0008F01892F99830E94860B99819F5F953273
:10180000A1F70E94AB0AF82E80E000E010E08F15EF
:1018100069F0EFE1E80FF0E0EE0FFF1FE859FE4F2F
:1018200020813181020F131F8F5FF1CFB80183E157
:101830000E94860B0115110581F00A151B0520F485
:101840009501201B310B03C098012A193B09293E41
:10185000334018F4580113E102C012E1F12CB50134
:1018600084E10E94860B6F2D70E086E10E94860B5A
:10187000612F70E085E10E94860B0E94D50A8C01E1
:101880000E941028882329F0E0906E01F0906F01EB
:101890000BC00E94AA27882329F0E0906C01F090E9
:1018A0006D0102C0E12CF12CB70187E10E94860B8B
:1018B000B80189E10E94860B9701D5010E94933EF1
:1018C00030E1C32E37E2D32EE12CF12CA701960193
:1018D0000E94E43EB90188E10E94860B9801D5017F
:1018E0000E94933EA70196010E94E43EB9018AE15D
:1018F0000F90DF91CF911F910F91FF90EF90DF90AC
:10190000CF90BF90AF900C94860BBF92CF92DF9296
:10191000EF92FF920F931F93CF93DF932FB7F8941B
:1019200080913A0290913B022FBF84369105C1F518
:1019300080911C0190911D01019690931D0180934F
:101940001C0106EF11E0C2EBD1E0B12C54E6C52E2C
:10195000D12CE12CF12CF80161917191819191913F
:101960008F01A70196010E94E43E29933993B901A2
:101970008B2D0E94B709BC018B2D0E94860BB3945E
:10198000F1E1BF12E8CF0E94AD0BDF91CF911F9123
:101990000F91FF90EF90DF90CF90BF900C94F608DE
:1019A000DF91CF911F910F91FF90EF90DF90CF903B
:1019B000BF9008954F925F926F927F928F929F9205
:1019C000AF92BF92CF92DF92EF92FF920F931F934D
:1019D000CF93DF93CDB7DEB728970FB6F894DEBF6D
:1019E0000FBECDBF0E94ED07C0900601D090070149
:1019F000E0900801F09009016C197D098E099F099A
:101A0000613375478105910508F49BC02FB7F894A1
:101A100000911A0110911B0140901601509017017E
:101A2000609018017090190160911201709113017A
:101A3000809114019091150180900E0190900F01FA
:101A4000A0901001B09011012FBF6D837E838F8312
:101A500098870E94080920910C0130910D012F5F99
:101A60003F4F30930D0120930C016801E12CF12CC4
:101A70006D817E818F819885A70196010E94E43E49
:101A800029833A834B835C83C301B201A70196018A
:101A90000E94E43EB90180E00E94B7093C016981DF
:101AA0007A8181E00E94B7098615970518F4681AB3
:101AB000790A02C0612C712C4090A0015090A101C4
:101AC0006414750420F0B3018CE10E94860BB3010D
:101AD000641975098BE10E94860BC501B401A70149
:101AE00096010E94E43EB90187E00E94B709209167
:101AF0000A0130910B0190930B0180930A01BC0104
:101B0000621B730B660F771F8DE10E94860BB80175
:101B10008EE128960FB6F894DEBF0FBECDBFDF91E1
:101B2000CF911F910F91FF90EF90DF90CF90BF90DA
:101B3000AF909F908F907F906F905F904F900C949C
:101B4000860B28960FB6F894DEBF0FBECDBFDF918F
:101B5000CF911F910F91FF90EF90DF90CF90BF90AA
:101B6000AF909F908F907F906F905F904F9008956F
:101B70000E94850C0C94DA0C109202011092030161
:101B800010920401109205010C9461098091630286
:101B9000089580916102811113C00E944F0888232B
:101BA00081F00E94520820913D0230913E02821B3A
:101BB000930B9C0181E02530310518F080E00895F9
:101BC00081E00895815E0C943A080F931F93CF93A0
:101BD000DF9310E0CFEFDFEF00E080916302181792
:101BE00060F4812F0E94E20D8C179D0710F0CE014A
:101BF00001C0012F1F5FEC01F0CF802FDF91CF914B
:101C00001F910F910895CF93DF93909161029111ED
:101C100004C0DF91CF910C94E20D90914702C82F40
:101C2000D0E0992391F00E94E20DCC0FDD1FFE0160
:101C3000E85BFD4FCC5ADD4F2081318148815981CD
:101C4000241B350B280F391F07C0FE01EE0FFF1FA5
:101C5000E85BFD4F20813181C901DF91CF9108956B
:101C6000CF93C82F80916102882341F0C11106C033
:101C70000E94520890933E0280933D02C0936102FD
:101C80000E94ED0760933F027093400280934102EF
:101C9000909342020E94580980916002811104C011
:101CA0008C2FCF910C948705CF910895EF92FF92DE
:101CB0000F931F93CF93DF9381E00E94280586E165
:101CC0000E943A088093630204E512E038E4E32EB0
:101CD00032E0F32EC0E0D0E08091630290E0C817BC
:101CE000D9076CF48C2F0E94E20DF8018193919337
:101CF0008F01F701819391937F012196EDCF10928F
:101D000061021092600280E00E94300E10923E024A
:101D100010923D0210923F02109240021092410236
:101D200010924202DF91CF911F910F91FF90EF909F
:101D3000089580E00E94300E81E080936002089553
:101D40000E94990E80E00C942805FF920F931F9338
:101D5000CF93DF93809162020E94030EEC01F12C7D
:101D600001E010E080916302F816E8F48F2D0E94E4
:101D7000030EAC0180916102802321F0C417D507C6
:101D800078F40DC02091AA033091AB032F5F3F4F31
:101D9000369527952C0F3D1F2417350708F4102B77
:101DA000000FF394DFCF812FDF91CF911F910F911F
:101DB000FF9008951F93CF93DF93EC0110E0809183
:101DC0006302181748F48FE1810F0E9461088C1795
:101DD0009D0720F01F5FF3CF81E001C080E0DF911D
:101DE000CF911F910895BF92CF92DF92EF92FF9211
:101DF0000F931F93CF93DF938AE090E00E94DA0E57
:101E0000882309F460C00E94E50D809362020E945D
:101E1000E20D8C0162E083E792E00E94C31A08178A
:101E2000190748F178E4E72E72E0F72EE4E5CE2EAC
:101E3000E2E0DE2EC0E0D0E0BB24B39480916302E8
:101E400090E0C817D907CCF48C2F0E94E20DF7015F
:101E5000819391937F01F601819391936F01801B90
:101E6000910B2091AA033091AB032817390708F48E
:101E7000B12C2196E3CFBB24B394109247020E9469
:101E8000ED07609343027093440280934502909360
:101E90004602BB2059F0DF91CF911F910F91FF9027
:101EA000EF90DF90CF90BF900C94990E0E94A50EFA
:101EB000DF91CF911F910F91FF90EF90DF90CF9026
:101EC000BF900C94300EDF91CF911F910F91FF9036
:101ED000EF90DF90CF90BF900895CF93809147020D
:101EE000811119C081E080934702809162020E94B3
:101EF000E20DC0E080916302C81768F48C2F0E9445
:101F0000E20DEC2FF0E0EE0FFF1FEC5AFD4F918336
:101F10008083CF5FEFCFCF9108950F931F930E94DF
:101F2000ED07009143021091440220914502309147
:101F30004602601B710B820B930B28EE33E040E0EE
:101F400050E00E94E43EC9011F910F91089583E083
:101F500090E00E94DA0E8823C9F08091610281111D
:101F600003C00E94F30E12C00E946D0F0E94A50EC6
:101F700090E0809590952091610230E08223932338
:101F8000892B81F40E948D0F4F9760F40E94C90D38
:101F9000882311F082E00895809160028823D1F3B4
:101FA00081E0089580E00E94300EF0CF1F93CF9320
:101FB000DF93EC0110E080916302181780F4812F09
:101FC0000E94E20D8C179D0710F081E009C0812F5F
:101FD0000E94030E8C179D07C0F71F5FECCF80E0B7
:101FE000DF91CF911F9108951F93CF93DF93EC0161
:101FF00010E080916302181780F4812F0E94E20D97
:10200000C817D90710F081E009C0812F0E94030E84
:10201000C817D907C0F71F5FECCF80E0DF91CF91E1
:102020001F91089560916302662329F070E00E9479
:10203000D03ECB01089580E090E008950E94811386
:1020400080E00E94660585E00E940B380E94990995
:102050000E9450210E941D2F882349F080E00E9499
:10206000850988E00E940B3881E00C9466050E9487
:1020700013200E941D2F882359F3F0CF0E94811353
:102080000E945E2186E00E940B380E94142F88E097
:102090000C940B38E0916402F09165028591949163
:1020A00010926602FC010994E0916402F0916502CD
:1020B000329685919491FC010994E0916402F0912B
:1020C0006502349685919491FC010994CF93DF9336
:1020D0001F92CDB7DEB7811109C00E9468200E940F
:1020E00054100E9499090E943E100FC0813059F48B
:1020F00069830E9468200E9454106981611105C0A3
:102100000E941E1002C081E001C080E00F90DF91AC
:10211000CF9108957F928F929F92AF92BF92CF926C
:10212000DF92EF92FF920F931F93CF93DF93EC0117
:10213000A62E0E944A100E944A200E944A2F0E9406
:102140008113D12C82E0C82EE12CF12CBB24B39456
:1021500092E0992E8824839423E0722E0E94EA371D
:10216000811106C0FE01ED0DF11D84910E949B249A
:102170000E940F13182F883051F40E94E012811131
:10218000A8C080916602823008F0A3C0A5C08091EB
:102190006602813021F4111102C090926602809192
:1021A0006602823008F461C0FE01ED0DF11DE4917C
:1021B000E23051F018F4E130E9F154C0E330A9F114
:1021C000E33109F445C04EC0CF9915C0123019F45F
:1021D0006FEF7FEF04C0143071F461E070E083E7CB
:1021E00092E00E94171C609178027091790281E060
:1021F00090E00E94DF2586994AC0123019F46FEFF3
:102200007FEF05C0143009F042C061E070E083E761
:1022100092E00E94FE1B609176027091770241E08D
:1022200081E090E00E94042632C0869B58C0CF9B7C
:1022300056C02DC0123019F46FEF7FEF04C0143078
:1022400031F561E070E083E792E00E94401C1FC01E
:10225000123019F4709266021AC01430C1F410934F
:10226000660215C01092660212C0143049F4ED2DBA
:10227000F0E03196EC0FFD1FE491E11148C007C07A
:10228000123029F4DD2019F00E945B22DA94BB2081
:1022900081F00E94652FC82E6A2D0E946610B82E0C
:1022A000882339F00E945208E816F906D1F5B110DA
:1022B00003C0A11041C0B12C113009F04FCF0E94D2
:1022C000E012882309F44ACF0E9468200E9454102B
:1022D00033C01092660263CF8092660260CF1230E4
:1022E00041F40AE020E030E048EE5DEF6FEF7FEF71
:1022F00009C0143061F60AE020E030E048EE5DEFFE
:1023000061E070E08EE793E00E94A72EC0CF81E0ED
:10231000C81203C081E00E9466050E945B22D3942C
:10232000B6CF0E9452087C010E945D10C82E6A2D13
:102330000E946610B82EBBCF8C2DDF91CF911F91DC
:102340000F91FF90EF90DF90CF90BF90AF909F9054
:102350008F907F90089560E087E692E00E94F119E7
:1023600087FD0AC0811102C00C942E35992787FD84
:10237000909501970C94872A089578940E946C0593
:102380000E94BC3B0E9405280E9479280E947F0A77
:102390000E941E3E0E946F356FEE71E08EED91E05F
:1023A0000E94332188EE93E00E94F40780E00E94AF
:1023B000463B0E94E1168091B0039091B1030797CC
:1023C00010F40C94AC2108950E94BD110E94AB1131
:1023D000FDCF6FEF71E087E692E00E94031986E976
:1023E00090E09093680280936702EBE6F2E08081D0
:1023F000805E80830895FC0124812052621710F4CE
:102400000C94F618862F90E0821B91090E948A1B7B
:102410006EE00C94C414CF93DF93EC010E94791307
:102420008B819C810E94C1140E947D136A818881E6
:102430009981DF91CF910C945914FC0187818F31E0
:1024400018F48F5F8783089586818F5F8683089550
:10245000FC018781882319F0815087830895868144
:102460008150868308950F931F93CF93DF93FC01D0
:10247000C681D0E06D2F80E00E94731310E11C0F25
:1024800001E00C0F8C2F0E941215011711F0C02FC4
:10249000F7CFDF5FD23011F0C12FECCFDF91CF91BA
:1024A0001F910F9108951F93CF93DF93EC018DEE51
:1024B00090E00E9436181FEF8E81181721F0CE0190
:1024C0000E9433121E818F81682F70E094E0759511
:1024D00067959A95E1F78F700E9473130E940F130E
:1024E000823049F0843019F0813049F413C0CE01B4
:1024F0000E941D12E1CFCE010E942812DDCF88304C
:10250000D9F68D81E881F981E80FF11D8F819E81D7
:10251000890F8083DF91CF911F910895FC01718312
:102520006083428334832383158280E2868317820B
:102530000895CF93DF93EC018DEE90E00E94361862
:102540000E948113CE010E940B1261E08D810E94D6
:1025500073130E940F138230B1F0843041F0813048
:10256000C1F48DEE90E00E942F1880E026C04D81CE
:10257000242F30E08A8190E00197281739072CF743
:102580004F5F4D83E2CF8D818823F9F281508D8397
:10259000DCCF8830D1F682E00E946213823048F0AE
:1025A00083E00E940B388DEE90E00E942F1881E0AE
:1025B00004C0CE010E945312C3CFDF91CF91089582
:1025C0008091710208950C941205E0917102F0E07F
:1025D000EE0FFF1FE55FFD4F859194910895CF9316
:1025E000DF93D82F0E941205C82F8D1741F082E388
:1025F00090E00E9411080E941205DC2FF5CF109286
:1026000071021092700280937202882319F080E0A8
:102610000E94183880917202DF91CF910895FF9245
:102620000F931F93CF93DF93C0E0D0E0F12C0AEF1C
:1026300010E040917102242F30E0F901EE0FFF1FEE
:10264000E95DFD4F65917491C8010E94D03E6F5FB6
:102650007F4FF901EE0FFF1FC617D707A8F40E949E
:102660001205F82E81E090E00E941108809172021C
:10267000F81641F08F2DDF91CF911F910F91FF90B0
:102680000C94EF122196D5CFFF20A1F0209170027B
:102690002F5F20937002E75EFD4F8591949130E0AB
:1026A0002817390738F0463018F44F5F409371020D
:1026B0001092700280917202DF91CF911F910F9161
:1026C000FF900895CF93DF93D82FC09172020E949C
:1026D0000F13909171029D1711F08C17C1F3892F80
:1026E000DF91CF910895462F682F8DEE90E00C94E6
:1026F000FA1760E080E00C94731361E080E00C94C2
:1027000073138DEE90E00C94F317CF93DF93FC01DD
:10271000DB018C91882389F0C081D181488380813D
:1027200091810196918380838C9181508C93882331
:1027300021F00190F081E02D1082DF91CF9108957A
:10274000BF92CF92DF92EF92FF920F931F93CF939E
:10275000DF93EC018B017A014115510501F1CA01AA
:102760000E94343FF8019081B82E981708F4B92ED2
:10277000CB2CD12CA601B701888199810E943D3FC5
:10278000288139812C0D3D1D39832883F8018081F2
:102790008B198083882319F0E881F9811082DF91F9
:1027A000CF911F910F91FF90EF90DF90CF90BF904E
:1027B0000895CF92DF92FF920F931F93CF93DF93F1
:1027C00000D0CDB7DEB76C018B01BA0180E090E09C
:1027D00049835A830E94552EF82ED8018C91498145
:1027E0005A818F1570F44FE3B801C6010F900F9016
:1027F000DF91CF911F910F91FF90DF90CF900C94BC
:102800008513F601208131812F0D311D3183208305
:10281000D8018C918F198C93882321F00190F0813D
:10282000E02D1082F9012AE030E0FF2069F0CA01B2
:10283000B9010E94D03E405DBAE06B9F401911245F
:102840004293FA94AB01F1CF0F900F90DF91CF91AB
:102850001F910F91FF90DF90CF9008950F931F93DA
:10286000CF93DF93CDB7DEB72B970FB6F894DEBFCB
:102870000FBECDBF8E010F5F1F4F1A87098727E05C
:102880002B87AC01BE01655F7F4FCE0109960E9488
:10289000D913B8018DEE90E00E94E6182B960FB682
:1028A000F894DEBF0FBECDBFDF91CF911F910F9186
:1028B00008950F931F93CF93DF93CDB7DEB7619742
:1028C0000FB6F894DEBF0FBECDBF0097D1F06131D7
:1028D00008F060E1062F10E0A801BC01CE010196CE
:1028E0000E944C3FE1E0F0E0EC0FFD1FE00FF11F14
:1028F0001082BE016F5F7F4F8DEE90E00E94E61860
:1029000001C080E061960FB6F894DEBF0FBECDBF68
:10291000DF91CF911F910F9108950F931F93CF9344
:10292000DF93CDB7DEB761970FB6F894DEBF0FBE69
:10293000CDBF0097D1F0613108F060E1062F10E0C3
:10294000A801BC01CE0101960E943D3FE1E0F0E00C
:10295000EC0FFD1FE00FF11F1082BE016F5F7F4F74
:102960008DEE90E00E94E61801C080E061960FB6FF
:10297000F894DEBF0FBECDBFDF91CF911F910F91B5
:10298000089560E10C948D14CF92DF92EF92FF9244
:102990000F931F93CF93DF93CDB7DEB762970FB638
:1029A000F894DEBF0FBECDBF009719F1613108F07A
:1029B00060E16C018E010F5F1F4F78018E2D801B2F
:1029C000861768F4C6016A8B0E946B3FF7018193FA
:1029D0007F01FFEFCF1ADF0A6A898111EFCFF8017B
:1029E000E60FF11D1082B8018DEE90E00E94E6180E
:1029F00001C080E062960FB6F894DEBF0FBECDBF77
:102A0000DF91CF911F910F91FF90EF90DF90CF90CA
:102A10000895882319F08CE392E002C088E392E0E5
:102A20000C94C114682F8DEE90E00C94C518CF93D0
:102A3000DF93D82FC0E0CD1729F080E20E94121555
:102A4000CF5FF9CF8C2FDF91CF91089580E10C9467
:102A50001715CF93DF931F92CDB7DEB7682F643081
:102A60003CF080E269830E94121569816150F7CFC2
:102A700080E492E00F90DF91CF910C948D146AE086
:102A80000E94C43E80E3890F0C941215DF92EF92EE
:102A9000FF920F931F93CF93DF93EC01F62ED42E6A
:102AA00016160CF089C068EE73E00E94D03E8B01D0
:102AB00080E090E00E94552E24E0E22EE80EEF1414
:102AC0002CF480E20E941215FA94F9CFFE14E4F07F
:102AD000D1101AC0BE0180E090E00E94552E182F40
:102AE000FA941F1524F480E20E941215F9CFCE014A
:102AF0000E942E148DE6DF91CF911F910F91FF90D0
:102B0000EF90DF900C9412152E2D332727FD309572
:102B1000245031094F2D552747FD50954217530733
:102B200054F48F2DDF91CF911F910F91FF90EF9073
:102B3000DF900C942915C8010E942E14CE0168EE76
:102B400073E00E94D03EEC011F2D1E1993E0F92E78
:102B5000F10E84E0810F18161CF48EE20E9412150B
:102B600002E0010F1F1444F4CE0164E670E00E94FD
:102B7000D03E862F0E943F15CE0164E670E00E9491
:102B8000D03EEC011F5F10163CF46AE070E00E943A
:102B9000D03E862F0E943F15111674F4CE016AE0D4
:102BA00070E00E94D03EDF91CF911F910F91FF9076
:102BB000EF90DF900C943F15DF91CF911F910F9113
:102BC000FF90EF90DF900895EF92FF920F931F9385
:102BD000CF93DF93EC01F62E16160CF059C064E685
:102BE00070E00E94D03E8B0180E090E00E94552E64
:102BF00033E0E32EE80EEF142CF480E20E9412156D
:102C0000FA94F9CF2E2D332727FD30952350310923
:102C10004F2D552747FD5095421753074CF48F2DE4
:102C2000DF91CF911F910F91FF90EF900C94291598
:102C3000C8010E942E14CE0164E670E00E94D03ECE
:102C4000EC010F2D0E1912E0100F83E0800F181603
:102C50001CF48EE20E941215FF24F394F00E11165C
:102C600044F4CE016AE070E00E94D03E862F0E94BC
:102C70003F151F146CF4CE016AE070E00E94D03E54
:102C8000DF91CF911F910F91FF90EF900C943F1522
:102C9000DF91CF911F910F91FF90EF900895BF9218
:102CA000CF92DF92EF92FF920F931F93CF93DF9318
:102CB0008C01D62EB42EC22E1616ACF52111DA9444
:102CC000B80180E090E00E94552EC82FD0E0ED2C96
:102CD000FF24E7FCF094CE15DF052CF48B2D0E9429
:102CE0001215DA94F4CFCC2019F08DE20E9412155F
:102CF000EC16FD0664F48D2DDF91CF911F910F919D
:102D0000FF90EF90DF90CF90BF900C942915C801F1
:102D1000DF91CF911F910F91FF90EF90DF90CF90B7
:102D2000BF900C942E14DF91CF911F910F91FF90C3
:102D3000EF90DF90CF90BF90089520E00C944F1655
:102D4000CF93DF936CE370E00E94D03E9B01EC01D7
:102D500040E363E0C9010E949D168AE30E941215B8
:102D600040E362E0CE01DF91CF910C949D1640E2EA
:102D70000C949D16292F221F2227221F19F09195AE
:102D80008195910940E20C944F16161634F4615067
:102D90000E94E41583E40C9412150895161634F479
:102DA00061500E94B71685E20C94121508956330A5
:102DB0003CF062500E94B71685E392E00C94C11477
:102DC0000895FF920F931F93CF93DF93CDB7DEB794
:102DD00028970FB6F894DEBF0FBECDBF4EE0F42E9D
:102DE000F9821FE11A8301E10B830C830D830E83AB
:102DF0000F831887AE014F5F5F4F60E08DEE90E06C
:102E00000E943E18F9821A830B830C831D831E8354
:102E10001F831887AE014F5F5F4F61E08DEE90E03A
:102E20000E943E18F9821A831B831C831D831E8314
:102E30001F831887AE014F5F5F4F62E08DEE90E019
:102E40000E943E1828960FB6F894DEBF0FBECDBF85
:102E5000DF91CF911F910F91FF9008950F931F93D2
:102E6000CF93DF93062F142F64E670E00E94D03ECC
:102E7000EB0180E20E94121580E20E941215C43616
:102E8000D10548F480E20E941215CA30D10518F429
:102E900080E20E941215CE010E942E14802F0E9403
:102EA0001215812F0E94121580E2DF91CF911F91A0
:102EB0000F910C9412150F931F93CF93C62F1416D6
:102EC000BCF56FEF640F0C2F10E00830110508F50A
:102ED000F801E65DFF4F0C94253F16E51BC040E26C
:102EE00001C048E667E5CF911F910F910C942E1712
:102EF000642FCF911F910F910C94C51614EF07C04A
:102F00000E94BA1685E50FC06EEF640F11E440E031
:102F100002C015E541E00E944615812F0E9412155E
:102F2000C53031F488E6CF911F910F910C941215A2
:102F3000CF911F910F910895462F65E00C945B1778
:102F4000462F60E00C945B17462F61E00C945B17F2
:102F5000462F66E00C945B17AC9881E090E00E94ED
:102F60008C3EAC9A81E090E00E948C3EAC9884E666
:102F700090E00C948C3EA39AA29AA19AA09A60FF2A
:102F800002C0AB9A01C0AB9861FF02C0AA9A01C00F
:102F9000AA9862FF02C0A99A01C0A99863FF02C063
:102FA000A89A01C0A8980C94AC171F93CF93DF93F5
:102FB000EC01162F442311F0AD9A01C0AD98612F9A
:102FC00070E084E0759567958A95E1F7CE010E94DF
:102FD000BB17612FCE01DF91CF911F910C94BB17CE
:102FE00040E00C94D51761E00E94F01780ED97E067
:102FF0000C948C3ECF93DF93CDB7DEB728970FB6F6
:10300000F894DEBF0FBECDBF28E0E1E7F0E0DE01BF
:10301000119601900D922A95E1F7FC012481421747
:1030200010F04FEF420FFE013196E40FF11DE40F57
:10303000F11D2081260F2068622F28960FB6F89484
:10304000DEBF0FBECDBFDF91CF910C94F017FC0116
:103050006181262F246021836C600C94F017FC01A1
:1030600061816E7F618368600C94F017FC0161815F
:10307000262F2160218369600C94F017CF92DF9294
:10308000EF92FF920F931F93CF93DF9300D0CDB7B2
:10309000DEB77C01677088E0689FB001112460642E
:1030A000C70149835A830E94F0174981C42E5A816F
:1030B000D52E00E010E0F60161916F0141E0C701FB
:1030C0000E94D5170F5F1F4F08301105A1F70F9011
:1030D0000F90DF91CF911F910F91FF90EF90DF90B4
:1030E000CF900895CF93DF93EC01423018F08881A0
:1030F000886088834C831D82222329F0413019F493
:1031000088818460888380E593EC0E948C3EAD9832
:10311000AC9863E0CE010E94BB1784E991E10E9464
:103120008C3E63E0CE010E94BB1784E991E10E94CE
:103130008C3E63E0CE010E94BB1786E990E00E94BE
:103140008C3E62E0CE010E94BB1768816062CE01B6
:103150000E94F01784E08983CE010E942718CE01D7
:103160000E94F31782E08A8366E0CE01DF91CF915F
:103170000C94F017A59AA49AFC01108220E041E07B
:1031800060E10C9472180C94BA1841E00E94D517B3
:1031900081E00895EF92FF920F931F93CF93DF93F7
:1031A0008C01F42EC62FD72FE42EE60EEC1631F04C
:1031B000699141E0C8010E94D517F8CF8F2DDF91AA
:1031C000CF911F910F91FF90EF90089561157105B8
:1031D00059F0FB0101900020E9F7AF01415051097E
:1031E000461B570B0C94CA1880E00895FC012781F8
:1031F0008085E22FF82FE60FF11DE60FF11D859176
:1032000094910C94C1140F931F93CF93DF93EC010F
:103210008B01CB010E94362E682FCE010E946619C9
:103220008CE990E09983888318870F83DF91CF9191
:103230001F910F910895DF92EF92FF920F931F93CA
:10324000CF93DF93EC01F62E69871A8681E08D8398
:1032500082E0D82EEE24E3948E01075F1F4F0E9478
:103260000F13482F823011F0843061F4E881F98126
:103270000280F381E02D6F2DCE010995F986DA8663
:10328000ED8204C0813089F0883079F0C8010E9455
:10329000392F8111ED828D81882319F0CE010E9492
:1032A00093198A858F5F8A87DACF8FEF898781E0CC
:1032B0008E838D83483009F080E0DF91CF911F919C
:1032C0000F91FF90EF90DF9008950895FC0182EA3E
:1032D00090E09183808312821382648381E08583EE
:1032E00086830895FC012281211103C081E082833D
:1032F0000895438130E0240F311D848190E00197CF
:103300002817390714F44F5F43830895FC01828125
:10331000882319F08150828308958381882311F0D6
:103320008150838308951F93CF93DF93EC0110E0C6
:10333000612F80E00E94731380E20E941215E881E1
:10334000F9816B81610F0190F081E02DCE0109952B
:103350000E9426151F5F123059F76A8180E00E9493
:1033600073138EE30E9412156A818FE00E9473131B
:103370008CE30E9412151D82DF91CF911F91089559
:103380000F931F93CF93DF93EC010E940F13182F1D
:103390000E94EA37882321F081E08D838FE71CC0EB
:1033A0000B818A81080F123031F0143039F4CE01CC
:1033B0000E94721903C0CE010E9486198B819A81E6
:1033C000890F081711F081E08D838D81882319F012
:1033D000CE010E949319812FDF91CF911F910F9100
:1033E0000895EF92FF921F93CF93DF931F92CDB773
:1033F000DEB77C0181E0F701858311E0C7016983B5
:103400000E94C0196981811102C0F7011682F7017B
:103410009681911108C0883031F481E086838381E0
:103420009281890F09C0662311F0F701158381305D
:1034300029F79111E3CF8FEF0F90DF91CF911F917B
:10344000FF90EF9008950F931F93CF93DF93EC01BC
:103450008B0150E00E94D9134AE3B801CE01DF91FD
:10346000CF911F910F910C948513EF92FF920F93C0
:103470001F93CF93DF9300D01F92CDB7DEB78C019F
:10348000462F0B969A8389838EE08B83D801EC912B
:10349000F0E0EE0FFF1FE55AFD4FE590F490BE01FE
:1034A0006D5F7F4FCE0101960E94231AA701BE01D6
:1034B0006D5F7F4FCE0101960E94A01340E2BE01D6
:1034C0006D5F7F4FCE0101960E948513F801418107
:1034D0005281BE016D5F7F4FCE0101960E94D913CC
:1034E0004FE2BE016D5F7F4FCE0101960E948513B2
:1034F000D80117964D915C911897BE016D5F7F4F73
:10350000CE0101960E94D9130F900F900F90DF917A
:10351000CF911F910F91FF90EF900895CF93DF937C
:1035200000D01F92CDB7DEB7462F2EE02B830B962F
:103530009A838983BE016D5F7F4FCE0101960E9401
:10354000231A0F900F900F90DF91CF91089529E1EA
:10355000289FB001299F700D11246E567F4F49E1BD
:1035600050E083E792E00C945B3F29E1289FB00193
:10357000299F700D11246E567F4F49E150E083E77B
:1035800092E00C94793FDC01EC91B6E0EB9FF00106
:103590001124E60FF11DEE0FFF1FE15FFC4F859137
:1035A00094910895DC01EC9146E0E49FF001112430
:1035B000E60FF11DEE0FFF1FE15FFC4F8591949127
:1035C00017962D913C911897AC01429FC001439FE3
:1035D000900D529F900D11240895FC01A181B2819C
:1035E0002091A0033091A1030E94933E24E630E095
:1035F00040E050E00E94E43E293EFDEF3F074105D8
:10360000510520F028EE3DEF40E050E0C90108955B
:10361000FC012081213029F42091960330919703F9
:1036200009C0223029F4209194033091950302C0FF
:1036300020E030E0FC0187819085AC01249FC0012F
:10364000259F900D349F900D112408958091900333
:10365000909191030895FC016081FBE06F9FB001A0
:1036600011246F557D4F4BE050E00C942B3FDC0153
:10367000EC91F0E0EE0FFF1FE55AFD4F859194911C
:103680000C948D1460E170E00C94371BCF93DF93A2
:10369000EC01888160E0811108C0CE010E94D21A3D
:1036A00067E00E94A41787E011C0CE010E94D21AE1
:1036B00065E00E94A4178FE20E9412158F81988501
:1036C0000E942E1483E40E94121588E0DF91CF91AE
:1036D000089566E0FC01838194810E94A01786E032
:1036E000089566E0FC01858196810E94A01786E01E
:1036F0000895FC0181819281883EFDEF9F0729F4A6
:1037000081E592E00E94C11403C067E00E949C170B
:1037100088E0089529E1AC01249FC001259F900D08
:10372000112483569F4F08950F931F93CF93DF93D8
:10373000CDB7DEB7A6970FB6F894DEBF0FBECDBFEC
:103740008C01AB01BC01CE0101960E941B1DCE0174
:1037500001960E94A01D89E1FE013C96D8010190CE
:103760000D928A95E1F7A6960FB6F894DEBF0FBECC
:10377000CDBFDF91CF911F910F910895FC01208162
:10378000260F2A3040F0161617061CF4FC01108292
:1037900003C029E0FC0120830C942B1B62E00E94F3
:1037A000D21A9C0140E050E060E074EB84EC94E0BD
:1037B0000E94E43E29358BE138074105510520F090
:1037C00028E53BE140E050E0C901089562E00E9435
:1037D000D21A9C0140E050E060E47BE48CE490E08D
:1037E0000E94E43E213D87E038074105510520F065
:1037F00020ED37E040E050E0C90108950F931F939A
:10380000CF93DF9300D0CDB7DEB78C0169837A8385
:103810000E94CE1BAC0169817A81C80103960F908A
:103820000F90DF91CF911F910F910C940C2F0F935C
:103830001F93CF93DF9300D0CDB7DEB78C016983A0
:103840007A830E94E61BAC0169817A81C8010596E2
:103850000F900F90DF91CF911F910F910C940C2F2F
:10386000DC01EC91BCE0EB9FF0011124EF5EFC4F1A
:103870006591749184EF95E60E94D03ECB01089546
:10388000EF92FF920F93CF93DF9300D0CDB7DEB7C7
:103890007C0169837A830E94301CF7012081698151
:1038A0007A81211103C022E330E002C020E030E041
:1038B00001E0AC01C70107960E94A72E0F900F9060
:1038C000DF91CF910F91FF90EF900895CF93DF9309
:1038D000EC010E94301C2F8138858217930710F469
:1038E00098878F83CE010E94CE1B2B813C8182174B
:1038F000930710F49C838B83CE010E94E61B2D81DD
:103900003E818217930710F49E838D83DF91CF91C0
:1039100008950F93CF93DF93EC0104E620E030E0AD
:1039200048EE5DEF01960E94A72E89819A819C83C3
:103930008B832881233039F49C0136952795369561
:1039400027953C832B839E838D83CE01DF91CF917E
:103950000F910C94661C0F931F93CF93DF934BE052
:1039600050E063EE72E083E792E00E942B3F83E732
:1039700092E00E94661CC0E0D0E08E010F5F1F4FF6
:10398000B80183E792E00E948E1ACE010E94B51A18
:103990000032110511F0E801F0CFDF91CF911F91B6
:1039A0000F910895FC01818592850895FC01818520
:1039B0009285883EF3E09F0719F489E492E004C001
:1039C0000E942E1484E492E00E94C11486E00895BF
:1039D0000F9301E020E030E048EE53E009960E94AA
:1039E000A72E0F910895262F443019F06FEF7FEF27
:1039F00002C061E070E0223091F028F4222349F007
:103A0000213051F00895243081F060F0253081F0AC
:103A100008950B960C94BE1B0B960C94401C0B96B1
:103A20000C94891C0B960C94FE1B0B960C94171C83
:103A30000B960C94E81CEF92FF920F931F93CF9379
:103A4000DF93EC018B017A0168E973E00E940319AE
:103A50008FEF898788EA90E09983888389E1F8016C
:103A6000DE011B9601900D928A95E1F7FDA2ECA272
:103A7000DF91CF911F910F91FF90EF9008950F93D9
:103A80001F93CF93DF93CDB7DEB728970FB6F89487
:103A9000DEBF0FBECDBF8C01BC016A5E7F4F2DE83B
:103AA00033E04EE050E0CE0101960E948E12CE012E
:103AB00001960E94991281E0F801858328960FB63D
:103AC000F894DEBF0FBECDBFDF91CF911F910F9154
:103AD0000895CF93DF93EC010E9481130E94791324
:103AE00087E893E00E94C1140E947D136EE0CE012E
:103AF00046960E9459140E94142F83E0DF91CF91C3
:103B00000C940B38CF93DF93EC016CA17DA16F5F18
:103B10007F4F0B960E94351ACE01DF91CF910C9406
:103B2000691DCF93DF93EC016CA17DA16F5F7F4F87
:103B30000B960E948E1ACE01DF91CF910C94691DD5
:103B4000DF92EF92FF920F931F93CF93DF93CDB746
:103B5000DEB769970FB6F894DEBF0FBECDBF8C01FC
:103B600089E1D82EC8010B967C0160E0C8010E9453
:103B7000F11987FD30C0873041F0883051F0863030
:103B800061F4C8010E94821DF0CFC8010E943F1D50
:103B9000ECCFC8010E94911DE8CFF701DE0111961C
:103BA0009D2D01900D929A95E1F7682FC8010E9412
:103BB0001B19811109C0FE013196D7018D2D01908D
:103BC0000D928A95E1F7D1CF83E00E940B38C701AF
:103BD0000E94661CCACF69960FB6F894DEBF0FBE6E
:103BE000CDBFDF91CF911F910F91FF90EF90DF90AC
:103BF00008951F93CF93DF93EC01162F0E94F618C0
:103C0000CE0109960E942E2F882311F0298501C02C
:103C10002FEF332727FD3095812F90E028173907A4
:103C200049F11230C9F048F4112389F0113011F52F
:103C3000CE010B960E94461B1DC01430B9F088F0CF
:103C40001530C1F4CE010B960E94D61C13C0CE01D4
:103C50000B960E94421B0EC0CE010B960E94791B50
:103C600009C0CE010B960E94691B04C0CE010B96C1
:103C70000E94711B80E0DF91CF911F9108950F93F7
:103C80001F93CF93DF9300D0CDB7DEB789839A839C
:103C90000E94791389819A810E94C1140E947D1328
:103CA0000091150310911603C8010E94343F892B1F
:103CB00019F0C8010E94C1140F900F90DF91CF91AD
:103CC0001F910F910C94261580918C0390918D0378
:103CD000892BA1F08DE10E943A0865E02AE0AC0151
:103CE000249FC001259F900D11240E94BA168DE6D5
:103CF0000E94121583E40E94121504C087E594E027
:103D00000E94C1140C9426158BE10E943A0865E0CC
:103D10000E94BA168DE60E94121586E50E941215C1
:103D20000C94261590E0880F991F62E08A519B4FF2
:103D30000C948D140F931F93CF93DF9361E083E76F
:103D400092E00E94D21A8C0165E083E792E00E9423
:103D5000D21AEC0184E10E943A0880179107B8F466
:103D6000C817D907B0F49C012C1B3D0BC8018C1B54
:103D70009D0B64E670E00E94D03EC9010E94D03ED7
:103D80006436710510F063E670E0862F03C083E6A9
:103D900001C080E0DF91CF911F910F9108956130B4
:103DA00011F40C94030E0C94132CCF93DF93D82FA3
:103DB000C62F8FE18D0F0E948C0A882351F06C2F43
:103DC0008D2F0E94CF1E46E06C2FDF91CF910C9477
:103DD0005B178FED94E0DF91CF910C94C1140F939A
:103DE0001F93CF93DF93C82F062F0E9479138091E2
:103DF000C202882319F01092C20203C081E08093AE
:103E0000C20210928D020E94C90D811108C083E088
:103E100090E00E94DA0E882341F080E209C0809190
:103E20004702882321F082E403C08DE601C082E6C8
:103E300090916102911102C00E941215809161025D
:103E4000882331F110E0D1E00E94C60D1817D0F49C
:103E500080916202181761F0809161028D2331F028
:103E60008091C202882321F082E003C081E001C07A
:103E700080E00E941215D03811F0DD0F01C0D0E0B3
:103E80001F5FE2CF0E94C60D98E0981B892F01C0EA
:103E900087E00E941715D1E0DC0F8D2F0E943F159F
:103EA000C1110AC00E941028882331F00E941F28E7
:103EB000892B11F08FE301C08AE30E941215602F55
:103EC0008C2F0E94D51E0E9426150E947D13D6308D
:103ED000C8F412E01C0F812F0E943F158AE30E9454
:103EE0001215602F8D2F0E94D51E163059F083E0D9
:103EF0008C0F0E943F158AE30E941215602F812FBC
:103F00000E94D51EDF91CF911F910F910C94261521
:103F100089E10E943A0868E00E949C1780E20C94B4
:103F200012150E9479132091660280917E03909170
:103F30007F03223031F466E00E94B71684ED94E0EE
:103F400005C065E00E94B71680ED94E00E94C114A0
:103F500080E20E9412150E94FF2B67E00E94A017CA
:103F60000E9426150E947D1387EC94E00E94C114E4
:103F700067E080917803909179030E94A4170C94D4
:103F800026150F931F936091CD027091CE02809100
:103F9000CF029091D00220918C02222371F00E94D6
:103FA000ED070091CD021091CE022091CF02309109
:103FB000D002601B710B820B930B28EE33E040E0C4
:103FC00050E00E94E43EC9011F910F910895CF93E4
:103FD0000E94AA27811110C00E941028882331F066
:103FE0000E94AA2781110AC0C4E40BC00E94C90D17
:103FF000811106C0CEE405C0C3E403C0C5E401C01E
:10400000C2E40E949A278111C7E58C2F0E941215E5
:1040100080E20E9412150E94C11F0E94A01680E239
:10402000CF910C9412150E94791380916602823010
:10403000F9F40E941628882359F066E080917802EE
:10404000909179020E94B7168BED94E00E94C11402
:104050000E94B027882371F066E0809176029091EB
:1040600077020E94B71687ED94E00E94C11402C047
:104070000E94881F67E087E10E94BB0A0E94261504
:104080000E947D130E94E71F67E084E10E94BB0A43
:104090000C9426150E94ED076093CD027093CE021A
:1040A0008093CF029093D0021092C9021092CA025C
:1040B0001092CB021092CC021092C5021092C6024E
:1040C0001092C7021092C80281E080938C0208957A
:1040D0000F931F930E94ED070091CD021091CE0225
:1040E0002091CF023091D002601B710B820B930B99
:1040F0006093CD027093CE028093CF029093D00252
:1041000010928C021F910F910895CF92DF92EF923F
:10411000FF920E9479138CEB94E00E94C1140E94DC
:10412000C11F0E94A0160E947D1389EB94E00E949B
:10413000C1146091C9027091CA028091CB02909122
:10414000CC0238EEC32E33E0D32EE12CF12CA701A4
:1041500096010E94E43EC9010E94A01686EB94E0FD
:104160000E94C1146091C5027091C6028091C7027D
:104170009091C802A70196010E94E43EC901FF90F8
:10418000EF90DF90CF900C94A0160E9479138DEAE7
:1041900094E00E94C1140E941D2C68E00E94A817A0
:1041A0000E9426150E947D1383E10E948C0A8823B9
:1041B00049F084EA94E00E94C1140E94232C68E034
:1041C0000E94A8170C9426150E9479138CE994E09C
:1041D0000E94C11467E086E00E94BB0A0E94261577
:1041E0000E947D1384E994E00E94C11447E061E0DD
:1041F0008091A2039091A3030E945B170C94261553
:104200000E9479138DE894E00E94C11467E082E176
:104210000E94BB0A0E9426150E947D1386E894E046
:104220000E94C11467E083E10E94BB0A0C9426152A
:104230000E94791380E894E00E94C11480918C035D
:1042400090918D03892B29F065E087E00E94BB0ADD
:1042500004C08EE794E00E94C1140E9426150E94BB
:104260007D130C9426150F931F93CF93DF9300D0EB
:10427000CDB7DEB78B0189839A830E9481130E9498
:10428000791389819A810E94C1140E947D13C8010B
:104290000F900F90DF91CF911F910F910C94C1144B
:1042A0008DE694E00E943F1E0E947D1386E694E016
:1042B0000E94C1140E94C11F0C94A0168FE594E0C7
:1042C0000C943F1E0E9479130E94881F0E94641E56
:1042D0000E947D130E94E71F0C94841E0E94791394
:1042E0008EE494E00E94C11467E08CE10E94BB0A56
:1042F0000E9426150E947D1384E494E00E94C1145C
:104300000C94841E0E9479138EE394E00E94C114E1
:1043100080918C0390918D03892B31F00E94570876
:1043200069E00E94C51604C08AE394E00E94C114AB
:104330000E9426150E947D1380E394E00E94C11420
:104340000C94641E60E070E08CE294E00C943321E5
:104350000E94A2210C94142F60E070E080E294E0AF
:104360000E94332188E893E10C94F40760E070E048
:104370008FE094E00C9433216091C5027091C602E5
:104380008091C7029091C80220E63AEE40E050E0EA
:104390000E94E43EC9010895CF93DF938091C1024A
:1043A0008F5F843018F48093C10202C01092C10262
:1043B0008091C102833061F4C0916C00CF5FC093E3
:1043C0006C000E9485298C1718F481E080936C00A2
:1043D00080916602833051F0843081F0823019F18F
:1043E00080916C0081508093B8021DC08091B8020A
:1043F000811102C00E948529815010C0C091B8026D
:10440000D0E00E94852990E00197C817D9071CF0D9
:104410001092B80205C08091B8028F5F8093B802F5
:1044200082E0809366020E9479138091B80290E046
:1044300061E001960E94B71680E00E941215E0919B
:10444000B802F0E0EE0FFF1FE057FD4F8081918131
:104450000E94A01681E00E94171582E00E941215AA
:10446000E091B802F0E0EE0FFF1FE656FD4F8081AD
:1044700091810E94A0160E9426150E947D13E09152
:10448000B802F0E0EE0FFF1FEC55FD4F68E08081B1
:1044900091810E949C17E091B802F0E0EE0FFF1F9F
:1044A000E255FD4F68E0808191810E949C17DF9169
:1044B000CF910C942615CF93DF93C0E0DFE061E04D
:1044C0008D2F8C1B0E9473138FEF0E94121560E0DA
:1044D0008C2F0E9473138FEF0E9412158AE090E0D8
:1044E0000E94F407CF5FC03151F78AE090E0DF917E
:1044F000CF910C94F407CF93C82F0E9481130E9490
:1045000079138FEE93E00E94C11462E08C2F90E04B
:104510000E94B71680E49FE1CF910C94F4071092AB
:10452000BE021092BD021092BC021092BB0280919A
:10453000BF028093C0021092BA021092B90208958D
:10454000CF93DF9327E630E08AE992E0C0E9D2E03A
:10455000AEEAB2E064EA72E045E05DE2F90151934F
:104560009F01FC0111921192CF01199219921D9293
:104570001D92FB0111921192BF01415079F7DF9119
:10458000CF910895CF930E948F220E94A0220E9473
:10459000791364E070E083E792E00E94371B80911A
:1045A0006602823011F48EE301C080E20E9412158F
:1045B00083E792E00E94461B80916602823011F4EC
:1045C0008CE301C080E20E941215809117030E94C3
:1045D000921E0E947D130E949A1E8093BF0262E089
:1045E00090E00E94B7168CE094E00E94C11483EC26
:1045F00092E00E942E2F882319F0C091C30201C0BF
:10460000CFEFC0FF05C065E082E10E94BB0A03C096
:1046100085E00E94171580E20E94121580917302B6
:1046200084508630A8F4C1FF05C065E083E10E9494
:10463000BB0A03C085E00E941715C2FF05C00E9497
:10464000AB0ACF910C943F1580E2CF910C941215D8
:1046500066E080917402909175020E949C17CF9140
:104660000C9426150E949A1E8093BF029091C0025E
:10467000981728F58093C0020E94C11F2091BB02A9
:104680003091BC02821B930B9093BE028093BD02BB
:104690000E94C11F9093BC028093BB028091BD0217
:1046A0009091BE022091B9023091BA0228173907C1
:1046B00010F0232B21F49093BA028093B90208954D
:1046C000CF93DF930E9432230E94AB0A811128C04E
:1046D00083E10E943A08EC0182E10E943A08C8177F
:1046E000D90728F49C012C1B3D0BE90102C0C81B13
:1046F000D90BC53FD140A0F024E630E08091C00244
:10470000281B31094091B9025091BA02249FC0017F
:10471000259F900D349F900D1124DF91CF91089526
:1047200029E6EBCFFF920F931F93CF93DF930E9465
:104730008529FF24FA94F80E0E948829833429F5EC
:104740000F2D112707FD1095F801E959FF4F8083C0
:10475000000F111FE801C656DD4F6091C502709130
:10476000C6028091C7029091C80228EE33E040E073
:1047700050E00E94E43E3983288389E10E943A0890
:10478000F801E255FD4F918380830E94882984348B
:1047900029F5CF2DDD27C7FDD095FE01E959FF4F43
:1047A0008083CC0FDD1F8E0100571D4F6091C50225
:1047B0007091C6028091C7029091C80228EE33E042
:1047C00040E050E00E94E43EF8013183208389E11B
:1047D0000E943A08CC55DD4F99838883DF91CF91B1
:1047E0001F910F91FF9008950E94B02781112FC053
:1047F0000E94162881112BC00E94C90D8823A1F0A8
:104800008091C9029091CA02A091CB02B091CC02D2
:1048100080599F4FAF4FBF4F8093C9029093CA02F8
:10482000A093CB02B093CC020E9492230E946023FB
:1048300090938F0280938E028091C1028F5F8932A4
:1048400018F48093C10208951092C10208958091D6
:10485000C5029091C602A091C702B091C8028059CA
:104860009F4FAF4FBF4F8093C5029093C602A09356
:10487000C702B093C802C0CF81E09091C1029531C8
:1048800008F080E008950E9432230E943C2488238F
:10489000B9F00E9479130E94881F67E087E10E94A7
:1048A000BB0A0E9426150E947D130E94E71F8AE022
:1048B00094E00E94C1140E94AA2781111CC02FC03D
:1048C0000E94791368E088E10E94BB0A88E094E0C6
:1048D0000E94C11467E087E10E94BB0A0E9426156E
:1048E0000E947D1368E08AE10E94BB0A85E094E0A3
:1048F0000E94C11414C08091BF02833680F480915D
:10490000B9029091BA02459730F080918E02909151
:104910008F020C94A0168EEF93E00C94C11480913A
:10492000BF0264E090E00E94B7168CEF93E00E9413
:10493000C1140C9426159091C4029F5F9093C402F9
:1049400090E0FC013197E331F10570F5EE5CFF4F2B
:104950000C94253F0C9413200C94911F0C948520EB
:104960000C94182161E007C061E083E00C94EF1E15
:1049700061E006C066E080E0F9CF66E0F6CF66E071
:1049800086E0F4CF0C94C2220C94C5200C94002134
:104990000C94E4200C9443240C946E210C948221FA
:1049A0000C9462210C94CC2108958FEF8093C30264
:1049B0000895CF93DF930E94DC27C0917602D091B7
:1049C000770261E083E792E00E94D21A9C01CE0157
:1049D00065E070E00E94D03EEB0140E0C9010E941A
:1049E000472C8FE00E94732CCE01DF91CF910C9465
:1049F000DA2781E00C94EE270E94E408882321F056
:104A00000E94B9270C940F2D08951092D1020C9496
:104A1000D924CF93DF930E94FC240E94DA08EC0192
:104A20008091D102811111C062E083E792E00E947F
:104A3000D21A8C179D0748F481E08093D1028091AF
:104A40007602909177020E94DA270E94E408882378
:104A500081F064E083E792E00E94D21A8C179D07F0
:104A600040F481E195E0909316038093150381E073
:104A700030C00E945C08029758F180919203909197
:104A80009303892B89F08BE10E943A08EC0183E7BC
:104A900092E00E94081BD195C195D1098C179D0702
:104AA0001CF48DE095E0DFCF80918C0390918D0315
:104AB000892B71F08DE10E943A08EC0183E792E0C6
:104AC0000E94261B8C179D071CF487E095E0CBCF36
:104AD00082E0DF91CF9108958130910521F090938C
:104AE000D3028093D2027093D5026093D4020895CA
:104AF0000F931F93CF93DF93C091D202D091D30233
:104B0000CE010E9412108C010E94DA08C817D90742
:104B100038F4C801DF91CF911F910F910C94F40FDD
:104B200081E0DF91CF911F910F91089581E00E9464
:104B300066280C94A00E0E9458280E94560E21E070
:104B40008091A6039091A703892B09F420E020937C
:104B5000D60280E10C94732C0F931F93CF93DF93B5
:104B60000E947825182F0E941F28EC010E94E4085B
:104B7000882311F001E001C0012F8091D602882323
:104B800029F0BE01812F0E94C32C01C0812F8823F0
:104B900029F081E00E94662881E00CC0002349F0E2
:104BA000BE01812F0E94072E8C179D0711F00E94D5
:104BB000562882E0DF91CF911F910F9108950F93B6
:104BC0001F93CF93DF938C01EB010E946C2540E093
:104BD000BE01C8010E94472CCE016AE070E00E942D
:104BE000D03ECB01DF91CF911F910F910C94E92B17
:104BF00081E00E94EE270C94A00E0E94560E0E94A7
:104C0000DC278FE00C94732C0C94472C0F931F938C
:104C1000CF93DF93C0917803D0917903CE010E94A6
:104C200012108C010E94DA088C179D0738F4C80115
:104C3000DF91CF911F910F910C94D60F81E0DF91FE
:104C4000CF911F910F9108951F93CF93DF930E94EF
:104C50000626182F0E94B927EC01BC01812F0E9463
:104C6000C32C882329F081E00E94EE2781E019C03F
:104C70000E94E408811107C0111105C0CE010E94F5
:104C8000042C882369F00E94C90D811109C0BE015E
:104C9000812F0E94072E8C179D0711F00E94DA27A2
:104CA00082E0DF91CF911F9108950E94F8250E9424
:104CB00096250C94A00ECF93DF931F92CDB7DEB74D
:104CC0009091D802913039F018F0923039F00FC03D
:104CD0000E9424260CC00E94AC2509C00E94A70F88
:104CE000823089F089830E94552689810CC08130E9
:104CF00051F49091D702992331F082E08093D80249
:104D00000E94560E82E00F90DF91CF9108950E948D
:104D1000560E8091DD029091DE020E9412100E94D8
:104D2000F40F2091DD023091DE02882369F060915A
:104D3000DB027091DC0240E0C9010E9404260E945F
:104D4000FD251092D80208956091D9027091DA027F
:104D5000C9010E94DF250E949B2581E08093D60235
:104D60008093D80208958093D70208959093DE022D
:104D70008093DD027093DC026093DB025093DA02D1
:104D80004093D902089587E08093C30282E0809324
:104D9000C4020E94043883E08093E00208950F93D8
:104DA0001F93CF93DF938091DF02882379F00E94D5
:104DB000AB0A90917A0201E0981301C000E011E083
:104DC000811110E0913021F4112311F010E000E086
:104DD00083E10E948C0A882309F45CC083E10E946D
:104DE0003A08EC0182E10E943A08C817D90728F472
:104DF0009C012C1B3D0BE90102C0C81BD90BC53F10
:104E0000D14008F447C0C1E0011102C087E001C0F1
:104E100083E08093C302112329F08091C302825062
:104E20008093C302CC2329F08091C30281508093E8
:104E3000C302011104C0111102C0CC2331F081E082
:104E40000E940B38111107C004C088E00E940B3883
:104E500008C0002331F08091A8039091A903892B09
:104E600011F4D0E001C0D1E00E94E312811102C030
:104E70001092E002D11106C0C11104C00E94E312D9
:104E8000883051F08091E002823011F481E00AC054
:104E900082E008C0C0E0B8CF8091E0028F5F8093CD
:104EA000E002F0CFDF91CF911F910F9108958FEF26
:104EB0008093C30288E00C940B388093DF0208953E
:104EC0001092E70208950E94ED0728EE33E040E0DB
:104ED00050E00E94E43E2093E3023093E4024093CA
:104EE000E5025093E60208950E94ED0728EE33E0B4
:104EF00040E050E00E94E43E6091E1027091E202E5
:104F00008091E3029091E402A091E502B091E60263
:104F1000860F971FA11DB11D82179307A407B50720
:104F200028F081E08093E70282E008951092E70282
:104F300081E008958091E70208952CE3AC01249F5D
:104F4000C001259F900D11249093E2028093E1020D
:104F50000C94632781E09091EA02911180E008951A
:104F600081E02091E8023091E902232B09F480E0EE
:104F700008958091E8029091E90208959093E902E2
:104F80008093E80220916E00223081F089359B41A8
:104F900030F088E59BE19093E9028093E80260910C
:104FA000E8027091E9028FE00E941B0A0E9412063B
:104FB0000C9461090C94BE278091EA02882369F061
:104FC0001092E9021092E80280E090E00E94BE2771
:104FD00081E00E9431061092EA020895CF93C82F13
:104FE0008091EA0281110FC0CC2369F080E090E04B
:104FF0000E94BE271092E9021092E80280E00E940F
:105000003106C093EA02CF9108951092E9021092FE
:10501000E80280E090E00E94BE2781E00C94EE2739
:1050200081E09091EF02911180E0089581E020915C
:10503000ED023091EE02232B09F480E00895809177
:10504000ED029091EE020895482F8091EB0290912D
:10505000EC022091ED023091EE028217930711F4D9
:105060004423E1F09093EE028093ED0220916E00D4
:10507000223081F0813D974030F080ED97E09093B1
:10508000EE028093ED026091ED027091EE0280E1FC
:105090000E941B0A0E94D7060C9461090895909300
:1050A000EC028093EB0281E00C9424280C944F28AE
:1050B0008091EF02882349F080E090E00E944F2821
:1050C00081E00E9428061092EF020895CF93C82F26
:1050D0008091EF0281110BC0CC2349F080E090E079
:1050E0000E944F2880E00E942806C093EF02CF91D3
:1050F000089580E090E00E944F2881E00C9466289B
:10510000089580917302893051F09CEF980F96308A
:1051100048F08150823048F482E093E0089589EFAE
:1051200092E008958BE093E0089580EF92E0089577
:1051300081E395E0909365028093640290917302FD
:10514000945081E0963008F080E00E945D2761E095
:1051500084EF95E00E948A1091E0813009F090E0A0
:10516000892F08950F931F93CF93DF930E94B32647
:105170000091780210917902C0917602D091770265
:1051800063E083E792E00E94D21AA801BE010E9468
:10519000B6268BE295E0909365028093640260E00E
:1051A0008AEF95E0DF91CF911F910F910C948A10B7
:1051B0001F93CF93DF93162FC0917602D091770281
:1051C00061E083E792E00E94D21A40E0BE010E94B3
:1051D000042685E295E09093650280936402612F36
:1051E0008AE196E0DF91CF911F910C948A101F9372
:1051F000CF93DF93182FC0917602D091770261E0B0
:1052000083E792E00E94D21A41E0BE010E94042688
:1052100025E235E03093650220936402612F8AE134
:1052200096E0DF91CF911F910C948A1029E135E02F
:105230003093650220936402682F83E396E00C9418
:105240008A10CF93C82F62E083E792E00E94D21ABF
:105250006091780270917902A0917A02B0917B02FC
:10526000E091A403F091A503AE9F9001AF9F300D94
:10527000BE9F300D1124820F931F0E94DF252FE166
:1052800035E030936502209364026C2F86E096E04F
:10529000CF910C948A101F93CF93DF93182FC09156
:1052A0007802D091790262E083E792E00E94D21AFC
:1052B000BE010E94DF252FE135E030936502209387
:1052C0006402612F88E296E0DF91CF911F910C94E8
:1052D0008A1088ED91E0909365028093640260E00B
:1052E00084E196E00C948A1080919A0390919B033C
:1052F0000E949D2787E395E0909365028093640266
:1053000061E086E096E00C948A1080911403089581
:1053100080916D000895813019F481E00C94212969
:10532000811103C081E00C944B298230B1F380E0FD
:1053300008954091140350E020919803309199030F
:105340004217530789F0813041F42091A80330912E
:10535000A903232BD9F0862F10C0811102C0862FFC
:1053600010C08230C9F412C0813049F48091A80382
:105370009091A903892B49F080E00C94F7288111C2
:1053800002C00C941629823039F460E080919E03AB
:1053900090919F030C94D82880E008950F931F9359
:1053A000CF93DF93C82F81E08093140314E4D7E5F3
:1053B00003E44091140350E0209198033091990345
:1053C00024173507E8F10E94BC0D10936D008C2F57
:1053D0000E948B298130A9F5D0936D000E94742919
:1053E000813079F50E948F220E94BC0D00936D00E0
:1053F0004091140350E02091980330919903421793
:10540000530711F061E001C060E08C2F0E949929E0
:105410008130B9F4D0936D004091140350E0209195
:105420009803309199034217530721F00E94742981
:10543000813039F4809114038F5F80931403B9CFC6
:1054400081E0DF91CF911F910F910895CF93C82FE5
:10545000809317032DE335E0309316032093150353
:105460008F3030F4E82FF0E0E455FF4F808101C029
:1054700080E080936E000E940D3981E00E948509D2
:105480000E9498288823F1F184E00E940B388C2F29
:1054900090E08F309105A0F5FC01EB5BFF4F0C9481
:1054A000253F60E080919E0390919F030AC00E9477
:1054B000692928C080E00E94212924C060E085E09D
:1054C00090E00E94D8281EC060E080E002C060E04A
:1054D00081E00E94B22816C080E00E94162912C006
:1054E00080E00E944B290EC081E003C080E001C033
:1054F00082E00E94CE2906C080E00E94F72802C008
:105500000E94A8210E949909CF910C941D390F93F4
:105510001F93CF93DF93EC010E94A71A0E9481286A
:105520008C0160E0C8010E94F11987FD29C09091AB
:105530007302E82FFF27E7FDF095993019F4E35A3D
:10554000FA4F0FC08CEF890F863018F4EC58FA4FE1
:1055500008C09150923018F4E15BFA4F02C0E25C4F
:10556000FA4F84918F3049F4BE0183E792E00E94A4
:10557000941BCE010E94B51AD1CF0E94262AD1CF0A
:10558000DF91CF911F910F9108956DE775E08BE04A
:1055900093E00E94031963E575E082E093E00E94C6
:1055A000031964E675E089EF92E00E94031963E451
:1055B00075E080EF92E00C940319FC014281538165
:1055C0004115510591F0A081B181B7FF03C0B1959C
:1055D000A195B10928EE33E00E94A23E9A0140E075
:1055E00050E00E94E43EC901089580E090E00895F3
:1055F000CF93DF9300D000D0CDB7DEB7FC0122817E
:1056000033813C832B83808191819A838983CE016E
:1056100001960E94DD2A0F900F900F900F90DF915E
:10562000CF9108950F93FC01CB01002341F0461761
:10563000570708F4CA016417750748F407C06417D0
:10564000750708F4CA014617570708F4BA0197838B
:10565000868391838083138212821582148233871A
:105660002287681B790B718760870F910895FC0171
:105670009B0140E050E086819781281B390B41094E
:105680005109A285B3850E94A93E20853185442712
:1056900037FD4095542F0E94063F2115310581E0CA
:1056A0004807510524F457FD05C0C90108958FEF3F
:1056B0009FEF089580E090E00895DF92EF92FF92CF
:1056C0000F931F93CF93DF93EC012A813B81241723
:1056D000350720F4FA01E21BF30B03C0F901E41BC8
:1056E000F50B8C819D81969587958E179F0770F598
:1056F000888199818617970720F4FB01E81BF90B35
:1057000003C0FC01E61BF70BEF2B01F12417350753
:1057100038F48A01021B130B7B01E81AF90A06C050
:105720007C01E61AF70A8901041B150BC7010E94C8
:105730004F2ED82E888599850E944F2ED81206C0EC
:105740001D830C83F986E8861B870A87DF91CF913A
:105750001F910F91FF90EF90DF9008950F931F938B
:10576000CF93DF93EC018B019A01A885B9850E9444
:10577000A23E2A853B8540E050E00E94063FC801DA
:10578000A0E0B0E082179307A407B5071CF41F82BE
:105790001E8204C0021B130B1F830E83DF91CF9167
:1057A0001F910F910895EF92FF920F931F93CF9344
:1057B000DF93EC018B017A010E945D2BA701B801F8
:1057C000CE01DF91CF911F910F91FF90EF900C943C
:1057D000AE2B8233910510F482E390E090937D0329
:1057E00080937C03089580911A03813029F480917D
:1057F0007C0390917D03089580E090E0089580916E
:105800007A0390917B03089520911F03213041F08A
:1058100041E020917C0330917D038217930708F0CB
:1058200040E0842F08952CE0829FC00111246091F4
:105830001C03885D9C4F0C94F82A60911C0380E740
:1058400093E00C94F82ACF93DF9300D000D0CDB72B
:10585000DEB782E10E943A089A83898383E10E943D
:105860003A0829813A81281B390B3A83298387E139
:105870000E943A089C838B83CE0101960E94DD2A08
:105880000F900F900F900F90DF91CF9108959B0193
:105890008130910531F090937903809378034093A0
:1058A0001B0330937B0320937A0360919E037091D6
:1058B0009F03C9010E94D03E70937D0360937C03D7
:1058C0002233310530F482E390E090937B038093A0
:1058D0007A036233710530F482E390E090937D03A4
:1058E00080937C030895EF92FF920F931F93CF93C1
:1058F000DF9391E090931A03FF24F3948F3009F023
:10590000F12C80931C030E94DA0820917C033091D3
:105910007D0340917803509179030F2DBC0188E6F7
:1059200093E00E94122B0E94C60D80931D0380916C
:105930007803909179030E941210EC0110E08CE042
:10594000E82E80911D03181798F4812F0E94030EF2
:10595000BC0120917C0330917D03E19EC0011124A4
:105960000F2DAE01805E9C4F0E94122B1F5FE9CF6E
:1059700010921F0310921E03DF91CF911F910F9180
:10598000FF90EF9008950F931F93CF93DF93082F0D
:10599000EB0180911B038823B1F020917C033091AF
:1059A0007D03203A310510F420EA30E02C173D0742
:1059B00010F41092600280911F03813021F00E9448
:1059C000A70F80931A0380911A03813011F58091FB
:1059D0001F03823041F411E020917C0330917D035C
:1059E000C217D30708F010E00E94F32B8C179D0715
:1059F00070F0111102C0002351F090911E0381E05C
:105A0000890F80931E0381E09A3020F402C0109227
:105A10001E0380E0DF91CF911F910F9108950F93A6
:105A20001F93CF93DF93EC010E94DA08AE01BC0113
:105A300088E693E00E94D32B10E00CE080911D03D8
:105A4000181770F4812F0E94030EBC01019FC00142
:105A50001124AE01805E9C4F0E94D32B1F5FEECFBE
:105A6000DF91CF911F910F910895CF92DF92EF9226
:105A7000FF920F931F93CF93DF9360917803709100
:105A8000790388E693E00E94372B8C01809178039C
:105A9000909179030E9412107C01D12C9CE0C92EB8
:105AA00080911D03D81698F4CD9CE0011124C05EAE
:105AB000DC4FB701CE010E94372B0817190728F0D9
:105AC000B701CE010E94372B8C01D394E9CFC801D6
:105AD000DF91CF911F910F91FF90EF90DF90CF90CA
