:100000000C9410050C9438050C9438050C943805A4
:100010000C945C3B0C9438050C9438050C94380512
:100020000C9438050C94983B0C94A1060C9438055C
:100030000C9438050C942F3C0C94643C0C943805BB
:100040000C94C5060C9438050C9438050C943805AE
:100050000C943805821669166B166D167416801688
:100060007A167C16BA23A223A423A623A823AA23A4
:10007000AC23B023B223B523B723C823BC23BE23AC
:10008000C023C423C623C223CA23FA29252A002A4F
:10009000032A072A0D2A102A152A192A1D2A1F2A7F
:1000A000FA29032A072A212A1D342034293432341C
:1000B000343438343B34DF36E336E536EA36ED3671
:1000C000EF36F436F736FA36FD36003703370637A3
:1000D0000B37113716371D372037233728372B3783
:1000E00058375C375F376437663769376E37703734
:1000F000743778377E378237843788378E3793372F
:10010000973799379D37A337A7378438863888388B
:100110008C388C388A3890388E380000000080C6C1
:100120004E5A000000007C6B083100000000000007
:100130000000000000000000000000000000C0AE51
:100140004E5AFC5350143FA0540B0000000000BB5B
:10015000C43680186009DC3770170000000000000A
:1001600000000000000044C4FA0E0000000000C4BB
:10017000FB0E0000000068C4FD0E00000000AAC5D0
:10018000160F0000000040C6190F0000000040C715
:100190002D0F000000000000000000000000000023
:1001A0000000FF0000000005040000040900FF013A
:1001B00001000105050001040A00FF02020002051A
:1001C000060002040B00FF030300030507000304FD
:1001D0000C00FF0000000405110204040D00FF01E3
:1001E00001000505110405040E0006051101FF02BA
:1001F0000200070511085C0DA60DAD0E4368656190
:100200006C692D43686172676572206D0076302ECF
:1002100033336D5F323031343130313700210200F9
:10022000006F7074696F6E730001000100010001BE
:100230000001000A00640001000300080009000A30
:10024000000B000C00010002000400060008000A78
:10025000000C006D5600206E6F0079657300496ECA
:1002600066006D696E2E00756E6C696D697400753F
:100270006E6C696D6974656400BA02B502B002AB58
:1002800002A602A1029C02970292028D024E695AB6
:100290006E004C343335004C343330004C69706F91
:1002A000004C696C6F004C6966650050622020004C
:1002B0004E694D48004E69436400556E6B6E0000F8
:1002C000980898086C0710275802019808F4016CE8
:1002D000070100E001029808F4016C070100E00149
:1002E000039808DC006C070600E0010498089808F1
:1002F0006C070300780005980898086C07030078DD
:100300000006980898086C0703007800079808987A
:10031000086C070300780008980898086C07030029
:10032000780009980898086C07030078000100011C
:10033000000100010000000100B0041C075203008E
:100340000008075203B0044006E80300000807E86D
:1003500003D0079209D606000000006C07E40C10D9
:100360000ED007E40C0000B80B100E0410C409A650
:100370000E0000AC0D740E6810B80B0A0F00008957
:100380000C740ECC10B80B0A0F0000890C740EFE12
:1003900010B80B0A0F0000890C40066C07140540CA
:1003A00006000078054E616D653A00456469742069
:1003B0006E616D653A0006040104FC03F703F20365
:1003C000EB03DF03D503CA03000052657365742095
:1003D0006E616D650045646974206E616D650043F2
:1003E0007265617465206E616D6500546C696D3A6B
:1003F000200049643A200049633A200043683A20CB
:1004000000563A2020004261743A20200043616C7B
:100410002E6572722E2020463A002500202D2D3A9E
:100420002D2D0020200020002000252000524556C0
:100430004552534520504F4C415249545900706C1D
:10044000656173652063616C2E004E2F4100646509
:100450006C746120543D20004E2F41005465787427
:100460003D0064656C746120563D20006D617856D6
:100470006F75743D006E6F2064542F740045727266
:100480006F723A0054696D653A200070726F67723E
:10049000616D20636F6D706C6574650054696E7476
:1004A0003D002D00546578743D005662616C2E3D10
:1004B00000566F7574203D00206C696D69743D00B5
:1004C00056696E7075743D00776972657320523D90
:1004D00000626174742E20523D00202000622000D2
:1004E00074696D653A2020202020004C696D697484
:1004F000733A20006D4168003C20006D4120006D82
:1005000041200020202D2D20200043684342426CD2
:100510004469464353745342436844694359637979
:10052000436844694650435045420064542F647404
:10053000002D64560056206C696D697400FD23F12E
:1005400023012493248E24A424F924F42420258731
:100550002555255B25C3255726CF256326602674A0
:1005600026534D505320646F776E00534D505320E7
:10057000757000000B0C0D0E0F23060206F605D455
:1005800005C705000007080A0F23060206D405C7A1
:100590000500000001020304090F230614060C06DF
:1005A0000206F605D405C705000000010203040594
:1005B00006090F230614060C060206F605EE05DFF3
:1005C00005D405C705000065646974206261747410
:1005D00065727900443E4320666F726D61740073EA
:1005E000746F726167652B62616C616E6300737416
:1005F0006F7261676500666173742063686172671A
:1006000065006469736368617267650062616C614B
:100610006E6365006368617267652B62616C616E11
:10062000636500636861726765000106070F050076
:1006300002120607090A0D0E0F0405000212060732
:10064000090A0D0E0F04051303000607040F050029
:1006500002120607090A0D0E0F0405130300021209
:10066000110D0E0F040513030002120C10110D0ED4
:100670000F04051303004558542054206C696D691C
:10068000740054696D65206C696D69740043415054
:10069000206C696D697400494E50555420560048CD
:1006A00057204641494C555245004F5645524C4FF4
:1006B0004144206572720042414C20627265616B58
:1006C00000424154206469736300494E5420540031
:1006D00020436F6E6E656374204261747465727935
:1006E00000436F6E6E656374204261747465727945
:1006F000210000010207FA060000566D696E75734D
:100700003A0056706C75733A200017071007000006
:1007100076616C75653A0074656D703A20002D073E
:1007200024070000706F696E7420322E00706F69AC
:100730006E7420312E0044073C07000044415441B0
:100740003A20200076616C75653A20003200E8039B
:100750003200881367076007000073076C0700000A
:10076000313030306D410035306D41003530303042
:100770006D410035306D410006090A0B0C0D0E0667
:100780001F20212223241312CC07C607C007BA0753
:10079000B407AE07A807A2079C070000566F757440
:1007A0003A0056312D363A005662363A20005662EB
:1007B000353A20005662343A20005662333A20001F
:1007C0005662323A20005662313A200056696E3A3B
:1007D00020002A08210815080908FD07F107E2078B
:1007E00000006578706572742044414E474552217F
:1007F0000063616C69622D3E554152540074656D11
:100800007020696E7465726E0074656D7020657815
:100810007465726E0049206469736368617267650C
:1008200000492063686172676500766F6C74616768
:100830006500520848083A08000072657365742024
:1008400064656661756C740063616C696272617481
:10085000650073657474696E67730080250000001D
:100860004B00000096000000E1000000C2010046BD
:100870000088137017000070176400010005000F56
:100880000005001E0001000A007800581B0000014E
:10089000000100080000000000000000000000430C
:1008A0002F6D00CC08C508BF08B608AD0865787480
:1008B0002E20416463006578742E206465620064B4
:1008C00065627567006E6F726D616C00646973615B
:1008D000626C656400E009D509CA09BE09B309ACB8
:1008E00009A00996098C098009740968095B0951F6
:1008F0000946093D09310925091B0914090C090399
:1009000009000020202072657365740073706565AE
:10091000643A2000554152543A200062616C2E2006
:100920006572723A00666F7263652062616C3A208C
:10093000006469732061677265733A2000646973AB
:100940006368202B3A00696E707574206C6F773A7B
:100950000063617020434F66663A006D696E2E49F0
:100960002049203D20492F00626565703A202020F3
:1009700020202000776173746520542E3A202000D7
:10098000442F43206379636C65733A004E69436476
:10099000202D64563A004E694D48202D64563A0089
:1009A000656E6162202D64563A20200064542F64E5
:1009B000743A00657874726E2054434F3A0065783B
:1009C00074726E20543A202020006469736368209A
:1009D0006F66663A0066616E206F6E3A20202000D6
:1009E0006261636B6C696768743A00141719181AAE
:1009F0000705061F20212223247265736574696E22
:100A00006720656570726F6D3A00763A20382E3532
:100A1000312E35362000F405E510CD236E2A9B3D9E
:100A200011241FBECFE5D8E0DEBFCDBF10E0A0E6A9
:100A3000B0E0E6EBFEE702C005900D92AE3EB107D6
:100A4000D9F714E0AEEEB0E001C01D92A23FB107AD
:100A5000E1F71AE0C0E2DAE004C02297FE010E944A
:100A6000E03EC631D107C9F70E94E0100C94593F0F
:100A70000C940000CF92DF92EF92FF92482F282F24
:100A800030E0A0E0BDE70E944C3E6B017C01A4E693
:100A9000B0E0A41BB10924E630E00E945B3E6C0D7F
:100AA0007D1D8E1D9F1D24E630E040E050E00E9439
:100AB0009D3EB9018DE0FF90EF90DF90CF900C94B8
:100AC000053C882311F0909A08959098089580919C
:100AD000F500882331F08091EE008F5F8093EE0067
:100AE00002C01092EE008091F5008A3010F480E090
:100AF00001C084E09091F500943108F082E090917B
:100B0000F5009E3108F081E09091EE00982311F0FD
:100B1000979A0895979808952091A1033091A20380
:100B2000232B11F08093F5000895811102C0939A50
:100B3000089593980895811102C0969A0895969801
:100B40000895811102C0929A089592980895BC0167
:100B50008EE00C94053CBC018EE00C94053C80FFBB
:100B600002C0C09A01C0C09881FF02C0C19A01C0F2
:100B7000C19882FF02C0C29A01C0C29883FF02C01E
:100B8000C39A01C0C39884FF02C0DE9A01C0DE98F8
:100B900085FF02C0DF9A0895DF9808958C9A8B9A9A
:100BA000889A8F9AB89AB99ABA9ABB9AD69AD79ACB
:100BB0008D9A8E9A8D9A8A9A80E00E94950580E09F
:100BC0000E94610580E00E948C0580E00E94AF05D4
:100BD00020E042E060E18FEE90E00E946E170E94FC
:100BE0001B3C0C94F80508958FEE90E00C94BF1711
:100BF000D598D498DD98DC98BF9ABE9ABD9A80B7F4
:100C0000806680BF8FEA86B91092F7000C948C3B07
:100C100087FD21C04091660050E0682F772767FD6F
:100C2000709564177507B9F08093660098B3282F04
:100C3000217030E0220F331F220F331F82FB332736
:100C400030F9232B8270282B80E228029001112496
:100C50009F71922B98BB089584B145B12091F70004
:100C600030E0F901EE0FFF1FEE0FFF1FEC55FE4FB6
:100C70009491F901EE0FFF1FEE0FFF1F913171F0FC
:100C80002FB7F894E92FF0E0EE0FFF1FE253FE4F6D
:100C900090E0942B918380832FBF0895EB55FE4FF6
:100CA000E4918091F60047FD02C0E82B02C0E09578
:100CB000E823E093F60008951092F70008950E944B
:100CC000B9269093ED018093EC010E94AA2790939E
:100CD000EF018093EE010C94320AE091F700EF5F90
:100CE000E53108F0E0E084E0E89FF0011124EE55E2
:100CF000FE4F84910C940806CF93C091F70081E0D9
:100D0000C11101C080E00E942C06E1E0EC0FE5314A
:100D100008F0E0E0E093F70084E0E89FF0011124A0
:100D2000ED55FE4FE491E062E7B98091F700811143
:100D300003C0CF910C945F06CF9108958091F60087
:100D400008951F920F920FB60F9211242F933F9385
:100D50004F935F936F937F938F939F93AF93BF93C3
:100D6000EF93FF930E946D06FF91EF91BF91AF91BA
:100D70009F918F917F916F915F914F913F912F91B3
:100D80000F900FBE0F901F9018951F920F920FB6E5
:100D90000F9211242F933F934F935F936F937F9301
:100DA0008F939F93AF93BF93EF93FF930E947C0623
:100DB000FF91EF91BF91AF919F918F917F916F9133
:100DC0005F914F913F912F910F900FBE0F901F9009
:100DD00018952FB7F8946091F8007091F900809100
:100DE000FA009091FB002FBF08950E94142F0E94DB
:100DF0003B3A0E9424280E9494380C94BE0C8091A7
:100E0000F8009091F900A091FA00B091FB000196D2
:100E1000A11DB11D8093F8009093F900A093FA00F2
:100E2000B093FB0080916700815019F080936700B8
:100E3000089581EE809367000E94190A0C94EC22B9
:100E40000E94E90696958795779567950895CF92C4
:100E5000DF92EF92FF92CF93DF93EC010E94200785
:100E60006B017C01CC0EDD1EE11CF11C0E942007F1
:100E70006C157D058E059F05C8F3DF91CF91FF901E
:100E8000EF90DF90CF900895CF92DF92EF92FF9294
:100E9000CF93DF93EC010E9420076B017C01CC0E05
:100EA000DD1EE11CF11C0E9420076C157D058E05DE
:100EB0009F0518F40E94F506F6CFDF91CF91FF90C1
:100EC000EF90DF90CF900895E82FF0E0EE0FFF1F36
:100ED000E455FE4F808191810895E82FF0E0EE0FF8
:100EE000FF1FEE59FE4F8081918108952FB7F8942E
:100EF000E82FF0E0EE0FFF1FE253FE4F808191815B
:100F00002FBF089580913602089580911601909127
:100F10001701089580910401909105010895809131
:100F20000601909107010895E82FF0E0EE0FFF1FF2
:100F3000E85EFE4F808191810895262F613110F483
:100F4000423040F021E030E0FC01338322833183E2
:100F50002083089550E0BA01620F711D620F711D68
:100F6000660F771F660F771F665F7F4F44E050E084
:100F70000C94143F282FCA01213188F4623078F490
:100F800070E0620F711D620F711D660F771F660F93
:100F9000771F665F7F4F44E050E00C94323F089526
:100FA000FF920F931F93CF93DF9300D000D0CDB764
:100FB000DEB70AE111E0F12CF801459155916591F8
:100FC000749149835A836B837C83AE014F5F5F4F7B
:100FD00060E08F2D0E94BA07F80134964591559133
:100FE0006591749149835A836B837C83AE014F5F13
:100FF0005F4F61E08F2D0E94BA07F394085F1F4F87
:1010000081E1F812D9CF0F900F900F900F90DF91E0
:10101000CF911F910F91FF90089580918A01909137
:101020008B01089580919001909191010895809194
:10103000400190914101039750F0809146019091B9
:101040004701039720F083E090E00C94E00D80E0EE
:1010500008958FB7F894E0EFF1E011921192119298
:10106000119292E0E433F907C1F710923502109221
:1010700034028FBF0895CF93CFB7F8941092150123
:10108000109214011092100110921101109212018D
:101090001092130110920C0110920D0110920E018A
:1010A00010920F01109208011092090110920A018A
:1010B00010920B010E9420076093000170930101C0
:1010C0008093020190930301CFBFCF910895CF93F6
:1010D000DF930E9429080E943B08C0911601D0911D
:1010E00017018091160190911701C817D90729F4AB
:1010F0008AE090E00E944407F4CFDF91CF910895F9
:101100000E943B08109207011092060110920501FF
:10111000109204010895E8E1F1E01192119281E04A
:10112000E236F807D1F708950E9429080E943B088B
:101130000C948B088FB7F8941092FC001092FD006D
:101140001092FE001092FF008FBF109217011092B4
:1011500016010E945C060E9494080E948008E2E644
:10116000F1E01192119281E0EC3AF807D1F708957D
:101170008091360281110AC081E00E9495050E948B
:101180009A0881E0809336020C94670808951092C3
:10119000360280E00C949505CF93DF9381E00E94A6
:1011A0007607EC0180E00E9476078C179D0718F403
:1011B000C81BD90B02C0C0E0D0E081E0C93ED340DB
:1011C00008F480E0DF91CF9108958F929F92AF92C3
:1011D000BF92CF92DF92EF92FF92CF93DF93CDB782
:1011E000DEB728970FB6F894DEBF0FBECDBFF82E3E
:1011F0005B0161157105D1F140E0682FCE010596C4
:101200000E949D0741E06F2DCE0101960E949D072F
:101210002B813C8140E050E0CF80D884E12CF12C40
:101220002C193D094E095F09B50180E090E08D80E1
:101230009E80A12CB12C681979098A099B090E940A
:101240006D3E29813A8140E050E0281939094A0968
:101250005B090E94BF3E2C0D3D1D4E1D5F1D57FFBB
:1012600003C020E030E0A901C90102C080E090E0A5
:1012700028960FB6F894DEBF0FBECDBFDF91CF9199
:10128000FF90EF90DF90CF90BF90AF909F908F90A6
:1012900008958F929F92AF92BF92CF92DF92EF927A
:1012A000FF92CF93DF93CDB7DEB728970FB6F894B0
:1012B000DEBF0FBECDBFF82E5B0161157105D1F108
:1012C00040E0682FCE0105960E949D0741E06F2DFA
:1012D000CE0101960E949D0729813A8140E050E0AD
:1012E000CD80DE80E12CF12C2C193D094E095F09DF
:1012F000B50180E090E08F809884A12CB12C681912
:1013000079098A099B090E946D3E2B813C8140E04E
:1013100050E0281939094A095B090E94BF3E2C0D8B
:101320003D1D4E1D5F1D57FF03C020E030E0A901A9
:10133000C90102C080E090E028960FB6F894DEBFA5
:101340000FBECDBFDF91CF91FF90EF90DF90CF9098
:10135000BF90AF909F908F9008950C949A08825000
:10136000893130F4E82FF0E0E658FF4F808108958E
:1013700081E00895CF93DF93E82FF0E0EE0FFF1F99
:10138000EE59FE4FC081D1810E94AF09882319F028
:10139000813029F00AC081E0E39740F404C081E085
:1013A000C935D24018F480E001C081E0DF91CF91CF
:1013B0000895CF93C0E08FE18C0F0E94BA09882373
:1013C00029F0CF5FC630B9F786E001C08C2FCF91EE
:1013D00008951F93CF93DF931F92CDB7DEB7182FD9
:1013E00069830E94AF09E12FF0E0EE0FFF1FEE5975
:1013F000FE4F4981682F808191810F90DF91CF91BD
:101400001F910C9457162FB7F8946091FC007091BF
:10141000FD008091FE009091FF002FBF2DE730E08E
:1014200040E050E00E949D3EBB27A52F942F832FC4
:10143000089520919001309191018091FC0090914C
:10144000FD00A091FE00B091FF00820F931FA11D2F
:10145000B11D8093FC009093FD00A093FE00B0931B
:10146000FF000895CF93DF9380913602882309F41B
:1014700074C0209134023091350224363105E0F4F5
:10148000EEECF1E0C0EFD1E041915191888199817A
:10149000AA81BB81840F951FA11DB11D89939993CA
:1014A000A993B99381E0E03FF80771F72F5F3F4FB1
:1014B00030933502209334022091CE013091CF0138
:1014C0008091100190911101A0911201B09113012E
:1014D000820F931FA11DB11D8093100190931101E4
:1014E000A0931201B09313012091D0013091D1014A
:1014F00080910C0190910D01A0910E01B0910F010E
:10150000820F931FA11DB11D80930C0190930D01BB
:10151000A0930E01B0930F012091DC013091DD0109
:101520008091080190910901A0910A01B0910B01ED
:10153000820F931FA11DB11D809308019093090193
:10154000A0930A01B0930B018091140190911501B1
:1015500001969093150180931401DF91CF91089526
:1015600090E0880F991FFC01EE59FE4F20813181D8
:101570006217730718F4261B370B04C0AB01421B1C
:10158000530B9A01FC01E85EFE4F2730310518F03D
:101590001182108206C0208131812F5F3F4F31833D
:1015A0002083FC01EE59FE4F718360830895AF9252
:1015B000BF92CF92DF92EF92FF920F931F93CF9340
:1015C000DF931F92CDB7DEB7A0906201B0906301A8
:1015D00080916401909165018A159B0518F4A81A01
:1015E000B90A02C0A12CB12CB50182E10E94B00A57
:1015F00004E711E09FE1F801619171918F01892F5A
:1016000099830E94B00A99819F5F9532A1F70E9449
:10161000D909F82E80E000E010E08F1569F0EFE1C5
:10162000E80FF0E0EE0FFF1FEE59FE4F20813181F1
:10163000020F131F8F5FF1CFB80183E10E94B00A40
:101640000115110581F00A151B0520F49501201BD9
:10165000310B03C098012A193B09293E334018F485
:10166000580113E102C012E1F12CB50184E10E949E
:10167000B00A6F2D70E086E10E94B00A612F70E021
:1016800085E10E94B00A0E94030A8C010E949B27F8
:10169000882329F0E0906801F09069010BC00E9456
:1016A000AA26882329F0E0906601F090670102C025
:1016B000E12CF12CB70187E10E94B00AB80189E161
:1016C0000E94B00A9701D5010E944C3E30E1C32E22
:1016D00037E2D32EE12CF12CA70196010E949D3E0A
:1016E000B90188E10E94B00A9801D5010E944C3EE0
:1016F000A70196010E949D3EB9018AE10F90DF91FA
:10170000CF911F910F91FF90EF90DF90CF90BF90FE
:10171000AF900C94B00ABF92CF92DF92EF92FF92FB
:101720000F931F93CF93DF932FB7F89480913402D8
:10173000909135022FBF84369105C1F58091160135
:10174000909117010196909317018093160100EF75
:1017500011E0CCEAD1E0B12C54E6C52ED12CE12C1D
:10176000F12CF80161917191819191918F01A70103
:1017700096010E949D3E29933993B9018B2D0E94B9
:10178000E508BC018B2D0E94B00AB394F1E1BF12B1
:10179000E8CF0E94D70ADF91CF911F910F91FF9060
:1017A000EF90DF90CF90BF900C942908DF91CF91FC
:1017B0001F910F91FF90EF90DF90CF90BF90089511
:1017C0004F925F926F927F928F929F92AF92BF9251
:1017D000CF92DF92EF92FF920F931F93CF93DF93FD
:1017E000CDB7DEB728970FB6F894DEBF0FBECDBFDA
:1017F0000E942007C0900001D0900101E0900201FA
:10180000F09003016C197D098E099F0961337547BA
:101810008105910508F49BC02FB7F894009114013D
:10182000109115014090100150901101609012012B
:101830007090130160910C0170910D0180910E0167
:1018400090910F018090080190900901A0900A01E9
:10185000B0900B012FBF6D837E838F8398870E948A
:101860003B0820910601309107012F5F3F4F3093D5
:101870000701209306016801E12CF12C6D817E8126
:101880008F819885A70196010E949D3E29833A8306
:101890004B835C83C301B201A70196010E949D3E68
:1018A000B90180E00E94E5083C0169817A8181E00C
:1018B0000E94E5088615970518F4681A790A02C08F
:1018C000612C712C40909A0150909B016414750416
:1018D00020F0B3018CE10E94B00AB30164197509CC
:1018E0008BE10E94B00AC501B401A70196010E94D4
:1018F0009D3EB90187E00E94E508209104013091E6
:1019000005019093050180930401BC01621B730BD8
:10191000660F771F8DE10E94B00AB8018EE128960C
:101920000FB6F894DEBF0FBECDBFDF91CF911F91F0
:101930000F91FF90EF90DF90CF90BF90AF909F906E
:101940008F907F906F905F904F900C94B00A289684
:101950000FB6F894DEBF0FBECDBFDF91CF911F91C0
:101960000F91FF90EF90DF90CF90BF90AF909F903E
:101970008F907F906F905F904F9008950E948B0B97
:101980000C94E00B1092FC001092FD001092FE00EF
:101990001092FF000C94940880915D02089580914C
:1019A0005B02811113C00E948207882381F00E948C
:1019B00085072091370230913802821B930B9C01DE
:1019C00081E02530310518F080E0089581E0089528
:1019D000815E0C946D070F931F93CF93DF9310E0FC
:1019E000CFEFDFEF00E080915D02181760F4812FE8
:1019F0000E94E80C8C179D0710F0CE0101C0012F4A
:101A00001F5FEC01F0CF802FDF91CF911F910F91DD
:101A10000895CF93DF9390915B02911104C0DF9101
:101A2000CF910C94E80C90914102C82FD0E09923FB
:101A300091F00E94E80CCC0FDD1FFE01EE5BFD4F24
:101A4000C25BDD4F2081318148815981241B350BD8
:101A5000280F391F07C0FE01EE0FFF1FEE5BFD4F81
:101A600020813181C901DF91CF910895CF93C82F93
:101A700080915B02882341F0C11106C00E94850756
:101A80009093380280933702C0935B020E94200734
:101A90006093390270933A0280933B0290933C0228
:101AA0000E948B0880915A02811104C08C2FCF9123
:101AB0000C94AF05CF910895EF92FF920F931F936F
:101AC000CF93DF9381E00E94F30586E10E946D07CA
:101AD00080935D020EE412E032E4E32E32E0F32E56
:101AE000C0E0D0E080915D0290E0C817D9076CF4A7
:101AF0008C2F0E94E80CF801819391938F01F701DC
:101B0000819391937F012196EDCF10925B02109209
:101B10005A0280E00E94360D10923802109237026D
:101B20001092390210923A0210923B0210923C023B
:101B3000DF91CF911F910F91FF90EF90089580E07A
:101B40000E94360D81E080935A0208950E949F0DF5
:101B500080E00C94F305FF920F931F93CF93DF93D4
:101B600080915C020E94090DEC01F12C01E010E073
:101B700080915D02F816E8F48F2D0E94090DAC01EA
:101B800080915B02802321F0C417D50778F40DC043
:101B90002091AF033091B0032F5F3F4F36952795CB
:101BA0002C0F3D1F2417350708F4102B000FF3945A
:101BB000DFCF812FDF91CF911F910F91FF9008957B
:101BC0001F93CF93DF93EC0110E080915D02181713
:101BD00048F48FE1810F0E9494078C179D0720F035
:101BE0001F5FF3CF81E001C080E0DF91CF911F91B3
:101BF0000895BF92CF92DF92EF92FF920F931F93BF
:101C0000CF93DF938AE090E00E94E00D882309F4EF
:101C100060C00E94EB0C80935C020E94E80C8C0177
:101C200062E08DE692E00E94BF190817190748F19B
:101C300072E4E72E72E0F72EEEE4CE2EE2E0DE2E26
:101C4000C0E0D0E0BB24B39480915D0290E0C8175F
:101C5000D907CCF48C2F0E94E80CF7018193919363
:101C60007F01F601819391936F01801B910B20916D
:101C7000AF033091B0032817390708F4B12C21962F
:101C8000E3CFBB24B394109241020E9420076093DB
:101C90003D0270933E0280933F0290934002BB202E
:101CA00059F0DF91CF911F910F91FF90EF90DF904E
:101CB000CF90BF900C949F0D0E94AB0DDF91CF9100
:101CC0001F910F91FF90EF90DF90CF90BF900C94F9
:101CD000360DDF91CF911F910F91FF90EF90DF9024
:101CE000CF90BF900895CF9380914102811119C088
:101CF00081E08093410280915C020E94E80CC0E088
:101D000080915D02C81768F48C2F0E94E80CEC2FBC
:101D1000F0E0EE0FFF1FE25BFD4F91838083CF5F0A
:101D2000EFCFCF9108950F931F930E94200700914A
:101D30003D0210913E0220913F0230914002601B13
:101D4000710B820B930B28EE33E040E050E00E94D1
:101D50009D3EC9011F910F91089583E090E00E947C
:101D6000E00D8823C9F080915B02811103C00E94BD
:101D7000F90D12C00E94730E0E94AB0D90E0809589
:101D8000909520915B0230E082239323892B81F48C
:101D90000E94930E4F9760F40E94CF0C882311F09D
:101DA00082E0089580915A028823D1F381E008955A
:101DB00080E00E94360DF0CF1F93CF93DF93EC01AC
:101DC00010E080915D02181780F4812F0E94E80CCA
:101DD0008C179D0710F081E009C0812F0E94090D2A
:101DE0008C179D07C0F71F5FECCF80E0DF91CF918C
:101DF0001F9108951F93CF93DF93EC0110E0809122
:101E00005D02181780F4812F0E94E80CC817D907CB
:101E100010F081E009C0812F0E94090DC817D90771
:101E2000C0F71F5FECCF80E0DF91CF911F91089545
:101E300060915D02662329F070E00E94893ECB012B
:101E4000089580E090E008950E947D1285E00E9450
:101E5000CF370E94C7080E9448200E94E92E88239D
:101E600041F00E94B80888E00E94CF3781E00C94CE
:101E700095050E94031F0E94E92E882361F3F1CF8C
:101E80000E947D120E94562086E00E94CF370E9459
:101E9000E02E88E00C94CF37E0915E02F0915F0273
:101EA0008591949110926002FC010994E0915E0288
:101EB000F0915F02329685919491FC010994E09132
:101EC0005E02F0915F02349685919491FC01099431
:101ED000CF93DF931F92CDB7DEB7811109C00E9467
:101EE000581F0E94560F0E94C7080E94400F0FC043
:101EF000813059F469830E94581F0E94560F6981EE
:101F0000611105C00E94240F02C081E001C080E081
:101F10000F90DF91CF9108957F928F929F92AF9211
:101F2000BF92CF92DF92EF92FF920F931F93CF93C6
:101F3000DF93EC01A62E0E944C0F0E943A1F0E94D4
:101F4000462F0E947D12D12C82E0B82EE12CF12C7C
:101F5000CC24C39492E0992E8824839423E0722E9B
:101F60000E94AE37811106C0FE01ED0DF11D849176
:101F70000E9493230E940B12182F883051F40E9464
:101F8000DC118111A8C080916002823008F0A3C0EA
:101F9000A5C080916002813021F4111102C090929D
:101FA000600280916002823008F461C0FE01ED0D94
:101FB000F11DE491E23051F018F4E130E9F154C040
:101FC000E330A9F1E33109F445C04EC0829915C050
:101FD000123019F46FEF7FEF04C0143071F461E038
:101FE00070E08DE692E00E94131B60917202709186
:101FF000730281E090E00E94DB2486994AC012308F
:1020000019F46FEF7FEF05C0143009F042C061E0B2
:1020100070E08DE692E00E94FA1A60917002709171
:10202000710241E081E090E00E94002532C0869B71
:1020300058C0829B56C02DC0123019F46FEF7FEF4D
:1020400004C0143031F561E070E08DE692E00E944A
:102050003C1B1FC0123019F4709260021AC0143079
:10206000C1F41093600215C01092600212C01430C7
:1020700049F4ED2DF0E03196EC0FFD1FE491E111F4
:1020800048C007C0123029F4DD2019F00E94532106
:10209000DA94CC2081F00E94632FB82E6A2D0E9422
:1020A000680FC82E882339F00E948507E816F906C4
:1020B000A1F5C11003C0A1103BC0C12C113009F023
:1020C0004FCF0E94DC11882309F44ACF0E94581F89
:1020D0000E94560F2DC01092600263CF8092600262
:1020E00060CF123041F40AE020E030E048EE5DEFCE
:1020F0006FEF7FEF09C0143061F60AE020E030E0B6
:1021000048EE5DEF61E070E083E893E00E94732E9B
:10211000C0CF0E945321D394BCCF0E9485077C017D
:102120000E945F0FB82E6A2D0E94680FC82EC1CF83
:102130008B2DDF91CF911F910F91FF90EF90DF904A
:10214000CF90BF90AF909F908F907F90089560E068
:1021500081E692E00E94ED1887FD0AC0811102C05D
:102160000C94CA34992787FD909501970C94302AD6
:10217000089578940E94CE050E94803B0E9490278B
:102180000E941D280E94AD090E94D73D0E94223561
:102190006DE072E08CEF91E00E942B2088EE93E0DE
:1021A0000E94270780E00E940A3B0E94DD15809173
:1021B000B5039091B603079710F40C94A4200895EA
:1021C0000E94B9100E94A710FDCF6DE172E081E678
:1021D00092E00E94FF1787E990E09093620280935B
:1021E0006102E5E6F2E08081805E80830895FC0173
:1021F00024812052621710F40C94F217862F90E07D
:10220000821B91090E94861A6EE00C94C013CF9332
:10221000DF93EC010E9475128B819C810E94BD139B
:102220000E9479126A8188819981DF91CF910C9403
:102230005513FC0187818F3118F48F5F87830895D0
:1022400086818F5F86830895FC018781882319F03A
:1022500081508783089586818150868308950F93E6
:102260001F93CF93DF93FC01C681D0E06D2F80E0F8
:102270000E946F1210E11C0F01E00C0F8C2F0E94C6
:102280000E14011711F0C02FF7CFDF5FD23011F01D
:10229000C12FECCFDF91CF911F910F9108951F9324
:1022A000CF93DF93EC018FEE90E00E9432171FEF87
:1022B0008E81181721F0CE010E942F111E818F816F
:1022C000682F70E094E0759567959A95E1F78F70A7
:1022D0000E946F120E940B12823049F0843019F074
:1022E000813049F413C0CE010E941911E1CFCE0113
:1022F0000E942411DDCF8830D9F68D81E881F981E3
:10230000E80FF11D8F819E81890F8083DF91CF912E
:102310001F910895FC01718360834283348323837A
:10232000158280E2868317820895CF93DF93EC01B4
:102330008FEE90E00E9432170E947D12CE010E9423
:10234000071161E08D810E946F120E940B12823092
:10235000B1F0843041F08130C1F48FEE90E00E9402
:102360002B1780E026C04D81242F30E08A8190E039
:102370000197281739072CF74F5F4D83E2CF8D81E6
:102380008823F9F281508D83DCCF8830D1F682E04A
:102390000E945E12823048F083E00E94CF378FEEB9
:1023A00090E00E942B1781E004C0CE010E944F11E3
:1023B000C3CFDF91CF91089580916B0208950C9463
:1023C0009E06E0916B02F0E0EE0FFF1FE75DFD4F10
:1023D000859194910895CF93DF93D82F0E949E0604
:1023E000C82F8D1741F082E390E00E9444070E94BD
:1023F0009E06DC2FF5CF10926B0210926A0280933A
:102400006C02882319F080E00E94DC3780916C0216
:10241000DF91CF910895FF920F931F93CF93DF9396
:10242000C0E0D0E0F12C0AEF10E040916B02242FC5
:1024300030E0F901EE0FFF1FEB5BFD4F65917491EA
:10244000C8010E94893E6F5F7F4FF901EE0FFF1FA9
:10245000C617D707A8F40E949E06F82E81E090E0E8
:102460000E94440780916C02F81641F08F2DDF9195
:10247000CF911F910F91FF900C94EB112196D5CF26
:10248000FF20A1F020916A022F5F20936A02E95C8D
:10249000FD4F8591949130E02817390738F0463088
:1024A00018F44F5F40936B0210926A0280916C02A5
:1024B000DF91CF911F910F91FF900895CF93DF93FC
:1024C000D82FC0916C020E940B1290916B029D1745
:1024D00011F08C17C1F3892FDF91CF910895462F0A
:1024E000682F8FEE90E00C94F61660E080E00C947C
:1024F0006F1261E080E00C946F128FEE90E00C940C
:10250000EF16CF93DF93FC01DB018C91882389F0D8
:10251000C081D1814883808191810196918380839C
:102520008C9181508C93882321F00190F081E02DD3
:102530001082DF91CF910895BF92CF92DF92EF92F8
:10254000FF920F931F93CF93DF93EC018B017A01DE
:102550004115510501F1CA010E94ED3EF80190813B
:10256000B82E981708F4B92ECB2CD12CA601B701A0
:10257000888199810E94F63E288139812C0D3D1D6C
:1025800039832883F80180818B198083882319F08F
:10259000E881F9811082DF91CF911F910F91FF9017
:1025A000EF90DF90CF90BF900895CF92DF92FF928F
:1025B0000F931F93CF93DF9300D0CDB7DEB76C019D
:1025C0008B01BA0180E090E049835A830E94212E5A
:1025D000F82ED8018C9149815A818F1570F44FE300
:1025E000B801C6010F900F90DF91CF911F910F910D
:1025F000FF90DF90CF900C948112F6012081318101
:102600002F0D311D31832083D8018C918F198C932C
:10261000882321F00190F081E02D1082F9012AE059
:1026200030E0FF2069F0CA01B9010E94893E405D97
:10263000BAE06B9F401911244293FA94AB01F1CF99
:102640000F900F90DF91CF911F910F91FF90DF902E
:10265000CF9008950F931F93CF93DF93CDB7DEB73D
:102660002B970FB6F894DEBF0FBECDBF8E010F5F64
:102670001F4F1A87098727E02B87AC01BE01655FD2
:102680007F4FCE0109960E94D512B8018FEE90E0DF
:102690000E94E2172B960FB6F894DEBF0FBECDBF97
:1026A000DF91CF911F910F9108950F931F93CF93B7
:1026B000DF93CDB7DEB761970FB6F894DEBF0FBEDC
:1026C000CDBF0097D1F0613108F060E1062F10E036
:1026D000A801BC01CE0101960E94053FE1E0F0E0B7
:1026E000EC0FFD1FE00FF11F1082BE016F5F7F4FE7
:1026F0008FEE90E00E94E21701C080E061960FB675
:10270000F894DEBF0FBECDBFDF91CF911F910F9127
:1027100008950F931F93CF93DF93CDB7DEB76197E3
:102720000FB6F894DEBF0FBECDBF0097D1F0613178
:1027300008F060E1062F10E0A801BC01CE0101966F
:102740000E94F63EE1E0F0E0EC0FFD1FE00FF11F0C
:102750001082BE016F5F7F4F8FEE90E00E94E21704
:1027600001C080E061960FB6F894DEBF0FBECDBF0A
:10277000DF91CF911F910F91089560E10C9489131F
:10278000CF92DF92EF92FF920F931F93CF93DF933D
:10279000CDB7DEB762970FB6F894DEBF0FBECDBFE0
:1027A000009719F1613108F060E16C018E010F5F53
:1027B0001F4F78018E2D801B861768F4C6016A8B27
:1027C0000E94243FF70181937F01FFEFCF1ADF0AB8
:1027D0006A898111EFCFF801E60FF11D1082B8016F
:1027E0008FEE90E00E94E21701C080E062960FB683
:1027F000F894DEBF0FBECDBFDF91CF911F910F9137
:10280000FF90EF90DF90CF900895882319F08AE52C
:1028100092E002C086E592E00C94BD13682F8FEE23
:1028200090E00C94C117CF93DF93D82FC0E0CD1761
:1028300029F080E20E940E14CF5FF9CF8C2FDF9138
:10284000CF91089580E10C941314CF93DF931F92DE
:10285000CDB7DEB7682F64303CF080E269830E9418
:102860000E1469816150F7CF8EE592E00F90DF91F1
:10287000CF910C9489136AE00E947D3E80E3890F1A
:102880000C940E14DF92EF92FF920F931F93CF934D
:10289000DF93EC01F62ED42E16160CF089C068EEEC
:1028A00073E00E94893E8B0180E090E00E94212E1F
:1028B00024E0E22EE80EEF142CF480E20E940E14C5
:1028C000FA94F9CFFE14E4F0D1101AC0BE0180E0F2
:1028D00090E00E94212E182FFA941F1524F480E214
:1028E0000E940E14F9CFCE010E942A138DE6DF91CB
:1028F000CF911F910F91FF90EF90DF900C940E14E9
:102900002E2D332727FD3095245031094F2D552783
:1029100047FD50954217530754F48F2DDF91CF9107
:102920001F910F91FF90EF90DF900C942514C80138
:102930000E942A13CE0168EE73E00E94893EEC01EA
:102940001F2D1E1993E0F92EF10E84E0810F181649
:102950001CF48EE20E940E1402E0010F1F1444F4D6
:10296000CE0164E670E00E94893E862F0E943B14EF
:10297000CE0164E670E00E94893EEC011F5F1016F4
:102980003CF46AE070E00E94893E862F0E943B146E
:10299000111674F4CE016AE070E00E94893EDF9166
:1029A000CF911F910F91FF90EF90DF900C943B140B
:1029B000DF91CF911F910F91FF90EF90DF900895DD
:1029C000EF92FF920F931F93CF93DF93EC01F62EBC
:1029D00016160CF059C064E670E00E94893E8B0127
:1029E00080E090E00E94212E33E0E32EE80EEF1409
:1029F0002CF480E20E940E14FA94F9CF2E2D332786
:102A000027FD3095235031094F2D552747FD50950F
:102A1000421753074CF48F2DDF91CF911F910F91E7
:102A2000FF90EF900C942514C8010E942A13CE0148
:102A300064E670E00E94893EEC010F2D0E1912E051
:102A4000100F83E0800F18161CF48EE20E940E1403
:102A5000FF24F394F00E111644F4CE016AE070E006
:102A60000E94893E862F0E943B141F146CF4CE01F5
:102A70006AE070E00E94893EDF91CF911F910F9133
:102A8000FF90EF900C943B14DF91CF911F910F9129
:102A9000FF90EF900895BF92CF92DF92EF92FF9256
:102AA0000F931F93CF93DF938C01D62EB42EC22E9B
:102AB0001616ACF52111DA94B80180E090E00E947E
:102AC000212EC82FD0E0ED2CFF24E7FCF094CE158A
:102AD000DF052CF48B2D0E940E14DA94F4CFCC2059
:102AE00019F08DE20E940E14EC16FD0664F48D2D93
:102AF000DF91CF911F910F91FF90EF90DF90CF90DA
:102B0000BF900C942514C801DF91CF911F910F91B4
:102B1000FF90EF90DF90CF90BF900C942A13DF913D
:102B2000CF911F910F91FF90EF90DF90CF90BF90CA
:102B3000089520E00C944B15CF93DF936CE370E085
:102B40000E94893E9B01EC0140E363E0C9010E94C1
:102B500099158AE30E940E1440E362E0CE01DF91F2
:102B6000CF910C94991540E20C949915292F221FAE
:102B70002227221F19F091958195910940E20C942A
:102B80004B15161634F461500E94E01483E40C9443
:102B90000E140895161634F461500E94B31585E2A0
:102BA0000C940E14089563303CF062500E94B315EB
:102BB00083E592E00C94BD130895FF920F931F9349
:102BC000CF93DF93CDB7DEB728970FB6F894DEBF6B
:102BD0000FBECDBF4EE0F42EF9821FE11A8301E152
:102BE0000B830C830D830E830F831887AE014F5F19
:102BF0005F4F60E08FEE90E00E943A17F9821A83EF
:102C00000B830C831D831E831F831887AE014F5FC8
:102C10005F4F61E08FEE90E00E943A17F9821A83CD
:102C20001B831C831D831E831F831887AE014F5F88
:102C30005F4F62E08FEE90E00E943A1728960FB641
:102C4000F894DEBF0FBECDBFDF91CF911F910F91E2
:102C5000FF9008950F931F93CF93DF93062F142FA8
:102C600064E670E00E94893EEB0180E20E940E144F
:102C700080E20E940E14C436D10548F480E20E941E
:102C80000E14CA30D10518F480E20E940E14CE0151
:102C90000E942A13802F0E940E14812F0E940E146E
:102CA00080E2DF91CF911F910F910C940E140F933E
:102CB0001F93CF93C62F1416BCF56FEF640F0C2F24
:102CC00010E00830110508F5F801E65DFF4F0C949F
:102CD000DE3E16E51BC040E201C048E667E5CF9145
:102CE0001F910F910C942A16642FCF911F910F9171
:102CF0000C94C11514EF07C00E94B61585E50FC0EE
:102D00006EEF640F11E440E002C015E541E00E945F
:102D10004214812F0E940E14C53031F488E6CF9101
:102D20001F910F910C940E14CF911F910F91089544
:102D3000462F65E00C945716462F60E00C9457160A
:102D4000462F61E00C945716462F66E00C945716F8
:102D5000AC9881E090E00E94453EAC9A81E090E022
:102D60000E94453EAC9884E690E00C94453EA39AC0
:102D7000A29AA19AA09A60FF02C0AB9A01C0AB9838
:102D800061FF02C0AA9A01C0AA9862FF02C0A99A74
:102D900001C0A99863FF02C0A89A01C0A8980C942A
:102DA000A8161F93CF93DF93EC01162F442311F045
:102DB000AD9A01C0AD98612F70E084E0759567957C
:102DC0008A95E1F7CE010E94B716612FCE01DF91FF
:102DD000CF911F910C94B71640E00C94D11661E08E
:102DE0000E94EC1680ED97E00C94453ECF93DF9364
:102DF000CDB7DEB728970FB6F894DEBF0FBECDBFB4
:102E000028E0E2E7F0E0DE01119601900D922A95AC
:102E1000E1F7FC012481421710F04FEF420FFE0151
:102E20003196E40FF11DE40FF11D2081260F20687B
:102E3000622F28960FB6F894DEBF0FBECDBFDF918C
:102E4000CF910C94EC16FC016181262F2460218324
:102E50006C600C94EC16FC0161816E7F618368608C
:102E60000C94EC16FC016181262F2160218369609E
:102E70000C94EC16CF92DF92EF92FF920F931F9378
:102E8000CF93DF9300D0CDB7DEB77C01677088E0C9
:102E9000689FB00111246064C70149835A830E946E
:102EA000EC164981C42E5A81D52E00E010E0F601BF
:102EB00061916F0141E0C7010E94D1160F5F1F4F62
:102EC00008301105A1F70F900F90DF91CF911F915E
:102ED0000F91FF90EF90DF90CF900895CF93DF9305
:102EE000EC01423018F08881886088834C831D8211
:102EF000222329F0413019F488818460888380E599
:102F000093EC0E94453EAD98AC9863E0CE010E94E0
:102F1000B71684E991E10E94453E63E0CE010E942C
:102F2000B71684E991E10E94453E63E0CE010E941C
:102F3000B71686E990E00E94453E62E0CE010E940D
:102F4000B71668816062CE010E94EC1684E0898326
:102F5000CE010E942317CE010E94EF1682E08A83E1
:102F600066E0CE01DF91CF910C94EC16A59AA49A5D
:102F7000FC01108220E041E060E10C946E170C949B
:102F8000B61741E00E94D11681E00895EF92FF92BA
:102F90000F931F93CF93DF938C01F42EC62FD72F5F
:102FA000E42EE60EEC1631F0699141E0C8010E9472
:102FB000D116F8CF8F2DDF91CF911F910F91FF90F8
:102FC000EF9008956115710559F0FB010190002003
:102FD000E9F7AF0141505109461B570B0C94C61736
:102FE00080E00895FC0127818085E22FF82FE60F0D
:102FF000F11DE60FF11D859194910C94BD130F9373
:103000001F93CF93DF93EC018B01CB010E94E22D44
:10301000682FCE010E9462188DE990E09983888321
:1030200018870F83DF91CF911F910F910895DF9241
:10303000EF92FF920F931F93CF93DF93EC01F62E45
:1030400069871A8681E08D8382E0D82EEE24E3948E
:103050008E01075F1F4F0E940B12482F823011F024
:10306000843061F4E881F9810280F381E02D6F2DD5
:10307000CE010995F986DA86ED8204C0813089F0A7
:10308000883079F0C8010E94052F8111ED828D8171
:10309000882319F0CE010E948F188A858F5F8A8756
:1030A000DACF8FEF898781E08E838D83483009F0F6
:1030B00080E0DF91CF911F910F91FF90EF90DF9013
:1030C00008950895FC0183EA90E091838083128241
:1030D0001382648381E0858386830895FC012281C5
:1030E000211103C081E082830895438130E0240FE1
:1030F000311D848190E001972817390714F44F5F40
:1031000043830895FC018281882319F081508283D2
:1031100008958381882311F08150838308951F933C
:10312000CF93DF93EC0110E0612F80E00E946F12DB
:1031300080E20E940E14E881F9816B81610F019099
:10314000F081E02DCE0109950E9422141F5F1230FC
:1031500059F76A8180E00E946F128EE30E940E147C
:103160006A818FE00E946F128CE30E940E141D8210
:10317000DF91CF911F9108950F931F93CF93DF930A
:10318000EC010E940B12182F0E94AE37882321F009
:1031900081E08D838FE71CC00B818A81080F12307C
:1031A00031F0143039F4CE010E946E1803C0CE0104
:1031B0000E9482188B819A81890F081711F081E093
:1031C0008D838D81882319F0CE010E948F18812F65
:1031D000DF91CF911F910F910895EF92FF921F936E
:1031E000CF93DF931F92CDB7DEB77C0181E0F7016B
:1031F000858311E0C70169830E94BC186981811130
:1032000002C0F7011682F7019681911108C088303B
:1032100031F481E0868383819281890F09C066231E
:1032200011F0F7011583813029F79111E3CF8FEF6A
:103230000F90DF91CF911F91FF90EF9008950F9322
:103240001F93CF93DF93EC018B0150E00E94D512C6
:103250004AE3B801CE01DF91CF911F910F910C94F9
:103260008112EF92FF920F931F93CF93DF9300D0C1
:103270001F92CDB7DEB78C01462F0B969A838983B8
:103280008EE08B83D801EC91F0E0EE0FFF1FE75842
:10329000FD4FE590F490BE016D5F7F4FCE0101962A
:1032A0000E941F19A701BE016D5F7F4FCE010196DD
:1032B0000E949C1240E2BE016D5F7F4FCE010196DD
:1032C0000E948112F80141815281BE016D5F7F4FE2
:1032D000CE0101960E94D5124FE2BE016D5F7F4F75
:1032E000CE0101960E948112D80117964D915C91F2
:1032F0001897BE016D5F7F4FCE0101960E94D512D7
:103300000F900F900F90DF91CF911F910F91FF9031
:10331000EF900895CF93DF9300D01F92CDB7DEB723
:10332000462F2EE02B830B969A838983BE016D5F17
:103330007F4FCE0101960E941F190F900F900F90A2
:10334000DF91CF91089529E1289FB001299F700D49
:1033500011246E567F4F49E150E08DE692E00C94C7
:10336000143F29E1289FB001299F700D11246E564A
:103370007F4F49E150E08DE692E00C94323FDC0152
:10338000EC91B6E0EB9FF0011124E60FF11DEE0F7A
:10339000FF1FE35DFC4F859194910895DC01EC9152
:1033A00046E0E49FF0011124E60FF11DEE0FFF1F30
:1033B000E35DFC4F8591949117962D913C91189760
:1033C000AC01429FC001439F900D529F900D11246C
:1033D0000895FC01A181B2812091A5033091A6033B
:1033E0000E944C3E24E630E040E050E00E949D3ECA
:1033F000293EFDEF3F074105510520F028EE3DEF46
:1034000040E050E0C9010895FC012081213029F4F9
:1034100020919B0330919C0309C0223029F4209114
:10342000990330919A0302C020E030E0FC018781CB
:103430009085AC01249FC001259F900D349F900D75
:103440001124089580919503909196030895FC01AD
:103450006081FBE06F9FB001112461547D4F4BE010
:1034600050E00C94E43EDC01EC91F0E0EE0FFF1F25
:10347000E758FD4F859194910C94891360E170E0B9
:103480000C94331ACF93DF93EC01888160E08111B3
:1034900008C0CE010E94CE1967E00E94A01687E006
:1034A00011C0CE010E94CE1965E00E94A0168FE2E5
:1034B0000E940E148F8198850E942A1383E40E9433
:1034C0000E1488E0DF91CF91089566E0FC018381BE
:1034D00094810E949C1686E0089566E0FC01858137
:1034E00096810E949C1686E00895FC01818192815C
:1034F000883EFDEF9F0729F48FE692E00E94BD13FE
:1035000003C067E00E94981688E0089529E1AC01A5
:10351000249FC001259F900D112483569F4F08952D
:103520000F931F93CF93DF93CDB7DEB7A6970FB658
:10353000F894DEBF0FBECDBF8C01AB01BC01CE0144
:1035400001960E94171CCE0101960E949C1C89E1E5
:10355000FE013C96D80101900D928A95E1F7A6965E
:103560000FB6F894DEBF0FBECDBFDF91CF911F9194
:103570000F910895FC012081260F2A3040F0161685
:1035800017061CF4FC01108203C029E0FC01208313
:103590000C94271A62E00E94CE199C0140E050E092
:1035A00068E877E987ED97E10E949D3E26328EE438
:1035B00038074105510520F025E23EE440E050E0A7
:1035C000C901089562E00E94CE199C0140E050E0DC
:1035D00068E87DE682E692E00E949D3E2E3883E117
:1035E00038074105510520F02DE833E140E050E077
:1035F000C90108950F931F93CF93DF9300D0CDB7E8
:10360000DEB78C0169837A830E94CA1AAC01698192
:103610007A81C80103960F900F90DF91CF911F918F
:103620000F910C94D82E0F931F93CF93DF9300D05C
:10363000CDB7DEB78C0169837A830E94E21AAC01B0
:1036400069817A81C80105960F900F90DF91CF9123
:103650001F910F910C94D82EDC01EC91BCE0EB9FF4
:10366000F0011124E15DFC4F6591749184EF95E6C2
:103670000E94893ECB010895EF92FF920F93CF9362
:10368000DF9300D0CDB7DEB77C0169837A830E94D7
:103690002C1BF701208169817A81211103C022E36B
:1036A00030E002C020E030E001E0AC01C701079645
:1036B0000E94732E0F900F90DF91CF910F91FF908A
:1036C000EF900895CF93DF93EC010E942C1B2F8184
:1036D00038858217930710F498878F83CE010E9454
:1036E000CA1A2B813C818217930710F49C838B8329
:1036F000CE010E94E21A2D813E818217930710F4B9
:103700009E838D83DF91CF9108950F93CF93DF93A5
:10371000EC0104E620E030E048EE5DEF01960E9407
:10372000732E89819A819C838B832881233039F47D
:103730009C0136952795369527953C832B839E8350
:103740008D83CE01DF91CF910F910C94621B0F936B
:103750001F93CF93DF934BE050E061E073E08DE681
:1037600092E00E94E43E8DE692E00E94621BC0E07F
:10377000D0E08E010F5F1F4FB8018DE692E00E94EE
:103780008A19CE010E94B1190032110511F0E80129
:10379000F0CFDF91CF911F910F910895FC018185AA
:1037A00092850895FC0181859285883EF3E09F070C
:1037B00019F487E692E004C00E942A1382E692E0A0
:1037C0000E94BD1386E008950F9301E020E030E0F1
:1037D00048EE53E009960E94732E0F910895262F0C
:1037E000443019F06FEF7FEF02C061E070E02230EB
:1037F00091F028F4222349F0213051F0089524302B
:1038000081F060F0253081F008950B960C94BA1A7F
:103810000B960C943C1B0B960C94851B0B960C94EE
:10382000FA1A0B960C94131B0B960C94E41BEF9254
:10383000FF920F931F93CF93DF93EC018B017A01DB
:1038400066EB73E00E94FF178FEF898789EA90E0AB
:103850009983888389E1F801DE011B9601900D921E
:103860008A95E1F7FDA2ECA2DF91CF911F910F9114
:10387000FF90EF9008950F931F93CF93DF93CDB7F1
:10388000DEB728970FB6F894DEBF0FBECDBF8C0110
:10389000BC016A5E7F4F2BEA33E04EE050E0CE0180
:1038A00001960E948A11CE0101960E94951181E035
:1038B000F801858328960FB6F894DEBF0FBECDBF02
:1038C000DF91CF911F910F910895CF93DF93EC017A
:1038D0000E947D120E94751285EA93E00E94BD133A
:1038E0000E9479126EE0CE0146960E9455130E9406
:1038F000E02E83E0DF91CF910C94CF37CF93DF930D
:10390000EC016CA17DA16F5F7F4F0B960E94311976
:10391000CE01DF91CF910C94651CCF93DF93EC0126
:103920006CA17DA16F5F7F4F0B960E948A19CE011B
:10393000DF91CF910C94651CDF92EF92FF920F9371
:103940001F93CF93DF93CDB7DEB769970FB6F89487
:10395000DEBF0FBECDBF8C0189E1D82EC8010B960A
:103960007C0160E0C8010E94ED1887FD30C08730FF
:1039700041F0883051F0863061F4C8010E947E1C0D
:10398000F0CFC8010E943B1CECCFC8010E948D1CE7
:10399000E8CFF701DE0111969D2D01900D929A95C9
:1039A000E1F7682FC8010E941718811109C0FE01B4
:1039B0003196D7018D2D01900D928A95E1F7D1CFE7
:1039C00083E00E94CF37C7010E94621BCACF69966D
:1039D0000FB6F894DEBF0FBECDBFDF91CF911F9120
:1039E0000F91FF90EF90DF9008951F93CF93DF9397
:1039F000EC01162F0E94F217CE0109960E94FA2EB2
:103A0000882311F0298501C02FEF332727FD30953A
:103A1000812F90E02817390749F11230C9F048F496
:103A2000112389F0113011F5CE010B960E94421A34
:103A30001DC01430B9F088F01530C1F4CE010B96DA
:103A40000E94D21B13C0CE010B960E943E1A0EC0DC
:103A5000CE010B960E94751A09C0CE010B960E94EA
:103A6000651A04C0CE010B960E946D1A80E0DF91AA
:103A7000CF911F9108950F931F93CF93DF9300D0A1
:103A8000CDB7DEB789839A830E94751289819A81A6
:103A90000E94BD130E947912009116031091170322
:103AA000C8010E94ED3E892B19F0C8010E94BD1388
:103AB0000F900F90DF91CF911F910F910C942214D2
:103AC0008091910390919203892BA1F08DE10E9446
:103AD0006D0765E02AE0AC01249FC001259F900D91
:103AE00011240E94B6158DE60E940E1483E40E94F4
:103AF0000E1404C085E794E00E94BD130C942214B8
:103B00008BE10E946D0765E00E94B6158DE60E946C
:103B10000E1486E50E940E140C94221490E0880F77
:103B2000991F62E0865F9A4F0C9489130F931F933D
:103B3000CF93DF9361E08DE692E00E94CE198C0175
:103B400065E08DE692E00E94CE19EC0184E10E94CE
:103B50006D0780179107B8F4C817D907B0F49C0116
:103B60002C1B3D0BC8018C1B9D0B64E670E00E9472
:103B7000893EC9010E94893E6436710510F063E6F2
:103B800070E0862F03C083E601C080E0DF91CF9113
:103B90001F910F910895613011F40C94090D0C944C
:103BA000BC2BCF93DF93D82FC62F8FE18D0F0E94B0
:103BB000BA09882351F06C2F8D2F0E94CB1D46E04F
:103BC0006C2FDF91CF910C94571683E095E0DF9135
:103BD000CF910C94BD130F931F93CF93DF93D82FE6
:103BE000062F0E9475128091BC02882319F0109252
:103BF000BC0203C081E08093BC02109287020E9445
:103C0000CF0C811108C083E090E00E94E00D882372
:103C100041F080E209C080914102882321F082E4D2
:103C200003C08DE601C082E690915B02911102C053
:103C30000E940E1480915B02882331F110E0C1E0F4
:103C40000E94CC0C1817D0F480915C02181761F018
:103C500080915B028C2331F08091BC02882321F09B
:103C600082E003C081E001C080E00E940E14C038F1
:103C700011F0CC0F01C0C0E01F5FE2CF0E94CC0C5E
:103C800098E0981B892F01C087E00E94131411E06F
:103C90001D0F812F0E943B148AE30E940E14602F97
:103CA0008D2F0E94D11D0E9422140E94791216307D
:103CB000C8F4C2E0CD0F8C2F0E943B148AE30E940F
:103CC0000E14602F812F0E94D11DC63059F083E061
:103CD0008D0F0E943B148AE30E940E14602F8C2FDC
:103CE0000E94D11DDF91CF911F910F910C9422144E
:103CF00089E10E946D0768E00E94981680E20C94AA
:103D00000E140E947512209160028091830390919D
:103D10008403223031F466E00E94B31588EF94E00A
:103D200005C065E00E94B31584EF94E00E94BD13C6
:103D300080E20E940E140E94A82B67E00E949C164D
:103D40000E9422140E9479128BEE94E00E94BD130F
:103D500067E08091790390917A030E94A0160C94F9
:103D600022140F931F936091C7027091C802809133
:103D7000C9029091CA0220918602222371F00E940A
:103D800020070091C7021091C8022091C90230910A
:103D9000CA02601B710B820B930B28EE33E040E0EC
:103DA00050E00E949D3EC9011F910F910895CF934D
:103DB0000E94AA26811110C00E949B27882331F0FF
:103DC0000E94AA2681110AC0C4E40BC00E94CF0C35
:103DD000811106C0CEE405C0C3E403C0C5E401C040
:103DE000C2E40E949A268111C7E58C2F0E940E140E
:103DF00080E20E940E140E94B11E0E949C1580E277
:103E0000CF910C940E140E94751280916002823042
:103E1000F9F40E94A127882359F066E0809172028C
:103E2000909173020E94B3158FEF94E00E94BD132E
:103E30000E94B026882371F066E080917002909114
:103E400071020E94B3158BEF94E00E94BD1302C073
:103E50000E94781E67E087E10E94E9090E9422140F
:103E60000E9479120E94D71E67E084E10E94E9094E
:103E70000C9422140E9420076093C7027093C8021A
:103E80008093C9029093CA021092C3021092C40296
:103E90001092C5021092C6021092BF021092C00288
:103EA0001092C1021092C20281E0809386020895AE
:103EB0000F931F930E9420070091C7021091C80220
:103EC0002091C9023091CA02601B710B820B930BC7
:103ED0006093C7027093C8028093C9029093CA028C
:103EE000109286021F910F910895CF92DF92EF9268
:103EF000FF920E94751280EE94E00E94BD130E9412
:103F0000B11E0E949C150E9479128DED94E00E94D2
:103F1000BD136091C3027091C4028091C50290915B
:103F2000C60238EEC32E33E0D32EE12CF12CA701CC
:103F300096010E949D3EC9010E949C158AED94E065
:103F40000E94BD136091BF027091C0028091C102B6
:103F50009091C202A70196010E949D3EC901FF9067
:103F6000EF90DF90CF900C949C150E94751281ED1C
:103F700094E00E94BD130E94C62B68E00E94A41624
:103F80000E9422140E94791283E10E94BA098823B8
:103F900049F088EC94E00E94BD130E94CC2B68E0AD
:103FA0000E94A4160C9422140E94751280EC94E0D6
:103FB0000E94BD1367E086E00E94E9090E94221476
:103FC0000E94791288EB94E00E94BD1347E061E003
:103FD0008091A7039091A8030E9457160C94221475
:103FE0000E94751281EB94E00E94BD1367E082E1AC
:103FF0000E94E9090E9422140E9479128AEA94E040
:104000000E94BD1367E083E10E94E9090C94221429
:104010000E94751284EA94E00E94BD13809191037E
:1040200090919203892B29F065E087E00E94E909CD
:1040300004C082EA94E00E94BD130E9422140E94F0
:1040400079128CE994E00E94BD1365E085E00E943E
:10405000E9090C9422140F931F93CF93DF9300D0A0
:10406000CDB7DEB78B0189839A830E947D120E94AF
:10407000751289819A810E94BD130E947912C8012C
:104080000F900F90DF91CF911F910F910C94BD1362
:104090008BE894E00E943B1D0E94791284E894E032
:1040A0000E94BD130E94B11E0C949C158DE794E0F4
:1040B0000C943B1D0E9475120E94781E0E94601D88
:1040C0000E9479120E94D71E0C94801D0E947512C6
:1040D0008CE694E00E94BD1367E08CE10E94E90940
:1040E0000E9422140E94791282E694E00E94BD137D
:1040F0000C94801D0E9475128CE594E00E94BD1303
:104100008091910390919203892B31F00E948A074C
:1041100069E00E94C11504C088E594E00E94BD13C7
:104120000E9422140E9479128EE494E00E94BD1332
:104130000C94601D60E070E08AE494E00C942B2005
:104140000E949A200C94E02E60E070E08EE394E0F0
:104150000E942B2088E893E10C94270760E070E030
:104160008DE294E00C942B206091BF027091C0020C
:104170008091C1029091C20220E63AEE40E050E008
:104180000E949D3EC9010895CF93DF938091BB02A9
:104190008F5F843018F48093BB0202C01092BB0280
:1041A0008091BB02833061F4C0916D00CF5FC093FA
:1041B0006D000E942F298C1718F481E080936D0008
:1041C00080916002833051F0843081F0823019F1A7
:1041D00080916D0081508093B2021DC08091B20227
:1041E000811102C00E942F29815010C0C091B202DB
:1041F000D0E00E942F2990E00197C817D9071CF042
:104200001092B20205C08091B2028F5F8093B20219
:1042100082E0809360020E9475128091B20290E069
:1042200061E001960E94B31580E00E940E14E091B7
:10423000B202F0E0EE0FFF1FE657FD4F8081918143
:104240000E949C1581E00E94131482E00E940E14CB
:10425000E091B202F0E0EE0FFF1FEC56FD4F8081BF
:1042600091810E949C150E9422140E947912E09173
:10427000B202F0E0EE0FFF1FE256FD4F68E08081D2
:1042800091810E949816E091B202F0E0EE0FFF1FBC
:10429000E855FD4F68E0808191810E949816DF917A
:1042A000CF910C942214CF93DF93C0E0DFE061E064
:1042B0008D2F8C1B0E946F128FEF0E940E1460E0F6
:1042C0008C2F0E946F128FEF0E940E148AE090E0F4
:1042D0000E942707CF5FC03151F78AE090E0DF915D
:1042E000CF910C942707CF93C82F0E947D120E9474
:1042F00075128DE094E00E94BD1362E08C2F90E077
:104300000E94B31580E49FE1CF910C94270710928F
:10431000B8021092B7021092B6021092B5028091C4
:10432000B9028093BA021092B4021092B3020895B7
:10433000CF93DF9328E630E084E992E0CAE8D2E048
:10434000A8EAB2E06EE972E045E05DE2F90151935E
:104350009F01FC0111921192CF01199219921D92A5
:104360001D92FB0111921192BF01415079F7DF912B
:10437000CF910895CF930E9487210E9498210E9497
:10438000751264E070E08DE692E00E94331A80912D
:104390006002823011F48EE301C080E20E940E14AC
:1043A0008DE692E00E94421A80916002823011F400
:1043B0008CE301C080E20E940E14809118030E94D9
:1043C0008E1D0E9479120E94961D8093B90262E0B0
:1043D00090E00E94B3158AE294E00E94BD138DEB39
:1043E00092E00E94FA2E882319F0C091BD0201C00C
:1043F000CFEFC0FF05C065E082E10E94E90903C07C
:1044000085E00E94131480E20E940E1480916D02D8
:1044100084508630A8F4C1FF05C065E083E10E94A6
:10442000E90903C085E00E941314C2FF05C00E9481
:10443000D909CF910C943B1480E2CF910C940E14C7
:1044400066E080916E0290916F020E949816CF9163
:104450000C9422140E94961D8093B9029091BA0286
:10446000981728F58093BA020E94B11E2091B502D8
:104470003091B602821B930B9093B8028093B702DF
:104480000E94B11E9093B6028093B5028091B7024C
:104490009091B8022091B3023091B40228173907E5
:1044A00010F0232B21F49093B4028093B30208956B
:1044B000CF93DF930E942A220E94D909811128C03C
:1044C00083E10E946D07EC0182E10E946D07C8172D
:1044D000D90728F49C012C1B3D0BE90102C0C81B25
:1044E000D90BC53FD140A0F024E630E08091BA025C
:1044F000281B31094091B3025091B402249FC0019E
:10450000259F900D349F900D1124DF91CF91089538
:1045100029E6EBCFFF920F931F93CF93DF930E9477
:104520002F29FF24FA94F80E0E943229833429F5AA
:104530000F2D112707FD1095F801E859FF4F8083D3
:10454000000F111FE801CC56DD4F6091BF02709142
:10455000C0028091C1029091C20228EE33E040E097
:1045600050E00E949D3E3983288389E10E946D07B7
:10457000F801E855FD4F918380830E9432298434ED
:1045800029F5CF2DDD27C7FDD095FE01E859FF4F56
:104590008083CC0FDD1F8E0106571D4F6091BF0237
:1045A0007091C0028091C1029091C20228EE33E066
:1045B00040E050E00E949D3EF8013183208389E174
:1045C0000E946D07C256DD4F99838883DF91CF919A
:1045D0001F910F91FF9008950E94B02681112FC066
:1045E0000E94A12781112BC00E94CF0C8823A1F02B
:1045F0008091C3029091C402A091C502B091C602FD
:1046000080599F4FAF4FBF4F8093C3029093C40216
:10461000A093C502B093C6020E948A220E9458222B
:1046200090938902809388028091BB028F5F8932C8
:1046300018F48093BB0208951092BB0208958091F4
:10464000BF029091C002A091C102B091C2028059F4
:104650009F4FAF4FBF4F8093BF029093C002A09374
:10466000C102B093C202C0CF81E09091BB029531EC
:1046700008F080E008950E942A220E9434238823B3
:10468000B9F00E9475120E94781E67E087E10E94CF
:10469000E9090E9422140E9479120E94D71E88E222
:1046A00094E00E94BD130E94AA2681111CC02FC055
:1046B0000E94751268E088E10E94E90986E294E0B0
:1046C0000E94BD1367E087E10E94E9090E9422145D
:1046D0000E94791268E08AE10E94E90983E294E08D
:1046E0000E94BD1314C08091B902833680F480917A
:1046F000B3029091B402459730F080918802909176
:1047000089020C949C158CE194E00C94BD1380916B
:10471000B90264E090E00E94B3158AE194E00E943F
:10472000BD130C9422149091BE029F5F9093BE0221
:1047300090E0FC013197E331F10570F5EE5CFF4F3D
:104740000C94DE3E0C94031F0C94811E0C94751F78
:104750000C94082061E007C061E083E00C94EB1D3D
:1047600061E006C066E080E0F9CF66E0F6CF66E083
:1047700086E0F4CF0C94BA210C94B51F0C94F01F72
:104780000C94D41F0C943B230C9466200C947A2038
:104790000C945A200C94C42008958FEF8093BD028E
:1047A0000895CF93DF930E946727C0917002D09144
:1047B000710261E08DE692E00E94CE199C01CE016B
:1047C00065E070E00E94893EEB0140E0C9010E9473
:1047D000F02B8FE00E941C2CCE01DF91CF910C9426
:1047E000612781E00C9479270E941708882321F023
:1047F0000E94B9260C94B82C08951092CB020C9408
:10480000D123CF93DF930E94F4230E940D08EC0183
:104810008091CB02811111C062E08DE692E00E948E
:10482000CE198C179D0748F481E08093CB028091CC
:104830007002909171020E9461270E9417088823DC
:1048400081F064E08DE692E00E94CE198C179D07FE
:1048500040F485E395E0909317038093160381E07D
:1048600030C00E948F07029758F180919703909172
:104870009803892B89F08BE10E946D07EC018DE68E
:1048800092E00E94041AD195C195D1098C179D0719
:104890001CF481E395E0DFCF809191039091920326
:1048A000892B71F08DE10E946D07EC018DE692E09D
:1048B0000E94221A8C179D071CF48BE295E0CBCF47
:1048C00082E0DF91CF9108958130910521F090939E
:1048D000CD028093CC027093CF026093CE020895F4
:1048E0000F931F93CF93DF93C091CC02D091CD0251
:1048F000CE010E94180F8C010E940D08C817D9071D
:1049000038F4C801DF91CF911F910F910C94FA0EEA
:1049100081E0DF91CF911F910F91089581E00E9476
:104920000A280C94A60D0E94FC270E945C0D21E031
:104930008091AB039091AC03892B09F420E0209384
:10494000D00280E10C941C2C0F931F93CF93DF9324
:104950000E947024182F0E94AA27BC0180E10E94A7
:10496000E508EC010E941708882311F001E001C05E
:10497000012F8091D002882329F0BE01812F0E944F
:104980006C2C01C0812F882329F081E00E940A2825
:1049900081E00CC0002349F0BE01812F0E94B32D9D
:1049A0008C179D0711F00E94F62782E0DF91CF91CE
:1049B0001F910F9108950F931F93CF93DF938C0155
:1049C000EB010E94642440E0BE01C8010E94F02B6C
:1049D000CE016AE070E00E94893ECB01DF91CF9169
:1049E0001F910F910C94922B81E00E9479270C94D7
:1049F000A60D0E945C0D0E9467278FE00C941C2C72
:104A00000C94F02B0F931F93CF93DF93C0917903F6
:104A1000D0917A03CE010E94180F8C010E940D08DC
:104A20008C179D0738F4C801DF91CF911F910F912A
:104A30000C94DC0E81E0DF91CF911F910F910895CE
:104A40001F93CF93DF930E940225182F0E94B9264F
:104A5000BC018FE00E94E508EC01BC01812F0E949F
:104A60006C2C882329F081E00E94792781E019C00D
:104A70000E941708811107C0111105C0CE010E94C4
:104A8000AD2B882369F00E94CF0C811109C0BE01B3
:104A9000812F0E94B32D8C179D0711F00E94612772
:104AA00082E0DF91CF911F9108950E94F4240E942B
:104AB0008E240C94A60DCF93DF931F92CDB7DEB753
:104AC0009091D202913039F018F0923039F00FC045
:104AD0000E9420250CC00E94A42409C00E94AD0E93
:104AE000823089F089830E94552589810CC08130EC
:104AF00051F49091D102992331F082E08093D20257
:104B00000E945C0D82E00F90DF91CF9108950E948A
:104B10005C0D8091D7029091D8020E94180F0E94DC
:104B2000FA0E2091D7023091D802882369F0609163
:104B3000D5027091D60240E0C9010E9400250E9472
:104B4000F9241092D20208956091D3027091D40298
:104B5000C9010E94DB240E94932481E08093D0024B
:104B60008093D20208958093D10208959093D80241
:104B70008093D7027093D6026093D5025093D402EB
:104B80004093D302089587E08093BD0282E0809332
:104B9000BE020E94C83783E08093DA0208950F9323
:104BA0001F93CF93DF938091D902882379F00E94DD
:104BB000D9099091740201E0981301C000E011E05E
:104BC000811110E0913021F4112311F010E000E088
:104BD00083E10E94BA09882309F45CC083E10E9442
:104BE0006D07EC0182E10E946D07C817D90728F410
:104BF0009C012C1B3D0BE90102C0C81BD90BC53F12
:104C0000D14008F447C0C1E0011102C087E001C0F3
:104C100083E08093BD02112329F08091BD02825070
:104C20008093BD02CC2329F08091BD0281508093F6
:104C3000BD02011104C0111102C0CC2331F081E08A
:104C40000E94CF37111107C004C088E00E94CF37FF
:104C500008C0002331F08091AD039091AE03892B01
:104C600011F4D0E001C0D1E00E94DF11811102C037
:104C70001092DA02D11106C0C11104C00E94DF11E6
:104C8000883051F08091DA02823011F481E00AC05C
:104C900082E008C0C0E0B8CF8091DA028F5F8093D5
:104CA000DA02F0CFDF91CF911F910F9108958FEF2E
:104CB0008093BD0288E00C94CF378093D902089589
:104CC0001092E10208950E94200728EE33E040E0B0
:104CD00050E00E949D3E2093DD023093DE0240931F
:104CE000DF025093E00208950E94200728EE33E08F
:104CF00040E050E00E949D3E6091DB027091DC023A
:104D00008091DD029091DE02A091DF02B091E0027D
:104D1000860F971FA11DB11D82179307A407B50722
:104D200028F081E08093E10282E008951092E10290
:104D300081E008958091E10208952CE3AC01249F65
:104D4000C001259F900D11249093DC028093DB021B
:104D50000C94632681E09091EA02911180E008951D
:104D600081E02091E8023091E902232B09F480E0F0
:104D700008958091E8029091E9020895EF92FF92E0
:104D80000F931F93CF93DF93EC018B0180916F0002
:104D9000823009F474C08FE00E94E5089093E70226
:104DA0008093E60268EB7BE08FE00E9449099695CC
:104DB00087959093E3028093E202BE018FE00E9408
:104DC000E5089093E5028093E4022091E602309199
:104DD000E7022817390718F5821B930B893B9B4084
:104DE000F0F00E947D120E94751260E070E08BE688
:104DF00095E00E942B207801CE15DF0570F0C701E9
:104E00000E94A70584EF91E00E9427078091E202AB
:104E10009091E302E80EF91EEFCF0E94170820914F
:104E2000E6023091E7028091E4029091E502821758
:104E3000930728F5281B390B293B3B4000F10E94C2
:104E40007D120E94751260E070E081E695E00E949C
:104E50002B207E010E151F0580F0C8018E199F09B9
:104E60000E94A70584EF91E00E9427078091E2024B
:104E70009091E302E80EF91EEDCF0E941708CE01D3
:104E8000DF91CF911F910F91FF90EF9008952091A6
:104E90006F00223041F02091B7033091B8032817FA
:104EA000390708F4C9016091E8027091E9020E9493
:104EB000BE269093E9028093E8020E94A7050C9415
:104EC0009408BC018FE00E9449090C944727809107
:104ED000EA02882369F01092E9021092E80280E069
:104EE00090E00E94472781E00E949B051092EA0211
:104EF0000895CF93C82F8091EA0281110FC0CC236F
:104F000069F080E090E00E9447271092E902109239
:104F1000E80280E00E949B05C093EA02CF910895C9
:104F20001092E9021092E80280E090E00E94472788
:104F300081E00C94792781E09091EF02911180E05B
:104F4000089581E02091ED023091EE02232B09F4C7
:104F500080E008958091ED029091EE020895CF9344
:104F6000DF93EC0140918F0350919003BA01645F8D
:104F7000714080EF92E00E94ED2D8091F002882335
:104F800011F0C0E0D0E0CE01DF91CF910895CF9332
:104F9000C82F8091EB029091EC020E94AF272091E4
:104FA000ED023091EE028217930711F4CC2349F001
:104FB0009093EE028093ED020E94AB05CF910C948A
:104FC0009408CF91089520916F00223041F02091F4
:104FD000B9033091BA032817390708F4C90190932F
:104FE000EC028093EB0281E00C94C727BC0180E1C6
:104FF0000E9449090C94E3278091EF02882349F02D
:1050000080E090E00E94E32781E00E94A1051092D9
:10501000EF020895CF93C82F8091EF0281110BC04A
:10502000CC2349F080E090E00E94E32780E00E94DA
:10503000A105C093EF02CF91089580E090E00E9417
:10504000E32781E00C940A288091EF02811102C0CD
:105050000C94C727089580916D02893051F09CEF20
:10506000980F963048F08150823048F483E093E006
:1050700008958AEF92E008958CE093E0089581EF1F
:1050800092E0089585E595E090935F0280935E023B
:1050900090916D02945081E0963008F080E00E947B
:1050A0005D2661E08AE296E00E948C0F91E08130FB
:1050B00009F090E0892F08950F931F93CF93DF930A
:1050C0000E94B3250091720210917302C091700288
:1050D000D091710263E08DE692E00E94CE19A801A2
:1050E000BE010E94B6258FE495E090935F02809305
:1050F0005E0260E080E396E0DF91CF911F910F9117
:105100000C948C0F1F93CF93DF93162FC0917002D6
:10511000D091710261E08DE692E00E94CE1940E0EC
:10512000BE010E94002589E495E090935F02809380
:105130005E02612F80E596E0DF91CF911F910C9484
:105140008C0F1F93CF93DF93182FC0917002D091D3
:10515000710261E08DE692E00E94CE1941E0BE014D
:105160000E94002529E435E030935F0220935E021F
:10517000612F80E596E0DF91CF911F910C948C0F09
:105180002DE335E030935F0220935E02682F89E6BD
:1051900096E00C948C0FCF93C82F62E08DE692E0DE
:1051A0000E94CE196091720270917302A0917402F4
:1051B000B0917502E091A903F091AA03AE9F90010E
:1051C000AF9F300DBE9F300D1124820F931F0E94A0
:1051D000DB2423E435E030935F0220935E026C2FE2
:1051E0008CE396E0CF910C948C0F1F93CF93DF93B9
:1051F000182FC0917202D091730262E08DE692E0A6
:105200000E94CE19BE010E94DB2423E435E03093D6
:105210005F0220935E02612F8EE596E0DF91CF91D1
:105220001F910C948C0F86EF91E090935F02809316
:105230005E0260E08AE496E00C948C0F80919F03FC
:105240009091A0030E949D268BE595E090935F02CC
:1052500080935E0261E08CE396E00C948C0F809169
:105260001503089580916E000895813019F481E04E
:105270000C94CB28811103C081E00C94F528823076
:10528000B1F380E008954091150350E020919D0313
:1052900030919E034217530789F0813041F42091E9
:1052A000AD033091AE03232BD9F0862F10C08111AE
:1052B00002C0862F10C08230C9F412C0813049F478
:1052C0008091AD039091AE03892B49F080E00C945E
:1052D000A128811102C00C94C028823039F460E00A
:1052E0008091A3039091A4030C94822880E00895F8
:1052F0000F931F93CF93DF93C82F81E08093150303
:1053000014E4D7E503E44091150350E020919D0398
:1053100030919E0324173507E8F10E94C20C1093C8
:105320006E008C2F0E9435298130A9F5D0936E0034
:105330000E941E29813079F50E9487210E94C20CAB
:1053400000936E004091150350E020919D03309131
:105350009E034217530711F061E001C060E08C2FFB
:105360000E9443298130B9F4D0936E004091150317
:1053700050E020919D0330919E034217530721F086
:105380000E941E29813039F4809115038F5F80932C
:105390001503B9CF81E0DF91CF911F910F9108954F
:1053A000CF93C82F8093180323E735E0309317037A
:1053B000209316038F3030F4E82FF0E0E355FF4FD1
:1053C000808101C080E080936F000E94D1380E94EC
:1053D000B8080E9442288823F1F184E00E94CF3768
:1053E0008C2F90E08F309105A0F5FC01EB5BFF4F17
:1053F0000C94DE3E60E08091A3039091A4030AC068
:105400000E94132928C080E00E94CB2824C060E0BD
:1054100085E090E00E9482281EC060E080E002C02B
:1054200060E081E00E945C2816C080E00E94C028F5
:1054300012C080E00E94F5280EC081E003C080E029
:1054400001C082E00E94782906C080E00E94A12865
:1054500002C00E94A0200E94C708CF910C94E1389E
:105460000F931F93CF93DF93EC010E94A3190E9427
:105470002B288C0160E0C8010E94ED1887FD29C02F
:1054800090916D02E82FFF27E7FDF095993019F410
:10549000ED56FA4F0FC08CEF890F863018F4E655A1
:1054A000FA4F08C09150923018F4EB57FA4F02C0EF
:1054B000EC58FA4F84918F3049F4BE018DE692E0AA
:1054C0000E94901ACE010E94B119D1CF0E94D0291A
:1054D000D1CFDF91CF911F910F91089563EB75E0CC
:1054E0008CE093E00E94FF1769E875E083E093E0A9
:1054F0000E94FF176AE975E08AEF92E00E94FF17A9
:1055000069E775E081EF92E00C94FF17FC0142819E
:1055100053814115510591F0A081B181B7FF03C0BE
:10552000B195A195B10928EE33E00E945B3E9A0146
:1055300040E050E00E949D3EC901089580E090E067
:105540000895CF93DF9300D000D0CDB7DEB7FC0134
:10555000228133813C832B83808191819A8389834B
:10556000CE0101960E94862A0F900F900F900F9007
:10557000DF91CF9108950F93FC01CB01002341F0FF
:105580004617570708F4CA016417750748F407C09F
:105590006417750708F4CA014617570708F4BA01DB
:1055A000978386839183808313821282158214826B
:1055B00033872287681B790B718760870F91089565
:1055C000FC019B0140E050E086819781281B390B4C
:1055D00041095109A285B3850E94623E208531852B
:1055E000442737FD4095542F0E94BF3E21153105B9
:1055F00081E04807510524F457FD05C0C90108950D
:105600008FEF9FEF089580E090E00895DF92EF9292
:10561000FF920F931F93CF93DF93EC012A813B817D
:105620002417350720F4FA01E21BF30B03C0F9013C
:10563000E41BF50B8C819D81969587958E179F07AE
:1056400070F5888199818617970720F4FB01E81B84
:10565000F90B03C0FC01E61BF70BEF2B01F124173C
:10566000350738F48A01021B130B7B01E81AF90A8B
:1056700006C07C01E61AF70A8901041B150BC70155
:105680000E941B2ED82E888599850E941B2ED81229
:1056900006C01D830C83F986E8861B870A87DF9185
:1056A000CF911F910F91FF90EF90DF9008950F938E
:1056B0001F93CF93DF93EC018B019A01A885B985E5
:1056C0000E945B3E2A853B8540E050E00E94BF3E41
:1056D000C801A0E0B0E082179307A407B5071CF447
:1056E0001F821E8204C0021B130B1F830E83DF91D7
:1056F000CF911F910F910895EF92FF920F931F93F7
:10570000CF93DF93EC018B017A010E94062BA70156
:10571000B801CE01DF91CF911F910F91FF90EF90D3
:105720000C94572B8E31910510F48EE190E09093FC
:105730007E0380937D03089580911B03813029F4BB
:1057400080917D0390917E03089580E090E008951C
:1057500080917B0390917C03089520912003213058
:1057600041F041E020917D0330917E038217930741
:1057700008F040E0842F08952CE0829FC00111249E
:1057800060911D03875D9C4F0C94A12A60911D03BD
:1057900081E793E00C94A12ACF93DF9300D000D04F
:1057A000CDB7DEB782E10E946D079A83898383E1DA
:1057B0000E946D0729813A81281B390B3A8329837E
:1057C00087E10E946D079C838B83CE0101960E9426
:1057D000862A0F900F900F900F90DF91CF91089530
:1057E0009B018130910531F090937A038093790386
:1057F00040931C0330937C0320937B036091A303AD
:105800007091A403C9010E94893E70937E03609346
:105810007D032E31310530F48EE190E090937C03CE
:1058200080937B036E31710530F48EE190E09093AC
:105830007E0380937D030895EF92FF920F931F9351
:10584000CF93DF9391E090931B03FF24F3948F3069
:1058500009F0F12C80931D030E940D0820917D0317
:1058600030917E034091790350917A030F2DBC0152
:1058700089E693E00E94BB2A0E94CC0C80931E0311
:105880008091790390917A030E94180FEC0110E047
:105890008CE0E82E80911E03181798F4812F0E9447
:1058A000090DBC0120917D0330917E03E19EC00172
:1058B00011240F2DAE018F5D9C4F0E94BB2A1F5FEC
:1058C000E9CF1092200310921F03DF91CF911F9117
:1058D0000F91FF90EF9008950F931F93CF93DF9355
:1058E000082FEB0180911C038823B1F020917D03E8
:1058F00030917E03203A310510F420EA30E02C1775
:105900003D0710F410925A0280912003813021F05B
:105910000E94AD0E80931B0380911B03813011F513
:1059200080912003823041F411E020917D03309179
:105930007E03C217D30708F010E00E949C2B8C173F
:105940009D0770F0111102C0002351F090911F03C8
:1059500081E0890F80931F0381E09A3020F402C018
:1059600010921F0380E0DF91CF911F910F91089556
:105970000F931F93CF93DF93EC010E940D08AE01AC
:10598000BC0189E693E00E947C2B10E00CE0809142
:105990001E03181770F4812F0E94090DBC01019F8E
:1059A000C0011124AE018F5D9C4F0E947C2B1F5FB4
:1059B000EECFDF91CF911F910F910895CF92DF929B
:1059C000EF92FF920F931F93CF93DF936091790330
:1059D00070917A0389E693E00E94E02A8C0180911D
:1059E000790390917A030E94180F7C01D12C9CE0DE
:1059F000C92E80911E03D81698F4CD9CE001112485
:105A0000CF5DDC4FB701CE010E94E02A08171907CD
:105A100028F0B701CE010E94E02A8C01D394E9CF8F
:105A2000C801DF91CF911F910F91FF90EF90DF9010
:105A3000CF900895CF92DF92EF92FF920F931F9332
:105A4000CF93DF938B01809377039093780320911A
:105A50007B0330917C03EC012817390708F4E90136
:105A6000869905C025E83AE146E050E004C025E407
:105A70003CE940E050E0A8EEB3E00E94623E6B01DA
:105A80007C010E940D089C0140E050E0C701B60176
:105A90000E949D3ECE01A0E0B0E0281739074A07DA
:105AA0005B0708F4E9010E949C2BC817D90718F47A
:105AB000EC01D695C7950C171D0719F180912003AD
:105AC0008230A9F4C017D10790F080917D039091A6
:105AD0007E0380179107A8F020917503309176031B
