:100000000C9410050C9438050C9438050C943805A4
:100010000C943D3B0C9438050C9438050C94380531
:100020000C9438050C94793B0C94A1060C9438057B
:100030000C9438050C94103C0C94453C0C943805F9
:100040000C94C5060C9438050C9438050C943805AE
:100050000C9438056C165316551657165E166A160C
:1000600064166616AB2393239523972399239B232A
:100070009D23A123A323A623A823B923AD23AF2324
:10008000B123B523B723B323BB23032A2E2A092A7E
:100090000C2A102A162A192A1E2A222A262A282A37
:1000A000032A0C2A102A2A2AFE3301340A34133474
:1000B000153419341C34C036C436C636CB36CE3669
:1000C000D036D536D836DB36DE36E136E436E7369E
:1000D000EC36F236F736FE360137043709370C377F
:1000E00039373D374037453747374A374F3751372C
:1000F000553759375F376337653769376F37743727
:1001000078377A377E378437883765386738693883
:100110006D386D386B3871386F380000000080C65C
:100120004E5A000000007C6B083100000000000007
:100130000000000000000000000000000000C0AE51
:100140004E5AFC5350143FA0540B0000000000BB5B
:10015000C43680186009DC3770170000000000000A
:1001600000000000000044C4FA0E0000000000C4BB
:10017000FB0E0000000068C4FD0E00000000AAC5D0
:10018000160F0000000040C6190F0000000040C715
:100190002D0F000000000000000000000000000023
:1001A0000000FF0000000005040000040900FF013A
:1001B00001000105050001040A00FF02020002051A
:1001C000060002040B00FF030300030507000304FD
:1001D0000C00FF0000000405110204040D00FF01E3
:1001E00001000505110405040E0006051101FF02BA
:1001F0000200070511085C0DA60DAD0E4368656190
:100200006C692D43686172676572206D0076302ECF
:1002100033336D5F323031343039303500210200F4
:10022000006F7074696F6E730001000100010001BE
:100230000001000A00640001000300080009000A30
:10024000000B000C00010002000400060008000A78
:10025000000C006D5600206E6F0079657300496ECA
:1002600066006D696E2E00756E6C696D697400753F
:100270006E6C696D6974656400BA02B502B002AB58
:1002800002A602A1029C02970292028D024E695AB6
:100290006E004C343335004C343330004C69706F91
:1002A000004C696C6F004C6966650050622020004C
:1002B0004E694D48004E69436400556E6B6E0000F8
:1002C000980898086C0710275802019808F4016CE8
:1002D000070100E001029808F4016C070100E00149
:1002E000039808DC006C070600E0010498089808F1
:1002F0006C070300780005980898086C07030078DD
:100300000006980898086C0703007800079808987A
:10031000086C070300780008980898086C07030029
:10032000780009980898086C07030078000100011C
:10033000000100010000000100B0041C075203008E
:100340000008075203B0044006E80300000807E86D
:1003500003D0079209D606000000006C07E40C10D9
:100360000ED007E40C0000B80B100E0410C409A650
:100370000E0000AC0D740E6810B80B0A0F00008957
:100380000C740ECC10B80B0A0F0000890C740EFE12
:1003900010B80B0A0F0000890C40066C07140540CA
:1003A00006000078054E616D653A00456469742069
:1003B0006E616D653A0006040104FC03F703F20365
:1003C000EB03DF03D503CA03000052657365742095
:1003D0006E616D650045646974206E616D650043F2
:1003E0007265617465206E616D6500546C696D3A6B
:1003F000200049643A200049633A200043683A20CB
:1004000000563A2020004261743A20200043616C7B
:100410002E6572722E2020463A002500202D2D3A9E
:100420002D2D0020200020002000252000524556C0
:100430004552534520504F4C415249545900706C1D
:10044000656173652063616C2E004E2F4100646509
:100450006C746120543D20004E2F41005465787427
:100460003D0064656C746120563D20006D617856D6
:100470006F75743D006E6F2064542F740045727266
:100480006F723A0054696D653A200070726F67723E
:10049000616D20636F6D706C6574650054696E7476
:1004A0003D002D00546578743D005662616C2E3D10
:1004B00000566F7574203D00206C696D69743D00B5
:1004C00056696E7075743D00776972657320523D90
:1004D00000626174742E20523D00202000622000D2
:1004E00074696D653A2020202020004C696D697484
:1004F000733A20006D4168003C20006D4120006D82
:1005000041200020202D2D20200043684342426CD2
:100510004469464353745342436844694359637979
:10052000436844694650435045420064542F647404
:10053000002D64560056206C696D697400F623EA3C
:1005400023FA238C2487249D24F824F3243325962E
:100550002564256A25D2256626DE2572266F268328
:1005600026534D505320646F776E00534D505320E7
:10057000757000000B0C0D0E0F23060206F605D455
:1005800005C705000007080A0F23060206D405C7A1
:100590000500000001020304090F230614060C06DF
:1005A0000206F605D405C705000000010203040594
:1005B00006090F230614060C060206F605EE05DFF3
:1005C00005D405C705000065646974206261747410
:1005D00065727900443E4320666F726D61740073EA
:1005E000746F726167652B62616C616E6300737416
:1005F0006F7261676500666173742063686172671A
:1006000065006469736368617267650062616C614B
:100610006E6365006368617267652B62616C616E11
:10062000636500636861726765000106070F050076
:1006300002120607090A0D0E0F0405000212060732
:10064000090A0D0E0F04051303000607040F050029
:1006500002120607090A0D0E0F0405130300021209
:10066000110D0E0F040513030002120C10110D0ED4
:100670000F04051303004558542054206C696D691C
:10068000740054696D65206C696D69740043415054
:10069000206C696D697400494E50555420560048CD
:1006A00057204641494C555245004F5645524C4FF4
:1006B0004144206572720042414C20627265616B58
:1006C00000424154206469736300494E5420540031
:1006D00020436F6E6E656374204261747465727935
:1006E00000436F6E6E656374204261747465727945
:1006F000210000010207FA060000566D696E75734D
:100700003A0056706C75733A200017071007000006
:1007100076616C75653A0074656D703A20002D073E
:1007200024070000706F696E7420322E00706F69AC
:100730006E7420312E0044073C07000044415441B0
:100740003A20200076616C75653A20003200E8039B
:100750003200881367076007000073076C0700000A
:10076000313030306D410035306D41003530303042
:100770006D410035306D410006090A0B0C0D0E0667
:100780001F20212223241312CC07C607C007BA0753
:10079000B407AE07A807A2079C070000566F757440
:1007A0003A0056312D363A005662363A20005662EB
:1007B000353A20005662343A20005662333A20001F
:1007C0005662323A20005662313A200056696E3A3B
:1007D00020002A08210815080908FD07F107E2078B
:1007E00000006578706572742044414E474552217F
:1007F0000063616C69622D3E554152540074656D11
:100800007020696E7465726E0074656D7020657815
:100810007465726E0049206469736368617267650C
:1008200000492063686172676500766F6C74616768
:100830006500520848083A08000072657365742024
:1008400064656661756C740063616C696272617481
:10085000650073657474696E67730080250000001D
:100860004B00000096000000E1000000C2010046BD
:100870000088137017000070176400010005000F56
:100880000005001E0001000A007800581B0000014E
:10089000000100080000000000000000000000430C
:1008A0002F6D00CC08C508BF08B608AD0865787480
:1008B0002E20416463006578742E206465620064B4
:1008C00065627567006E6F726D616C00646973615B
:1008D000626C656400E009D509CA09BE09B309ACB8
:1008E00009A00996098C098009740968095B0951F6
:1008F0000946093D09310925091B0914090C090399
:1009000009000020202072657365740073706565AE
:10091000643A2000554152543A200062616C2E2006
:100920006572723A00666F7263652062616C3A208C
:10093000006469732061677265733A2000646973AB
:100940006368202B3A00696E707574206C6F773A7B
:100950000063617020434F66663A006D696E2E49F0
:100960002049203D20492F00626565703A202020F3
:1009700020202000776173746520542E3A202000D7
:10098000442F43206379636C65733A004E69436476
:10099000202D64563A004E694D48202D64563A0089
:1009A000656E6162202D64563A20200064542F64E5
:1009B000743A00657874726E2054434F3A0065783B
:1009C00074726E20543A202020006469736368209A
:1009D0006F66663A0066616E206F6E3A20202000D6
:1009E0006261636B6C696768743A00141719181AAE
:1009F0000705061F20212223247265736574696E22
:100A00006720656570726F6D3A00763A20382E3532
:100A1000312E35362000F405CF10BE23772A7C3DD9
:100A200011241FBECFE5D8E0DEBFCDBF10E0A0E6A9
:100A3000B0E0E8E7FEE702C005900D92AE3EB107D8
:100A4000D9F714E0AEEEB0E001C01D92A53FB107AA
:100A5000E1F71AE0C0E2DAE004C02297FE010E944A
:100A6000C13EC631D107C9F70E94CA100C943A3F63
:100A70000C940000CF92DF92EF92FF92482F282F24
:100A800030E0A0E0BDE70E942D3E6B017C01A4E6B2
:100A9000B0E0A41BB10924E630E00E943C3E6C0D9E
:100AA0007D1D8E1D9F1D24E630E040E050E00E9439
:100AB0007E3EB9018DE0FF90EF90DF90CF900C94D7
:100AC000E63B882311F0909A0895909808958091BC
:100AD000F500882331F08091EE008F5F8093EE0067
:100AE00002C01092EE008091F5008A3010F480E090
:100AF00001C084E09091F500943108F082E090917B
:100B0000F5009E3108F081E09091EE00982311F0FD
:100B1000979A0895979808952091A4033091A5037A
:100B2000232B11F08093F5000895811102C0939A50
:100B3000089593980895811102C0969A0895969801
:100B40000895811102C0929A089592980895BC0167
:100B50008EE00C94E63BBC018EE00C94E63B80FFFB
:100B600002C0C09A01C0C09881FF02C0C19A01C0F2
:100B7000C19882FF02C0C29A01C0C29883FF02C01E
:100B8000C39A01C0C39884FF02C0DE9A01C0DE98F8
:100B900085FF02C0DF9A0895DF9808958C9A8B9A9A
:100BA000889A8F9AB89AB99ABA9ABB9AD69AD79ACB
:100BB0008D9A8E9A8D9A8A9A80E00E94950580E09F
:100BC0000E94610580E00E948C0580E00E94AF05D4
:100BD00020E042E060E18FEE90E00E9458170E9412
:100BE000FC3B0C94F80508958FEE90E00C94A91747
:100BF000D598D498DD98DC98BF9ABE9ABD9A80B7F4
:100C0000806680BF8FEA86B91092F7000C946D3B26
:100C100087FD21C04091660050E0682F772767FD6F
:100C2000709564177507B9F08093660098B3282F04
:100C3000217030E0220F331F220F331F82FB332736
:100C400030F9232B8270282B80E228029001112496
:100C50009F71922B98BB089584B145B12091F70004
:100C600030E0F901EE0FFF1FEE0FFF1FEC55FE4FB6
:100C70009491F901EE0FFF1FEE0FFF1F913171F0FC
:100C80002FB7F894E92FF0E0EE0FFF1FE253FE4F6D
:100C900090E0942B918380832FBF0895EB55FE4FF6
:100CA000E4918091F60047FD02C0E82B02C0E09578
:100CB000E823E093F60008951092F70008950E944B
:100CC000C8269093ED018093EC010E94B927909380
:100CD000EF018093EE010C94320AE091F700EF5F90
:100CE000E53108F0E0E084E0E89FF0011124EE55E2
:100CF000FE4F84910C940806CF93C091F70081E0D9
:100D0000C11101C080E00E942C06E1E0EC0FE5314A
:100D100008F0E0E0E093F70084E0E89FF0011124A0
:100D2000ED55FE4FE491E062E7B98091F700811143
:100D300003C0CF910C945F06CF9108958091F60087
:100D400008951F920F920FB60F9211242F933F9385
:100D50004F935F936F937F938F939F93AF93BF93C3
:100D6000EF93FF930E946D06FF91EF91BF91AF91BA
:100D70009F918F917F916F915F914F913F912F91B3
:100D80000F900FBE0F901F9018951F920F920FB6E5
:100D90000F9211242F933F934F935F936F937F9301
:100DA0008F939F93AF93BF93EF93FF930E947C0623
:100DB000FF91EF91BF91AF919F918F917F916F9133
:100DC0005F914F913F912F910F900FBE0F901F9009
:100DD00018952FB7F8946091F8007091F900809100
:100DE000FA009091FB002FBF08950E94F52E0E94FB
:100DF0001C3A0E942D280E9475380C94BE0C8091DC
:100E0000F8009091F900A091FA00B091FB000196D2
:100E1000A11DB11D8093F8009093F900A093FA00F2
:100E2000B093FB0080916700815019F080936700B8
:100E3000089581EE809367000E94190A0C94DD22C8
:100E40000E94E90696958795779567950895CF92C4
:100E5000DF92EF92FF92CF93DF93EC010E94200785
:100E60006B017C01CC0EDD1EE11CF11C0E942007F1
:100E70006C157D058E059F05C8F3DF91CF91FF901E
:100E8000EF90DF90CF900895CF92DF92EF92FF9294
:100E9000CF93DF93EC010E9420076B017C01CC0E05
:100EA000DD1EE11CF11C0E9420076C157D058E05DE
:100EB0009F0518F40E94F506F6CFDF91CF91FF90C1
:100EC000EF90DF90CF900895E82FF0E0EE0FFF1F36
:100ED000E455FE4F808191810895E82FF0E0EE0FF8
:100EE000FF1FEE59FE4F8081918108952FB7F8942E
:100EF000E82FF0E0EE0FFF1FE253FE4F808191815B
:100F00002FBF089580913602089580911601909127
:100F10001701089580910401909105010895809131
:100F20000601909107010895E82FF0E0EE0FFF1FF2
:100F3000E85EFE4F808191810895262F613110F483
:100F4000423040F021E030E0FC01338322833183E2
:100F50002083089550E0BA01620F711D620F711D68
:100F6000660F771F660F771F665F7F4F44E050E084
:100F70000C94F53E282FCA01213188F4623078F4B0
:100F800070E0620F711D620F711D660F771F660F93
:100F9000771F665F7F4F44E050E00C94133F089545
:100FA000FF920F931F93CF93DF9300D000D0CDB764
:100FB000DEB70AE111E0F12CF801459155916591F8
:100FC000749149835A836B837C83AE014F5F5F4F7B
:100FD00060E08F2D0E94BA07F80134964591559133
:100FE0006591749149835A836B837C83AE014F5F13
:100FF0005F4F61E08F2D0E94BA07F394085F1F4F87
:1010000081E1F812D9CF0F900F900F900F90DF91E0
:10101000CF911F910F91FF90089580918A01909137
:101020008B01089580919001909191010895809194
:10103000400190914101039750F0809146019091B9
:101040004701039720F083E090E00C94E00D80E0EE
:1010500008958FB7F894E0EFF1E011921192119298
:10106000119292E0E433F907C1F710923502109221
:1010700034028FBF0895CF93CFB7F8941092150123
:10108000109214011092100110921101109212018D
:101090001092130110920C0110920D0110920E018A
:1010A00010920F01109208011092090110920A018A
:1010B00010920B010E9420076093000170930101C0
:1010C0008093020190930301CFBFCF910895CF93F6
:1010D000DF930E9429080E943B08C0911601D0911D
:1010E00017018091160190911701C817D90729F4AB
:1010F0008AE090E00E944407F4CFDF91CF910895F9
:101100000E943B08109207011092060110920501FF
:10111000109204010895E8E1F1E01192119281E04A
:10112000E236F807D1F708950E9429080E943B088B
:101130000C948B088FB7F8941092FC001092FD006D
:101140001092FE001092FF008FBF109217011092B4
:1011500016010E945C060E9494080E948008E2E644
:10116000F1E01192119281E0EC3AF807D1F708957D
:101170008091360281110AC081E00E9495050E948B
:101180009A0881E0809336020C94670808951092C3
:10119000360280E00C949505CF93DF9381E00E94A6
:1011A0007607EC0180E00E9476078C179D0718F403
:1011B000C81BD90B02C0C0E0D0E081E0C93ED340DB
:1011C00008F480E0DF91CF9108958F929F92AF92C3
:1011D000BF92CF92DF92EF92FF92CF93DF93CDB782
:1011E000DEB728970FB6F894DEBF0FBECDBFF82E3E
:1011F0005B0161157105D1F140E0682FCE010596C4
:101200000E949D0741E06F2DCE0101960E949D072F
:101210002B813C8140E050E0CF80D884E12CF12C40
:101220002C193D094E095F09B50180E090E08D80E1
:101230009E80A12CB12C681979098A099B090E940A
:101240004E3E29813A8140E050E0281939094A0987
:101250005B090E94A03E2C0D3D1D4E1D5F1D57FFDA
:1012600003C020E030E0A901C90102C080E090E0A5
:1012700028960FB6F894DEBF0FBECDBFDF91CF9199
:10128000FF90EF90DF90CF90BF90AF909F908F90A6
:1012900008958F929F92AF92BF92CF92DF92EF927A
:1012A000FF92CF93DF93CDB7DEB728970FB6F894B0
:1012B000DEBF0FBECDBFF82E5B0161157105D1F108
:1012C00040E0682FCE0105960E949D0741E06F2DFA
:1012D000CE0101960E949D0729813A8140E050E0AD
:1012E000CD80DE80E12CF12C2C193D094E095F09DF
:1012F000B50180E090E08F809884A12CB12C681912
:1013000079098A099B090E944E3E2B813C8140E06D
:1013100050E0281939094A095B090E94A03E2C0DAA
:101320003D1D4E1D5F1D57FF03C020E030E0A901A9
:10133000C90102C080E090E028960FB6F894DEBFA5
:101340000FBECDBFDF91CF91FF90EF90DF90CF9098
:10135000BF90AF909F908F9008950C949A08825000
:10136000893130F4E82FF0E0E658FF4F808108958E
:1013700081E00895CF93DF93E82FF0E0EE0FFF1F99
:10138000EE59FE4FC081D1810E94AF09882319F028
:10139000813029F00AC081E0E39740F404C081E085
:1013A000C935D24018F480E001C081E0DF91CF91CF
:1013B0000895CF93C0E08FE18C0F0E94BA09882373
:1013C00029F0CF5FC630B9F786E001C08C2FCF91EE
:1013D00008951F93CF93DF931F92CDB7DEB7182FD9
:1013E00069830E94AF09E12FF0E0EE0FFF1FEE5975
:1013F000FE4F4981682F808191810F90DF91CF91BD
:101400001F910C9441162FB7F8946091FC007091D5
:10141000FD008091FE009091FF002FBF2DE730E08E
:1014200040E050E00E947E3EBB27A52F942F832FE3
:10143000089520919001309191018091FC0090914C
:10144000FD00A091FE00B091FF00820F931FA11D2F
:10145000B11D8093FC009093FD00A093FE00B0931B
:10146000FF000895CF93DF9380913602882309F41B
:1014700074C0209134023091350224363105E0F4F5
:10148000EEECF1E0C0EFD1E041915191888199817A
:10149000AA81BB81840F951FA11DB11D89939993CA
:1014A000A993B99381E0E03FF80771F72F5F3F4FB1
:1014B00030933502209334022091CE013091CF0138
:1014C0008091100190911101A0911201B09113012E
:1014D000820F931FA11DB11D8093100190931101E4
:1014E000A0931201B09313012091D0013091D1014A
:1014F00080910C0190910D01A0910E01B0910F010E
:10150000820F931FA11DB11D80930C0190930D01BB
:10151000A0930E01B0930F012091DC013091DD0109
:101520008091080190910901A0910A01B0910B01ED
:10153000820F931FA11DB11D809308019093090193
:10154000A0930A01B0930B018091140190911501B1
:1015500001969093150180931401DF91CF91089526
:1015600090E0880F991FFC01EE59FE4F20813181D8
:101570006217730718F4261B370B04C0AB01421B1C
:10158000530B9A01FC01E85EFE4F2730310518F03D
:101590001182108206C0208131812F5F3F4F31833D
:1015A0002083FC01EE59FE4F718360830895AF9252
:1015B000BF92CF92DF92EF92FF920F931F93CF9340
:1015C000DF931F92CDB7DEB7A0906201B0906301A8
:1015D00080916401909165018A159B0518F4A81A01
:1015E000B90A02C0A12CB12CB50182E10E94B00A57
:1015F00004E711E09FE1F801619171918F01892F5A
:1016000099830E94B00A99819F5F9532A1F70E9449
:10161000D909F82E80E000E010E08F1569F0EFE1C5
:10162000E80FF0E0EE0FFF1FEE59FE4F20813181F1
:10163000020F131F8F5FF1CFB80183E10E94B00A40
:101640000115110581F00A151B0520F49501201BD9
:10165000310B03C098012A193B09293E334018F485
:10166000580113E102C012E1F12CB50184E10E949E
:10167000B00A6F2D70E086E10E94B00A612F70E021
:1016800085E10E94B00A0E94030A8C010E94AA27E9
:10169000882329F0E0906801F09069010BC00E9456
:1016A000B926882329F0E0906601F090670102C016
:1016B000E12CF12CB70187E10E94B00AB80189E161
:1016C0000E94B00A9701D5010E942D3E30E1C32E41
:1016D00037E2D32EE12CF12CA70196010E947E3E29
:1016E000B90188E10E94B00A9801D5010E942D3EFF
:1016F000A70196010E947E3EB9018AE10F90DF9119
:10170000CF911F910F91FF90EF90DF90CF90BF90FE
:10171000AF900C94B00ABF92CF92DF92EF92FF92FB
:101720000F931F93CF93DF932FB7F89480913402D8
:10173000909135022FBF84369105C1F58091160135
:10174000909117010196909317018093160100EF75
:1017500011E0CCEAD1E0B12C54E6C52ED12CE12C1D
:10176000F12CF80161917191819191918F01A70103
:1017700096010E947E3E29933993B9018B2D0E94D8
:10178000E508BC018B2D0E94B00AB394F1E1BF12B1
:10179000E8CF0E94D70ADF91CF911F910F91FF9060
:1017A000EF90DF90CF90BF900C942908DF91CF91FC
:1017B0001F910F91FF90EF90DF90CF90BF90089511
:1017C0004F925F926F927F928F929F92AF92BF9251
:1017D000CF92DF92EF92FF920F931F93CF93DF93FD
:1017E000CDB7DEB728970FB6F894DEBF0FBECDBFDA
:1017F0000E942007C0900001D0900101E0900201FA
:10180000F09003016C197D098E099F0961337547BA
:101810008105910508F49BC02FB7F894009114013D
:10182000109115014090100150901101609012012B
:101830007090130160910C0170910D0180910E0167
:1018400090910F018090080190900901A0900A01E9
:10185000B0900B012FBF6D837E838F8398870E948A
:101860003B0820910601309107012F5F3F4F3093D5
:101870000701209306016801E12CF12C6D817E8126
:101880008F819885A70196010E947E3E29833A8325
:101890004B835C83C301B201A70196010E947E3E87
:1018A000B90180E00E94E5083C0169817A8181E00C
:1018B0000E94E5088615970518F4681A790A02C08F
:1018C000612C712C40909A0150909B016414750416
:1018D00020F0B3018CE10E94B00AB30164197509CC
:1018E0008BE10E94B00AC501B401A70196010E94D4
:1018F0007E3EB90187E00E94E50820910401309105
:1019000005019093050180930401BC01621B730BD8
:10191000660F771F8DE10E94B00AB8018EE128960C
:101920000FB6F894DEBF0FBECDBFDF91CF911F91F0
:101930000F91FF90EF90DF90CF90BF90AF909F906E
:101940008F907F906F905F904F900C94B00A289684
:101950000FB6F894DEBF0FBECDBFDF91CF911F91C0
:101960000F91FF90EF90DF90CF90BF90AF909F903E
:101970008F907F906F905F904F9008950E948B0B97
:101980000C94E00B1092FC001092FD001092FE00EF
:101990001092FF000C94940880915D02089580914C
:1019A0005B02811113C00E948207882381F00E948C
:1019B00085072091370230913802821B930B9C01DE
:1019C00081E02530310518F080E0089581E0089528
:1019D000815E0C946D070F931F93CF93DF9310E0FC
:1019E000CFEFDFEF00E080915D02181760F4812FE8
:1019F0000E94E80C8C179D0710F0CE0101C0012F4A
:101A00001F5FEC01F0CF802FDF91CF911F910F91DD
:101A10000895CF93DF9390915B02911104C0DF9101
:101A2000CF910C94E80C90914102C82FD0E09923FB
:101A300091F00E94E80CCC0FDD1FFE01EE5BFD4F24
:101A4000C25BDD4F2081318148815981241B350BD8
:101A5000280F391F07C0FE01EE0FFF1FEE5BFD4F81
:101A600020813181C901DF91CF910895CF93C82F93
:101A700080915B02882341F0C11106C00E94850756
:101A80009093380280933702C0935B020E94200734
:101A90006093390270933A0280933B0290933C0228
:101AA0000E948B0880915A02811104C08C2FCF9123
:101AB0000C94AF05CF910895EF92FF920F931F936F
:101AC000CF93DF9381E00E94F30586E10E946D07CA
:101AD00080935D020EE412E032E4E32E32E0F32E56
:101AE000C0E0D0E080915D0290E0C817D9076CF4A7
:101AF0008C2F0E94E80CF801819391938F01F701DC
:101B0000819391937F012196EDCF10925B02109209
:101B10005A0280E00E94360D10923802109237026D
:101B20001092390210923A0210923B0210923C023B
:101B3000DF91CF911F910F91FF90EF90089580E07A
:101B40000E94360D81E080935A0208950E949F0DF5
:101B500080E00C94F305FF920F931F93CF93DF93D4
:101B600080915C020E94090DEC01F12C01E010E073
:101B700080915D02F816E8F48F2D0E94090DAC01EA
:101B800080915B02802321F0C417D50778F40DC043
:101B90002091B2033091B3032F5F3F4F36952795C5
:101BA0002C0F3D1F2417350708F4102B000FF3945A
:101BB000DFCF812FDF91CF911F910F91FF9008957B
:101BC0001F93CF93DF93EC0110E080915D02181713
:101BD00048F48FE1810F0E9494078C179D0720F035
:101BE0001F5FF3CF81E001C080E0DF91CF911F91B3
:101BF0000895BF92CF92DF92EF92FF920F931F93BF
:101C0000CF93DF938AE090E00E94E00D882309F4EF
:101C100060C00E94EB0C80935C020E94E80C8C0177
:101C200062E08DE692E00E94A9190817190748F1B1
:101C300072E4E72E72E0F72EEEE4CE2EE2E0DE2E26
:101C4000C0E0D0E0BB24B39480915D0290E0C8175F
:101C5000D907CCF48C2F0E94E80CF7018193919363
:101C60007F01F601819391936F01801B910B20916D
:101C7000B2033091B3032817390708F4B12C219629
:101C8000E3CFBB24B394109241020E9420076093DB
:101C90003D0270933E0280933F0290934002BB202E
:101CA00059F0DF91CF911F910F91FF90EF90DF904E
:101CB000CF90BF900C949F0D0E94AB0DDF91CF9100
:101CC0001F910F91FF90EF90DF90CF90BF900C94F9
:101CD000360DDF91CF911F910F91FF90EF90DF9024
:101CE000CF90BF900895CF9380914102811119C088
:101CF00081E08093410280915C020E94E80CC0E088
:101D000080915D02C81768F48C2F0E94E80CEC2FBC
:101D1000F0E0EE0FFF1FE25BFD4F91838083CF5F0A
:101D2000EFCFCF9108950F931F930E94200700914A
:101D30003D0210913E0220913F0230914002601B13
:101D4000710B820B930B28EE33E040E050E00E94D1
:101D50007E3EC9011F910F91089583E090E00E949B
:101D6000E00D8823C9F080915B02811103C00E94BD
:101D7000F90D12C00E94730E0E94AB0D90E0809589
:101D8000909520915B0230E082239323892B81F48C
:101D90000E94930E4F9760F40E94CF0C882311F09D
:101DA00082E0089580915A028823D1F381E008955A
:101DB00080E00E94360DF0CF1F93CF93DF93EC01AC
:101DC00010E080915D02181780F4812F0E94E80CCA
:101DD0008C179D0710F081E009C0812F0E94090D2A
:101DE0008C179D07C0F71F5FECCF80E0DF91CF918C
:101DF0001F9108951F93CF93DF93EC0110E0809122
:101E00005D02181780F4812F0E94E80CC817D907CB
:101E100010F081E009C0812F0E94090DC817D90771
:101E2000C0F71F5FECCF80E0DF91CF911F91089545
:101E300060915D02662329F070E00E946A3ECB014A
:101E4000089580E090E008950E9467120E9470203B
:101E500085E00E94B0370E94D22E88E00E94B03701
:101E600081E00C9495050E9467120E947E2086E016
:101E70000E94B0370E94D22E88E00C94B037E091D7
:101E80005E02F0915F028591949110926002FC01D4
:101E90000994E0915E02F0915F02329685919491EF
:101EA000FC010994E0915E02F0915F023496859105
:101EB0009491FC010994CF93DF931F92CDB7DEB7C5
:101EC000811109C00E94801F0E94490F0E94C7080B
:101ED0000E94330F0FC0813059F469830E94801F24
:101EE0000E94490F6981611105C00E94240F02C040
:101EF00081E001C080E00F90DF91CF9108958F9233
:101F00009F92AF92BF92CF92DF92EF92FF920F9388
:101F10001F93CF93DF93EC01A62E0E943F0F0E94E8
:101F2000621F0E94272F0E946712D12C82E0B82ED8
:101F3000E12CF12CCC24C39492E0992E8824839434
:101F40000E948F37811106C0FE01ED0DF11D8491B5
:101F50000E9484230E94F511182F883051F40E94AA
:101F6000C6118111A3C080916002823009F0A1C026
:101F70009DC080916002813021F4111102C09092C5
:101F8000600280916002823009F05CC0FE01ED0DBC
:101F9000F11DE491E23031F0E330D1F1E13009F0AC
:101FA0004EC03FC00E94B0278823A9F0123019F418
:101FB0006FEF7FEF04C0143071F461E070E08DE6E4
:101FC00092E00E94FD1A609172027091730281E0AA
:101FD00090E00E94D6240E94BF26882309F444C0C2
:101FE000123019F46FEF7FEF05C0143009F03CC0D8
:101FF00061E070E08DE692E00E94E41A6091700268
:102000007091710241E081E090E00E94FF242CC0B9
:102010000E94BF26811150C00E94B02781114CC080
:1020200023C0123019F46FEF7FEF04C01430E1F4D5
:1020300061E070E08DE692E00E94261B15C01092D0
:10204000600212C0143049F4ED2DF0E03196EC0F2F
:10205000FD1FE491E11148C007C0123029F4DD20D2
:1020600019F00E944421DA94CC2081F00E94442F80
:10207000B82E6A2D0E945B0FC82E882339F00E946B
:102080008507E816F906A1F5C11003C0A1103BC0F1
:10209000C12C113009F054CF0E94C611882309F4D5
:1020A0004FCF0E94801F0E94490F2DC010926002E6
:1020B00068CF8092600265CF123041F40AE020E0E0
:1020C00030E048EE5DEF6FEF7FEF09C0143061F64E
:1020D0000AE020E030E048EE5DEF61E070E086E885
:1020E00093E00E94652EC0CF0E944421D394BCCFC0
:1020F0000E9485077C010E94520FB82E6A2D0E9413
:102100005B0FC82EC1CF8B2DDF91CF911F910F9107
:10211000FF90EF90DF90CF90BF90AF909F908F9007
:10212000089560E081E692E00E94D71887FD0AC01A
:10213000811102C00C94AB34992787FD90950197CB
:102140000C94392A089578940E94CE050E94613B30
:102150000E949F270E9426280E94AD090E94B83D38
:102160000E9403356DE072E08CEF91E00E945320F5
:1021700088EE93E00E94270780E00E94EB3A0E94DD
:10218000C7158091B8039091B903079710F40C9488
:10219000CC2008950E94A3100E949110FDCF6DE104
:1021A00072E081E692E00E94E91787E990E090935F
:1021B000620280936102E5E6F2E08081805E8083C6
:1021C0000895FC0124812052621710F40C94DC174E
:1021D000862F90E0821B91090E94701A6EE00C9489
:1021E000AA13CF93DF93EC010E945F128B819C8135
:1021F0000E94A7130E9463126A8188819981DF91EE
:10220000CF910C943F13FC0187818F3118F48F5FBD
:102210008783089586818F5F86830895FC01878177
:10222000882319F0815087830895868181508683A1
:1022300008950F931F93CF93DF93FC01C681D0E0E5
:102240006D2F80E00E94591210E11C0F01E00C0F6D
:102250008C2F0E94F813011711F0C02FF7CFDF5F0A
:10226000D23011F0C12FECCFDF91CF911F910F91A0
:1022700008951F93CF93DF93EC018FEE90E00E94BF
:102280001C171FEF8E81181721F0CE010E94191123
:102290001E818F81682F70E094E0759567959A95FF
:1022A000E1F78F700E9459120E94F511823049F0B7
:1022B000843019F0813049F413C0CE010E9403111B
:1022C000E1CFCE010E940E11DDCF8830D9F68D818D
:1022D000E881F981E80FF11D8F819E81890F80834C
:1022E000DF91CF911F910895FC0171836083428338
:1022F00034832383158280E2868317820895CF93E7
:10230000DF93EC018FEE90E00E941C170E94671291
:10231000CE010E94F11061E08D810E9459120E944D
:10232000F5118230B1F0843041F08130C1F48FEE8C
:1023300090E00E94151780E026C04D81242F30E0E8
:102340008A8190E00197281739072CF74F5F4D835A
:10235000E2CF8D818823F9F281508D83DCCF8830E4
:10236000D1F682E00E944812823048F083E00E9459
:10237000B0378FEE90E00E94151781E004C0CE01C7
:102380000E943911C3CFDF91CF91089580916B02E4
:1023900008950C949E06E0916B02F0E0EE0FFF1F93
:1023A000E75DFD4F859194910895CF93DF93D82FEA
:1023B0000E949E06C82F8D1741F082E390E00E9494
:1023C00044070E949E06DC2FF5CF10926B021092FC
:1023D0006A0280936C02882319F080E00E94BD3766
:1023E00080916C02DF91CF910895FF920F931F931C
:1023F000CF93DF93C0E0D0E0F12C0AEF10E04091E2
:102400006B02242F30E0F901EE0FFF1FEB5BFD4F55
:1024100065917491C8010E946A3E6F5F7F4FF90118
:10242000EE0FFF1FC617D707A8F40E949E06F82ECE
:1024300081E090E00E94440780916C02F81641F020
:102440008F2DDF91CF911F910F91FF900C94D5119B
:102450002196D5CFFF20A1F020916A022F5F209313
:102460006A02E95CFD4F8591949130E028173907A5
:1024700038F0463018F44F5F40936B0210926A02B6
:1024800080916C02DF91CF911F910F91FF90089581
:10249000CF93DF93D82FC0916C020E94F5119091D9
:1024A0006B029D1711F08C17C1F3892FDF91CF912B
:1024B0000895462F682F8FEE90E00C94E01660E0B0
:1024C00080E00C94591261E080E00C9459128FEE78
:1024D00090E00C94D916CF93DF93FC01DB018C9133
:1024E000882389F0C081D1814883808191810196C0
:1024F000918380838C9181508C93882321F001906B
:10250000F081E02D1082DF91CF910895BF92CF929C
:10251000DF92EF92FF920F931F93CF93DF93EC0123
:102520008B017A014115510501F1CA010E94CE3E8D
:10253000F8019081B82E981708F4B92ECB2CD12C25
:10254000A601B701888199810E94D73E28813981EF
:102550002C0D3D1D39832883F80180818B198083E0
:10256000882319F0E881F9811082DF91CF911F91C2
:102570000F91FF90EF90DF90CF90BF900895CF9292
:10258000DF92FF920F931F93CF93DF9300D0CDB7CD
:10259000DEB76C018B01BA0180E090E049835A8379
:1025A0000E94132EF82ED8018C9149815A818F15E3
:1025B00070F44FE3B801C6010F900F90DF91CF91F7
:1025C0001F910F91FF90DF90CF900C946B12F6014A
:1025D000208131812F0D311D31832083D8018C91D1
:1025E0008F198C93882321F00190F081E02D1082C7
:1025F000F9012AE030E0FF2069F0CA01B9010E9428
:102600006A3E405DBAE06B9F401911244293FA94F0
:10261000AB01F1CF0F900F90DF91CF911F910F91F0
:10262000FF90DF90CF9008950F931F93CF93DF9388
:10263000CDB7DEB72B970FB6F894DEBF0FBECDBF78
:102640008E010F5F1F4F1A87098727E02B87AC0188
:10265000BE01655F7F4FCE0109960E94BF12B8018F
:102660008FEE90E00E94CC172B960FB6F894DEBF49
:102670000FBECDBFDF91CF911F910F9108950F93A2
:102680001F93CF93DF93CDB7DEB761970FB6F89462
:10269000DEBF0FBECDBF0097D1F0613108F060E121
:1026A000062F10E0A801BC01CE0101960E94E63E73
:1026B000E1E0F0E0EC0FFD1FE00FF11F1082BE0122
:1026C0006F5F7F4F8FEE90E00E94CC1701C080E0DB
:1026D00061960FB6F894DEBF0FBECDBFDF91CF91EC
:1026E0001F910F9108950F931F93CF93DF93CDB751
:1026F000DEB761970FB6F894DEBF0FBECDBF00976F
:10270000D1F0613108F060E1062F10E0A801BC01B2
:10271000CE0101960E94D73EE1E0F0E0EC0FFD1FF4
:10272000E00FF11F1082BE016F5F7F4F8FEE90E0D0
:102730000E94CC1701C080E061960FB6F894DEBF0E
:102740000FBECDBFDF91CF911F910F91089560E132
:102750000C947313CF92DF92EF92FF920F931F931B
:10276000CF93DF93CDB7DEB762970FB6F894DEBF95
:102770000FBECDBF009719F1613108F060E16C0127
:102780008E010F5F1F4F78018E2D801B861768F416
:10279000C6016A8B0E94053FF70181937F01FFEF1D
:1027A000CF1ADF0A6A898111EFCFF801E60FF11D18
:1027B0001082B8018FEE90E00E94CC1701C080E03B
:1027C00062960FB6F894DEBF0FBECDBFDF91CF91FA
:1027D0001F910F91FF90EF90DF90CF900895882385
:1027E00019F08AE592E002C086E592E00C94A71306
:1027F000682F8FEE90E00C94AB17CF93DF93D82F18
:10280000C0E0CD1729F080E20E94F813CF5FF9CF26
:102810008C2FDF91CF91089580E10C94FD13CF931D
:10282000DF931F92CDB7DEB7682F64303CF080E2B3
:1028300069830E94F81369816150F7CF8EE592E0B9
:102840000F90DF91CF910C9473136AE00E945E3E6B
:1028500080E3890F0C94F813DF92EF92FF920F93AD
:102860001F93CF93DF93EC01F62ED42E16160CF0A7
:1028700089C068EE73E00E946A3E8B0180E090E0C0
:102880000E94132E24E0E22EE80EEF142CF480E2D6
:102890000E94F813FA94F9CFFE14E4F0D1101AC094
:1028A000BE0180E090E00E94132E182FFA941F15AD
:1028B00024F480E20E94F813F9CFCE010E94141391
:1028C0008DE6DF91CF911F910F91FF90EF90DF90F8
:1028D0000C94F8132E2D332727FD30952450310901
:1028E0004F2D552747FD50954217530754F48F2D10
:1028F000DF91CF911F910F91FF90EF90DF900C949B
:102900000F14C8010E941413CE0168EE73E00E94F8
:102910006A3EEC011F2D1E1993E0F92EF10E84E0A2
:10292000810F18161CF48EE20E94F81302E0010FCA
:102930001F1444F4CE0164E670E00E946A3E862FC4
:102940000E942514CE0164E670E00E946A3EEC010C
:102950001F5F10163CF46AE070E00E946A3E862F0A
:102960000E942514111674F4CE016AE070E00E94F2
:102970006A3EDF91CF911F910F91FF90EF90DF9012
:102980000C942514DF91CF911F910F91FF90EF9040
:10299000DF900895EF92FF920F931F93CF93DF93F1
:1029A000EC01F62E16160CF059C064E670E00E9499
:1029B0006A3E8B0180E090E00E94132E33E0E32E0C
:1029C000E80EEF142CF480E20E94F813FA94F9CF89
:1029D0002E2D332727FD3095235031094F2D5527B4
:1029E00047FD5095421753074CF48F2DDF91CF913F
:1029F0001F910F91FF90EF900C940F14C8010E944B
:102A00001413CE0164E670E00E946A3EEC010F2DC3
:102A10000E1912E0100F83E0800F18161CF48EE2DE
:102A20000E94F813FF24F394F00E111644F4CE0123
:102A30006AE070E00E946A3E862F0E9425141F14EF
:102A40006CF4CE016AE070E00E946A3EDF91CF91A3
:102A50001F910F91FF90EF900C942514DF91CF916F
:102A60001F910F91FF90EF900895BF92CF92DF9248
:102A7000EF92FF920F931F93CF93DF938C01D62E8B
:102A8000B42EC22E1616ACF52111DA94B80180E0EE
:102A900090E00E94132EC82FD0E0ED2CFF24E7FC1D
:102AA000F094CE15DF052CF48B2D0E94F813DA94E8
:102AB000F4CFCC2019F08DE20E94F813EC16FD063D
:102AC00064F48D2DDF91CF911F910F91FF90EF90C6
:102AD000DF90CF90BF900C940F14C801DF91CF917D
:102AE0001F910F91FF90EF90DF90CF90BF900C94CB
:102AF0001413DF91CF911F910F91FF90EF90DF9012
:102B0000CF90BF90089520E00C943515CF93DF93BC
:102B10006CE370E00E946A3E9B01EC0140E363E0DD
:102B2000C9010E9483158AE30E94F81340E362E022
:102B3000CE01DF91CF910C94831540E20C94831564
:102B4000292F221F2227221F19F091958195910983
:102B500040E20C943515161634F461500E94CA14E4
:102B600083E40C94F8130895161634F461500E940F
:102B70009D1585E20C94F813089563303CF0625083
:102B80000E949D1583E592E00C94A7130895FF928F
:102B90000F931F93CF93DF93CDB7DEB728970FB670
:102BA000F894DEBF0FBECDBF4EE0F42EF9821FE1D8
:102BB0001A8301E10B830C830D830E830F83188727
:102BC000AE014F5F5F4F60E08FEE90E00E942417F0
:102BD000F9821A830B830C831D831E831F8318873E
:102BE000AE014F5F5F4F61E08FEE90E00E942417CF
:102BF000F9821A831B831C831D831E831F831887FE
:102C0000AE014F5F5F4F62E08FEE90E00E942417AD
:102C100028960FB6F894DEBF0FBECDBFDF91CF91DF
:102C20001F910F91FF9008950F931F93CF93DF9300
:102C3000062F142F64E670E00E946A3EEB0180E2EA
:102C40000E94F81380E20E94F813C436D10548F4BC
:102C500080E20E94F813CA30D10518F480E20E9485
:102C6000F813CE010E941413802F0E94F813812FB5
:102C70000E94F81380E2DF91CF911F910F910C9485
:102C8000F8130F931F93CF93C62F1416BCF56FEF55
:102C9000640F0C2F10E00830110508F5F801E65D0F
:102CA000FF4F0C94BF3E16E51BC040E201C048E652
:102CB00067E5CF911F910F910C941416642FCF915B
:102CC0001F910F910C94AB1514EF07C00E94A01533
:102CD00085E50FC06EEF640F11E440E002C015E51A
:102CE00041E00E942C14812F0E94F813C53031F46A
:102CF00088E6CF911F910F910C94F813CF911F91FB
:102D00000F910895462F65E00C944116462F60E020
:102D10000C944116462F61E00C944116462F66E054
:102D20000C944116AC9881E090E00E94263EAC9A4B
:102D300081E090E00E94263EAC9884E690E00C94FE
:102D4000263EA39AA29AA19AA09A60FF02C0AB9ACB
:102D500001C0AB9861FF02C0AA9A01C0AA9862FFA5
:102D600002C0A99A01C0A99863FF02C0A89A01C035
:102D7000A8980C9492161F93CF93DF93EC01162F13
:102D8000442311F0AD9A01C0AD98612F70E084E04A
:102D9000759567958A95E1F7CE010E94A116612F7E
:102DA000CE01DF91CF911F910C94A11640E00C94BD
:102DB000BB1661E00E94D61680ED97E00C94263E8B
:102DC000CF93DF93CDB7DEB728970FB6F894DEBF69
:102DD0000FBECDBF28E0E2E7F0E0DE0111960190E2
:102DE0000D922A95E1F7FC012481421710F04FEF74
:102DF000420FFE013196E40FF11DE40FF11D208119
:102E0000260F2068622F28960FB6F894DEBF0FBEFB
:102E1000CDBFDF91CF910C94D616FC016181262F96
:102E2000246021836C600C94D616FC0161816E7F56
:102E3000618368600C94D616FC016181262F2160A5
:102E4000218369600C94D616CF92DF92EF92FF92A5
:102E50000F931F93CF93DF9300D0CDB7DEB77C01E4
:102E6000677088E0689FB00111246064C7014983DE
:102E70005A830E94D6164981C42E5A81D52E00E06D
:102E800010E0F60161916F0141E0C7010E94BB169D
:102E90000F5F1F4F08301105A1F70F900F90DF91C2
:102EA000CF911F910F91FF90EF90DF90CF900895F9
:102EB000CF93DF93EC01423018F0888188608883DB
:102EC0004C831D82222329F0413019F488818460CB
:102ED000888380E593EC0E94263EAD98AC9863E031
:102EE000CE010E94A11684E991E10E94263E63E092
:102EF000CE010E94A11684E991E10E94263E63E082
:102F0000CE010E94A11686E990E00E94263E62E072
:102F1000CE010E94A11668816062CE010E94D61681
:102F200084E08983CE010E940D17CE010E94D9163C
:102F300082E08A8366E0CE01DF91CF910C94D616B1
:102F4000A59AA49AFC01108220E041E060E10C9473
:102F500058170C94A01741E00E94BB1681E0089519
:102F6000EF92FF920F931F93CF93DF938C01F42E78
:102F7000C62FD72FE42EE60EEC1631F0699141E012
:102F8000C8010E94BB16F8CF8F2DDF91CF911F9102
:102F90000F91FF90EF9008956115710559F0FB01B5
:102FA00001900020E9F7AF0141505109461B570B32
:102FB0000C94B01780E00895FC0127818085E22FF2
:102FC000F82FE60FF11DE60FF11D859194910C94F9
:102FD000A7130F931F93CF93DF93EC018B01CB01CA
:102FE0000E94D42D682FCE010E944C188DE990E0EC
:102FF0009983888318870F83DF91CF911F910F9159
:103000000895DF92EF92FF920F931F93CF93DF9378
:10301000EC01F62E69871A8681E08D8382E0D82E36
:10302000EE24E3948E01075F1F4F0E94F511482F95
:10303000823011F0843061F4E881F9810280F381FB
:10304000E02D6F2DCE010995F986DA86ED8204C058
:10305000813089F0883079F0C8010E94E62E811114
:10306000ED828D81882319F0CE010E9479188A851E
:103070008F5F8A87DACF8FEF898781E08E838D8398
:10308000483009F080E0DF91CF911F910F91FF90C0
:10309000EF90DF9008950895FC0183EA90E091831A
:1030A000808312821382648381E0858386830895FE
:1030B000FC012281211103C081E0828308954381B4
:1030C00030E0240F311D848190E0019728173907E3
:1030D00014F44F5F43830895FC018281882319F023
:1030E0008150828308958381882311F081508383E6
:1030F00008951F93CF93DF93EC0110E0612F80E0E0
:103100000E94591280E20E94F813E881F9816B81D4
:10311000610F0190F081E02DCE0109950E940C1401
:103120001F5F123059F76A8180E00E9459128EE3C6
:103130000E94F8136A818FE00E9459128CE30E946A
:10314000F8131D82DF91CF911F9108950F931F9364
:10315000CF93DF93EC010E94F511182F0E948F3757
:10316000882321F081E08D838FE71CC00B818A8149
:10317000080F123031F0143039F4CE010E94581883
:1031800003C0CE010E946C188B819A81890F0817A9
:1031900011F081E08D838D81882319F0CE010E948A
:1031A0007918812FDF91CF911F910F910895EF92A0
:1031B000FF921F93CF93DF931F92CDB7DEB77C01B1
:1031C00081E0F701858311E0C70169830E94A61899
:1031D0006981811102C0F7011682F7019681911170
:1031E00008C0883031F481E0868383819281890F21
:1031F00009C0662311F0F7011583813029F7911179
:10320000E3CF8FEF0F90DF91CF911F91FF90EF9061
:1032100008950F931F93CF93DF93EC018B0150E040
:103220000E94BF124AE3B801CE01DF91CF911F91F6
:103230000F910C946B12EF92FF920F931F93CF9309
:10324000DF9300D01F92CDB7DEB78C01462F0B96CF
:103250009A8389838EE08B83D801EC91F0E0EE0FA6
:10326000FF1FE758FD4FE590F490BE016D5F7F4F63
:10327000CE0101960E940919A701BE016D5F7F4F23
:10328000CE0101960E94861240E2BE016D5F7F4F23
:10329000CE0101960E946B12F80141815281BE015C
:1032A0006D5F7F4FCE0101960E94BF124FE2BE01BB
:1032B0006D5F7F4FCE0101960E946B12D801179669
:1032C0004D915C911897BE016D5F7F4FCE010196C5
:1032D0000E94BF120F900F900F90DF91CF911F911E
:1032E0000F91FF90EF900895CF93DF9300D01F923E
:1032F000CDB7DEB7462F2EE02B830B969A838983BA
:10330000BE016D5F7F4FCE0101960E9409190F909B
:103310000F900F90DF91CF91089529E1289FB00180
:10332000299F700D11246E567F4F49E150E08DE6C4
:1033300092E00C94F53E29E1289FB001299F700D81
:1033400011246E567F4F49E150E08DE692E00C94D7
:10335000133FDC01EC91B6E0EB9FF0011124E60F86
:10336000F11DEE0FFF1FE35DFC4F859194910895D1
:10337000DC01EC9146E0E49FF0011124E60FF11D21
:10338000EE0FFF1FE35DFC4F8591949117962D91F1
:103390003C911897AC01429FC001439F900D529FF2
:1033A000900D11240895FC01A181B2812091A80300
:1033B0003091A9030E942D3E24E630E040E050E029
:1033C0000E947E3E293EFDEF3F074105510520F05A
:1033D00028EE3DEF40E050E0C9010895FC01208156
:1033E000213029F420919E0330919F0309C022309F
:1033F00029F420919C0330919D0302C020E030E02D
:10340000FC0187819085AC01249FC001259F900D10
:10341000349F900D11240895809198039091990301
:103420000895FC016081FBE06F9FB001112461549D
:103430007D4F4BE050E00C94C53EDC01EC91F0E098
:10344000EE0FFF1FE758FD4F859194910C94731375
:1034500060E170E00C941D1ACF93DF93EC0188813A
:1034600060E0811108C0CE010E94B81967E00E9497
:103470008A1687E011C0CE010E94B81965E00E944B
:103480008A168FE20E94F8138F8198850E94141388
:1034900083E40E94F81388E0DF91CF91089566E0FD
:1034A000FC01838194810E94861686E0089566E07F
:1034B000FC01858196810E94861686E00895FC01B4
:1034C00081819281883EFDEF9F0729F48FE692E08B
:1034D0000E94A71303C067E00E94821688E0089547
:1034E00029E1AC01249FC001259F900D1124835632
:1034F0009F4F08950F931F93CF93DF93CDB7DEB700
:10350000A6970FB6F894DEBF0FBECDBF8C01AB01FE
:10351000BC01CE0101960E94011CCE0101960E94C1
:10352000861C89E1FE013C96D80101900D928A9596
:10353000E1F7A6960FB6F894DEBF0FBECDBFDF91C0
:10354000CF911F910F910895FC012081260F2A3001
:1035500040F0161617061CF4FC01108203C029E087
:10356000FC0120830C94111A61E00E94B8199C019F
:1035700040E050E068E877E987ED97E10E947E3E01
:1035800026328EE438074105510520F025E23EE45D
:1035900040E050E0C901089561E00E94B8199C0123
:1035A00040E050E068E87DE682E692E00E947E3EE0
:1035B0002E3883E138074105510520F02DE833E12D
:1035C00040E050E0C90108950F931F93CF93DF931C
:1035D00000D0CDB7DEB78C0169837A830E94B41A1C
:1035E000AC0169817A81C80103960F900F90DF9139
:1035F000CF911F910F910C94CA2E0F931F93CF93CD
:10360000DF9300D0CDB7DEB78C0169837A830E9447
:10361000CC1AAC0169817A81C80105960F900F9090
:10362000DF91CF911F910F910C94CA2EDC01EC9188
:10363000BCE0EB9FF0011124E15DFC4F65917491BA
:1036400084EF95E60E946A3ECB010895EF92FF92C7
:103650000F93CF93DF9300D0CDB7DEB77C016983A2
:103660007A830E94161BF701208169817A812111DA
:1036700003C022E330E002C020E030E001E0AC0112
:10368000C70107960E94652E0F900F90DF91CF9192
:103690000F91FF90EF900895CF93DF93EC010E947C
:1036A000161B2F8138858217930710F498878F8314
:1036B000CE010E94B41A2B813C818217930710F42B
:1036C0009C838B83CE010E94CC1A2D813E81821770
:1036D000930710F49E838D83DF91CF9108950F930C
:1036E000CF93DF93EC0104E620E030E048EE5DEF9D
:1036F00001960E94652E89819A819C838B83288103
:10370000233039F49C0136952795369527953C83CF
:103710002B839E838D83CE01DF91CF910F910C94EB
:103720004C1B0F931F93CF93DF934BE050E061E06E
:1037300073E08DE692E00E94C53E8DE692E00E9425
:103740004C1BC0E0D0E08E010F5F1F4FB8018DE62B
:1037500092E00E947419CE010E949B19003211055B
:1037600011F0E801F0CFDF91CF911F910F910895F3
:10377000FC01818592850895FC0181859285883EB2
:10378000F3E09F0719F487E692E004C00E94141347
:1037900082E692E00E94A71386E008950F9301E06D
:1037A00020E030E048EE53E009960E94652E0F912C
:1037B0000895262F443019F06FEF7FEF02C061E0CB
:1037C00070E0223091F028F4222349F0213051F0AA
:1037D0000895243081F060F0253081F008950B9633
:1037E0000C94A41A0B960C94261B0B960C946F1B2E
:1037F0000B960C94E41A0B960C94FD1A0B960C94F1
:10380000CE1BEF92FF920F931F93CF93DF93EC01A8
:103810008B017A0166EB73E00E94E9178FEF8987CD
:1038200089EA90E09983888389E1F801DE011B969B
:1038300001900D928A95E1F7FDA2ECA2DF91CF9164
:103840001F910F91FF90EF9008950F931F93CF93C7
:10385000DF93CDB7DEB728970FB6F894DEBF0FBE63
:10386000CDBF8C01BC016A5E7F4F2BEA33E04EE096
:1038700050E0CE0101960E947411CE0101960E9483
:103880007F1181E0F801858328960FB6F894DEBF9A
:103890000FBECDBFDF91CF911F910F910895CF93B0
:1038A000DF93EC010E9467120E945F1285EA93E0A9
:1038B0000E94A7130E9463126EE0CE0146960E94FA
:1038C0003F130E94D22E83E0DF91CF910C94B0374A
:1038D000CF93DF93EC016CA17DA16F5F7F4F0B96BF
:1038E0000E941B19CE01DF91CF910C944F1CCF93F6
:1038F000DF93EC016CA17DA16F5F7F4F0B960E945F
:103900007419CE01DF91CF910C944F1CDF92EF928E
:10391000FF920F931F93CF93DF93CDB7DEB76997D5
:103920000FB6F894DEBF0FBECDBF8C0189E1D82E53
:10393000C8010B967C0160E0C8010E94D71887FD82
:1039400030C0873041F0883051F0863061F4C801D2
:103950000E94681CF0CFC8010E94251CECCFC80152
:103960000E94771CE8CFF701DE0111969D2D019092
:103970000D929A95E1F7682FC8010E9401188111F4
:1039800009C0FE013196D7018D2D01900D928A95C7
:10399000E1F7D1CF83E00E94B037C7010E944C1BF2
:1039A000CACF69960FB6F894DEBF0FBECDBFDF91C8
:1039B000CF911F910F91FF90EF90DF9008951F938B
:1039C000CF93DF93EC01162F0E94DC17CE010996EE
:1039D0000E94DB2E882311F0298501C02FEF3327A9
:1039E00027FD3095812F90E02817390749F11230D3
:1039F000C9F048F4112389F0113011F5CE010B966E
:103A00000E942C1A1DC01430B9F088F01530C1F492
:103A1000CE010B960E94BC1B13C0CE010B960E94D8
:103A2000281A0EC0CE010B960E945F1A09C0CE0163
:103A30000B960E944F1A04C0CE010B960E94571A93
:103A400080E0DF91CF911F9108950F931F93CF9343
:103A5000DF9300D0CDB7DEB789839A830E945F12CF
:103A600089819A810E94A7130E9463120091170313
:103A700010911803C8010E94CE3E892B19F0C8018D
:103A80000E94A7130F900F90DF91CF911F910F917C
:103A90000C940C148091940390919503892BA1F0C0
:103AA0008DE10E946D0765E02AE0AC01249FC00112
:103AB000259F900D11240E94A0158DE60E94F813F9
:103AC00083E40E94F81304C085E794E00E94A713E2
:103AD0000C940C148BE10E946D0765E00E94A01508
:103AE0008DE60E94F81386E50E94F8130C940C14DE
:103AF00090E0880F991F62E0865F9A4F0C947313D1
:103B00000F931F93CF93DF9361E08DE692E00E94C5
:103B1000B8198C0165E08DE692E00E94B819EC01BD
:103B200084E10E946D0780179107B8F4C817D90780
:103B3000B0F49C012C1B3D0BC8018C1B9D0B64E653
:103B400070E00E946A3EC9010E946A3E64367105B7
:103B500010F063E670E0862F03C083E601C080E0CA
:103B6000DF91CF911F910F910895613011F40C9462
:103B7000090D0C94D12BCF93DF93D82FC62F8FE153
:103B80008D0F0E94BA09882351F06C2F8D2F0E944F
:103B9000B51D46E06C2FDF91CF910C94411683E068
:103BA00095E0DF91CF910C94A713FF920F931F9391
:103BB000CF93DF93182F062F0E945F128091BD02D2
:103BC000882319F01092BD0203C081E08093BD02EA
:103BD0009091BB028091BC02992311F08F5F01C0CC
:103BE00081508093BC028091BC0286301CF0109200
:103BF000BB0205C082301CF481E08093BB021092AE
:103C000087020E94CF0C811108C083E090E00E94DF
:103C1000E00D882341F0C0E209C080914102882371
:103C200021F0C2E403C0CDE601C0C2E680915B0290
:103C3000811103C08C2F0E94F81380915B028823AE
:103C400031F1D0E0C1E00E94CC0CD817D0F48091C3
:103C50005C02D81761F080915B028C2331F0809177
:103C6000BD02882321F082E003C081E001C080E032
:103C70000E94F813C03811F0CC0F01C0C0E0DF5F24
:103C8000E2CF0E94CC0C98E0981B892F25C0809130
:103C9000BB02882319F04EE3F42E02C03CE3F32E5E
:103CA000CD3611F0C032B9F4C1E0D0E02091BC02B1
:103CB000332727FD30952C173D0711F48F2D01C0B8
:103CC00080E20E94F8132196C730D10579F780E28F
:103CD0000E94F81303C087E00E94FD13D1E0D10FCA
:103CE0008D2F0E9425148AE30E94F813602F812FE4
:103CF0000E94BB1D0E940C140E946312D630C8F4AF
:103D0000C2E0C10F8C2F0E9425148AE30E94F81391
:103D1000602F8D2F0E94BB1DC63059F083E0810FAC
:103D20000E9425148AE30E94F813602F8C2F0E94B2
:103D3000BB1DDF91CF911F910F91FF900C940C143C
:103D400089E10E946D0768E00E94821680E20C946F
:103D5000F8130E945F122091600280918603909177
:103D60008703223031F466E00E949D1588EF94E0CD
:103D700005C065E00E949D1584EF94E00E94A713A2
:103D800080E20E94F8130E94BA2B67E00E94861618
:103D90000E940C140E9463128BEE94E00E94A71301
:103DA00067E080917A0390917B030E948A160C94BD
:103DB0000C140F931F936091C8027091C9028091F7
:103DC000CA029091CB0220918602222371F00E94B8
:103DD00020070091C8021091C9022091CA023091B7
:103DE000CB02601B710B820B930B28EE33E040E09B
:103DF00050E00E947E3EC9011F910F910895CF931C
:103E00000E94B926811110C00E94AA27882331F090
:103E10000E94B92681110AC0C4E40BC00E94CF0CD5
:103E2000811106C0CEE405C0C3E403C0C5E401C0EF
:103E3000C2E40E94A9268111C7E58C2F0E94F813C5
:103E400080E20E94F8130E94D91E0E94861580E22B
:103E5000CF910C94F8130E945F128091600282301F
:103E6000F9F40E94B027882359F066E0809172022D
:103E7000909173020E949D158FEF94E00E94A7130A
:103E80000E94BF26882371F066E0809170029091B5
:103E900071020E949D158BEF94E00E94A71302C04F
:103EA0000E94A01E67E087E10E94E9090E940C14AD
:103EB0000E9463120E94FF1E67E084E10E94E909EC
:103EC0000C940C140E9420076093C8027093C902DE
:103ED0008093CA029093CB021092C4021092C50242
:103EE0001092C6021092C7021092C0021092C10234
:103EF0001092C2021092C30281E08093860208955C
:103F00000F931F930E9420070091C8021091C902CD
:103F10002091CA023091CB02601B710B820B930B74
:103F20006093C8027093C9028093CA029093CB0237
:103F3000109286021F910F910895CF92DF92EF9217
:103F4000FF920E945F1280EE94E00E94A7130E94ED
:103F5000D91E0E9486150E9463128DED94E00E9486
:103F6000A7136091C4027091C5028091C60290911E
:103F7000C70258EEC52E53E0D52EE12CF12CA70137
:103F800096010E947E3EC9010E9486158AED94E04A
:103F90000E94A7136091C0027091C1028091C20279
:103FA0009091C302A70196010E947E3EC901FF9035
:103FB000EF90DF90CF900C9486150E945F1281EDF8
:103FC00094E00E94A7130E94DB2B68E00E948E16EB
:103FD0000E940C140E94631283E10E94BA09882394
:103FE00049F088EC94E00E94A7130E94E12B68E05E
:103FF0000E948E160C940C140E945F1280EC94E0C8
:104000000E94A71367E086E00E94E9090E940C1451
:104010000E94631288EB94E00E94A71347E061E0DE
:104020008091AA039091AB030E9441160C940C144A
:104030000E945F1281EB94E00E94A71367E082E187
:104040000E94E9090E940C140E9463128AEA94E01B
:104050000E94A71367E083E10E94E9090C940C1405
:104060000E945F1284EA94E00E94A7138091940357
:1040700090919503892B29F065E087E00E94E9097A
:1040800004C082EA94E00E94A7130E940C140E94CC
:1040900063128CE994E00E94A71365E085E00E941A
:1040A000E9090C940C140F931F93CF93DF9300D066
:1040B000CDB7DEB78B0189839A830E9467120E9475
:1040C0005F1289819A810E94A7130E946312C8011E
:1040D0000F900F90DF91CF911F910F910C94A71328
:1040E0008BE894E00E94251D0E94631284E894E00E
:1040F0000E94A7130E94D91E0C9486158DE794E0A8
:104100000C94251D0E945F120E94A01E0E944A1D51
:104110000E9463120E94FF1E0C946A1D0E945F128F
:104120008CE694E00E94A71367E08CE10E94E90905
:104130000E940C140E94631282E694E00E94A7136E
:104140000C946A1D0E945F128CE594E00E94A713F4
:104150008091940390919503892B31F00E948A07F6
:1041600069E00E94AB1504C088E594E00E94A713A3
:104170000E940C140E9463128EE494E00E94A71324
:104180000C944A1D60E070E08AE494E00C945320A3
:104190000E94C2200C94D22E60E070E08EE394E086
:1041A0000E94532088E893E10C94270760E070E0B8
:1041B0008DE294E00C9453206091C0027091C10292
:1041C0008091C2029091C30220E63AEE40E050E0B6
:1041D0000E947E3EC9010895CF93DF938091BA0279
:1041E0008F5F843018F48093BA0202C01092BA0232
:1041F0008091BA02833061F4C0916D00CF5FC093AB
:104200006D000E9438298C1718F481E080936D00AE
:10421000C0916D00C1500E945F1280916D0061E0FD
:1042200090E00E949D1580E00E94F813D0E0CC0F32
:10423000DD1FFE01E657FD4F808191810E948615AA
:1042400081E00E94FD1382E00E94F813FE01EC560B
:10425000FD4F808191810E9486150E940C140E945E
:104260006312FE01E256FD4F68E0808191810E9459
:104270008216C855DD4F68E0888199810E948216B8
:10428000DF91CF910C940C14CF93DF93C0E0DFE06B
:1042900061E08D2F8C1B0E9459128FEF0E94F81342
:1042A00060E08C2F0E9459128FEF0E94F8138AE071
:1042B00090E00E942707CF5FC03151F78AE090E07D
:1042C000DF91CF910C942707CF93C82F0E946712DC
:1042D0000E945F128DE094E00E94A71362E08C2F91
:1042E00090E00E949D1580E49FE1CF910C942707F8
:1042F0001092B7021092B6021092B5021092B40258
:104300008091B8028093B9021092B3021092B20267
:104310000895CF93DF9328E630E084E992E0CAE87D
:10432000D2E0A8EAB2E06EE972E045E05DE2F901B0
:1043300051939F01FC0111921192CF011992199290
:104340001D921D92FB0111921192BF01415079F70C
:10435000DF91CF910895CF930E9478210E94892107
:104360000E945F1264E070E08DE692E00E941D1AE8
:1043700080916002823011F48EE301C080E20E94DD
:10438000F8138DE692E00E942C1A80916002823030
:1043900011F48CE301C080E20E94F81380911903AC
:1043A0000E94781D0E9463120E94801D8093B802B3
:1043B00062E090E00E949D158AE294E00E94A713BB
:1043C0008EEB92E00E94DB2E882319F0C091BE0292
:1043D00001C0CFEFC0FF05C065E082E10E94E9099E
:1043E00003C085E00E94FD1380E20E94F8138091D3
:1043F0006D0284508630A8F4C1FF05C065E083E1FA
:104400000E94E90903C085E00E94FD13C2FF05C0B8
:104410000E94D909CF910C94251480E2CF910C947D
:10442000F81366E080916E0290916F020E948216EE
:10443000CF910C940C140E94801D8093B80290912F
:10444000B902981728F58093B9020E94D91E2091CD
:10445000B4023091B502821B930B9093B702809304
:10446000B6020E94D91E9093B5028093B402809147
:10447000B6029091B7022091B2023091B302281790
:10448000390710F0232B21F49093B3028093B202EA
:104490000895CF93DF930E941B220E94D9098111B6
:1044A00028C083E10E946D07EC0182E10E946D0744
:1044B000C817D90728F49C012C1B3D0BE90102C049
:1044C000C81BD90BC53FD140A0F024E630E0809155
:1044D000B902281B31094091B2025091B302249FC6
:1044E000C001259F900D349F900D1124DF91CF9135
:1044F000089529E6EBCFFF920F931F93CF93DF939D
:104500000E943829FF24FA94F80E0E943B29833434
:1045100029F50F2D112707FD1095F801E859FF4FD8
:104520008083000F111FE801CC56DD4F6091C0025F
:104530007091C1028091C2029091C30228EE33E0D3
:1045400040E050E00E947E3E3983288389E10E944A
:104550006D07F801E855FD4F918380830E943B2948
:10456000843429F5CF2DDD27C7FDD095FE01E8590C
:10457000FF4F8083CC0FDD1F8E0106571D4F6091CA
:10458000C0027091C1028091C2029091C30228EED4
:1045900033E040E050E00E947E3EF801318320830A
:1045A00089E10E946D07C256DD4F99838883DF91B0
:1045B000CF911F910F91FF9008950E94BF26811106
:1045C0002FC00E94B02781112BC00E94CF0C8823DE
:1045D000A1F08091C4029091C502A091C602B09151
:1045E000C70280599F4FAF4FBF4F8093C402909333
:1045F000C502A093C602B093C7020E947B220E940C
:10460000492290938902809388028091BA028F5F39
:10461000893218F48093BA0208951092BA0208956C
:104620008091C0029091C102A091C202B091C302D8
:1046300080599F4FAF4FBF4F8093C0029093C102EC
:10464000A093C202B093C302C0CF81E09091BA029E
:10465000953108F080E008950E941B220E942523D6
:104660008823B9F00E945F120E94A01E67E087E1D4
:104670000E94E9090E940C140E9463120E94FF1E0E
:1046800088E294E00E94A7130E94B92681111CC001
:104690002FC00E945F1268E088E10E94E90986E26B
:1046A00094E00E94A71367E087E10E94E9090E9455
:1046B0000C140E94631268E08AE10E94E90983E217
:1046C00094E00E94A71314C08091B802833680F44E
:1046D0008091B2029091B302459730F080918802A8
:1046E000909189020C9486158CE194E00C94A713A8
:1046F0008091B80264E090E00E949D158AE194E008
:104700000E94A7130C940C149091BF029F5F90938A
:10471000BF0290E0FC013197E331F10570F5EE5CEA
:10472000FF4F0C94BF3E0C942B1F0C94A91E0C94AD
:104730009D1F0C94302061E007C061E083E00C9481
:10474000D51D61E006C066E080E0F9CF66E0F6CFF7
:1047500066E086E0F4CF0C94AB210C94DD1F0C9442
:1047600018200C94FC1F0C942C230C948E200C9479
:10477000A2200C9482200C94EC2008958FEF80935B
:10478000BE0208950F931F93CF93DF930E94762765
:10479000C0917002D091710261E08DE692E00E94BA
:1047A000B8198C01CE0165E070E00E946A3E8FE08E
:1047B0000E944909EC0140E0BC01C8010E94052C9F
:1047C0008FE00E94312CCE01DF91CF911F910F918C
:1047D0000C94562781E00C9488270E9417088823A0
:1047E00021F00E94C8260C94D82C08951092CC0277
:1047F0000C94C223CF93DF930E94ED230E940D08F7
:10480000EC018091CC02811111C062E08DE692E052
:104810000E94B8198C179D0748F481E08093CC0260
:1048200080917002909171020E9470270E94170877
:10483000882381F064E08DE692E00E94B8198C171D
:104840009D0740F485E395E0909318038093170348
:1048500081E030C00E948F07029758F180919A033F
:1048600090919B03892B89F08BE10E946D07EC01ED
:104870008DE692E00E94EE19D195C195D1098C1771
:104880009D071CF481E395E0DFCF80919403909124
:104890009503892B71F08DE10E946D07EC018DE687
:1048A00092E00E940C1A8C179D071CF48BE295E095
:1048B000CBCF82E0DF91CF9108958130910521F037
:1048C0009093CE028093CD027093D0026093CF027A
:1048D00008950F931F93CF93DF93C091CD02D09192
:1048E000CE02CE010E94180F8C010E940D08C8173D
:1048F000D90738F4C801DF91CF911F910F910C9423
:10490000FA0E81E0DF91CF911F910F91089581E020
:104910000E9413280C94A60D0E9405280E945C0D8D
:1049200021E08091AE039091AF03892B09F420E040
:104930002093D10280E10C94312C0F931F93CF93DD
:10494000DF930E946924182F0E94B927EC010E946E
:104950001708882311F001E001C0012F8091D102D6
:10496000882329F0BE01812F0E94892C01C0812F4C
:10497000882329F081E00E94132881E00CC00023E5
:1049800049F0BE01812F0E94A52D8C179D0711F0C3
:104990000E94F22782E0DF91CF911F910F9108953D
:1049A000BC0180E10E9449090C94A42B0F931F9332
:1049B000CF93DF938C01EB010E945D24BE0180E167
:1049C0000E94490940E0BC01C8010E94052CCE01AB
:1049D0006AE070E00E946A3ECB01DF91CF911F91A7
:1049E0000F910C94D02481E00E9488270C94A60D8E
:1049F0000E945C0D0E9476278FE00C94312C0F935F
:104A00001F93CF93DF931F92CDB7DEB78C018FE05A
:104A100049830E9449094981BC01C8010F90DF9177
:104A2000CF911F910F910C94052C0F931F93CF934F
:104A3000DF93C0917A03D0917B03CE010E94180FBF
:104A40008C010E940D088C179D0738F4C801DF9176
:104A5000CF911F910F910C94DC0E81E0DF91CF91EB
:104A60001F910F9108951F93CF93DF930E941525F7
:104A7000182F0E94C826EC01BC01812F0E94892CAE
:104A8000882329F081E00E94882781E019C00E94D4
:104A90001708811107C0111105C0CE010E94C22B59
:104AA000882369F00E94CF0C811109C0BE01812FBB
:104AB0000E94A52D8C179D0711F00E94562782E0B9
:104AC000DF91CF911F9108950E94F3240E948724C3
:104AD0000C94A60DCF93DF931F92CDB7DEB79091C4
:104AE000D302913039F018F0923039F00FC00E94A3
:104AF00033250CC00E949D2409C00E94AD0E823057
:104B000089F089830E94642589810CC0813051F429
:104B10009091D202992331F082E08093D3020E94D7
:104B20005C0D82E00F90DF91CF9108950E945C0DA3
:104B30008091D8029091D9020E94180F0E94FA0E1B
:104B40002091D8023091D902882369F06091D60271
:104B50007091D70240E0C9010E94FF240E94F8240E
:104B60001092D30208956091D4027091D502C901C8
:104B70000E94D6240E948C2481E08093D1028093ED
:104B8000D30208958093D20208959093D90280931E
:104B9000D8027093D7026093D6025093D502409307
:104BA000D402089587E08093BE0282E08093BF0222
:104BB0000E94A93783E08093DB0208950F931F932F
:104BC000CF93DF938091DA02882379F00E94D9098C
:104BD0009091740201E0981301C000E011E081118E
:104BE00010E0913021F4112311F010E000E083E196
:104BF0000E94BA09882309F45CC083E10E946D0712
:104C0000EC0182E10E946D07C817D90728F49C01C6
:104C10002C1B3D0BE90102C0C81BD90BC53FD1407D
:104C200008F447C0C1E0011102C087E001C083E081
:104C30008093BE02112329F08091BE02825080939E
:104C4000BE02CC2329F08091BE0281508093BE0227
:104C5000011104C0111102C0CC2331F081E00E9487
:104C6000B037111107C004C088E00E94B03708C0F7
:104C7000002331F08091B0039091B103892B11F49E
:104C8000D0E001C0D1E00E94C911811102C0109290
:104C9000DB02D11106C0C11104C00E94C9118830C5
:104CA00051F08091DB02823011F481E00AC082E091
:104CB00008C0C0E0B8CF8091DB028F5F8093DB0239
:104CC000F0CFDF91CF911F910F9108958FEF8093D7
:104CD000BE0288E00C94B0378093DA0208951092F7
:104CE000E20208950E94200728EE33E040E050E001
:104CF0000E947E3E2093DE023093DF024093E0026A
:104D00005093E10208950E94200728EE33E040E02E
:104D100050E00E947E3E6091DC027091DD02809145
:104D2000DE029091DF02A091E002B091E102860FD5
:104D3000971FA11DB11D82179307A407B50728F07F
:104D400081E08093E20282E008951092E20281E025
:104D500008958091E20208952CE3AC01249FC001E4
:104D6000259F900D11249093DD028093DC020C941A
:104D7000722681E09091EB02911180E0089581E02C
:104D80002091E9023091EA02232B09F480E0089592
:104D90008091E9029091EA020895EF92FF920F93B9
:104DA0001F93CF93DF93EC018B0180916F008230D2
:104DB00009F474C08FE00E94E5089093E8028093A4
:104DC000E70268EB7BE08FE00E94490996958795A2
:104DD0009093E4028093E302BE018FE00E94E50815
:104DE0009093E6028093E5022091E7023091E80279
:104DF0002817390718F5821B930B893B9B40F0F06D
:104E00000E9467120E945F1260E070E08BE695E0FE
:104E10000E9453207801CE15DF0570F0C7010E9473
:104E2000A70584EF91E00E9427078091E30290910B
:104E3000E402E80EF91EEFCF0E9417082091E70266
:104E40003091E8028091E5029091E6028217930783
:104E500028F5281B390B293B3B4000F10E946712C3
:104E60000E945F1260E070E081E695E00E945320AE
:104E70007E010E151F0580F0C8018E199F090E9442
:104E8000A70584EF91E00E9427078091E3029091AB
:104E9000E402E80EF91EEDCF0E941708CE01DF9163
:104EA000CF911F910F91FF90EF90089520916F0087
:104EB000223041F02091BA033091BB032817390703
:104EC00008F4C9016091E9027091EA020E94CD26BE
:104ED0009093EA028093E9020E94A7050C9494083B
:104EE000BC018FE00E9449090C9456278091EB0287
:104EF000882369F01092EA021092E90280E090E0C3
:104F00000E94562781E00E949B051092EB020895B3
:104F1000CF93C82F8091EB0281110FC0CC2369F091
:104F200080E090E00E9456271092EA021092E90277
:104F300080E00E949B05C093EB02CF9108951092F0
:104F4000EA021092E90280E090E00E94562781E098
:104F50000C94882781E09091F002911180E00895EF
:104F600081E02091EE023091EF02232B09F480E0E2
:104F700008958091EE029091EF020895CF93DF9310
:104F8000EC014091920350919303BA01645F714028
:104F900081EF92E00E94DF2D8091F102882311F0D1
:104FA000C0E0D0E0CE01DF91CF910895CF93C82F1C
:104FB0008091EC029091ED020E94BE272091EE02BA
:104FC0003091EF028217930711F4CC2349F09093AC
:104FD000EF028093EE020E94AB05CF910C949408EF
:104FE000CF91089520916F00223041F02091BC03B1
:104FF0003091BD032817390708F4C9019093ED02D9
:105000008093EC0281E00C94D6278091F0028823F3
:1050100049F080E090E00E94F22781E00E94A10523
:105020001092F0020895CF93C82F8091F002811161
:105030000BC0CC2349F080E090E00E94F22780E092
:105040000E94A105C093F002CF91089580E090E006
:105050000E94F22781E00C9413288091F0028111C4
:1050600002C00C94D627089580916D02893051F0CA
:105070009CEF980F963048F08150823048F484E0DD
:1050800093E008958BEF92E008958DE093E008950A
:1050900082EF92E0089585E595E090935F0280931A
:1050A0005E0290916D02945081E0963008F080E0AD
:1050B0000E946C2661E08AE296E00E947F0F91E0F8
:1050C000813009F090E0892F08950F931F93CF93BB
:1050D000DF930E94C2250091720210917302C09169
:1050E0007002D091710263E08DE692E00E94B819DF
:1050F000A801BE010E94C5258FE495E090935F0250
:1051000080935E0260E080E396E0DF91CF911F9193
:105110000F910C947F0F1F93CF93DF93162FC091A5
:105120007002D091710261E08DE692E00E94B819A0
:1051300040E0BE010E94FF2489E495E090935F0265
:1051400080935E02612F80E596E0DF91CF911F9101
:105150000C947F0F1F93CF93DF93182FC091700291
:10516000D091710261E08DE692E00E94B81941E0B1
:10517000BE010E94FF2429E435E030935F022093B2
:105180005E02612F80E596E0DF91CF911F910C9434
:105190007F0F2DE335E030935F0220935E02682F8E
:1051A00089E696E00C947F0FCF93C82F62E08DE6DE
:1051B00092E00E94B8196091720270917302A091FE
:1051C0007402B0917502E091AC03F091AD03AE9F13
:1051D0009001AF9F300DBE9F300D1124820F931FA1
:1051E0000E94D62423E435E030935F0220935E02D0
:1051F0006C2F8CE396E0CF910C947F0F1F93CF938D
:10520000DF93182FC0917202D091730262E08DE695
:1052100092E00E94B819BE010E94D62423E435E032
:1052200030935F0220935E02612F8EE596E0DF915E
:10523000CF911F910C947F0F86EF91E090935F02C6
:1052400080935E0260E08AE496E00C947F0F809188
:10525000A2039091A3030E94AC268BE595E0909366
:105260005F0280935E0261E08CE396E00C947F0F16
:1052700080911603089580916E000895813019F48D
:1052800081E00C94D428811103C081E00C94FE28A5
:105290008230B1F380E008954091160350E02091F0
:1052A000A0033091A1034217530789F0813041F4E4
:1052B0002091B0033091B103232BD9F0862F10C079
:1052C000811102C0862F10C08230C9F412C0813013
:1052D00049F48091B0039091B103892B49F080E0AB
:1052E0000C94AA28811102C00C94C928823039F488
:1052F00060E08091A6039091A7030C948B2880E036
:1053000008950F931F93CF93DF93C82F81E080936D
:10531000160314E4D7E503E44091160350E020910E
:10532000A0033091A10324173507E8F10E94C20CB5
:1053300010936E008C2F0E943E298130A9F5D093E6
:105340006E000E942729813079F50E9478210E9401
:10535000C20C00936E004091160350E02091A00310
:105360003091A1034217530711F061E001C060E0E2
:105370008C2F0E944C298130B9F4D0936E0040915B
:10538000160350E02091A0033091A1034217530768
:1053900021F00E942729813039F4809116038F5F14
:1053A00080931603B9CF81E0DF91CF911F910F91C8
:1053B0000895CF93C82F8093190323E735E03093E6
:1053C0001803209317038F3030F4E82FF0E0E355F3
:1053D000FF4F808101C080E080936F000E94B2384F
:1053E0000E94B8080E944B288823F1F184E00E94B3
:1053F000B0378C2F90E08F309105A0F5FC01EB5B6E
:10540000FF4F0C94BF3E60E08091A6039091A703EC
:105410000AC00E941C2928C080E00E94D42824C011
:1054200060E085E090E00E948B281EC060E080E094
:1054300002C060E081E00E94652816C080E00E9402
:10544000C92812C080E00E94FE280EC081E003C07F
:1054500080E001C082E00E94812906C080E00E94B5
:10546000AA2802C00E94C8200E94C708CF910C94AD
:10547000C2380F931F93CF93DF93EC010E948D19D5
:105480000E9434288C0160E0C8010E94D71887FD73
:1054900029C090916D02E82FFF27E7FDF095993024
:1054A00019F4ED56FA4F0FC08CEF890F863018F4BF
:1054B000E655FA4F08C09150923018F4EB57FA4F66
:1054C00002C0EC58FA4F84918F3049F4BE018DE64A
:1054D00092E00E947A1ACE010E949B19D1CF0E94BD
:1054E000D929D1CFDF91CF911F910F91089563EB0F
:1054F00075E08DE093E00E94E91769E875E084E0CB
:1055000093E00E94E9176AE975E08BEF92E00E9450
:10551000E91769E775E082EF92E00C94E917FC0166
:10552000428153814115510591F0A081B181B7FFAE
:1055300003C0B195A195B10928EE33E00E943C3E2D
:105540009A0140E050E00E947E3EC901089580E04B
:1055500090E008950F931F93CF93DF9300D000D076
:10556000CDB7DEB78C01862FF801628173810E946E
:10557000E5089C838B83F801808191819A838983DC
:10558000CE0101960E948F2A0F900F900F900F90DE
:10559000DF91CF911F910F9108950F93FC01CB01E3
:1055A000002341F04617570708F4CA01641775072E
:1055B00048F407C06417750708F4CA01461757076F
:1055C00008F4BA01978386839183808313821282C1
:1055D0001582148233872287681B790B7187608755
:1055E0000F910895FC019B0140E050E08681978176
:1055F000281B390B41095109A285B3850E94433EFE
:1056000020853185442737FD4095542F0E94A03EC8
:105610002115310581E04807510524F457FD05C0E7
:10562000C90108958FEF9FEF089580E090E00895FD
:10563000DF92EF92FF920F931F93CF93DF93EC01D2
:105640002A813B812417350720F4FA01E21BF30B72
:1056500003C0F901E41BF50B8C819D81969587951C
:105660008E179F0770F5888199818617970720F418
:10567000FB01E81BF90B03C0FC01E61BF70BEF2B4A
:1056800001F12417350738F48A01021B130B7B0143
:10569000E81AF90A06C07C01E61AF70A8901041B18
:1056A000150BC7010E940D2ED82E888599850E9462
:1056B0000D2ED81206C01D830C83F986E8861B8741
:1056C0000A87DF91CF911F910F91FF90EF90DF90AC
:1056D00008950F931F93CF93DF93EC018B019A01F1
:1056E000A885B9850E943C3E2A853B8540E050E074
:1056F0000E94A03EC801A0E0B0E082179307A40773
:10570000B5071CF41F821E8204C0021B130B1F83EB
:105710000E83DF91CF911F910F910895EF92FF9229
:105720000F931F93CF93DF93EC018B017A010E94BB
:10573000182BA701B801CE01DF91CF911F910F91D6
:10574000FF90EF900C94692B8233910510F482E363
:1057500090E09093810380938003089580911C03CF
:10576000813029F48091800390918103089580E035
:1057700090E0089560917C0370917D0380911E03F9
:105780000C94E50820912103213041F041E0209163
:105790008003309181038217930708F040E0842F43
:1057A00008952CE0829FC001112460911E03865D44
:1057B0009C4F0C94AA2A60911E0382E793E00C94FC
:1057C000AA2ACF93DF9300D000D0CDB7DEB782E115
:1057D0000E946D079A83898383E10E946D07298166
:1057E0003A81281B390B3A83298387E10E946D0790
:1057F0009C838B83CE0101960E948F2A0F900F907D
:105800000F900F90DF91CF9108959B01813091050A
:1058100031F090937B0380937A0340931D03309380
:105820007D0320937C036091A6037091A703C901B7
:105830000E946A3E70938103609380032233310596
:1058400030F482E390E090937D0380937C03623395
:10585000710530F482E390E090938103809380039C
:105860000895EF92FF920F931F93CF93DF9391E0F0
:1058700090931C03FF24F3948F3009F0F12C809354
:105880001E0360EA70E00E94490990937F038093B1
:105890007E030E940D082091800330918103409186
:1058A0007A0350917B030F2DBC018AE693E00E949E
:1058B000CD2A0E94CC0C80931F0380917A03909193
:1058C0007B030E94180FEC0110E08CE0E82E809121
:1058D0001F03181798F4812F0E94090DBC01209115
:1058E000800330918103E19EC00111240F2DAE0190
:1058F0008E5D9C4F0E94CD2A1F5FE9CF109221033D
:1059000010922003DF91CF911F910F91FF90EF90A4
:1059100008950F931F93CF93DF93082FEB0180918E
:105920001D038823C9F040917E0350917F0320918D
:105930008003309181032417350708F49A012C174E
:105940003D0710F410925A0280912103813021F01A
:105950000E94AD0E80931C0380911C03813011F5D1
:1059600080912103823041F411E020918003309135
:105970008103C217D30708F010E00E94AE2B8C17EA
:105980009D0770F0111102C0002351F09091200387
:1059900081E0890F8093200381E09A3020F402C0D7
:1059A0001092200380E0DF91CF911F910F91089515
:1059B0000F931F93CF93DF93EC010E940D08AE016C
:1059C000BC018AE693E00E948E2B10E00CE08091EF
:1059D0001F03181770F4812F0E94090DBC01019F4D
:1059E000C0011124AE018E5D9C4F0E948E2B1F5F63
:1059F000EECFDF91CF911F910F910895CF92DF925B
:105A0000EF92FF920F931F93CF93DF9360917A03EE
:105A100070917B038AE693E00E94F22A8C018091C8
:105A20007A0390917B030E94180F7C01D12C9CE09B
:105A3000C92E80911F03D81698F4CD9CE001112443
:105A4000CE5DDC4FB701CE010E94F22A081719077C
:105A500028F0B701CE010E94F22A8C01D394E9CF3D
:105A6000C801DF91CF911F910F91FF90EF90DF90D0
:105A7000CF9008950F931F93CF93DF93EB01809303
:105A800078039093790320917C0330917D038C01FE
:105A90002817390708F489010E94AE2B8017910757
:105AA00008F4C801C817D90711F120912103223049
:105AB000A9F48C179D0790F0209180033091810309
:105AC0002C173D07A0F04091760350917703209169
:105AD0003702309138024217530749F020913702BC
