:100000000C94E8040C9410050C9410050C94100545
:100010000C94223B0C9410050C9410050C941005C4
:100020000C9410050C945E3B0C946E070C94100518
:100030000C9410050C94003C0C94353C0C94100569
:100040000C9492070C9410050C9410050C94100558
:100050000C94100563174A174C174E175517611764
:100060005B175D17682450245224542456245824C6
:100070005A245E2460246324652476246A246C2434
:100080006E2472247424702478240E2A392A142AA7
:10009000172A1B2A212A242A292A2D2A312A332ADF
:1000A0000E2A172A1B2A352AB736BA36BF36C43667
:1000B000C736CA36CD36D036D636D936DE36E136F4
:1000C000E636ED36F036F336F836FB3628372A3783
:1000D0002F37343738373C37403744374A374C3777
:1000E000503756375B375F376137633769376D375E
:1000F0004A384C384E3852385238503856385438BE
:10010000000000000067582F00000000F567E6308F
:10011000010032000200E8030100320002002C015D
:1001200000000000000000000000000000000000CF
:10013000000000002ECA7E3BC24CA40B0C49701775
:100140000000000043BFA80E0000000080D566102C
:100150000000000080D0841F0000000031D5611035
:1001600000000000C0D665100000000080D46510BB
:100170000000000080D46510010032000200E80396
:100180000100320002002C010006080001FF0101FD
:1001900000000106090001FF0302010002060A0037
:1001A00001FF0000000006060E0000FF0302010030
:1001B00005060D0000FF0203000004060C0000FF0E
:1001C0000302010003060B0000FF040600000706FF
:1001D000070000FF030201004D0E970E9E0F4368BB
:1001E00065616C692D43686172676572206D007688
:1001F000302E33336D5F32303134303833310003D9
:100200000200006F7074696F6E73000100010001DD
:1002100000010001000A0064000100030008000959
:10022000000A000B000C0001000200040006000898
:10023000000A000C006D5600206E6F007965730097
:10024000496E66006D696E2E00756E6C696D69741D
:1002500000756E6C696D69746564009C029702920A
:10026000028D02880283027E02790274026F024EBE
:10027000695A6E004C343335004C343330004C69CD
:10028000706F004C696C6F004C69666500506220AD
:1002900020004E694D48004E69436400556E6B6EF8
:1002A0000000980898086C0710275802019808F475
:1002B000016C070100E001029808F4016C070100DD
:1002C000E001039808DC006C070600E001049808D0
:1002D00098086C070300780005980898086C0703D5
:1002E00000780006980898086C07030078000798C3
:1002F0000898086C070300780008980898086C07AD
:100300000300780009980898086C0703007800013A
:100310000001000100010000000100B0041C0752B0
:1003200003000008075203B0044006E80300000879
:1003300007E803D0079209D606000000006C07E426
:100340000C100ED007E40C0000B80B100E0410C403
:1003500009A60E0000AC0D740E6810B80B0A0F0051
:1003600000890C740ECC10B80B0A0F0000890C74B5
:100370000EFE10B80B0A0F0000890C40066C071423
:10038000054006000078054E616D653A00456469D8
:1003900074206E616D653A00E803E303DE03D90360
:1003A000D403CD03C103B703AC03000052657365EA
:1003B00074206E616D650045646974206E616D65C1
:1003C00000437265617465206E616D6500546C69EF
:1003D0006D3A200049643A200049633A200043689E
:1003E0003A2000563A2020004261743A202000430F
:1003F000616C2E6572722E2020463A002500202D59
:100400002D3A2D2D00202000200020002520005214
:1004100045564552534520504F4C4152495459007E
:10042000706C656173652063616C2E004E2F410016
:1004300064656C746120543D20004E2F410054656A
:1004400078743D0064656C746120563D20006D61D8
:1004500078566F75743D006E6F2064542F7400459C
:1004600072726F723A0054696D653A200070726F53
:100470006772616D20636F6D706C657465002D002F
:10048000546578743D005662616C2E3D00566F7560
:1004900074203D00206C696D69743D0056696E7072
:1004A00075743D00776972657320523D0062617416
:1004B000742E20523D0020200062200074696D657A
:1004C0003A2020202020004C696D6974733A200086
:1004D0006D4168003C20006D4120006D41200020EE
:1004E000202D2D20200043684342426C446946433E
:1004F0005374534243684469435963794368446978
:100500004650435045420064542F6474002D645695
:100510000056206C696D697400B324A724B7244980
:100520002544255A25B525B025F025532621262713
:10053000268F2623279B262F272C274027000B0CAE
:100540000D0E0FED05CC05C0059E059105000007B9
:10055000080A0FED05CC059E05910500000001027B
:100560000304090FED05DE05D605CC05C0059E0583
:100570009105000000010203040506090FED05DEE8
:1005800005D605CC05C005B805A9059E0591050051
:100590000065646974206261747465727900443E18
:1005A0004320666F726D61740073746F726167656A
:1005B0002B62616C616E630073746F7261676500BA
:1005C0006661737420636861726765006469736350
:1005D00068617267650062616C616E636500636883
:1005E000617267652B62616C616E6365006368614F
:1005F000726765000106070F050002120607090A67
:100600000D0E0F04050002120607090A0D0E0F0455
:10061000051303000607040F050002120607090A66
:100620000D0E0F04051303000212110D0E0F040529
:1006300013030002120C10110D0E0F04051303001A
:100640004558542054206C696D69740054696D6577
:10065000206C696D697400434150206C696D697448
:1006600000494E5055542056004857204641494CA9
:10067000555245004F5645524C4F414420657272C9
:100680000042414C20627265616B0042415420641B
:100690006973630020436F6E6E65637420426174FA
:1006A0007465727900436F6E6E6563742042617485
:1006B00074657279210008090A0001E706DF06D790
:1006C00006CF06C7060000566D696E75733A005670
:1006D000706C75733A200056623270696E3A00563B
:1006E000623170696E3A0056623070696E3A00FC91
:1006F00006F506000076616C75653A0074656D70EC
:100700003A2000120709070000706F696E742032EA
:100710002E00706F696E7420312E002907210700AA
:1007200000444154413A20200076616C75653A20BE
:100730000032002C013200E8034B07450700005748
:1007400007500700003330306D410035306D4100F7
:10075000313030306D410035306D410006090A0BF3
:100760000C0D0E061F20212223241312B007AA0706
:10077000A4079E07980792078C078607800700004A
:10078000566F75743A0056312D363A005662363A35
:1007900020005662353A20005662343A20005662F4
:1007A000333A20005662323A20005662313A200035
:1007B00056696E3A20000008F707EB07DF07D307FA
:1007C000C40700006578706572742044414E474547
:1007D00052210063616C69622D3E55415254007490
:1007E000656D702065787465726E00492064697368
:1007F00063686172676500492063686172676500BC
:10080000766F6C746167650028081E081008000088
:1008100072657365742064656661756C74006361EC
:100820006C6962726174650073657474696E677374
:100830000080250000004B00000096000000E10051
:100840000000C20100460088137017000070176492
:1008500000010005000F0005001E0001000A0078DD
:1008600000581B000001000100080000000000000B
:100870000000000000432F6D00A2089B0895088C23
:100880000883086578742E20416463006578742EAF
:1008900020646562006465627567006E6F726D61E9
:1008A0006C0064697361626C6564008E0983097C05
:1008B00009700966095C095009440938092B0921A6
:1008C0000916090D090109F508EB08E408DC08D34D
:1008D00008000020202072657365740073706565E0
:1008E000643A2000554152543A200062616C2E2037
:1008F0006572723A00666F7263652062616C3A20BD
:10090000006469732061677265733A2000646973DB
:100910006368202B3A00696E707574206C6F773AAB
:100920000063617020434F66663A006D696E2E4920
:100930002049203D20492F00626565703A20202023
:1009400020202000776173746520542E3A20200007
:10095000442F43206379636C65733A004E694364A6
:10096000202D64563A004E694D48202D64563A00B9
:10097000656E6162202D64563A20200064542F6415
:10098000743A00657874726E2054434F3A0065786B
:1009900074726E20543A20202000141719181A0778
:1009A00005061F20212223247265736574696E6712
:1009B00020656570726F6D3A00763A20382E3531B9
:1009C0002E3536200000A605C6117B24822A6C3DF8
:1009D00011241FBECFE5D8E0DEBFCDBF10E0A0E6FA
:1009E000B0E0E8E5FEE702C005900D92AC3EB1072D
:1009F000D9F714E0ACEEB0E001C01D92AE3EB107F5
:100A0000E1F719E0C0EDD9E004C02297FE010E9491
:100A1000B13EC63CD107C9F70E94C1110C942A3FD0
:100A20000C94000086B380958170B19B02C090E069
:100A300001C092E0892BB29B02C090E001C094E01B
:100A4000892BB39B02C090E001C098E0892B0895E8
:100A5000882339F0A69AA79AD59A889A8A9A8F9A63
:100A60000895A698A798D59888988A988F980895F9
:100A70008091F300882331F08091EC008F5F8093A8
:100A8000EC0002C01092EC008091F3008A3010F468
:100A900080E001C088E09091F300943108F084E098
:100AA0009091F3009E3108F082E09091EC00982341
:100AB00011F0C49A0895C498089520919D0330912F
:100AC0009E03232B11F08093F3000895811102C03F
:100AD000939A08959398089587B18F7387B98B9AE5
:100AE0008D9AD79ABC9A8C9A8D9A8E9A80E00E94A1
:100AF000660580E00E945D0520E042E060E18DEE49
:100B000090E00E944F180E94E13B0C94DB0680FFAE
:100B100002C0AE9A01C0AE9881FF02C0AF9A01C078
:100B2000AF9882FF02C0DD9A01C0DD9883FF02C04A
:100B3000909A01C0909884FF02C0929A01C0929846
:100B400085FF02C0979A0895979808958DEE90E0DA
:100B50000C94A0182FB7F8948091F5009091F600AE
:100B6000A091F700B091F8002FBF892F9A2FAB2FDB
:100B7000BB27A7FDBA9508952FB7F8941092FC00F3
:100B80001092FB008617970768F480E090E4A0E0DD
:100B9000B0E08093F5009093F600A093F700B09337
:100BA000F80008C01092F5001092F6001092F700BD
:100BB0001092F8008091F5009091F600A091F70056
:100BC000B091F800BA2FA92F982F88278093F500AD
:100BD0009093F600A093F700B093F80081E0809323
:100BE000F4002FBF0895CF93DF93EC01C13080E66E
:100BF000D80758F4C13080E4D80748F48EE00E944A
:100C0000F53B9598BE018DE009C0C0E0D0E68DE0CF
:100C10000E94F53B949ABE0170548EE0DF91CF9113
:100C20000C94CB3BCF93DF93EC016CED79E680E045
:100C30000E94160A2FB7F894D093FC00C093FB00D3
:100C40009093FA008093F9002FBFDF91CF91089520
:100C5000882329F080E00E943106DF980895DF9A0A
:100C60000895CF93DF93C82F882319F080E00E9466
:100C70002806DFB7F8948DE00E94F53B94988EE04B
:100C80000E94F53B95981092F400DFBFC11104C09B
:100C9000969ADF91CF910895969880E00E943A0845
:100CA000EC0186E00E943A08BE01DF91CF910C94DE
:100CB000BC050F931F938091F400882309F474C03E
:100CC00080E00E9443082091F9003091FA00281733
:100CD000390730F480E00E9431061092F40064C0BD
:100CE00082E00E9443084091FB005091FC0060E0CC
:100CF00070E00091F5001091F6002091F70030911E
:100D0000F800481B590B61097109E2E0440F551FB7
:100D1000661F771FEA95D1F7040F151F261F371F8F
:100D20000093F5001093F6002093F7003093F8003D
:100D30008091F5009091F600A091F700B091F80035
:100D4000B7FF08C01092F5001092F6001092F7005D
:100D50001092F8008091F5009091F600A091F700B4
:100D6000B091F8000197A046B10560F080E090E0F6
:100D7000A0E6B0E08093F5009093F600A093F70012
:100D8000B093F8008091F5009091F600A091F700E3
:100D9000B091F800892F9A2FAB2FBB27A7FDBA95EA
:100DA0001F910F910C94F3051F910F910895BC01B1
:100DB0008EE00C94CB3BDE98D698BD9ABE9ABF9A33
:100DC00080B7806680BF8FEA86B91092FD000C94D0
:100DD000523BCF9387FD15C0C8B320E28202C00109
:100DE0001124CF71C82B88B38F71806C88BBD69AC1
:100DF0008AE090E00E94163E8FB7F894C8BBD69860
:100E00008FBFCF91089594B135B12FB7F89445E0D5
:100E1000849FF0011124E657FE4FE491F0E0EE0FBD
:100E2000FF1FEC52FE4F892F90E0932B918380831C
:100E30002FBF08951092FD0008950E94852790937A
:100E4000F3018093F2010E94E7279093F5018093CC
:100E5000F4010C94FF0AE091FD00EF5FE03108F02F
:100E6000E0E085E0E89FF0011124E857FE4F84910F
:100E70002091AD033091AE03232B19F0873009F494
:100E800086E00C94E906CF93C091FD008C2F0E9460
:100E90000307E1E0EC0FE03108F0E0E0E093FD0053
:100EA00085E0E89FF0011124E757FE4FE491E062EE
:100EB000E7B9E091FD0085E0E89FF0011124E557D6
:100EC000FE4FE491E1110E9459068091FD008111CD
:100ED00003C0CF910C941D07CF9108951F920F92DC
:100EE0000FB60F9211242F933F934F935F936F93FD
:100EF0007F938F939F93AF93BF93EF93FF930E9442
:100F00002B07FF91EF91BF91AF919F918F917F91AF
:100F10006F915F914F913F912F910F900FBE0F9066
:100F20001F9018951F920F920FB60F9211242F93B6
:100F30003F934F935F936F937F938F939F93AF9361
:100F4000BF93EF93FF930E944307FF91EF91BF91EF
:100F5000AF919F918F917F916F915F914F913F9151
:100F60002F910F900FBE0F901F9018952FB7F894E8
:100F70006091FE007091FF0080910001909101014D
:100F80002FBF08950E94E02E0E94013A0E943E2841
:100F90000E945A380C94AF0D8091FE009091FF0092
:100FA000A0910001B09101010196A11DB11D809396
:100FB000FE009093FF00A0930001B0930101809187
:100FC0006600815019F080936600089581EE809349
:100FD00066000E94E60A0C949A230E94B607969532
:100FE0008795779567950895CF92DF92EF92FF925C
:100FF000CF93DF93EC010E94ED076B017C01CC0ED7
:10100000DD1EE11CF11C0E94ED076C157D058E05AF
:101010009F05C8F3DF91CF91FF90EF90DF90CF90C5
:101020000895CF92DF92EF92FF92CF93DF93EC017E
:101030000E94ED076B017C01CC0EDD1EE11CF11C52
:101040000E94ED076C157D058E059F0518F40E9422
:10105000C207F6CFDF91CF91FF90EF90DF90CF9056
:101060000895E82FF0E0EE0FFF1FEE54FE4F808151
:1010700091810895E82FF0E0EE0FFF1FE859FE4F31
:101080008081918108952FB7F894E82FF0E0EE0F5A
:10109000FF1FEC52FE4F808191812FBF08958091F8
:1010A0003C02089580911C0190911D01089580914A
:1010B0000A0190910B01089580910C0190910D010E
:1010C0000895E82FF0E0EE0FFF1FE25EFE4F8081F3
:1010D00091810895262F613110F4423040F021E0D3
:1010E00030E0FC013383228331832083089550E074
:1010F000BA01620F711D620F711D660F771F660FB7
:10110000771F665F7F4F44E050E00C94E53E282F48
:10111000CA01213188F4623078F470E0620F711DE9
:10112000620F711D660F771F660F771F665F7F4F17
:1011300044E050E00C94033F0895FF920F931F93F7
:10114000CF93DF9300D000D0CDB7DEB700E011E041
:10115000F12CF801459155916591749149835A8319
:101160006B837C83AE014F5F5F4F60E08F2D0E94E9
:101170008708F8013496459155916591749149839A
:101180005A836B837C83AE014F5F5F4F61E08F2D8D
:101190000E948708F394085F1F4F81E1F812D9CFAE
:1011A0000F900F900F900F90DF91CF911F910F91A3
:1011B000FF90089580919001909191010895809100
:1011C0009601909197010895809146019091470171
:1011D000039750F080914C0190914D01039720F0BE
:1011E00083E090E00C94D10E80E008958FB7F894DE
:1011F000E6EFF1E0119211921192119292E0EA332E
:10120000F907C1F710923B0210923A028FBF08957E
:10121000CF93CFB7F89410921B0110921A0110923D
:1012200016011092170110921801109219011092D4
:1012300012011092130110921401109215011092D4
:101240000E0110920F0110921001109211010E94D4
:10125000ED07609306017093070180930801909356
:101260000901CFBFCF910895CF93DF930E94F60875
:101270000E940809C0911C01D0911D0180911C01A0
:1012800090911D01C817D90729F48AE090E00E94C7
:101290001108F4CFDF91CF9108950E9408091092B0
:1012A0000D0110920C0110920B0110920A01089589
:1012B000EEE1F1E01192119281E0E836F807D1F702
:1012C00008950E94F6080E9408090C9458098FB7E7
:1012D000F8941092020110920301109204011092EE
:1012E00005018FBF10921D0110921C010E941A0768
:1012F0000E9461090E944D09E8E6F1E01192119205
:1013000081E0E23BF807D1F7089580913C0281111A
:101310000AC081E00E9466050E94670981E080930F
:101320003C020C943409089510923C0280E00C9425
:101330006605CF93DF9381E00E944308EC0180E0D3
:101340000E9443088C179D0718F4C81BD90B02C0D4
:10135000C0E0D0E081E0C93ED34008F480E0DF91F6
:10136000CF9108958F929F92AF92BF92CF92DF92CA
:10137000EF92FF92CF93DF93CDB7DEB728970FB6EA
:10138000F894DEBF0FBECDBFF82E5B01611571056D
:10139000D1F140E0682FCE0105960E946A0841E035
:1013A0006F2DCE0101960E946A082B813C8140E09E
:1013B00050E0CF80D884E12CF12C2C193D094E0946
:1013C0005F09B50180E090E08D809E80A12CB12C5A
:1013D000681979098A099B090E943E3E29813A8150
:1013E00040E050E0281939094A095B090E94903E03
:1013F0002C0D3D1D4E1D5F1D57FF03C020E030E04A
:10140000A901C90102C080E090E028960FB6F894C7
:10141000DEBF0FBECDBFDF91CF91FF90EF90DF9089
:10142000CF90BF90AF909F908F9008958F929F9292
:10143000AF92BF92CF92DF92EF92FF92CF93DF9362
:10144000CDB7DEB728970FB6F894DEBF0FBECDBF7D
:10145000F82E5B0161157105D1F140E0682FCE01D6
:1014600005960E946A0841E06F2DCE0101960E9408
:101470006A0829813A8140E050E0CD80DE80E12C8D
:10148000F12C2C193D094E095F09B50180E090E06F
:101490008F809884A12CB12C681979098A099B093D
:1014A0000E943E3E2B813C8140E050E028193909E2
:1014B0004A095B090E94903E2C0D3D1D4E1D5F1D8B
:1014C00057FF03C020E030E0A901C90102C080E05D
:1014D00090E028960FB6F894DEBF0FBECDBFDF9127
:1014E000CF91FF90EF90DF90CF90BF90AF909F9003
:1014F0008F9008950C9467098250893130F4E82F59
:10150000F0E0E758FF4F8081089581E00895CF9380
:10151000DF93E82FF0E0EE0FFF1FE859FE4FC08188
:10152000D1810E947C0A882319F0813029F00AC0F9
:1015300081E0E39740F404C081E0C935D24018F45B
:1015400080E001C081E0DF91CF910895CF93C0E0AA
:101550008FE18C0F0E94870A882329F0CF5FC63065
:10156000B9F786E001C08C2FCF9108951F93CF93D8
:10157000DF931F92CDB7DEB7182F69830E947C0AD4
:10158000E12FF0E0EE0FFF1FE859FE4F4981682F71
:10159000808191810F90DF91CF911F910C9438172A
:1015A0002FB7F894609102017091030180910401BA
:1015B000909105012FBF2DE730E040E050E00E9400
:1015C0006E3EBB27A52F942F832F0895209196015F
:1015D000309197018091020190910301A091040143
:1015E000B0910501820F931FA11DB11D80930201CF
:1015F00090930301A0930401B09305010895CF9344
:10160000DF9380913C02882309F474C020913A0250
:1016100030913B0224363105E0F4E4EDF1E0C6EF11
:10162000D1E04191519188819981AA81BB81840F38
:10163000951FA11DB11D89939993A993B99381E039
:10164000E63FF80771F72F5F3F4F30933B0220933F
:101650003A022091D4013091D501809116019091E8
:101660001701A0911801B0911901820F931FA11DBC
:10167000B11D8093160190931701A0931801B093A8
:1016800019012091D6013091D701809112019091DA
:101690001301A0911401B0911501820F931FA11D98
:1016A000B11D8093120190931301A0931401B09384
:1016B00015012091E2013091E30180910E0190919A
:1016C0000F01A0911001B0911101820F931FA11D74
:1016D000B11D80930E0190930F01A0931001B09360
:1016E000110180911A0190911B01019690931B01A9
:1016F00080931A01DF91CF91089590E0880F991F90
:10170000FC01E859FE4F208131816217730718F4FC
:10171000261B370B04C0AB01421B530B9A01FC0183
:10172000E25EFE4F2730310518F01182108206C0AC
:10173000208131812F5F3F4F31832083FC01E859A5
:10174000FE4F718360830895AF92BF92CF92DF9274
:10175000EF92FF920F931F93CF93DF931F92CDB71A
:10176000DEB7A0906801B090690180916A01909104
:101770006B018A159B0518F4A81AB90A02C0A12C9E
:10178000B12CB50182E10E947D0B2091780130914E
:10179000790180917A0190917B0100917C011091F7
:1017A0007D012817390720F4BC01621B730B02C0AE
:1017B00060E070E08017910718F4081B190B02C055
:1017C00000E010E08FE10E947D0BB80180E20E94F2
:1017D0007D0B0EE711E091E2F801619171918F01AB
:1017E000892F99830E947D0B99819F5F9532A1F784
:1017F0000E94A60AF82E80E000E010E08F1569F044
:10180000EFE1E80FF0E0EE0FFF1FE859FE4F2081F7
:101810003181020F131F8F5FF1CFB80183E10E9466
:101820007D0B0115110581F00A151B0520F49501AA
:10183000201B310B03C098012A193B09293E334074
:1018400018F4580113E102C012E1F12CB50184E152
:101850000E947D0B6F2D70E086E10E947D0B612F51
:1018600070E085E10E947D0B0E94D00A8C010E94ED
:10187000D827882329F0E0906E01F0906F010BC00B
:101880000E947627882329F0E0906C01F0906D018A
:1018900002C0E12CF12CB70187E10E947D0BB80159
:1018A00089E10E947D0B9701D5010E941D3E30E128
:1018B000C32E37E2D32EE12CF12CA70196010E9412
:1018C0006E3EB90188E10E947D0B9801D5010E940E
:1018D0001D3EA70196010E946E3EB9018AE10F905C
:1018E000DF91CF911F910F91FF90EF90DF90CF90FC
:1018F000BF90AF900C947D0BBF92CF92DF92EF928E
:10190000FF920F931F93CF93DF932FB7F89480919B
:101910003A0290913B022FBF84369105C1F5809128
:101920001C0190911D01019690931D0180931C0153
:1019300006EF11E0C2EBD1E0B12C54E6C52ED12C5C
:10194000E12CF12CF80161917191819191918F01BC
:10195000A70196010E946E3E29933993B9018B2D00
:101960000E94B209BC018B2D0E947D0BB394F1E162
:10197000BF12E8CF0E94A40BDF91CF911F910F916E
:10198000FF90EF90DF90CF90BF900C94F608DF911E
:10199000CF911F910F91FF90EF90DF90CF90BF906C
:1019A00008954F925F926F927F928F929F92AF9223
:1019B000BF92CF92DF92EF92FF920F931F93CF933C
:1019C000DF93CDB7DEB728970FB6F894DEBF0FBE12
:1019D000CDBF0E94ED07C0900601D0900701E090B6
:1019E0000801F09009016C197D098E099F09613386
:1019F00075478105910508F49BC02FB7F8940091B5
:101A00001A0110911B01409016015090170160902F
:101A10001801709019016091120170911301809169
:101A200014019091150180900E0190900F01A090EB
:101A30001001B09011012FBF6D837E838F83988733
:101A40000E94080920910C0130910D012F5F3F4F3A
:101A500030930D0120930C016801E12CF12C6D8174
:101A60007E818F819885A70196010E946E3E298311
:101A70003A834B835C83C301B201A70196010E94A4
:101A80006E3EB90180E00E94B2093C0169817A8111
:101A900081E00E94B2098615970518F4681A790A40
:101AA00002C0612C712C4090A0015090A1016414DF
:101AB000750420F0B3018CE10E947D0BB301641921
:101AC00075098BE10E947D0BC501B401A701960148
:101AD0000E946E3EB90187E00E94B20920910A017E
:101AE00030910B0190930B0180930A01BC01621BA2
:101AF000730B660F771F8DE10E947D0BB8018EE19D
:101B000028960FB6F894DEBF0FBECDBFDF91CF9100
:101B10001F910F91FF90EF90DF90CF90BF90AF900B
:101B20009F908F907F906F905F904F900C947D0B63
:101B300028960FB6F894DEBF0FBECDBFDF91CF91D0
:101B40001F910F91FF90EF90DF90CF90BF90AF90DB
:101B50009F908F907F906F905F904F9008950E941C
:101B60007C0C0C94D10C1092020110920301109283
:101B70000401109205010C9461098091630208959B
:101B800080916102811113C00E944F08882381F067
:101B90000E94520820913D0230913E02821B930B1D
:101BA0009C0181E02530310518F080E0089581E046
:101BB0000895815E0C943A080F931F93CF93DF939F
:101BC00010E0CFEFDFEF00E080916302181760F4C0
:101BD000812F0E94D90D8C179D0710F0CE0101C0F6
:101BE000012F1F5FEC01F0CF802FDF91CF911F916C
:101BF0000F910895CF93DF9390916102911104C0EA
:101C0000DF91CF910C94D90D90914702C82FD0E06D
:101C1000992391F00E94D90DCC0FDD1FFE01E85BE6
:101C2000FD4FCC5ADD4F2081318148815981241BE1
:101C3000350B280F391F07C0FE01EE0FFF1FE85BB1
:101C4000FD4F20813181C901DF91CF910895CF935C
:101C5000C82F80916102882341F0C11106C00E9403
:101C6000520890933E0280933D02C09361020E940D
:101C7000ED0760933F02709340028093410290937E
:101C800042020E94580980916002811104C08C2F89
:101C9000CF910C948705CF910895EF92FF920F9307
:101CA0001F93CF93DF9381E00E94280586E10E9475
:101CB0003A088093630204E512E038E4E32E32E050
:101CC000F32EC0E0D0E08091630290E0C817D907FE
:101CD0006CF48C2F0E94D90DF801819391938F01A0
:101CE000F701819391937F012196EDCF10926102CC
:101CF0001092600280E00E94270E10923E02109225
:101D00003D0210923F021092400210924102109246
:101D10004202DF91CF911F910F91FF90EF900895B4
:101D200080E00E94270E81E08093600208950E9467
:101D3000900E80E00C942805FF920F931F93CF9391
:101D4000DF93809162020E94FA0DEC01F12C01E018
:101D500010E080916302F816E8F48F2D0E94FA0DCE
:101D6000AC0180916102802321F0C417D50778F47B
:101D70000DC02091AB033091AC032F5F3F4F3695E0
:101D800027952C0F3D1F2417350708F4102B000F43
:101D9000F394DFCF812FDF91CF911F910F91FF90AF
:101DA00008951F93CF93DF93EC0110E080916302BD
:101DB000181748F48FE1810F0E9461088C179D0766
:101DC00020F01F5FF3CF81E001C080E0DF91CF9171
:101DD0001F910895BF92CF92DF92EF92FF920F93DF
:101DE0001F93CF93DF938AE090E00E94D10E882367
:101DF00009F460C00E94DC0D809362020E94D90D3C
:101E00008C0162E083E792E00E94A01A081719078C
:101E100048F178E4E72E72E0F72EE4E5CE2EE2E01A
:101E2000DE2EC0E0D0E0BB24B3948091630290E04A
:101E3000C817D907CCF48C2F0E94D90DF7018193D4
:101E400091937F01F601819391936F01801B910B18
:101E50002091AB033091AC032817390708F4B12C5B
:101E60002196E3CFBB24B394109247020E94ED0762
:101E7000609343027093440280934502909346021C
:101E8000BB2059F0DF91CF911F910F91FF90EF9000
:101E9000DF90CF90BF900C94900E0E949C0EDF912B
:101EA000CF911F910F91FF90EF90DF90CF90BF9057
:101EB0000C94270EDF91CF911F910F91FF90EF901F
:101EC000DF90CF90BF900895CF938091470281110A
:101ED00019C081E080934702809162020E94D90D6F
:101EE000C0E080916302C81768F48C2F0E94D90D5E
:101EF000EC2FF0E0EE0FFF1FEC5AFD4F9183808333
:101F0000CF5FEFCFCF9108950F931F930E94ED07FE
:101F10000091430210914402209145023091460203
:101F2000601B710B820B930B28EE33E040E050E016
:101F30000E946E3EC9011F910F91089583E090E0C9
:101F40000E94D10E8823C9F080916102811103C0E3
:101F50000E94EA0E12C00E94640F0E949C0E90E044
:101F6000809590952091610230E082239323892B04
:101F700081F40E94840F4F9760F40E94C00D882363
:101F800011F082E00895809160028823D1F381E00E
:101F9000089580E00E94270EF0CF1F93CF93DF9328
:101FA000EC0110E080916302181780F4812F0E94E9
:101FB000D90D8C179D0710F081E009C0812F0E9478
:101FC000FA0D8C179D07C0F71F5FECCF80E0DF9103
:101FD000CF911F9108951F93CF93DF93EC0110E0F1
:101FE00080916302181780F4812F0E94D90DC817C1
:101FF000D90710F081E009C0812F0E94FA0DC8179F
:10200000D907C0F71F5FECCF80E0DF91CF911F9120
:10201000089560916302662329F070E00E945A3EA1
:10202000CB01089580E090E008950E945E130E9425
:102030002D2180E00E94660585E00E9495370E9470
:10204000BD2E88E00E94953781E00C9466050E94C1
:102050005E130E943B2186E00E9495370E94BD2EB0
:1020600088E00C949537E0916402F09165028591C7
:10207000949110926602FC010994E0916402F0913F
:102080006502329685919491FC010994E091640275
:10209000F0916502349685919491FC010994CF9357
:1020A000DF931F92CDB7DEB7811109C00E94452092
:1020B0000E943D100E9494090E9427100FC0813099
:1020C00059F469830E9445200E943D106981611185
:1020D00005C00E94151002C081E001C080E00F9091
:1020E000DF91CF9108958F929F92AF92BF92CF923E
:1020F000DF92EF92FF920F931F93CF93DF93EC0148
:10210000A62E0E9433100E9427200E94E22E0E94D9
:102110005E13D12C82E0C82EE12CF12CBB24B394A9
:1021200092E0992E882483940E947437811106C00E
:10213000FE01ED0DF11D84910E9441240E94EC12DC
:10214000182F883051F40E94BD128111A0C08091D7
:102150006602823009F09EC09AC08091660281308A
:1021600021F4111102C090926602809166028230C1
:1021700009F059C0FE01ED0DF11DE491E23031F09E
:10218000E330D1F1E13009F060C03FC00E94DE27AA
:102190008823A9F0123019F46FEF7FEF04C01430D8
:1021A00071F461E070E083E792E00E94F41B6091BB
:1021B00078027091790281E090E00E9493250E945C
:1021C0007C27882309F441C0123019F46FEF7FEFA8
:1021D00005C0143009F039C061E070E083E792E097
:1021E0000E94DB1B609176027091770241E081E0F2
:1021F00090E00E94BC2529C00E947C2781114DC01F
:102200000E94DE27811149C020C0123019F46FEFFF
:102210007FEF04C01430C9F461E070E083E792E01E
:102220000E941D1C12C0143049F4ED2DF0E03196CF
:10223000EC0FFD1FE491E11148C007C0123029F4F2
:10224000DD2019F00E940122DA94BB2081F00E9467
:10225000FD2EC82E6A2D0E944F10B82E882339F00B
:102260000E945208E816F906D1F5B11003C0A1107A
:1022700041C0B12C113009F057CF0E94BD12882304
:1022800009F452CF0E9445200E943D1033C01092A5
:1022900066026BCF8092660268CF123041F40AE08A
:1022A00020E030E048EE5DEF6FEF7FEF09C01430C3
:1022B00061F60AE020E030E048EE5DEF61E070E0BA
:1022C0008FE793E00E94502EC0CF81E0C81203C078
:1022D00081E00E9466050E940122D394B6CF0E943D
:1022E00052087C010E944610C82E6A2D0E944F1091
:1022F000B82EBBCF8C2DDF91CF911F910F91FF9006
:10230000EF90DF90CF90BF90AF909F908F90089507
:1023100060E087E692E00E94CE1987FD0AC0811135
:1023200002C00C94B834992787FD909501970C94BE
:10233000442A089578940E946C050E94463B0E94AE
:10234000CD270E9437280E947A0A0E94A83D0E9449
:10235000F9346FEE71E08EED91E00E94102188EE6D
:1023600093E00E94F40780E00E94D03A0E94BE16DB
:102370008091B1039091B203079710F40C948921D6
:1023800008950E949A110E948811FDCF6FEF71E0AD
:1023900087E692E00E94E01886E990E09093680258
:1023A00080936702EBE6F2E08081805E808308958F
:1023B000FC0124812052621710F40C94D318862F4C
:1023C00090E0821B91090E94671B6EE00C94A1149F
:1023D000CF93DF93EC010E9456138B819C810E9466
:1023E0009E140E945A136A8188819981DF91CF914E
:1023F0000C943614FC0187818F3118F48F5F87832A
:10240000089586818F5F86830895FC0187818823E4
:1024100019F08150878308958681815086830895BD
:102420000F931F93CF93DF93FC01C681D0E06D2FF4
:1024300080E00E94501310E11C0F01E00C0F8C2F64
:102440000E94EF14011711F0C02FF7CFDF5FD230D9
:1024500011F0C12FECCFDF91CF911F910F91089513
:102460001F93CF93DF93EC018DEE90E00E94131841
:102470001FEF8E81181721F0CE010E9410121E81CD
:102480008F81682F70E094E0759567959A95E1F7D4
:102490008F700E9450130E94EC12823049F08430F9
:1024A00019F0813049F413C0CE010E94FA11E1CF36
:1024B000CE010E940512DDCF8830D9F68D81E881EA
:1024C000F981E80FF11D8F819E81890F8083DF9153
:1024D000CF911F910895FC017183608342833483FF
:1024E0002383158280E2868317820895CF93DF933A
:1024F000EC018DEE90E00E9413180E945E13CE0155
:102500000E94E81161E08D810E9450130E94EC123C
:102510008230B1F0843041F08130C1F48DEE90E032
:102520000E940C1880E026C04D81242F30E08A8163
:1025300090E00197281739072CF74F5F4D83E2CFC2
:102540008D818823F9F281508D83DCCF8830D1F6DC
:1025500082E00E943F13823048F083E00E9495376A
:102560008DEE90E00E940C1881E004C0CE010E9424
:102570003012C3CFDF91CF910895809171020895F9
:102580000C941205E0917102F0E0EE0FFF1FE55F81
:10259000FD4F859194910895CF93DF93D82F0E949A
:1025A0001205C82F8D1741F082E390E00E941108B8
:1025B0000E941205DC2FF5CF10927102109270026A
:1025C00080937202882319F080E00E94A2378091E4
:1025D0007202DF91CF910895FF920F931F93CF93D3
:1025E000DF93C0E0D0E0F12C0AEF10E040917102DF
:1025F000242F30E0F901EE0FFF1FE95DFD4F6591DB
:102600007491C8010E945A3E6F5F7F4FF901EE0F2F
:10261000FF1FC617D707A8F40E941205F82E81E005
:1026200090E00E94110880917202F81641F08F2DFF
:10263000DF91CF911F910F91FF900C94CC122196B6
:10264000D5CFFF20A1F0209170022F5F2093700260
:10265000E75EFD4F8591949130E02817390738F0F7
:10266000463018F44F5F40937102109270028091CF
:102670007202DF91CF911F910F91FF900895CF9338
:10268000DF93D82FC09172020E94EC1290917102D8
:102690009D1711F08C17C1F3892FDF91CF91089509
:1026A000462F682F8DEE90E00C94D71760E080E005
:1026B0000C94501361E080E00C9450138DEE90E088
:1026C0000C94D017CF93DF93FC01DB018C9188230E
:1026D00089F0C081D1814883808191810196918365
:1026E00080838C9181508C93882321F00190F0811C
:1026F000E02D1082DF91CF910895BF92CF92DF92AB
:10270000EF92FF920F931F93CF93DF93EC018B0116
:102710007A014115510501F1CA010E94BE3EF8013E
:102720009081B82E981708F4B92ECB2CD12CA60185
:10273000B701888199810E94C73E288139812C0D7B
:102740003D1D39832883F80180818B19808388237C
:1027500019F0E881F9811082DF91CF911F910F91DB
:10276000FF90EF90DF90CF90BF900895CF92DF92CF
:10277000FF920F931F93CF93DF9300D0CDB7DEB7B7
:102780006C018B01BA0180E090E049835A830E947A
:10279000FE2DF82ED8018C9149815A818F1570F445
:1027A0004FE3B801C6010F900F90DF91CF911F91B9
:1027B0000F91FF90DF90CF900C946213F60120816F
:1027C00031812F0D311D31832083D8018C918F19D8
:1027D0008C93882321F00190F081E02D1082F90183
:1027E0002AE030E0FF2069F0CA01B9010E945A3E98
:1027F000405DBAE06B9F401911244293FA94AB01FB
:10280000F1CF0F900F90DF91CF911F910F91FF901B
:10281000DF90CF9008950F931F93CF93DF93CDB7A1
:10282000DEB72B970FB6F894DEBF0FBECDBF8E017B
:102830000F5F1F4F1A87098727E02B87AC01BE0166
:10284000655F7F4FCE0109960E94B613B8018DEEE9
:1028500090E00E94C3182B960FB6F894DEBF0FBE0F
:10286000CDBFDF91CF911F910F9108950F931F93CB
:10287000CF93DF93CDB7DEB761970FB6F894DEBF85
:102880000FBECDBF0097D1F0613108F060E1062F97
:1028900010E0A801BC01CE0101960E94D63EE1E005
:1028A000F0E0EC0FFD1FE00FF11F1082BE016F5F23
:1028B0007F4F8DEE90E00E94C31801C080E06196CA
:1028C0000FB6F894DEBF0FBECDBFDF91CF911F9141
:1028D0000F9108950F931F93CF93DF93CDB7DEB77A
:1028E00061970FB6F894DEBF0FBECDBF0097D1F051
:1028F000613108F060E1062F10E0A801BC01CE01B3
:1029000001960E94C73EE1E0F0E0EC0FFD1FE00FF2
:10291000F11F1082BE016F5F7F4F8DEE90E00E942D
:10292000C31801C080E061960FB6F894DEBF0FBEF9
:10293000CDBFDF91CF911F910F91089560E10C946D
:102940006A14CF92DF92EF92FF920F931F93CF936F
:10295000DF93CDB7DEB762970FB6F894DEBF0FBE38
:10296000CDBF009719F1613108F060E16C018E0173
:102970000F5F1F4F78018E2D801B861768F4C601EC
:102980006A8B0E94F53EF70181937F01FFEFCF1A1A
:10299000DF0A6A898111EFCFF801E60FF11D10827D
:1029A000B8018DEE90E00E94C31801C080E06296ED
:1029B0000FB6F894DEBF0FBECDBFDF91CF911F9150
:1029C0000F91FF90EF90DF90CF900895882319F03A
:1029D0008CE392E002C088E392E00C949E14682F8E
:1029E0008DEE90E00C94A218CF93DF93D82FC0E027
:1029F000CD1729F080E20E94EF14CF5FF9CF8C2F22
:102A0000DF91CF91089580E10C94F414CF93DF937C
:102A10001F92CDB7DEB7682F64303CF080E2698347
:102A20000E94EF1469816150F7CF80E492E00F902B
:102A3000DF91CF910C946A146AE00E944E3E80E3CD
:102A4000890F0C94EF14DF92EF92FF920F931F9374
:102A5000CF93DF93EC01F62ED42E16160CF089C01E
:102A600068EE73E00E945A3E8B0180E090E00E9485
:102A7000FE2D24E0E22EE80EEF142CF480E20E94FA
:102A8000EF14FA94F9CFFE14E4F0D1101AC0BE018D
:102A900080E090E00E94FE2D182FFA941F1524F478
:102AA00080E20E94EF14F9CFCE010E940B148DE654
:102AB000DF91CF911F910F91FF90EF90DF900C94D9
:102AC000EF142E2D332727FD3095245031094F2D3B
:102AD000552747FD50954217530754F48F2DDF912A
:102AE000CF911F910F91FF90EF90DF900C940615FE
:102AF000C8010E940B14CE0168EE73E00E945A3E9A
:102B0000EC011F2D1E1993E0F92EF10E84E0810FC8
:102B100018161CF48EE20E94EF1402E0010F1F143D
:102B200044F4CE0164E670E00E945A3E862F0E9473
:102B30001C15CE0164E670E00E945A3EEC011F5F56
:102B400010163CF46AE070E00E945A3E862F0E9404
:102B50001C15111674F4CE016AE070E00E945A3E12
:102B6000DF91CF911F910F91FF90EF90DF900C9428
:102B70001C15DF91CF911F910F91FF90EF90DF9087
:102B80000895EF92FF920F931F93CF93DF93EC0181
:102B9000F62E16160CF059C064E670E00E945A3EFC
:102BA0008B0180E090E00E94FE2D33E0E32EE80EE2
:102BB000EF142CF480E20E94EF14FA94F9CF2E2D3A
:102BC000332727FD3095235031094F2D552747FDD9
:102BD0005095421753074CF48F2DDF91CF911F91E1
:102BE0000F91FF90EF900C940615C8010E940B14F2
:102BF000CE0164E670E00E945A3EEC010F2D0E19E2
:102C000012E0100F83E0800F18161CF48EE20E9471
:102C1000EF14FF24F394F00E111644F4CE016AE091
:102C200070E00E945A3E862F0E941C151F146CF4FF
:102C3000CE016AE070E00E945A3EDF91CF911F9171
:102C40000F91FF90EF900C941C15DF91CF911F9185
:102C50000F91FF90EF900895BF92CF92DF92EF9285
:102C6000FF920F931F93CF93DF938C01D62EB42E38
:102C7000C22E1616ACF52111DA94B80180E090E06E
:102C80000E94FE2DC82FD0E0ED2CFF24E7FCF0942D
:102C9000CE15DF052CF48B2D0E94EF14DA94F4CFBF
:102CA000CC2019F08DE20E94EF14EC16FD0664F4BE
:102CB0008D2DDF91CF911F910F91FF90EF90DF90BD
:102CC000CF90BF900C940615C801DF91CF911F9152
:102CD0000F91FF90EF90DF90CF90BF900C940B146A
:102CE000DF91CF911F910F91FF90EF90DF90CF90E8
:102CF000BF90089520E00C942C16CF93DF936CE3E3
:102D000070E00E945A3E9B01EC0140E363E0C90180
:102D10000E947A168AE30E94EF1440E362E0CE013B
:102D2000DF91CF910C947A1640E20C947A16292FF9
:102D3000221F2227221F19F091958195910940E2C7
:102D40000C942C16161634F461500E94C11583E4BD
:102D50000C94EF140895161634F461500E949416E2
:102D600085E20C94EF14089563303CF062500E94A9
:102D7000941685E392E00C949E140895FF920F93AD
:102D80001F93CF93DF93CDB7DEB728970FB6F89494
:102D9000DEBF0FBECDBF4EE0F42EF9821FE11A83D5
:102DA00001E10B830C830D830E830F831887AE0123
:102DB0004F5F5F4F60E08DEE90E00E941B18F9823C
:102DC0001A830B830C831D831E831F831887AE0118
:102DD0004F5F5F4F61E08DEE90E00E941B18F9821B
:102DE0001A831B831C831D831E831F831887AE01D8
:102DF0004F5F5F4F62E08DEE90E00E941B182896B7
:102E00000FB6F894DEBF0FBECDBFDF91CF911F91FB
:102E10000F91FF9008950F931F93CF93DF93062F89
:102E2000142F64E670E00E945A3EEB0180E20E949B
:102E3000EF1480E20E94EF14C436D10548F480E21A
:102E40000E94EF14CA30D10518F480E20E94EF14FA
:102E5000CE010E940B14802F0E94EF14812F0E943C
:102E6000EF1480E2DF91CF911F910F910C94EF143A
:102E70000F931F93CF93C62F1416BCF56FEF640FFB
:102E80000C2F10E00830110508F5F801E65DFF4F42
:102E90000C94AF3E16E51BC040E201C048E667E572
:102EA000CF911F910F910C940B17642FCF911F910D
:102EB0000F910C94A21614EF07C00E94971685E597
:102EC0000FC06EEF640F11E440E002C015E541E071
:102ED0000E942315812F0E94EF14C53031F488E63B
:102EE000CF911F910F910C94EF14CF911F910F91DF
:102EF0000895462F65E00C943817462F60E00C9437
:102F00003817462F61E00C943817462F66E00C9472
:102F10003817AC9881E090E00E94163EAC9A81E0B0
:102F200090E00E94163EAC9884E690E00C94163E29
:102F3000A39AA29AA19AA09A60FF02C0AB9A01C07C
:102F4000AB9861FF02C0AA9A01C0AA9862FF02C0B2
:102F5000A99A01C0A99863FF02C0A89A01C0A898C5
:102F60000C9489171F93CF93DF93EC01162F442302
:102F700011F0AD9A01C0AD98612F70E084E07595B5
:102F800067958A95E1F7CE010E949817612FCE01CF
:102F9000DF91CF911F910C94981740E00C94B217D9
:102FA00061E00E94CD1780ED97E00C94163ECF9320
:102FB000DF93CDB7DEB728970FB6F894DEBF0FBE0C
:102FC000CDBF28E0E1E7F0E0DE01119601900D921F
:102FD0002A95E1F7FC012481421710F04FEF420FD0
:102FE000FE013196E40FF11DE40FF11D2081260F43
:102FF0002068622F28960FB6F894DEBF0FBECDBFB3
:10300000DF91CF910C94CD17FC016181262F2460B4
:1030100021836C600C94CD17FC0161816E7F61830C
:1030200068600C94CD17FC016181262F21602183FB
:1030300069600C94CD17CF92DF92EF92FF920F93BD
:103040001F93CF93DF9300D0CDB7DEB77C016770BD
:1030500088E0689FB00111246064C70149835A83E6
:103060000E94CD174981C42E5A81D52E00E010E070
:10307000F60161916F0141E0C7010E94B2170F5F35
:103080001F4F08301105A1F70F900F90DF91CF91DE
:103090001F910F91FF90EF90DF90CF900895CF9305
:1030A000DF93EC01423018F08881886088834C837C
:1030B0001D82222329F0413019F48881846088839D
:1030C00080E593EC0E94163EAD98AC9863E0CE018B
:1030D0000E94981784E991E10E94163E63E0CE01B8
:1030E0000E94981784E991E10E94163E63E0CE01A8
:1030F0000E94981786E990E00E94163E62E0CE0199
:103100000E94981768816062CE010E94CD1784E00A
:103110008983CE010E940418CE010E94D01782E05C
:103120008A8366E0CE01DF91CF910C94CD17A59AEA
:10313000A49AFC01108220E041E060E10C944F1859
:103140000C94971841E00E94B21781E00895EF9225
:10315000FF920F931F93CF93DF938C01F42EC62F12
:10316000D72FE42EE60EEC1631F0699141E0C8014C
:103170000E94B217F8CF8F2DDF91CF911F910F9141
:10318000FF90EF9008956115710559F0FB010190D2
:103190000020E9F7AF0141505109461B570B0C9431
:1031A000A71880E00895FC0127818085E22FF82F81
:1031B000E60FF11DE60FF11D859194910C949E147C
:1031C0000F931F93CF93DF93EC018B01CB010E94F0
:1031D000DF2D682FCE010E9443198CE990E099837E
:1031E000888318870F83DF91CF911F910F910895E6
:1031F000DF92EF92FF920F931F93CF93DF93EC0137
:10320000F62E69871A8681E08D8382E0D82EEE241F
:10321000E3948E01075F1F4F0E94EC12482F82300B
:1032200011F0843061F4E881F9810280F381E02DAE
:103230006F2DCE010995F986DA86ED8204C08130C2
:1032400089F0883079F0C8010E94D12E8111ED8279
:103250008D81882319F0CE010E9470198A858F5FB5
:103260008A87DACF8FEF898781E08E838D8348301C
:1032700009F080E0DF91CF911F910F91FF90EF90C7
:10328000DF9008950895FC0182EA90E091838083A5
:1032900012821382648381E0858386830895FC0112
:1032A0002281211103C081E082830895438130E0AF
:1032B000240F311D848190E001972817390714F4F9
:1032C0004F5F43830895FC018281882319F0815068
:1032D000828308958381882311F081508383089528
:1032E0001F93CF93DF93EC0110E0612F80E00E94E9
:1032F000501380E20E94EF14E881F9816B81610F25
:103300000190F081E02DCE0109950E9403151F5F09
:10331000123059F76A8180E00E9450138EE30E94B8
:10332000EF146A818FE00E9450138CE30E94EF1427
:103330001D82DF91CF911F9108950F931F93CF931B
:10334000DF93EC010E94EC12182F0E94743788233F
:1033500021F081E08D838FE71CC00B818A81080FEB
:10336000123031F0143039F4CE010E944F1903C0ED
:10337000CE010E9463198B819A81890F081711F081
:1033800081E08D838D81882319F0CE010E94701910
:10339000812FDF91CF911F910F910895EF92FF92AE
:1033A0001F93CF93DF931F92CDB7DEB77C0181E0EF
:1033B000F701858311E0C70169830E949D19698126
:1033C000811102C0F7011682F7019681911108C0A0
:1033D000883031F481E0868383819281890F09C02E
:1033E000662311F0F7011583813029F79111E3CF9E
:1033F0008FEF0F90DF91CF911F91FF90EF90089585
:103400000F931F93CF93DF93EC018B0150E00E9449
:10341000B6134AE3B801CE01DF91CF911F910F910E
:103420000C946213EF92FF920F931F93CF93DF934D
:1034300000D01F92CDB7DEB78C01462F0B969A8332
:1034400089838EE08B83D801EC91F0E0EE0FFF1FB3
:10345000E55AFD4FE590F490BE016D5F7F4FCE01C0
:1034600001960E94001AA701BE016D5F7F4FCE0139
:1034700001960E947D1340E2BE016D5F7F4FCE0139
:1034800001960E946213F80141815281BE016D5F75
:103490007F4FCE0101960E94B6134FE2BE016D5FD1
:1034A0007F4FCE0101960E946213D80117964D916D
:1034B0005C911897BE016D5F7F4FCE0101960E940F
:1034C000B6130F900F900F90DF91CF911F910F9136
:1034D000FF90EF900895CF93DF9300D01F92CDB768
:1034E000DEB7462F2EE02B830B969A838983BE018D
:1034F0006D5F7F4FCE0101960E94001A0F900F90D2
:103500000F90DF91CF91089529E1289FB001299F65
:10351000700D11246E567F4F49E150E083E792E031
:103520000C94E53E29E1289FB001299F700D1124DC
:103530006E567F4F49E150E083E792E00C94033FE1
:10354000DC01EC91B6E0EB9FF0011124E60FF11DD8
:10355000EE0FFF1FE15FFC4F859194910895DC0110
:10356000EC9146E0E49FF0011124E60FF11DEE0F0F
:10357000FF1FE15FFC4F8591949117962D913C912F
:103580001897AC01429FC001439F900D529F900D30
:1035900011240895FC01A181B2812091A1033091F1
:1035A000A2030E941D3E24E630E040E050E00E946D
:1035B0006E3E293EFDEF3F074105510520F028EE04
:1035C0003DEF40E050E0C9010895FC012081213029
:1035D00029F4209197033091980309C0223029F4EF
:1035E000209195033091960302C020E030E0FC0169
:1035F00087819085AC01249FC001259F900D349F49
:10360000900D112408958091910390919203089553
:10361000FC016081FBE06F9FB00111246F557D4F6D
:103620004BE050E00C94B53EDC01EC91F0E0EE0F85
:10363000FF1FE55AFD4F859194910C946A1460E147
:1036400070E00C94141BCF93DF93EC01888160E051
:10365000811108C0CE010E94AF1A67E00E94811755
:1036600087E011C0CE010E94AF1A65E00E94811769
:103670008FE20E94EF148F8198850E940B1483E4DF
:103680000E94EF1488E0DF91CF91089566E0FC017D
:10369000838194810E947D1786E0089566E0FC0195
:1036A000858196810E947D1786E00895FC018181C5
:1036B0009281883EFDEF9F0729F481E592E00E9408
:1036C0009E1403C067E00E94791788E0089529E1FD
:1036D000AC01249FC001259F900D112483569F4F5C
:1036E00008950F931F93CF93DF93CDB7DEB7A697BF
:1036F0000FB6F894DEBF0FBECDBF8C01AB01BC018D
:10370000CE0101960E94F81CCE0101960E947D1DFB
:1037100089E1FE013C96D80101900D928A95E1F76E
:10372000A6960FB6F894DEBF0FBECDBFDF91CF9146
:103730001F910F910895FC012081260F2A3040F03F
:10374000161617061CF4FC01108203C029E0FC01C8
:1037500020830C94081B61E00E94AF1A9C0140E09A
:1037600050E060E870EF8AEF92E00E946E3E2938E8
:1037700083E138074105510520F028E833E140E0B6
:1037800050E0C901089561E00E94AF1A9C0140E039
:1037900050E060E47BE48CE490E00E946E3E293EC1
:1037A00083E038074105510520F028EE33E040E082
:1037B00050E0C90108950F931F93CF93DF9300D07A
:1037C000CDB7DEB78C0169837A830E94AB1BAC0155
:1037D00069817A81C80103960F900F90DF91CF9194
:1037E0001F910F910C94B52E0F931F93CF93DF93DE
:1037F00000D0CDB7DEB78C0169837A830E94C31BEA
:10380000AC0169817A81C80105960F900F90DF9114
:10381000CF911F910F910C94B52EDC01EC91BCE07F
:10382000EB9FF0011124EF5EFC4F6591749184EFE2
:1038300095E60E945A3ECB010895EF92FF920F93B6
:10384000CF93DF9300D0CDB7DEB77C0169837A8355
:103850000E940D1CF701208169817A81211103C02A
:1038600022E330E002C020E030E001E0AC01C7011B
:1038700007960E94502E0F900F90DF91CF910F91DD
:10388000FF90EF900895CF93DF93EC010E940D1C01
:103890002F8138858217930710F498878F83CE0184
:1038A0000E94AB1B2B813C818217930710F49C83F1
:1038B0008B83CE010E94C31B2D813E81821793070B
:1038C00010F49E838D83DF91CF9108950F93CF9352
:1038D000DF93EC0104E620E030E048EE5DEF019676
:1038E0000E94502E89819A819C838B83288123306A
:1038F00039F49C0136952795369527953C832B8383
:103900009E838D83CE01DF91CF910F910C94431C48
:103910000F931F93CF93DF934BE050E063EE72E081
:1039200083E792E00E94B53E83E792E00E94431C49
:10393000C0E0D0E08E010F5F1F4FB80183E792E037
:103940000E946B1ACE010E94921A0032110511F0EA
:10395000E801F0CFDF91CF911F910F910895FC0105
:10396000818592850895FC0181859285883EF3E0EA
:103970009F0719F489E492E004C00E940B1484E4C8
:1039800092E00E949E1486E008950F9301E020E0EB
:1039900030E048EE53E009960E94502E0F910895B2
:1039A000262F443019F06FEF7FEF02C061E070E026
:1039B000223091F028F4222349F0213051F008956B
:1039C000243081F060F0253081F008950B960C943E
:1039D0009B1B0B960C941D1C0B960C94661C0B9653
:1039E0000C94DB1B0B960C94F41B0B960C94C51CCF
:1039F000EF92FF920F931F93CF93DF93EC018B0114
:103A00007A0168E973E00E94E0188FEF898788EAFD
:103A100090E09983888389E1F801DE011B9601908B
:103A20000D928A95E1F7FDA2ECA2DF91CF911F9153
:103A30000F91FF90EF9008950F931F93CF93DF9313
:103A4000CDB7DEB728970FB6F894DEBF0FBECDBF57
:103A50008C01BC016A5E7F4F2DE833E04EE050E000
:103A6000CE0101960E946B12CE0101960E94761241
:103A700081E0F801858328960FB6F894DEBF0FBE6B
:103A8000CDBFDF91CF911F910F910895CF93DF9319
:103A9000EC010E945E130E94561387E893E00E9497
:103AA0009E140E945A136EE0CE0146960E94361470
:103AB0000E94BD2E83E0DF91CF910C949537CF9378
:103AC000DF93EC016CA17DA16F5F7F4F0B960E948D
:103AD000121ACE01DF91CF910C94461DCF93DF9344
:103AE000EC016CA17DA16F5F7F4F0B960E946B1A5A
:103AF000CE01DF91CF910C94461DDF92EF92FF92A1
:103B00000F931F93CF93DF93CDB7DEB769970FB6AF
:103B1000F894DEBF0FBECDBF8C0189E1D82EC8015D
:103B20000B967C0160E0C8010E94CE1987FD30C071
:103B3000873041F0883051F0863061F4C8010E942E
:103B40005F1DF0CFC8010E941C1DECCFC8010E9470
:103B50006E1DE8CFF701DE0111969D2D01900D92AB
:103B60009A95E1F7682FC8010E94F818811109C0E1
:103B7000FE013196D7018D2D01900D928A95E1F7C6
:103B8000D1CF83E00E949537C7010E94431CCACF62
:103B900069960FB6F894DEBF0FBECDBFDF91CF910F
:103BA0001F910F91FF90EF90DF9008951F93CF9397
:103BB000DF93EC01162F0E94D318CE0109960E94C4
:103BC000C62E882311F0298501C02FEF332727FD4A
:103BD0003095812F90E02817390749F11230C9F04C
:103BE00048F4112389F0113011F5CE010B960E9493
:103BF000231B1DC01430B9F088F01530C1F4CE017C
:103C00000B960E94B31C13C0CE010B960E941F1B83
:103C10000EC0CE010B960E94561B09C0CE010B961A
:103C20000E94461B04C0CE010B960E944E1B80E0F2
:103C3000DF91CF911F9108950F931F93CF93DF933F
:103C400000D0CDB7DEB789839A830E94561389814D
:103C50009A810E949E140E945A130091140310919D
:103C60001503C8010E94BE3E892B19F0C8010E94AD
:103C70009E140F900F90DF91CF911F910F910C9494
:103C8000031580918D0390918E03892BA1F08DE116
:103C90000E943A0865E02AE0AC01249FC001259FFC
:103CA000900D11240E9497168DE60E94EF1483E474
:103CB0000E94EF1404C087E594E00E949E140C94C7
:103CC00003158BE10E943A0865E00E9497168DE685
:103CD0000E94EF1486E50E94EF140C94031590E007
:103CE000880F991F62E08A519B4F0C946A140F93BE
:103CF0001F93CF93DF9361E083E792E00E94AF1AB6
:103D00008C0165E083E792E00E94AF1AEC0184E148
:103D10000E943A0880179107B8F4C817D907B0F481
:103D20009C012C1B3D0BC8018C1B9D0B64E670E0B5
:103D30000E945A3EC9010E945A3E6436710510F035
:103D400063E670E0862F03C083E601C080E0DF9168
:103D5000CF911F910F910895613011F40C94FA0DD9
:103D60000C94DC2BCF93DF93D82FC62F8FE18D0FD0
:103D70000E94870A882351F06C2F8D2F0E94AC1E61
:103D800046E06C2FDF91CF910C9438178FED94E0C3
:103D9000DF91CF910C949E140F931F93CF93DF93D9
:103DA000C82F062F0E9456138091C102882319F054
:103DB0001092C10203C081E08093C10210928D0273
:103DC0000E94C00D811108C083E090E00E94D10ED6
:103DD000882341F080E209C080914702882321F0C6
:103DE00082E403C08DE601C082E6909161029111E8
:103DF00002C00E94EF1480916102882331F110E02B
:103E0000D1E00E94BD0D1817D0F4809162021817FE
:103E100061F0809161028D2331F08091C10288238D
:103E200021F082E003C081E001C080E00E94EF1435
:103E3000D03811F0DD0F01C0D0E01F5FE2CF0E944B
:103E4000BD0D98E0981B892F01C087E00E94F414F3
:103E5000D1E0DC0F8D2F0E941C15C1110AC00E94F9
:103E6000D827882331F00E94E727892B11F08FE3B0
:103E700001C08AE30E94EF14602F8C2F0E94B21EB3
:103E80000E9403150E945A13D630C8F412E01C0F8A
:103E9000812F0E941C158AE30E94EF14602F8D2F42
:103EA0000E94B21E163059F083E08C0F0E941C1540
:103EB0008AE30E94EF14602F812F0E94B21EDF91CF
:103EC000CF911F910F910C94031589E10E943A083C
:103ED00068E00E94791780E20C94EF140E94561358
:103EE0002091660280917F0390918003223031F40B
:103EF00066E00E94941684ED94E005C065E00E949F
:103F0000941680ED94E00E949E1480E20E94EF14CB
:103F10000E94C52B67E00E947D170E9403150E9436
:103F20005A1387EC94E00E949E1467E08091770317
:103F3000909178030E9481170C9403150F931F939F
:103F40006091CC027091CD028091CE029091CF020F
:103F500020918C02222371F00E94ED070091CC0287
:103F60001091CD022091CE023091CF02601B710BD7
:103F7000820B930B28EE33E040E050E00E946E3E4F
:103F8000C9011F910F910895CF930E947627811147
:103F900010C00E94D827882331F00E947627811113
:103FA0000AC0C4E40BC00E94C00D811106C0CEE45B
:103FB00005C0C3E403C0C5E401C0C2E40E94662793
:103FC0008111C7E58C2F0E94EF1480E20E94EF144C
:103FD0000E949E1F0E947D1680E2CF910C94EF14E8
:103FE0000E945613809166028230F9F40E94DE2707
:103FF000882359F066E080917802909179020E94BE
:1040000094168BED94E00E949E140E947C278823D6
:1040100071F066E080917602909177020E9494168A
:1040200087ED94E00E949E1402C00E94651F67E025
:1040300087E10E94B60A0E9403150E945A130E944B
:10404000C41F67E084E10E94B60A0C9403150E9425
:10405000ED076093CC027093CD028093CE029093D3
:10406000CF021092C8021092C9021092CA02109296
:10407000CB021092C4021092C5021092C602109296
:10408000C70281E080938C0208950F931F930E94D2
:10409000ED070091CC021091CD022091CE0230911B
:1040A000CF02601B710B820B930B6093CC02709359
:1040B000CD028093CE029093CF0210928C021F917A
:1040C0000F910895CF92DF92EF92FF920E945613C4
:1040D0008CEB94E00E949E140E949E1F0E947D160D
:1040E0000E945A1389EB94E00E949E146091C802CA
:1040F0007091C9028091CA029091CB0238EEC32E12
:1041000033E0D32EE12CF12CA70196010E946E3EE4
:10411000C9010E947D1686EB94E00E949E14609176
:10412000C4027091C5028091C6029091C702A70196
:1041300096010E946E3EC901FF90EF90DF90CF90F4
:104140000C947D160E9456138DEA94E00E949E14F2
:104150000E94E62B68E00E9485170E9403150E94CA
:104160005A1383E10E94870A882349F084EA94E085
:104170000E949E140E94EC2B68E00E9485170C940C
:1041800003150E9456138CE994E00E949E1467E088
:1041900086E00E94B60A0E9403150E945A1384E921
:1041A00094E00E949E1447E061E08091A303909107
:1041B000A4030E9438170C9403150E9456138DE82F
:1041C00094E00E949E1467E082E10E94B60A0E9479
:1041D00003150E945A1386E894E00E949E1467E03B
:1041E00083E10E94B60A0C9403150E94561380E8DE
:1041F00094E00E949E1480918D0390918E03892BF0
:1042000029F065E087E00E94B60A04C08EE794E0DA
:104210000E949E140E9403150E945A130C940315C9
:104220000F931F93CF93DF9300D0CDB7DEB78B01F1
:1042300089839A830E945E130E94561389819A8112
:104240000E949E140E945A13C8010F900F90DF9194
:10425000CF911F910F910C949E148DE694E00E94D3
:104260001C1E0E945A1386E694E00E949E140E942F
:104270009E1F0C947D168FE594E00C941C1E0E94EA
:1042800056130E94651F0E94411E0E945A130E94ED
:10429000C41F0C94611E0E9456138EE494E00E9489
:1042A0009E1467E08CE10E94B60A0E9403150E94EA
:1042B0005A1384E494E00E949E140C94611E0E94A0
:1042C00056138EE394E00E949E1480918D0390918A
:1042D0008E03892B31F00E94570869E00E94A216D4
:1042E00004C08AE394E00E949E140E9403150E9479
:1042F0005A1380E394E00E949E140C94411E60E0E7
:1043000070E08CE294E00C9410210E947F210C94C8
:10431000BD2E60E070E080E294E00E94102188E809
:1043200093E10C94F40760E070E08FE094E00C946B
:1043300010216091C4027091C5028091C6029091D3
:10434000C70220E63AEE40E050E00E946E3EC9010E
:104350000895CF93DF938091C0028F5F843018F46B
:104360008093C00202C01092C0028091C0028330CC
:1043700061F4C0916C00CF5FC0936C000E94432930
:104380008C1718F481E080936C00C0916C00C150D0
:104390000E94561380916C0061E090E00E94941698
:1043A00080E00E94EF14D0E0CC0FDD1FFE01E0574B
:1043B000FD4F808191810E947D1681E00E94F4145E
:1043C00082E00E94EF14FE01E656FD4F808191814C
:1043D0000E947D160E9403150E945A13FE01EC559F
:1043E000FD4F68E0808191810E947917C255DD4FB1
:1043F00068E0888199810E947917DF91CF910C94B0
:104400000315CF93DF93C0E0DFE061E08D2F8C1BBD
:104410000E9450138FEF0E94EF1460E08C2F0E94D7
:1044200050138FEF0E94EF148AE090E00E94F4078F
:10443000CF5FC03151F78AE090E0DF91CF910C94CB
:10444000F407CF93C82F0E945E130E9456138FEE7D
:1044500093E00E949E1462E08C2F90E00E949416DC
:1044600080E49FE1CF910C94F4071092BD0210926A
:10447000BC021092BB021092BA028091BE028093DD
:10448000BF021092B9021092B8020895CF93DF9341
:1044900027E630E08AE992E0C0E9D2E0AEEAB2E095
:1044A00064EA72E045E05DE2F90151939F01FC018D
:1044B00011921192CF01199219921D921D92FB0136
:1044C00011921192BF01415079F7DF91CF91089578
:1044D000CF930E9435220E9446220E94561364E028
:1044E00070E083E792E00E94141B809166028230A4
:1044F00011F48EE301C080E20E94EF1483E792E0A2
:104500000E94231B80916602823011F48CE301C06B
:1045100080E20E94EF14809116030E946F1E0E9499
:104520005A130E94771E8093BE0262E090E00E94C0
:1045300094168CE094E00E949E1482EC92E00E941B
:10454000C62E882319F0C091C20201C0CFEFC0FF70
:1045500005C065E082E10E94B60A03C085E00E94C2
:10456000F41480E20E94EF1480917302845086302C
:10457000A8F4C1FF05C065E083E10E94B60A03C04C
:1045800085E00E94F414C2FF05C00E94A60ACF91E4
:104590000C941C1580E2CF910C94EF1466E080918E
:1045A0007402909175020E947917CF910C940315B3
:1045B0000E94771E8093BE029091BF02981728F543
:1045C0008093BF020E949E1F2091BA023091BB02CD
:1045D000821B930B9093BD028093BC020E949E1F8E
:1045E0009093BB028093BA028091BC029091BD026D
:1045F0002091B8023091B9022817390710F0232B07
:1046000021F49093B9028093B8020895CF93DF9379
:104610000E94D8220E94A60A811128C083E10E942C
:104620003A08EC0182E10E943A08C817D90728F439
:104630009C012C1B3D0BE90102C0C81BD90BC53FD7
:10464000D140A0F024E630E08091BF02281B310960
:104650004091B8025091B902249FC001259F900D4E
:10466000349F900D1124DF91CF91089529E6EBCF6F
:10467000FF920F931F93CF93DF930E944329FF2450
:10468000FA94F80E0E944629833429F50F2D11273C
:1046900007FD1095F801E959FF4F8083000F111FA6
:1046A000E801C656DD4F6091C4027091C502809149
:1046B000C6029091C70228EE33E040E050E00E942D
:1046C0006E3E3983288389E10E943A08F801E25559
:1046D000FD4F918380830E944629843429F5CF2D94
:1046E000DD27C7FDD095FE01E959FF4F8083CC0F30
:1046F000DD1F8E0100571D4F6091C4027091C502ED
:104700008091C6029091C70228EE33E040E050E06D
:104710000E946E3EF8013183208389E10E943A08AD
:10472000CC55DD4F99838883DF91CF911F910F91F5
:10473000FF9008950E947C2781112FC00E94DE27E0
:1047400081112BC00E94C00D8823A1F08091C80266
:104750009091C902A091CA02B091CB0280599F4F9B
:10476000AF4FBF4F8093C8029093C902A093CA0273
:10477000B093CB020E9438230E94062390938F02AD
:1047800080938E028091C0028F5F893218F48093EB
:10479000C00208951092C00208958091C4029091C1
:1047A000C502A091C602B091C70280599F4FAF4F7A
:1047B000BF4F8093C4029093C502A093C602B093EA
:1047C000C702C0CF81E09091C002953108F080E02F
:1047D00008950E94D8220E94E2238823B9F00E9403
:1047E00056130E94651F67E087E10E94B60A0E9487
:1047F00003150E945A130E94C41F8AE094E00E948D
:104800009E140E94762781111CC02FC00E9456134F
:1048100068E088E10E94B60A88E094E00E949E1455
:1048200067E087E10E94B60A0E9403150E945A13AE
:1048300068E08AE10E94B60A85E094E00E949E1436
:1048400014C08091BE02833680F48091B8029091AA
:10485000B902459730F080918E0290918F020C94AE
:104860007D168EEF93E00C949E148091BE0264E05E
:1048700090E00E9494168CEF93E00E949E140C949A
:1048800003159091C3029F5F9093C30290E0FC01D7
:104890003197E331F10570F5EE5CFF4F0C94AF3EBC
:1048A0000C94F01F0C946E1F0C9462200C94F52055
:1048B00061E007C061E083E00C94CC1E61E006C0BB
:1048C00066E080E0F9CF66E0F6CF66E086E0F4CF00
:1048D0000C9468220C94A2200C94DD200C94C1202E
:1048E0000C94E9230C944B210C945F210C943F21F0
:1048F0000C94A92108958FEF8093C20208950F931D
:104900001F93CF93DF930E94A427C0917602D0918A
:10491000770261E083E792E00E94AF1A8C01CE013A
:1049200065E070E00E945A3E8FE00E94160AEC019A
:1049300040E0BC01C8010E94102C8FE00E943C2C7A
:10494000CE01DF91CF911F910F910C948A2781E0C6
:104950000C94B6270E94E408882321F00E94852742
:104960000C94E32C08951092D0020C947F24CF93E2
:10497000DF930E94AA240E94DA08EC018091D00201
:10498000811111C062E083E792E00E94AF1A8C1798
:104990009D0748F481E08093D00280917602909147
:1049A00077020E949E270E94E408882381F064E039
:1049B00083E792E00E94AF1A8C179D0740F481E1D3
:1049C00095E0909315038093140381E030C00E941A
:1049D0005C08029758F18091930390919403892B7E
:1049E00089F08BE10E943A08EC0183E792E00E9493
:1049F000E51AD195C195D1098C179D071CF48DE05E
:104A000095E0DFCF80918D0390918E03892B71F01B
:104A10008DE10E943A08EC0183E792E00E94031BBB
:104A20008C179D071CF487E095E0CBCF82E0DF91E7
:104A3000CF9108958130910521F09093D202809317
:104A4000D1027093D4026093D30208950F931F9301
:104A5000CF93DF93C091D102D091D202CE010E94B8
:104A600009108C010E94DA08C817D90738F4C80168
:104A7000DF91CF911F910F910C94EB0F81E0DF91AB
:104A8000CF911F910F91089581E00E9424280C94EA
:104A9000970E0E9416280E944D0E21E08091A703D8
:104AA0009091A803892B09F420E02093D50280E19E
:104AB0000C943C2C0F931F93CF93DF930E942625D9
:104AC000182F0E94E727EC010E94E408882311F0C8
:104AD00001E001C0012F8091D502882329F0BE0199
:104AE000812F0E94942C01C0812F882329F081E01E
:104AF0000E94242881E00CC0002349F0BE01812FD0
:104B00000E94B02D8C179D0711F00E94032882E0AF
:104B1000DF91CF911F910F910895BC0180E10E9418
:104B2000160A0C94AF2B0F931F93CF93DF938C0136
:104B3000EB010E941A25BE0180E10E94160A40E0A6
:104B4000BC01C8010E94102CCE016AE070E00E94F6
:104B50005A3ECB01DF91CF911F910F910C948D257F
:104B600081E00E94B6270C94970E0E944D0E0E9481
:104B7000A4278FE00C943C2C0F931F93CF93DF93CB
:104B80001F92CDB7DEB78C018FE049830E94160AD1
:104B90004981BC01C8010F90DF91CF911F910F9106
:104BA0000C94102C0F931F93CF93DF93C091770336
:104BB000D0917803CE010E9409108C010E94DA087E
:104BC0008C179D0738F4C801DF91CF911F910F9189
:104BD0000C94CD0F81E0DF91CF911F910F9108953B
:104BE0001F93CF93DF930E94D225182F0E94852711
:104BF000EC01BC01812F0E94942C882329F081E0D4
:104C00000E94B62781E019C00E94E408811107C004
:104C1000111105C0CE010E94CD2B882369F00E949E
:104C2000C00D811109C0BE01812F0E94B02D8C17CB
:104C30009D0711F00E948A2782E0DF91CF911F919A
:104C400008950E94B0250E9444250C94970ECF939E
:104C5000DF931F92CDB7DEB79091D702913039F034
:104C600018F0923039F00FC00E94F0250CC00E945D
:104C70005A2509C00E949E0F823089F089830E94C4
:104C8000212689810CC0813051F49091D60299235C
:104C900031F082E08093D7020E944D0E82E00F90A7
:104CA000DF91CF9108950E944D0E8091DC0290918A
:104CB000DD020E9409100E94EB0F2091DC0230916E
:104CC000DD02882369F06091DA027091DB0240E036
:104CD000C9010E94BC250E94B5251092D7020895F3
:104CE0006091D8027091D902C9010E9493250E9457
:104CF000492581E08093D5028093D702089580935F
:104D0000D60208959093DD028093DC027093DB025B
:104D10006093DA025093D9024093D802089587E055
:104D20008093C20282E08093C3020E948E3783E0A8
:104D30008093DF0208950F931F93CF93DF938091A9
:104D4000DE02882379F00E94A60A90917A0201E09F
:104D5000981301C000E011E0811110E0913021F4BE
:104D6000112311F010E000E083E10E94870A8823FC
:104D700009F45CC083E10E943A08EC0182E10E94E0
:104D80003A08C817D90728F49C012C1B3D0BE901F0
:104D900002C0C81BD90BC53FD14008F447C0C1E0D1
:104DA000011102C087E001C083E08093C202112399
:104DB00029F08091C20282508093C202CC2329F054
:104DC0008091C20281508093C202011104C011116E
:104DD00002C0CC2331F081E00E949537111107C049
:104DE00004C088E00E94953708C0002331F080910C
:104DF000A9039091AA03892B11F4D0E001C0D1E05E
:104E00000E94C012811102C01092DF02D11106C0AF
:104E1000C11104C00E94C012883051F08091DF029D
:104E2000823011F481E00AC082E008C0C0E0B8CF4F
:104E30008091DF028F5F8093DF02F0CFDF91CF910F
:104E40001F910F9108958FEF8093C20288E00C9418
:104E500095378093DE0208951092E60208950E942D
:104E6000ED0728EE33E040E050E00E946E3E2093D4
:104E7000E2023093E3024093E4025093E502089586
:104E80000E94ED0728EE33E040E050E00E946E3EC5
:104E90006091E0027091E1028091E2029091E30260
:104EA000A091E402B091E502860F971FA11DB11DEC
:104EB00082179307A407B50728F081E08093E602E4
:104EC00082E008951092E60281E008958091E60262
:104ED00008952CE3AC01249FC001259F900D11245F
:104EE0009093E1028093E0020C942F2781E090914F
:104EF000E902911180E0089581E02091E70230916C
:104F0000E802232B09F480E008958091E702909154
:104F1000E802089520916E00223041F02091B30301
:104F20003091B4032817390708F4C9019093E802B7
:104F30008093E7020E9412060C946109BC018FE085
:104F40000E94160A0C948A278091E902882369F04E
:104F50001092E8021092E70280E090E00E948A2717
:104F600081E00E9431061092E9020895CF93C82F84
:104F70008091E90281110FC0CC2369F080E090E0BC
:104F80000E948A271092E8021092E70280E00E94B5
:104F90003106C093E902CF9108951092E802109271
:104FA000E70280E090E00E948A2781E00C94B62717
:104FB00081E09091EE02911180E0089581E02091CE
:104FC000EC023091ED02232B09F480E008958091EA
:104FD000EC029091ED020895482F8091EA029091A1
:104FE000EB022091EC023091ED028217930711F44D
:104FF000442341F09093ED028093EC020E94D70687
:105000000C946109089520916E00223041F02091A6
:10501000B5033091B6032817390708F4C9019093F6
:10502000EB028093EA0281E00C94EC278091EE027F
:10503000882349F080E090E00E94032881E00E94EC
:1050400028061092EE020895CF93C82F8091EE02A9
:1050500081110BC0CC2349F080E090E00E9403282E
:1050600080E00E942806C093EE02CF91089580E070
:1050700090E00E94032881E00C94242808958091F8
:105080007302893051F09CEF980F963048F08150B0
:10509000823048F481E093E0089588EF92E008952B
:1050A0008AE093E008958FEE92E0089581E395E021
:1050B000909365028093640290917302945081E012
:1050C000963008F080E00E94292761E084EF95E0A7
:1050D0000E94731091E0813009F090E0892F0895CB
:1050E0000F931F93CF93DF930E947F260091780246
:1050F00010917902C0917602D091770263E083E744
:1051000092E00E94AF1AA801BE010E9482268BE2A3
:1051100095E0909365028093640260E08AEF95E0E9
:10512000DF91CF911F910F910C9473101F93CF9328
:10513000DF93162FC0917602D091770261E083E76A
:1051400092E00E94AF1A40E0BE010E94BC2585E2B9
:1051500095E09093650280936402612F8AE196E066
:10516000DF91CF911F910C9473101F93CF93DF9316
:10517000182FC0917602D091770261E083E792E028
:105180000E94AF1A41E0BE010E94BC2525E235E035
:105190003093650220936402612F8AE196E0DF91EB
:1051A000CF911F910C94731029E135E03093650283
:1051B00020936402682F83E396E00C947310CF93DE
:1051C000C82F62E083E792E00E94AF1A60917802F4
:1051D00070917902A0917A02B0917B02E091A503CF
:1051E000F091A603AE9F9001AF9F300DBE9F300D92
:1051F0001124820F931F0E9493252FE135E03093F5
:105200006502209364026C2F86E096E0CF910C94A7
:1052100073101F93CF93DF93182FC0917802D09112
:10522000790262E083E792E00E94AF1ABE010E9419
:1052300093252FE135E03093650220936402612FBE
:1052400088E296E0DF91CF911F910C94731088ED66
:1052500091E0909365028093640260E084E196E0BF
:105260000C94731080919B0390919C030E9469277A
:1052700087E395E0909365028093640261E086E0A5
:1052800096E00C94731080911303089580916D0043
:105290000895813019F481E00C94DF28811103C056
:1052A00081E00C9409298230B1F380E008954091A7
:1052B000130350E02091990330919A03421753074A
:1052C00089F0813041F42091A9033091AA03232B66
:1052D000D9F0862F10C0811102C0862F10C08230F5
:1052E000C9F412C0813049F48091A9039091AA03B6
:1052F000892B49F080E00C94B528811102C00C94F0
:10530000D428823039F460E080919F039091A0030B
:105310000C94962880E008950F931F93CF93DF930A
:10532000C82F81E08093130314E4D7E503E4409190
:10533000130350E02091990330919A032417350705
:10534000E8F10E94B30D10936D008C2F0E94492943
:105350008130A9F5D0936D000E943229813079F512
:105360000E9435220E94B30D00936D0040911303FB
:1053700050E02091990330919A034217530711F09E
:1053800061E001C060E08C2F0E9457298130B9F4A0
:10539000D0936D004091130350E020919903309118
:1053A0009A034217530721F00E943229813039F4C1
:1053B000809113038F5F80931303B9CF81E0DF9156
:1053C000CF911F910F910895CF93C82F809316030B
:1053D0002DE335E030931503209314038F3030F420
:1053E000E82FF0E0E455FF4F808101C080E080931A
:1053F0006E000E9497380E9485090E9456288823D3
:10540000F1F184E00E9495378C2F90E08F30910568
:10541000A0F5FC01EB5BFF4F0C94AF3E60E0809188
:105420009F039091A0030AC00E94272928C080E012
:105430000E94DF2824C060E085E090E00E9496286A
:105440001EC060E080E002C060E081E00E94702841
:1054500016C080E00E94D42812C080E00E94092972
:105460000EC081E003C080E001C082E00E948C2970
:1054700006C080E00E94B52802C00E9485210E94DB
:105480009409CF910C94A7380F931F93CF93DF9378
:10549000EC010E94841A0E943F288C0160E0C80140
:1054A0000E94CE1987FD29C090917302E82FFF2733
:1054B000E7FDF095993019F4E35AFA4F0FC08CEFDD
:1054C000890F863018F4EC58FA4F08C0915092308A
:1054D00018F4E15BFA4F02C0E25CFA4F84918F301E
:1054E00049F4BE0183E792E00E94711BCE010E9445
:1054F000921AD1CF0E94E429D1CFDF91CF911F9191
:105500000F9108956DE775E08AE093E00E94E0183E
:1055100063E575E081E093E00E94E01864E675E0E1
:1055200088EF92E00E94E01863E475E08FEE92E06D
:105530000C94E018FC01428153814115510591F012
:10554000A081B181B7FF03C0B195A195B10928EE43
:1055500033E00E942C3E9A0140E050E00E946E3EF3
:10556000C901089580E090E008950F931F93CF93B1
:10557000DF9300D000D0CDB7DEB78C01862FF801C5
:10558000628173810E94B2099C838B83F8018081C0
:1055900091819A838983CE0101960E949A2A0F9065
:1055A0000F900F900F90DF91CF911F910F91089561
:1055B0000F93FC01CB01002341F04617570708F475
:1055C000CA016417750748F407C06417750708F423
:1055D000CA014617570708F4BA0197838683918357
:1055E0008083138212821582148233872287681B7C
:1055F000790B718760870F910895FC019B0140E052
:1056000050E086819781281B390B41095109A285F9
:10561000B3850E94333E20853185442737FD409570
:10562000542F0E94903E2115310581E04807510515
:1056300024F457FD05C0C90108958FEF9FEF089529
:1056400080E090E00895DF92EF92FF920F931F9316
:10565000CF93DF93EC012A813B812417350720F497
:10566000FA01E21BF30B03C0F901E41BF50B8C817B
:105670009D81969587958E179F0770F588819981F2
:105680008617970720F4FB01E81BF90B03C0FC0108
:10569000E61BF70BEF2B01F12417350738F48A01CD
:1056A000021B130B7B01E81AF90A06C07C01E61AFB
:1056B000F70A8901041B150BC7010E94F82DD82E8B
:1056C000888599850E94F82DD81206C01D830C8309
:1056D000F986E8861B870A87DF91CF911F910F918A
:1056E000FF90EF90DF9008950F931F93CF93DF9378
:1056F000EC018B019A01A885B9850E942C3E2A8570
:105700003B8540E050E00E94903EC801A0E0B0E040
:1057100082179307A407B5071CF41F821E8204C0DA
:10572000021B130B1F830E83DF91CF911F910F91EB
:105730000895EF92FF920F931F93CF93DF93EC01A5
:105740008B017A010E94232BA701B801CE01DF91C2
:10575000CF911F910F91FF90EF900C94742B823397
:10576000910510F482E390E090937E0380937D0393
:10577000089580911903813029F480917D039091DF
:105780007E03089580E090E0089560917903709120
:105790007A0380911B030C94B20920911E032130DF
:1057A00041F041E020917D0330917E038217930701
:1057B00008F040E0842F08952CE0829FC00111245E
:1057C00060911B03895D9C4F0C94B52A60911B036B
:1057D0008FE693E00C94B52ACF93DF9300D000D0EE
:1057E000CDB7DEB782E10E943A089A83898383E1CC
:1057F0000E943A0829813A81281B390B3A83298370
:1058000087E10E943A089C838B83CE0101960E9417
:105810009A2A0F900F900F900F90DF91CF910895DB
:105820009B018130910531F0909378038093770349
:1058300040931A0330937A032093790360919F0376
:105840007091A003C9010E945A3E70937E03609339
:105850007D032233310530F482E390E090937A03A4
:10586000809379036233710530F482E390E0909382
:105870007E0380937D030895EF92FF920F931F9311
:10588000CF93DF9391E090931903FF24F3948F302B
:1058900009F0F12C80931B0360EA70E00E94160A65
:1058A00090937C0380937B030E94DA0820917D0310
:1058B00030917E0340917703509178030F2DBC0106
:1058C00087E693E00E94D82A0E94BD0D80931C03B6
:1058D00080917703909178030E940910EC0110E009
:1058E0008CE0E82E80911C03181798F4812F0E94F9
:1058F000FA0DBC0120917D0330917E03E19EC00131
:1059000011240F2DAE01815E9C4F0E94D82A1F5F8B
:10591000E9CF10921E0310921D03DF91CF911F91CA
:105920000F91FF90EF9008950F931F93CF93DF9304
:10593000082FEB0180911A038823C9F040917B0363
:1059400050917C0320917D0330917E03241735070D
:1059500008F49A012C173D0710F410926002809110
:105960001E03813021F00E949E0F809319038091C5
:105970001903813011F580911E03823041F411E04A
:1059800020917D0330917E03C217D30708F010E009
:105990000E94B92B8C179D0770F0111102C00023D3
:1059A00051F090911D0381E0890F80931D0381E0E8
:1059B0009A3020F402C010921D0380E0DF91CF9155
:1059C0001F910F9108950F931F93CF93DF93EC01D5
:1059D0000E94DA08AE01BC0187E693E00E94992B91
:1059E00010E00CE080911C03181770F4812F0E94C6
:1059F000FA0DBC01019FC0011124AE01815E9C4FD4
:105A00000E94992B1F5FEECFDF91CF911F910F91D5
:105A10000895CF92DF92EF92FF920F931F93CF934F
:105A2000DF93609177037091780387E693E00E949B
:105A3000FD2A8C0180917703909178030E940910D0
:105A40007C01D12C9CE0C92E80911C03D81698F4BF
:105A5000CD9CE0011124C15EDC4FB701CE010E9454
:105A6000FD2A0817190728F0B701CE010E94FD2A68
:105A70008C01D394E9CFC801DF91CF911F910F9191
:105A8000FF90EF90DF90CF9008950F931F93CF93E7
:105A9000DF93EB0180937503909376032091790354
:105AA00030917A038C012817390708F489010E9484
:105AB000B92B8017910708F4C801C817D90711F14D
:105AC00020911E032230A9F48C179D0790F020919D
:105AD0007D0330917E032C173D07A0F040917303A6
