:100000000C94E8040C9410050C9410050C94100545
:100010000C946F3B0C9410050C9410050C94100577
:100020000C9410050C94AB3B0C946E070C941005CB
:100030000C9410050C944D3C0C94823C0C941005CF
:100040000C9492070C9410050C9410050C94100558
:100050000C94100566174D174F1751175817641752
:100060005E176017A924912493249524972499243A
:100070009B249F24A124A424A624B724AB24AD242C
:10008000AF24B324B524B124B9244F2A7A2A552A9F
:10009000582A5C2A622A652A6A2A6E2A722A742AD7
:1000A0004F2A582A5C2A762A043707370C3711372B
:1000B000143717371A371D37233726372B372E3784
:1000C00033373A373D374037453748377537773715
:1000D0007C378137853789378D379137973799370F
:1000E0009D37A337A837AC37AE37B037B637BA37F6
:1000F000973899389B389F389F389D38A338A13856
:10010000000000000067582F00000000F567E6308F
:10011000010032000200E8030100320002002C015D
:1001200000000000000000000000000000000000CF
:10013000000000002ECA7E3BC24CA40B0C49701775
:100140000000000043BFA80E0000000080D566102C
:100150000000000080D0841F0000000031D5611035
:1001600000000000C0D665100000000080D46510BB
:100170000000000080D46510010032000200E80396
:100180000100320002002C010006080001FF0101FD
:1001900000000106090001FF0302010002060A0037
:1001A00001FF0000000006060E0000FF0302010030
:1001B00005060D0000FF0203000004060C0000FF0E
:1001C0000302010003060B0000FF040600000706FF
:1001D000070000FF030201004D0E970E9E0F4368BB
:1001E00065616C692D43686172676572206D007688
:1001F000302E33336D5F32303134303930350003D7
:100200000200006F7074696F6E73000100010001DD
:1002100000010001000A0064000100030008000959
:10022000000A000B000C0001000200040006000898
:10023000000A000C006D5600206E6F007965730097
:10024000496E66006D696E2E00756E6C696D69741D
:1002500000756E6C696D69746564009C029702920A
:10026000028D02880283027E02790274026F024EBE
:10027000695A6E004C343335004C343330004C69CD
:10028000706F004C696C6F004C69666500506220AD
:1002900020004E694D48004E69436400556E6B6EF8
:1002A0000000980898086C0710275802019808F475
:1002B000016C070100E001029808F4016C070100DD
:1002C000E001039808DC006C070600E001049808D0
:1002D00098086C070300780005980898086C0703D5
:1002E00000780006980898086C07030078000798C3
:1002F0000898086C070300780008980898086C07AD
:100300000300780009980898086C0703007800013A
:100310000001000100010000000100B0041C0752B0
:1003200003000008075203B0044006E80300000879
:1003300007E803D0079209D606000000006C07E426
:100340000C100ED007E40C0000B80B100E0410C403
:1003500009A60E0000AC0D740E6810B80B0A0F0051
:1003600000890C740ECC10B80B0A0F0000890C74B5
:100370000EFE10B80B0A0F0000890C40066C071423
:10038000054006000078054E616D653A00456469D8
:1003900074206E616D653A00E803E303DE03D90360
:1003A000D403CD03C103B703AC03000052657365EA
:1003B00074206E616D650045646974206E616D65C1
:1003C00000437265617465206E616D6500546C69EF
:1003D0006D3A200049643A200049633A200043689E
:1003E0003A2000563A2020004261743A202000430F
:1003F000616C2E6572722E2020463A002500202D59
:100400002D3A2D2D00202000200020002520005214
:1004100045564552534520504F4C4152495459007E
:10042000706C656173652063616C2E004E2F410016
:1004300064656C746120543D20004E2F410054656A
:1004400078743D0064656C746120563D20006D61D8
:1004500078566F75743D006E6F2064542F7400459C
:1004600072726F723A0054696D653A200070726F53
:100470006772616D20636F6D706C657465002D002F
:10048000546578743D005662616C2E3D00566F7560
:1004900074203D00206C696D69743D0056696E7072
:1004A00075743D00776972657320523D0062617416
:1004B000742E20523D0020200062200074696D657A
:1004C0003A2020202020004C696D6974733A200086
:1004D0006D4168003C20006D4120006D41200020EE
:1004E000202D2D20200043684342426C446946433E
:1004F0005374534243684469435963794368446978
:100500004650435045420064542F6474002D645695
:100510000056206C696D697400F424E824F8248A7C
:100520002585259B25F625F125312694266226680A
:1005300026D0266427DC2670276D278127000B0C28
:100540000D0E0FED05CC05C0059E059105000007B9
:10055000080A0FED05CC059E05910500000001027B
:100560000304090FED05DE05D605CC05C0059E0583
:100570009105000000010203040506090FED05DEE8
:1005800005D605CC05C005B805A9059E0591050051
:100590000065646974206261747465727900443E18
:1005A0004320666F726D61740073746F726167656A
:1005B0002B62616C616E630073746F7261676500BA
:1005C0006661737420636861726765006469736350
:1005D00068617267650062616C616E636500636883
:1005E000617267652B62616C616E6365006368614F
:1005F000726765000106070F050002120607090A67
:100600000D0E0F04050002120607090A0D0E0F0455
:10061000051303000607040F050002120607090A66
:100620000D0E0F04051303000212110D0E0F040529
:1006300013030002120C10110D0E0F04051303001A
:100640004558542054206C696D69740054696D6577
:10065000206C696D697400434150206C696D697448
:1006600000494E5055542056004857204641494CA9
:10067000555245004F5645524C4F414420657272C9
:100680000042414C20627265616B0042415420641B
:100690006973630020436F6E6E65637420426174FA
:1006A0007465727900436F6E6E6563742042617485
:1006B00074657279210008090A0001E706DF06D790
:1006C00006CF06C7060000566D696E75733A005670
:1006D000706C75733A200056623270696E3A00563B
:1006E000623170696E3A0056623070696E3A00FC91
:1006F00006F506000076616C75653A0074656D70EC
:100700003A2000120709070000706F696E742032EA
:100710002E00706F696E7420312E002907210700AA
:1007200000444154413A20200076616C75653A20BE
:100730000032002C013200E8034B07450700005748
:1007400007500700003330306D410035306D4100F7
:10075000313030306D410035306D410006090A0BF3
:100760000C0D0E061F20212223241312B007AA0706
:10077000A4079E07980792078C078607800700004A
:10078000566F75743A0056312D363A005662363A35
:1007900020005662353A20005662343A20005662F4
:1007A000333A20005662323A20005662313A200035
:1007B00056696E3A20000008F707EB07DF07D307FA
:1007C000C40700006578706572742044414E474547
:1007D00052210063616C69622D3E55415254007490
:1007E000656D702065787465726E00492064697368
:1007F00063686172676500492063686172676500BC
:10080000766F6C746167650028081E081008000088
:1008100072657365742064656661756C74006361EC
:100820006C6962726174650073657474696E677374
:100830000080250000004B00000096000000E10051
:100840000000C20100460088137017000070176492
:1008500000010005000F0005001E0001000A0078DD
:1008600000581B000001000100080000000000000B
:100870000000000000432F6D00A2089B0895088C23
:100880000883086578742E20416463006578742EAF
:1008900020646562006465627567006E6F726D61E9
:1008A0006C0064697361626C6564008E0983097C05
:1008B00009700966095C095009440938092B0921A6
:1008C0000916090D090109F508EB08E408DC08D34D
:1008D00008000020202072657365740073706565E0
:1008E000643A2000554152543A200062616C2E2037
:1008F0006572723A00666F7263652062616C3A20BD
:10090000006469732061677265733A2000646973DB
:100910006368202B3A00696E707574206C6F773AAB
:100920000063617020434F66663A006D696E2E4920
:100930002049203D20492F00626565703A20202023
:1009400020202000776173746520542E3A20200007
:10095000442F43206379636C65733A004E694364A6
:10096000202D64563A004E694D48202D64563A00B9
:10097000656E6162202D64563A20200064542F6415
:10098000743A00657874726E2054434F3A0065786B
:1009900074726E20543A20202000141719181A0778
:1009A00005061F20212223247265736574696E6712
:1009B00020656570726F6D3A00763A20382E3531B9
:1009C0002E3536200000A605C911BC24C32AB93D26
:1009D00011241FBECFE5D8E0DEBFCDBF10E0A0E6FA
:1009E000B0E0E2EFFEE702C005900D92AC3EB10729
:1009F000D9F714E0ACEEB0E001C01D92A03FB10702
:100A0000E1F719E0C0EDD9E004C02297FE010E9491
:100A1000FE3EC63CD107C9F70E94C4110C94773F33
:100A20000C94000086B380958170B19B02C090E069
:100A300001C092E0892BB29B02C090E001C094E01B
:100A4000892BB39B02C090E001C098E0892B0895E8
:100A5000882339F0A69AA79AD59A889A8A9A8F9A63
:100A60000895A698A798D59888988A988F980895F9
:100A70008091F300882331F08091EC008F5F8093A8
:100A8000EC0002C01092EC008091F3008A3010F468
:100A900080E001C088E09091F300943108F084E098
:100AA0009091F3009E3108F082E09091EC00982341
:100AB00011F0C49A0895C498089520919F0330912D
:100AC000A003232B11F08093F3000895811102C03D
:100AD000939A08959398089587B18F7387B98B9AE5
:100AE0008D9AD79ABC9A8C9A8D9A8E9A80E00E94A1
:100AF000660580E00E945D0520E042E060E18DEE49
:100B000090E00E9452180E942E3C0C94DB0680FF5D
:100B100002C0AE9A01C0AE9881FF02C0AF9A01C078
:100B2000AF9882FF02C0DD9A01C0DD9883FF02C04A
:100B3000909A01C0909884FF02C0929A01C0929846
:100B400085FF02C0979A0895979808958DEE90E0DA
:100B50000C94A3182FB7F8948091F5009091F600AB
:100B6000A091F700B091F8002FBF892F9A2FAB2FDB
:100B7000BB27A7FDBA9508952FB7F8941092FC00F3
:100B80001092FB008617970768F480E090E4A0E0DD
:100B9000B0E08093F5009093F600A093F700B09337
:100BA000F80008C01092F5001092F6001092F700BD
:100BB0001092F8008091F5009091F600A091F70056
:100BC000B091F800BA2FA92F982F88278093F500AD
:100BD0009093F600A093F700B093F80081E0809323
:100BE000F4002FBF0895CF93DF93EC01C13080E66E
:100BF000D80758F4C13080E4D80748F48EE00E944A
:100C0000423C9598BE018DE009C0C0E0D0E68DE081
:100C10000E94423C949ABE0170548EE0DF91CF91C5
:100C20000C94183CCF93DF93EC016CED79E680E0F7
:100C30000E94160A2FB7F894D093FC00C093FB00D3
:100C40009093FA008093F9002FBFDF91CF91089520
:100C5000882329F080E00E943106DF980895DF9A0A
:100C60000895CF93DF93C82F882319F080E00E9466
:100C70002806DFB7F8948DE00E94423C94988EE0FD
:100C80000E94423C95981092F400DFBFC11104C04D
:100C9000969ADF91CF910895969880E00E943A0845
:100CA000EC0186E00E943A08BE01DF91CF910C94DE
:100CB000BC050F931F938091F400882309F474C03E
:100CC00080E00E9443082091F9003091FA00281733
:100CD000390730F480E00E9431061092F40064C0BD
:100CE00082E00E9443084091FB005091FC0060E0CC
:100CF00070E00091F5001091F6002091F70030911E
:100D0000F800481B590B61097109E2E0440F551FB7
:100D1000661F771FEA95D1F7040F151F261F371F8F
:100D20000093F5001093F6002093F7003093F8003D
:100D30008091F5009091F600A091F700B091F80035
:100D4000B7FF08C01092F5001092F6001092F7005D
:100D50001092F8008091F5009091F600A091F700B4
:100D6000B091F8000197A046B10560F080E090E0F6
:100D7000A0E6B0E08093F5009093F600A093F70012
:100D8000B093F8008091F5009091F600A091F700E3
:100D9000B091F800892F9A2FAB2FBB27A7FDBA95EA
:100DA0001F910F910C94F3051F910F910895BC01B1
:100DB0008EE00C94183CDE98D698BD9ABE9ABF9AE5
:100DC00080B7806680BF8FEA86B91092FD000C94D0
:100DD0009F3BCF9387FD15C0C8B320E28202C001BC
:100DE0001124CF71C82B88B38F71806C88BBD69AC1
:100DF0008AE090E00E94633E8FB7F894C8BBD69813
:100E00008FBFCF91089594B135B12FB7F89445E0D5
:100E1000849FF0011124E657FE4FE491F0E0EE0FBD
:100E2000FF1FEC52FE4F892F90E0932B918380831C
:100E30002FBF08951092FD0008950E94C627909339
:100E4000F3018093F2010E9428289093F50180938A
:100E5000F4010C94FF0AE091FD00EF5FE03108F02F
:100E6000E0E085E0E89FF0011124E857FE4F84910F
:100E70002091AF033091B003232B19F0873009F490
:100E800086E00C94E906CF93C091FD008C2F0E9460
:100E90000307E1E0EC0FE03108F0E0E0E093FD0053
:100EA00085E0E89FF0011124E757FE4FE491E062EE
:100EB000E7B9E091FD0085E0E89FF0011124E557D6
:100EC000FE4FE491E1110E9459068091FD008111CD
:100ED00003C0CF910C941D07CF9108951F920F92DC
:100EE0000FB60F9211242F933F934F935F936F93FD
:100EF0007F938F939F93AF93BF93EF93FF930E9442
:100F00002B07FF91EF91BF91AF919F918F917F91AF
:100F10006F915F914F913F912F910F900FBE0F9066
:100F20001F9018951F920F920FB60F9211242F93B6
:100F30003F934F935F936F937F938F939F93AF9361
:100F4000BF93EF93FF930E944307FF91EF91BF91EF
:100F5000AF919F918F917F916F915F914F913F9151
:100F60002F910F900FBE0F901F9018952FB7F894E8
:100F70006091FE007091FF0080910001909101014D
:100F80002FBF08950E94212F0E944E3A0E947F2871
:100F90000E94A7380C94AF0D8091FE009091FF0045
:100FA000A0910001B09101010196A11DB11D809396
:100FB000FE009093FF00A0930001B0930101809187
:100FC0006600815019F080936600089581EE809349
:100FD00066000E94E60A0C94DB230E94B6079695F1
:100FE0008795779567950895CF92DF92EF92FF925C
:100FF000CF93DF93EC010E94ED076B017C01CC0ED7
:10100000DD1EE11CF11C0E94ED076C157D058E05AF
:101010009F05C8F3DF91CF91FF90EF90DF90CF90C5
:101020000895CF92DF92EF92FF92CF93DF93EC017E
:101030000E94ED076B017C01CC0EDD1EE11CF11C52
:101040000E94ED076C157D058E059F0518F40E9422
:10105000C207F6CFDF91CF91FF90EF90DF90CF9056
:101060000895E82FF0E0EE0FFF1FEE54FE4F808151
:1010700091810895E82FF0E0EE0FFF1FE859FE4F31
:101080008081918108952FB7F894E82FF0E0EE0F5A
:10109000FF1FEC52FE4F808191812FBF08958091F8
:1010A0003C02089580911C0190911D01089580914A
:1010B0000A0190910B01089580910C0190910D010E
:1010C0000895E82FF0E0EE0FFF1FE25EFE4F8081F3
:1010D00091810895262F613110F4423040F021E0D3
:1010E00030E0FC013383228331832083089550E074
:1010F000BA01620F711D620F711D660F771F660FB7
:10110000771F665F7F4F44E050E00C94323F282FFA
:10111000CA01213188F4623078F470E0620F711DE9
:10112000620F711D660F771F660F771F665F7F4F17
:1011300044E050E00C94503F0895FF920F931F93AA
:10114000CF93DF9300D000D0CDB7DEB700E011E041
:10115000F12CF801459155916591749149835A8319
:101160006B837C83AE014F5F5F4F60E08F2D0E94E9
:101170008708F8013496459155916591749149839A
:101180005A836B837C83AE014F5F5F4F61E08F2D8D
:101190000E948708F394085F1F4F81E1F812D9CFAE
:1011A0000F900F900F900F90DF91CF911F910F91A3
:1011B000FF90089580919001909191010895809100
:1011C0009601909197010895809146019091470171
:1011D000039750F080914C0190914D01039720F0BE
:1011E00083E090E00C94D10E80E008958FB7F894DE
:1011F000E6EFF1E0119211921192119292E0EA332E
:10120000F907C1F710923B0210923A028FBF08957E
:10121000CF93CFB7F89410921B0110921A0110923D
:1012200016011092170110921801109219011092D4
:1012300012011092130110921401109215011092D4
:101240000E0110920F0110921001109211010E94D4
:10125000ED07609306017093070180930801909356
:101260000901CFBFCF910895CF93DF930E94F60875
:101270000E940809C0911C01D0911D0180911C01A0
:1012800090911D01C817D90729F48AE090E00E94C7
:101290001108F4CFDF91CF9108950E9408091092B0
:1012A0000D0110920C0110920B0110920A01089589
:1012B000EEE1F1E01192119281E0E836F807D1F702
:1012C00008950E94F6080E9408090C9458098FB7E7
:1012D000F8941092020110920301109204011092EE
:1012E00005018FBF10921D0110921C010E941A0768
:1012F0000E9461090E944D09E8E6F1E01192119205
:1013000081E0E23BF807D1F7089580913C0281111A
:101310000AC081E00E9466050E94670981E080930F
:101320003C020C943409089510923C0280E00C9425
:101330006605CF93DF9381E00E944308EC0180E0D3
:101340000E9443088C179D0718F4C81BD90B02C0D4
:10135000C0E0D0E081E0C93ED34008F480E0DF91F6
:10136000CF9108958F929F92AF92BF92CF92DF92CA
:10137000EF92FF92CF93DF93CDB7DEB728970FB6EA
:10138000F894DEBF0FBECDBFF82E5B01611571056D
:10139000D1F140E0682FCE0105960E946A0841E035
:1013A0006F2DCE0101960E946A082B813C8140E09E
:1013B00050E0CF80D884E12CF12C2C193D094E0946
:1013C0005F09B50180E090E08D809E80A12CB12C5A
:1013D000681979098A099B090E948B3E29813A8103
:1013E00040E050E0281939094A095B090E94DD3EB6
:1013F0002C0D3D1D4E1D5F1D57FF03C020E030E04A
:10140000A901C90102C080E090E028960FB6F894C7
:10141000DEBF0FBECDBFDF91CF91FF90EF90DF9089
:10142000CF90BF90AF909F908F9008958F929F9292
:10143000AF92BF92CF92DF92EF92FF92CF93DF9362
:10144000CDB7DEB728970FB6F894DEBF0FBECDBF7D
:10145000F82E5B0161157105D1F140E0682FCE01D6
:1014600005960E946A0841E06F2DCE0101960E9408
:101470006A0829813A8140E050E0CD80DE80E12C8D
:10148000F12C2C193D094E095F09B50180E090E06F
:101490008F809884A12CB12C681979098A099B093D
:1014A0000E948B3E2B813C8140E050E02819390995
:1014B0004A095B090E94DD3E2C0D3D1D4E1D5F1D3E
:1014C00057FF03C020E030E0A901C90102C080E05D
:1014D00090E028960FB6F894DEBF0FBECDBFDF9127
:1014E000CF91FF90EF90DF90CF90BF90AF909F9003
:1014F0008F9008950C9467098250893130F4E82F59
:10150000F0E0E758FF4F8081089581E00895CF9380
:10151000DF93E82FF0E0EE0FFF1FE859FE4FC08188
:10152000D1810E947C0A882319F0813029F00AC0F9
:1015300081E0E39740F404C081E0C935D24018F45B
:1015400080E001C081E0DF91CF910895CF93C0E0AA
:101550008FE18C0F0E94870A882329F0CF5FC63065
:10156000B9F786E001C08C2FCF9108951F93CF93D8
:10157000DF931F92CDB7DEB7182F69830E947C0AD4
:10158000E12FF0E0EE0FFF1FE859FE4F4981682F71
:10159000808191810F90DF91CF911F910C943B1727
:1015A0002FB7F894609102017091030180910401BA
:1015B000909105012FBF2DE730E040E050E00E9400
:1015C000BB3EBB27A52F942F832F08952091960112
:1015D000309197018091020190910301A091040143
:1015E000B0910501820F931FA11DB11D80930201CF
:1015F00090930301A0930401B09305010895CF9344
:10160000DF9380913C02882309F474C020913A0250
:1016100030913B0224363105E0F4E4EDF1E0C6EF11
:10162000D1E04191519188819981AA81BB81840F38
:10163000951FA11DB11D89939993A993B99381E039
:10164000E63FF80771F72F5F3F4F30933B0220933F
:101650003A022091D4013091D501809116019091E8
:101660001701A0911801B0911901820F931FA11DBC
:10167000B11D8093160190931701A0931801B093A8
:1016800019012091D6013091D701809112019091DA
:101690001301A0911401B0911501820F931FA11D98
:1016A000B11D8093120190931301A0931401B09384
:1016B00015012091E2013091E30180910E0190919A
:1016C0000F01A0911001B0911101820F931FA11D74
:1016D000B11D80930E0190930F01A0931001B09360
:1016E000110180911A0190911B01019690931B01A9
:1016F00080931A01DF91CF91089590E0880F991F90
:10170000FC01E859FE4F208131816217730718F4FC
:10171000261B370B04C0AB01421B530B9A01FC0183
:10172000E25EFE4F2730310518F01182108206C0AC
:10173000208131812F5F3F4F31832083FC01E859A5
:10174000FE4F718360830895AF92BF92CF92DF9274
:10175000EF92FF920F931F93CF93DF931F92CDB71A
:10176000DEB7A0906801B090690180916A01909104
:101770006B018A159B0518F4A81AB90A02C0A12C9E
:10178000B12CB50182E10E947D0B2091780130914E
:10179000790180917A0190917B0100917C011091F7
:1017A0007D012817390720F4BC01621B730B02C0AE
:1017B00060E070E08017910718F4081B190B02C055
:1017C00000E010E08FE10E947D0BB80180E20E94F2
:1017D0007D0B0EE711E091E2F801619171918F01AB
:1017E000892F99830E947D0B99819F5F9532A1F784
:1017F0000E94A60AF82E80E000E010E08F1569F044
:10180000EFE1E80FF0E0EE0FFF1FE859FE4F2081F7
:101810003181020F131F8F5FF1CFB80183E10E9466
:101820007D0B0115110581F00A151B0520F49501AA
:10183000201B310B03C098012A193B09293E334074
:1018400018F4580113E102C012E1F12CB50184E152
:101850000E947D0B6F2D70E086E10E947D0B612F51
:1018600070E085E10E947D0B0E94D00A8C010E94ED
:101870001928882329F0E0906E01F0906F010BC0C9
:101880000E94B727882329F0E0906C01F0906D0149
:1018900002C0E12CF12CB70187E10E947D0BB80159
:1018A00089E10E947D0B9701D5010E946A3E30E1DB
:1018B000C32E37E2D32EE12CF12CA70196010E9412
:1018C000BB3EB90188E10E947D0B9801D5010E94C1
:1018D0006A3EA70196010E94BB3EB9018AE10F90C2
:1018E000DF91CF911F910F91FF90EF90DF90CF90FC
:1018F000BF90AF900C947D0BBF92CF92DF92EF928E
:10190000FF920F931F93CF93DF932FB7F89480919B
:101910003A0290913B022FBF84369105C1F5809128
:101920001C0190911D01019690931D0180931C0153
:1019300006EF11E0C2EBD1E0B12C54E6C52ED12C5C
:10194000E12CF12CF80161917191819191918F01BC
:10195000A70196010E94BB3E29933993B9018B2DB3
:101960000E94B209BC018B2D0E947D0BB394F1E162
:10197000BF12E8CF0E94A40BDF91CF911F910F916E
:10198000FF90EF90DF90CF90BF900C94F608DF911E
:10199000CF911F910F91FF90EF90DF90CF90BF906C
:1019A00008954F925F926F927F928F929F92AF9223
:1019B000BF92CF92DF92EF92FF920F931F93CF933C
:1019C000DF93CDB7DEB728970FB6F894DEBF0FBE12
:1019D000CDBF0E94ED07C0900601D0900701E090B6
:1019E0000801F09009016C197D098E099F09613386
:1019F00075478105910508F49BC02FB7F8940091B5
:101A00001A0110911B01409016015090170160902F
:101A10001801709019016091120170911301809169
:101A200014019091150180900E0190900F01A090EB
:101A30001001B09011012FBF6D837E838F83988733
:101A40000E94080920910C0130910D012F5F3F4F3A
:101A500030930D0120930C016801E12CF12C6D8174
:101A60007E818F819885A70196010E94BB3E2983C4
:101A70003A834B835C83C301B201A70196010E94A4
:101A8000BB3EB90180E00E94B2093C0169817A81C4
:101A900081E00E94B2098615970518F4681A790A40
:101AA00002C0612C712C4090A0015090A1016414DF
:101AB000750420F0B3018CE10E947D0BB301641921
:101AC00075098BE10E947D0BC501B401A701960148
:101AD0000E94BB3EB90187E00E94B20920910A0131
:101AE00030910B0190930B0180930A01BC01621BA2
:101AF000730B660F771F8DE10E947D0BB8018EE19D
:101B000028960FB6F894DEBF0FBECDBFDF91CF9100
:101B10001F910F91FF90EF90DF90CF90BF90AF900B
:101B20009F908F907F906F905F904F900C947D0B63
:101B300028960FB6F894DEBF0FBECDBFDF91CF91D0
:101B40001F910F91FF90EF90DF90CF90BF90AF90DB
:101B50009F908F907F906F905F904F9008950E941C
:101B60007C0C0C94D10C1092020110920301109283
:101B70000401109205010C9461098091630208959B
:101B800080916102811113C00E944F08882381F067
:101B90000E94520820913D0230913E02821B930B1D
:101BA0009C0181E02530310518F080E0089581E046
:101BB0000895815E0C943A080F931F93CF93DF939F
:101BC00010E0CFEFDFEF00E080916302181760F4C0
:101BD000812F0E94D90D8C179D0710F0CE0101C0F6
:101BE000012F1F5FEC01F0CF802FDF91CF911F916C
:101BF0000F910895CF93DF9390916102911104C0EA
:101C0000DF91CF910C94D90D90914702C82FD0E06D
:101C1000992391F00E94D90DCC0FDD1FFE01E85BE6
:101C2000FD4FCC5ADD4F2081318148815981241BE1
:101C3000350B280F391F07C0FE01EE0FFF1FE85BB1
:101C4000FD4F20813181C901DF91CF910895CF935C
:101C5000C82F80916102882341F0C11106C00E9403
:101C6000520890933E0280933D02C09361020E940D
:101C7000ED0760933F02709340028093410290937E
:101C800042020E94580980916002811104C08C2F89
:101C9000CF910C948705CF910895EF92FF920F9307
:101CA0001F93CF93DF9381E00E94280586E10E9475
:101CB0003A088093630204E512E038E4E32E32E050
:101CC000F32EC0E0D0E08091630290E0C817D907FE
:101CD0006CF48C2F0E94D90DF801819391938F01A0
:101CE000F701819391937F012196EDCF10926102CC
:101CF0001092600280E00E94270E10923E02109225
:101D00003D0210923F021092400210924102109246
:101D10004202DF91CF911F910F91FF90EF900895B4
:101D200080E00E94270E81E08093600208950E9467
:101D3000900E80E00C942805FF920F931F93CF9391
:101D4000DF93809162020E94FA0DEC01F12C01E018
:101D500010E080916302F816E8F48F2D0E94FA0DCE
:101D6000AC0180916102802321F0C417D50778F47B
:101D70000DC02091AD033091AE032F5F3F4F3695DC
:101D800027952C0F3D1F2417350708F4102B000F43
:101D9000F394DFCF812FDF91CF911F910F91FF90AF
:101DA00008951F93CF93DF93EC0110E080916302BD
:101DB000181748F48FE1810F0E9461088C179D0766
:101DC00020F01F5FF3CF81E001C080E0DF91CF9171
:101DD0001F910895BF92CF92DF92EF92FF920F93DF
:101DE0001F93CF93DF938AE090E00E94D10E882367
:101DF00009F460C00E94DC0D809362020E94D90D3C
:101E00008C0162E083E792E00E94A31A0817190789
:101E100048F178E4E72E72E0F72EE4E5CE2EE2E01A
:101E2000DE2EC0E0D0E0BB24B3948091630290E04A
:101E3000C817D907CCF48C2F0E94D90DF7018193D4
:101E400091937F01F601819391936F01801B910B18
:101E50002091AD033091AE032817390708F4B12C57
:101E60002196E3CFBB24B394109247020E94ED0762
:101E7000609343027093440280934502909346021C
:101E8000BB2059F0DF91CF911F910F91FF90EF9000
:101E9000DF90CF90BF900C94900E0E949C0EDF912B
:101EA000CF911F910F91FF90EF90DF90CF90BF9057
:101EB0000C94270EDF91CF911F910F91FF90EF901F
:101EC000DF90CF90BF900895CF938091470281110A
:101ED00019C081E080934702809162020E94D90D6F
:101EE000C0E080916302C81768F48C2F0E94D90D5E
:101EF000EC2FF0E0EE0FFF1FEC5AFD4F9183808333
:101F0000CF5FEFCFCF9108950F931F930E94ED07FE
:101F10000091430210914402209145023091460203
:101F2000601B710B820B930B28EE33E040E050E016
:101F30000E94BB3EC9011F910F91089583E090E07C
:101F40000E94D10E8823C9F080916102811103C0E3
:101F50000E94EA0E12C00E94640F0E949C0E90E044
:101F6000809590952091610230E082239323892B04
:101F700081F40E94840F4F9760F40E94C00D882363
:101F800011F082E00895809160028823D1F381E00E
:101F9000089580E00E94270EF0CF1F93CF93DF9328
:101FA000EC0110E080916302181780F4812F0E94E9
:101FB000D90D8C179D0710F081E009C0812F0E9478
:101FC000FA0D8C179D07C0F71F5FECCF80E0DF9103
:101FD000CF911F9108951F93CF93DF93EC0110E0F1
:101FE00080916302181780F4812F0E94D90DC817C1
:101FF000D90710F081E009C0812F0E94FA0DC8179F
:10200000D907C0F71F5FECCF80E0DF91CF911F9120
:10201000089560916302662329F070E00E94A73E54
:10202000CB01089580E090E008950E9461130E9422
:102030006E2180E00E94660585E00E94E2370E94E2
:10204000FE2E88E00E94E23781E00C9466050E9433
:1020500061130E947C2186E00E94E2370E94FE2EDE
:1020600088E00C94E237E0916402F091650285917A
:10207000949110926602FC010994E0916402F0913F
:102080006502329685919491FC010994E091640275
:10209000F0916502349685919491FC010994CF9357
:1020A000DF931F92CDB7DEB7811109C00E94862051
:1020B0000E943D100E9494090E9427100FC0813099
:1020C00059F469830E9486200E943D106981611144
:1020D00005C00E94151002C081E001C080E00F9091
:1020E000DF91CF9108958F929F92AF92BF92CF923E
:1020F000DF92EF92FF920F931F93CF93DF93EC0148
:10210000A62E0E9433100E9468200E94232F0E9456
:102110006113D12C82E0C82EE12CF12CBB24B394A6
:1021200092E0992E882483940E94C137811106C0C1
:10213000FE01ED0DF11D84910E9482240E94EF1298
:10214000182F883051F40E94C0128111A3C08091D1
:102150006602823009F0A1C09DC080916602813084
:1021600021F4111102C090926602809166028230C1
:1021700009F05CC0FE01ED0DF11DE491E23031F09B
:10218000E330D1F1E13009F04EC03FC00E941F287A
:102190008823A9F0123019F46FEF7FEF04C01430D8
:1021A00071F461E070E083E792E00E94F71B6091B8
:1021B00078027091790281E090E00E94D4250E941B
:1021C000BD27882309F444C0123019F46FEF7FEF64
:1021D00005C0143009F03CC061E070E083E792E094
:1021E0000E94DE1B609176027091770241E081E0EF
:1021F00090E00E94FD252CC00E94BD27811150C097
:102200000E941F2881114CC023C0123019F46FEFB7
:102210007FEF04C01430E1F461E070E083E792E006
:102220000E94201C15C01092660212C0143049F49E
:10223000ED2DF0E03196EC0FFD1FE491E11148C067
:1022400007C0123029F4DD2019F00E944222DA94EE
:10225000BB2081F00E943E2FC82E6A2D0E944F1095
:10226000B82E882339F00E945208E816F906D1F5F5
:10227000B11003C0A11041C0B12C113009F054CFEE
:102280000E94C012882309F44FCF0E9486200E942A
:102290003D1033C01092660268CF8092660265CF0F
:1022A000123041F40AE020E030E048EE5DEF6FEFDD
:1022B0007FEF09C0143061F60AE020E030E048EE1C
:1022C0005DEF61E070E081E893E00E94912EC0CF65
:1022D00081E0C81203C081E00E9466050E9442228C
:1022E000D394B6CF0E9452087C010E944610C82E9B
:1022F0006A2D0E944F10B82EBBCF8C2DDF91CF914D
:102300001F910F91FF90EF90DF90CF90BF90AF9013
:102310009F908F90089560E087E692E00E94D11927
:1023200087FD0AC0811102C00C940535992787FDED
:10233000909501970C94852A089578940E946C05D5
:102340000E94933B0E940E280E9478280E947A0ADD
:102350000E94F53D0E9446356FEE71E08EED91E0F2
:102360000E94512188EE93E00E94F40780E00E94D1
:102370001D3B0E94C1168091B3039091B40307974F
:1023800010F40C94CA2108950E949D110E948B1193
:10239000FDCF6FEF71E087E692E00E94E31886E9D7
:1023A00090E09093680280936702EBE6F2E0808110
:1023B000805E80830895FC0124812052621710F40E
:1023C0000C94D618862F90E0821B91090E946A1BFC
:1023D0006EE00C94A414CF93DF93EC010E94591388
:1023E0008B819C810E94A1140E945D136A81888167
:1023F0009981DF91CF910C943914FC0187818F3141
:1024000018F48F5F8783089586818F5F8683089590
:10241000FC018781882319F0815087830895868184
:102420008150868308950F931F93CF93DF93FC0110
:10243000C681D0E06D2F80E00E94531310E11C0F85
:1024400001E00C0F8C2F0E94F214011711F0C02F25
:10245000F7CFDF5FD23011F0C12FECCFDF91CF91FA
:102460001F910F9108951F93CF93DF93EC018DEE91
:1024700090E00E9416181FEF8E81181721F0CE01F0
:102480000E9413121E818F81682F70E094E0759571
:1024900067959A95E1F78F700E9453130E94EF128F
:1024A000823049F0843019F0813049F413C0CE01F4
:1024B0000E94FD11E1CFCE010E940812DDCF8830CD
:1024C000D9F68D81E881F981E80FF11D8F819E8118
:1024D000890F8083DF91CF911F910895FC01718353
:1024E0006083428334832383158280E2868317824C
:1024F0000895CF93DF93EC018DEE90E00E941618C3
:102500000E946113CE010E94EB1161E08D810E9457
:1025100053130E94EF128230B1F0843041F08130C9
:10252000C1F48DEE90E00E940F1880E026C04D812E
:10253000242F30E08A8190E00197281739072CF783
:102540004F5F4D83E2CF8D818823F9F281508D83D7
:10255000DCCF8830D1F682E00E944213823048F00E
:1025600083E00E94E2378DEE90E00E940F1881E038
:1025700004C0CE010E943312C3CFDF91CF910895E2
:102580008091710208950C941205E0917102F0E0BF
:10259000EE0FFF1FE55FFD4F859194910895CF9356
:1025A000DF93D82F0E941205C82F8D1741F082E3C8
:1025B00090E00E9411080E941205DC2FF5CF1092C6
:1025C00071021092700280937202882319F080E0E9
:1025D0000E94EF3780917202DF91CF910895FF92B0
:1025E0000F931F93CF93DF93C0E0D0E0F12C0AEF5D
:1025F00010E040917102242F30E0F901EE0FFF1F2F
:10260000E95DFD4F65917491C8010E94A73E6F5F1F
:102610007F4FF901EE0FFF1FC617D707A8F40E94DE
:102620001205F82E81E090E00E941108809172025C
:10263000F81641F08F2DDF91CF911F910F91FF90F0
:102640000C94CF122196D5CFFF20A1F020917002DB
:102650002F5F20937002E75EFD4F8591949130E0EB
:102660002817390738F0463018F44F5F409371024D
:102670001092700280917202DF91CF911F910F91A1
:10268000FF900895CF93DF93D82FC09172020E94DC
:10269000EF12909171029D1711F08C17C1F3892FE1
:1026A000DF91CF910895462F682F8DEE90E00C9426
:1026B000DA1760E080E00C94531361E080E00C9442
:1026C00053138DEE90E00C94D317CF93DF93FC015E
:1026D000DB018C91882389F0C081D181488380817E
:1026E00091810196918380838C9181508C93882372
:1026F00021F00190F081E02D1082DF91CF910895BB
:10270000BF92CF92DF92EF92FF920F931F93CF93DE
:10271000DF93EC018B017A014115510501F1CA01EA
:102720000E940B3FF8019081B82E981708F4B92E3B
:10273000CB2CD12CA601B701888199810E94143F2E
:10274000288139812C0D3D1D39832883F801808132
:102750008B198083882319F0E881F9811082DF9139
:10276000CF911F910F91FF90EF90DF90CF90BF908E
:102770000895CF92DF92FF920F931F93CF93DF9331
:1027800000D0CDB7DEB76C018B01BA0180E090E0DC
:1027900049835A830E943F2EF82ED8018C9149819B
:1027A0005A818F1570F44FE3B801C6010F900F9056
:1027B000DF91CF911F910F91FF90DF90CF900C94FC
:1027C0006513F601208131812F0D311D3183208366
:1027D000D8018C918F198C93882321F00190F0817E
:1027E000E02D1082F9012AE030E0FF2069F0CA01F3
:1027F000B9010E94A73E405DBAE06B9F40191124C9
:102800004293FA94AB01F1CF0F900F90DF91CF91EB
:102810001F910F91FF90DF90CF9008950F931F931A
:10282000CF93DF93CDB7DEB72B970FB6F894DEBF0B
:102830000FBECDBF8E010F5F1F4F1A87098727E09C
:102840002B87AC01BE01655F7F4FCE0109960E94C8
:10285000B913B8018DEE90E00E94C6182B960FB602
:10286000F894DEBF0FBECDBFDF91CF911F910F91C6
:1028700008950F931F93CF93DF93CDB7DEB7619782
:102880000FB6F894DEBF0FBECDBF0097D1F0613117
:1028900008F060E1062F10E0A801BC01CE0101960E
:1028A0000E94233FE1E0F0E0EC0FFD1FE00FF11F7D
:1028B0001082BE016F5F7F4F8DEE90E00E94C618C0
:1028C00001C080E061960FB6F894DEBF0FBECDBFA9
:1028D000DF91CF911F910F9108950F931F93CF9385
:1028E000DF93CDB7DEB761970FB6F894DEBF0FBEAA
:1028F000CDBF0097D1F0613108F060E1062F10E004
:10290000A801BC01CE0101960E94143FE1E0F0E075
:10291000EC0FFD1FE00FF11F1082BE016F5F7F4FB4
:102920008DEE90E00E94C61801C080E061960FB65F
:10293000F894DEBF0FBECDBFDF91CF911F910F91F5
:10294000089560E10C946D14CF92DF92EF92FF92A4
:102950000F931F93CF93DF93CDB7DEB762970FB678
:10296000F894DEBF0FBECDBF009719F1613108F0BA
:1029700060E16C018E010F5F1F4F78018E2D801B6F
:10298000861768F4C6016A8B0E94423FF701819363
:102990007F01FFEFCF1ADF0A6A898111EFCFF801BB
:1029A000E60FF11D1082B8018DEE90E00E94C6186E
:1029B00001C080E062960FB6F894DEBF0FBECDBFB7
:1029C000DF91CF911F910F91FF90EF90DF90CF900B
:1029D0000895882319F08CE392E002C088E392E026
:1029E0000C94A114682F8DEE90E00C94A518CF9351
:1029F000DF93D82FC0E0CD1729F080E20E94F214B7
:102A0000CF5FF9CF8C2FDF91CF91089580E10C94A7
:102A1000F714CF93DF931F92CDB7DEB7682F6430E2
:102A20003CF080E269830E94F21469816150F7CF23
:102A300080E492E00F90DF91CF910C946D146AE0E6
:102A40000E949B3E80E3890F0C94F214DF92EF9278
:102A5000FF920F931F93CF93DF93EC01F62ED42EAA
:102A600016160CF089C068EE73E00E94A73E8B0139
:102A700080E090E00E943F2E24E0E22EE80EEF146A
:102A80002CF480E20E94F214FA94F9CFFE14E4F0E0
:102A9000D1101AC0BE0180E090E00E943F2E182F96
:102AA000FA941F1524F480E20E94F214F9CFCE01AB
:102AB0000E940E148DE6DF91CF911F910F91FF9030
:102AC000EF90DF900C94F2142E2D332727FD3095D4
:102AD000245031094F2D552747FD50954217530774
:102AE00054F48F2DDF91CF911F910F91FF90EF90B4
:102AF000DF900C940915C8010E940E14CE0168EEF7
:102B000073E00E94A73EEC011F2D1E1993E0F92EE1
:102B1000F10E84E0810F18161CF48EE20E94F2146C
:102B200002E0010F1F1444F4CE0164E670E00E943D
:102B3000A73E862F0E941F15CE0164E670E00E941A
:102B4000A73EEC011F5F10163CF46AE070E00E94A3
:102B5000A73E862F0E941F15111674F4CE016AE05D
:102B600070E00E94A73EDF91CF911F910F91FF90DF
:102B7000EF90DF900C941F15DF91CF911F910F9173
:102B8000FF90EF90DF900895EF92FF920F931F93C5
:102B9000CF93DF93EC01F62E16160CF059C064E6C5
:102BA00070E00E94A73E8B0180E090E00E943F2EE3
:102BB00033E0E32EE80EEF142CF480E20E94F214CE
:102BC000FA94F9CF2E2D332727FD30952350310964
:102BD0004F2D552747FD5095421753074CF48F2D25
:102BE000DF91CF911F910F91FF90EF900C940915F9
:102BF000C8010E940E14CE0164E670E00E94A73E58
:102C0000EC010F2D0E1912E0100F83E0800F181643
:102C10001CF48EE20E94F214FF24F394F00E1116BD
:102C200044F4CE016AE070E00E94A73E862F0E9425
:102C30001F151F146CF4CE016AE070E00E94A73EDD
:102C4000DF91CF911F910F91FF90EF900C941F1582
:102C5000DF91CF911F910F91FF90EF900895BF9258
:102C6000CF92DF92EF92FF920F931F93CF93DF9358
:102C70008C01D62EB42EC22E1616ACF52111DA9484
:102C8000B80180E090E00E943F2EC82FD0E0ED2CEC
:102C9000FF24E7FCF094CE15DF052CF48B2D0E9469
:102CA000F214DA94F4CFCC2019F08DE20E94F214E1
:102CB000EC16FD0664F48D2DDF91CF911F910F91DD
:102CC000FF90EF90DF90CF90BF900C940915C80152
:102CD000DF91CF911F910F91FF90EF90DF90CF90F8
:102CE000BF900C940E14DF91CF911F910F91FF9024
:102CF000EF90DF90CF90BF90089520E00C942F16B6
:102D0000CF93DF936CE370E00E94A73E9B01EC0140
:102D100040E363E0C9010E947D168AE30E94F21439
:102D200040E362E0CE01DF91CF910C947D1640E24A
:102D30000C947D16292F221F2227221F19F091950E
:102D40008195910940E20C942F16161634F46150C7
:102D50000E94C41583E40C94F2140895161634F4FA
:102D600061500E94971685E20C94F2140895633026
:102D70003CF062500E94971685E392E00C94A114F7
:102D80000895FF920F931F93CF93DF93CDB7DEB7D4
:102D900028970FB6F894DEBF0FBECDBF4EE0F42EDD
:102DA000F9821FE11A8301E10B830C830D830E83EB
:102DB0000F831887AE014F5F5F4F60E08DEE90E0AC
:102DC0000E941E18F9821A830B830C831D831E83B5
:102DD0001F831887AE014F5F5F4F61E08DEE90E07B
:102DE0000E941E18F9821A831B831C831D831E8375
:102DF0001F831887AE014F5F5F4F62E08DEE90E05A
:102E00000E941E1828960FB6F894DEBF0FBECDBFE5
:102E1000DF91CF911F910F91FF9008950F931F9312
:102E2000CF93DF93062F142F64E670E00E94A73E35
:102E3000EB0180E20E94F21480E20E94F214C43698
:102E4000D10548F480E20E94F214CA30D10518F48A
:102E500080E20E94F214CE010E940E14802F0E9484
:102E6000F214812F0E94F21480E2DF91CF911F9122
:102E70000F910C94F2140F931F93CF93C62F141637
:102E8000BCF56FEF640F0C2F10E00830110508F54A
:102E9000F801E65DFF4F0C94FC3E16E51BC040E2D6
:102EA00001C048E667E5CF911F910F910C940E1772
:102EB000642FCF911F910F910C94A51614EF07C0AA
:102EC0000E949A1685E50FC06EEF640F11E440E092
:102ED00002C015E541E00E942615812F0E94F214E0
:102EE000C53031F488E6CF911F910F910C94F21404
:102EF000CF911F910F910895462F65E00C943B17D9
:102F0000462F60E00C943B17462F61E00C943B1772
:102F1000462F66E00C943B17AC9881E090E00E944D
:102F2000633EAC9A81E090E00E94633EAC9884E6F8
:102F300090E00C94633EA39AA29AA19AA09A60FF93
:102F400002C0AB9A01C0AB9861FF02C0AA9A01C04F
:102F5000AA9862FF02C0A99A01C0A99863FF02C0A3
:102F6000A89A01C0A8980C948C171F93CF93DF9355
:102F7000EC01162F442311F0AD9A01C0AD98612FDA
:102F800070E084E0759567958A95E1F7CE010E941F
:102F90009B17612FCE01DF91CF911F910C949B174E
:102FA00040E00C94B51761E00E94D01780ED97E0E7
:102FB0000C94633ECF93DF93CDB7DEB728970FB65F
:102FC000F894DEBF0FBECDBF28E0E1E7F0E0DE0100
:102FD000119601900D922A95E1F7FC012481421788
:102FE00010F04FEF420FFE013196E40FF11DE40F98
:102FF000F11D2081260F2068622F28960FB6F894C5
:10300000DEBF0FBECDBFDF91CF910C94D017FC0176
:103010006181262F246021836C600C94D017FC0101
:1030200061816E7F618368600C94D017FC016181BF
:10303000262F2160218369600C94D017CF92DF92F4
:10304000EF92FF920F931F93CF93DF9300D0CDB7F2
:10305000DEB77C01677088E0689FB001112460646E
:10306000C70149835A830E94D0174981C42E5A81CF
:10307000D52E00E010E0F60161916F0141E0C7013B
:103080000E94B5170F5F1F4F08301105A1F70F9071
:103090000F90DF91CF911F910F91FF90EF90DF90F4
:1030A000CF900895CF93DF93EC01423018F08881E0
:1030B000886088834C831D82222329F0413019F4D3
:1030C00088818460888380E593EC0E94633EAD989C
:1030D000AC9863E0CE010E949B1784E991E10E94C5
:1030E000633E63E0CE010E949B1784E991E10E9458
:1030F000633E63E0CE010E949B1786E990E00E9448
:10310000633E62E0CE010E949B1768816062CE013F
:103110000E94D01784E08983CE010E940718CE0157
:103120000E94D31782E08A8366E0CE01DF91CF91BF
:103130000C94D017A59AA49AFC01108220E041E0DB
:1031400060E10C9452180C949A1841E00E94B51753
:1031500081E00895EF92FF920F931F93CF93DF9337
:103160008C01F42EC62FD72FE42EE60EEC1631F08C
:10317000699141E0C8010E94B517F8CF8F2DDF910A
:10318000CF911F910F91FF90EF90089561157105F8
:1031900059F0FB0101900020E9F7AF0141505109BE
:1031A000461B570B0C94AA1880E00895FC01278158
:1031B0008085E22FF82FE60FF11DE60FF11D8591B6
:1031C00094910C94A1140F931F93CF93DF93EC0170
:1031D0008B01CB010E94202E682FCE010E94461940
:1031E0008CE990E09983888318870F83DF91CF91D2
:1031F0001F910F910895DF92EF92FF920F931F930B
:10320000CF93DF93EC01F62E69871A8681E08D83D8
:1032100082E0D82EEE24E3948E01075F1F4F0E94B8
:10322000EF12482F823011F0843061F4E881F98187
:103230000280F381E02D6F2DCE010995F986DA86A3
:10324000ED8204C0813089F0883079F0C8010E9495
:10325000122F8111ED828D81882319F0CE010E94F9
:1032600073198A858F5F8A87DACF8FEF898781E02C
:103270008E838D83483009F080E0DF91CF911F91DC
:103280000F91FF90EF90DF9008950895FC0182EA7E
:1032900090E09183808312821382648381E085832E
:1032A00086830895FC012281211103C081E082837D
:1032B0000895438130E0240F311D848190E001970F
:1032C0002817390714F44F5F43830895FC01828166
:1032D000882319F08150828308958381882311F017
:1032E0008150838308951F93CF93DF93EC0110E007
:1032F000612F80E00E94531380E20E94F214E88163
:10330000F9816B81610F0190F081E02DCE0109956B
:103310000E9406151F5F123059F76A8180E00E94F3
:1033200053138EE30E94F2146A818FE00E945313BC
:103330008CE30E94F2141D82DF91CF911F910895BA
:103340000F931F93CF93DF93EC010E94EF12182F7E
:103350000E94C137882321F081E08D838FE71CC054
:103360000B818A81080F123031F0143039F4CE010C
:103370000E94521903C0CE010E9466198B819A8166
:10338000890F081711F081E08D838D81882319F052
:10339000CE010E947319812FDF91CF911F910F9160
:1033A0000895EF92FF921F93CF93DF931F92CDB7B3
:1033B000DEB77C0181E0F701858311E0C7016983F5
:1033C0000E94A0196981811102C0F7011682F701DC
:1033D0009681911108C0883031F481E08683838121
:1033E0009281890F09C0662311F0F701158381309E
:1033F00029F79111E3CF8FEF0F90DF91CF911F91BC
:10340000FF90EF9008950F931F93CF93DF93EC01FC
:103410008B0150E00E94B9134AE3B801CE01DF915D
:10342000CF911F910F910C946513EF92FF920F9320
:103430001F93CF93DF9300D01F92CDB7DEB78C01DF
:10344000462F0B969A8389838EE08B83D801EC916B
:10345000F0E0EE0FFF1FE55AFD4FE590F490BE013E
:103460006D5F7F4FCE0101960E94031AA701BE0136
:103470006D5F7F4FCE0101960E94801340E2BE0136
:103480006D5F7F4FCE0101960E946513F801418167
:103490005281BE016D5F7F4FCE0101960E94B9132C
:1034A0004FE2BE016D5F7F4FCE0101960E94651312
:1034B000D80117964D915C911897BE016D5F7F4FB3
:1034C000CE0101960E94B9130F900F900F90DF91DB
:1034D000CF911F910F91FF90EF900895CF93DF93BD
:1034E00000D01F92CDB7DEB7462F2EE02B830B9670
:1034F0009A838983BE016D5F7F4FCE0101960E9442
:10350000031A0F900F900F90DF91CF91089529E14A
:10351000289FB001299F700D11246E567F4F49E1FD
:1035200050E083E792E00C94323F29E1289FB001FC
:10353000299F700D11246E567F4F49E150E083E7BB
:1035400092E00C94503FDC01EC91B6E0EB9FF0016F
:103550001124E60FF11DEE0FFF1FE15FFC4F859177
:1035600094910895DC01EC9146E0E49FF001112470
:10357000E60FF11DEE0FFF1FE15FFC4F8591949167
:1035800017962D913C911897AC01429FC001439F23
:10359000900D529F900D11240895FC01A181B281DC
:1035A0002091A3033091A4030E946A3E24E630E0F8
:1035B00040E050E00E94BB3E293EFDEF3F07410541
:1035C000510520F028EE3DEF40E050E0C90108959C
:1035D000FC012081213029F42091990330919A0334
:1035E00009C0223029F4209197033091980302C03A
:1035F00020E030E0FC0187819085AC01249FC00170
:10360000259F900D349F900D112408958091930370
:10361000909194030895FC016081FBE06F9FB001DD
:1036200011246F557D4F4BE050E00C94023FDC01BC
:10363000EC91F0E0EE0FFF1FE55AFD4F859194915C
:103640000C946D1460E170E00C94171BCF93DF9322
:10365000EC01888160E0811108C0CE010E94B21A9D
:1036600067E00E94841787E011C0CE010E94B21A61
:1036700065E00E9484178FE20E94F2148F81988582
:103680000E940E1483E40E94F21488E0DF91CF912F
:10369000089566E0FC01838194810E94801786E092
:1036A000089566E0FC01858196810E94801786E07E
:1036B0000895FC0181819281883EFDEF9F0729F4E6
:1036C00081E592E00E94A11403C067E00E947C178C
:1036D00088E0089529E1AC01249FC001259F900D49
:1036E000112483569F4F08950F931F93CF93DF9319
:1036F000CDB7DEB7A6970FB6F894DEBF0FBECDBF2D
:103700008C01AB01BC01CE0101960E94FB1CCE01D5
:1037100001960E94801D89E1FE013C96D80101902E
:103720000D928A95E1F7A6960FB6F894DEBF0FBE0C
:10373000CDBFDF91CF911F910F910895FC012081A2
:10374000260F2A3040F0161617061CF4FC011082D2
:1037500003C029E0FC0120830C940B1B61E00E9454
:10376000B21A9C0140E050E060E074EB84EC94E01D
:103770000E94BB3E29358BE138074105510520F0F9
:1037800028E53BE140E050E0C901089561E00E9476
:10379000B21A9C0140E050E060E47BE48CE490E0ED
:1037A0000E94BB3E213D87E038074105510520F0CE
:1037B00020ED37E040E050E0C90108950F931F93DA
:1037C000CF93DF9300D0CDB7DEB78C0169837A83C6
:1037D0000E94AE1BAC0169817A81C80103960F90EB
:1037E0000F90DF91CF911F910F910C94F62E0F93B4
:1037F0001F93CF93DF9300D0CDB7DEB78C016983E1
:103800007A830E94C61BAC0169817A81C801059642
:103810000F900F90DF91CF911F910F910C94F62E86
:10382000DC01EC91BCE0EB9FF0011124EF5EFC4F5A
:103830006591749184EF95E60E94A73ECB010895AF
:10384000EF92FF920F93CF93DF9300D0CDB7DEB707
:103850007C0169837A830E94101CF70120816981B1
:103860007A81211103C022E330E002C020E030E081
:1038700001E0AC01C70107960E94912E0F900F90B6
:10388000DF91CF910F91FF90EF900895CF93DF9349
:10389000EC010E94101C2F8138858217930710F4C9
:1038A00098878F83CE010E94AE1B2B813C818217AB
:1038B000930710F49C838B83CE010E94C61B2D813D
:1038C0003E818217930710F49E838D83DF91CF9101
:1038D00008950F93CF93DF93EC0104E620E030E0EE
:1038E00048EE5DEF01960E94912E89819A819C831A
:1038F0008B832881233039F49C01369527953695A2
:1039000027953C832B839E838D83CE01DF91CF91BE
:103910000F910C94461C0F931F93CF93DF934BE0B2
:1039200050E063EE72E083E792E00E94023F83E79B
:1039300092E00E94461CC0E0D0E08E010F5F1F4F56
:10394000B80183E792E00E946E1ACE010E94951A98
:103950000032110511F0E801F0CFDF91CF911F91F6
:103960000F910895FC01818592850895FC01818560
:103970009285883EF3E09F0719F489E492E004C041
:103980000E940E1484E492E00E94A11486E008953F
:103990000F9301E020E030E048EE53E009960E94EA
:1039A000912E0F910895262F443019F06FEF7FEF7D
:1039B00002C061E070E0223091F028F4222349F047
:1039C000213051F00895243081F060F0253081F0ED
:1039D00008950B960C949E1B0B960C94201C0B9632
:1039E0000C94691C0B960C94DE1B0B960C94F71B25
:1039F0000B960C94C81CEF92FF920F931F93CF93DA
:103A0000DF93EC018B017A0168E973E00E94E3180F
:103A10008FEF898788EA90E09983888389E1F801AC
:103A2000DE011B9601900D928A95E1F7FDA2ECA2B2
:103A3000DF91CF911F910F91FF90EF9008950F9319
:103A40001F93CF93DF93CDB7DEB728970FB6F894C7
:103A5000DEBF0FBECDBF8C01BC016A5E7F4F2DE87B
:103A600033E04EE050E0CE0101960E946E12CE018E
:103A700001960E94791281E0F801858328960FB69D
:103A8000F894DEBF0FBECDBFDF91CF911F910F9194
:103A90000895CF93DF93EC010E9461130E945913A4
:103AA00087E893E00E94A1140E945D136EE0CE01AE
:103AB00046960E9439140E94FE2E83E0DF91CF913A
:103AC0000C94E237CF93DF93EC016CA17DA16F5F83
:103AD0007F4F0B960E94151ACE01DF91CF910C9467
:103AE000491DCF93DF93EC016CA17DA16F5F7F4FE8
:103AF0000B960E946E1ACE01DF91CF910C94491D56
:103B0000DF92EF92FF920F931F93CF93DF93CDB786
:103B1000DEB769970FB6F894DEBF0FBECDBF8C013C
:103B200089E1D82EC8010B967C0160E0C8010E9493
:103B3000D11987FD30C0873041F0883051F0863090
:103B400061F4C8010E94621DF0CFC8010E941F1DD0
:103B5000ECCFC8010E94711DE8CFF701DE0111967C
:103B60009D2D01900D929A95E1F7682FC8010E9452
:103B7000FB18811109C0FE013196D7018D2D0190EE
:103B80000D928A95E1F7D1CF83E00E94E237C70119
:103B90000E94461CCACF69960FB6F894DEBF0FBECE
:103BA000CDBFDF91CF911F910F91FF90EF90DF90EC
:103BB00008951F93CF93DF93EC01162F0E94D61820
:103BC000CE0109960E94072F882311F0298501C094
:103BD0002FEF332727FD3095812F90E028173907E5
:103BE00049F11230C9F048F4112389F0113011F570
:103BF000CE010B960E94261B1DC01430B9F088F030
:103C00001530C1F4CE010B960E94B61C13C0CE0134
:103C10000B960E94221B0EC0CE010B960E94591BD0
:103C200009C0CE010B960E94491B04C0CE010B9621
:103C30000E94511B80E0DF91CF911F9108950F9357
:103C40001F93CF93DF9300D0CDB7DEB789839A83DC
:103C50000E94591389819A810E94A1140E945D13C8
:103C60000091160310911703C8010E940B3F892B86
:103C700019F0C8010E94A1140F900F90DF91CF910D
:103C80001F910F910C94061580918F0390919003D2
:103C9000892BA1F08DE10E943A0865E02AE0AC0191
:103CA000249FC001259F900D11240E949A168DE635
:103CB0000E94F21483E40E94F21404C087E594E0A9
:103CC0000E94A1140C9406158BE10E943A0865E04D
:103CD0000E949A168DE60E94F21486E50E94F21464
:103CE0000C94061590E0880F991F62E08A519B4F53
:103CF0000C946D140F931F93CF93DF9361E083E7D0
:103D000092E00E94B21A8C0165E083E792E00E9483
:103D1000B21AEC0184E10E943A0880179107B8F4C6
:103D2000C817D907B0F49C012C1B3D0BC8018C1B94
:103D30009D0B64E670E00E94A73EC9010E94A73E69
:103D40006436710510F063E670E0862F03C083E6E9
:103D500001C080E0DF91CF911F910F9108956130F4
:103D600011F40C94FA0D0C941D2CCF93DF93D82FE3
:103D7000C62F8FE18D0F0E94870A882351F06C2F88
:103D80008D2F0E94AF1E46E06C2FDF91CF910C94D7
:103D90003B178FED94E0DF91CF910C94A114FF922B
:103DA0000F931F93CF93DF93182F062F0E94591361
:103DB0008091C302882319F01092C30203C081E0EE
:103DC0008093C3029091C1028091C202992311F0A5
:103DD0008F5F01C081508093C2028091C202863001
:103DE0001CF01092C10205C082301CF481E0809367
:103DF000C10210928D020E94C00D811108C083E0A3
:103E000090E00E94D10E882341F0C0E209C0809169
:103E10004702882321F0C2E403C0CDE601C0C2E618
:103E200080916102811103C08C2F0E94F214809155
:103E30006102882331F1D0E0C1E00E94BD0DD817A6
:103E4000D0F480916202D81761F0809161028C23D6
:103E500031F08091C302882321F082E003C081E029
:103E600001C080E00E94F214C03811F0CC0F01C0F4
:103E7000C0E0DF5FE2CF0E94BD0D98E0981B892F64
:103E800025C08091C102882319F04EE3F42E02C0B0
:103E90003CE3F32ECD3611F0C032B9F4C1E0D0E0EE
:103EA0002091C202332727FD30952C173D0711F4CE
:103EB0008F2D01C080E20E94F2142196C730D105F7
:103EC00079F780E20E94F21403C087E00E94F714A1
:103ED000C1E0C10F8C2F0E941F1511110AC00E9452
:103EE0001928882331F00E942828892B11F08FE3AC
:103EF00001C08AE30E94F214602F812F0E94B51E38
:103F00000E9406150E945D13C630C8F4D2E0D10F9E
:103F10008D2F0E941F158AE30E94F214602F8C2FB0
:103F20000E94B51ED63059F083E0810F0E941F1504
:103F30008AE30E94F214602F8D2F0E94B51EDF913C
:103F4000CF911F910F91FF900C94061589E10E946B
:103F50003A0868E00E947C1780E20C94F2140E94F8
:103F6000591320916602809181039091820322303F
:103F700031F466E00E94971684ED94E005C065E098
:103F80000E94971680ED94E00E94A11480E20E94A6
:103F9000F2140E94062C67E00E9480170E9406150A
:103FA0000E945D1387EC94E00E94A11467E0809169
:103FB000790390917A030E9484170C9406150F934D
:103FC0001F936091CE027091CF028091D0029091A8
:103FD000D10220918C02222371F00E94ED07009102
:103FE000CE021091CF022091D0023091D102601BFD
:103FF000710B820B930B28EE33E040E050E00E94FF
:10400000BB3EC9011F910F910895CF930E94B7271E
:10401000811110C00E941928882331F00E94B7270F
:1040200081110AC0C4E40BC00E94C00D811106C0FA
:10403000CEE405C0C3E403C0C5E401C0C2E40E94ED
:10404000A7278111C7E58C2F0E94F21480E20E94FD
:10405000F2140E94DF1F0E94801680E2CF910C9420
:10406000F2140E945913809166028230F9F40E9482
:104070001F28882359F066E0809178029091790298
:104080000E9497168BED94E00E94A1140E94BD2718
:10409000882371F066E080917602909177020E9409
:1040A000971687ED94E00E94A11402C00E94A61FFB
:1040B00067E087E10E94B60A0E9406150E945D1320
:1040C0000E94052067E084E10E94B60A0C94061560
:1040D0000E94ED076093CE027093CF028093D002CE
:1040E0009093D1021092CA021092CB021092CC028D
:1040F0001092CD021092C6021092C7021092C8020E
:104100001092C90281E080938C0208950F931F934F
:104110000E94ED070091CE021091CF022091D002B3
:104120003091D102601B710B820B930B6093CE0216
:104130007093CF028093D0029093D10210928C02A0
:104140001F910F910895CF92DF92EF92FF920E94FC
:1041500059138CEB94E00E94A1140E94DF1F0E946F
:1041600080160E945D1389EB94E00E94A114609177
:10417000CA027091CB028091CC029091CD0258EE90
:10418000C52E53E0D52EE12CF12CA70196010E94FB
:10419000BB3EC9010E94801686EB94E00E94A114E8
:1041A0006091C6027091C7028091C8029091C902C5
:1041B000A70196010E94BB3EC901FF90EF90DF90DE
:1041C000CF900C9480160E9459138DEA94E00E94BF
:1041D000A1140E94272C68E00E9488170E940615EF
:1041E0000E945D1383E10E94870A882349F084EAD4
:1041F00094E00E94A1140E942D2C68E00E94881770
:104200000C9406150E9459138CE994E00E94A114A5
:1042100067E086E00E94B60A0E9406150E945D13C0
:1042200084E994E00E94A11447E061E08091A50335
:104230009091A6030E943B170C9406150E945913F7
:104240008DE894E00E94A11467E082E10E94B60A22
:104250000E9406150E945D1386E894E00E94A11456
:1042600067E083E10E94B60A0C9406150E94591378
:1042700080E894E00E94A11480918F0390919003B4
:10428000892B29F065E087E00E94B60A04C08EE71A
:1042900094E00E94A1140E9406150E945D130C94E4
:1042A00006150F931F93CF93DF9300D0CDB7DEB7E2
:1042B0008B0189839A830E9461130E94591389811B
:1042C0009A810E94A1140E945D13C8010F900F9063
:1042D000DF91CF911F910F910C94A1148DE694E082
:1042E0000E941F1E0E945D1386E694E00E94A114A6
:1042F0000E94DF1F0C9480168FE594E00C941F1E23
:104300000E9459130E94A61F0E94441E0E945D1322
:104310000E9405200C94641E0E9459138EE494E0C0
:104320000E94A11467E08CE10E94B60A0E94061563
:104330000E945D1384E494E00E94A1140C94641E16
:104340000E9459138EE394E00E94A11480918F0380
:1043500090919003892B31F00E94570869E00E94E8
:10436000A51604C08AE394E00E94A1140E940615D9
:104370000E945D1380E394E00E94A1140C94441EFB
:1043800060E070E08CE294E00C9451210E94C02126
:104390000C94FE2E60E070E080E294E00E945121D7
:1043A00088E893E10C94F40760E070E08FE094E01B
:1043B0000C9451216091C6027091C7028091C8028D
:1043C0009091C90220E63AEE40E050E00E94BB3EE8
:1043D000C9010895CF93DF938091C0028F5F84302D
:1043E00018F48093C00202C01092C0028091C002F3
:1043F000833061F4C0916C00CF5FC0936C000E9469
:1044000084298C1718F481E080936C00C0916C00B3
:10441000C1500E94591380916C0061E090E00E94AD
:10442000971680E00E94F214D0E0CC0FDD1FFE0151
:10443000E057FD4F808191810E94801681E00E94AB
:10444000F71482E00E94F214FE01E656FD4F8081CF
:1044500091810E9480160E9406150E945D13FE0144
:10446000EC55FD4F68E0808191810E947C17C25518
:10447000DD4F68E0888199810E947C17DF91CF91A0
:104480000C940615CF93DF93C0E0DFE061E08D2F41
:104490008C1B0E9453138FEF0E94F21460E08C2F4C
:1044A0000E9453138FEF0E94F2148AE090E00E9462
:1044B000F407CF5FC03151F78AE090E0DF91CF91F0
:1044C0000C94F407CF93C82F0E9461130E945913D4
:1044D0008FEE93E00E94A11462E08C2F90E00E9486
:1044E000971680E49FE1CF910C94F4071092BD02DF
:1044F0001092BC021092BB021092BA028091BE02CE
:104500008093BF021092B9021092B8020895CF931F
:10451000DF9327E630E08AE992E0C0E9D2E0AEEA34
:10452000B2E064EA72E045E05DE2F90151939F0177
:10453000FC0111921192CF01199219921D921D92B4
:10454000FB0111921192BF01415079F7DF91CF9198
:104550000895CF930E9476220E9487220E945913C9
:1045600064E070E083E792E00E94171B809166028E
:10457000823011F48EE301C080E20E94F21483E7DE
:1045800092E00E94261B80916602823011F48CE337
:1045900001C080E20E94F214809118030E94721EF2
:1045A0000E945D130E947A1E8093BE0262E090E03A
:1045B0000E9497168CE094E00E94A11484EC92E093
:1045C0000E94072F882319F0C091C40201C0CFEFC9
:1045D000C0FF05C065E082E10E94B60A03C085E025
:1045E0000E94F71480E20E94F214809173028450BA
:1045F0008630A8F4C1FF05C065E083E10E94B60AD9
:1046000003C085E00E94F714C2FF05C00E94A60AFD
:10461000CF910C941F1580E2CF910C94F21466E0B8
:1046200080917402909175020E947C17CF910C9436
:1046300006150E947A1E8093BE029091BF029817C1
:1046400028F58093BF020E94DF1F2091BA023091AB
:10465000BB02821B930B9093BD028093BC020E940D
:10466000DF1F9093BB028093BA028091BC029091AD
:10467000BD022091B8023091B9022817390710F015
:10468000232B21F49093B9028093B8020895CF931D
:10469000DF930E9419230E94A60A811128C083E19A
:1046A0000E943A08EC0182E10E943A08C817D90733
:1046B00028F49C012C1B3D0BE90102C0C81BD90B3F
:1046C000C53FD140A0F024E630E08091BF02281B16
:1046D00031094091B8025091B902249FC001259F31
:1046E000900D349F900D1124DF91CF91089529E60C
:1046F000EBCFFF920F931F93CF93DF930E948429F8
:10470000FF24FA94F80E0E948729833429F50F2D8F
:10471000112707FD1095F801E959FF4F8083000F1D
:10472000111FE801C656DD4F6091C6027091C702A5
:104730008091C8029091C90228EE33E040E050E039
:104740000E94BB3E3983288389E10E943A08F80120
:10475000E255FD4F918380830E948729843429F597
:10476000CF2DDD27C7FDD095FE01E959FF4F80838E
:10477000CC0FDD1F8E0100571D4F6091C602709156
:10478000C7028091C8029091C90228EE33E040E050
:1047900050E00E94BB3EF8013183208389E10E94F2
:1047A0003A08CC55DD4F99838883DF91CF911F91D3
:1047B0000F91FF9008950E94BD2781112FC00E9484
:1047C0001F2881112BC00E94C00D8823A1F0809169
:1047D000CA029091CB02A091CC02B091CD02805937
:1047E0009F4FAF4FBF4F8093CA029093CB02A093CD
:1047F000CC02B093CD020E9479230E94472390936C
:104800008F0280938E028091C0028F5F893218F4EC
:104810008093C00208951092C00208958091C6024C
:104820009091C702A091C802B091C90280599F4FD0
:10483000AF4FBF4F8093C6029093C702A093C802A8
:10484000B093C902C0CF81E09091C002953108F0C9
:1048500080E008950E9419230E9423248823B9F040
:104860000E9459130E94A61F67E087E10E94B60AC2
:104870000E9406150E945D130E9405208AE094E0C4
:104880000E94A1140E94B72781111CC02FC00E9452
:10489000591368E088E10E94B60A88E094E00E941B
:1048A000A11467E087E10E94B60A0E9406150E94E3
:1048B0005D1368E08AE10E94B60A85E094E00E94F8
:1048C000A11414C08091BE02833680F48091B80296
:1048D0009091B902459730F080918E0290918F02AD
:1048E0000C9480168EEF93E00C94A1148091BE027C
:1048F00064E090E00E9497168CEF93E00E94A11470
:104900000C9406159091C5029F5F9093C50290E0AC
:10491000FC013197E331F10570F5EE5CFF4F0C942B
:10492000FC3E0C9431200C94AF1F0C94A3200C94EB
:10493000362161E007C061E083E00C94CF1E61E0A6
:1049400006C066E080E0F9CF66E0F6CF66E086E07C
:10495000F4CF0C94A9220C94E3200C941E210C9407
:1049600002210C942A240C948C210C94A0210C94E8
:1049700080210C94EA2108958FEF8093C40208955A
:104980000F931F93CF93DF930E94E527C091760288
:10499000D091770261E083E792E00E94B21A8C0125
:1049A000CE0165E070E00E94A73E8FE00E94160AEB
:1049B000EC0140E0BC01C8010E94512C8FE00E9434
:1049C0007D2CCE01DF91CF911F910F910C94CB27BD
:1049D00081E00C94F7270E94E408882321F00E94CC
:1049E000C6270C94242D08951092D2020C94C02452
:1049F000CF93DF930E94EB240E94DA08EC018091B0
:104A0000D202811111C062E083E792E00E94B21AE3
:104A10008C179D0748F481E08093D2028091760242
:104A2000909177020E94DF270E94E408882381F09A
:104A300064E083E792E00E94B21A8C179D0740F46D
:104A400081E195E0909317038093160381E030C0D5
:104A50000E945C08029758F180919503909196030B
:104A6000892B89F08BE10E943A08EC0183E792E000
:104A70000E94E81AD195C195D1098C179D071CF4A5
:104A80008DE095E0DFCF80918F0390919003892B8B
:104A900071F08DE10E943A08EC0183E792E00E94F8
:104AA000061B8C179D071CF487E095E0CBCF82E0B6
:104AB000DF91CF9108958130910521F09093D40238
:104AC0008093D3027093D6026093D50208950F931A
:104AD0001F93CF93DF93C091D302D091D402CE0124
:104AE0000E9409108C010E94DA08C817D90738F40F
:104AF000C801DF91CF911F910F910C94EB0F81E0D2
:104B0000DF91CF911F910F91089581E00E94652858
:104B10000C94970E0E9457280E944D0E21E0809120
:104B2000A9039091AA03892B09F420E02093D702CE
:104B300080E10C947D2C0F931F93CF93DF930E9401
:104B40006725182F0E942828EC010E94E40888237A
:104B500011F001E001C0012F8091D702882329F0D4
:104B6000BE01812F0E94D52C01C0812F882329F0FE
:104B700081E00E94652881E00CC0002349F0BE015D
:104B8000812F0E94F12D8C179D0711F00E9444285F
:104B900082E0DF91CF911F910F910895BC0180E1D8
:104BA0000E94160A0C94F02B0F931F93CF93DF9360
:104BB0008C01EB010E945B25BE0180E10E94160A78
:104BC00040E0BC01C8010E94512CCE016AE070E0B7
:104BD0000E94A73ECB01DF91CF911F910F910C94C2
:104BE000CE2581E00E94F7270C94970E0E944D0E6F
:104BF0000E94E5278FE00C947D2C0F931F93CF9399
:104C0000DF931F92CDB7DEB78C018FE049830E94FE
:104C1000160A4981BC01C8010F90DF91CF911F9105
:104C20000F910C94512C0F931F93CF93DF93C0914E
:104C30007903D0917A03CE010E9409108C010E9461
:104C4000DA088C179D0738F4C801DF91CF911F91C6
:104C50000F910C94CD0F81E0DF91CF911F910F91B7
:104C600008951F93CF93DF930E941326182F0E945D
:104C7000C627EC01BC01812F0E94D52C882329F086
:104C800081E00E94F72781E019C00E94E4088111A9
:104C900007C0111105C0CE010E940E2C882369F0B7
:104CA0000E94C00D811109C0BE01812F0E94F12D0B
:104CB0008C179D0711F00E94CB2782E0DF91CF91E6
:104CC0001F9108950E94F1250E9485250C94970E4E
:104CD000CF93DF931F92CDB7DEB79091D902913079
:104CE00039F018F0923039F00FC00E9431260CC014
:104CF0000E949B2509C00E949E0F823089F0898303
:104D00000E94622689810CC0813051F49091D802B2
:104D1000992331F082E08093D9020E944D0E82E007
:104D20000F90DF91CF9108950E944D0E8091DE0289
:104D30009091DF020E9409100E94EB0F2091DE0289
:104D40003091DF02882369F06091DC027091DD020E
:104D500040E0C9010E94FD250E94F6251092D9026B
:104D600008956091DA027091DB02C9010E94D42596
:104D70000E948A2581E08093D7028093D90208950A
:104D80008093D80208959093DF028093DE0270939F
:104D9000DD026093DC025093DB024093DA02089557
:104DA00087E08093C40282E08093C5020E94DB37D3
:104DB00083E08093E10208950F931F93CF93DF93D5
:104DC0008091E002882379F00E94A60A90917A02ED
:104DD00001E0981301C000E011E0811110E0913072
:104DE00021F4112311F010E000E083E10E94870A12
:104DF000882309F45CC083E10E943A08EC0182E157
:104E00000E943A08C817D90728F49C012C1B3D0BB7
:104E1000E90102C0C81BD90BC53FD14008F447C007
:104E2000C1E0011102C087E001C083E08093C402A9
:104E3000112329F08091C40282508093C402CC23B4
:104E400029F08091C40281508093C402011104C0F2
:104E5000111102C0CC2331F081E00E94E237111120
:104E600007C004C088E00E94E23708C0002331F088
:104E70008091AB039091AC03892B11F4D0E001C079
:104E8000D1E00E94C312811102C01092E102D1113F
:104E900006C0C11104C00E94C312883051F0809135
:104EA000E102823011F481E00AC082E008C0C0E073
:104EB000B8CF8091E1028F5F8093E102F0CFDF9164
:104EC000CF911F910F9108958FEF8093C40288E0D6
:104ED0000C94E2378093E00208951092E80208955E
:104EE0000E94ED0728EE33E040E050E00E94BB3E18
:104EF0002093E4023093E5024093E6025093E702E8
:104F000008950E94ED0728EE33E040E050E00E9453
:104F1000BB3E6091E2027091E3028091E4029091C5
:104F2000E502A091E602B091E702860F971FA11D4E
:104F3000B11D82179307A407B50728F081E080937D
:104F4000E80282E008951092E80281E008958091DD
:104F5000E80208952CE3AC01249FC001259F900D29
:104F600011249093E3028093E2020C94702781E075
:104F70009091EB02911180E0089581E02091E90287
:104F80003091EA02232B09F480E008958091E90230
:104F90009091EA02089520916E00223041F0209114
:104FA000B5033091B6032817390708F4C901909367
:104FB000EA028093E9020E9412060C946109BC0186
:104FC0008FE00E94160A0C94CB278091EB02882375
:104FD00069F01092EA021092E90280E090E00E94EB
:104FE000CB2781E00E9431061092EB020895CF9307
:104FF000C82F8091EB0281110FC0CC2369F080E0B3
:1050000090E00E94CB271092EA021092E90280E021
:105010000E943106C093EB02CF9108951092EA02EC
:105020001092E90280E090E00E94CB2781E00C948E
:10503000F72781E09091F002911180E0089581E0DE
:105040002091EE023091EF02232B09F480E00895C5
:105050008091EE029091EF020895482F8091EC022A
:105060009091ED022091EE023091EF0282179307AA
:1050700011F4442341F09093EF028093EE020E94DA
:10508000D7060C946109089520916E00223041F0FA
:105090002091B7033091B8032817390708F4C901E4
:1050A0009093ED028093EC0281E00C942D28809186
:1050B000F002882349F080E090E00E94442881E0DB
:1050C0000E9428061092F0020895CF93C82F809175
:1050D000F00281110BC0CC2349F080E090E00E94E7
:1050E000442880E00E942806C093F002CF910895E2
:1050F00080E090E00E94442881E00C9465280895A7
:1051000080917302893051F09CEF980F963048F0EF
:105110008150823048F483E093E008958AEF92E072
:1051200008958CE093E0089581EF92E0089581E383
:1051300095E090936502809364029091730294507D
:1051400081E0963008F080E00E946A2761E084EFF9
:1051500095E00E94731091E0813009F090E0892F72
:1051600008950F931F93CF93DF930E94C026009161
:10517000780210917902C0917602D091770263E0B3
:1051800083E792E00E94B21AA801BE010E94C326E2
:105190008BE295E0909365028093640260E08AEF71
:1051A00095E0DF91CF911F910F910C9473101F9395
:1051B000CF93DF93162FC0917602D091770261E0F2
:1051C00083E792E00E94B21A40E0BE010E94FD25F2
:1051D00085E295E09093650280936402612F8AE1F5
:1051E00096E0DF91CF911F910C9473101F93CF9392
:1051F000DF93182FC0917602D091770261E083E7A8
:1052000092E00E94B21A41E0BE010E94FD2525E213
:1052100035E03093650220936402612F8AE196E0C5
:10522000DF91CF911F910C94731029E135E03093F9
:10523000650220936402682F83E396E00C94731058
:10524000CF93C82F62E083E792E00E94B21A609188
:10525000780270917902A0917A02B0917B02E0917C
:10526000A703F091A803AE9F9001AF9F300DBE9FA2
:10527000300D1124820F931F0E94D4252FE135E0B9
:1052800030936502209364026C2F86E096E0CF9104
:105290000C9473101F93CF93DF93182FC091780253
:1052A000D091790262E083E792E00E94B21ABE01D7
:1052B0000E94D4252FE135E03093650220936402EB
:1052C000612F88E296E0DF91CF911F910C947310CB
:1052D00088ED91E0909365028093640260E084E140
:1052E00096E00C94731080919D0390919E030E9410
:1052F000AA2787E395E0909365028093640261E0BA
:1053000086E096E00C9473108091150308958091C7
:105310006D000895813019F481E00C9420298111E9
:1053200003C081E00C944A298230B1F380E00895F3
:105330004091150350E020919B0330919C0342174C
:10534000530789F0813041F42091AB033091AC03D5
:10535000232BD9F0862F10C0811102C0862F10C0D8
:105360008230C9F412C0813049F48091AB0390912E
:10537000AC03892B49F080E00C94F628811102C01F
:105380000C941529823039F460E08091A10390914A
:10539000A2030C94D72880E008950F931F93CF9316
:1053A000DF93C82F81E08093150314E4D7E503E46D
:1053B0004091150350E020919B0330919C032417EA
:1053C0003507E8F10E94B30D10936D008C2F0E94F9
:1053D0008A298130A9F5D0936D000E94732981300C
:1053E00079F50E9476220E94B30D00936D004091E2
:1053F000150350E020919B0330919C034217530703
:1054000011F061E001C060E08C2F0E94982981308A
:10541000B9F4D0936D004091150350E020919B03A7
:1054200030919C034217530721F00E947329813069
:1054300039F4809115038F5F80931503B9CF81E014
:10544000DF91CF911F910F910895CF93C82F809333
:1054500018032DE335E030931703209316038F30A4
:1054600030F4E82FF0E0E455FF4F808101C080E088
:1054700080936E000E94E4380E9485090E9497285C
:105480008823F1F184E00E94E2378C2F90E08F3086
:105490009105A0F5FC01EB5BFF4F0C94FC3E60E036
:1054A0008091A1039091A2030AC00E94682928C09C
:1054B00080E00E94202924C060E085E090E00E9406
:1054C000D7281EC060E080E002C060E081E00E945A
:1054D000B12816C080E00E94152912C080E00E9409
:1054E0004A290EC081E003C080E001C082E00E9432
:1054F000CD2906C080E00E94F62802C00E94C62185
:105500000E949409CF910C94F4380F931F93CF937A
:10551000DF93EC010E94871A0E9480288C0160E0D2
:10552000C8010E94D11987FD29C090917302E82F0C
:10553000FF27E7FDF095993019F4E35AFA4F0FC0B1
:105540008CEF890F863018F4EC58FA4F08C0915050
:10555000923018F4E15BFA4F02C0E25CFA4F84919A
:105560008F3049F4BE0183E792E00E94741BCE01A4
:105570000E94951AD1CF0E94252AD1CFDF91CF91D9
:105580001F910F9108956DE775E08CE093E00E9404
:10559000E31863E575E083E093E00E94E31864E6B6
:1055A00075E08AEF92E00E94E31863E475E081EF12
:1055B00092E00C94E318FC0142815381411551059E
:1055C00091F0A081B181B7FF03C0B195A195B10958
:1055D00028EE33E00E94793E9A0140E050E00E94BC
:1055E000BB3EC901089580E090E008950F931F939A
:1055F000CF93DF9300D000D0CDB7DEB78C01862FDC
:10560000F801628173810E94B2099C838B83F80147
:10561000808191819A838983CE0101960E94DB2A41
:105620000F900F900F900F90DF91CF911F910F91DE
:1056300008950F93FC01CB01002341F04617570753
:1056400008F4CA016417750748F407C064177507A2
:1056500008F4CA014617570708F4BA0197838683EE
:10566000918380831382128215821482338722876A
:10567000681B790B718760870F910895FC019B016E
:1056800040E050E086819781281B390B4109510980
:10569000A285B3850E94803E20853185442737FD51
:1056A0004095542F0E94DD3E2115310581E04807C9
:1056B000510524F457FD05C0C90108958FEF9FEFF0
:1056C000089580E090E00895DF92EF92FF920F93AB
:1056D0001F93CF93DF93EC012A813B812417350779
:1056E00020F4FA01E21BF30B03C0F901E41BF50BF4
:1056F0008C819D81969587958E179F0770F588817F
:1057000099818617970720F4FB01E81BF90B03C06A
:10571000FC01E61BF70BEF2B01F12417350738F4DA
:105720008A01021B130B7B01E81AF90A06C07C01EF
:10573000E61AF70A8901041B150BC7010E94392ECE
:10574000D82E888599850E94392ED81206C01D83CF
:105750000C83F986E8861B870A87DF91CF911F911A
:105760000F91FF90EF90DF9008950F931F93CF93C9
:10577000DF93EC018B019A01A885B9850E94793EDF
:105780002A853B8540E050E00E94DD3EC801A0E054
:10579000B0E082179307A407B5071CF41F821E828E
:1057A00004C0021B130B1F830E83DF91CF911F9147
:1057B0000F910895EF92FF920F931F93CF93DF9372
:1057C000EC018B017A010E94642BA701B801CE0184
:1057D000DF91CF911F910F91FF90EF900C94B52B1B
:1057E0008233910510F482E390E0909380038093DC
:1057F0007F03089580911B03813029F480917F03FA
:1058000090918003089580E090E0089560917B037B
:1058100070917C0380911D030C94B20920912003A8
:10582000213041F041E020917F03309180038217C5
:10583000930708F040E0842F08952CE0829FC00178
:10584000112460911D03875D9C4F0C94F62A609192
:105850001D0381E793E00C94F62ACF93DF9300D0E9
:1058600000D0CDB7DEB782E10E943A089A838983DF
:1058700083E10E943A0829813A81281B390B3A8337
:10588000298387E10E943A089C838B83CE0101968D
:105890000E94DB2A0F900F900F900F90DF91CF9115
:1058A00008959B018130910531F090937A038093A4
:1058B000790340931C0330937C0320937B03609116
:1058C000A1037091A203C9010E94A73E70938003B7
:1058D00060937F032233310530F482E390E09093AC
:1058E0007C0380937B036233710530F482E390E0A4
:1058F0009093800380937F030895EF92FF920F931C
:105900001F93CF93DF9391E090931B03FF24F394B5
:105910008F3009F0F12C80931D0360EA70E00E9443
:10592000160A90937E0380937D030E94DA082091EB
:105930007F03309180034091790350917A030F2DBA
:10594000BC0189E693E00E94192B0E94BD0D809353
:105950001E038091790390917A030E940910EC0153
:1059600010E08CE0E82E80911E03181798F4812F28
:105970000E94FA0DBC0120917F0330918003E19ECB
:10598000C00111240F2DAE018F5D9C4F0E94192B79
:105990001F5FE9CF1092200310921F03DF91CF9178
:1059A0001F910F91FF90EF9008950F931F93CF9346
:1059B000DF93082FEB0180911C038823C9F04091ED
:1059C0007D0350917E0320917F0330918003241743
:1059D000350708F49A012C173D0710F41092600265
:1059E00080912003813021F00E949E0F80931B0341
:1059F00080911B03813011F580912003823041F4A6
:105A000011E020917F0330918003C217D30708F083
:105A100010E00E94FA2B8C179D0770F0111102C044
:105A2000002351F090911F0381E0890F80931F03A1
:105A300081E09A3020F402C010921F0380E0DF91D1
:105A4000CF911F910F9108950F931F93CF93DF93E1
:105A5000EC010E94DA08AE01BC0189E693E00E94E5
:105A6000DA2B10E00CE080911E03181770F4812FE0
:105A70000E94FA0DBC01019FC0011124AE018F5D8F
:105A80009C4F0E94DA2B1F5FEECFDF91CF911F91C9
:105A90000F910895CF92DF92EF92FF920F931F9391
:105AA000CF93DF936091790370917A0389E693E055
:105AB0000E943E2B8C018091790390917A030E9481
:105AC00009107C01D12C9CE0C92E80911E03D816B0
:105AD00098F4CD9CE0011124CF5DDC4FB701CE01DD
