:100000000C9424050C944C050C944C050C944C0554
:100010000C94D13A0C944C050C944C050C944C0562
:100020000C944C050C940D3B0C94C4060C944C059C
:100030000C944C050C94A43B0C94D93B0C944C05AB
:100040000C94E8060C944C050C944C050C944C054F
:100050000C944C058F16761678167A1681168D1626
:1000600087168916CE23B623B823BA23BC23BE2312
:10007000C023C423C623C923CB23DC23D023D2230C
:10008000D423D823DA23D623DE239729C2299D2916
:10009000A029A429AA29AD29B229B629BA29BC299F
:1000A0009729A029A429BE29923395339E33A733DB
:1000B000A933AD33B033543658365A365F366236CC
:1000C000643669366C366F367236753678367B36FE
:1000D000803686368B369236953698369D36A036E3
:1000E000CD36D136D436D936DB36DE36E336E53694
:1000F000E936ED36F336F736F936FD36033708378D
:100100000C370E37123718371C37F937FB37FD37E6
:1001100001380138FF37053803380000000080C679
:100120004E5A000000007C6B0831000133000028AB
:10013000D007800133004023E80300000000C0AE78
:100140004E5AFC5350143FA0540B0000000000BB5B
:10015000C43680186009DC3770170000000000000A
:1001600000000000000044C4FA0E0000000000C4BB
:10017000FB0E0000000068C4FD0E00000000AAC5D0
:10018000160F0000000040C6190F0000000040C715
:100190002D0F0000000040C6190F0000000040C7EE
:1001A0002D0FB00032006001E8034F0132009E02C3
:1001B0002C01FF0000000005040000040900FF01FD
:1001C00001000105050001040A00FF02020002050A
:1001D000060002040B00FF030300030507000304ED
:1001E0000C00FF0000000405130204040D00FF01D1
:1001F00001000505130405040E00FF0202000605B8
:10020000130106040F00FF0303000705130807048A
:1002100010007F0DC90DD00E436865616C692D43D8
:10022000686172676572206D0076302E33336D5FC2
:100230003230313430393035003D0200006F707497
:10024000696F6E7300010001000100010001000AE6
:1002500000640001000300080009000A000B000C04
:1002600000010002000400060008000A000C006DF6
:100270005600206E6F0079657300496E66006D69E7
:100280006E2E00756E6C696D697400756E6C696DAB
:100290006974656400D602D102CC02C702C202BDF5
:1002A00002B802B302AE02A9024E695A6E004C3483
:1002B0003335004C343330004C69706F004C696C3E
:1002C0006F004C6966650050622020004E694D4801
:1002D000004E69436400556E6B6E000098089808E4
:1002E0006C0710275802019808F4016C070100E020
:1002F00001029808F4016C070100E001039808DC92
:10030000006C070600E00104980898086C070300D9
:10031000780005980898086C07030078000698088C
:1003200098086C070300780007980898086C070382
:1003300000780008980898086C070300780009986E
:100340000898086C07030078000100010001000113
:100350000000000100B0041C07520300000807520F
:1003600003B0044006E80300000807E803D0079242
:1003700009D606000000006C07E40C100ED007E45C
:100380000C0000B80B100E0410C409A60E0000AC3F
:100390000D740E6810B80B0A0F0000890C740ECC97
:1003A00010B80B0A0F0000890C740EFE10B80B0A6F
:1003B0000F0000890C40066C071405400600007809
:1003C000054E616D653A0045646974206E616D6526
:1003D0003A0022041D04180413040E040704FB034E
:1003E000F103E60300005265736574206E616D656C
:1003F0000045646974206E616D65004372656174C7
:1004000065206E616D6500546C696D3A2000496429
:100410003A200049633A200043683A2000563A20C7
:1004200020004261743A20200043616C2E65727294
:100430002E2020463A002500202D2D3A2D2D00207B
:1004400020002000200025200052455645525345EB
:1004500020504F4C415249545900706C656173658E
:100460002063616C2E004E2F410064656C74612026
:10047000543D20004E2F4100546578743D00646562
:100480006C746120563D20006D6178566F75743D27
:10049000006E6F2064542F74004572726F723A00C0
:1004A00054696D653A200070726F6772616D2063E8
:1004B0006F6D706C6574650054696E743D002D003D
:1004C000546578743D005662616C2E3D00566F7520
:1004D00074203D00206C696D69743D0056696E7032
:1004E00075743D00776972657320523D00626174D6
:1004F000742E20523D0020200062200074696D653A
:100500003A2020202020004C696D6974733A200045
:100510006D4168003C20006D4120006D41200020AD
:10052000202D2D20200043684342426C44694643FD
:100530005374534243684469435963794368446937
:100540004650435045420064542F6474002D645655
:100550000056206C696D69740019240D241D24AFA8
:1005600024AA24C0241B2516255625B92587258DA8
:1005700025F5258926012695269226A626000B0C10
:100580000D0E0F2D060C060006DE05D10500000736
:10059000080A0F2D060C06DE05D105000000010239
:1005A0000304090F2D061E0616060C060006DE05BE
:1005B000D105000000010203040506090F2D061EE7
:1005C0000616060C060006F805E905DE05D105004D
:1005D0000065646974206261747465727900443ED8
:1005E0004320666F726D61740073746F726167652A
:1005F0002B62616C616E630073746F72616765007A
:10060000666173742063686172676500646973630F
:1006100068617267650062616C616E636500636842
:10062000617267652B62616C616E6365006368610E
:1006300072676500010607080F0500021206070829
:10064000090A0B0D0E0F0405000212060708090A1D
:100650000B0D0E0F0405130300060708040F050019
:100660000212060708090A0B0D0E0F0405130300FA
:100670000212110D0E0F040513030002120C1011CB
:100680000D0E0F04051303004558542054206C69C7
:100690006D69740054696D65206C696D69740043FF
:1006A0004150206C696D697400494E505554205674
:1006B000004857204641494C555245004F56455237
:1006C0004C4F4144206572720042414C2062726579
:1006D000616B00424154206469736300494E5420A9
:1006E000540020436F6E6E656374204261747465BC
:1006F000727900436F6E6E65637420426174746535
:1007000072792100000114070C070000566D696E14
:1007100075733A0056706C75733A200029072207EA
:10072000000076616C75653A0074656D703A200062
:100730003F0736070000706F696E7420322E00701C
:100740006F696E7420312E0056074E070000444139
:1007500054413A20200076616C75653A20003200E1
:100760002C013200E80378077207000084077D0738
:1007700000003330306D410035306D410031303094
:10078000306D410035306D410006090A0B0C0D0E2D
:100790000F100621222324252627281514F107EB04
:1007A00007E507DF07D907D307CD07C707C107BB91
:1007B00007B5070000566F75743A0056312D383A68
:1007C000005662383A20005662373A2000566236A8
:1007D0003A20005662353A20005662343A200056DC
:1007E00062333A20005662323A20005662313A2093
:1007F0000056696E3A20004F0846083A082E082233
:100800000816080708000065787065727420444176
:100810004E474552210063616C69622D3E5541523D
:10082000540074656D7020696E7465726E00746535
:100830006D702065787465726E0049206469736319
:100840006861726765004920636861726765007658
:100850006F6C746167650077086D085F080000724F
:10086000657365742064656661756C740063616CA2
:100870006962726174650073657474696E67730090
:1008800080250000004B00000096000000E1000001
:1008900000C2010046008813701700007017640042
:1008A000010005000F0005001E0001000A0078008D
:1008B000581B0000010001000800000000000000BB
:1008C00000000000432F6D00F108EA08E408DB088F
:1008D000D2086578742E20416463006578742E20F8
:1008E000646562006465627567006E6F726D616C4D
:1008F0000064697361626C656400050AFA09EF09B6
:10090000E309D809D109C509BB09B109A5099909A4
:100910008D09800976096B09620956094A0940095F
:100920003909310928090000202020726573657497
:100930000073706565643A2000554152543A2000B6
:1009400062616C2E206572723A00666F7263652078
:1009500062616C3A20006469732061677265733A62
:1009600020006469736368202B3A00696E707574A7
:10097000206C6F773A0063617020434F66663A00DF
:100980006D696E2E492049203D20492F0062656522
:10099000703A202020202020007761737465205455
:1009A0002E3A202000442F43206379636C65733A0C
:1009B000004E694364202D64563A004E694D48202C
:1009C0002D64563A00656E6162202D64563A2020EF
:1009D0000064542F64743A00657874726E20544336
:1009E0004F3A00657874726E20543A2020200064DB
:1009F00069736368206F66663A0066616E206F6E89
:100A00003A202020006261636B6C696768743A0069
:100A100016191B1A1C070506212223242526272820
:100A20007265736574696E6720656570726F6D3A83
:100A300000763A20382E35312E3536200000170644
:100A4000F210E1230B2A103D11241FBECFE5D8E0A0
:100A5000DEBFCDBF10E0A0E6B0E0E0EAFDE702C0F7
:100A600005900D92A03FB107D9F715E0A0EFB0E0D7
:100A700001C01D92A133B107E1F71AE0C8E4DAE042
:100A800004C02297FE010E94553ECE33D107C9F71C
:100A90000E94ED100C94CE3E0C940000CF92DF9299
:100AA000EF92FF92482F282F30E0A0E0BDE70E9490
:100AB000C13D6B017C01A4E6B0E0A41BB10924E6B2
:100AC00030E00E94D03D6C0D7D1D8E1D9F1D24E6E3
:100AD00030E040E050E00E94123EB9018DE0FF900E
:100AE000EF90DF90CF900C947A3B882311F0909A8E
:100AF0000895909808958091F700882331F08091AF
:100B0000F0008F5F8093F00002C01092F00080919F
:100B1000F7008A3010F480E001C084E09091F70083
:100B2000943108F082E09091F7009E3108F081E066
:100B30009091F000982311F0979A0895979808954E
:100B40002091E0033091E103232B11F08093F70013
:100B50000895811103C0939AC49808959398C49AF4
:100B60000895811102C0969A08959698089581116A
:100B700002C0929A089592980895BC018EE00C9458
:100B80007A3BBC018EE00C947A3B80FF02C0C09A95
:100B900001C0C09881FF02C0C19A01C0C19882FF04
:100BA00002C0C29A01C0C29883FF02C0C39A01C0AA
:100BB000C39884FF02C0DE9A01C0DE9885FF02C0A0
:100BC000DF9A01C0DF9886FF02C0AE9A01C0AE98DE
:100BD00087FF02C0AF9A0895AF9808958C9A8B9AB8
:100BE000889A8F9AB89AB99ABA9ABB9AD69AD79A8B
:100BF000A69AA79ABC9A8D9A8E9A8D9A8A9A80E024
:100C00000E94A90580E00E94750580E00E94A00571
:100C100080E00E94C50520E042E060E181EF90E0C5
:100C20000E947B170E94903B0C941B06089581EF55
:100C300090E00C94CC17D598D498DD98DC98BF9AA6
:100C4000BE9ABD9A80B7806680BF8FEA86B910923F
:100C5000F9000C94013B87FD21C04091660050E0F3
:100C6000682F772767FD709564177507B9F0809333
:100C7000660098B3282F217030E0220F331F220F17
:100C8000331F82FB332730F9232B8270282B80E21D
:100C90002802900111249F71922B98BB089584B172
:100CA00045B12091F90030E0F901EE0FFF1FEE0F82
:100CB000FF1FEC54FE4F9491F901EE0FFF1FEE0F52
:100CC000FF1F933171F02FB7F894E92FF0E0EE0F8A
:100CD000FF1FEC51FE4F90E0942B918380832FBF38
:100CE0000895EB54FE4FE4918091F80047FD02C057
:100CF000E82B02C0E095E823E093F80008951092F5
:100D0000F90008950E94EB26909307028093060253
:100D10000E944D2790930902809308020C94550A73
:100D2000E091F900EF5FE83108F0E0E084E0E89F4F
:100D3000F0011124EE54FE4F84910C942B06CF93B6
:100D4000C091F90081E0C11101C080E00E944F060E
:100D5000E1E0EC0FE83108F0E0E0E093F90084E036
:100D6000E89FF0011124ED54FE4FE491E062E7B9F1
:100D70008091F900811103C0CF910C948206CF912C
:100D800008958091F80008951F920F920FB60F9268
:100D900011242F933F934F935F936F937F938F9380
:100DA0009F93AF93BF93EF93FF930E949006FF91A1
:100DB000EF91BF91AF919F918F917F916F915F91D3
:100DC0004F913F912F910F900FBE0F901F9018954C
:100DD0001F920F920FB60F9211242F933F934F93B0
:100DE0005F936F937F938F939F93AF93BF93EF9393
:100DF000FF930E949F06FF91EF91BF91AF919F914A
:100E00008F917F916F915F914F913F912F910F90B3
:100E10000FBE0F901F9018952FB7F8946091FA00AD
:100E20007091FB008091FC009091FD002FBF089510
:100E30000E94892E0E94B0390E94C1270E94093861
:100E40000C94E10C8091FA009091FB00A091FC00C1
:100E5000B091FD000196A11DB11D8093FA00909301
:100E6000FB00A093FC00B093FD00809167008150CF
:100E700019F080936700089581EE809367000E94C7
:100E80003C0A0C9400230E940C0796958795779551
:100E900067950895CF92DF92EF92FF92CF93DF9301
:100EA000EC010E9443076B017C01CC0EDD1EE11CAE
:100EB000F11C0E9443076C157D058E059F05C8F344
:100EC000DF91CF91FF90EF90DF90CF900895CF9278
:100ED000DF92EF92FF92CF93DF93EC010E944307E2
:100EE0006B017C01CC0EDD1EE11CF11C0E9443074E
:100EF0006C157D058E059F0518F40E941807F6CF26
:100F0000DF91CF91FF90EF90DF90CF900895E82F81
:100F1000F0E0EE0FFF1FE254FE4F808191810895B3
:100F2000E82FF0E0EE0FFF1FE459FE4F8081918122
:100F300008952FB7F894E82FF0E0EE0FFF1FEC5163
:100F4000FE4F808191812FBF0895809158020895AE
:100F50008091180190911901089580910601909156
:100F60000701089580910801909109010895E82FE3
:100F7000F0E0EE0FFF1FE65EFE4F80819181089545
:100F8000262F633110F4423040F021E030E0FC01C4
:100F90003383228331832083089550E0BA01620FA6
:100FA000711D620F711D660F771F660F771F665FD9
:100FB0007F4F44E050E00C94893E282FCA01233132
:100FC00088F4623078F470E0620F711D620F711D59
:100FD000660F771F660F771F665F7F4F44E050E014
:100FE0000C94A73E0895FF920F931F93CF93DF9326
:100FF00000D000D0CDB7DEB70AE111E0F12CF80146
:10100000459155916591749149835A836B837C8393
:10101000AE014F5F5F4F60E08F2D0E94DD07F8014A
:101020003496459155916591749149835A836B83A8
:101030007C83AE014F5F5F4F61E08F2D0E94DD0723
:10104000F394085F1F4F83E1F812D9CF0F900F90F0
:101050000F900F90DF91CF911F910F91FF90089506
:101060008091980190919901089580919E019091AD
:101070009F0108958091460190914701039750F098
:1010800080914C0190914D01039720F083E090E016
:101090000C94030E80E008958FB7F894EAE0F2E034
:1010A000119211921192119292E0E635F907C1F76F
:1010B00010925702109256028FBF0895CF93CFB768
:1010C000F8941092170110921601109212011092CA
:1010D0001301109214011092150110920E0110923A
:1010E0000F01109210011092110110920A0110923A
:1010F0000B0110920C0110920D010E9443076093A6
:101100000201709303018093040190930501CFBF06
:10111000CF910895CF93DF930E944C080E945E0800
:10112000C0911801D0911901809118019091190175
:10113000C817D90729F48AE090E00E946707F4CF26
:10114000DF91CF9108950E945E08109209011092DC
:10115000080110920701109206010895EAE1F1E0FA
:101160001192119281E0EC36F807D1F708950E94B0
:101170004C080E945E080C94AE088FB7F894109249
:10118000FE001092FF0010920001109201018FBF2B
:1011900010921901109218010E947F060E94B70850
:1011A0000E94A308ECE6F1E01192119281E0EE3B7F
:1011B000F807D1F708958091580281110AC081E0A3
:1011C0000E94A9050E94BD0881E0809358020C94FA
:1011D0008A0808951092580280E00C94A905CF93D4
:1011E000DF9381E00E949907EC0180E00E9499075B
:1011F0008C179D0718F4C81BD90B02C0C0E0D0E0C3
:1012000081E0C93ED34008F480E0DF91CF9108959A
:101210008F929F92AF92BF92CF92DF92EF92FF9206
:10122000CF93DF93CDB7DEB728970FB6F894DEBF24
:101230000FBECDBFF82E5B0161157105D1F140E005
:10124000682FCE0105960E94C00741E06F2DCE01A8
:1012500001960E94C0072B813C8140E050E0CF8086
:10126000D884E12CF12C2C193D094E095F09B501F8
:1012700080E090E08D809E80A12CB12C68197909C6
:101280008A099B090E94E23D29813A8140E050E0B1
:10129000281939094A095B090E94343E2C0D3D1D6D
:1012A0004E1D5F1D57FF03C020E030E0A901C901BA
:1012B00002C080E090E028960FB6F894DEBF0FBE23
:1012C000CDBFDF91CF91FF90EF90DF90CF90BF9097
:1012D000AF909F908F9008958F929F92AF92BF9200
:1012E000CF92DF92EF92FF92CF93DF93CDB7DEB72D
:1012F00028970FB6F894DEBF0FBECDBFF82E5B0166
:1013000061157105D1F140E0682FCE0105960E946C
:10131000C00741E06F2DCE0101960E94C0072981D0
:101320003A8140E050E0CD80DE80E12CF12C2C1998
:101330003D094E095F09B50180E090E08F809884F7
:10134000A12CB12C681979098A099B090E94E23DF8
:101350002B813C8140E050E0281939094A095B099A
:101360000E94343E2C0D3D1D4E1D5F1D57FF03C0D6
:1013700020E030E0A901C90102C080E090E0289699
:101380000FB6F894DEBF0FBECDBFDF91CF91FF90B7
:10139000EF90DF90CF90BF90AF909F908F90089587
:1013A0000C94BD0882508B3130F4E82FF0E0E65801
:1013B000FF4F8081089581E00895CF93DF93E82F58
:1013C000F0E0EE0FFF1FE459FE4FC081D1810E9473
:1013D000D209882319F0813029F00AC081E0E3970F
:1013E00040F404C081E0C935D24018F480E001C067
:1013F00081E0DF91CF910895CF93C0E081E28C0F1F
:101400000E94DD09882329F0CF5FC830B9F788E052
:1014100001C08C2FCF9108951F93CF93DF931F921C
:10142000CDB7DEB7182F69830E94D209E12FF0E013
:10143000EE0FFF1FE459FE4F4981682F8081918193
:101440000F90DF91CF911F910C9464162FB7F894F1
:101450006091FE007091FF00809100019091010168
:101460002FBF2DE730E040E050E00E94123EBB2746
:10147000A52F942F832F089520919E0130919F01D5
:101480008091FE009091FF00A0910001B0910101B8
:10149000820F931FA11DB11D8093FE009093FF004A
:1014A000A0930001B09301010895CF93DF93809141
:1014B0005802882309F474C02091560230915702D3
:1014C00024363105E0F4E4EEF1E0CAE0D2E04191E7
:1014D000519188819981AA81BB81840F951FA11D9B
:1014E000B11D89939993A993B99382E0EA30F807E3
:1014F00071F72F5F3F4F3093570220935602209190
:10150000E4013091E5018091120190911301A091C5
:101510001401B0911501820F931FA11DB11D80937D
:10152000120190931301A0931401B093150120911F
:10153000E6013091E70180910E0190910F01A09199
:101540001001B0911101820F931FA11DB11D809355
:101550000E0190930F01A0931001B09311012091FF
:10156000F2013091F30180910A0190910B01A09159
:101570000C01B0910D01820F931FA11DB11D80932D
:101580000A0190930B01A0930C01B0930D0180917F
:1015900016019091170101969093170180931601FF
:1015A000DF91CF91089590E0880F991FFC01E459D5
:1015B000FE4F208131816217730718F4261B370B09
:1015C00004C0AB01421B530B9A01FC01E65EFE4FC7
:1015D0002730310518F01182108206C02081318138
:1015E0002F5F3F4F31832083FC01E459FE4F71830D
:1015F00060830895AF92BF92CF92DF92EF92FF92F5
:101600000F931F93CF93DF931F92CDB7DEB7A090B8
:101610006C01B0906D0180916E0190916F018A15FF
:101620009B0518F4A81AB90A02C0A12CB12CB50167
:1016300084E10E94D30A0EE711E091E2F801619182
:1016400071918F01892F99830E94D30A99819F5F9D
:101650009932A1F70E94FC09F82E80E000E010E02A
:101660008F1569F0E1E2E80FF0E0EE0FFF1FE4599B
:10167000FE4F20813181020F131F8F5FF1CFB80120
:1016800085E10E94D30A0115110581F00A151B0599
:1016900020F49501201B310B03C098012A193B0946
:1016A000293E334018F4580115E102C014E1F12C31
:1016B000B50186E10E94D30A6F2D70E088E10E9497
:1016C000D30A612F70E087E10E94D30A0E94260AA4
:1016D0008C010E943E27882329F0E0907201F0904F
:1016E00073010BC00E94DC26882329F0E090700172
:1016F000F090710102C0E12CF12CB70189E10E9448
:10170000D30AB8018BE10E94D30A9701D5010E9448
:10171000C13D30E1C32E37E2D32EE12CF12CA701DD
:1017200096010E94123EB9018AE10E94D30A9801F3
:10173000D5010E94C13DA70196010E94123EB90148
:101740008CE10F90DF91CF911F910F91FF90EF905F
:10175000DF90CF90BF90AF900C94D30ABF92CF92FE
:10176000DF92EF92FF920F931F93CF93DF932FB7E8
:10177000F89480915602909157022FBF84369105BC
:10178000C1F580911801909119010196909319016A
:10179000809318010AE012E0CEEBD1E0B12C54E6C0
:1017A000C52ED12CE12CF12CF80161917191819120
:1017B00091918F01A70196010E94123E29933993BE
:1017C000B9018B2D0E940809BC018B2D0E94D30A00
:1017D000B394F3E1BF12E8CF0E94FA0ADF91CF91F0
:1017E0001F910F91FF90EF90DF90CF90BF900C94DE
:1017F0004C08DF91CF911F910F91FF90EF90DF90F8
:10180000CF90BF9008954F925F926F927F928F9288
:101810009F92AF92BF92CF92DF92EF92FF920F937F
:101820001F93CF93DF93CDB7DEB728970FB6F89409
:10183000DEBF0FBECDBF0E944307C0900201D09013
:101840000301E0900401F09005016C197D098E09F7
:101850009F09613375478105910508F49BC02FB737
:10186000F8940091160110911701409012015090C8
:101870001301609014017090150160910E01709138
:101880000F01809110019091110180900A019090B8
:101890000B01A0900C01B0900D012FBF6D837E83D2
:1018A0008F8398870E945E0820910801309109017A
:1018B0002F5F3F4F30930901209308016801E12C0D
:1018C000F12C6D817E818F819885A70196010E9400
:1018D000123E29833A834B835C83C301B201A70183
:1018E00096010E94123EB90180E00E9408093C0165
:1018F00069817A8181E00E9408098615970518F4AC
:10190000681A790A02C0612C712C4090A80150908D
:10191000A9016414750420F0B3018EE10E94D30A7A
:10192000B301641975098DE10E94D30AC501B401A0
:10193000A70196010E94123EB90187E00E940809A2
:1019400020910601309107019093070180930601D1
:10195000BC01621B730B660F771F8FE10E94D30AD5
:10196000B80180E228960FB6F894DEBF0FBECDBF57
:10197000DF91CF911F910F91FF90EF90DF90CF906B
:10198000BF90AF909F908F907F906F905F904F909F
:101990000C94D30A28960FB6F894DEBF0FBECDBFC5
:1019A000DF91CF911F910F91FF90EF90DF90CF903B
:1019B000BF90AF909F908F907F906F905F904F906F
:1019C00008950E94AE0B0C94030C1092FE0010922E
:1019D000FF0010920001109201010C94B708809151
:1019E0008702089580918502811113C00E94A50786
:1019F000882381F00E94A8072091590230915A0251
:101A0000821B930B9C0181E02530310518F080E0AA
:101A1000089581E008958F5D0C9490070F931F93B4
:101A2000CF93DF9310E0CFEFDFEF00E080918702EC
:101A3000181760F4812F0E940B0D8C179D0710F072
:101A4000CE0101C0012F1F5FEC01F0CF802FDF918D
:101A5000CF911F910F910895CF93DF9390918502BD
:101A6000911104C0DF91CF910C940B0D9091630202
:101A7000C82FD0E0992391F00E940B0DCC0FDD1FF1
:101A8000FE01EC59FD4FCC58DD4F2081318148815A
:101A90005981241B350B280F391F07C0FE01EE0F9B
:101AA000FF1FEC59FD4F20813181C901DF91CF919A
:101AB0000895CF93C82F80918502882341F0C111EA
:101AC00006C00E94A80790935A0280935902C093BF
:101AD00085020E94430760935B0270935C028093CF
:101AE0005D0290935E020E94AE0880918402811193
:101AF00004C08C2FCF910C94C505CF910895EF921F
:101B0000FF920F931F93CF93DF9381E00E941606FD
:101B100088E10E9490078093870204E712E034E690
:101B2000E32E32E0F32EC0E0D0E08091870290E017
:101B3000C817D9076CF48C2F0E940B0DF801819304
:101B400091938F01F701819391937F012196EDCFBE
:101B5000109285021092840280E00E94590D10922A
:101B60005A021092590210925B0210925C0210927B
:101B70005D0210925E02DF91CF911F910F91FF9055
:101B8000EF90089580E00E94590D81E080938402D7
:101B900008950E94C20D80E00C941606FF920F93E8
:101BA0001F93CF93DF93809186020E942C0DEC014E
:101BB000F12C01E010E080918702F816E8F48F2DF7
:101BC0000E942C0DAC0180918502802321F0C41766
:101BD000D50778F40DC02091EE033091EF032F5F0D
:101BE0003F4F369527952C0F3D1F2417350708F4D6
:101BF000102B000FF394DFCF812FDF91CF911F9136
:101C00000F91FF9008951F93CF93DF93EC0110E0A5
:101C100080918702181748F481E2810F0E94B7076C
:101C20008C179D0720F01F5FF3CF81E001C080E09B
:101C3000DF91CF911F910895BF92CF92DF92EF92E3
:101C4000FF920F931F93CF93DF938AE090E00E945F
:101C5000030E882309F460C00E940E0D8093860253
:101C60000E940B0D8C0162E087E992E00E94CC1982
:101C70000817190748F174E6E72E72E0F72EE4E73B
:101C8000CE2EE2E0DE2EC0E0D0E0BB24B394809103
:101C9000870290E0C817D907CCF48C2F0E940B0D57
:101CA000F701819391937F01F601819391936F01E5
:101CB000801B910B2091EE033091EF032817390719
:101CC00008F4B12C2196E3CFBB24B39410926302A5
:101CD0000E94430760935F027093600280936102E9
:101CE00090936202BB2059F0DF91CF911F910F9129
:101CF000FF90EF90DF90CF90BF900C94C20D0E94A8
:101D0000CE0DDF91CF911F910F91FF90EF90DF905B
:101D1000CF90BF900C94590DDF91CF911F910F91EF
:101D2000FF90EF90DF90CF90BF900895CF93809178
:101D30006302811119C081E0809363028091860261
:101D40000E940B0DC0E080918702C81768F48C2FA9
:101D50000E940B0DEC2FF0E0EE0FFF1FEC58FD4F33
:101D600091838083CF5FEFCFCF9108950F931F931F
:101D70000E94430700915F0210916002209161026E
:101D800030916202601B710B820B930B28EE33E0E3
:101D900040E050E00E94123EC9011F910F9108954A
:101DA00083E090E00E94030E8823C9F080918502B1
:101DB000811103C00E941C0E12C00E94960E0E9448
:101DC000CE0D90E0809590952091850230E08223A1
:101DD0009323892B81F40E94B60E4F9760F40E94E2
:101DE000F20C882311F082E0089580918402882308
:101DF000D1F381E0089580E00E94590DF0CF1F9348
:101E0000CF93DF93EC0110E080918702181780F4E4
:101E1000812F0E940B0D8C179D0710F081E009C0E7
:101E2000812F0E942C0D8C179D07C0F71F5FECCFF0
:101E300080E0DF91CF911F9108951F93CF93DF939F
:101E4000EC0110E080918702181780F4812F0E9426
:101E50000B0DC817D90710F081E009C0812F0E942F
:101E60002C0DC817D907C0F71F5FECCF80E0DF91BA
:101E7000CF911F91089560918702662329F070E049
:101E80000E94FE3DCB01089580E090E008950E94FD
:101E90008A120E94932085E00E9444370E94662E99
:101EA00088E00E94443781E00C94A9050E948A12C0
:101EB0000E94A12086E00E9444370E94662E88E09E
:101EC0000C944437E0918802F091890285919491B5
:101ED00010928A02FC010994E0918802F091890233
:101EE000329685919491FC010994E0918802F091D9
:101EF0008902349685919491FC010994CF93DF93E4
:101F00001F92CDB7DEB7811109C00E94A31F0E94A6
:101F10006C0F0E94EA080E94560F0FC0813059F4DE
:101F200069830E94A31F0E946C0F6981611105C023
:101F30000E94470F02C081E001C080E00F90DF9156
:101F4000CF9108958F929F92AF92BF92CF92DF92DE
:101F5000EF92FF920F931F93CF93DF93EC01A62E86
:101F60000E94620F0E94851F0E94BB2E0E948A124F
:101F7000D12C82E0B82EE12CF12CCC24C39492E039
:101F8000992E882483940E942337811106C0FE0174
:101F9000ED0DF11D84910E94A7230E941812182FA5
:101FA000883051F40E94E9118111A3C080918A0206
:101FB000823009F0A1C09DC080918A02813021F455
:101FC000111102C090928A0280918A02823009F037
:101FD0005CC0FE01ED0DF11DE491E23031F0E33023
:101FE000D1F1E13009F04EC03FC00E944427882360
:101FF000A9F0123019F46FEF7FEF04C0143071F4C0
:1020000061E070E087E992E00E94201B60919C02F1
:1020100070919D0281E090E00E94F9240E94E226E6
:10202000882309F444C0123019F46FEF7FEF05C024
:10203000143009F03CC061E070E087E992E00E9452
:10204000071B60919A0270919B0241E081E090E051
:102050000E9422252CC00E94E226811150C00E94BD
:10206000442781114CC023C0123019F46FEF7FEF69
:1020700004C01430E1F461E070E087E992E00E946E
:10208000491B15C010928A0212C0143049F4ED2D7C
:10209000F0E03196EC0FFD1FE491E11148C007C05C
:1020A000123029F4DD2019F00E946721DA94CC2047
:1020B00081F00E94D82EB82E6A2D0E947E0FC82E65
:1020C000882339F00E94A807E816F906A1F5C11087
:1020D00003C0A1103BC0C12C113009F054CF0E94A5
:1020E000E911882309F44FCF0E94A31F0E946C0FAF
:1020F0002DC010928A0268CF80928A0265CF12307A
:1021000041F40AE020E030E048EE5DEF6FEF7FEF52
:1021100009C0143061F60AE020E030E048EE5DEFDF
:1021200061E070E082EC93E00E94F92DC0CF0E9444
:102130006721D394BCCF0E94A8077C010E94750F31
:10214000B82E6A2D0E947E0FC82EC1CF8B2DDF9135
:10215000CF911F910F91FF90EF90DF90CF90BF90A4
:10216000AF909F908F90089560E08BE892E00E947E
:10217000FA1887FD0AC0811102C00C943F349927D8
:1021800087FD909501970C94CD29089578940E942D
:10219000EE050E94F53A0E9433270E94BA270E945A
:1021A000D0090E944C3D0E94973469E272E088E1B8
:1021B00092E00E94762088EE93E00E944A0780E039
:1021C0000E947F3A0E94EA158091F4039091F503F2
:1021D000079710F40C94EF2008950E94C6100E94F7
:1021E000B410FDCF69E372E08BE892E00E940C1816
:1021F00089E990E090938C0280938B02EFE8F2E003
:102200008081805E80830895FC01248120526217C2
:1022100010F40C94FF17862F90E0821B91090E9406
:10222000931A6EE00C94CD13CF93DF93EC010E94D0
:1022300082128B819C810E94CA130E9486126A813D
:1022400088819981DF91CF910C946213FC01878181
:102250008F3118F48F5F8783089586818F5F86831F
:102260000895FC018781882319F0815087830895A0
:1022700086818150868308950F931F93CF93DF93B8
:10228000FC01C681D0E06D2F80E00E947C1210E13D
:102290001C0F01E00C0F8C2F0E941B14011711F072
:1022A000C02FF7CFDF5FD23011F0C12FECCFDF911D
:1022B000CF911F910F9108951F93CF93DF93EC015E
:1022C00081EF90E00E943F171FEF8E81181721F0D9
:1022D000CE010E943C111E818F81682F70E094E036
:1022E000759567959A95E1F78F700E947C120E9410
:1022F0001812823049F0843019F0813049F413C04B
:10230000CE010E942611E1CFCE010E943111DDCF16
:102310008830D9F68D81E881F981E80FF11D8F8130
:102320009E81890F8083DF91CF911F910895FC01D9
:1023300071836083428334832383158280E28683A2
:1023400017820895CF93DF93EC0181EF90E00E9414
:102350003F170E948A12CE010E94141161E08D8104
:102360000E947C120E9418128230B1F0843041F039
:102370008130C1F481EF90E00E94381780E026C0E0
:102380004D81242F30E08A8190E00197281739078A
:102390002CF74F5F4D83E2CF8D818823F9F2815076
:1023A0008D83DCCF8830D1F682E00E946B128230C0
:1023B00048F083E00E94443781EF90E00E94381794
:1023C00081E004C0CE010E945C11C3CFDF91CF91A8
:1023D00008958091950208950C94C106E0919502AC
:1023E000F0E0EE0FFF1FEB5BFD4F85919491089598
:1023F000CF93DF93D82F0E94C106C82F8D1741F0CD
:1024000082E390E00E9467070E94C106DC2FF5CFAF
:10241000109295021092940280939602882319F0EC
:1024200080E00E94513780919602DF91CF9108950C
:10243000FF920F931F93CF93DF93C0E0D0E0F12C76
:102440000AEF10E040919502242F30E0F901EE0FE1
:10245000FF1FEF59FD4F65917491C8010E94FE3D29
:102460006F5F7F4FF901EE0FFF1FC617D707A8F464
:102470000E94C106F82E81E090E00E9467078091DB
:102480009602F81641F08F2DDF91CF911F910F9199
:10249000FF900C94F8112196D5CFFF20A1F0209148
:1024A00094022F5F20939402ED5AFD4F85919491F1
:1024B00030E02817390738F0463018F44F5F409362
:1024C00095021092940280919602DF91CF911F9114
:1024D0000F91FF900895CF93DF93D82FC09196026C
:1024E0000E941812909195029D1711F08C17C1F35C
:1024F000892FDF91CF910895462F682F81EF90E0CB
:102500000C94031760E080E00C947C1261E080E0A2
:102510000C947C1281EF90E00C94FC16CF93DF9327
:10252000FC01DB018C91882389F0C081D181488333
:10253000808191810196918380838C9181508C93CD
:10254000882321F00190F081E02D1082DF91CF915E
:102550000895BF92CF92DF92EF92FF920F931F9355
:10256000CF93DF93EC018B017A014115510501F105
:10257000CA010E94623EF8019081B82E981708F4B3
:10258000B92ECB2CD12CA601B701888199810E944C
:102590006B3E288139812C0D3D1D39832883F8013C
:1025A00080818B198083882319F0E881F98110825A
:1025B000DF91CF911F910F91FF90EF90DF90CF901F
:1025C000BF900895CF92DF92FF920F931F93CF9306
:1025D000DF9300D0CDB7DEB76C018B01BA0180E08C
:1025E00090E049835A830E94A72DF82ED8018C9140
:1025F00049815A818F1570F44FE3B801C6010F90DD
:102600000F90DF91CF911F910F91FF90DF90CF90AE
:102610000C948E12F601208131812F0D311D3183F2
:102620002083D8018C918F198C93882321F00190FD
:10263000F081E02D1082F9012AE030E0FF2069F0FE
:10264000CA01B9010E94FE3D405DBAE06B9F40198E
:1026500011244293FA94AB01F1CF0F900F90DF91C8
:10266000CF911F910F91FF90DF90CF9008950F931E
:102670001F93CF93DF93CDB7DEB72B970FB6F894A8
:10268000DEBF0FBECDBF8E010F5F1F4F1A870987B8
:1026900027E02B87AC01BE01655F7F4FCE01099615
:1026A0000E94E212B80181EF90E00E94EF172B9692
:1026B0000FB6F894DEBF0FBECDBFDF91CF911F9153
:1026C0000F9108950F931F93CF93DF93CDB7DEB78C
:1026D00061970FB6F894DEBF0FBECDBF0097D1F063
:1026E000613108F060E1062F10E0A801BC01CE01C5
:1026F00001960E947A3EE1E0F0E0EC0FFD1FE00F52
:10270000F11F1082BE016F5F7F4F81EF90E00E944A
:10271000EF1701C080E061960FB6F894DEBF0FBEE0
:10272000CDBFDF91CF911F910F9108950F931F930C
:10273000CF93DF93CDB7DEB761970FB6F894DEBFC6
:102740000FBECDBF0097D1F0613108F060E1062FD8
:1027500010E0A801BC01CE0101960E946B3EE1E0B1
:10276000F0E0EC0FFD1FE00FF11F1082BE016F5F64
:102770007F4F81EF90E00E94EF1701C080E06196EB
:102780000FB6F894DEBF0FBECDBFDF91CF911F9182
:102790000F91089560E10C949613CF92DF92EF921F
:1027A000FF920F931F93CF93DF93CDB7DEB762975E
:1027B0000FB6F894DEBF0FBECDBF009719F161319F
:1027C00008F060E16C018E010F5F1F4F78018E2DC4
:1027D000801B861768F4C6016A8B0E94993EF70138
:1027E00081937F01FFEFCF1ADF0A6A898111EFCF52
:1027F000F801E60FF11D1082B80181EF90E00E9410
:10280000EF1701C080E062960FB6F894DEBF0FBEEE
:10281000CDBFDF91CF911F910F91FF90EF90DF908F
:10282000CF900895882319F086E792E002C082E7EE
:1028300092E00C94CA13682F81EF90E00C94CE17AD
:10284000CF93DF93D82FC0E0CD1729F080E20E940C
:102850001B14CF5FF9CF8C2FDF91CF91089580E1CA
:102860000C942014CF93DF931F92CDB7DEB7682F5F
:1028700064303CF080E269830E941B1469816150DE
:10288000F7CF8AE792E00F90DF91CF910C949613E7
:102890006AE00E94F23D80E3890F0C941B14DF92E2
:1028A000EF92FF920F931F93CF93DF93EC01F62EDD
:1028B000D42E16160CF089C068EE73E00E94FE3D1F
:1028C0008B0180E090E00E94A72D24E0E22EE80E2C
:1028D000EF142CF480E20E941B14FA94F9CFFE143A
:1028E000E4F0D1101AC0BE0180E090E00E94A72D54
:1028F000182FFA941F1524F480E20E941B14F9CFBC
:10290000CE010E9437138DE6DF91CF911F910F9179
:10291000FF90EF90DF900C941B142E2D332727FD92
:102920003095245031094F2D552747FD50954217BA
:10293000530754F48F2DDF91CF911F910F91FF908A
:10294000EF90DF900C943214C8010E943713CE012F
:1029500068EE73E00E94FE3DEC011F2D1E1993E00E
:10296000F92EF10E84E0810F18161CF48EE20E94FD
:102970001B1402E0010F1F1444F4CE0164E670E062
:102980000E94FE3D862F0E944814CE0164E670E04E
:102990000E94FE3DEC011F5F10163CF46AE070E0FF
:1029A0000E94FE3D862F0E944814111674F4CE0139
:1029B0006AE070E00E94FE3DDF91CF911F910F9180
:1029C000FF90EF90DF900C944814DF91CF911F910E
:1029D0000F91FF90EF90DF900895EF92FF920F9389
:1029E0001F93CF93DF93EC01F62E16160CF059C00F
:1029F00064E670E00E94FE3D8B0180E090E00E9462
:102A0000A72D33E0E32EE80EEF142CF480E20E94B1
:102A10001B14FA94F9CF2E2D332727FD3095235020
:102A200031094F2D552747FD5095421753074CF458
:102A30008F2DDF91CF911F910F91FF90EF900C940C
:102A40003214C8010E943713CE0164E670E00E9480
:102A5000FE3DEC010F2D0E1912E0100F83E0800FE8
:102A600018161CF48EE20E941B14FF24F394F00E3F
:102A7000111644F4CE016AE070E00E94FE3D862FFC
:102A80000E9448141F146CF4CE016AE070E00E94AA
:102A9000FE3DDF91CF911F910F91FF90EF900C942D
:102AA0004814DF91CF911F910F91FF90EF900895FF
:102AB000BF92CF92DF92EF92FF920F931F93CF932B
:102AC000DF938C01D62EB42EC22E1616ACF5211132
:102AD000DA94B80180E090E00E94A72DC82FD0E0E2
:102AE000ED2CFF24E7FCF094CE15DF052CF48B2DA4
:102AF0000E941B14DA94F4CFCC2019F08DE20E94CE
:102B00001B14EC16FD0664F48D2DDF91CF911F91FF
:102B10000F91FF90EF90DF90CF90BF900C94321404
:102B2000C801DF91CF911F910F91FF90EF90DF903F
:102B3000CF90BF900C943713DF91CF911F910F91DD
:102B4000FF90EF90DF90CF90BF90089520E00C941D
:102B50005815CF93DF936CE370E00E94FE3D9B011C
:102B6000EC0140E363E0C9010E94A6158AE30E94DC
:102B70001B1440E362E0CE01DF91CF910C94A615C7
:102B800040E20C94A615292F221F2227221F19F09C
:102B900091958195910940E20C945815161634F4DC
:102BA00061500E94ED1483E40C941B1408951616D2
:102BB00034F461500E94C01585E20C941B140895F2
:102BC00063303CF062500E94C0158FE692E00C9496
:102BD000CA130895FF920F931F93CF93DF93CDB73E
:102BE000DEB728970FB6F894DEBF0FBECDBF4EE01C
:102BF000F42EF9821FE11A8301E10B830C830D830C
:102C00000E830F831887AE014F5F5F4F60E081EF47
:102C100090E00E944717F9821A830B830C831D836F
:102C20001E831F831887AE014F5F5F4F61E081EF06
:102C300090E00E944717F9821A831B831C831D832F
:102C40001E831F831887AE014F5F5F4F62E081EFE5
:102C500090E00E94471728960FB6F894DEBF0FBE8B
:102C6000CDBFDF91CF911F910F91FF9008950F93EA
:102C70001F93CF93DF93062F142F64E670E00E941A
:102C8000FE3DEB0180E20E941B1480E20E941B14B7
:102C9000C436D10548F480E20E941B14CA30D10525
:102CA00018F480E20E941B14CE010E943713802F7B
:102CB0000E941B14812F0E941B1480E2DF91CF9190
:102CC0001F910F910C941B140F931F93CF93C62F3A
:102CD0001416BCF56FEF640F0C2F10E008301105CF
:102CE00008F5F801E65DFF4F0C94533E16E51BC056
:102CF00040E201C048E667E5CF911F910F910C9427
:102D00003716642FCF911F910F910C94CE1514EFAD
:102D100007C00E94C31585E50FC06EEF640F11E474
:102D200040E002C015E541E00E944F14812F0E944F
:102D30001B14C53031F488E6CF911F910F910C948C
:102D40001B14CF911F910F910895462F65E00C94AD
:102D50006416462F60E00C946416462F61E00C94D4
:102D60006416462F66E00C946416AC9881E090E0FF
:102D70000E94BA3DAC9A81E090E00E94BA3DAC98C6
:102D800084E690E00C94BA3DA09AA19AA29AA39AE4
:102D900060FF02C0A89A01C0A89861FF02C0A99A6A
:102DA00001C0A99862FF02C0AA9A01C0AA9863FF55
:102DB00002C0AB9A01C0AB980C94B5161F93CF9389
:102DC000DF93EC01162F442311F0AD9A01C0AD98AA
:102DD000612F70E084E0759567958A95E1F7CE01E3
:102DE0000E94C416612FCE01DF91CF911F910C94E8
:102DF000C41640E00C94DE1661E00E94F91680EDE6
:102E000097E00C94BA3DCF93DF93CDB7DEB7289708
:102E10000FB6F894DEBF0FBECDBF28E0E2E7F0E0CA
:102E2000DE01119601900D922A95E1F7FC012481B3
:102E3000421710F04FEF420FFE013196E40FF11DE3
:102E4000E40FF11D2081260F2068622F28960FB60F
:102E5000F894DEBF0FBECDBFDF91CF910C94F91671
:102E6000FC016181262F246021836C600C94F9168B
:102E7000FC0161816E7F618368600C94F916FC012E
:102E80006181262F2160218369600C94F916CF920D
:102E9000DF92EF92FF920F931F93CF93DF9300D0B7
:102EA000CDB7DEB77C01677088E0689FB001112460
:102EB0006064C70149835A830E94F9164981C42E70
:102EC0005A81D52E00E010E0F60161916F0141E0DA
:102ED000C7010E94DE160F5F1F4F08301105A1F7D2
:102EE0000F900F90DF91CF911F910F91FF90EF9076
:102EF000DF90CF900895CF93DF93EC01423018F02C
:102F00008881886088834C831D82222329F0413088
:102F100019F488818460888380E593EC0E94BA3D2F
:102F2000AD98AC9863E0CE010E94C41684E991E1AB
:102F30000E94BA3D63E0CE010E94C41684E991E18B
:102F40000E94BA3D63E0CE010E94C41686E990E07B
:102F50000E94BA3D62E0CE010E94C41668816062A0
:102F6000CE010E94F91684E08983CE010E943017B9
:102F7000CE010E94FC1682E08A8366E0CE01DF91DA
:102F8000CF910C94F916A59AA49AFC01108220E026
:102F900041E060E10C947B170C94C31741E00E9460
:102FA000DE1681E00895EF92FF920F931F93CF9367
:102FB000DF938C01F42EC62FD72FE42EE60EEC16ED
:102FC00031F0699141E0C8010E94DE16F8CF8F2DE3
:102FD000DF91CF911F910F91FF90EF9008956115B0
:102FE000710559F0FB0101900020E9F7AF01415054
:102FF0005109461B570B0C94D31780E00895FC0130
:1030000027818085E22FF82FE60FF11DE60FF11DD5
:10301000859194910C94CA130F931F93CF93DF93D0
:10302000EC018B01CB010E94682D682FCE010E941C
:103030006F188FE990E09983888318870F83DF9159
:10304000CF911F910F910895DF92EF92FF920F930E
:103050001F93CF93DF93EC01F62E69871A8681E0E8
:103060008D8382E0D82EEE24E3948E01075F1F4FFC
:103070000E941812482F823011F0843061F4E881E8
:10308000F9810280F381E02D6F2DCE010995F9863B
:10309000DA86ED8204C0813089F0883079F0C80189
:1030A0000E947A2E8111ED828D81882319F0CE0144
:1030B0000E949C188A858F5F8A87DACF8FEF898775
:1030C00081E08E838D83483009F080E0DF91CF91DD
:1030D0001F910F91FF90EF90DF9008950895FC01EC
:1030E00085EA90E09183808312821382648381E079
:1030F000858386830895FC012281211103C081E02C
:1031000082830895438130E0240F311D848190E053
:1031100001972817390714F44F5F43830895FC0182
:103120008281882319F081508283089583818823C6
:1031300011F08150838308951F93CF93DF93EC01A7
:1031400010E0612F80E00E947C1280E20E941B143C
:10315000E881F9816B81610F0190F081E02DCE0152
:1031600009950E942F141F5F123059F76A8180E081
:103170000E947C128EE30E941B146A818FE00E94E1
:103180007C128CE30E941B141D82DF91CF911F9152
:1031900008950F931F93CF93DF93EC010E941812B1
:1031A000182F0E942337882321F081E08D838FE739
:1031B0001CC00B818A81080F123031F0143039F4B1
:1031C000CE010E947B1803C0CE010E948F188B8114
:1031D0009A81890F081711F081E08D838D818823F2
:1031E00019F0CE010E949C18812FDF91CF911F9181
:1031F0000F910895EF92FF921F93CF93DF931F9249
:10320000CDB7DEB77C0181E0F701858311E0C7010E
:1032100069830E94C9186981811102C0F701168271
:10322000F7019681911108C0883031F481E08683DE
:1032300083819281890F09C0662311F0F7011583FC
:10324000813029F79111E3CF8FEF0F90DF91CF916C
:103250001F91FF90EF9008950F931F93CF93DF93EB
:10326000EC018B0150E00E94E2124AE3B801CE016A
:10327000DF91CF911F910F910C948E12EF92FF92DC
:103280000F931F93CF93DF9300D01F92CDB7DEB77C
:103290008C01462F0B969A8389838EE08B83D8010D
:1032A000EC91F0E0EE0FFF1FEB56FD4FE590F49030
:1032B000BE016D5F7F4FCE0101960E942C19A701C0
:1032C000BE016D5F7F4FCE0101960E94A91240E2C0
:1032D000BE016D5F7F4FCE0101960E948E12F801F4
:1032E00041815281BE016D5F7F4FCE0101960E94E8
:1032F000E2124FE2BE016D5F7F4FCE0101960E9448
:103300008E12D80117964D915C911897BE016D5F92
:103310007F4FCE0101960E94E2120F900F900F9006
:10332000DF91CF911F910F91FF90EF900895CF9370
:10333000DF9300D01F92CDB7DEB7462F2EE02B8350
:103340000B969A838983BE016D5F7F4FCE010196F4
:103350000E942C190F900F900F90DF91CF9108953C
:1033600029E1289FB001299F700D11246E557F4FD0
:1033700049E150E087E992E00C94893E29E1289FD9
:10338000B001299F700D11246E557F4F49E150E027
:1033900087E992E00C94A73EDC01EC91B6E0EB9F4C
:1033A000F0011124E60FF11DEE0FFF1FE75BFC4F4C
:1033B000859194910895DC01EC9146E0E49FF00141
:1033C0001124E60FF11DEE0FFF1FE75BFC4F859107
:1033D000949117962D913C911897AC01429FC00192
:1033E000439F900D529F900D11240895FC01A181DF
:1033F000B2812091E4033091E5030E94C13D24E6AF
:1034000030E040E050E00E94123E293EFDEF3F07D1
:103410004105510520F028EE3DEF40E050E0C901A4
:103420000895FC012081213029F42091DA033091A4
:10343000DB0309C0223029F42091D8033091D9034D
:1034400002C020E030E0FC0187819085AC01249F20
:10345000C001259F900D349F900D112408958091F7
:10346000D4039091D5030895FC016081FBE06F9F28
:10347000B001112465527D4F4BE050E00C94593E51
:10348000DC01EC91F0E0EE0FFF1FEB56FD4F859154
:1034900094910C94961360E170E00C94401ACF93D1
:1034A000DF93EC01888160E0811108C0CE010E94A9
:1034B000DB1967E00E94AD1687E011C0CE010E94C3
:1034C000DB1965E00E94AD168FE20E941B148F810C
:1034D00098850E94371383E40E941B1488E0DF91D3
:1034E000CF91089566E0FC01838194810E94A91622
:1034F00086E0089566E0FC01858196810E94A91608
:1035000086E00895FC0181819281883EFDEF9F074E
:1035100029F48BE892E00E94CA1303C067E00E947E
:10352000A51688E0089529E1AC01249FC001259FDC
:10353000900D112483559F4F08950F931F93CF93A0
:10354000DF93CDB7DEB7A6970FB6F894DEBF0FBEF8
:10355000CDBF8C01AB01BC01CE0101960E94241CA1
:10356000CE0101960E94A91C89E1FE013C96D8017A
:1035700001900D928A95E1F7A6960FB6F894DEBFFA
:103580000FBECDBFDF91CF911F910F910895FC0128
:103590002081260F2A3040F0161617061CF4FC0175
:1035A000108203C029E0FC0120830C94341A61E0EE
:1035B0000E94DB199C0140E050E060E871ED80EF73
:1035C00098E00E94123E29358BE1380741055105EC
:1035D00020F028E53BE140E050E0C901089561E0BA
:1035E0000E94DB199C0140E050E060E478E78DE741
:1035F00091E00E94123E293883E1380741055105C8
:1036000020F028E833E140E050E0C90108950F932D
:103610001F93CF93DF9300D0CDB7DEB78C016983C2
:103620007A830E94D71AAC0169817A81C801039616
:103630000F900F90DF91CF911F910F910C945E2E00
:103640000F931F93CF93DF9300D0CDB7DEB78C01DC
:1036500069837A830E94EF1AAC0169817A81C8017B
:1036600005960F900F90DF91CF911F910F910C94C1
:103670005E2EDC01EC91BCE0EB9FF0011124E55BD8
:10368000FC4F659174918CEC9DE80E94FE3DCB014E
:103690000895EF92FF920F93CF93DF9300D0CDB7B1
:1036A000DEB77C0169837A830E94391BF701208190
:1036B00069817A81211103C022E330E002C020E059
:1036C00030E001E0AC01C70107960E94F92D0F9090
:1036D0000F90DF91CF910F91FF90EF900895CF93CE
:1036E000DF93EC010E94391B2F81388582179307E5
:1036F00010F498878F83CE010E94D71A2B813C81CA
:103700008217930710F49C838B83CE010E94EF1ADB
:103710002D813E818217930710F49E838D83DF9164
:10372000CF9108950F93CF93DF93EC0104E620E04F
:1037300030E048EE5DEF01960E94F92D89819A8173
:103740009C838B832881233039F49C0136952795FF
:10375000369527953C832B839E838D83CE01DF9105
:10376000CF910F910C946F1B0F931F93CF93DF9307
:103770004BE050E06DE173E087E992E00E94593E32
:1037800087E992E00E946F1BC0E0D0E08E010F5FDE
:103790001F4FB80187E992E00E949719CE010E945D
:1037A000BE190032110511F0E801F0CFDF91CF9181
:1037B0001F910F910895FC01818592850895FC0168
:1037C00081859285883EF3E09F0719F483E892E0B3
:1037D00004C00E9437138EE792E00E94CA1386E06D
:1037E00008950F9301E020E030E048EE53E00996A1
:1037F0000E94F92D0F910895262F443019F06FEF94
:103800007FEF02C061E070E0223091F028F42223C3
:1038100049F0213051F00895243081F060F02530D6
:1038200081F008950B960C94C71A0B960C94491BC3
:103830000B960C94921B0B960C94071B0B960C94F6
:10384000201B0B960C94F11BEF92FF920F931F938A
:10385000CF93DF93EC018B017A0162ED73E00E945C
:103860000C188FEF89878BEA90E09983888389E130
:10387000F801DE011B9601900D928A95E1F7FDA2F9
:10388000ECA2DF91CF911F910F91FF90EF900895DF
:103890000F931F93CF93DF93CDB7DEB728970FB663
:1038A000F894DEBF0FBECDBF8C01BC016A5E7F4FB6
:1038B00027EC33E04EE050E0CE0101960E949711D4
:1038C000CE0101960E94A21181E0F801858328961D
:1038D0000FB6F894DEBF0FBECDBFDF91CF911F9121
:1038E0000F910895CF93DF93EC010E948A120E94FA
:1038F000821281EC93E00E94CA130E9486126EE04D
:10390000CE0146960E9462130E94662E83E0DF91EC
:10391000CF910C944437CF93DF93EC016CA17DA140
:103920006F5F7F4F0B960E943E19CE01DF91CF91C2
:103930000C94721CCF93DF93EC016CA17DA16F5F9F
:103940007F4F0B960E949719CE01DF91CF910C9477
:10395000721CDF92EF92FF920F931F93CF93DF932E
:10396000CDB7DEB769970FB6F894DEBF0FBECDBFF7
:103970008C0189E1D82EC8010B967C0160E0C8015A
:103980000E94FA1887FD30C0873041F0883051F02E
:10399000863061F4C8010E948B1CF0CFC8010E94E0
:1039A000481CECCFC8010E949A1CE8CFF701DE0149
:1039B00011969D2D01900D929A95E1F7682FC801FF
:1039C0000E942418811109C0FE013196D7018D2D66
:1039D00001900D928A95E1F7D1CF83E00E944437A0
:1039E000C7010E946F1BCACF69960FB6F894DEBF5D
:1039F0000FBECDBFDF91CF911F910F91FF90EF9040
:103A0000DF9008951F93CF93DF93EC01162F0E9450
:103A1000FF17CE0109960E946F2E882311F0298589
:103A200001C02FEF332727FD3095812F90E0281715
:103A3000390749F11230C9F048F4112389F01130E7
:103A400011F5CE010B960E944F1A1DC01430B9F02B
:103A500088F01530C1F4CE010B960E94DF1B13C015
:103A6000CE010B960E944B1A0EC0CE010B960E94FF
:103A7000821A09C0CE010B960E94721A04C0CE01B0
:103A80000B960E947A1A80E0DF91CF911F910895E2
:103A90000F931F93CF93DF9300D0CDB7DEB7898309
:103AA0009A830E94821289819A810E94CA130E947D
:103AB000861200913B0310913C03C8010E94623EB4
:103AC000892B19F0C8010E94CA130F900F90DF9143
:103AD000CF911F910F910C942F148091D00390914E
:103AE000D103892BA1F08FE10E94900765E02AE0C5
:103AF000AC01249FC001259F900D11240E94C31585
:103B00008DE60E941B1483E40E941B1404C081E90B
:103B100094E00E94CA130C942F148DE10E94900728
:103B200065E00E94C3158DE60E941B1486E50E9485
:103B30001B140C942F1490E0880F991F62E08A5D8B
:103B40009A4F0C9496130F931F93CF93DF9361E0DA
:103B500087E992E00E94DB198C0165E087E992E039
:103B60000E94DB19EC0186E10E9490078017910703
:103B7000B8F4C817D907B0F49C012C1B3D0BC80141
:103B80008C1B9D0B64E670E00E94FE3DC9010E9403
:103B9000FE3D6436710510F063E670E0862F03C0C9
:103BA00083E601C080E0DF91CF911F910F910895CE
:103BB000613011F40C942C0D0C94652BCF93DF9392
:103BC000D82FC62F81E28D0F0E94DD09882351F086
:103BD0006C2F8D2F0E94D81D46E06C2FDF91CF9166
:103BE0000C9464168FE195E0DF91CF910C94CA1389
:103BF000FF920F931F93CF93DF93182F062F0E94EE
:103C000082128091E702882319F01092E70203C024
:103C100081E08093E7029091E5028091E60299238A
:103C200011F08F5F01C081508093E6028091E6021F
:103C300086301CF01092E50205C082301CF481E051
:103C40008093E5021092B1020E94F20C811108C02B
:103C500083E090E00E94030E882341F0C0E209C097
:103C600080916302882321F0C2E403C0CDE601C045
:103C7000C2E680918502811103C08C2F0E941B1423
:103C800080918502882331F1D0E0C1E00E94EF0CE1
:103C9000D817D0F480918602D81761F08091850200
:103CA0008C2331F08091E702882321F082E003C069
:103CB00081E001C080E00E941B14C03811F0CC0FDD
:103CC00001C0C0E0DF5FE2CF0E94EF0C98E0981BDC
:103CD000892F25C08091E502882319F04EE3F42E48
:103CE00002C03CE3F32ECD3611F0C032B9F4C1E08E
:103CF000D0E02091E602332727FD30952C173D07B1
:103D000011F48F2D01C080E20E941B142196C73050
:103D1000D10579F780E20E941B1403C087E00E945E
:103D20002014D1E0D10F8D2F0E9448148AE30E9405
:103D30001B14602F812F0E94DE1D0E942F140E94F1
:103D40008612D830C8F4C2E0C10F8C2F0E944814EC
:103D50008AE30E941B14602F8D2F0E94DE1DC83045
:103D600059F083E0810F0E9448148AE30E941B14DB
:103D7000602F8C2F0E94DE1DDF91CF911F910F913C
:103D8000FF900C942F148BE10E94900768E00E9432
:103D9000A51680E20C941B140E94821220918A02C4
:103DA0008091C2039091C303223031F466E00E94F7
:103DB000C01584E195E005C065E00E94C01580E172
:103DC00095E00E94CA1380E20E941B140E944E2BB1
:103DD00067E00E94A9160E942F140E94861287E0B5
:103DE00095E00E94CA1367E08091B6039091B703F3
:103DF0000E94AD160C942F140F931F936091F20242
:103E00007091F3028091F4029091F5022091B0023A
:103E1000222371F00E9443070091F2021091F302F5
:103E20002091F4023091F502601B710B820B930B11
:103E300028EE33E040E050E00E94123EC9011F919D
:103E40000F910895CF930E94DC26811110C00E942B
:103E50003E27882331F00E94DC2681110AC0C4E489
:103E60000BC00E94F20C811106C0CEE405C0C3E471
:103E700003C0C5E401C0C2E40E94CC268111C7E59D
:103E80008C2F0E941B1480E20E941B140E94FC1EB7
:103E90000E94A91580E2CF910C941B140E948212FB
:103EA00080918A028230F9F40E944427882359F0D5
:103EB00066E080919C0290919D020E94C0158BE16A
:103EC00095E00E94CA130E94E226882371F066E002
:103ED00080919A0290919B020E94C01587E195E023
:103EE0000E94CA1302C00E94C31E67E089E10E94BB
:103EF0000C0A0E942F140E9486120E94221F67E063
:103F000086E10E940C0A0C942F140E9443076093D0
:103F1000F2027093F3028093F4029093F5021092F0
:103F2000EE021092EF021092F0021092F102109243
:103F3000EA021092EB021092EC021092ED0281E084
:103F40008093B00208950F931F930E94430700913E
:103F5000F2021091F3022091F4023091F502601BFD
:103F6000710B820B930B6093F2027093F3028093B8
:103F7000F4029093F5021092B0021F910F910895F0
:103F8000CF92DF92EF92FF920E9482128CEF94E028
:103F90000E94CA130E94FC1E0E94A9150E9486124C
:103FA00089EF94E00E94CA136091EE027091EF02D3
:103FB0008091F0029091F10258EEC52E53E0D52E7B
:103FC000E12CF12CA70196010E94123EC9010E942A
:103FD000A91586EF94E00E94CA136091EA027091DD
:103FE000EB028091EC029091ED02A70196010E94F4
:103FF000123EC901FF90EF90DF90CF900C94A9156D
:104000000E9482128DEE94E00E94CA130E946F2BD0
:1040100068E00E94B1160E942F140E94861285E16A
:104020000E94DD09882349F084EE94E00E94CA13BF
:104030000E94752B68E00E94B1160C942F140E9408
:1040400082128CED94E00E94CA1367E086E00E9421
:104050000C0A0E942F140E94861284ED94E00E94A4
:10406000CA1347E061E08091E6039091E7030E9464
:1040700064160C942F140E9482128DEC94E00E941E
:10408000CA1367E084E10E940C0A0E942F140E9468
:10409000861286EC94E00E94CA1367E085E10E94D4
:1040A0000C0A0C942F140E94821280EC94E00E945F
:1040B000CA138091D0039091D103892B29F065E038
:1040C00087E00E940C0A04C08EEB94E00E94CA13A1
:1040D0000E942F140E94861288EB94E00E94CA135B
:1040E00065E085E00E940C0A0C942F140F931F9337
:1040F000CF93DF9300D0CDB7DEB78B0189839A834E
:104100000E948A120E94821289819A810E94CA1397
:104110000E948612C8010F900F90DF91CF911F91DE
:104120000F910C94CA1387EA94E00E94481D0E94E4
:10413000861280EA94E00E94CA130E94FC1E0C942E
:10414000A91589E994E00C94481D0E9482120E94EE
:10415000C31E0E946D1D0E9486120E94221F0C9495
:104160008D1D0E94821288E894E00E94CA1367E0C5
:104170008EE10E940C0A0E942F140E9486128EE784
:1041800094E00E94CA130C948D1D0E94821288E74D
:1041900094E00E94CA138091D0039091D103892B9F
:1041A00031F00E94AD0769E00E94CE1504C084E79B
:1041B00094E00E94CA130E942F140E9486128AE67D
:1041C00094E00E94CA130C946D1D60E070E086E6D6
:1041D00094E00C9476200E94E5200C94662E60E01A
:1041E00070E08AE594E00E94762088E893E10C94E0
:1041F0004A0760E070E089E494E00C9476206091D6
:10420000EA027091EB028091EC029091ED0220E6BF
:104210003AEE40E050E00E94123EC9010895CF936B
:10422000DF938091E4028F5F843018F48093E4027E
:1042300002C01092E4028091E402833061F4C091E4
:104240006D00CF5FC0936D000E94CC288C1718F4CE
:1042500081E080936D00C0916D00C1500E94821278
:1042600080916D0061E090E00E94C01580E00E94A6
:104270001B14D0E0CC0FDD1FFE01EC54FD4F8081FC
:1042800091810E94A91581E00E94201482E00E9481
:104290001B14FE01E254FD4F808191810E94A915FB
:1042A0000E942F140E948612FE01E853FD4F68E021
:1042B000808191810E94A516CE52DD4F68E08881F1
:1042C00099810E94A516DF91CF910C942F14CF9362
:1042D000DF93C0E0DFE061E08D2F8C1B0E947C1239
:1042E0008FEF0E941B1460E08C2F0E947C128FEFD6
:1042F0000E941B148AE090E00E944A07CF5FC03101
:1043000051F78AE090E0DF91CF910C944A07CF9368
:10431000C82F0E948A120E94821289E294E00E94B1
:10432000CA1362E08C2F90E00E94C01580E49FE1E8
:10433000CF910C944A071092E1021092E002109281
:10434000DF021092DE028091E2028093E30210927B
:10435000DD021092DC020895CF93DF9328E630E06F
:104360008EEB92E0C4EBD2E0A2EDB2E068EC72E03A
:1043700045E05DE2F90151939F01FC011192119218
:10438000CF01199219921D921D92FB011192119267
:10439000BF01415079F7DF91CF910895CF930E94EB
:1043A0009B210E94AC210E94821264E070E087E9A8
:1043B00092E00E94401A80918A02823011F48EE3CA
:1043C00001C080E20E941B1487E992E00E944F1A0C
:1043D00080918A02823011F48CE301C080E20E9455
:1043E0001B1480913D030E949B1D0E9486120E9417
:1043F000A31D8093E20262E090E00E94C01586E473
:1044000094E00E94CA1388EE92E00E946F2E8823E7
:1044100019F0C091E80201C0CFEFC0FF05C065E010
:1044200084E10E940C0A03C085E00E94201480E20F
:104430000E941B148091970284508630A8F4C1FF1B
:1044400005C065E085E10E940C0A03C085E00E947A
:104450002014C2FF05C00E94FC09CF910C9448149F
:1044600080E2CF910C941B1466E0809198029091A9
:1044700099020E94A516CF910C942F140E94A31D9F
:104480008093E2029091E302981728F58093E3026B
:104490000E94FC1E2091DE023091DF02821B930BF2
:1044A0009093E1028093E0020E94FC1E9093DF0251
:1044B0008093DE028091E0029091E1022091DC0283
:1044C0003091DD022817390710F0232B21F4909347
:1044D000DD028093DC020895CF93DF930E943E2299
:1044E0000E94FC09811128C085E10E949007EC011F
:1044F00084E10E949007C817D90728F49C012C1B5F
:104500003D0BE90102C0C81BD90BC53FD140A0F04B
:1045100024E630E08091E302281B31094091DC025F
:104520005091DD02249FC001259F900D349F900D76
:104530001124DF91CF91089529E6EBCFFF920F93DD
:104540001F93CF93DF930E94CC28FF24FA94F80E98
:104550000E94CF28833429F50F2D112707FD1095D0
:10456000F801E859FF4F8083000F111FE801C25482
:10457000DD4F6091EA027091EB028091EC02909124
:10458000ED0228EE33E040E050E00E94123E398315
:1045900028838BE10E949007F801EE52FD4F918332
:1045A00080830E94CF28843429F5CF2DDD27C7FDD5
:1045B000D095FE01E859FF4F8083CC0FDD1F8E019F
:1045C0000C541D4F6091EA027091EB028091EC0255
:1045D0009091ED0228EE33E040E050E00E94123E60
:1045E000F801318320838BE10E949007C853DD4F8F
:1045F00099838883DF91CF911F910F91FF90089548
:104600000E94E22681112FC00E94442781112BC0F5
:104610000E94F20C8823A1F08091EE029091EF02AB
:10462000A091F002B091F10280599F4FAF4FBF4F60
:104630008093EE029093EF02A093F002B093F10208
:104640000E949E220E946C229093B3028093B20239
:104650008091E4028F5F893218F48093E402089518
:104660001092E40208958091EA029091EB02A091E9
:10467000EC02B091ED0280599F4FAF4FBF4F809336
:10468000EA029093EB02A093EC02B093ED02C0CF4C
:1046900081E09091E402953108F080E008950E9455
:1046A0003E220E9448238823B9F00E9482120E9471
:1046B000C31E67E089E10E940C0A0E942F140E9429
:1046C00086120E94221F84E494E00E94CA130E9472
:1046D000DC2681111CC02FC00E94821268E08AE192
:1046E0000E940C0A82E494E00E94CA1367E089E108
:1046F0000E940C0A0E942F140E94861268E08CE12E
:104700000E940C0A8FE394E00E94CA1314C08091A7
:10471000E202833680F48091DC029091DD024597BD
:1047200030F08091B2029091B3020C94A91588E305
:1047300094E00C94CA138091E20264E090E00E943D
:10474000C01586E394E00E94CA130C942F14909134
:10475000E9029F5F9093E90290E0FC013197E33119
:10476000F10570F5EE5CFF4F0C94533E0C944E1F18
:104770000C94CC1E0C94C01F0C94532061E007C015
:1047800061E083E00C94F81D61E006C066E080E023
:10479000F9CF66E0F6CF66E086E0F4CF0C94CE2148
:1047A0000C9400200C943B200C941F200C944F235D
:1047B0000C94B1200C94C5200C94A5200C940F21CE
:1047C00008958FEF8093E80208950F931F93CF937E
:1047D000DF930E940A27C0919A02D0919B0261E068
:1047E00087E992E00E94DB198C01CE0165E070E060
:1047F0000E94FE3D81E10E946C09EC0140E0BC0199
:10480000C8010E94992B81E10E94C52BCE01DF9146
:10481000CF911F910F910C94F02681E00C941C27EE
:104820000E943A08882321F00E94EB260C946C2CFD
:1048300008951092F6020C94E523CF93DF930E9423
:1048400010240E943008EC018091F602811111C001
:1048500062E087E992E00E94DB198C179D0748F41B
:1048600081E08093F60280919A0290919B020E94CF
:1048700004270E943A08882381F064E087E992E0E7
:104880000E94DB198C179D0740F481E595E0909319
:104890003C0380933B0381E030C00E94B207029743
:1048A00058F18091D6039091D703892B89F08DE13F
:1048B0000E949007EC0187E992E00E94111AD195BD
:1048C000C195D1098C179D071CF48DE495E0DFCFCD
:1048D0008091D0039091D103892B71F08FE10E94D8
:1048E0009007EC0187E992E00E942F1A8C179D0730
:1048F0001CF487E495E0CBCF82E0DF91CF9108955F
:104900008130910521F09093F8028093F702709323
:10491000FA026093F90208950F931F93CF93DF93E8
:10492000C091F702D091F802CE010E943B0F8C019A
:104930000E943008C817D90738F4C801DF91CF9119
:104940001F910F910C941D0F81E0DF91CF911F916A
:104950000F91089581E00E94A7270C94C90D0E9431
:1049600099270E947F0D21E08091EA039091EB034B
:10497000892B09F420E02093FB0282E10C94C52BE3
:104980000F931F93CF93DF930E948C24182F0E94C4
:104990004D27EC010E943A08882311F001E001C084
:1049A000012F8091FB02882329F0BE01812F0E94F4
:1049B0001D2C01C0812F882329F081E00E94A727A8
:1049C00081E00CC0002349F0BE01812F0E94392DE7
:1049D0008C179D0711F00E94862782E0DF91CF910E
:1049E0001F910F910895BC0182E10E946C090C9403
:1049F000382B0F931F93CF93DF938C01EB010E9411
:104A00008024BE0182E10E946C0940E0BC01C80123
:104A10000E94992BCE016AE070E00E94FE3DCB011E
:104A2000DF91CF911F910F910C94F32481E00E94AC
:104A30001C270C94C90D0E947F0D0E940A2781E15A
:104A40000C94C52B0F931F93CF93DF931F92CDB779
:104A5000DEB78C0181E149830E946C094981BC0168
:104A6000C8010F90DF91CF911F910F910C94992B5A
:104A70000F931F93CF93DF93C091B603D091B703E9
:104A8000CE010E943B0F8C010E9430088C179D07BD
:104A900038F4C801DF91CF911F910F910C94FF0E54
:104AA00081E0DF91CF911F910F9108951F93CF93D4
:104AB000DF930E943825182F0E94EB26EC01BC01E1
:104AC000812F0E941D2C882329F081E00E941C2741
:104AD00081E019C00E943A08811107C0111105C078
:104AE000CE010E94562B882369F00E94F20C81119E
:104AF00009C0BE01812F0E94392D8C179D0711F02E
:104B00000E94F02682E0DF91CF911F9108950E94CC
:104B100016250E94AA240C94C90DCF93DF931F92EF
:104B2000CDB7DEB79091FD02913039F018F0923098
:104B300039F00FC00E9456250CC00E94C02409C045
:104B40000E94D00E823089F089830E948725898156
:104B50000CC0813051F49091FC02992331F082E035
:104B60008093FD020E947F0D82E00F90DF91CF9134
:104B700008950E947F0D80910203909103030E948B
:104B80003B0F0E941D0F20910203309103038823E5
:104B900069F0609100037091010340E0C9010E9437
:104BA00022250E941B251092FD0208956091FE02AD
:104BB0007091FF02C9010E94F9240E94AF2481E094
:104BC0008093FB028093FD0208958093FC02089578
:104BD0009093030380930203709301036093000397
:104BE0005093FF024093FE02089587E08093E8020D
:104BF00082E08093E9020E943D3783E080930503C1
:104C000008950F931F93CF93DF938091040388231C
:104C100079F00E94FC0990919E0201E0981301C076
:104C200000E011E0811110E0913021F4112311F026
:104C300010E000E085E10E94DD09882309F45CC0F2
:104C400085E10E949007EC0184E10E949007C8175B
:104C5000D90728F49C012C1B3D0BE90102C0C81B9D
:104C6000D90BC53FD14008F447C0C1E0011102C0D3
:104C700087E001C083E08093E802112329F080914E
:104C8000E80282508093E802CC2329F08091E80268
:104C900081508093E802011104C0111102C0CC239D
:104CA00031F081E00E944437111107C004C088E050
:104CB0000E94443708C0002331F08091EC039091AA
:104CC000ED03892B11F4D0E001C0D1E00E94EC117A
:104CD000811102C010920503D11106C0C11104C098
:104CE0000E94EC11883051F080910503823011F45C
:104CF00081E00AC082E008C0C0E0B8CF809105031F
:104D00008F5F80930503F0CFDF91CF911F910F91BB
:104D100008958FEF8093E80288E00C9444378093E5
:104D20000403089510920C0308950E94430728EE8F
:104D300033E040E050E00E94123E2093080330939D
:104D4000090340930A0350930B0308950E944307FD
:104D500028EE33E040E050E00E94123E60910603EE
:104D6000709107038091080390910903A0910A03B1
:104D7000B0910B03860F971FA11DB11D82179307DA
:104D8000A407B50728F081E080930C0382E0089522
:104D900010920C0381E0089580910C0308952CE398
:104DA000AC01249FC001259F900D1124909307030F
:104DB000809306030C94952681E090910F03911146
:104DC00080E0089581E020910D0330910E03232BA4
:104DD00009F480E0089580910D0390910E030895E9
:104DE00020916F00223041F02091F6033091F703BB
:104DF0002817390708F4C90190930E0380930D0317
:104E00000E94BD050C94B708BC0181E10E946C09A9
:104E10000C94F02680910F03882369F010920E0302
:104E200010920D0380E090E00E94F02681E00E9445
:104E3000B10510920F030895CF93C82F80910F03EF
:104E400081110FC0CC2369F080E090E00E94F02631
:104E500010920E0310920D0380E00E94B105C093E2
:104E60000F03CF91089510920E0310920D0380E06E
:104E700090E00E94F02681E00C941C2781E0909144
:104E80001403911180E0089581E020911203309184
:104E90001303232B09F480E008958091120390916D
:104EA00013030895CF93DF93EC014091CE0350910B
:104EB000CF03BA01645F714085E193E00E94732DD6
:104EC00080911503882311F0C0E0D0E0CE01DF917E
:104ED000CF910895CF93C82F809110039091110323
:104EE0000E945227209112033091130382179307D7
:104EF00011F4CC2349F090931303809312030E9482
:104F0000C105CF910C94B708CF91089520916F00FF
:104F1000223041F02091F8033091F9032817390726
:104F200008F4C901909311038093100381E00C945D
:104F30006A2780911403882349F080E090E00E9462
:104F4000862781E00E94B705109214030895CF933D
:104F5000C82F8091140381110BC0CC2349F080E04D
:104F600090E00E94862780E00E94B705C09314035A
:104F7000CF91089580E090E00E94862781E00C9414
:104F8000A72780911403811102C00C946A27089509
:104F900080919702893051F09CEF980F963048F03D
:104FA0008150823048F488E293E008958FE193E0E5
:104FB000089581E393E0089586E193E0089581E701
:104FC00095E0909389028093880290919702945083
:104FD00081E0963008F080E00E948F2661E084E353
:104FE00096E00E94A20F91E0813009F090E0892FB5
:104FF00008950F931F93CF93DF930E94E5250091AF
:105000009C0210919D02C0919A02D0919B0263E094
:1050100087E992E00E94DB19A801BE010E94E82501
:105020008BE695E0909389028093880260E08BE3A1
:1050300096E0DF91CF911F910F910C94A20F1F93D7
:10504000CF93DF93162FC0919A02D0919B0261E01B
:1050500087E992E00E94DB1940E0BE010E94222510
:1050600085E695E09093890280938802612F80E61F
:1050700096E0DF91CF911F910C94A20F1F93CF93D5
:10508000DF93182FC0919A02D0919B0261E087E9CB
:1050900092E00E94DB1941E0BE010E94222525E634
:1050A00035E03093890220938802612F80E696E0F4
:1050B000DF91CF911F910C94A20F29E535E0309339
:1050C000890220938802682F8BE796E00C94A20F48
:1050D000CF93C82F62E087E992E00E94DB196091CC
:1050E0009C0270919D02A0919E02B0919F02E0915E
:1050F000E803F091E903AE9F9001AF9F300DBE9F92
:10510000300D1124820F931F0E94F9242FE535E002
:1051100030938902209388026C2F89E496E0CF9126
:105120000C94A20F1F93CF93DF93182FC0919C0272
:10513000D0919D0262E087E992E00E94DB19BE01F6
:105140000E94F9242FE535E03093890220938802EC
:10515000612F80E796E0DF91CF911F910C94A20F11
:1051600082E192E0909389028093880260E089E571
:1051700096E00C94A20F8091DE039091DF030E94D1
:10518000CF2687E795E0909389028093880261E0BB
:1051900089E496E00C94A20F80913A0308958091DF
:1051A0006E000895813019F481E00C946828811113
:1051B00003C081E00C9492288230B1F380E008951E
:1051C00040913A0350E02091DC033091DD03421717
:1051D000530789F0813041F42091EC033091ED03C5
:1051E000232BD9F0862F10C0811102C0862F10C04A
:1051F0008230C9F412C0813049F48091EC0390915F
:10520000ED03892B49F080E00C943E28811102C007
:105210000C945D28823039F460E08091E203909133
:10522000E3030C941F2880E008950F931F93CF93FE
:10523000DF93C82F81E080933A0314E4D7E503E4B9
:1052400040913A0350E02091DC033091DD032417B4
:105250003507E8F10E94E50C10936E008C2F0E9438
:10526000D2288130A9F5D0936E000E94BB288130EE
:1052700079F50E949B210E94E50C00936E004091FD
:105280003A0350E02091DC033091DD0342175307CD
:1052900011F061E001C060E08C2F0E94E0288130B5
:1052A000B9F4D0936E0040913A0350E02091DC03B2
:1052B0003091DD034217530721F00E94BB28813053
:1052C00039F480913A038F5F80933A03B9CF81E03C
:1052D000DF91CF911F910F910895CF93C82F8093A5
:1052E0003D032DE735E030933C0320933B038F30A3
:1052F00030F4E82FF0E0E155FF4F808101C080E0FD
:1053000080936F000E9446380E94DB080E94DF27CE
:105310008823F1F184E00E9444378C2F90E08F3095
:105320009105A0F5FC01EB5BFF4F0C94533E60E050
:105330008091E2039091E3030AC00E94B02828C044
:1053400080E00E94682824C060E085E090E00E9430
:105350001F281EC060E080E002C060E081E00E9483
:10536000F92716C080E00E945D2812C080E00E94EC
:1053700092280EC081E003C080E001C082E00E945C
:10538000152906C080E00E943E2802C00E94EB2042
:105390000E94EA08CF910C9456380F931F93CF9335
:1053A000DF93EC010E94B0190E94C8278C0160E0D5
:1053B000C8010E94FA1887FD29C090919702E82F32
:1053C000FF27E7FDF095993019F4E356FA4F0FC027
:1053D0008CEF890F863018F4EC54FA4F08C09150C6
:1053E000923018F4E157FA4F02C0E258FA4F849114
:1053F0008F3049F4BE0187E992E00E949D1ACE01E8
:105400000E94BE19D1CF0E946D29D1CFDF91CF91DB
:105410001F910F9108956DEB75E081E393E00E9479
:105420000C1863E975E088E293E00E940C1864EAC6
:1054300075E08FE193E00E940C1863E875E086E167
:1054400093E00C940C18FC014281538141155105E5
:1054500091F0A081B181B7FF03C0B195A195B109C9
:1054600028EE33E00E94D03D9A0140E050E00E94D7
:10547000123EC901089580E090E008950F931F93B4
:10548000CF93DF9300D000D0CDB7DEB78C01862F4D
:10549000F801628173810E9408099C838B83F80163
:1054A000808191819A838983CE0101960E94232A6B
:1054B0000F900F900F900F90DF91CF911F910F9150
:1054C00008950F93FC01CB01002341F046175707C5
:1054D00008F4CA016417750748F407C06417750714
:1054E00008F4CA014617570708F4BA019783868360
:1054F00091838083138212821582148233872287DC
:10550000681B790B718760870F910895FC019B01DF
:1055100040E050E086819781281B390B41095109F1
:10552000A285B3850E94D73D20853185442737FD6C
:105530004095542F0E94343E2115310581E04807E3
:10554000510524F457FD05C0C90108958FEF9FEF61
:10555000089580E090E00895DF92EF92FF920F931C
:105560001F93CF93DF93EC012A813B8124173507EA
:1055700020F4FA01E21BF30B03C0F901E41BF50B65
:105580008C819D81969587958E179F0770F58881F0
:1055900099818617970720F4FB01E81BF90B03C0DC
:1055A000FC01E61BF70BEF2B01F12417350738F44C
:1055B0008A01021B130B7B01E81AF90A06C07C0161
:1055C000E61AF70A8901041B150BC7010E94A12DD9
:1055D000D82E888599850E94A12DD81206C01D83DA
:1055E0000C83F986E8861B870A87DF91CF911F918C
:1055F0000F91FF90EF90DF9008950F931F93CF933B
:10560000DF93EC018B019A01A885B9850E94D03DFA
:105610002A853B8540E050E00E94343EC801A0E06E
:10562000B0E082179307A407B5071CF41F821E82FF
:1056300004C0021B130B1F830E83DF91CF911F91B8
:105640000F910895EF92FF920F931F93CF93DF93E3
:10565000EC018B017A010E94AC2AA701B801CE01AE
:10566000DF91CF911F910F91FF90EF900C94FD2A45
:105670008233910510F482E390E09093BD03809310
:10568000BC03089580914003813029F48091BC03CC
:105690009091BD03089580E090E008956091B80373
:1056A0007091B903809142030C940809209145033D
:1056B000213041F041E02091BC033091BD038217BD
:1056C000930708F040E0842F08952CE0829FC001EA
:1056D000112460914203825B9C4F0C943E2A60919E
:1056E00042038EEA93E00C943E2ACF93DF9300D0DE
:1056F00000D0CDB7DEB784E10E9490079A838983FA
:1057000085E10E94900729813A81281B390B3A8351
:10571000298389E10E9490079C838B83CE010196A7
:105720000E94232A0F900F900F900F90DF91CF913E
:1057300008959B018130910531F09093B7038093D8
:10574000B603409341033093B9032093B8036091AB
:10575000E2037091E303C9010E94FE3D7093BD0313
:105760006093BC032233310530F482E390E09093E0
:10577000B9038093B8036233710530F482E390E09B
:105780009093BD038093BC030895EF92FF920F9313
:105790001F93CF93DF9391E090934003FF24F39402
:1057A000813109F0F12C8093420360EA70E00E949D
:1057B0006C099093BB038093BA030E943008209138
:1057C000BC033091BD034091B6035091B7030F2D38
:1057D000BC0186EA93E00E94612A0E94EF0C80934C
:1057E00043038091B6039091B7030E943B0FEC01F5
:1057F00010E08CE0E82E80914303181798F4812F75
:105800000E942C0DBC012091BC033091BD03E19E90
:10581000C00111240F2DAE018A5B9C4F0E94612AAA
:105820001F5FE9CF1092450310924403DF91CF919F
:105830001F910F91FF90EF9008950F931F93CF93B7
:10584000DF93082FEB01809141038823C9F0409139
:10585000BA035091BB032091BC033091BD032417C0
:10586000350708F49A012C173D0710F410928402B2
:1058700080914503813021F00E94D00E8093400337
:1058800080914003813011F580914503823041F4CD
:1058900011E02091BC033091BD03C217D30708F07B
:1058A00010E00E94422B8C179D0770F0111102C06E
:1058B000002351F09091440381E0890F80934403C9
:1058C00081E09A3020F402C01092440380E0DF911E
:1058D000CF911F910F9108950F931F93CF93DF9353
:1058E000EC010E943008AE01BC0186EA93E00E9400
:1058F000222B10E00CE080914303181770F4812FE5
:105900000E942C0DBC01019FC0011124AE018A5BD5
:105910009C4F0E94222B1F5FEECFDF91CF911F91F2
:105920000F910895CF92DF92EF92FF920F931F9302
:10593000CF93DF936091B6037091B70386EA93E04B
:105940000E94862A8C018091B6039091B7030E9431
:105950003B0F7C01D12C9CE0C92E80914303D816CB
:1059600098F4CD9CE0011124CA5BDC4FB701CE0155
:105970000E94862A0817190728F0B701CE010E9455
:10598000862A8C01D394E9CFC801DF91CF911F9172
:105990000F91FF90EF90DF90CF9008950F931F939A
:1059A000CF93DF93EB018093B4039093B5032091E1
:1059B000B8033091B9038C012817390708F489011D
:1059C0000E94422B8017910708F4C801C817D90715
:1059D00011F1209145032230A9F48C179D0790F016
:1059E0002091BC033091BD032C173D07A0F04091DE
:1059F000B2035091B3032091590230915A024217D9
:105A0000530749F02091590230915A023093B30361
:105A10002093B20301C0CE01DF91CF911F910F916E
:105A200008950F931F93CF93DF93EC010E943008EA
:105A30009093A7038093A603D093A903C093A803D0
:105A400010E00CE080914303181770F4812F0E943E
:105A50002C0D019FF0011124EA5BFC4F91838083A0
:105A6000D383C2831F5FEECFDF91CF911F910F9140
:105A700008951F93CF93DF93182FEB01CB010E9462
:105A80006C2CCE010E94112D0E94922C90933F030A
:105A900080933E03BE010E94CE2C2091450321112C
:105AA00010C0112389F080914103882321F00E94C6
:105AB000C20D1092840281E08093450380E090E063
:105AC00003C022E020934503DF91CF911F910895F9
:105AD00040E0FC01259134910296232B11F04F5F99
