:100000000C9424050C944C050C944C050C944C0554
:100010000C94C23A0C944C050C944C050C944C0571
:100020000C944C050C94FE3A0C94C4060C944C05AC
:100030000C944C050C94953B0C94CA3B0C944C05C9
:100040000C94E8060C944C050C944C050C944C054F
:100050000C944C058C167316751677167E168A1638
:1000600084168616CB23B323B523B723B923BB232A
:10007000BD23C123C323C623C823D923CD23CF2324
:10008000D123D523D723D323DB239429BF299A292E
:100090009D29A129A729AA29AF29B329B729B929B7
:1000A00094299D29A129BB29833386338F33983323
:1000B0009A339E33A133453649364B365036533644
:1000C00055365A365D3660366336663669366C3676
:1000D000713677367C368336863689368E3691365B
:1000E000BE36C236C536CA36CC36CF36D436D6360C
:1000F000DA36DE36E436E836EA36EE36F436F93607
:10010000FD36FF36033709370D37EA37EC37EE3760
:10011000F237F237F037F637F4370000000080C6C8
:100120004E5A000000007C6B0831000133000028AB
:10013000D007800133004023E80300000000C0AE78
:100140004E5AFC5350143FA0540B0000000000BB5B
:10015000C43680186009DC3770170000000000000A
:1001600000000000000044C4FA0E0000000000C4BB
:10017000FB0E0000000068C4FD0E00000000AAC5D0
:10018000160F0000000040C6190F0000000040C715
:100190002D0F0000000040C6190F0000000040C7EE
:1001A0002D0FB00032006001E8034F0132009E02C3
:1001B0002C01FF0000000005040000040900FF01FD
:1001C00001000105050001040A00FF02020002050A
:1001D000060002040B00FF030300030507000304ED
:1001E0000C00FF0000000405130204040D00FF01D1
:1001F00001000505130405040E00FF0202000605B8
:10020000130106040F00FF0303000705130807048A
:1002100010007F0DC90DD00E436865616C692D43D8
:10022000686172676572206D0076302E33336D5FC2
:100230003230313430383331003D0200006F707499
:10024000696F6E7300010001000100010001000AE6
:1002500000640001000300080009000A000B000C04
:1002600000010002000400060008000A000C006DF6
:100270005600206E6F0079657300496E66006D69E7
:100280006E2E00756E6C696D697400756E6C696DAB
:100290006974656400D602D102CC02C702C202BDF5
:1002A00002B802B302AE02A9024E695A6E004C3483
:1002B0003335004C343330004C69706F004C696C3E
:1002C0006F004C6966650050622020004E694D4801
:1002D000004E69436400556E6B6E000098089808E4
:1002E0006C0710275802019808F4016C070100E020
:1002F00001029808F4016C070100E001039808DC92
:10030000006C070600E00104980898086C070300D9
:10031000780005980898086C07030078000698088C
:1003200098086C070300780007980898086C070382
:1003300000780008980898086C070300780009986E
:100340000898086C07030078000100010001000113
:100350000000000100B0041C07520300000807520F
:1003600003B0044006E80300000807E803D0079242
:1003700009D606000000006C07E40C100ED007E45C
:100380000C0000B80B100E0410C409A60E0000AC3F
:100390000D740E6810B80B0A0F0000890C740ECC97
:1003A00010B80B0A0F0000890C740EFE10B80B0A6F
:1003B0000F0000890C40066C071405400600007809
:1003C000054E616D653A0045646974206E616D6526
:1003D0003A0022041D04180413040E040704FB034E
:1003E000F103E60300005265736574206E616D656C
:1003F0000045646974206E616D65004372656174C7
:1004000065206E616D6500546C696D3A2000496429
:100410003A200049633A200043683A2000563A20C7
:1004200020004261743A20200043616C2E65727294
:100430002E2020463A002500202D2D3A2D2D00207B
:1004400020002000200025200052455645525345EB
:1004500020504F4C415249545900706C656173658E
:100460002063616C2E004E2F410064656C74612026
:10047000543D20004E2F4100546578743D00646562
:100480006C746120563D20006D6178566F75743D27
:10049000006E6F2064542F74004572726F723A00C0
:1004A00054696D653A200070726F6772616D2063E8
:1004B0006F6D706C6574650054696E743D002D003D
:1004C000546578743D005662616C2E3D00566F7520
:1004D00074203D00206C696D69743D0056696E7032
:1004E00075743D00776972657320523D00626174D6
:1004F000742E20523D0020200062200074696D653A
:100500003A2020202020004C696D6974733A200045
:100510006D4168003C20006D4120006D41200020AD
:10052000202D2D20200043684342426C44694643FD
:100530005374534243684469435963794368446937
:100540004650435045420064542F6474002D645655
:100550000056206C696D69740016240A241A24ACB4
:1005600024A724BD24182513255325B62584258AC0
:1005700025F2258626FE2592268F26A326000B0C23
:100580000D0E0F2D060C060006DE05D10500000736
:10059000080A0F2D060C06DE05D105000000010239
:1005A0000304090F2D061E0616060C060006DE05BE
:1005B000D105000000010203040506090F2D061EE7
:1005C0000616060C060006F805E905DE05D105004D
:1005D0000065646974206261747465727900443ED8
:1005E0004320666F726D61740073746F726167652A
:1005F0002B62616C616E630073746F72616765007A
:10060000666173742063686172676500646973630F
:1006100068617267650062616C616E636500636842
:10062000617267652B62616C616E6365006368610E
:1006300072676500010607080F0500021206070829
:10064000090A0B0D0E0F0405000212060708090A1D
:100650000B0D0E0F0405130300060708040F050019
:100660000212060708090A0B0D0E0F0405130300FA
:100670000212110D0E0F040513030002120C1011CB
:100680000D0E0F04051303004558542054206C69C7
:100690006D69740054696D65206C696D69740043FF
:1006A0004150206C696D697400494E505554205674
:1006B000004857204641494C555245004F56455237
:1006C0004C4F4144206572720042414C2062726579
:1006D000616B00424154206469736300494E5420A9
:1006E000540020436F6E6E656374204261747465BC
:1006F000727900436F6E6E65637420426174746535
:1007000072792100000114070C070000566D696E14
:1007100075733A0056706C75733A200029072207EA
:10072000000076616C75653A0074656D703A200062
:100730003F0736070000706F696E7420322E00701C
:100740006F696E7420312E0056074E070000444139
:1007500054413A20200076616C75653A20003200E1
:100760002C013200E80378077207000084077D0738
:1007700000003330306D410035306D410031303094
:10078000306D410035306D410006090A0B0C0D0E2D
:100790000F100621222324252627281514F107EB04
:1007A00007E507DF07D907D307CD07C707C107BB91
:1007B00007B5070000566F75743A0056312D383A68
:1007C000005662383A20005662373A2000566236A8
:1007D0003A20005662353A20005662343A200056DC
:1007E00062333A20005662323A20005662313A2093
:1007F0000056696E3A20004F0846083A082E082233
:100800000816080708000065787065727420444176
:100810004E474552210063616C69622D3E5541523D
:10082000540074656D7020696E7465726E00746535
:100830006D702065787465726E0049206469736319
:100840006861726765004920636861726765007658
:100850006F6C746167650077086D085F080000724F
:10086000657365742064656661756C740063616CA2
:100870006962726174650073657474696E67730090
:1008800080250000004B00000096000000E1000001
:1008900000C2010046008813701700007017640042
:1008A000010005000F0005001E0001000A0078008D
:1008B000581B0000010001000800000000000000BB
:1008C00000000000432F6D00F108EA08E408DB088F
:1008D000D2086578742E20416463006578742E20F8
:1008E000646562006465627567006E6F726D616C4D
:1008F0000064697361626C656400050AFA09EF09B6
:10090000E309D809D109C509BB09B109A5099909A4
:100910008D09800976096B09620956094A0940095F
:100920003909310928090000202020726573657497
:100930000073706565643A2000554152543A2000B6
:1009400062616C2E206572723A00666F7263652078
:1009500062616C3A20006469732061677265733A62
:1009600020006469736368202B3A00696E707574A7
:10097000206C6F773A0063617020434F66663A00DF
:100980006D696E2E492049203D20492F0062656522
:10099000703A202020202020007761737465205455
:1009A0002E3A202000442F43206379636C65733A0C
:1009B000004E694364202D64563A004E694D48202C
:1009C0002D64563A00656E6162202D64563A2020EF
:1009D0000064542F64743A00657874726E20544336
:1009E0004F3A00657874726E20543A2020200064DB
:1009F00069736368206F66663A0066616E206F6E89
:100A00003A202020006261636B6C696768743A0069
:100A100016191B1A1C070506212223242526272820
:100A20007265736574696E6720656570726F6D3A83
:100A300000763A20382E35312E3536200000170644
:100A4000EF10DE23082A013D11241FBECFE5D8E0B8
:100A5000DEBFCDBF10E0A0E6B0E0E2E8FDE702C0F7
:100A600005900D92A03FB107D9F715E0A0EFB0E0D7
:100A700001C01D92A133B107E1F71AE0C8E4DAE042
:100A800004C02297FE010E94463ECE33D107C9F72B
:100A90000E94EA100C94BF3E0C940000CF92DF92AB
:100AA000EF92FF92482F282F30E0A0E0BDE70E9490
:100AB000B23D6B017C01A4E6B0E0A41BB10924E6C1
:100AC00030E00E94C13D6C0D7D1D8E1D9F1D24E6F2
:100AD00030E040E050E00E94033EB9018DE0FF901D
:100AE000EF90DF90CF900C946B3B882311F0909A9D
:100AF0000895909808958091F700882331F08091AF
:100B0000F0008F5F8093F00002C01092F00080919F
:100B1000F7008A3010F480E001C084E09091F70083
:100B2000943108F082E09091F7009E3108F081E066
:100B30009091F000982311F0979A0895979808954E
:100B40002091E0033091E103232B11F08093F70013
:100B50000895811103C0939AC49808959398C49AF4
:100B60000895811102C0969A08959698089581116A
:100B700002C0929A089592980895BC018EE00C9458
:100B80006B3BBC018EE00C946B3B80FF02C0C09AB3
:100B900001C0C09881FF02C0C19A01C0C19882FF04
:100BA00002C0C29A01C0C29883FF02C0C39A01C0AA
:100BB000C39884FF02C0DE9A01C0DE9885FF02C0A0
:100BC000DF9A01C0DF9886FF02C0AE9A01C0AE98DE
:100BD00087FF02C0AF9A0895AF9808958C9A8B9AB8
:100BE000889A8F9AB89AB99ABA9ABB9AD69AD79A8B
:100BF000A69AA79ABC9A8D9A8E9A8D9A8A9A80E024
:100C00000E94A90580E00E94750580E00E94A00571
:100C100080E00E94C50520E042E060E181EF90E0C5
:100C20000E9478170E94813B0C941B06089581EF67
:100C300090E00C94C917D598D498DD98DC98BF9AA9
:100C4000BE9ABD9A80B7806680BF8FEA86B910923F
:100C5000F9000C94F23A87FD21C04091660050E003
:100C6000682F772767FD709564177507B9F0809333
:100C7000660098B3282F217030E0220F331F220F17
:100C8000331F82FB332730F9232B8270282B80E21D
:100C90002802900111249F71922B98BB089584B172
:100CA00045B12091F90030E0F901EE0FFF1FEE0F82
:100CB000FF1FEC54FE4F9491F901EE0FFF1FEE0F52
:100CC000FF1F933171F02FB7F894E92FF0E0EE0F8A
:100CD000FF1FEC51FE4F90E0942B918380832FBF38
:100CE0000895EB54FE4FE4918091F80047FD02C057
:100CF000E82B02C0E095E823E093F80008951092F5
:100D0000F90008950E94E826909307028093060256
:100D10000E944A2790930902809308020C94550A76
:100D2000E091F900EF5FE83108F0E0E084E0E89F4F
:100D3000F0011124EE54FE4F84910C942B06CF93B6
:100D4000C091F90081E0C11101C080E00E944F060E
:100D5000E1E0EC0FE83108F0E0E0E093F90084E036
:100D6000E89FF0011124ED54FE4FE491E062E7B9F1
:100D70008091F900811103C0CF910C948206CF912C
:100D800008958091F80008951F920F920FB60F9268
:100D900011242F933F934F935F936F937F938F9380
:100DA0009F93AF93BF93EF93FF930E949006FF91A1
:100DB000EF91BF91AF919F918F917F916F915F91D3
:100DC0004F913F912F910F900FBE0F901F9018954C
:100DD0001F920F920FB60F9211242F933F934F93B0
:100DE0005F936F937F938F939F93AF93BF93EF9393
:100DF000FF930E949F06FF91EF91BF91AF919F914A
:100E00008F917F916F915F914F913F912F910F90B3
:100E10000FBE0F901F9018952FB7F8946091FA00AD
:100E20007091FB008091FC009091FD002FBF089510
:100E30000E94862E0E94A1390E94BE270E94FA3786
:100E40000C94E10C8091FA009091FB00A091FC00C1
:100E5000B091FD000196A11DB11D8093FA00909301
:100E6000FB00A093FC00B093FD00809167008150CF
:100E700019F080936700089581EE809367000E94C7
:100E80003C0A0C94FD220E940C0796958795779555
:100E900067950895CF92DF92EF92FF92CF93DF9301
:100EA000EC010E9443076B017C01CC0EDD1EE11CAE
:100EB000F11C0E9443076C157D058E059F05C8F344
:100EC000DF91CF91FF90EF90DF90CF900895CF9278
:100ED000DF92EF92FF92CF93DF93EC010E944307E2
:100EE0006B017C01CC0EDD1EE11CF11C0E9443074E
:100EF0006C157D058E059F0518F40E941807F6CF26
:100F0000DF91CF91FF90EF90DF90CF900895E82F81
:100F1000F0E0EE0FFF1FE254FE4F808191810895B3
:100F2000E82FF0E0EE0FFF1FE459FE4F8081918122
:100F300008952FB7F894E82FF0E0EE0FFF1FEC5163
:100F4000FE4F808191812FBF0895809158020895AE
:100F50008091180190911901089580910601909156
:100F60000701089580910801909109010895E82FE3
:100F7000F0E0EE0FFF1FE65EFE4F80819181089545
:100F8000262F633110F4423040F021E030E0FC01C4
:100F90003383228331832083089550E0BA01620FA6
:100FA000711D620F711D660F771F660F771F665FD9
:100FB0007F4F44E050E00C947A3E282FCA01233141
:100FC00088F4623078F470E0620F711D620F711D59
:100FD000660F771F660F771F665F7F4F44E050E014
:100FE0000C94983E0895FF920F931F93CF93DF9335
:100FF00000D000D0CDB7DEB70AE111E0F12CF80146
:10100000459155916591749149835A836B837C8393
:10101000AE014F5F5F4F60E08F2D0E94DD07F8014A
:101020003496459155916591749149835A836B83A8
:101030007C83AE014F5F5F4F61E08F2D0E94DD0723
:10104000F394085F1F4F83E1F812D9CF0F900F90F0
:101050000F900F90DF91CF911F910F91FF90089506
:101060008091980190919901089580919E019091AD
:101070009F0108958091460190914701039750F098
:1010800080914C0190914D01039720F083E090E016
:101090000C94030E80E008958FB7F894EAE0F2E034
:1010A000119211921192119292E0E635F907C1F76F
:1010B00010925702109256028FBF0895CF93CFB768
:1010C000F8941092170110921601109212011092CA
:1010D0001301109214011092150110920E0110923A
:1010E0000F01109210011092110110920A0110923A
:1010F0000B0110920C0110920D010E9443076093A6
:101100000201709303018093040190930501CFBF06
:10111000CF910895CF93DF930E944C080E945E0800
:10112000C0911801D0911901809118019091190175
:10113000C817D90729F48AE090E00E946707F4CF26
:10114000DF91CF9108950E945E08109209011092DC
:10115000080110920701109206010895EAE1F1E0FA
:101160001192119281E0EC36F807D1F708950E94B0
:101170004C080E945E080C94AE088FB7F894109249
:10118000FE001092FF0010920001109201018FBF2B
:1011900010921901109218010E947F060E94B70850
:1011A0000E94A308ECE6F1E01192119281E0EE3B7F
:1011B000F807D1F708958091580281110AC081E0A3
:1011C0000E94A9050E94BD0881E0809358020C94FA
:1011D0008A0808951092580280E00C94A905CF93D4
:1011E000DF9381E00E949907EC0180E00E9499075B
:1011F0008C179D0718F4C81BD90B02C0C0E0D0E0C3
:1012000081E0C93ED34008F480E0DF91CF9108959A
:101210008F929F92AF92BF92CF92DF92EF92FF9206
:10122000CF93DF93CDB7DEB728970FB6F894DEBF24
:101230000FBECDBFF82E5B0161157105D1F140E005
:10124000682FCE0105960E94C00741E06F2DCE01A8
:1012500001960E94C0072B813C8140E050E0CF8086
:10126000D884E12CF12C2C193D094E095F09B501F8
:1012700080E090E08D809E80A12CB12C68197909C6
:101280008A099B090E94D33D29813A8140E050E0C0
:10129000281939094A095B090E94253E2C0D3D1D7C
:1012A0004E1D5F1D57FF03C020E030E0A901C901BA
:1012B00002C080E090E028960FB6F894DEBF0FBE23
:1012C000CDBFDF91CF91FF90EF90DF90CF90BF9097
:1012D000AF909F908F9008958F929F92AF92BF9200
:1012E000CF92DF92EF92FF92CF93DF93CDB7DEB72D
:1012F00028970FB6F894DEBF0FBECDBFF82E5B0166
:1013000061157105D1F140E0682FCE0105960E946C
:10131000C00741E06F2DCE0101960E94C0072981D0
:101320003A8140E050E0CD80DE80E12CF12C2C1998
:101330003D094E095F09B50180E090E08F809884F7
:10134000A12CB12C681979098A099B090E94D33D07
:101350002B813C8140E050E0281939094A095B099A
:101360000E94253E2C0D3D1D4E1D5F1D57FF03C0E5
:1013700020E030E0A901C90102C080E090E0289699
:101380000FB6F894DEBF0FBECDBFDF91CF91FF90B7
:10139000EF90DF90CF90BF90AF909F908F90089587
:1013A0000C94BD0882508B3130F4E82FF0E0E65801
:1013B000FF4F8081089581E00895CF93DF93E82F58
:1013C000F0E0EE0FFF1FE459FE4FC081D1810E9473
:1013D000D209882319F0813029F00AC081E0E3970F
:1013E00040F404C081E0C935D24018F480E001C067
:1013F00081E0DF91CF910895CF93C0E081E28C0F1F
:101400000E94DD09882329F0CF5FC830B9F788E052
:1014100001C08C2FCF9108951F93CF93DF931F921C
:10142000CDB7DEB7182F69830E94D209E12FF0E013
:10143000EE0FFF1FE459FE4F4981682F8081918193
:101440000F90DF91CF911F910C9461162FB7F894F4
:101450006091FE007091FF00809100019091010168
:101460002FBF2DE730E040E050E00E94033EBB2755
:10147000A52F942F832F089520919E0130919F01D5
:101480008091FE009091FF00A0910001B0910101B8
:10149000820F931FA11DB11D8093FE009093FF004A
:1014A000A0930001B09301010895CF93DF93809141
:1014B0005802882309F474C02091560230915702D3
:1014C00024363105E0F4E4EEF1E0CAE0D2E04191E7
:1014D000519188819981AA81BB81840F951FA11D9B
:1014E000B11D89939993A993B99382E0EA30F807E3
:1014F00071F72F5F3F4F3093570220935602209190
:10150000E4013091E5018091120190911301A091C5
:101510001401B0911501820F931FA11DB11D80937D
:10152000120190931301A0931401B093150120911F
:10153000E6013091E70180910E0190910F01A09199
:101540001001B0911101820F931FA11DB11D809355
:101550000E0190930F01A0931001B09311012091FF
:10156000F2013091F30180910A0190910B01A09159
:101570000C01B0910D01820F931FA11DB11D80932D
:101580000A0190930B01A0930C01B0930D0180917F
:1015900016019091170101969093170180931601FF
:1015A000DF91CF91089590E0880F991FFC01E459D5
:1015B000FE4F208131816217730718F4261B370B09
:1015C00004C0AB01421B530B9A01FC01E65EFE4FC7
:1015D0002730310518F01182108206C02081318138
:1015E0002F5F3F4F31832083FC01E459FE4F71830D
:1015F00060830895AF92BF92CF92DF92EF92FF92F5
:101600000F931F93CF93DF931F92CDB7DEB7A090B8
:101610006C01B0906D0180916E0190916F018A15FF
:101620009B0518F4A81AB90A02C0A12CB12CB50167
:1016300084E10E94D30A0EE711E091E2F801619182
:1016400071918F01892F99830E94D30A99819F5F9D
:101650009932A1F70E94FC09F82E80E000E010E02A
:101660008F1569F0E1E2E80FF0E0EE0FFF1FE4599B
:10167000FE4F20813181020F131F8F5FF1CFB80120
:1016800085E10E94D30A0115110581F00A151B0599
:1016900020F49501201B310B03C098012A193B0946
:1016A000293E334018F4580115E102C014E1F12C31
:1016B000B50186E10E94D30A6F2D70E088E10E9497
:1016C000D30A612F70E087E10E94D30A0E94260AA4
:1016D0008C010E943B27882329F0E0907201F09052
:1016E00073010BC00E94D926882329F0E090700175
:1016F000F090710102C0E12CF12CB70189E10E9448
:10170000D30AB8018BE10E94D30A9701D5010E9448
:10171000B23D30E1C32E37E2D32EE12CF12CA701EC
:1017200096010E94033EB9018AE10E94D30A980102
:10173000D5010E94B23DA70196010E94033EB90166
:101740008CE10F90DF91CF911F910F91FF90EF905F
:10175000DF90CF90BF90AF900C94D30ABF92CF92FE
:10176000DF92EF92FF920F931F93CF93DF932FB7E8
:10177000F89480915602909157022FBF84369105BC
:10178000C1F580911801909119010196909319016A
:10179000809318010AE012E0CEEBD1E0B12C54E6C0
:1017A000C52ED12CE12CF12CF80161917191819120
:1017B00091918F01A70196010E94033E29933993CD
:1017C000B9018B2D0E940809BC018B2D0E94D30A00
:1017D000B394F3E1BF12E8CF0E94FA0ADF91CF91F0
:1017E0001F910F91FF90EF90DF90CF90BF900C94DE
:1017F0004C08DF91CF911F910F91FF90EF90DF90F8
:10180000CF90BF9008954F925F926F927F928F9288
:101810009F92AF92BF92CF92DF92EF92FF920F937F
:101820001F93CF93DF93CDB7DEB728970FB6F89409
:10183000DEBF0FBECDBF0E944307C0900201D09013
:101840000301E0900401F09005016C197D098E09F7
:101850009F09613375478105910508F49BC02FB737
:10186000F8940091160110911701409012015090C8
:101870001301609014017090150160910E01709138
:101880000F01809110019091110180900A019090B8
:101890000B01A0900C01B0900D012FBF6D837E83D2
:1018A0008F8398870E945E0820910801309109017A
:1018B0002F5F3F4F30930901209308016801E12C0D
:1018C000F12C6D817E818F819885A70196010E9400
:1018D000033E29833A834B835C83C301B201A70192
:1018E00096010E94033EB90180E00E9408093C0174
:1018F00069817A8181E00E9408098615970518F4AC
:10190000681A790A02C0612C712C4090A80150908D
:10191000A9016414750420F0B3018EE10E94D30A7A
:10192000B301641975098DE10E94D30AC501B401A0
:10193000A70196010E94033EB90187E00E940809B1
:1019400020910601309107019093070180930601D1
:10195000BC01621B730B660F771F8FE10E94D30AD5
:10196000B80180E228960FB6F894DEBF0FBECDBF57
:10197000DF91CF911F910F91FF90EF90DF90CF906B
:10198000BF90AF909F908F907F906F905F904F909F
:101990000C94D30A28960FB6F894DEBF0FBECDBFC5
:1019A000DF91CF911F910F91FF90EF90DF90CF903B
:1019B000BF90AF909F908F907F906F905F904F906F
:1019C00008950E94AE0B0C94030C1092FE0010922E
:1019D000FF0010920001109201010C94B708809151
:1019E0008702089580918502811113C00E94A50786
:1019F000882381F00E94A8072091590230915A0251
:101A0000821B930B9C0181E02530310518F080E0AA
:101A1000089581E008958F5D0C9490070F931F93B4
:101A2000CF93DF9310E0CFEFDFEF00E080918702EC
:101A3000181760F4812F0E940B0D8C179D0710F072
:101A4000CE0101C0012F1F5FEC01F0CF802FDF918D
:101A5000CF911F910F910895CF93DF9390918502BD
:101A6000911104C0DF91CF910C940B0D9091630202
:101A7000C82FD0E0992391F00E940B0DCC0FDD1FF1
:101A8000FE01EC59FD4FCC58DD4F2081318148815A
:101A90005981241B350B280F391F07C0FE01EE0F9B
:101AA000FF1FEC59FD4F20813181C901DF91CF919A
:101AB0000895CF93C82F80918502882341F0C111EA
:101AC00006C00E94A80790935A0280935902C093BF
:101AD00085020E94430760935B0270935C028093CF
:101AE0005D0290935E020E94AE0880918402811193
:101AF00004C08C2FCF910C94C505CF910895EF921F
:101B0000FF920F931F93CF93DF9381E00E941606FD
:101B100088E10E9490078093870204E712E034E690
:101B2000E32E32E0F32EC0E0D0E08091870290E017
:101B3000C817D9076CF48C2F0E940B0DF801819304
:101B400091938F01F701819391937F012196EDCFBE
:101B5000109285021092840280E00E94590D10922A
:101B60005A021092590210925B0210925C0210927B
:101B70005D0210925E02DF91CF911F910F91FF9055
:101B8000EF90089580E00E94590D81E080938402D7
:101B900008950E94C20D80E00C941606FF920F93E8
:101BA0001F93CF93DF93809186020E942C0DEC014E
:101BB000F12C01E010E080918702F816E8F48F2DF7
:101BC0000E942C0DAC0180918502802321F0C41766
:101BD000D50778F40DC02091EE033091EF032F5F0D
:101BE0003F4F369527952C0F3D1F2417350708F4D6
:101BF000102B000FF394DFCF812FDF91CF911F9136
:101C00000F91FF9008951F93CF93DF93EC0110E0A5
:101C100080918702181748F481E2810F0E94B7076C
:101C20008C179D0720F01F5FF3CF81E001C080E09B
:101C3000DF91CF911F910895BF92CF92DF92EF92E3
:101C4000FF920F931F93CF93DF938AE090E00E945F
:101C5000030E882309F460C00E940E0D8093860253
:101C60000E940B0D8C0162E087E992E00E94C91985
:101C70000817190748F174E6E72E72E0F72EE4E73B
:101C8000CE2EE2E0DE2EC0E0D0E0BB24B394809103
:101C9000870290E0C817D907CCF48C2F0E940B0D57
:101CA000F701819391937F01F601819391936F01E5
:101CB000801B910B2091EE033091EF032817390719
:101CC00008F4B12C2196E3CFBB24B39410926302A5
:101CD0000E94430760935F027093600280936102E9
:101CE00090936202BB2059F0DF91CF911F910F9129
:101CF000FF90EF90DF90CF90BF900C94C20D0E94A8
:101D0000CE0DDF91CF911F910F91FF90EF90DF905B
:101D1000CF90BF900C94590DDF91CF911F910F91EF
:101D2000FF90EF90DF90CF90BF900895CF93809178
:101D30006302811119C081E0809363028091860261
:101D40000E940B0DC0E080918702C81768F48C2FA9
:101D50000E940B0DEC2FF0E0EE0FFF1FEC58FD4F33
:101D600091838083CF5FEFCFCF9108950F931F931F
:101D70000E94430700915F0210916002209161026E
:101D800030916202601B710B820B930B28EE33E0E3
:101D900040E050E00E94033EC9011F910F91089559
:101DA00083E090E00E94030E8823C9F080918502B1
:101DB000811103C00E941C0E12C00E94960E0E9448
:101DC000CE0D90E0809590952091850230E08223A1
:101DD0009323892B81F40E94B60E4F9760F40E94E2
:101DE000F20C882311F082E0089580918402882308
:101DF000D1F381E0089580E00E94590DF0CF1F9348
:101E0000CF93DF93EC0110E080918702181780F4E4
:101E1000812F0E940B0D8C179D0710F081E009C0E7
:101E2000812F0E942C0D8C179D07C0F71F5FECCFF0
:101E300080E0DF91CF911F9108951F93CF93DF939F
:101E4000EC0110E080918702181780F4812F0E9426
:101E50000B0DC817D90710F081E009C0812F0E942F
:101E60002C0DC817D907C0F71F5FECCF80E0DF91BA
:101E7000CF911F91089560918702662329F070E049
:101E80000E94EF3DCB01089580E090E008950E940C
:101E900087120E94902085E00E9435370E94632EB1
:101EA00088E00E94353781E00C94A9050E948712D2
:101EB0000E949E2086E00E9435370E94632E88E0B3
:101EC0000C943537E0918802F091890285919491C4
:101ED00010928A02FC010994E0918802F091890233
:101EE000329685919491FC010994E0918802F091D9
:101EF0008902349685919491FC010994CF93DF93E4
:101F00001F92CDB7DEB7811109C00E94A01F0E94A9
:101F10006C0F0E94EA080E94560F0FC0813059F4DE
:101F200069830E94A01F0E946C0F6981611105C026
:101F30000E94470F02C081E001C080E00F90DF9156
:101F4000CF9108958F929F92AF92BF92CF92DF92DE
:101F5000EF92FF920F931F93CF93DF93EC01A62E86
:101F60000E94620F0E94821F0E94B82E0E94871258
:101F7000D12C82E0B82EE12CF12CCC24C39492E039
:101F8000992E882483940E941437811106C0FE0183
:101F9000ED0DF11D84910E94A4230E941512182FAB
:101FA000883051F40E94E6118111A0C080918A020C
:101FB000823009F09EC09AC080918A02813021F45B
:101FC000111102C090928A0280918A02823009F037
:101FD00059C0FE01ED0DF11DE491E23031F0E33026
:101FE000D1F1E13009F060C03FC00E944127882351
:101FF000A9F0123019F46FEF7FEF04C0143071F4C0
:1020000061E070E087E992E00E941D1B60919C02F4
:1020100070919D0281E090E00E94F6240E94DF26EC
:10202000882309F441C0123019F46FEF7FEF05C027
:10203000143009F039C061E070E087E992E00E9455
:10204000041B60919A0270919B0241E081E090E054
:102050000E941F2529C00E94DF2681114DC00E94C9
:102060004127811149C020C0123019F46FEF7FEF72
:1020700004C01430C9F461E070E087E992E00E9486
:10208000461B12C0143049F4ED2DF0E03196EC0FF0
:10209000FD1FE491E11148C007C0123029F4DD2092
:1020A00019F00E946421DA94CC2081F00E94D52E90
:1020B000B82E6A2D0E947E0FC82E882339F00E9408
:1020C000A807E816F906A1F5C11003C0A1103BC08E
:1020D000C12C113009F057CF0E94E611882309F472
:1020E00052CF0E94A01F0E946C0F2DC010928A0236
:1020F0006BCF80928A0268CF123041F40AE020E070
:1021000030E048EE5DEF6FEF7FEF09C0143061F60D
:102110000AE020E030E048EE5DEF61E070E082EC44
:1021200093E00E94F62DC0CF0E946421D394BCCFCF
:102130000E94A8077C010E94750FB82E6A2D0E948C
:102140007E0FC82EC1CF8B2DDF91CF911F910F91A4
:10215000FF90EF90DF90CF90BF90AF909F908F90C7
:10216000089560E08BE892E00E94F71887FD0AC0AE
:10217000811102C00C943034992787FD9095019706
:102180000C94CA29089578940E94EE050E94E63ABC
:102190000E9430270E94B7270E94D0090E943D3D2F
:1021A0000E94883469E272E088E192E00E94732024
:1021B00088EE93E00E944A0780E00E94703A0E94F5
:1021C000E7158091F4039091F503079710F40C94B0
:1021D000EC2008950E94C3100E94B110FDCF69E366
:1021E00072E08BE892E00E94091889E990E09093F0
:1021F0008C0280938B02EFE8F2E08081805E808326
:102200000895FC0124812052621710F40C94FC17ED
:10221000862F90E0821B91090E94901A6EE00C9428
:10222000CA13CF93DF93EC010E947F128B819C81B4
:102230000E94C7130E9483126A8188819981DF916D
:10224000CF910C945F13FC0187818F3118F48F5F5D
:102250008783089586818F5F86830895FC01878137
:10226000882319F081508783089586818150868361
:1022700008950F931F93CF93DF93FC01C681D0E0A5
:102280006D2F80E00E94791210E11C0F01E00C0F0D
:102290008C2F0E941814011711F0C02FF7CFDF5FA9
:1022A000D23011F0C12FECCFDF91CF911F910F9160
:1022B00008951F93CF93DF93EC0181EF90E00E948C
:1022C0003C171FEF8E81181721F0CE010E943911A3
:1022D0001E818F81682F70E094E0759567959A95BF
:1022E000E1F78F700E9479120E941512823049F036
:1022F000843019F0813049F413C0CE010E942311BB
:10230000E1CFCE010E942E11DDCF8830D9F68D812C
:10231000E881F981E80FF11D8F819E81890F80830B
:10232000DF91CF911F910895FC01718360834283F7
:1023300034832383158280E2868317820895CF93A6
:10234000DF93EC0181EF90E00E943C170E9487121E
:10235000CE010E94111161E08D810E9479120E94CC
:1023600015128230B1F0843041F08130C1F481EF38
:1023700090E00E94351780E026C04D81242F30E088
:102380008A8190E00197281739072CF74F5F4D831A
:10239000E2CF8D818823F9F281508D83DCCF8830A4
:1023A000D1F682E00E946812823048F083E00E94F9
:1023B000353781EF90E00E94351781E004C0CE01EF
:1023C0000E945911C3CFDF91CF910895809195025A
:1023D00008950C94C106E0919502F0E0EE0FFF1F06
:1023E000EB5BFD4F859194910895CF93DF93D82FA8
:1023F0000E94C106C82F8D1741F082E390E00E9431
:1024000067070E94C106DC2FF5CF1092950210924B
:10241000940280939602882319F080E00E9442374C
:1024200080919602DF91CF910895FF920F931F93B1
:10243000CF93DF93C0E0D0E0F12C0AEF10E04091A1
:102440009502242F30E0F901EE0FFF1FEF59FD4FE9
:1024500065917491C8010E94EF3D6F5F7F4FF90154
:10246000EE0FFF1FC617D707A8F40E94C106F82E6B
:1024700081E090E00E94670780919602F81641F093
:102480008F2DDF91CF911F910F91FF900C94F5113B
:102490002196D5CFFF20A1F0209194022F5F2093A9
:1024A0009402ED5AFD4F8591949130E02817390739
:1024B00038F0463018F44F5F409395021092940222
:1024C00080919602DF91CF911F910F91FF90089517
:1024D000CF93DF93D82FC09196020E94151290914E
:1024E00095029D1711F08C17C1F3892FDF91CF91C1
:1024F0000895462F682F81EF90E00C94001760E05C
:1025000080E00C94791261E080E00C94791281EF04
:1025100090E00C94F916CF93DF93FC01DB018C91D2
:10252000882389F0C081D18148838081918101967F
:10253000918380838C9181508C93882321F001902A
:10254000F081E02D1082DF91CF910895BF92CF925C
:10255000DF92EF92FF920F931F93CF93DF93EC01E3
:102560008B017A014115510501F1CA010E94533EC8
:10257000F8019081B82E981708F4B92ECB2CD12CE5
:10258000A601B701888199810E945C3E288139812A
:102590002C0D3D1D39832883F80180818B198083A0
:1025A000882319F0E881F9811082DF91CF911F9182
:1025B0000F91FF90EF90DF90CF90BF900895CF9252
:1025C000DF92FF920F931F93CF93DF9300D0CDB78D
:1025D000DEB76C018B01BA0180E090E049835A8339
:1025E0000E94A42DF82ED8018C9149815A818F1513
:1025F00070F44FE3B801C6010F900F90DF91CF91B7
:102600001F910F91FF90DF90CF900C948B12F601E9
:10261000208131812F0D311D31832083D8018C9190
:102620008F198C93882321F00190F081E02D108286
:10263000F9012AE030E0FF2069F0CA01B9010E94E7
:10264000EF3D405DBAE06B9F401911244293FA942C
:10265000AB01F1CF0F900F90DF91CF911F910F91B0
:10266000FF90DF90CF9008950F931F93CF93DF9348
:10267000CDB7DEB72B970FB6F894DEBF0FBECDBF38
:102680008E010F5F1F4F1A87098727E02B87AC0148
:10269000BE01655F7F4FCE0109960E94DF12B8012F
:1026A00081EF90E00E94EC172B960FB6F894DEBFF6
:1026B0000FBECDBFDF91CF911F910F9108950F9362
:1026C0001F93CF93DF93CDB7DEB761970FB6F89422
:1026D000DEBF0FBECDBF0097D1F0613108F060E1E1
:1026E000062F10E0A801BC01CE0101960E946B3EAE
:1026F000E1E0F0E0EC0FFD1FE00FF11F1082BE01E2
:102700006F5F7F4F81EF90E00E94EC1701C080E087
:1027100061960FB6F894DEBF0FBECDBFDF91CF91AB
:102720001F910F9108950F931F93CF93DF93CDB710
:10273000DEB761970FB6F894DEBF0FBECDBF00972E
:10274000D1F0613108F060E1062F10E0A801BC0172
:10275000CE0101960E945C3EE1E0F0E0EC0FFD1F2F
:10276000E00FF11F1082BE016F5F7F4F81EF90E09D
:102770000E94EC1701C080E061960FB6F894DEBFAE
:102780000FBECDBFDF91CF911F910F91089560E1F2
:102790000C949313CF92DF92EF92FF920F931F93BB
:1027A000CF93DF93CDB7DEB762970FB6F894DEBF55
:1027B0000FBECDBF009719F1613108F060E16C01E7
:1027C0008E010F5F1F4F78018E2D801B861768F4D6
:1027D000C6016A8B0E948A3EF70181937F01FFEF59
:1027E000CF1ADF0A6A898111EFCFF801E60FF11DD8
:1027F0001082B80181EF90E00E94EC1701C080E0E8
:1028000062960FB6F894DEBF0FBECDBFDF91CF91B9
:102810001F910F91FF90EF90DF90CF900895882344
:1028200019F086E792E002C082E792E00C94C713A9
:10283000682F81EF90E00C94CB17CF93DF93D82FC4
:10284000C0E0CD1729F080E20E941814CF5FF9CFC5
:102850008C2FDF91CF91089580E10C941D14CF93BC
:10286000DF931F92CDB7DEB7682F64303CF080E273
:1028700069830E94181469816150F7CF8AE792E05A
:102880000F90DF91CF910C9493136AE00E94E33D87
:1028900080E3890F0C941814DF92EF92FF920F934C
:1028A0001F93CF93DF93EC01F62ED42E16160CF067
:1028B00089C068EE73E00E94EF3D8B0180E090E0FC
:1028C0000E94A42D24E0E22EE80EEF142CF480E206
:1028D0000E941814FA94F9CFFE14E4F0D1101AC033
:1028E000BE0180E090E00E94A42D182FFA941F15DD
:1028F00024F480E20E941814F9CFCE010E94341310
:102900008DE6DF91CF911F910F91FF90EF90DF90B7
:102910000C9418142E2D332727FD3095245031099F
:102920004F2D552747FD50954217530754F48F2DCF
:10293000DF91CF911F910F91FF90EF90DF900C945A
:102940002F14C8010E943413CE0168EE73E00E9478
:10295000EF3DEC011F2D1E1993E0F92EF10E84E0DE
:10296000810F18161CF48EE20E94181402E0010F69
:102970001F1444F4CE0164E670E00E94EF3D862F00
:102980000E944514CE0164E670E00E94EF3DEC0128
:102990001F5F10163CF46AE070E00E94EF3D862F46
:1029A0000E944514111674F4CE016AE070E00E9492
:1029B000EF3DDF91CF911F910F91FF90EF90DF904E
:1029C0000C944514DF91CF911F910F91FF90EF90E0
:1029D000DF900895EF92FF920F931F93CF93DF93B1
:1029E000EC01F62E16160CF059C064E670E00E9459
:1029F000EF3D8B0180E090E00E94A42D33E0E32EB8
:102A0000E80EEF142CF480E20E941814FA94F9CF27
:102A10002E2D332727FD3095235031094F2D552773
:102A200047FD5095421753074CF48F2DDF91CF91FE
:102A30001F910F91FF90EF900C942F14C8010E94EA
:102A40003413CE0164E670E00E94EF3DEC010F2DDF
:102A50000E1912E0100F83E0800F18161CF48EE29E
:102A60000E941814FF24F394F00E111644F4CE01C2
:102A70006AE070E00E94EF3D862F0E9445141F140B
:102A80006CF4CE016AE070E00E94EF3DDF91CF91DF
:102A90001F910F91FF90EF900C944514DF91CF910F
:102AA0001F910F91FF90EF900895BF92CF92DF9208
:102AB000EF92FF920F931F93CF93DF938C01D62E4B
:102AC000B42EC22E1616ACF52111DA94B80180E0AE
:102AD00090E00E94A42DC82FD0E0ED2CFF24E7FC4D
:102AE000F094CE15DF052CF48B2D0E941814DA9487
:102AF000F4CFCC2019F08DE20E941814EC16FD06DC
:102B000064F48D2DDF91CF911F910F91FF90EF9085
:102B1000DF90CF90BF900C942F14C801DF91CF911C
:102B20001F910F91FF90EF90DF90CF90BF900C948A
:102B30003413DF91CF911F910F91FF90EF90DF90B1
:102B4000CF90BF90089520E00C945515CF93DF935C
:102B50006CE370E00E94EF3D9B01EC0140E363E019
:102B6000C9010E94A3158AE30E94181440E362E0A1
:102B7000CE01DF91CF910C94A31540E20C94A315E4
:102B8000292F221F2227221F19F091958195910943
:102B900040E20C945515161634F461500E94EA1464
:102BA00083E40C9418140895161634F461500E94AE
:102BB000BD1585E20C941814089563303CF0625002
:102BC0000E94BD158FE692E00C94C7130895FF9202
:102BD0000F931F93CF93DF93CDB7DEB728970FB630
:102BE000F894DEBF0FBECDBF4EE0F42EF9821FE198
:102BF0001A8301E10B830C830D830E830F831887E7
:102C0000AE014F5F5F4F60E081EF90E00E9444179C
:102C1000F9821A830B830C831D831E831F831887FD
:102C2000AE014F5F5F4F61E081EF90E00E9444177B
:102C3000F9821A831B831C831D831E831F831887BD
:102C4000AE014F5F5F4F62E081EF90E00E9444175A
:102C500028960FB6F894DEBF0FBECDBFDF91CF919F
:102C60001F910F91FF9008950F931F93CF93DF93C0
:102C7000062F142F64E670E00E94EF3DEB0180E226
:102C80000E94181480E20E941814C436D10548F43A
:102C900080E20E941814CA30D10518F480E20E9424
:102CA0001814CE010E943413802F0E941814812F13
:102CB0000E94181480E2DF91CF911F910F910C9424
:102CC00018140F931F93CF93C62F1416BCF56FEFF4
:102CD000640F0C2F10E00830110508F5F801E65DCF
:102CE000FF4F0C94443E16E51BC040E201C048E68D
:102CF00067E5CF911F910F910C943416642FCF91FB
:102D00001F910F910C94CB1514EF07C00E94C015B2
:102D100085E50FC06EEF640F11E440E002C015E5D9
:102D200041E00E944C14812F0E941814C53031F4E8
:102D300088E6CF911F910F910C941814CF911F9199
:102D40000F910895462F65E00C946116462F60E0C0
:102D50000C946116462F61E00C946116462F66E0D4
:102D60000C946116AC9881E090E00E94AB3DAC9A67
:102D700081E090E00E94AB3DAC9884E690E00C943A
:102D8000AB3DA09AA19AA29AA39A60FF02C0A89A0A
:102D900001C0A89861FF02C0A99A01C0A99862FF6A
:102DA00002C0AA9A01C0AA9863FF02C0AB9A01C0F0
:102DB000AB980C94B2161F93CF93DF93EC01162FB0
:102DC000442311F0AD9A01C0AD98612F70E084E00A
:102DD000759567958A95E1F7CE010E94C116612F1E
:102DE000CE01DF91CF911F910C94C11640E00C945D
:102DF000DB1661E00E94F61680ED97E00C94AB3D87
:102E0000CF93DF93CDB7DEB728970FB6F894DEBF28
:102E10000FBECDBF28E0E2E7F0E0DE0111960190A1
:102E20000D922A95E1F7FC012481421710F04FEF33
:102E3000420FFE013196E40FF11DE40FF11D2081D8
:102E4000260F2068622F28960FB6F894DEBF0FBEBB
:102E5000CDBFDF91CF910C94F616FC016181262F36
:102E6000246021836C600C94F616FC0161816E7FF6
:102E7000618368600C94F616FC016181262F216045
:102E8000218369600C94F616CF92DF92EF92FF9245
:102E90000F931F93CF93DF9300D0CDB7DEB77C01A4
:102EA000677088E0689FB00111246064C70149839E
:102EB0005A830E94F6164981C42E5A81D52E00E00D
:102EC00010E0F60161916F0141E0C7010E94DB163D
:102ED0000F5F1F4F08301105A1F70F900F90DF9182
:102EE000CF911F910F91FF90EF90DF90CF900895B9
:102EF000CF93DF93EC01423018F08881886088839B
:102F00004C831D82222329F0413019F4888184608A
:102F1000888380E593EC0E94AB3DAD98AC9863E06C
:102F2000CE010E94C11684E991E10E94AB3D63E0AD
:102F3000CE010E94C11684E991E10E94AB3D63E09D
:102F4000CE010E94C11686E990E00E94AB3D62E08E
:102F5000CE010E94C11668816062CE010E94F61601
:102F600084E08983CE010E942D17CE010E94F916BC
:102F700082E08A8366E0CE01DF91CF910C94F61651
:102F8000A59AA49AFC01108220E041E060E10C9433
:102F900078170C94C01741E00E94DB1681E0089579
:102FA000EF92FF920F931F93CF93DF938C01F42E38
:102FB000C62FD72FE42EE60EEC1631F0699141E0D2
:102FC000C8010E94DB16F8CF8F2DDF91CF911F91A2
:102FD0000F91FF90EF9008956115710559F0FB0175
:102FE00001900020E9F7AF0141505109461B570BF2
:102FF0000C94D01780E00895FC0127818085E22F92
:10300000F82FE60FF11DE60FF11D859194910C94B8
:10301000C7130F931F93CF93DF93EC018B01CB0169
:103020000E94652D682FCE010E946C188FE990E0F8
:103030009983888318870F83DF91CF911F910F9118
:103040000895DF92EF92FF920F931F93CF93DF9338
:10305000EC01F62E69871A8681E08D8382E0D82EF6
:10306000EE24E3948E01075F1F4F0E941512482F34
:10307000823011F0843061F4E881F9810280F381BB
:10308000E02D6F2DCE010995F986DA86ED8204C018
:10309000813089F0883079F0C8010E94772E811143
:1030A000ED828D81882319F0CE010E9499188A85BE
:1030B0008F5F8A87DACF8FEF898781E08E838D8358
:1030C000483009F080E0DF91CF911F910F91FF9080
:1030D000EF90DF9008950895FC0185EA90E09183D8
:1030E000808312821382648381E0858386830895BE
:1030F000FC012281211103C081E082830895438174
:1031000030E0240F311D848190E0019728173907A2
:1031100014F44F5F43830895FC018281882319F0E2
:103120008150828308958381882311F081508383A5
:1031300008951F93CF93DF93EC0110E0612F80E09F
:103140000E94791280E20E941814E881F9816B8153
:10315000610F0190F081E02DCE0109950E942C14A1
:103160001F5F123059F76A8180E00E9479128EE366
:103170000E9418146A818FE00E9479128CE30E94E9
:1031800018141D82DF91CF911F9108950F931F9303
:10319000CF93DF93EC010E941512182F0E94143771
:1031A000882321F081E08D838FE71CC00B818A8109
:1031B000080F123031F0143039F4CE010E94781823
:1031C00003C0CE010E948C188B819A81890F081749
:1031D00011F081E08D838D81882319F0CE010E944A
:1031E0009918812FDF91CF911F910F910895EF9240
:1031F000FF921F93CF93DF931F92CDB7DEB77C0171
:1032000081E0F701858311E0C70169830E94C61838
:103210006981811102C0F7011682F701968191112F
:1032200008C0883031F481E0868383819281890FE0
:1032300009C0662311F0F7011583813029F7911138
:10324000E3CF8FEF0F90DF91CF911F91FF90EF9021
:1032500008950F931F93CF93DF93EC018B0150E000
:103260000E94DF124AE3B801CE01DF91CF911F9196
:103270000F910C948B12EF92FF920F931F93CF93A9
:10328000DF9300D01F92CDB7DEB78C01462F0B968F
:103290009A8389838EE08B83D801EC91F0E0EE0F66
:1032A000FF1FEB56FD4FE590F490BE016D5F7F4F21
:1032B000CE0101960E942919A701BE016D5F7F4FC3
:1032C000CE0101960E94A61240E2BE016D5F7F4FC3
:1032D000CE0101960E948B12F80141815281BE01FC
:1032E0006D5F7F4FCE0101960E94DF124FE2BE015B
:1032F0006D5F7F4FCE0101960E948B12D801179609
:103300004D915C911897BE016D5F7F4FCE01019684
:103310000E94DF120F900F900F90DF91CF911F91BD
:103320000F91FF90EF900895CF93DF9300D01F92FD
:10333000CDB7DEB7462F2EE02B830B969A83898379
:10334000BE016D5F7F4FCE0101960E9429190F903B
:103350000F900F90DF91CF91089529E1289FB00140
:10336000299F700D11246E557F4F49E150E087E988
:1033700092E00C947A3E29E1289FB001299F700DBC
:1033800011246E557F4F49E150E087E992E00C949B
:10339000983EDC01EC91B6E0EB9FF0011124E60FC2
:1033A000F11DEE0FFF1FE75BFC4F8591949108958F
:1033B000DC01EC9146E0E49FF0011124E60FF11DE1
:1033C000EE0FFF1FE75BFC4F8591949117962D91AF
:1033D0003C911897AC01429FC001439F900D529FB2
:1033E000900D11240895FC01A181B2812091E40384
:1033F0003091E5030E94B23D24E630E040E050E029
:103400000E94033E293EFDEF3F074105510520F094
:1034100028EE3DEF40E050E0C9010895FC01208115
:10342000213029F42091DA033091DB0309C02230E6
:1034300029F42091D8033091D90302C020E030E074
:10344000FC0187819085AC01249FC001259F900DD0
:10345000349F900D112408958091D4039091D50349
:103460000895FC016081FBE06F9FB001112465525B
:103470007D4F4BE050E00C944A3EDC01EC91F0E0D3
:10348000EE0FFF1FEB56FD4F859194910C94931313
:1034900060E170E00C943D1ACF93DF93EC018881DA
:1034A00060E0811108C0CE010E94D81967E00E9437
:1034B000AA1687E011C0CE010E94D81965E00E94CB
:1034C000AA168FE20E9418148F8198850E943413E7
:1034D00083E40E94181488E0DF91CF91089566E09C
:1034E000FC01838194810E94A61686E0089566E01F
:1034F000FC01858196810E94A61686E00895FC0154
:1035000081819281883EFDEF9F0729F48BE892E04C
:103510000E94C71303C067E00E94A21688E00895C6
:1035200029E1AC01249FC001259F900D11248355F2
:103530009F4F08950F931F93CF93DF93CDB7DEB7BF
:10354000A6970FB6F894DEBF0FBECDBF8C01AB01BE
:10355000BC01CE0101960E94211CCE0101960E9461
:10356000A61C89E1FE013C96D80101900D928A9536
:10357000E1F7A6960FB6F894DEBF0FBECDBFDF9180
:10358000CF911F910F910895FC012081260F2A30C1
:1035900040F0161617061CF4FC01108203C029E047
:1035A000FC0120830C94311A61E00E94D8199C011F
:1035B00040E050E060E871ED80EF98E00E94033E4B
:1035C00029358BE138074105510520F028E53BE11D
:1035D00040E050E0C901089561E00E94D8199C01C3
:1035E00040E050E060E478E78DE791E00E94033E20
:1035F000293883E138074105510520F028E833E1F7
:1036000040E050E0C90108950F931F93CF93DF93DB
:1036100000D0CDB7DEB78C0169837A830E94D41ABB
:10362000AC0169817A81C80103960F900F90DF91F8
:10363000CF911F910F910C945B2E0F931F93CF93FB
:10364000DF9300D0CDB7DEB78C0169837A830E9407
:10365000EC1AAC0169817A81C80105960F900F9030
:10366000DF91CF911F910F910C945B2EDC01EC91B7
:10367000BCE0EB9FF0011124E55BFC4F6591749178
:103680008CEC9DE80E94EF3DCB010895EF92FF92F4
:103690000F93CF93DF9300D0CDB7DEB77C01698362
:1036A0007A830E94361BF701208169817A8121117A
:1036B00003C022E330E002C020E030E001E0AC01D2
:1036C000C70107960E94F62D0F900F90DF91CF91C2
:1036D0000F91FF90EF900895CF93DF93EC010E943C
:1036E000361B2F8138858217930710F498878F83B4
:1036F000CE010E94D41A2B813C818217930710F4CB
:103700009C838B83CE010E94EC1A2D813E8182170F
:10371000930710F49E838D83DF91CF9108950F93CB
:10372000CF93DF93EC0104E620E030E048EE5DEF5C
:1037300001960E94F62D89819A819C838B83288132
:10374000233039F49C0136952795369527953C838F
:103750002B839E838D83CE01DF91CF910F910C94AB
:103760006C1B0F931F93CF93DF934BE050E06DE101
:1037700073E087E992E00E944A3E87E992E00E9466
:103780006C1BC0E0D0E08E010F5F1F4FB80187E9CE
:1037900092E00E949419CE010E94BB1900321105DB
:1037A00011F0E801F0CFDF91CF911F910F910895B3
:1037B000FC01818592850895FC0181859285883E72
:1037C000F3E09F0719F483E892E004C00E943413E9
:1037D0008EE792E00E94C71386E008950F9301E000
:1037E00020E030E048EE53E009960E94F62D0F915C
:1037F0000895262F443019F06FEF7FEF02C061E08B
:1038000070E0223091F028F4222349F0213051F069
:103810000895243081F060F0253081F008950B96F2
:103820000C94C41A0B960C94461B0B960C948F1B8D
:103830000B960C94041B0B960C941D1B0B960C946E
:10384000EE1BEF92FF920F931F93CF93DF93EC0148
:103850008B017A0162ED73E00E9409188FEF89876E
:103860008BEA90E09983888389E1F801DE011B9659
:1038700001900D928A95E1F7FDA2ECA2DF91CF9124
:103880001F910F91FF90EF9008950F931F93CF9387
:10389000DF93CDB7DEB728970FB6F894DEBF0FBE23
:1038A000CDBF8C01BC016A5E7F4F27EC33E04EE058
:1038B00050E0CE0101960E949411CE0101960E9423
:1038C0009F1181E0F801858328960FB6F894DEBF3A
:1038D0000FBECDBFDF91CF911F910F910895CF9370
:1038E000DF93EC010E9487120E947F1281EC93E02B
:1038F0000E94C7130E9483126EE0CE0146960E947A
:103900005F130E94632E83E0DF91CF910C943537D3
:10391000CF93DF93EC016CA17DA16F5F7F4F0B967E
:103920000E943B19CE01DF91CF910C946F1CCF9375
:10393000DF93EC016CA17DA16F5F7F4F0B960E941E
:103940009419CE01DF91CF910C946F1CDF92EF920E
:10395000FF920F931F93CF93DF93CDB7DEB7699795
:103960000FB6F894DEBF0FBECDBF8C0189E1D82E13
:10397000C8010B967C0160E0C8010E94F71887FD22
:1039800030C0873041F0883051F0863061F4C80192
:103990000E94881CF0CFC8010E94451CECCFC801D2
:1039A0000E94971CE8CFF701DE0111969D2D019032
:1039B0000D929A95E1F7682FC8010E942118811194
:1039C00009C0FE013196D7018D2D01900D928A9587
:1039D000E1F7D1CF83E00E943537C7010E946C1B0D
:1039E000CACF69960FB6F894DEBF0FBECDBFDF9188
:1039F000CF911F910F91FF90EF90DF9008951F934B
:103A0000CF93DF93EC01162F0E94FC17CE0109968D
:103A10000E946C2E882311F0298501C02FEF3327D7
:103A200027FD3095812F90E02817390749F1123092
:103A3000C9F048F4112389F0113011F5CE010B962D
:103A40000E944C1A1DC01430B9F088F01530C1F432
:103A5000CE010B960E94DC1B13C0CE010B960E9478
:103A6000481A0EC0CE010B960E947F1A09C0CE01E3
:103A70000B960E946F1A04C0CE010B960E94771A13
:103A800080E0DF91CF911F9108950F931F93CF9303
:103A9000DF9300D0CDB7DEB789839A830E947F126F
:103AA00089819A810E94C7130E94831200913B036F
:103AB00010913C03C8010E94533E892B19F0C801A4
:103AC0000E94C7130F900F90DF91CF911F910F911C
:103AD0000C942C148091D0039091D103892BA1F0E8
:103AE0008FE10E94900765E02AE0AC01249FC001AD
:103AF000259F900D11240E94C0158DE60E94181478
:103B000083E40E94181404C081E994E00E94C71362
:103B10000C942C148DE10E94900765E00E94C01562
:103B20008DE60E94181486E50E9418140C942C143B
:103B300090E0880F991F62E08A5D9A4F0C9493136E
:103B40000F931F93CF93DF9361E087E992E00E9488
:103B5000D8198C0165E087E992E00E94D819EC0140
:103B600086E10E94900780179107B8F4C817D9071B
:103B7000B0F49C012C1B3D0BC8018C1B9D0B64E613
:103B800070E00E94EF3DC9010E94EF3D643671056F
:103B900010F063E670E0862F03C083E601C080E08A
:103BA000DF91CF911F910F910895613011F40C9422
:103BB0002C0D0C94622BCF93DF93D82FC62F81E26C
:103BC0008D0F0E94DD09882351F06C2F8D2F0E94EC
:103BD000D51D46E06C2FDF91CF910C9461168FE1DB
:103BE00095E0DF91CF910C94C713FF920F931F9331
:103BF000CF93DF93182F062F0E947F128091E70248
:103C0000882319F01092E70203C081E08093E70255
:103C10009091E5028091E602992311F08F5F01C037
:103C200081508093E6028091E60286301CF010926B
:103C3000E50205C082301CF481E08093E502109219
:103C4000B1020E94F20C811108C083E090E00E9452
:103C5000030E882341F0C0E209C0809163028823EB
:103C600021F0C2E403C0CDE601C0C2E68091850226
:103C7000811103C08C2F0E94181480918502882323
:103C800031F1D0E0C1E00E94EF0CD817D0F4809160
:103C90008602D81761F0809185028C2331F08091E3
:103CA000E702882321F082E003C081E001C080E0C8
:103CB0000E941814C03811F0CC0F01C0C0E0DF5FC3
:103CC000E2CF0E94EF0C98E0981B892F25C08091CD
:103CD000E502882319F04EE3F42E02C03CE3F32EF4
:103CE000CD3611F0C032B9F4C1E0D0E02091E60247
:103CF000332727FD30952C173D0711F48F2D01C078
:103D000080E20E9418142196C730D10579F780E22D
:103D10000E94181403C087E00E941D14D1E0D10F47
:103D20008D2F0E9445148AE30E941814602F812F62
:103D30000E94DB1D0E942C140E948312D830C8F40C
:103D4000C2E0C10F8C2F0E9445148AE30E94181410
:103D5000602F8D2F0E94DB1DC83059F083E0810F4A
:103D60000E9445148AE30E941814602F8C2F0E9431
:103D7000DB1DDF91CF911F910F91FF900C942C14BC
:103D80008BE10E94900768E00E94A21680E20C94EA
:103D900018140E947F1220918A028091C203909190
:103DA000C303223031F466E00E94BD1584E195E042
:103DB00005C065E00E94BD1580E195E00E94C71333
:103DC00080E20E9418140E944B2B67E00E94A61606
:103DD0000E942C140E94831287E095E00E94C71372
:103DE00067E08091B6039091B7030E94AA160C94E5
:103DF0002C140F931F936091F2027091F302809143
:103E0000F4029091F5022091B002222371F00E94F9
:103E100043070091F2021091F3022091F4023091D5
:103E2000F502601B710B820B930B28EE33E040E030
:103E300050E00E94033EC9011F910F910895CF9356
:103E40000E94D926811110C00E943B27882331F09F
:103E50000E94D92681110AC0C4E40BC00E94F20C52
:103E6000811106C0CEE405C0C3E403C0C5E401C0AF
:103E7000C2E40E94C9268111C7E58C2F0E94181444
:103E800080E20E9418140E94F91E0E94A61580E28A
:103E9000CF910C9418140E947F1280918A02823074
:103EA000F9F40E944127882359F066E080919C0232
:103EB00090919D020E94BD158BE195E00E94C71371
:103EC0000E94DF26882371F066E080919A0290912B
:103ED0009B020E94BD1587E195E00E94C71302C0B6
:103EE0000E94C01E67E089E10E940C0A0E942C1407
:103EF0000E9483120E941F1F67E086E10E940C0A45
:103F00000C942C140E9443076093F2027093F30206
:103F10008093F4029093F5021092EE021092EF0259
:103F20001092F0021092F1021092EA021092EB024B
:103F30001092EC021092ED0281E08093B00208959D
:103F40000F931F930E9443070091F2021091F30216
:103F50002091F4023091F502601B710B820B930BE0
:103F60006093F2027093F3028093F4029093F5024F
:103F70001092B0021F910F910895CF92DF92EF92AD
:103F8000FF920E947F128CEF94E00E94C7130E9460
:103F9000F91E0E94A6150E94831289EF94E00E94E8
:103FA000C7136091EE027091EF028091F002909140
:103FB000F10258EEC52E53E0D52EE12CF12CA701CD
:103FC00096010E94033EC9010E94A61586EF94E067
:103FD0000E94C7136091EA027091EB028091EC029B
:103FE0009091ED02A70196010E94033EC901FF9046
:103FF000EF90DF90CF900C94A6150E947F128DEE6B
:1040000094E00E94C7130E946C2B68E00E94AE16D9
:104010000E942C140E94831285E10E94DD098823EE
:1040200049F084EE94E00E94C7130E94722B68E06E
:104030000E94AE160C942C140E947F128CED94E01A
:104040000E94C71367E086E00E940C0A0E942C14AD
:104050000E94831284ED94E00E94C71347E061E060
:104060008091E6039091E7030E9461160C942C1452
:104070000E947F128DEC94E00E94C71367E084E1F8
:104080000E940C0A0E942C140E94831286EC94E079
:104090000E94C71367E085E10E940C0A0C942C145F
:1040A0000E947F1280EC94E00E94C7138091D0039D
:1040B0009091D103892B29F065E087E00E940C0ADA
:1040C00004C08EEB94E00E94C7130E942C140E943F
:1040D000831288EB94E00E94C71365E085E00E949C
:1040E0000C0A0C942C140F931F93CF93DF9300D0E2
:1040F000CDB7DEB78B0189839A830E9487120E9415
:104100007F1289819A810E94C7130E948312C8017D
:104110000F900F90DF91CF911F910F910C94C713C7
:1041200087EA94E00E94451D0E94831280EA94E091
:104130000E94C7130E94F91E0C94A61589E994E009
:104140000C94451D0E947F120E94C01E0E946A1D91
:104150000E9483120E941F1F0C948A1D0E947F12CE
:1041600088E894E00E94C71367E08EE10E940C0A81
:104170000E942C140E9483128EE794E00E94C713C1
:104180000C948A1D0E947F1288E794E00E94C71356
:104190008091D0039091D103892B31F00E94AD071B
:1041A00069E00E94CB1504C084E794E00E94C71325
:1041B0000E942C140E9483128AE694E00E94C71386
:1041C0000C946A1D60E070E086E694E00C94732025
:1041D0000E94E2200C94632E60E070E08AE594E097
:1041E0000E94732088E893E10C944A0760E070E035
:1041F00089E494E00C9473206091EA027091EB02E0
:104200008091EC029091ED0220E63AEE40E050E021
:104210000E94033EC9010895CF93DF938091E40289
:104220008F5F843018F48093E40202C01092E4029D
:104230008091E402833061F4C0916D00CF5FC09340
:104240006D000E94C9288C1718F481E080936D00DE
:10425000C0916D00C1500E947F1280916D0061E09D
:1042600090E00E94BD1580E00E941814D0E0CC0FB1
:10427000DD1FFE01EC54FD4F808191810E94A61547
:1042800081E00E941D1482E00E941814FE01E25495
:10429000FD4F808191810E94A6150E942C140E94DE
:1042A0008312FE01E853FD4F68E0808191810E94F6
:1042B000A216CE52DD4F68E0888199810E94A21635
:1042C000DF91CF910C942C14CF93DF93C0E0DFE00B
:1042D00061E08D2F8C1B0E9479128FEF0E941814C1
:1042E00060E08C2F0E9479128FEF0E9418148AE0F0
:1042F00090E00E944A07CF5FC03151F78AE090E01A
:10430000DF91CF910C944A07CF93C82F0E94871258
:104310000E947F1289E294E00E94C71362E08C2F12
:1043200090E00E94BD1580E49FE1CF910C944A0774
:104330001092E1021092E0021092DF021092DE026F
:104340008091E2028093E3021092DD021092DC027F
:104350000895CF93DF9328E630E08EEB92E0C4EB34
:10436000D2E0A2EDB2E068EC72E045E05DE2F90176
:1043700051939F01FC0111921192CF011992199250
:104380001D921D92FB0111921192BF01415079F7CC
:10439000DF91CF910895CF930E9498210E94A92187
:1043A0000E947F1264E070E087E992E00E943D1A6B
:1043B00080918A02823011F48EE301C080E20E9473
:1043C000181487E992E00E944C1A80918A02823088
:1043D00011F48CE301C080E20E94181480913D0327
:1043E0000E94981D0E9483120E94A01D8093E202E9
:1043F00062E090E00E94BD1586E494E00E94C7133D
:1044000088EE92E00E946C2E882319F0C091E80299
:1044100001C0CFEFC0FF05C065E084E10E940C0A37
:1044200003C085E00E941D1480E20E941814809150
:10443000970284508630A8F4C1FF05C065E085E18D
:104440000E940C0A03C085E00E941D14C2FF05C033
:104450000E94FC09CF910C94451480E2CF910C94FA
:10446000181466E080919802909199020E94A21619
:10447000CF910C942C140E94A01D8093E202909185
:10448000E302981728F58093E3020E94F91E209119
:10449000DE023091DF02821B930B9093E102809346
:1044A000E0020E94F91E9093DF028093DE02809169
:1044B000E0029091E1022091DC023091DD022817A8
:1044C000390710F0232B21F49093DD028093DC0256
:1044D0000895CF93DF930E943B220E94FC09811133
:1044E00028C085E10E949007EC0184E10E949007BA
:1044F000C817D90728F49C012C1B3D0BE90102C009
:10450000C81BD90BC53FD140A0F024E630E0809114
:10451000E302281B31094091DC025091DD02249F07
:10452000C001259F900D349F900D1124DF91CF91F4
:10453000089529E6EBCFFF920F931F93CF93DF935C
:104540000E94C928FF24FA94F80E0E94CC288334D4
:1045500029F50F2D112707FD1095F801E859FF4F98
:104560008083000F111FE801C254DD4F6091EA0201
:104570007091EB028091EC029091ED0228EE33E015
:1045800040E050E00E94033E398328838BE10E9483
:104590009007F801EE52FD4F918380830E94CC2852
:1045A000843429F5CF2DDD27C7FDD095FE01E859CC
:1045B000FF4F8083CC0FDD1F8E010C541D4F609187
:1045C000EA027091EB028091EC029091ED0228EEEC
:1045D00033E040E050E00E94033EF8013183208345
:1045E0008BE10E949007C853DD4F99838883DF9148
:1045F000CF911F910F91FF9008950E94DF268111A6
:104600002FC00E94412781112BC00E94F20C8823E9
:10461000A1F08091EE029091EF02A091F002B09192
:10462000F10280599F4FAF4FBF4F8093EE0290939E
:10463000EF02A093F002B093F1020E949B220E942D
:1046400069229093B3028093B2028091E4028F5F5B
:10465000893218F48093E40208951092E4020895D8
:104660008091EA029091EB02A091EC02B091ED02F0
:1046700080599F4FAF4FBF4F8093EA029093EB0258
:10468000A093EC02B093ED02C0CF81E09091E402E0
:10469000953108F080E008950E943B220E94452356
:1046A0008823B9F00E947F120E94C01E67E089E152
:1046B0000E940C0A0E942C140E9483120E941F1F49
:1046C00084E494E00E94C7130E94D92681111CC083
:1046D0002FC00E947F1268E08AE10E940C0A82E4E7
:1046E00094E00E94C71367E089E10E940C0A0E94CF
:1046F0002C140E94831268E08CE10E940C0A8FE364
:1047000094E00E94C71314C08091E202833680F4C3
:104710008091DC029091DD02459730F08091B202E9
:104720009091B3020C94A61588E394E00C94C713FF
:104730008091E20264E090E00E94BD1586E394E07F
:104740000E94C7130C942C149091E9029F5F9093E0
:10475000E90290E0FC013197E331F10570F5EE5C80
:10476000FF4F0C94443E0C944B1F0C94C91E0C94A8
:10477000BD1F0C94502061E007C061E083E00C9401
:10478000F51D61E006C066E080E0F9CF66E0F6CF97
:1047900066E086E0F4CF0C94CB210C94FD1F0C94C2
:1047A00038200C941C200C944C230C94AE200C94B8
:1047B000C2200C94A2200C940C2108958FEF8093BA
:1047C000E80208950F931F93CF93DF930E9407276A
:1047D000C0919A02D0919B0261E087E992E00E9429
:1047E000D8198C01CE0165E070E00E94EF3D81E1B7
:1047F0000E946C09EC0140E0BC01C8010E94962BAC
:1048000081E10E94C22BCE01DF91CF911F910F91C8
:104810000C94ED2681E00C9419270E943A08882315
:1048200021F00E94E8260C94692C08951092F6025B
:104830000C94E223CF93DF930E940D240E94300852
:10484000EC018091F602811111C062E087E992E0EB
:104850000E94D8198C179D0748F481E08093F602D6
:1048600080919A0290919B020E9401270E943A082F
:10487000882381F064E087E992E00E94D8198C17C0
:104880009D0740F481E595E090933C0380933B03C2
:1048900081E030C00E94B207029758F18091D603A0
:1048A0009091D703892B89F08DE10E949007EC014C
:1048B00087E992E00E940E1AD195C195D1098C1713
:1048C0009D071CF48DE495E0DFCF8091D00390919B
:1048D000D103892B71F08FE10E949007EC0187E9E9
:1048E00092E00E942C1A8C179D071CF487E495E037
:1048F000CBCF82E0DF91CF9108958130910521F0F7
:104900009093F8028093F7027093FA026093F90291
:1049100008950F931F93CF93DF93C091F702D09127
:10492000F802CE010E943B0F8C010E943008C8178C
:10493000D90738F4C801DF91CF911F910F910C94E2
:104940001D0F81E0DF91CF911F910F91089581E0BC
:104950000E94A4270C94C90D0E9496270E947F0DE7
:1049600021E08091EA039091EB03892B09F420E088
:104970002093FB0282E10C94C22B0F931F93CF93E1
:10498000DF930E948924182F0E944A27EC010E947D
:104990003A08882311F001E001C0012F8091FB0249
:1049A000882329F0BE01812F0E941A2C01C0812F7B
:1049B000882329F081E00E94A42781E00CC0002315
:1049C00049F0BE01812F0E94362D8C179D0711F0F2
:1049D0000E94832782E0DF91CF911F910F9108956C
:1049E000BC0182E10E946C090C94352B0F931F933C
:1049F000CF93DF938C01EB010E947D24BE0182E105
:104A00000E946C0940E0BC01C8010E94962BCE01B7
:104A10006AE070E00E94EF3DCB01DF91CF911F91E2
:104A20000F910C94F02481E00E9419270C94C90D79
:104A30000E947F0D0E94072781E10C94C22B0F93E7
:104A40001F93CF93DF931F92CDB7DEB78C0181E127
:104A500049830E946C094981BC01C8010F90DF9114
:104A6000CF911F910F910C94962B0F931F93CF937F
:104A7000DF93C091B603D091B703CE010E943B0FE4
:104A80008C010E9430088C179D0738F4C801DF9113
:104A9000CF911F910F910C94FF0E81E0DF91CF9188
:104AA0001F910F9108951F93CF93DF930E94352597
:104AB000182F0E94E826EC01BC01812F0E941A2CBD
:104AC000882329F081E00E94192781E019C00E9403
:104AD0003A08811107C0111105C0CE010E94532B65
:104AE000882369F00E94F20C811109C0BE01812F58
:104AF0000E94362D8C179D0711F00E94ED2682E052
:104B0000DF91CF911F9108950E9413250E94A72441
:104B10000C94C90DCF93DF931F92CDB7DEB7909160
:104B2000FD02913039F018F0923039F00FC00E9438
:104B300053250CC00E94BD2409C00E94D00E8230B3
:104B400089F089830E94842589810CC0813051F4C9
:104B50009091FC02992331F082E08093FD020E9443
:104B60007F0D82E00F90DF91CF9108950E947F0D1D
:104B700080910203909103030E943B0F0E941D0F3E
:104B80002091020330910303882369F060910003B0
:104B90007091010340E0C9010E941F250E94182561
:104BA0001092FD0208956091FE027091FF02C9010A
:104BB0000E94F6240E94AC2481E08093FB02809343
:104BC000FD0208958093FC0208959093030380935F
:104BD000020370930103609300035093FF0240931C
:104BE000FE02089587E08093E80282E08093E90264
:104BF0000E942E3783E08093050308950F931F933F
:104C0000CF93DF9380910403882379F00E94FC09FD
:104C100090919E0201E0981301C000E011E0811123
:104C200010E0913021F4112311F010E000E085E153
:104C30000E94DD09882309F45CC085E10E94900789
:104C4000EC0184E10E949007C817D90728F49C0161
:104C50002C1B3D0BE90102C0C81BD90BC53FD1403D
:104C600008F447C0C1E0011102C087E001C083E041
:104C70008093E802112329F08091E802825080930A
:104C8000E802CC2329F08091E80281508093E80269
:104C9000011104C0111102C0CC2331F081E00E9447
:104CA0003537111107C004C088E00E94353708C0AD
:104CB000002331F08091EC039091ED03892B11F4E6
:104CC000D0E001C0D1E00E94E911811102C0109230
:104CD0000503D11106C0C11104C00E94E91188303A
:104CE00051F080910503823011F481E00AC082E026
:104CF00008C0C0E0B8CF809105038F5F80930503A3
:104D0000F0CFDF91CF911F910F9108958FEF809396
:104D1000E80288E00C9435378093040308951092DC
:104D20000C0308950E94430728EE33E040E050E072
:104D30000E94033E209308033093090340930A0323
:104D400050930B0308950E94430728EE33E040E0A0
:104D500050E00E94033E609106037091070380912A
:104D6000080390910903A0910A03B0910B03860FE9
:104D7000971FA11DB11D82179307A407B50728F03F
:104D800081E080930C0382E0089510920C0381E08F
:104D9000089580910C0308952CE3AC01249FC00179
:104DA000259F900D112490930703809306030C9484
:104DB000922681E090910F03911180E0089581E0A7
:104DC00020910D0330910E03232B09F480E0089508
:104DD00080910D0390910E03089520916F00223071
:104DE00041F02091F6033091F7032817390708F4B2
:104DF000C90190930E0380930D030E94BD050C948E
:104E0000B708BC0181E10E946C090C94ED268091E9
:104E10000F03882369F010920E0310920D0380E0B7
:104E200090E00E94ED2681E00E94B10510920F03F0
:104E30000895CF93C82F80910F0381110FC0CC2309
:104E400069F080E090E00E94ED2610920E0310922F
:104E50000D0380E00E94B105C0930F03CF91089528
:104E600010920E0310920D0380E090E00E94ED2658
:104E700081E00C94192781E090911403911180E056
:104E8000089581E02091120330911303232B09F43C
:104E900080E0089580911203909113030895CF93B9
:104EA000DF93EC014091CE035091CF03BA01645FD0
:104EB000714085E193E00E94702D80911503882355
:104EC00011F0C0E0D0E0CE01DF91CF910895CF93F3
:104ED000C82F80911003909111030E944F272091B9
:104EE0001203309113038217930711F4CC2349F076
:104EF00090931303809312030E94C105CF910C94E9
:104F0000B708CF91089520916F00223041F0209191
:104F1000F8033091F9032817390708F4C901909371
:104F200011038093100381E00C9467278091140390
:104F3000882349F080E090E00E94832781E00E946E
:104F4000B705109214030895CF93C82F80911403CE
:104F500081110BC0CC2349F080E090E00E948327B0
:104F600080E00E94B705C0931403CF91089580E0BC
:104F700090E00E94832781E00C94A4278091140381
:104F8000811102C00C94672708958091970289309F
:104F900051F09CEF980F963048F08150823048F4E1
:104FA00088E293E008958FE193E0089581E393E030
:104FB000089586E193E0089581E795E09093890252
:104FC0008093880290919702945081E0963008F087
:104FD00080E00E948C2661E084E396E00E94A20FAC
:104FE00091E0813009F090E0892F08950F931F938D
:104FF000CF93DF930E94E22500919C0210919D02C5
:10500000C0919A02D0919B0263E087E992E00E94EE
:10501000D819A801BE010E94E5258BE695E0909382
:1050200089028093880260E08BE396E0DF91CF9164
:105030001F910F910C94A20F1F93CF93DF93162F04
:10504000C0919A02D0919B0261E087E992E00E94B0
:10505000D81940E0BE010E941F2585E695E0909397
:10506000890280938802612F80E696E0DF91CF91DC
:105070001F910C94A20F1F93CF93DF93182FC09111
:105080009A02D0919B0261E087E992E00E94D819D0
:1050900041E0BE010E941F2525E635E030938902DC
:1050A00020938802612F80E696E0DF91CF911F91D7
:1050B0000C94A20F29E535E03093890220938802F1
:1050C000682F8BE796E00C94A20FCF93C82F62E075
:1050D00087E992E00E94D81960919C0270919D022C
:1050E000A0919E02B0919F02E091E803F091E90344
:1050F000AE9F9001AF9F300DBE9F300D1124820FE7
:10510000931F0E94F6242FE535E030938902209307
:1051100088026C2F89E496E0CF910C94A20F1F9324
:10512000CF93DF93182FC0919C02D0919D0262E033
:1051300087E992E00E94D819BE010E94F6242FE56B
:1051400035E03093890220938802612F80E796E052
:10515000DF91CF911F910C94A20F82E192E0909386
:1051600089028093880260E089E596E00C94A20FA2
:105170008091DE039091DF030E94CC2687E795E0C3
:10518000909389028093880261E089E496E00C9410
:10519000A20F80913A03089580916E0008958130A6
:1051A00019F481E00C946528811103C081E00C940E
:1051B0008F288230B1F380E0089540913A0350E0A7
:1051C0002091DC033091DD034217530789F08130D1
:1051D00041F42091EC033091ED03232BD9F0862F7D
:1051E00010C0811102C0862F10C08230C9F412C0D5
:1051F000813049F48091EC039091ED03892B49F0C3
:1052000080E00C943B28811102C00C945A28823013
:1052100039F460E08091E2039091E3030C941C2840
:1052200080E008950F931F93CF93DF93C82F81E001
:1052300080933A0314E4D7E503E440913A0350E045
:105240002091DC033091DD0324173507E8F10E943B
:10525000E50C10936E008C2F0E94CF288130A9F5A9
:10526000D0936E000E94B828813079F50E94982171
:105270000E94E50C00936E0040913A0350E02091AB
:10528000DC033091DD034217530711F061E001C0E8
:1052900060E08C2F0E94DD288130B9F4D0936E003D
:1052A00040913A0350E02091DC033091DD03421736
:1052B000530721F00E94B828813039F480913A03D5
:1052C0008F5F80933A03B9CF81E0DF91CF911F9137
:1052D0000F910895CF93C82F80933D032DE735E0BC
:1052E00030933C0320933B038F3030F4E82FF0E001
:1052F000E155FF4F808101C080E080936F000E94E4
:1053000037380E94DB080E94DC278823F1F184E013
:105310000E9435378C2F90E08F309105A0F5FC016D
:10532000EB5BFF4F0C94443E60E08091E203909170
:10533000E3030AC00E94AD2828C080E00E946528CF
:1053400024C060E085E090E00E941C281EC060E060
:1053500080E002C060E081E00E94F62716C080E095
:105360000E945A2812C080E00E948F280EC081E05F
:1053700003C080E001C082E00E94122906C080E0E4
:105380000E943B2802C00E94E8200E94EA08CF91B8
:105390000C9447380F931F93CF93DF93EC010E9437
:1053A000AD190E94C5278C0160E0C8010E94F71862
:1053B00087FD29C090919702E82FFF27E7FDF09520
:1053C000993019F4E356FA4F0FC08CEF890F8630ED
:1053D00018F4EC54FA4F08C09150923018F4E15789
:1053E000FA4F02C0E258FA4F84918F3049F4BE015F
:1053F00087E992E00E949A1ACE010E94BB19D1CF90
:105400000E946A29D1CFDF91CF911F910F9108950A
:105410006DEB75E081E393E00E94091863E975E0A4
:1054200088E293E00E94091864EA75E08FE193E056
:105430000E94091863E875E086E193E00C9409186E
:10544000FC01428153814115510591F0A081B18148
:10545000B7FF03C0B195A195B10928EE33E00E94D2
:10546000C13D9A0140E050E00E94033EC901089509
:1054700080E090E008950F931F93CF93DF9300D0C7
:1054800000D0CDB7DEB78C01862FF8016281738121
:105490000E9408099C838B83F801808191819A8303
:1054A0008983CE0101960E94202A0F900F900F90C1
:1054B0000F90DF91CF911F910F9108950F93FC01F1
:1054C000CB01002341F04617570708F4CA016417BF
:1054D000750748F407C06417750708F4CA01461732
:1054E000570708F4BA0197838683918380831382D8
:1054F00012821582148233872287681B790B718789
:1055000060870F910895FC019B0140E050E0868187
:105510009781281B390B41095109A285B3850E9447
:10552000C83D20853185442737FD4095542F0E9482
:10553000253E2115310581E04807510524F457FD2A
:1055400005C0C90108958FEF9FEF089580E090E0B6
:105550000895DF92EF92FF920F931F93CF93DF9303
:10556000EC012A813B812417350720F4FA01E21B64
:10557000F30B03C0F901E41BF50B8C819D8196951B
:1055800087958E179F0770F58881998186179707F1
:1055900020F4FB01E81BF90B03C0FC01E61BF70B31
:1055A000EF2B01F12417350738F48A01021B130B86
:1055B0007B01E81AF90A06C07C01E61AF70A89019C
:1055C000041B150BC7010E949E2DD82E8885998536
:1055D0000E949E2DD81206C01D830C83F986E88692
:1055E0001B870A87DF91CF911F910F91FF90EF905A
:1055F000DF9008950F931F93CF93DF93EC018B01FE
:105600009A01A885B9850E94C13D2A853B8540E065
:1056100050E00E94253EC801A0E0B0E08217930749
:10562000A407B5071CF41F821E8204C0021B130BC3
:105630001F830E83DF91CF911F910F910895EF92F9
:10564000FF920F931F93CF93DF93EC018B017A01AD
:105650000E94A92AA701B801CE01DF91CF911F9125
:105660000F91FF90EF900C94FA2A8233910510F479
:1056700082E390E09093BD038093BC0308958091F2
:105680004003813029F48091BC039091BD030895BB
:1056900080E090E008956091B8037091B903809123
:1056A00042030C94080920914503213041F041E068
:1056B0002091BC033091BD038217930708F040E0AE
:1056C000842F08952CE0829FC00111246091420331
:1056D000825B9C4F0C943B2A609142038EEA93E0DC
:1056E0000C943B2ACF93DF9300D000D0CDB7DEB728
:1056F00084E10E9490079A83898385E10E94900744
:1057000029813A81281B390B3A83298389E10E9438
:1057100090079C838B83CE0101960E94202A0F90D4
:105720000F900F900F90DF91CF9108959B018130E2
:10573000910531F09093B7038093B60340934103F2
:105740003093B9032093B8036091E2037091E303AF
:10575000C9010E94EF3D7093BD036093BC032233E7
:10576000310530F482E390E09093B9038093B8035D
:105770006233710530F482E390E09093BD0380932F
:10578000BC030895EF92FF920F931F93CF93DF9383
:1057900091E090934003FF24F394813109F0F12CC0
:1057A0008093420360EA70E00E946C099093BB030F
:1057B0008093BA030E9430082091BC033091BD034E
:1057C0004091B6035091B7030F2DBC0186EA93E0D8
:1057D0000E945E2A0E94EF0C809343038091B603DF
:1057E0009091B7030E943B0FEC0110E08CE0E82E93
:1057F00080914303181798F4812F0E942C0DBC014F
:105800002091BC033091BD03E19EC00111240F2DF6
:10581000AE018A5B9C4F0E945E2A1F5FE9CF109207
:10582000450310924403DF91CF911F910F91FF9098
:10583000EF9008950F931F93CF93DF93082FEB0101
:10584000809141038823C9F04091BA035091BB0372
:105850002091BC033091BD032417350708F49A0149
:105860002C173D0710F4109284028091450381307B
:1058700021F00E94D00E809340038091400381303C
:1058800011F580914503823041F411E02091BC0371
:105890003091BD03C217D30708F010E00E943F2BE0
:1058A0008C179D0770F0111102C0002351F09091E8
:1058B000440381E0890F8093440381E09A3020F40F
:1058C00002C01092440380E0DF91CF911F910F91AD
:1058D00008950F931F93CF93DF93EC010E9430083C
:1058E000AE01BC0186EA93E00E941F2B10E00CE0A1
:1058F00080914303181770F4812F0E942C0DBC0176
:10590000019FC0011124AE018A5B9C4F0E941F2B96
:105910001F5FEECFDF91CF911F910F910895CF922E
:10592000DF92EF92FF920F931F93CF93DF936091DB
:10593000B6037091B70386EA93E00E94832A8C0134
:105940008091B6039091B7030E943B0F7C01D12C4C
:105950009CE0C92E80914303D81698F4CD9CE001B9
:105960001124CA5BDC4FB701CE010E94832A0817BD
:10597000190728F0B701CE010E94832A8C01D39425
:10598000E9CFC801DF91CF911F910F91FF90EF9068
:10599000DF90CF9008950F931F93CF93DF93EB0188
:1059A0008093B4039093B5032091B8033091B90369
:1059B0008C012817390708F489010E943F2B8017B2
:1059C000910708F4C801C817D90711F120914503C0
:1059D0002230A9F48C179D0790F02091BC033091E0
:1059E000BD032C173D07A0F04091B2035091B303C3
:1059F0002091590230915A024217530749F02091E1
:105A0000590230915A023093B3032093B20301C07C
:105A1000CE01DF91CF911F910F9108950F931F93A6
:105A2000CF93DF93EC010E9430089093A7038093FB
:105A3000A603D093A903C093A80310E00CE08091C3
:105A40004303181770F4812F0E942C0D019FF00161
:105A50001124EA5BFC4F91838083D383C2831F5F51
:105A6000EECFDF91CF911F910F9108951F93CF93A8
:105A7000DF93182FEB01CB010E94692CCE010E940D
:105A80000E2D0E948F2C90933F0380933E03BE0106
:105A90000E94CB2C20914503211110C0112389F0C5
:105AA00080914103882321F00E94C20D109284024C
:105AB00081E08093450380E090E003C022E02093E2
:105AC0004503DF91CF911F91089540E0FC0125919E
:105AD00034910296232B11F04F5FF8CF842F089555
